{
	"data": {
		"bytecode": {
			"linkReferences": {},
			"object": "6080604052348015600f57600080fd5b50604051612031380380612031833981016040819052602c916077565b600180546001600160a01b039384166001600160a01b0319918216179091556000805492909316911617905560a5565b80516001600160a01b0381168114607257600080fd5b919050565b60008060408385031215608957600080fd5b609083605c565b9150609c60208401605c565b90509250929050565b611f7d806100b46000396000f3fe60806040526004361061009c5760003560e01c8063cf99f51d11610064578063cf99f51d14610174578063dc7e701e146101a9578063e2599078146101bc578063ea7937c2146101e9578063f26d9918146101fc578063fa4a32871461021c57600080fd5b806312abd755146100a1578063228cb733146100d757806382da59f21461010f5780639ff6b2fe1461013f578063b3a1c8641461015f575b600080fd5b3480156100ad57600080fd5b506100c16100bc366004611525565b61023c565b6040516100ce919061158e565b60405180910390f35b3480156100e357600080fd5b506001546100f7906001600160a01b031681565b6040516001600160a01b0390911681526020016100ce565b34801561011b57600080fd5b5061012f61012a3660046115e9565b6102e8565b60405190151581526020016100ce565b34801561014b57600080fd5b5061012f61015a3660046116fb565b6104cf565b61017261016d3660046117f1565b610722565b005b34801561018057600080fd5b5061019461018f36600461189a565b610cfd565b6040516100ce999897969594939291906118d6565b6101726101b7366004611940565b610e6f565b3480156101c857600080fd5b506101dc6101d7366004611940565b610ff1565b6040516100ce9190611981565b6101726101f73660046119cd565b61106f565b34801561020857600080fd5b5061012f610217366004611a81565b6113e6565b34801561022857600080fd5b50610172610237366004611ad7565b61144a565b6005818154811061024c57600080fd5b90600052602060002001600091509050805461026790611b3f565b80601f016020809104026020016040519081016040528092919081815260200182805461029390611b3f565b80156102e05780601f106102b5576101008083540402835291602001916102e0565b820191906000526020600020905b8154815290600101906020018083116102c357829003601f168201915b505050505081565b60006102f48486611b8f565b8614610302575060006104c2565b6040518060e001604052808b8b8080601f01602080910402602001604051908101604052809392919081815260200183838082843760009201919091525050509082525033602080830191909152604080518b8302818101840183528c82529190930192918c918c9182919085019084908082843760009201919091525050509082525060208082018990526040808301899052606083018890528051601f870183900483028101830190915285815260809092019190869086908190840183828082843760009201919091525050509152506040516003906103e8908d908d90611ba2565b908152604051908190036020019020815181906104059082611bfe565b506020828101516001830180546001600160a01b0319166001600160a01b039092169190911790556040830151805161044492600285019201906114ab565b50606082015160038201556080820151600482015560a0820151600582015560c082015160068201906104779082611bfe565b509050507ff52fcbc5cb218bae54b5dee4a14189098257cb16cc5649f3daeff8c73a56104d8888338d8d88886040516104b69796959493929190611ce5565b60405180910390a15060015b9998505050505050505050565b6000805b6005548110156107155760006004600583815481106104f4576104f4611d6d565b9060005260206000200160405161050b9190611d83565b90815260200160405180910390206040518061012001604052908160008201805461053590611b3f565b80601f016020809104026020016040519081016040528092919081815260200182805461056190611b3f565b80156105ae5780601f10610583576101008083540402835291602001916105ae565b820191906000526020600020905b81548152906001019060200180831161059157829003601f168201915b505050505081526020016001820180546105c790611b3f565b80601f01602080910402602001604051908101604052809291908181526020018280546105f390611b3f565b80156106405780601f1061061557610100808354040283529160200191610640565b820191906000526020600020905b81548152906001019060200180831161062357829003601f168201915b505050918352505060028201546001600160a01b039081166020830152600383015481166040808401919091526004840154909116606083015260058301546080830152600683015460a0830152600783015460c083015260089092015460e090910152519091506106b59087908790611ba2565b60405180910390208160000151805190602001201480156106eb5750836001600160a01b031681608001516001600160a01b0316145b80156106fc57508061010001516001145b1561070c5760019250505061071b565b506001016104d3565b50600090505b9392505050565b6000806003876040516107359190611df8565b90815260200160405180910390206040518060e001604052908160008201805461075e90611b3f565b80601f016020809104026020016040519081016040528092919081815260200182805461078a90611b3f565b80156107d75780601f106107ac576101008083540402835291602001916107d7565b820191906000526020600020905b8154815290600101906020018083116107ba57829003601f168201915b505050918352505060018201546001600160a01b0316602080830191909152600283018054604080518285028101850182528281529401939283018282801561084957602002820191906000526020600020905b81546001600160a01b0316815260019091019060200180831161082b575b5050505050815260200160038201548152602001600482015481526020016005820154815260200160068201805461088090611b3f565b80601f01602080910402602001604051908101604052809291908181526020018280546108ac90611b3f565b80156108f95780601f106108ce576101008083540402835291602001916108f9565b820191906000526020600020905b8154815290600101906020018083116108dc57829003601f168201915b505050505081525050905060006002886040516109169190611df8565b908152604080519182900360209081018320805480830285018301909352828452919083018282801561097257602002820191906000526020600020905b81546001600160a01b03168152600190910190602001808311610954575b5050505050905060005b81518110156109c457866001600160a01b03168282815181106109a1576109a1611d6d565b60200260200101516001600160a01b0316036109bc57600193505b60010161097c565b50826109d257505050610cf6565b6000600583606001516109e59190611e14565b60015460405163ee204abb60e01b81523360048201529192506000916001600160a01b039091169063ee204abb90602401606060405180830381865afa158015610a33573d6000803e3d6000fd5b505050506040513d601f19601f82011682018060405250810190610a579190611e36565b509150506000828211610a6a5781610a6c565b825b90506000818660600151610a809190611e64565b905080341015610ad65760405162461bcd60e51b815260206004820152601f60248201527f496e73756666696369656e742045544820616674657220646973636f756e7400604482015260640160405180910390fd5b8115610b415760015460405163c724caf760e01b8152336004820152602481018490526001600160a01b039091169063c724caf790604401600060405180830381600087803b158015610b2857600080fd5b505af1158015610b3c573d6000803e3d6000fd5b505050505b604051806101200160405280876000015181526020018c815260200187602001516001600160a01b031681526020018b6001600160a01b03168152602001336001600160a01b0316815260200187606001518152602001876080015181526020018760a001518152602001600081525060048c604051610bc19190611df8565b90815260405190819003602001902081518190610bde9082611bfe565b5060208201516001820190610bf39082611bfe565b5060408201516002820180546001600160a01b039283166001600160a01b0319918216179091556060840151600384018054918416918316919091179055608084015160048401805491909316911617905560a082015160058083019190915560c0830151600683015560e083015160078301556101009092015160089091015580546001810182556000919091527f036b6384b5eca791c62761152d0c79bb0604c104a5fb6f4eb0703f3154bb3db001610cae8c82611bfe565b507fa82fdb4b07891794fe0bcde99c7d434289ff9320ff626ff65b07a002202557778a8c348c8c604051610ce6959493929190611e77565b60405180910390a1505050505050505b5050505050565b8051602081830181018051600482529282019190930120915280548190610d2390611b3f565b80601f0160208091040260200160405190810160405280929190818152602001828054610d4f90611b3f565b8015610d9c5780601f10610d7157610100808354040283529160200191610d9c565b820191906000526020600020905b815481529060010190602001808311610d7f57829003601f168201915b505050505090806001018054610db190611b3f565b80601f0160208091040260200160405190810160405280929190818152602001828054610ddd90611b3f565b8015610e2a5780601f10610dff57610100808354040283529160200191610e2a565b820191906000526020600020905b815481529060010190602001808311610e0d57829003601f168201915b50505060028401546003850154600486015460058701546006880154600789015460089099015497986001600160a01b03958616989486169750929094169450929189565b600060048383604051610e83929190611ba2565b9081526020016040518091039020905060048383604051610ea5929190611ba2565b908152602001604051809103902090508060080154600103610ec657505050565b60048101546001600160a01b03163314610edf57600080fd5b600160088201556002810154600382015460068301546040516001600160a01b03938416939092169183916108fc811502916000818181858888f19350505050158015610f30573d6000803e3d6000fd5b5060078301546040516001600160a01b0383169180156108fc02916000818181858888f19350505050158015610f6a573d6000803e3d6000fd5b50600154600284015460048086015460038701546040516346882d3360e11b81526001600160a01b0394851693810193909352908316602483015282166044820152911690638d105a6690606401600060405180830381600087803b158015610fd257600080fd5b505af1158015610fe6573d6000803e3d6000fd5b505050505050505050565b606060028383604051611005929190611ba2565b908152604080519182900360209081018320805480830285018301909352828452919083018282801561106157602002820191906000526020600020905b81546001600160a01b03168152600190910190602001808311611043575b505050505090505b92915050565b6110d9604051806101200160405280606081526020016060815260200160006001600160a01b0316815260200160006001600160a01b0316815260200160006001600160a01b03168152602001600081526020016000815260200160008152602001600081525090565b600487876040516110eb929190611ba2565b90815260200160405180910390206040518061012001604052908160008201805461111590611b3f565b80601f016020809104026020016040519081016040528092919081815260200182805461114190611b3f565b801561118e5780601f106111635761010080835404028352916020019161118e565b820191906000526020600020905b81548152906001019060200180831161117157829003601f168201915b505050505081526020016001820180546111a790611b3f565b80601f01602080910402602001604051908101604052809291908181526020018280546111d390611b3f565b80156112205780601f106111f557610100808354040283529160200191611220565b820191906000526020600020905b81548152906001019060200180831161120357829003601f168201915b505050918352505060028201546001600160a01b039081166020830152600383015481166040830152600483015416606082015260058201546080820152600682015460a0820152600782015460c082015260089091015460e090910152805190915061128c90611490565b151560000361129b57506113de565b6080810151600054604051637ec55a4160e11b81526001600160a01b0380841660048301529091169063fd8ab48290602401602060405180830381865afa1580156112ea573d6000803e3d6000fd5b505050506040513d601f19601f8201168201806040525081019061130e9190611ec0565b15156000036113825760005460405163d6192e2960e01b81526001600160a01b039091169063d6192e2990349061134f908a908a908a908a90600401611edd565b6000604051808303818588803b15801561136857600080fd5b505af115801561137c573d6000803e3d6000fd5b50505050505b6000600383600001516040516113989190611df8565b90815260405160209181900382019020600201805460018101825560009182529190200180546001600160a01b0319166001600160a01b03939093169290921790915550505b505050505050565b60008115156001036114405760028484604051611404929190611ba2565b9081526040519081900360209081019091208054600181810183556000928352929091200180546001600160a01b03191633179055905061071b565b5060009392505050565b7f696776fbada6026b2cc4883473b601f70eed8609668c456c07681055dca814f08386868585604051611481959493929190611f0f565b60405180910390a15050505050565b600081516000036114a357506000919050565b506001919050565b828054828255906000526020600020908101928215611500579160200282015b8281111561150057825182546001600160a01b0319166001600160a01b039091161782556020909201916001909101906114cb565b5061150c929150611510565b5090565b5b8082111561150c5760008155600101611511565b60006020828403121561153757600080fd5b5035919050565b60005b83811015611559578181015183820152602001611541565b50506000910152565b6000815180845261157a81602086016020860161153e565b601f01601f19169290920160200192915050565b60208152600061071b6020830184611562565b60008083601f8401126115b357600080fd5b5081356001600160401b038111156115ca57600080fd5b6020830191508360208285010111156115e257600080fd5b9250929050565b600080600080600080600080600060c08a8c03121561160757600080fd5b89356001600160401b0381111561161d57600080fd5b6116298c828d016115a1565b909a5098505060208a01356001600160401b0381111561164857600080fd5b8a01601f81018c1361165957600080fd5b80356001600160401b0381111561166f57600080fd5b8c60208260051b840101111561168457600080fd5b6020919091019750955060408a0135945060608a0135935060808a0135925060a08a01356001600160401b038111156116bc57600080fd5b6116c88c828d016115a1565b915080935050809150509295985092959850929598565b80356001600160a01b03811681146116f657600080fd5b919050565b60008060006040848603121561171057600080fd5b83356001600160401b0381111561172657600080fd5b611732868287016115a1565b90945092506117459050602085016116df565b90509250925092565b634e487b7160e01b600052604160045260246000fd5b600082601f83011261177557600080fd5b81356001600160401b0381111561178e5761178e61174e565b604051601f8201601f19908116603f011681016001600160401b03811182821017156117bc576117bc61174e565b6040528181528382016020018510156117d457600080fd5b816020850160208301376000918101602001919091529392505050565b60008060008060006080868803121561180957600080fd5b85356001600160401b0381111561181f57600080fd5b61182b88828901611764565b95505060208601356001600160401b0381111561184757600080fd5b61185388828901611764565b945050611862604087016116df565b925060608601356001600160401b0381111561187d57600080fd5b611889888289016115a1565b969995985093965092949392505050565b6000602082840312156118ac57600080fd5b81356001600160401b038111156118c257600080fd5b6118ce84828501611764565b949350505050565b610120815260006118eb61012083018c611562565b82810360208401526118fd818c611562565b6001600160a01b039a8b166040850152988a166060840152505094909616608085015260a084019290925260c083015260e0820152610100019190915292915050565b6000806020838503121561195357600080fd5b82356001600160401b0381111561196957600080fd5b611975858286016115a1565b90969095509350505050565b602080825282518282018190526000918401906040840190835b818110156119c25783516001600160a01b031683526020938401939092019160010161199b565b509095945050505050565b600080600080600080606087890312156119e657600080fd5b86356001600160401b038111156119fc57600080fd5b611a0889828a016115a1565b90975095505060208701356001600160401b03811115611a2757600080fd5b611a3389828a016115a1565b90955093505060408701356001600160401b03811115611a5257600080fd5b611a5e89828a016115a1565b979a9699509497509295939492505050565b8015158114611a7e57600080fd5b50565b600080600060408486031215611a9657600080fd5b83356001600160401b03811115611aac57600080fd5b611ab8868287016115a1565b9094509250506020840135611acc81611a70565b809150509250925092565b600080600080600060608688031215611aef57600080fd5b85356001600160401b03811115611b0557600080fd5b611b11888289016115a1565b9096509450611b249050602087016116df565b925060408601356001600160401b0381111561187d57600080fd5b600181811c90821680611b5357607f821691505b602082108103611b7357634e487b7160e01b600052602260045260246000fd5b50919050565b634e487b7160e01b600052601160045260246000fd5b8082018082111561106957611069611b79565b8183823760009101908152919050565b601f821115611bf957806000526020600020601f840160051c81016020851015611bd95750805b601f840160051c820191505b81811015610cf65760008155600101611be5565b505050565b81516001600160401b03811115611c1757611c1761174e565b611c2b81611c258454611b3f565b84611bb2565b6020601f821160018114611c5f5760008315611c475750848201515b600019600385901b1c1916600184901b178455610cf6565b600084815260208120601f198516915b82811015611c8f5787850151825560209485019460019092019101611c6f565b5084821015611cad5786840151600019600387901b60f8161c191681555b50505050600190811b01905550565b81835281816020850137506000828201602090810191909152601f909101601f19169091010190565b6080808252810187905260008860a08301825b8a811015611d26576001600160a01b03611d11846116df565b16825260209283019290910190600101611cf8565b506001600160a01b03891660208501528381036040850152611d4981888a611cbc565b9150508281036060840152611d5f818587611cbc565b9a9950505050505050505050565b634e487b7160e01b600052603260045260246000fd5b6000808354611d9181611b3f565b600182168015611da85760018114611dbd57611ded565b60ff1983168652811515820286019350611ded565b86600052602060002060005b83811015611de557815488820152600190910190602001611dc9565b505081860193505b509195945050505050565b60008251611e0a81846020870161153e565b9190910192915050565b600082611e3157634e487b7160e01b600052601260045260246000fd5b500490565b600080600060608486031215611e4b57600080fd5b5050815160208301516040909301519094929350919050565b8181038181111561106957611069611b79565b6001600160a01b0386168152608060208201819052600090611e9b90830187611562565b8560408401528281036060840152611eb4818587611cbc565b98975050505050505050565b600060208284031215611ed257600080fd5b815161071b81611a70565b604081526000611ef1604083018688611cbc565b8281036020840152611f04818587611cbc565b979650505050505050565b6001600160a01b0386168152606060208201819052600090611f349083018688611cbc565b8281036040840152611eb4818587611cbc56fea26469706673582212200e271f334095a6a54015906ab8c01823f19e565ef0b772e460c664a56f3dd03064736f6c634300081a0033",
			"opcodes": "PUSH1 0x80 PUSH1 0x40 MSTORE CALLVALUE DUP1 ISZERO PUSH1 0xF JUMPI PUSH1 0x0 DUP1 REVERT JUMPDEST POP PUSH1 0x40 MLOAD PUSH2 0x2031 CODESIZE SUB DUP1 PUSH2 0x2031 DUP4 CODECOPY DUP2 ADD PUSH1 0x40 DUP2 SWAP1 MSTORE PUSH1 0x2C SWAP2 PUSH1 0x77 JUMP JUMPDEST PUSH1 0x1 DUP1 SLOAD PUSH1 0x1 PUSH1 0x1 PUSH1 0xA0 SHL SUB SWAP4 DUP5 AND PUSH1 0x1 PUSH1 0x1 PUSH1 0xA0 SHL SUB NOT SWAP2 DUP3 AND OR SWAP1 SWAP2 SSTORE PUSH1 0x0 DUP1 SLOAD SWAP3 SWAP1 SWAP4 AND SWAP2 AND OR SWAP1 SSTORE PUSH1 0xA5 JUMP JUMPDEST DUP1 MLOAD PUSH1 0x1 PUSH1 0x1 PUSH1 0xA0 SHL SUB DUP2 AND DUP2 EQ PUSH1 0x72 JUMPI PUSH1 0x0 DUP1 REVERT JUMPDEST SWAP2 SWAP1 POP JUMP JUMPDEST PUSH1 0x0 DUP1 PUSH1 0x40 DUP4 DUP6 SUB SLT ISZERO PUSH1 0x89 JUMPI PUSH1 0x0 DUP1 REVERT JUMPDEST PUSH1 0x90 DUP4 PUSH1 0x5C JUMP JUMPDEST SWAP2 POP PUSH1 0x9C PUSH1 0x20 DUP5 ADD PUSH1 0x5C JUMP JUMPDEST SWAP1 POP SWAP3 POP SWAP3 SWAP1 POP JUMP JUMPDEST PUSH2 0x1F7D DUP1 PUSH2 0xB4 PUSH1 0x0 CODECOPY PUSH1 0x0 RETURN INVALID PUSH1 0x80 PUSH1 0x40 MSTORE PUSH1 0x4 CALLDATASIZE LT PUSH2 0x9C JUMPI PUSH1 0x0 CALLDATALOAD PUSH1 0xE0 SHR DUP1 PUSH4 0xCF99F51D GT PUSH2 0x64 JUMPI DUP1 PUSH4 0xCF99F51D EQ PUSH2 0x174 JUMPI DUP1 PUSH4 0xDC7E701E EQ PUSH2 0x1A9 JUMPI DUP1 PUSH4 0xE2599078 EQ PUSH2 0x1BC JUMPI DUP1 PUSH4 0xEA7937C2 EQ PUSH2 0x1E9 JUMPI DUP1 PUSH4 0xF26D9918 EQ PUSH2 0x1FC JUMPI DUP1 PUSH4 0xFA4A3287 EQ PUSH2 0x21C JUMPI PUSH1 0x0 DUP1 REVERT JUMPDEST DUP1 PUSH4 0x12ABD755 EQ PUSH2 0xA1 JUMPI DUP1 PUSH4 0x228CB733 EQ PUSH2 0xD7 JUMPI DUP1 PUSH4 0x82DA59F2 EQ PUSH2 0x10F JUMPI DUP1 PUSH4 0x9FF6B2FE EQ PUSH2 0x13F JUMPI DUP1 PUSH4 0xB3A1C864 EQ PUSH2 0x15F JUMPI JUMPDEST PUSH1 0x0 DUP1 REVERT JUMPDEST CALLVALUE DUP1 ISZERO PUSH2 0xAD JUMPI PUSH1 0x0 DUP1 REVERT JUMPDEST POP PUSH2 0xC1 PUSH2 0xBC CALLDATASIZE PUSH1 0x4 PUSH2 0x1525 JUMP JUMPDEST PUSH2 0x23C JUMP JUMPDEST PUSH1 0x40 MLOAD PUSH2 0xCE SWAP2 SWAP1 PUSH2 0x158E JUMP JUMPDEST PUSH1 0x40 MLOAD DUP1 SWAP2 SUB SWAP1 RETURN JUMPDEST CALLVALUE DUP1 ISZERO PUSH2 0xE3 JUMPI PUSH1 0x0 DUP1 REVERT JUMPDEST POP PUSH1 0x1 SLOAD PUSH2 0xF7 SWAP1 PUSH1 0x1 PUSH1 0x1 PUSH1 0xA0 SHL SUB AND DUP2 JUMP JUMPDEST PUSH1 0x40 MLOAD PUSH1 0x1 PUSH1 0x1 PUSH1 0xA0 SHL SUB SWAP1 SWAP2 AND DUP2 MSTORE PUSH1 0x20 ADD PUSH2 0xCE JUMP JUMPDEST CALLVALUE DUP1 ISZERO PUSH2 0x11B JUMPI PUSH1 0x0 DUP1 REVERT JUMPDEST POP PUSH2 0x12F PUSH2 0x12A CALLDATASIZE PUSH1 0x4 PUSH2 0x15E9 JUMP JUMPDEST PUSH2 0x2E8 JUMP JUMPDEST PUSH1 0x40 MLOAD SWAP1 ISZERO ISZERO DUP2 MSTORE PUSH1 0x20 ADD PUSH2 0xCE JUMP JUMPDEST CALLVALUE DUP1 ISZERO PUSH2 0x14B JUMPI PUSH1 0x0 DUP1 REVERT JUMPDEST POP PUSH2 0x12F PUSH2 0x15A CALLDATASIZE PUSH1 0x4 PUSH2 0x16FB JUMP JUMPDEST PUSH2 0x4CF JUMP JUMPDEST PUSH2 0x172 PUSH2 0x16D CALLDATASIZE PUSH1 0x4 PUSH2 0x17F1 JUMP JUMPDEST PUSH2 0x722 JUMP JUMPDEST STOP JUMPDEST CALLVALUE DUP1 ISZERO PUSH2 0x180 JUMPI PUSH1 0x0 DUP1 REVERT JUMPDEST POP PUSH2 0x194 PUSH2 0x18F CALLDATASIZE PUSH1 0x4 PUSH2 0x189A JUMP JUMPDEST PUSH2 0xCFD JUMP JUMPDEST PUSH1 0x40 MLOAD PUSH2 0xCE SWAP10 SWAP9 SWAP8 SWAP7 SWAP6 SWAP5 SWAP4 SWAP3 SWAP2 SWAP1 PUSH2 0x18D6 JUMP JUMPDEST PUSH2 0x172 PUSH2 0x1B7 CALLDATASIZE PUSH1 0x4 PUSH2 0x1940 JUMP JUMPDEST PUSH2 0xE6F JUMP JUMPDEST CALLVALUE DUP1 ISZERO PUSH2 0x1C8 JUMPI PUSH1 0x0 DUP1 REVERT JUMPDEST POP PUSH2 0x1DC PUSH2 0x1D7 CALLDATASIZE PUSH1 0x4 PUSH2 0x1940 JUMP JUMPDEST PUSH2 0xFF1 JUMP JUMPDEST PUSH1 0x40 MLOAD PUSH2 0xCE SWAP2 SWAP1 PUSH2 0x1981 JUMP JUMPDEST PUSH2 0x172 PUSH2 0x1F7 CALLDATASIZE PUSH1 0x4 PUSH2 0x19CD JUMP JUMPDEST PUSH2 0x106F JUMP JUMPDEST CALLVALUE DUP1 ISZERO PUSH2 0x208 JUMPI PUSH1 0x0 DUP1 REVERT JUMPDEST POP PUSH2 0x12F PUSH2 0x217 CALLDATASIZE PUSH1 0x4 PUSH2 0x1A81 JUMP JUMPDEST PUSH2 0x13E6 JUMP JUMPDEST CALLVALUE DUP1 ISZERO PUSH2 0x228 JUMPI PUSH1 0x0 DUP1 REVERT JUMPDEST POP PUSH2 0x172 PUSH2 0x237 CALLDATASIZE PUSH1 0x4 PUSH2 0x1AD7 JUMP JUMPDEST PUSH2 0x144A JUMP JUMPDEST PUSH1 0x5 DUP2 DUP2 SLOAD DUP2 LT PUSH2 0x24C JUMPI PUSH1 0x0 DUP1 REVERT JUMPDEST SWAP1 PUSH1 0x0 MSTORE PUSH1 0x20 PUSH1 0x0 KECCAK256 ADD PUSH1 0x0 SWAP2 POP SWAP1 POP DUP1 SLOAD PUSH2 0x267 SWAP1 PUSH2 0x1B3F JUMP JUMPDEST DUP1 PUSH1 0x1F ADD PUSH1 0x20 DUP1 SWAP2 DIV MUL PUSH1 0x20 ADD PUSH1 0x40 MLOAD SWAP1 DUP2 ADD PUSH1 0x40 MSTORE DUP1 SWAP3 SWAP2 SWAP1 DUP2 DUP2 MSTORE PUSH1 0x20 ADD DUP3 DUP1 SLOAD PUSH2 0x293 SWAP1 PUSH2 0x1B3F JUMP JUMPDEST DUP1 ISZERO PUSH2 0x2E0 JUMPI DUP1 PUSH1 0x1F LT PUSH2 0x2B5 JUMPI PUSH2 0x100 DUP1 DUP4 SLOAD DIV MUL DUP4 MSTORE SWAP2 PUSH1 0x20 ADD SWAP2 PUSH2 0x2E0 JUMP JUMPDEST DUP3 ADD SWAP2 SWAP1 PUSH1 0x0 MSTORE PUSH1 0x20 PUSH1 0x0 KECCAK256 SWAP1 JUMPDEST DUP2 SLOAD DUP2 MSTORE SWAP1 PUSH1 0x1 ADD SWAP1 PUSH1 0x20 ADD DUP1 DUP4 GT PUSH2 0x2C3 JUMPI DUP3 SWAP1 SUB PUSH1 0x1F AND DUP3 ADD SWAP2 JUMPDEST POP POP POP POP POP DUP2 JUMP JUMPDEST PUSH1 0x0 PUSH2 0x2F4 DUP5 DUP7 PUSH2 0x1B8F JUMP JUMPDEST DUP7 EQ PUSH2 0x302 JUMPI POP PUSH1 0x0 PUSH2 0x4C2 JUMP JUMPDEST PUSH1 0x40 MLOAD DUP1 PUSH1 0xE0 ADD PUSH1 0x40 MSTORE DUP1 DUP12 DUP12 DUP1 DUP1 PUSH1 0x1F ADD PUSH1 0x20 DUP1 SWAP2 DIV MUL PUSH1 0x20 ADD PUSH1 0x40 MLOAD SWAP1 DUP2 ADD PUSH1 0x40 MSTORE DUP1 SWAP4 SWAP3 SWAP2 SWAP1 DUP2 DUP2 MSTORE PUSH1 0x20 ADD DUP4 DUP4 DUP1 DUP3 DUP5 CALLDATACOPY PUSH1 0x0 SWAP3 ADD SWAP2 SWAP1 SWAP2 MSTORE POP POP POP SWAP1 DUP3 MSTORE POP CALLER PUSH1 0x20 DUP1 DUP4 ADD SWAP2 SWAP1 SWAP2 MSTORE PUSH1 0x40 DUP1 MLOAD DUP12 DUP4 MUL DUP2 DUP2 ADD DUP5 ADD DUP4 MSTORE DUP13 DUP3 MSTORE SWAP2 SWAP1 SWAP4 ADD SWAP3 SWAP2 DUP13 SWAP2 DUP13 SWAP2 DUP3 SWAP2 SWAP1 DUP6 ADD SWAP1 DUP5 SWAP1 DUP1 DUP3 DUP5 CALLDATACOPY PUSH1 0x0 SWAP3 ADD SWAP2 SWAP1 SWAP2 MSTORE POP POP POP SWAP1 DUP3 MSTORE POP PUSH1 0x20 DUP1 DUP3 ADD DUP10 SWAP1 MSTORE PUSH1 0x40 DUP1 DUP4 ADD DUP10 SWAP1 MSTORE PUSH1 0x60 DUP4 ADD DUP9 SWAP1 MSTORE DUP1 MLOAD PUSH1 0x1F DUP8 ADD DUP4 SWAP1 DIV DUP4 MUL DUP2 ADD DUP4 ADD SWAP1 SWAP2 MSTORE DUP6 DUP2 MSTORE PUSH1 0x80 SWAP1 SWAP3 ADD SWAP2 SWAP1 DUP7 SWAP1 DUP7 SWAP1 DUP2 SWAP1 DUP5 ADD DUP4 DUP3 DUP1 DUP3 DUP5 CALLDATACOPY PUSH1 0x0 SWAP3 ADD SWAP2 SWAP1 SWAP2 MSTORE POP POP POP SWAP2 MSTORE POP PUSH1 0x40 MLOAD PUSH1 0x3 SWAP1 PUSH2 0x3E8 SWAP1 DUP14 SWAP1 DUP14 SWAP1 PUSH2 0x1BA2 JUMP JUMPDEST SWAP1 DUP2 MSTORE PUSH1 0x40 MLOAD SWAP1 DUP2 SWAP1 SUB PUSH1 0x20 ADD SWAP1 KECCAK256 DUP2 MLOAD DUP2 SWAP1 PUSH2 0x405 SWAP1 DUP3 PUSH2 0x1BFE JUMP JUMPDEST POP PUSH1 0x20 DUP3 DUP2 ADD MLOAD PUSH1 0x1 DUP4 ADD DUP1 SLOAD PUSH1 0x1 PUSH1 0x1 PUSH1 0xA0 SHL SUB NOT AND PUSH1 0x1 PUSH1 0x1 PUSH1 0xA0 SHL SUB SWAP1 SWAP3 AND SWAP2 SWAP1 SWAP2 OR SWAP1 SSTORE PUSH1 0x40 DUP4 ADD MLOAD DUP1 MLOAD PUSH2 0x444 SWAP3 PUSH1 0x2 DUP6 ADD SWAP3 ADD SWAP1 PUSH2 0x14AB JUMP JUMPDEST POP PUSH1 0x60 DUP3 ADD MLOAD PUSH1 0x3 DUP3 ADD SSTORE PUSH1 0x80 DUP3 ADD MLOAD PUSH1 0x4 DUP3 ADD SSTORE PUSH1 0xA0 DUP3 ADD MLOAD PUSH1 0x5 DUP3 ADD SSTORE PUSH1 0xC0 DUP3 ADD MLOAD PUSH1 0x6 DUP3 ADD SWAP1 PUSH2 0x477 SWAP1 DUP3 PUSH2 0x1BFE JUMP JUMPDEST POP SWAP1 POP POP PUSH32 0xF52FCBC5CB218BAE54B5DEE4A14189098257CB16CC5649F3DAEFF8C73A56104D DUP9 DUP9 CALLER DUP14 DUP14 DUP9 DUP9 PUSH1 0x40 MLOAD PUSH2 0x4B6 SWAP8 SWAP7 SWAP6 SWAP5 SWAP4 SWAP3 SWAP2 SWAP1 PUSH2 0x1CE5 JUMP JUMPDEST PUSH1 0x40 MLOAD DUP1 SWAP2 SUB SWAP1 LOG1 POP PUSH1 0x1 JUMPDEST SWAP10 SWAP9 POP POP POP POP POP POP POP POP POP JUMP JUMPDEST PUSH1 0x0 DUP1 JUMPDEST PUSH1 0x5 SLOAD DUP2 LT ISZERO PUSH2 0x715 JUMPI PUSH1 0x0 PUSH1 0x4 PUSH1 0x5 DUP4 DUP2 SLOAD DUP2 LT PUSH2 0x4F4 JUMPI PUSH2 0x4F4 PUSH2 0x1D6D JUMP JUMPDEST SWAP1 PUSH1 0x0 MSTORE PUSH1 0x20 PUSH1 0x0 KECCAK256 ADD PUSH1 0x40 MLOAD PUSH2 0x50B SWAP2 SWAP1 PUSH2 0x1D83 JUMP JUMPDEST SWAP1 DUP2 MSTORE PUSH1 0x20 ADD PUSH1 0x40 MLOAD DUP1 SWAP2 SUB SWAP1 KECCAK256 PUSH1 0x40 MLOAD DUP1 PUSH2 0x120 ADD PUSH1 0x40 MSTORE SWAP1 DUP2 PUSH1 0x0 DUP3 ADD DUP1 SLOAD PUSH2 0x535 SWAP1 PUSH2 0x1B3F JUMP JUMPDEST DUP1 PUSH1 0x1F ADD PUSH1 0x20 DUP1 SWAP2 DIV MUL PUSH1 0x20 ADD PUSH1 0x40 MLOAD SWAP1 DUP2 ADD PUSH1 0x40 MSTORE DUP1 SWAP3 SWAP2 SWAP1 DUP2 DUP2 MSTORE PUSH1 0x20 ADD DUP3 DUP1 SLOAD PUSH2 0x561 SWAP1 PUSH2 0x1B3F JUMP JUMPDEST DUP1 ISZERO PUSH2 0x5AE JUMPI DUP1 PUSH1 0x1F LT PUSH2 0x583 JUMPI PUSH2 0x100 DUP1 DUP4 SLOAD DIV MUL DUP4 MSTORE SWAP2 PUSH1 0x20 ADD SWAP2 PUSH2 0x5AE JUMP JUMPDEST DUP3 ADD SWAP2 SWAP1 PUSH1 0x0 MSTORE PUSH1 0x20 PUSH1 0x0 KECCAK256 SWAP1 JUMPDEST DUP2 SLOAD DUP2 MSTORE SWAP1 PUSH1 0x1 ADD SWAP1 PUSH1 0x20 ADD DUP1 DUP4 GT PUSH2 0x591 JUMPI DUP3 SWAP1 SUB PUSH1 0x1F AND DUP3 ADD SWAP2 JUMPDEST POP POP POP POP POP DUP2 MSTORE PUSH1 0x20 ADD PUSH1 0x1 DUP3 ADD DUP1 SLOAD PUSH2 0x5C7 SWAP1 PUSH2 0x1B3F JUMP JUMPDEST DUP1 PUSH1 0x1F ADD PUSH1 0x20 DUP1 SWAP2 DIV MUL PUSH1 0x20 ADD PUSH1 0x40 MLOAD SWAP1 DUP2 ADD PUSH1 0x40 MSTORE DUP1 SWAP3 SWAP2 SWAP1 DUP2 DUP2 MSTORE PUSH1 0x20 ADD DUP3 DUP1 SLOAD PUSH2 0x5F3 SWAP1 PUSH2 0x1B3F JUMP JUMPDEST DUP1 ISZERO PUSH2 0x640 JUMPI DUP1 PUSH1 0x1F LT PUSH2 0x615 JUMPI PUSH2 0x100 DUP1 DUP4 SLOAD DIV MUL DUP4 MSTORE SWAP2 PUSH1 0x20 ADD SWAP2 PUSH2 0x640 JUMP JUMPDEST DUP3 ADD SWAP2 SWAP1 PUSH1 0x0 MSTORE PUSH1 0x20 PUSH1 0x0 KECCAK256 SWAP1 JUMPDEST DUP2 SLOAD DUP2 MSTORE SWAP1 PUSH1 0x1 ADD SWAP1 PUSH1 0x20 ADD DUP1 DUP4 GT PUSH2 0x623 JUMPI DUP3 SWAP1 SUB PUSH1 0x1F AND DUP3 ADD SWAP2 JUMPDEST POP POP POP SWAP2 DUP4 MSTORE POP POP PUSH1 0x2 DUP3 ADD SLOAD PUSH1 0x1 PUSH1 0x1 PUSH1 0xA0 SHL SUB SWAP1 DUP2 AND PUSH1 0x20 DUP4 ADD MSTORE PUSH1 0x3 DUP4 ADD SLOAD DUP2 AND PUSH1 0x40 DUP1 DUP5 ADD SWAP2 SWAP1 SWAP2 MSTORE PUSH1 0x4 DUP5 ADD SLOAD SWAP1 SWAP2 AND PUSH1 0x60 DUP4 ADD MSTORE PUSH1 0x5 DUP4 ADD SLOAD PUSH1 0x80 DUP4 ADD MSTORE PUSH1 0x6 DUP4 ADD SLOAD PUSH1 0xA0 DUP4 ADD MSTORE PUSH1 0x7 DUP4 ADD SLOAD PUSH1 0xC0 DUP4 ADD MSTORE PUSH1 0x8 SWAP1 SWAP3 ADD SLOAD PUSH1 0xE0 SWAP1 SWAP2 ADD MSTORE MLOAD SWAP1 SWAP2 POP PUSH2 0x6B5 SWAP1 DUP8 SWAP1 DUP8 SWAP1 PUSH2 0x1BA2 JUMP JUMPDEST PUSH1 0x40 MLOAD DUP1 SWAP2 SUB SWAP1 KECCAK256 DUP2 PUSH1 0x0 ADD MLOAD DUP1 MLOAD SWAP1 PUSH1 0x20 ADD KECCAK256 EQ DUP1 ISZERO PUSH2 0x6EB JUMPI POP DUP4 PUSH1 0x1 PUSH1 0x1 PUSH1 0xA0 SHL SUB AND DUP2 PUSH1 0x80 ADD MLOAD PUSH1 0x1 PUSH1 0x1 PUSH1 0xA0 SHL SUB AND EQ JUMPDEST DUP1 ISZERO PUSH2 0x6FC JUMPI POP DUP1 PUSH2 0x100 ADD MLOAD PUSH1 0x1 EQ JUMPDEST ISZERO PUSH2 0x70C JUMPI PUSH1 0x1 SWAP3 POP POP POP PUSH2 0x71B JUMP JUMPDEST POP PUSH1 0x1 ADD PUSH2 0x4D3 JUMP JUMPDEST POP PUSH1 0x0 SWAP1 POP JUMPDEST SWAP4 SWAP3 POP POP POP JUMP JUMPDEST PUSH1 0x0 DUP1 PUSH1 0x3 DUP8 PUSH1 0x40 MLOAD PUSH2 0x735 SWAP2 SWAP1 PUSH2 0x1DF8 JUMP JUMPDEST SWAP1 DUP2 MSTORE PUSH1 0x20 ADD PUSH1 0x40 MLOAD DUP1 SWAP2 SUB SWAP1 KECCAK256 PUSH1 0x40 MLOAD DUP1 PUSH1 0xE0 ADD PUSH1 0x40 MSTORE SWAP1 DUP2 PUSH1 0x0 DUP3 ADD DUP1 SLOAD PUSH2 0x75E SWAP1 PUSH2 0x1B3F JUMP JUMPDEST DUP1 PUSH1 0x1F ADD PUSH1 0x20 DUP1 SWAP2 DIV MUL PUSH1 0x20 ADD PUSH1 0x40 MLOAD SWAP1 DUP2 ADD PUSH1 0x40 MSTORE DUP1 SWAP3 SWAP2 SWAP1 DUP2 DUP2 MSTORE PUSH1 0x20 ADD DUP3 DUP1 SLOAD PUSH2 0x78A SWAP1 PUSH2 0x1B3F JUMP JUMPDEST DUP1 ISZERO PUSH2 0x7D7 JUMPI DUP1 PUSH1 0x1F LT PUSH2 0x7AC JUMPI PUSH2 0x100 DUP1 DUP4 SLOAD DIV MUL DUP4 MSTORE SWAP2 PUSH1 0x20 ADD SWAP2 PUSH2 0x7D7 JUMP JUMPDEST DUP3 ADD SWAP2 SWAP1 PUSH1 0x0 MSTORE PUSH1 0x20 PUSH1 0x0 KECCAK256 SWAP1 JUMPDEST DUP2 SLOAD DUP2 MSTORE SWAP1 PUSH1 0x1 ADD SWAP1 PUSH1 0x20 ADD DUP1 DUP4 GT PUSH2 0x7BA JUMPI DUP3 SWAP1 SUB PUSH1 0x1F AND DUP3 ADD SWAP2 JUMPDEST POP POP POP SWAP2 DUP4 MSTORE POP POP PUSH1 0x1 DUP3 ADD SLOAD PUSH1 0x1 PUSH1 0x1 PUSH1 0xA0 SHL SUB AND PUSH1 0x20 DUP1 DUP4 ADD SWAP2 SWAP1 SWAP2 MSTORE PUSH1 0x2 DUP4 ADD DUP1 SLOAD PUSH1 0x40 DUP1 MLOAD DUP3 DUP6 MUL DUP2 ADD DUP6 ADD DUP3 MSTORE DUP3 DUP2 MSTORE SWAP5 ADD SWAP4 SWAP3 DUP4 ADD DUP3 DUP3 DUP1 ISZERO PUSH2 0x849 JUMPI PUSH1 0x20 MUL DUP3 ADD SWAP2 SWAP1 PUSH1 0x0 MSTORE PUSH1 0x20 PUSH1 0x0 KECCAK256 SWAP1 JUMPDEST DUP2 SLOAD PUSH1 0x1 PUSH1 0x1 PUSH1 0xA0 SHL SUB AND DUP2 MSTORE PUSH1 0x1 SWAP1 SWAP2 ADD SWAP1 PUSH1 0x20 ADD DUP1 DUP4 GT PUSH2 0x82B JUMPI JUMPDEST POP POP POP POP POP DUP2 MSTORE PUSH1 0x20 ADD PUSH1 0x3 DUP3 ADD SLOAD DUP2 MSTORE PUSH1 0x20 ADD PUSH1 0x4 DUP3 ADD SLOAD DUP2 MSTORE PUSH1 0x20 ADD PUSH1 0x5 DUP3 ADD SLOAD DUP2 MSTORE PUSH1 0x20 ADD PUSH1 0x6 DUP3 ADD DUP1 SLOAD PUSH2 0x880 SWAP1 PUSH2 0x1B3F JUMP JUMPDEST DUP1 PUSH1 0x1F ADD PUSH1 0x20 DUP1 SWAP2 DIV MUL PUSH1 0x20 ADD PUSH1 0x40 MLOAD SWAP1 DUP2 ADD PUSH1 0x40 MSTORE DUP1 SWAP3 SWAP2 SWAP1 DUP2 DUP2 MSTORE PUSH1 0x20 ADD DUP3 DUP1 SLOAD PUSH2 0x8AC SWAP1 PUSH2 0x1B3F JUMP JUMPDEST DUP1 ISZERO PUSH2 0x8F9 JUMPI DUP1 PUSH1 0x1F LT PUSH2 0x8CE JUMPI PUSH2 0x100 DUP1 DUP4 SLOAD DIV MUL DUP4 MSTORE SWAP2 PUSH1 0x20 ADD SWAP2 PUSH2 0x8F9 JUMP JUMPDEST DUP3 ADD SWAP2 SWAP1 PUSH1 0x0 MSTORE PUSH1 0x20 PUSH1 0x0 KECCAK256 SWAP1 JUMPDEST DUP2 SLOAD DUP2 MSTORE SWAP1 PUSH1 0x1 ADD SWAP1 PUSH1 0x20 ADD DUP1 DUP4 GT PUSH2 0x8DC JUMPI DUP3 SWAP1 SUB PUSH1 0x1F AND DUP3 ADD SWAP2 JUMPDEST POP POP POP POP POP DUP2 MSTORE POP POP SWAP1 POP PUSH1 0x0 PUSH1 0x2 DUP9 PUSH1 0x40 MLOAD PUSH2 0x916 SWAP2 SWAP1 PUSH2 0x1DF8 JUMP JUMPDEST SWAP1 DUP2 MSTORE PUSH1 0x40 DUP1 MLOAD SWAP2 DUP3 SWAP1 SUB PUSH1 0x20 SWAP1 DUP2 ADD DUP4 KECCAK256 DUP1 SLOAD DUP1 DUP4 MUL DUP6 ADD DUP4 ADD SWAP1 SWAP4 MSTORE DUP3 DUP5 MSTORE SWAP2 SWAP1 DUP4 ADD DUP3 DUP3 DUP1 ISZERO PUSH2 0x972 JUMPI PUSH1 0x20 MUL DUP3 ADD SWAP2 SWAP1 PUSH1 0x0 MSTORE PUSH1 0x20 PUSH1 0x0 KECCAK256 SWAP1 JUMPDEST DUP2 SLOAD PUSH1 0x1 PUSH1 0x1 PUSH1 0xA0 SHL SUB AND DUP2 MSTORE PUSH1 0x1 SWAP1 SWAP2 ADD SWAP1 PUSH1 0x20 ADD DUP1 DUP4 GT PUSH2 0x954 JUMPI JUMPDEST POP POP POP POP POP SWAP1 POP PUSH1 0x0 JUMPDEST DUP2 MLOAD DUP2 LT ISZERO PUSH2 0x9C4 JUMPI DUP7 PUSH1 0x1 PUSH1 0x1 PUSH1 0xA0 SHL SUB AND DUP3 DUP3 DUP2 MLOAD DUP2 LT PUSH2 0x9A1 JUMPI PUSH2 0x9A1 PUSH2 0x1D6D JUMP JUMPDEST PUSH1 0x20 MUL PUSH1 0x20 ADD ADD MLOAD PUSH1 0x1 PUSH1 0x1 PUSH1 0xA0 SHL SUB AND SUB PUSH2 0x9BC JUMPI PUSH1 0x1 SWAP4 POP JUMPDEST PUSH1 0x1 ADD PUSH2 0x97C JUMP JUMPDEST POP DUP3 PUSH2 0x9D2 JUMPI POP POP POP PUSH2 0xCF6 JUMP JUMPDEST PUSH1 0x0 PUSH1 0x5 DUP4 PUSH1 0x60 ADD MLOAD PUSH2 0x9E5 SWAP2 SWAP1 PUSH2 0x1E14 JUMP JUMPDEST PUSH1 0x1 SLOAD PUSH1 0x40 MLOAD PUSH4 0xEE204ABB PUSH1 0xE0 SHL DUP2 MSTORE CALLER PUSH1 0x4 DUP3 ADD MSTORE SWAP2 SWAP3 POP PUSH1 0x0 SWAP2 PUSH1 0x1 PUSH1 0x1 PUSH1 0xA0 SHL SUB SWAP1 SWAP2 AND SWAP1 PUSH4 0xEE204ABB SWAP1 PUSH1 0x24 ADD PUSH1 0x60 PUSH1 0x40 MLOAD DUP1 DUP4 SUB DUP2 DUP7 GAS STATICCALL ISZERO DUP1 ISZERO PUSH2 0xA33 JUMPI RETURNDATASIZE PUSH1 0x0 DUP1 RETURNDATACOPY RETURNDATASIZE PUSH1 0x0 REVERT JUMPDEST POP POP POP POP PUSH1 0x40 MLOAD RETURNDATASIZE PUSH1 0x1F NOT PUSH1 0x1F DUP3 ADD AND DUP3 ADD DUP1 PUSH1 0x40 MSTORE POP DUP2 ADD SWAP1 PUSH2 0xA57 SWAP2 SWAP1 PUSH2 0x1E36 JUMP JUMPDEST POP SWAP2 POP POP PUSH1 0x0 DUP3 DUP3 GT PUSH2 0xA6A JUMPI DUP2 PUSH2 0xA6C JUMP JUMPDEST DUP3 JUMPDEST SWAP1 POP PUSH1 0x0 DUP2 DUP7 PUSH1 0x60 ADD MLOAD PUSH2 0xA80 SWAP2 SWAP1 PUSH2 0x1E64 JUMP JUMPDEST SWAP1 POP DUP1 CALLVALUE LT ISZERO PUSH2 0xAD6 JUMPI PUSH1 0x40 MLOAD PUSH3 0x461BCD PUSH1 0xE5 SHL DUP2 MSTORE PUSH1 0x20 PUSH1 0x4 DUP3 ADD MSTORE PUSH1 0x1F PUSH1 0x24 DUP3 ADD MSTORE PUSH32 0x496E73756666696369656E742045544820616674657220646973636F756E7400 PUSH1 0x44 DUP3 ADD MSTORE PUSH1 0x64 ADD PUSH1 0x40 MLOAD DUP1 SWAP2 SUB SWAP1 REVERT JUMPDEST DUP2 ISZERO PUSH2 0xB41 JUMPI PUSH1 0x1 SLOAD PUSH1 0x40 MLOAD PUSH4 0xC724CAF7 PUSH1 0xE0 SHL DUP2 MSTORE CALLER PUSH1 0x4 DUP3 ADD MSTORE PUSH1 0x24 DUP2 ADD DUP5 SWAP1 MSTORE PUSH1 0x1 PUSH1 0x1 PUSH1 0xA0 SHL SUB SWAP1 SWAP2 AND SWAP1 PUSH4 0xC724CAF7 SWAP1 PUSH1 0x44 ADD PUSH1 0x0 PUSH1 0x40 MLOAD DUP1 DUP4 SUB DUP2 PUSH1 0x0 DUP8 DUP1 EXTCODESIZE ISZERO DUP1 ISZERO PUSH2 0xB28 JUMPI PUSH1 0x0 DUP1 REVERT JUMPDEST POP GAS CALL ISZERO DUP1 ISZERO PUSH2 0xB3C JUMPI RETURNDATASIZE PUSH1 0x0 DUP1 RETURNDATACOPY RETURNDATASIZE PUSH1 0x0 REVERT JUMPDEST POP POP POP POP JUMPDEST PUSH1 0x40 MLOAD DUP1 PUSH2 0x120 ADD PUSH1 0x40 MSTORE DUP1 DUP8 PUSH1 0x0 ADD MLOAD DUP2 MSTORE PUSH1 0x20 ADD DUP13 DUP2 MSTORE PUSH1 0x20 ADD DUP8 PUSH1 0x20 ADD MLOAD PUSH1 0x1 PUSH1 0x1 PUSH1 0xA0 SHL SUB AND DUP2 MSTORE PUSH1 0x20 ADD DUP12 PUSH1 0x1 PUSH1 0x1 PUSH1 0xA0 SHL SUB AND DUP2 MSTORE PUSH1 0x20 ADD CALLER PUSH1 0x1 PUSH1 0x1 PUSH1 0xA0 SHL SUB AND DUP2 MSTORE PUSH1 0x20 ADD DUP8 PUSH1 0x60 ADD MLOAD DUP2 MSTORE PUSH1 0x20 ADD DUP8 PUSH1 0x80 ADD MLOAD DUP2 MSTORE PUSH1 0x20 ADD DUP8 PUSH1 0xA0 ADD MLOAD DUP2 MSTORE PUSH1 0x20 ADD PUSH1 0x0 DUP2 MSTORE POP PUSH1 0x4 DUP13 PUSH1 0x40 MLOAD PUSH2 0xBC1 SWAP2 SWAP1 PUSH2 0x1DF8 JUMP JUMPDEST SWAP1 DUP2 MSTORE PUSH1 0x40 MLOAD SWAP1 DUP2 SWAP1 SUB PUSH1 0x20 ADD SWAP1 KECCAK256 DUP2 MLOAD DUP2 SWAP1 PUSH2 0xBDE SWAP1 DUP3 PUSH2 0x1BFE JUMP JUMPDEST POP PUSH1 0x20 DUP3 ADD MLOAD PUSH1 0x1 DUP3 ADD SWAP1 PUSH2 0xBF3 SWAP1 DUP3 PUSH2 0x1BFE JUMP JUMPDEST POP PUSH1 0x40 DUP3 ADD MLOAD PUSH1 0x2 DUP3 ADD DUP1 SLOAD PUSH1 0x1 PUSH1 0x1 PUSH1 0xA0 SHL SUB SWAP3 DUP4 AND PUSH1 0x1 PUSH1 0x1 PUSH1 0xA0 SHL SUB NOT SWAP2 DUP3 AND OR SWAP1 SWAP2 SSTORE PUSH1 0x60 DUP5 ADD MLOAD PUSH1 0x3 DUP5 ADD DUP1 SLOAD SWAP2 DUP5 AND SWAP2 DUP4 AND SWAP2 SWAP1 SWAP2 OR SWAP1 SSTORE PUSH1 0x80 DUP5 ADD MLOAD PUSH1 0x4 DUP5 ADD DUP1 SLOAD SWAP2 SWAP1 SWAP4 AND SWAP2 AND OR SWAP1 SSTORE PUSH1 0xA0 DUP3 ADD MLOAD PUSH1 0x5 DUP1 DUP4 ADD SWAP2 SWAP1 SWAP2 SSTORE PUSH1 0xC0 DUP4 ADD MLOAD PUSH1 0x6 DUP4 ADD SSTORE PUSH1 0xE0 DUP4 ADD MLOAD PUSH1 0x7 DUP4 ADD SSTORE PUSH2 0x100 SWAP1 SWAP3 ADD MLOAD PUSH1 0x8 SWAP1 SWAP2 ADD SSTORE DUP1 SLOAD PUSH1 0x1 DUP2 ADD DUP3 SSTORE PUSH1 0x0 SWAP2 SWAP1 SWAP2 MSTORE PUSH32 0x36B6384B5ECA791C62761152D0C79BB0604C104A5FB6F4EB0703F3154BB3DB0 ADD PUSH2 0xCAE DUP13 DUP3 PUSH2 0x1BFE JUMP JUMPDEST POP PUSH32 0xA82FDB4B07891794FE0BCDE99C7D434289FF9320FF626FF65B07A00220255777 DUP11 DUP13 CALLVALUE DUP13 DUP13 PUSH1 0x40 MLOAD PUSH2 0xCE6 SWAP6 SWAP5 SWAP4 SWAP3 SWAP2 SWAP1 PUSH2 0x1E77 JUMP JUMPDEST PUSH1 0x40 MLOAD DUP1 SWAP2 SUB SWAP1 LOG1 POP POP POP POP POP POP POP JUMPDEST POP POP POP POP POP JUMP JUMPDEST DUP1 MLOAD PUSH1 0x20 DUP2 DUP4 ADD DUP2 ADD DUP1 MLOAD PUSH1 0x4 DUP3 MSTORE SWAP3 DUP3 ADD SWAP2 SWAP1 SWAP4 ADD KECCAK256 SWAP2 MSTORE DUP1 SLOAD DUP2 SWAP1 PUSH2 0xD23 SWAP1 PUSH2 0x1B3F JUMP JUMPDEST DUP1 PUSH1 0x1F ADD PUSH1 0x20 DUP1 SWAP2 DIV MUL PUSH1 0x20 ADD PUSH1 0x40 MLOAD SWAP1 DUP2 ADD PUSH1 0x40 MSTORE DUP1 SWAP3 SWAP2 SWAP1 DUP2 DUP2 MSTORE PUSH1 0x20 ADD DUP3 DUP1 SLOAD PUSH2 0xD4F SWAP1 PUSH2 0x1B3F JUMP JUMPDEST DUP1 ISZERO PUSH2 0xD9C JUMPI DUP1 PUSH1 0x1F LT PUSH2 0xD71 JUMPI PUSH2 0x100 DUP1 DUP4 SLOAD DIV MUL DUP4 MSTORE SWAP2 PUSH1 0x20 ADD SWAP2 PUSH2 0xD9C JUMP JUMPDEST DUP3 ADD SWAP2 SWAP1 PUSH1 0x0 MSTORE PUSH1 0x20 PUSH1 0x0 KECCAK256 SWAP1 JUMPDEST DUP2 SLOAD DUP2 MSTORE SWAP1 PUSH1 0x1 ADD SWAP1 PUSH1 0x20 ADD DUP1 DUP4 GT PUSH2 0xD7F JUMPI DUP3 SWAP1 SUB PUSH1 0x1F AND DUP3 ADD SWAP2 JUMPDEST POP POP POP POP POP SWAP1 DUP1 PUSH1 0x1 ADD DUP1 SLOAD PUSH2 0xDB1 SWAP1 PUSH2 0x1B3F JUMP JUMPDEST DUP1 PUSH1 0x1F ADD PUSH1 0x20 DUP1 SWAP2 DIV MUL PUSH1 0x20 ADD PUSH1 0x40 MLOAD SWAP1 DUP2 ADD PUSH1 0x40 MSTORE DUP1 SWAP3 SWAP2 SWAP1 DUP2 DUP2 MSTORE PUSH1 0x20 ADD DUP3 DUP1 SLOAD PUSH2 0xDDD SWAP1 PUSH2 0x1B3F JUMP JUMPDEST DUP1 ISZERO PUSH2 0xE2A JUMPI DUP1 PUSH1 0x1F LT PUSH2 0xDFF JUMPI PUSH2 0x100 DUP1 DUP4 SLOAD DIV MUL DUP4 MSTORE SWAP2 PUSH1 0x20 ADD SWAP2 PUSH2 0xE2A JUMP JUMPDEST DUP3 ADD SWAP2 SWAP1 PUSH1 0x0 MSTORE PUSH1 0x20 PUSH1 0x0 KECCAK256 SWAP1 JUMPDEST DUP2 SLOAD DUP2 MSTORE SWAP1 PUSH1 0x1 ADD SWAP1 PUSH1 0x20 ADD DUP1 DUP4 GT PUSH2 0xE0D JUMPI DUP3 SWAP1 SUB PUSH1 0x1F AND DUP3 ADD SWAP2 JUMPDEST POP POP POP PUSH1 0x2 DUP5 ADD SLOAD PUSH1 0x3 DUP6 ADD SLOAD PUSH1 0x4 DUP7 ADD SLOAD PUSH1 0x5 DUP8 ADD SLOAD PUSH1 0x6 DUP9 ADD SLOAD PUSH1 0x7 DUP10 ADD SLOAD PUSH1 0x8 SWAP1 SWAP10 ADD SLOAD SWAP8 SWAP9 PUSH1 0x1 PUSH1 0x1 PUSH1 0xA0 SHL SUB SWAP6 DUP7 AND SWAP9 SWAP5 DUP7 AND SWAP8 POP SWAP3 SWAP1 SWAP5 AND SWAP5 POP SWAP3 SWAP2 DUP10 JUMP JUMPDEST PUSH1 0x0 PUSH1 0x4 DUP4 DUP4 PUSH1 0x40 MLOAD PUSH2 0xE83 SWAP3 SWAP2 SWAP1 PUSH2 0x1BA2 JUMP JUMPDEST SWAP1 DUP2 MSTORE PUSH1 0x20 ADD PUSH1 0x40 MLOAD DUP1 SWAP2 SUB SWAP1 KECCAK256 SWAP1 POP PUSH1 0x4 DUP4 DUP4 PUSH1 0x40 MLOAD PUSH2 0xEA5 SWAP3 SWAP2 SWAP1 PUSH2 0x1BA2 JUMP JUMPDEST SWAP1 DUP2 MSTORE PUSH1 0x20 ADD PUSH1 0x40 MLOAD DUP1 SWAP2 SUB SWAP1 KECCAK256 SWAP1 POP DUP1 PUSH1 0x8 ADD SLOAD PUSH1 0x1 SUB PUSH2 0xEC6 JUMPI POP POP POP JUMP JUMPDEST PUSH1 0x4 DUP2 ADD SLOAD PUSH1 0x1 PUSH1 0x1 PUSH1 0xA0 SHL SUB AND CALLER EQ PUSH2 0xEDF JUMPI PUSH1 0x0 DUP1 REVERT JUMPDEST PUSH1 0x1 PUSH1 0x8 DUP3 ADD SSTORE PUSH1 0x2 DUP2 ADD SLOAD PUSH1 0x3 DUP3 ADD SLOAD PUSH1 0x6 DUP4 ADD SLOAD PUSH1 0x40 MLOAD PUSH1 0x1 PUSH1 0x1 PUSH1 0xA0 SHL SUB SWAP4 DUP5 AND SWAP4 SWAP1 SWAP3 AND SWAP2 DUP4 SWAP2 PUSH2 0x8FC DUP2 ISZERO MUL SWAP2 PUSH1 0x0 DUP2 DUP2 DUP2 DUP6 DUP9 DUP9 CALL SWAP4 POP POP POP POP ISZERO DUP1 ISZERO PUSH2 0xF30 JUMPI RETURNDATASIZE PUSH1 0x0 DUP1 RETURNDATACOPY RETURNDATASIZE PUSH1 0x0 REVERT JUMPDEST POP PUSH1 0x7 DUP4 ADD SLOAD PUSH1 0x40 MLOAD PUSH1 0x1 PUSH1 0x1 PUSH1 0xA0 SHL SUB DUP4 AND SWAP2 DUP1 ISZERO PUSH2 0x8FC MUL SWAP2 PUSH1 0x0 DUP2 DUP2 DUP2 DUP6 DUP9 DUP9 CALL SWAP4 POP POP POP POP ISZERO DUP1 ISZERO PUSH2 0xF6A JUMPI RETURNDATASIZE PUSH1 0x0 DUP1 RETURNDATACOPY RETURNDATASIZE PUSH1 0x0 REVERT JUMPDEST POP PUSH1 0x1 SLOAD PUSH1 0x2 DUP5 ADD SLOAD PUSH1 0x4 DUP1 DUP7 ADD SLOAD PUSH1 0x3 DUP8 ADD SLOAD PUSH1 0x40 MLOAD PUSH4 0x46882D33 PUSH1 0xE1 SHL DUP2 MSTORE PUSH1 0x1 PUSH1 0x1 PUSH1 0xA0 SHL SUB SWAP5 DUP6 AND SWAP4 DUP2 ADD SWAP4 SWAP1 SWAP4 MSTORE SWAP1 DUP4 AND PUSH1 0x24 DUP4 ADD MSTORE DUP3 AND PUSH1 0x44 DUP3 ADD MSTORE SWAP2 AND SWAP1 PUSH4 0x8D105A66 SWAP1 PUSH1 0x64 ADD PUSH1 0x0 PUSH1 0x40 MLOAD DUP1 DUP4 SUB DUP2 PUSH1 0x0 DUP8 DUP1 EXTCODESIZE ISZERO DUP1 ISZERO PUSH2 0xFD2 JUMPI PUSH1 0x0 DUP1 REVERT JUMPDEST POP GAS CALL ISZERO DUP1 ISZERO PUSH2 0xFE6 JUMPI RETURNDATASIZE PUSH1 0x0 DUP1 RETURNDATACOPY RETURNDATASIZE PUSH1 0x0 REVERT JUMPDEST POP POP POP POP POP POP POP POP POP JUMP JUMPDEST PUSH1 0x60 PUSH1 0x2 DUP4 DUP4 PUSH1 0x40 MLOAD PUSH2 0x1005 SWAP3 SWAP2 SWAP1 PUSH2 0x1BA2 JUMP JUMPDEST SWAP1 DUP2 MSTORE PUSH1 0x40 DUP1 MLOAD SWAP2 DUP3 SWAP1 SUB PUSH1 0x20 SWAP1 DUP2 ADD DUP4 KECCAK256 DUP1 SLOAD DUP1 DUP4 MUL DUP6 ADD DUP4 ADD SWAP1 SWAP4 MSTORE DUP3 DUP5 MSTORE SWAP2 SWAP1 DUP4 ADD DUP3 DUP3 DUP1 ISZERO PUSH2 0x1061 JUMPI PUSH1 0x20 MUL DUP3 ADD SWAP2 SWAP1 PUSH1 0x0 MSTORE PUSH1 0x20 PUSH1 0x0 KECCAK256 SWAP1 JUMPDEST DUP2 SLOAD PUSH1 0x1 PUSH1 0x1 PUSH1 0xA0 SHL SUB AND DUP2 MSTORE PUSH1 0x1 SWAP1 SWAP2 ADD SWAP1 PUSH1 0x20 ADD DUP1 DUP4 GT PUSH2 0x1043 JUMPI JUMPDEST POP POP POP POP POP SWAP1 POP JUMPDEST SWAP3 SWAP2 POP POP JUMP JUMPDEST PUSH2 0x10D9 PUSH1 0x40 MLOAD DUP1 PUSH2 0x120 ADD PUSH1 0x40 MSTORE DUP1 PUSH1 0x60 DUP2 MSTORE PUSH1 0x20 ADD PUSH1 0x60 DUP2 MSTORE PUSH1 0x20 ADD PUSH1 0x0 PUSH1 0x1 PUSH1 0x1 PUSH1 0xA0 SHL SUB AND DUP2 MSTORE PUSH1 0x20 ADD PUSH1 0x0 PUSH1 0x1 PUSH1 0x1 PUSH1 0xA0 SHL SUB AND DUP2 MSTORE PUSH1 0x20 ADD PUSH1 0x0 PUSH1 0x1 PUSH1 0x1 PUSH1 0xA0 SHL SUB AND DUP2 MSTORE PUSH1 0x20 ADD PUSH1 0x0 DUP2 MSTORE PUSH1 0x20 ADD PUSH1 0x0 DUP2 MSTORE PUSH1 0x20 ADD PUSH1 0x0 DUP2 MSTORE PUSH1 0x20 ADD PUSH1 0x0 DUP2 MSTORE POP SWAP1 JUMP JUMPDEST PUSH1 0x4 DUP8 DUP8 PUSH1 0x40 MLOAD PUSH2 0x10EB SWAP3 SWAP2 SWAP1 PUSH2 0x1BA2 JUMP JUMPDEST SWAP1 DUP2 MSTORE PUSH1 0x20 ADD PUSH1 0x40 MLOAD DUP1 SWAP2 SUB SWAP1 KECCAK256 PUSH1 0x40 MLOAD DUP1 PUSH2 0x120 ADD PUSH1 0x40 MSTORE SWAP1 DUP2 PUSH1 0x0 DUP3 ADD DUP1 SLOAD PUSH2 0x1115 SWAP1 PUSH2 0x1B3F JUMP JUMPDEST DUP1 PUSH1 0x1F ADD PUSH1 0x20 DUP1 SWAP2 DIV MUL PUSH1 0x20 ADD PUSH1 0x40 MLOAD SWAP1 DUP2 ADD PUSH1 0x40 MSTORE DUP1 SWAP3 SWAP2 SWAP1 DUP2 DUP2 MSTORE PUSH1 0x20 ADD DUP3 DUP1 SLOAD PUSH2 0x1141 SWAP1 PUSH2 0x1B3F JUMP JUMPDEST DUP1 ISZERO PUSH2 0x118E JUMPI DUP1 PUSH1 0x1F LT PUSH2 0x1163 JUMPI PUSH2 0x100 DUP1 DUP4 SLOAD DIV MUL DUP4 MSTORE SWAP2 PUSH1 0x20 ADD SWAP2 PUSH2 0x118E JUMP JUMPDEST DUP3 ADD SWAP2 SWAP1 PUSH1 0x0 MSTORE PUSH1 0x20 PUSH1 0x0 KECCAK256 SWAP1 JUMPDEST DUP2 SLOAD DUP2 MSTORE SWAP1 PUSH1 0x1 ADD SWAP1 PUSH1 0x20 ADD DUP1 DUP4 GT PUSH2 0x1171 JUMPI DUP3 SWAP1 SUB PUSH1 0x1F AND DUP3 ADD SWAP2 JUMPDEST POP POP POP POP POP DUP2 MSTORE PUSH1 0x20 ADD PUSH1 0x1 DUP3 ADD DUP1 SLOAD PUSH2 0x11A7 SWAP1 PUSH2 0x1B3F JUMP JUMPDEST DUP1 PUSH1 0x1F ADD PUSH1 0x20 DUP1 SWAP2 DIV MUL PUSH1 0x20 ADD PUSH1 0x40 MLOAD SWAP1 DUP2 ADD PUSH1 0x40 MSTORE DUP1 SWAP3 SWAP2 SWAP1 DUP2 DUP2 MSTORE PUSH1 0x20 ADD DUP3 DUP1 SLOAD PUSH2 0x11D3 SWAP1 PUSH2 0x1B3F JUMP JUMPDEST DUP1 ISZERO PUSH2 0x1220 JUMPI DUP1 PUSH1 0x1F LT PUSH2 0x11F5 JUMPI PUSH2 0x100 DUP1 DUP4 SLOAD DIV MUL DUP4 MSTORE SWAP2 PUSH1 0x20 ADD SWAP2 PUSH2 0x1220 JUMP JUMPDEST DUP3 ADD SWAP2 SWAP1 PUSH1 0x0 MSTORE PUSH1 0x20 PUSH1 0x0 KECCAK256 SWAP1 JUMPDEST DUP2 SLOAD DUP2 MSTORE SWAP1 PUSH1 0x1 ADD SWAP1 PUSH1 0x20 ADD DUP1 DUP4 GT PUSH2 0x1203 JUMPI DUP3 SWAP1 SUB PUSH1 0x1F AND DUP3 ADD SWAP2 JUMPDEST POP POP POP SWAP2 DUP4 MSTORE POP POP PUSH1 0x2 DUP3 ADD SLOAD PUSH1 0x1 PUSH1 0x1 PUSH1 0xA0 SHL SUB SWAP1 DUP2 AND PUSH1 0x20 DUP4 ADD MSTORE PUSH1 0x3 DUP4 ADD SLOAD DUP2 AND PUSH1 0x40 DUP4 ADD MSTORE PUSH1 0x4 DUP4 ADD SLOAD AND PUSH1 0x60 DUP3 ADD MSTORE PUSH1 0x5 DUP3 ADD SLOAD PUSH1 0x80 DUP3 ADD MSTORE PUSH1 0x6 DUP3 ADD SLOAD PUSH1 0xA0 DUP3 ADD MSTORE PUSH1 0x7 DUP3 ADD SLOAD PUSH1 0xC0 DUP3 ADD MSTORE PUSH1 0x8 SWAP1 SWAP2 ADD SLOAD PUSH1 0xE0 SWAP1 SWAP2 ADD MSTORE DUP1 MLOAD SWAP1 SWAP2 POP PUSH2 0x128C SWAP1 PUSH2 0x1490 JUMP JUMPDEST ISZERO ISZERO PUSH1 0x0 SUB PUSH2 0x129B JUMPI POP PUSH2 0x13DE JUMP JUMPDEST PUSH1 0x80 DUP2 ADD MLOAD PUSH1 0x0 SLOAD PUSH1 0x40 MLOAD PUSH4 0x7EC55A41 PUSH1 0xE1 SHL DUP2 MSTORE PUSH1 0x1 PUSH1 0x1 PUSH1 0xA0 SHL SUB DUP1 DUP5 AND PUSH1 0x4 DUP4 ADD MSTORE SWAP1 SWAP2 AND SWAP1 PUSH4 0xFD8AB482 SWAP1 PUSH1 0x24 ADD PUSH1 0x20 PUSH1 0x40 MLOAD DUP1 DUP4 SUB DUP2 DUP7 GAS STATICCALL ISZERO DUP1 ISZERO PUSH2 0x12EA JUMPI RETURNDATASIZE PUSH1 0x0 DUP1 RETURNDATACOPY RETURNDATASIZE PUSH1 0x0 REVERT JUMPDEST POP POP POP POP PUSH1 0x40 MLOAD RETURNDATASIZE PUSH1 0x1F NOT PUSH1 0x1F DUP3 ADD AND DUP3 ADD DUP1 PUSH1 0x40 MSTORE POP DUP2 ADD SWAP1 PUSH2 0x130E SWAP2 SWAP1 PUSH2 0x1EC0 JUMP JUMPDEST ISZERO ISZERO PUSH1 0x0 SUB PUSH2 0x1382 JUMPI PUSH1 0x0 SLOAD PUSH1 0x40 MLOAD PUSH4 0xD6192E29 PUSH1 0xE0 SHL DUP2 MSTORE PUSH1 0x1 PUSH1 0x1 PUSH1 0xA0 SHL SUB SWAP1 SWAP2 AND SWAP1 PUSH4 0xD6192E29 SWAP1 CALLVALUE SWAP1 PUSH2 0x134F SWAP1 DUP11 SWAP1 DUP11 SWAP1 DUP11 SWAP1 DUP11 SWAP1 PUSH1 0x4 ADD PUSH2 0x1EDD JUMP JUMPDEST PUSH1 0x0 PUSH1 0x40 MLOAD DUP1 DUP4 SUB DUP2 DUP6 DUP9 DUP1 EXTCODESIZE ISZERO DUP1 ISZERO PUSH2 0x1368 JUMPI PUSH1 0x0 DUP1 REVERT JUMPDEST POP GAS CALL ISZERO DUP1 ISZERO PUSH2 0x137C JUMPI RETURNDATASIZE PUSH1 0x0 DUP1 RETURNDATACOPY RETURNDATASIZE PUSH1 0x0 REVERT JUMPDEST POP POP POP POP POP JUMPDEST PUSH1 0x0 PUSH1 0x3 DUP4 PUSH1 0x0 ADD MLOAD PUSH1 0x40 MLOAD PUSH2 0x1398 SWAP2 SWAP1 PUSH2 0x1DF8 JUMP JUMPDEST SWAP1 DUP2 MSTORE PUSH1 0x40 MLOAD PUSH1 0x20 SWAP2 DUP2 SWAP1 SUB DUP3 ADD SWAP1 KECCAK256 PUSH1 0x2 ADD DUP1 SLOAD PUSH1 0x1 DUP2 ADD DUP3 SSTORE PUSH1 0x0 SWAP2 DUP3 MSTORE SWAP2 SWAP1 KECCAK256 ADD DUP1 SLOAD PUSH1 0x1 PUSH1 0x1 PUSH1 0xA0 SHL SUB NOT AND PUSH1 0x1 PUSH1 0x1 PUSH1 0xA0 SHL SUB SWAP4 SWAP1 SWAP4 AND SWAP3 SWAP1 SWAP3 OR SWAP1 SWAP2 SSTORE POP POP JUMPDEST POP POP POP POP POP POP JUMP JUMPDEST PUSH1 0x0 DUP2 ISZERO ISZERO PUSH1 0x1 SUB PUSH2 0x1440 JUMPI PUSH1 0x2 DUP5 DUP5 PUSH1 0x40 MLOAD PUSH2 0x1404 SWAP3 SWAP2 SWAP1 PUSH2 0x1BA2 JUMP JUMPDEST SWAP1 DUP2 MSTORE PUSH1 0x40 MLOAD SWAP1 DUP2 SWAP1 SUB PUSH1 0x20 SWAP1 DUP2 ADD SWAP1 SWAP2 KECCAK256 DUP1 SLOAD PUSH1 0x1 DUP2 DUP2 ADD DUP4 SSTORE PUSH1 0x0 SWAP3 DUP4 MSTORE SWAP3 SWAP1 SWAP2 KECCAK256 ADD DUP1 SLOAD PUSH1 0x1 PUSH1 0x1 PUSH1 0xA0 SHL SUB NOT AND CALLER OR SWAP1 SSTORE SWAP1 POP PUSH2 0x71B JUMP JUMPDEST POP PUSH1 0x0 SWAP4 SWAP3 POP POP POP JUMP JUMPDEST PUSH32 0x696776FBADA6026B2CC4883473B601F70EED8609668C456C07681055DCA814F0 DUP4 DUP7 DUP7 DUP6 DUP6 PUSH1 0x40 MLOAD PUSH2 0x1481 SWAP6 SWAP5 SWAP4 SWAP3 SWAP2 SWAP1 PUSH2 0x1F0F JUMP JUMPDEST PUSH1 0x40 MLOAD DUP1 SWAP2 SUB SWAP1 LOG1 POP POP POP POP POP JUMP JUMPDEST PUSH1 0x0 DUP2 MLOAD PUSH1 0x0 SUB PUSH2 0x14A3 JUMPI POP PUSH1 0x0 SWAP2 SWAP1 POP JUMP JUMPDEST POP PUSH1 0x1 SWAP2 SWAP1 POP JUMP JUMPDEST DUP3 DUP1 SLOAD DUP3 DUP3 SSTORE SWAP1 PUSH1 0x0 MSTORE PUSH1 0x20 PUSH1 0x0 KECCAK256 SWAP1 DUP2 ADD SWAP3 DUP3 ISZERO PUSH2 0x1500 JUMPI SWAP2 PUSH1 0x20 MUL DUP3 ADD JUMPDEST DUP3 DUP2 GT ISZERO PUSH2 0x1500 JUMPI DUP3 MLOAD DUP3 SLOAD PUSH1 0x1 PUSH1 0x1 PUSH1 0xA0 SHL SUB NOT AND PUSH1 0x1 PUSH1 0x1 PUSH1 0xA0 SHL SUB SWAP1 SWAP2 AND OR DUP3 SSTORE PUSH1 0x20 SWAP1 SWAP3 ADD SWAP2 PUSH1 0x1 SWAP1 SWAP2 ADD SWAP1 PUSH2 0x14CB JUMP JUMPDEST POP PUSH2 0x150C SWAP3 SWAP2 POP PUSH2 0x1510 JUMP JUMPDEST POP SWAP1 JUMP JUMPDEST JUMPDEST DUP1 DUP3 GT ISZERO PUSH2 0x150C JUMPI PUSH1 0x0 DUP2 SSTORE PUSH1 0x1 ADD PUSH2 0x1511 JUMP JUMPDEST PUSH1 0x0 PUSH1 0x20 DUP3 DUP5 SUB SLT ISZERO PUSH2 0x1537 JUMPI PUSH1 0x0 DUP1 REVERT JUMPDEST POP CALLDATALOAD SWAP2 SWAP1 POP JUMP JUMPDEST PUSH1 0x0 JUMPDEST DUP4 DUP2 LT ISZERO PUSH2 0x1559 JUMPI DUP2 DUP2 ADD MLOAD DUP4 DUP3 ADD MSTORE PUSH1 0x20 ADD PUSH2 0x1541 JUMP JUMPDEST POP POP PUSH1 0x0 SWAP2 ADD MSTORE JUMP JUMPDEST PUSH1 0x0 DUP2 MLOAD DUP1 DUP5 MSTORE PUSH2 0x157A DUP2 PUSH1 0x20 DUP7 ADD PUSH1 0x20 DUP7 ADD PUSH2 0x153E JUMP JUMPDEST PUSH1 0x1F ADD PUSH1 0x1F NOT AND SWAP3 SWAP1 SWAP3 ADD PUSH1 0x20 ADD SWAP3 SWAP2 POP POP JUMP JUMPDEST PUSH1 0x20 DUP2 MSTORE PUSH1 0x0 PUSH2 0x71B PUSH1 0x20 DUP4 ADD DUP5 PUSH2 0x1562 JUMP JUMPDEST PUSH1 0x0 DUP1 DUP4 PUSH1 0x1F DUP5 ADD SLT PUSH2 0x15B3 JUMPI PUSH1 0x0 DUP1 REVERT JUMPDEST POP DUP2 CALLDATALOAD PUSH1 0x1 PUSH1 0x1 PUSH1 0x40 SHL SUB DUP2 GT ISZERO PUSH2 0x15CA JUMPI PUSH1 0x0 DUP1 REVERT JUMPDEST PUSH1 0x20 DUP4 ADD SWAP2 POP DUP4 PUSH1 0x20 DUP3 DUP6 ADD ADD GT ISZERO PUSH2 0x15E2 JUMPI PUSH1 0x0 DUP1 REVERT JUMPDEST SWAP3 POP SWAP3 SWAP1 POP JUMP JUMPDEST PUSH1 0x0 DUP1 PUSH1 0x0 DUP1 PUSH1 0x0 DUP1 PUSH1 0x0 DUP1 PUSH1 0x0 PUSH1 0xC0 DUP11 DUP13 SUB SLT ISZERO PUSH2 0x1607 JUMPI PUSH1 0x0 DUP1 REVERT JUMPDEST DUP10 CALLDATALOAD PUSH1 0x1 PUSH1 0x1 PUSH1 0x40 SHL SUB DUP2 GT ISZERO PUSH2 0x161D JUMPI PUSH1 0x0 DUP1 REVERT JUMPDEST PUSH2 0x1629 DUP13 DUP3 DUP14 ADD PUSH2 0x15A1 JUMP JUMPDEST SWAP1 SWAP11 POP SWAP9 POP POP PUSH1 0x20 DUP11 ADD CALLDATALOAD PUSH1 0x1 PUSH1 0x1 PUSH1 0x40 SHL SUB DUP2 GT ISZERO PUSH2 0x1648 JUMPI PUSH1 0x0 DUP1 REVERT JUMPDEST DUP11 ADD PUSH1 0x1F DUP2 ADD DUP13 SGT PUSH2 0x1659 JUMPI PUSH1 0x0 DUP1 REVERT JUMPDEST DUP1 CALLDATALOAD PUSH1 0x1 PUSH1 0x1 PUSH1 0x40 SHL SUB DUP2 GT ISZERO PUSH2 0x166F JUMPI PUSH1 0x0 DUP1 REVERT JUMPDEST DUP13 PUSH1 0x20 DUP3 PUSH1 0x5 SHL DUP5 ADD ADD GT ISZERO PUSH2 0x1684 JUMPI PUSH1 0x0 DUP1 REVERT JUMPDEST PUSH1 0x20 SWAP2 SWAP1 SWAP2 ADD SWAP8 POP SWAP6 POP PUSH1 0x40 DUP11 ADD CALLDATALOAD SWAP5 POP PUSH1 0x60 DUP11 ADD CALLDATALOAD SWAP4 POP PUSH1 0x80 DUP11 ADD CALLDATALOAD SWAP3 POP PUSH1 0xA0 DUP11 ADD CALLDATALOAD PUSH1 0x1 PUSH1 0x1 PUSH1 0x40 SHL SUB DUP2 GT ISZERO PUSH2 0x16BC JUMPI PUSH1 0x0 DUP1 REVERT JUMPDEST PUSH2 0x16C8 DUP13 DUP3 DUP14 ADD PUSH2 0x15A1 JUMP JUMPDEST SWAP2 POP DUP1 SWAP4 POP POP DUP1 SWAP2 POP POP SWAP3 SWAP6 SWAP9 POP SWAP3 SWAP6 SWAP9 POP SWAP3 SWAP6 SWAP9 JUMP JUMPDEST DUP1 CALLDATALOAD PUSH1 0x1 PUSH1 0x1 PUSH1 0xA0 SHL SUB DUP2 AND DUP2 EQ PUSH2 0x16F6 JUMPI PUSH1 0x0 DUP1 REVERT JUMPDEST SWAP2 SWAP1 POP JUMP JUMPDEST PUSH1 0x0 DUP1 PUSH1 0x0 PUSH1 0x40 DUP5 DUP7 SUB SLT ISZERO PUSH2 0x1710 JUMPI PUSH1 0x0 DUP1 REVERT JUMPDEST DUP4 CALLDATALOAD PUSH1 0x1 PUSH1 0x1 PUSH1 0x40 SHL SUB DUP2 GT ISZERO PUSH2 0x1726 JUMPI PUSH1 0x0 DUP1 REVERT JUMPDEST PUSH2 0x1732 DUP7 DUP3 DUP8 ADD PUSH2 0x15A1 JUMP JUMPDEST SWAP1 SWAP5 POP SWAP3 POP PUSH2 0x1745 SWAP1 POP PUSH1 0x20 DUP6 ADD PUSH2 0x16DF JUMP JUMPDEST SWAP1 POP SWAP3 POP SWAP3 POP SWAP3 JUMP JUMPDEST PUSH4 0x4E487B71 PUSH1 0xE0 SHL PUSH1 0x0 MSTORE PUSH1 0x41 PUSH1 0x4 MSTORE PUSH1 0x24 PUSH1 0x0 REVERT JUMPDEST PUSH1 0x0 DUP3 PUSH1 0x1F DUP4 ADD SLT PUSH2 0x1775 JUMPI PUSH1 0x0 DUP1 REVERT JUMPDEST DUP2 CALLDATALOAD PUSH1 0x1 PUSH1 0x1 PUSH1 0x40 SHL SUB DUP2 GT ISZERO PUSH2 0x178E JUMPI PUSH2 0x178E PUSH2 0x174E JUMP JUMPDEST PUSH1 0x40 MLOAD PUSH1 0x1F DUP3 ADD PUSH1 0x1F NOT SWAP1 DUP2 AND PUSH1 0x3F ADD AND DUP2 ADD PUSH1 0x1 PUSH1 0x1 PUSH1 0x40 SHL SUB DUP2 GT DUP3 DUP3 LT OR ISZERO PUSH2 0x17BC JUMPI PUSH2 0x17BC PUSH2 0x174E JUMP JUMPDEST PUSH1 0x40 MSTORE DUP2 DUP2 MSTORE DUP4 DUP3 ADD PUSH1 0x20 ADD DUP6 LT ISZERO PUSH2 0x17D4 JUMPI PUSH1 0x0 DUP1 REVERT JUMPDEST DUP2 PUSH1 0x20 DUP6 ADD PUSH1 0x20 DUP4 ADD CALLDATACOPY PUSH1 0x0 SWAP2 DUP2 ADD PUSH1 0x20 ADD SWAP2 SWAP1 SWAP2 MSTORE SWAP4 SWAP3 POP POP POP JUMP JUMPDEST PUSH1 0x0 DUP1 PUSH1 0x0 DUP1 PUSH1 0x0 PUSH1 0x80 DUP7 DUP9 SUB SLT ISZERO PUSH2 0x1809 JUMPI PUSH1 0x0 DUP1 REVERT JUMPDEST DUP6 CALLDATALOAD PUSH1 0x1 PUSH1 0x1 PUSH1 0x40 SHL SUB DUP2 GT ISZERO PUSH2 0x181F JUMPI PUSH1 0x0 DUP1 REVERT JUMPDEST PUSH2 0x182B DUP9 DUP3 DUP10 ADD PUSH2 0x1764 JUMP JUMPDEST SWAP6 POP POP PUSH1 0x20 DUP7 ADD CALLDATALOAD PUSH1 0x1 PUSH1 0x1 PUSH1 0x40 SHL SUB DUP2 GT ISZERO PUSH2 0x1847 JUMPI PUSH1 0x0 DUP1 REVERT JUMPDEST PUSH2 0x1853 DUP9 DUP3 DUP10 ADD PUSH2 0x1764 JUMP JUMPDEST SWAP5 POP POP PUSH2 0x1862 PUSH1 0x40 DUP8 ADD PUSH2 0x16DF JUMP JUMPDEST SWAP3 POP PUSH1 0x60 DUP7 ADD CALLDATALOAD PUSH1 0x1 PUSH1 0x1 PUSH1 0x40 SHL SUB DUP2 GT ISZERO PUSH2 0x187D JUMPI PUSH1 0x0 DUP1 REVERT JUMPDEST PUSH2 0x1889 DUP9 DUP3 DUP10 ADD PUSH2 0x15A1 JUMP JUMPDEST SWAP7 SWAP10 SWAP6 SWAP9 POP SWAP4 SWAP7 POP SWAP3 SWAP5 SWAP4 SWAP3 POP POP POP JUMP JUMPDEST PUSH1 0x0 PUSH1 0x20 DUP3 DUP5 SUB SLT ISZERO PUSH2 0x18AC JUMPI PUSH1 0x0 DUP1 REVERT JUMPDEST DUP2 CALLDATALOAD PUSH1 0x1 PUSH1 0x1 PUSH1 0x40 SHL SUB DUP2 GT ISZERO PUSH2 0x18C2 JUMPI PUSH1 0x0 DUP1 REVERT JUMPDEST PUSH2 0x18CE DUP5 DUP3 DUP6 ADD PUSH2 0x1764 JUMP JUMPDEST SWAP5 SWAP4 POP POP POP POP JUMP JUMPDEST PUSH2 0x120 DUP2 MSTORE PUSH1 0x0 PUSH2 0x18EB PUSH2 0x120 DUP4 ADD DUP13 PUSH2 0x1562 JUMP JUMPDEST DUP3 DUP2 SUB PUSH1 0x20 DUP5 ADD MSTORE PUSH2 0x18FD DUP2 DUP13 PUSH2 0x1562 JUMP JUMPDEST PUSH1 0x1 PUSH1 0x1 PUSH1 0xA0 SHL SUB SWAP11 DUP12 AND PUSH1 0x40 DUP6 ADD MSTORE SWAP9 DUP11 AND PUSH1 0x60 DUP5 ADD MSTORE POP POP SWAP5 SWAP1 SWAP7 AND PUSH1 0x80 DUP6 ADD MSTORE PUSH1 0xA0 DUP5 ADD SWAP3 SWAP1 SWAP3 MSTORE PUSH1 0xC0 DUP4 ADD MSTORE PUSH1 0xE0 DUP3 ADD MSTORE PUSH2 0x100 ADD SWAP2 SWAP1 SWAP2 MSTORE SWAP3 SWAP2 POP POP JUMP JUMPDEST PUSH1 0x0 DUP1 PUSH1 0x20 DUP4 DUP6 SUB SLT ISZERO PUSH2 0x1953 JUMPI PUSH1 0x0 DUP1 REVERT JUMPDEST DUP3 CALLDATALOAD PUSH1 0x1 PUSH1 0x1 PUSH1 0x40 SHL SUB DUP2 GT ISZERO PUSH2 0x1969 JUMPI PUSH1 0x0 DUP1 REVERT JUMPDEST PUSH2 0x1975 DUP6 DUP3 DUP7 ADD PUSH2 0x15A1 JUMP JUMPDEST SWAP1 SWAP7 SWAP1 SWAP6 POP SWAP4 POP POP POP POP JUMP JUMPDEST PUSH1 0x20 DUP1 DUP3 MSTORE DUP3 MLOAD DUP3 DUP3 ADD DUP2 SWAP1 MSTORE PUSH1 0x0 SWAP2 DUP5 ADD SWAP1 PUSH1 0x40 DUP5 ADD SWAP1 DUP4 JUMPDEST DUP2 DUP2 LT ISZERO PUSH2 0x19C2 JUMPI DUP4 MLOAD PUSH1 0x1 PUSH1 0x1 PUSH1 0xA0 SHL SUB AND DUP4 MSTORE PUSH1 0x20 SWAP4 DUP5 ADD SWAP4 SWAP1 SWAP3 ADD SWAP2 PUSH1 0x1 ADD PUSH2 0x199B JUMP JUMPDEST POP SWAP1 SWAP6 SWAP5 POP POP POP POP POP JUMP JUMPDEST PUSH1 0x0 DUP1 PUSH1 0x0 DUP1 PUSH1 0x0 DUP1 PUSH1 0x60 DUP8 DUP10 SUB SLT ISZERO PUSH2 0x19E6 JUMPI PUSH1 0x0 DUP1 REVERT JUMPDEST DUP7 CALLDATALOAD PUSH1 0x1 PUSH1 0x1 PUSH1 0x40 SHL SUB DUP2 GT ISZERO PUSH2 0x19FC JUMPI PUSH1 0x0 DUP1 REVERT JUMPDEST PUSH2 0x1A08 DUP10 DUP3 DUP11 ADD PUSH2 0x15A1 JUMP JUMPDEST SWAP1 SWAP8 POP SWAP6 POP POP PUSH1 0x20 DUP8 ADD CALLDATALOAD PUSH1 0x1 PUSH1 0x1 PUSH1 0x40 SHL SUB DUP2 GT ISZERO PUSH2 0x1A27 JUMPI PUSH1 0x0 DUP1 REVERT JUMPDEST PUSH2 0x1A33 DUP10 DUP3 DUP11 ADD PUSH2 0x15A1 JUMP JUMPDEST SWAP1 SWAP6 POP SWAP4 POP POP PUSH1 0x40 DUP8 ADD CALLDATALOAD PUSH1 0x1 PUSH1 0x1 PUSH1 0x40 SHL SUB DUP2 GT ISZERO PUSH2 0x1A52 JUMPI PUSH1 0x0 DUP1 REVERT JUMPDEST PUSH2 0x1A5E DUP10 DUP3 DUP11 ADD PUSH2 0x15A1 JUMP JUMPDEST SWAP8 SWAP11 SWAP7 SWAP10 POP SWAP5 SWAP8 POP SWAP3 SWAP6 SWAP4 SWAP5 SWAP3 POP POP POP JUMP JUMPDEST DUP1 ISZERO ISZERO DUP2 EQ PUSH2 0x1A7E JUMPI PUSH1 0x0 DUP1 REVERT JUMPDEST POP JUMP JUMPDEST PUSH1 0x0 DUP1 PUSH1 0x0 PUSH1 0x40 DUP5 DUP7 SUB SLT ISZERO PUSH2 0x1A96 JUMPI PUSH1 0x0 DUP1 REVERT JUMPDEST DUP4 CALLDATALOAD PUSH1 0x1 PUSH1 0x1 PUSH1 0x40 SHL SUB DUP2 GT ISZERO PUSH2 0x1AAC JUMPI PUSH1 0x0 DUP1 REVERT JUMPDEST PUSH2 0x1AB8 DUP7 DUP3 DUP8 ADD PUSH2 0x15A1 JUMP JUMPDEST SWAP1 SWAP5 POP SWAP3 POP POP PUSH1 0x20 DUP5 ADD CALLDATALOAD PUSH2 0x1ACC DUP2 PUSH2 0x1A70 JUMP JUMPDEST DUP1 SWAP2 POP POP SWAP3 POP SWAP3 POP SWAP3 JUMP JUMPDEST PUSH1 0x0 DUP1 PUSH1 0x0 DUP1 PUSH1 0x0 PUSH1 0x60 DUP7 DUP9 SUB SLT ISZERO PUSH2 0x1AEF JUMPI PUSH1 0x0 DUP1 REVERT JUMPDEST DUP6 CALLDATALOAD PUSH1 0x1 PUSH1 0x1 PUSH1 0x40 SHL SUB DUP2 GT ISZERO PUSH2 0x1B05 JUMPI PUSH1 0x0 DUP1 REVERT JUMPDEST PUSH2 0x1B11 DUP9 DUP3 DUP10 ADD PUSH2 0x15A1 JUMP JUMPDEST SWAP1 SWAP7 POP SWAP5 POP PUSH2 0x1B24 SWAP1 POP PUSH1 0x20 DUP8 ADD PUSH2 0x16DF JUMP JUMPDEST SWAP3 POP PUSH1 0x40 DUP7 ADD CALLDATALOAD PUSH1 0x1 PUSH1 0x1 PUSH1 0x40 SHL SUB DUP2 GT ISZERO PUSH2 0x187D JUMPI PUSH1 0x0 DUP1 REVERT JUMPDEST PUSH1 0x1 DUP2 DUP2 SHR SWAP1 DUP3 AND DUP1 PUSH2 0x1B53 JUMPI PUSH1 0x7F DUP3 AND SWAP2 POP JUMPDEST PUSH1 0x20 DUP3 LT DUP2 SUB PUSH2 0x1B73 JUMPI PUSH4 0x4E487B71 PUSH1 0xE0 SHL PUSH1 0x0 MSTORE PUSH1 0x22 PUSH1 0x4 MSTORE PUSH1 0x24 PUSH1 0x0 REVERT JUMPDEST POP SWAP2 SWAP1 POP JUMP JUMPDEST PUSH4 0x4E487B71 PUSH1 0xE0 SHL PUSH1 0x0 MSTORE PUSH1 0x11 PUSH1 0x4 MSTORE PUSH1 0x24 PUSH1 0x0 REVERT JUMPDEST DUP1 DUP3 ADD DUP1 DUP3 GT ISZERO PUSH2 0x1069 JUMPI PUSH2 0x1069 PUSH2 0x1B79 JUMP JUMPDEST DUP2 DUP4 DUP3 CALLDATACOPY PUSH1 0x0 SWAP2 ADD SWAP1 DUP2 MSTORE SWAP2 SWAP1 POP JUMP JUMPDEST PUSH1 0x1F DUP3 GT ISZERO PUSH2 0x1BF9 JUMPI DUP1 PUSH1 0x0 MSTORE PUSH1 0x20 PUSH1 0x0 KECCAK256 PUSH1 0x1F DUP5 ADD PUSH1 0x5 SHR DUP2 ADD PUSH1 0x20 DUP6 LT ISZERO PUSH2 0x1BD9 JUMPI POP DUP1 JUMPDEST PUSH1 0x1F DUP5 ADD PUSH1 0x5 SHR DUP3 ADD SWAP2 POP JUMPDEST DUP2 DUP2 LT ISZERO PUSH2 0xCF6 JUMPI PUSH1 0x0 DUP2 SSTORE PUSH1 0x1 ADD PUSH2 0x1BE5 JUMP JUMPDEST POP POP POP JUMP JUMPDEST DUP2 MLOAD PUSH1 0x1 PUSH1 0x1 PUSH1 0x40 SHL SUB DUP2 GT ISZERO PUSH2 0x1C17 JUMPI PUSH2 0x1C17 PUSH2 0x174E JUMP JUMPDEST PUSH2 0x1C2B DUP2 PUSH2 0x1C25 DUP5 SLOAD PUSH2 0x1B3F JUMP JUMPDEST DUP5 PUSH2 0x1BB2 JUMP JUMPDEST PUSH1 0x20 PUSH1 0x1F DUP3 GT PUSH1 0x1 DUP2 EQ PUSH2 0x1C5F JUMPI PUSH1 0x0 DUP4 ISZERO PUSH2 0x1C47 JUMPI POP DUP5 DUP3 ADD MLOAD JUMPDEST PUSH1 0x0 NOT PUSH1 0x3 DUP6 SWAP1 SHL SHR NOT AND PUSH1 0x1 DUP5 SWAP1 SHL OR DUP5 SSTORE PUSH2 0xCF6 JUMP JUMPDEST PUSH1 0x0 DUP5 DUP2 MSTORE PUSH1 0x20 DUP2 KECCAK256 PUSH1 0x1F NOT DUP6 AND SWAP2 JUMPDEST DUP3 DUP2 LT ISZERO PUSH2 0x1C8F JUMPI DUP8 DUP6 ADD MLOAD DUP3 SSTORE PUSH1 0x20 SWAP5 DUP6 ADD SWAP5 PUSH1 0x1 SWAP1 SWAP3 ADD SWAP2 ADD PUSH2 0x1C6F JUMP JUMPDEST POP DUP5 DUP3 LT ISZERO PUSH2 0x1CAD JUMPI DUP7 DUP5 ADD MLOAD PUSH1 0x0 NOT PUSH1 0x3 DUP8 SWAP1 SHL PUSH1 0xF8 AND SHR NOT AND DUP2 SSTORE JUMPDEST POP POP POP POP PUSH1 0x1 SWAP1 DUP2 SHL ADD SWAP1 SSTORE POP JUMP JUMPDEST DUP2 DUP4 MSTORE DUP2 DUP2 PUSH1 0x20 DUP6 ADD CALLDATACOPY POP PUSH1 0x0 DUP3 DUP3 ADD PUSH1 0x20 SWAP1 DUP2 ADD SWAP2 SWAP1 SWAP2 MSTORE PUSH1 0x1F SWAP1 SWAP2 ADD PUSH1 0x1F NOT AND SWAP1 SWAP2 ADD ADD SWAP1 JUMP JUMPDEST PUSH1 0x80 DUP1 DUP3 MSTORE DUP2 ADD DUP8 SWAP1 MSTORE PUSH1 0x0 DUP9 PUSH1 0xA0 DUP4 ADD DUP3 JUMPDEST DUP11 DUP2 LT ISZERO PUSH2 0x1D26 JUMPI PUSH1 0x1 PUSH1 0x1 PUSH1 0xA0 SHL SUB PUSH2 0x1D11 DUP5 PUSH2 0x16DF JUMP JUMPDEST AND DUP3 MSTORE PUSH1 0x20 SWAP3 DUP4 ADD SWAP3 SWAP1 SWAP2 ADD SWAP1 PUSH1 0x1 ADD PUSH2 0x1CF8 JUMP JUMPDEST POP PUSH1 0x1 PUSH1 0x1 PUSH1 0xA0 SHL SUB DUP10 AND PUSH1 0x20 DUP6 ADD MSTORE DUP4 DUP2 SUB PUSH1 0x40 DUP6 ADD MSTORE PUSH2 0x1D49 DUP2 DUP9 DUP11 PUSH2 0x1CBC JUMP JUMPDEST SWAP2 POP POP DUP3 DUP2 SUB PUSH1 0x60 DUP5 ADD MSTORE PUSH2 0x1D5F DUP2 DUP6 DUP8 PUSH2 0x1CBC JUMP JUMPDEST SWAP11 SWAP10 POP POP POP POP POP POP POP POP POP POP JUMP JUMPDEST PUSH4 0x4E487B71 PUSH1 0xE0 SHL PUSH1 0x0 MSTORE PUSH1 0x32 PUSH1 0x4 MSTORE PUSH1 0x24 PUSH1 0x0 REVERT JUMPDEST PUSH1 0x0 DUP1 DUP4 SLOAD PUSH2 0x1D91 DUP2 PUSH2 0x1B3F JUMP JUMPDEST PUSH1 0x1 DUP3 AND DUP1 ISZERO PUSH2 0x1DA8 JUMPI PUSH1 0x1 DUP2 EQ PUSH2 0x1DBD JUMPI PUSH2 0x1DED JUMP JUMPDEST PUSH1 0xFF NOT DUP4 AND DUP7 MSTORE DUP2 ISZERO ISZERO DUP3 MUL DUP7 ADD SWAP4 POP PUSH2 0x1DED JUMP JUMPDEST DUP7 PUSH1 0x0 MSTORE PUSH1 0x20 PUSH1 0x0 KECCAK256 PUSH1 0x0 JUMPDEST DUP4 DUP2 LT ISZERO PUSH2 0x1DE5 JUMPI DUP2 SLOAD DUP9 DUP3 ADD MSTORE PUSH1 0x1 SWAP1 SWAP2 ADD SWAP1 PUSH1 0x20 ADD PUSH2 0x1DC9 JUMP JUMPDEST POP POP DUP2 DUP7 ADD SWAP4 POP JUMPDEST POP SWAP2 SWAP6 SWAP5 POP POP POP POP POP JUMP JUMPDEST PUSH1 0x0 DUP3 MLOAD PUSH2 0x1E0A DUP2 DUP5 PUSH1 0x20 DUP8 ADD PUSH2 0x153E JUMP JUMPDEST SWAP2 SWAP1 SWAP2 ADD SWAP3 SWAP2 POP POP JUMP JUMPDEST PUSH1 0x0 DUP3 PUSH2 0x1E31 JUMPI PUSH4 0x4E487B71 PUSH1 0xE0 SHL PUSH1 0x0 MSTORE PUSH1 0x12 PUSH1 0x4 MSTORE PUSH1 0x24 PUSH1 0x0 REVERT JUMPDEST POP DIV SWAP1 JUMP JUMPDEST PUSH1 0x0 DUP1 PUSH1 0x0 PUSH1 0x60 DUP5 DUP7 SUB SLT ISZERO PUSH2 0x1E4B JUMPI PUSH1 0x0 DUP1 REVERT JUMPDEST POP POP DUP2 MLOAD PUSH1 0x20 DUP4 ADD MLOAD PUSH1 0x40 SWAP1 SWAP4 ADD MLOAD SWAP1 SWAP5 SWAP3 SWAP4 POP SWAP2 SWAP1 POP JUMP JUMPDEST DUP2 DUP2 SUB DUP2 DUP2 GT ISZERO PUSH2 0x1069 JUMPI PUSH2 0x1069 PUSH2 0x1B79 JUMP JUMPDEST PUSH1 0x1 PUSH1 0x1 PUSH1 0xA0 SHL SUB DUP7 AND DUP2 MSTORE PUSH1 0x80 PUSH1 0x20 DUP3 ADD DUP2 SWAP1 MSTORE PUSH1 0x0 SWAP1 PUSH2 0x1E9B SWAP1 DUP4 ADD DUP8 PUSH2 0x1562 JUMP JUMPDEST DUP6 PUSH1 0x40 DUP5 ADD MSTORE DUP3 DUP2 SUB PUSH1 0x60 DUP5 ADD MSTORE PUSH2 0x1EB4 DUP2 DUP6 DUP8 PUSH2 0x1CBC JUMP JUMPDEST SWAP9 SWAP8 POP POP POP POP POP POP POP POP JUMP JUMPDEST PUSH1 0x0 PUSH1 0x20 DUP3 DUP5 SUB SLT ISZERO PUSH2 0x1ED2 JUMPI PUSH1 0x0 DUP1 REVERT JUMPDEST DUP2 MLOAD PUSH2 0x71B DUP2 PUSH2 0x1A70 JUMP JUMPDEST PUSH1 0x40 DUP2 MSTORE PUSH1 0x0 PUSH2 0x1EF1 PUSH1 0x40 DUP4 ADD DUP7 DUP9 PUSH2 0x1CBC JUMP JUMPDEST DUP3 DUP2 SUB PUSH1 0x20 DUP5 ADD MSTORE PUSH2 0x1F04 DUP2 DUP6 DUP8 PUSH2 0x1CBC JUMP JUMPDEST SWAP8 SWAP7 POP POP POP POP POP POP POP JUMP JUMPDEST PUSH1 0x1 PUSH1 0x1 PUSH1 0xA0 SHL SUB DUP7 AND DUP2 MSTORE PUSH1 0x60 PUSH1 0x20 DUP3 ADD DUP2 SWAP1 MSTORE PUSH1 0x0 SWAP1 PUSH2 0x1F34 SWAP1 DUP4 ADD DUP7 DUP9 PUSH2 0x1CBC JUMP JUMPDEST DUP3 DUP2 SUB PUSH1 0x40 DUP5 ADD MSTORE PUSH2 0x1EB4 DUP2 DUP6 DUP8 PUSH2 0x1CBC JUMP INVALID LOG2 PUSH5 0x6970667358 0x22 SLT KECCAK256 0xE 0x27 0x1F CALLER BLOCKHASH SWAP6 0xA6 0xA5 BLOCKHASH ISZERO SWAP1 PUSH11 0xB8C01823F19E565EF0B772 0xE4 PUSH1 0xC6 PUSH5 0xA56F3DD030 PUSH5 0x736F6C6343 STOP ADDMOD BYTE STOP CALLER "
		},
		"gasEstimates": {
			"creation": {
				"codeDepositCost": "1612200",
				"executionCost": "infinite",
				"totalCost": "infinite"
			},
			"external": {
				"CheckCTI(string)": "infinite",
				"ConsumerSelectDelegator(string,string,address,string)": "infinite",
				"GetAssignmentVerified(string)": "infinite",
				"ProducerSelectDelegator(string,address[],uint256,uint256,uint256,string)": "infinite",
				"UploadCTI(string,address,string)": "infinite",
				"VerifyAssignment(string,bool)": "infinite",
				"consumerUpgrade(string,string,string)": "infinite",
				"hasConsumerBought(string,address)": "infinite",
				"reward()": "1060",
				"tx_list(string)": "infinite",
				"txids(uint256)": "infinite"
			},
			"internal": {
				"get(string memory)": "infinite",
				"isStringEqual(string memory,string memory)": "infinite"
			}
		},
		"methodIdentifiers": {
			"CheckCTI(string)": "dc7e701e",
			"ConsumerSelectDelegator(string,string,address,string)": "b3a1c864",
			"GetAssignmentVerified(string)": "e2599078",
			"ProducerSelectDelegator(string,address[],uint256,uint256,uint256,string)": "82da59f2",
			"UploadCTI(string,address,string)": "fa4a3287",
			"VerifyAssignment(string,bool)": "f26d9918",
			"consumerUpgrade(string,string,string)": "ea7937c2",
			"hasConsumerBought(string,address)": "9ff6b2fe",
			"reward()": "228cb733",
			"tx_list(string)": "cf99f51d",
			"txids(uint256)": "12abd755"
		}
	},
	"abi": [
		{
			"inputs": [
				{
					"internalType": "address",
					"name": "rewardAddr",
					"type": "address"
				},
				{
					"internalType": "address",
					"name": "delegatorAddr",
					"type": "address"
				}
			],
			"stateMutability": "nonpayable",
			"type": "constructor"
		},
		{
			"anonymous": false,
			"inputs": [
				{
					"indexed": false,
					"internalType": "address",
					"name": "delegator_address",
					"type": "address"
				},
				{
					"indexed": false,
					"internalType": "string",
					"name": "txid",
					"type": "string"
				},
				{
					"indexed": false,
					"internalType": "uint256",
					"name": "pay",
					"type": "uint256"
				},
				{
					"indexed": false,
					"internalType": "string",
					"name": "pubkey",
					"type": "string"
				}
			],
			"name": "ConsumerAssignmentComing",
			"type": "event"
		},
		{
			"anonymous": false,
			"inputs": [
				{
					"indexed": false,
					"internalType": "address",
					"name": "consumer",
					"type": "address"
				},
				{
					"indexed": false,
					"internalType": "string",
					"name": "ipfshash",
					"type": "string"
				},
				{
					"indexed": false,
					"internalType": "string",
					"name": "txid",
					"type": "string"
				}
			],
			"name": "IPFSHashComing",
			"type": "event"
		},
		{
			"anonymous": false,
			"inputs": [
				{
					"indexed": false,
					"internalType": "address[]",
					"name": "addresses",
					"type": "address[]"
				},
				{
					"indexed": false,
					"internalType": "address",
					"name": "producer",
					"type": "address"
				},
				{
					"indexed": false,
					"internalType": "string",
					"name": "tid",
					"type": "string"
				},
				{
					"indexed": false,
					"internalType": "string",
					"name": "ipfshash",
					"type": "string"
				}
			],
			"name": "ProducerAssignmentComing",
			"type": "event"
		},
		{
			"inputs": [
				{
					"internalType": "string",
					"name": "txid",
					"type": "string"
				}
			],
			"name": "CheckCTI",
			"outputs": [],
			"stateMutability": "payable",
			"type": "function"
		},
		{
			"inputs": [
				{
					"internalType": "string",
					"name": "tid",
					"type": "string"
				},
				{
					"internalType": "string",
					"name": "txid",
					"type": "string"
				},
				{
					"internalType": "address",
					"name": "addr",
					"type": "address"
				},
				{
					"internalType": "string",
					"name": "pubkey",
					"type": "string"
				}
			],
			"name": "ConsumerSelectDelegator",
			"outputs": [],
			"stateMutability": "payable",
			"type": "function"
		},
		{
			"inputs": [
				{
					"internalType": "string",
					"name": "tid",
					"type": "string"
				}
			],
			"name": "GetAssignmentVerified",
			"outputs": [
				{
					"internalType": "address[]",
					"name": "",
					"type": "address[]"
				}
			],
			"stateMutability": "view",
			"type": "function"
		},
		{
			"inputs": [
				{
					"internalType": "string",
					"name": "tid",
					"type": "string"
				},
				{
					"internalType": "address[]",
					"name": "delegators_address",
					"type": "address[]"
				},
				{
					"internalType": "uint256",
					"name": "price",
					"type": "uint256"
				},
				{
					"internalType": "uint256",
					"name": "producer_price",
					"type": "uint256"
				},
				{
					"internalType": "uint256",
					"name": "delegator_price",
					"type": "uint256"
				},
				{
					"internalType": "string",
					"name": "ipfsHash",
					"type": "string"
				}
			],
			"name": "ProducerSelectDelegator",
			"outputs": [
				{
					"internalType": "bool",
					"name": "",
					"type": "bool"
				}
			],
			"stateMutability": "nonpayable",
			"type": "function"
		},
		{
			"inputs": [
				{
					"internalType": "string",
					"name": "ipfshash",
					"type": "string"
				},
				{
					"internalType": "address",
					"name": "consumer",
					"type": "address"
				},
				{
					"internalType": "string",
					"name": "txid",
					"type": "string"
				}
			],
			"name": "UploadCTI",
			"outputs": [],
			"stateMutability": "nonpayable",
			"type": "function"
		},
		{
			"inputs": [
				{
					"internalType": "string",
					"name": "tid",
					"type": "string"
				},
				{
					"internalType": "bool",
					"name": "opt",
					"type": "bool"
				}
			],
			"name": "VerifyAssignment",
			"outputs": [
				{
					"internalType": "bool",
					"name": "",
					"type": "bool"
				}
			],
			"stateMutability": "nonpayable",
			"type": "function"
		},
		{
			"inputs": [
				{
					"internalType": "string",
					"name": "txid",
					"type": "string"
				},
				{
					"internalType": "string",
					"name": "name",
					"type": "string"
				},
				{
					"internalType": "string",
					"name": "pubkey",
					"type": "string"
				}
			],
			"name": "consumerUpgrade",
			"outputs": [],
			"stateMutability": "payable",
			"type": "function"
		},
		{
			"inputs": [
				{
					"internalType": "string",
					"name": "tid",
					"type": "string"
				},
				{
					"internalType": "address",
					"name": "consumer",
					"type": "address"
				}
			],
			"name": "hasConsumerBought",
			"outputs": [
				{
					"internalType": "bool",
					"name": "",
					"type": "bool"
				}
			],
			"stateMutability": "view",
			"type": "function"
		},
		{
			"inputs": [],
			"name": "reward",
			"outputs": [
				{
					"internalType": "contract RewardPointsContract",
					"name": "",
					"type": "address"
				}
			],
			"stateMutability": "view",
			"type": "function"
		},
		{
			"inputs": [
				{
					"internalType": "string",
					"name": "",
					"type": "string"
				}
			],
			"name": "tx_list",
			"outputs": [
				{
					"internalType": "string",
					"name": "tid",
					"type": "string"
				},
				{
					"internalType": "string",
					"name": "txid",
					"type": "string"
				},
				{
					"internalType": "address",
					"name": "producer",
					"type": "address"
				},
				{
					"internalType": "address",
					"name": "delegator",
					"type": "address"
				},
				{
					"internalType": "address",
					"name": "consumer",
					"type": "address"
				},
				{
					"internalType": "uint256",
					"name": "price",
					"type": "uint256"
				},
				{
					"internalType": "uint256",
					"name": "producer_price",
					"type": "uint256"
				},
				{
					"internalType": "uint256",
					"name": "delegator_price",
					"type": "uint256"
				},
				{
					"internalType": "int256",
					"name": "status",
					"type": "int256"
				}
			],
			"stateMutability": "view",
			"type": "function"
		},
		{
			"inputs": [
				{
					"internalType": "uint256",
					"name": "",
					"type": "uint256"
				}
			],
			"name": "txids",
			"outputs": [
				{
					"internalType": "string",
					"name": "",
					"type": "string"
				}
			],
			"stateMutability": "view",
			"type": "function"
		}
	]
}