{
	"data": {
		"bytecode": {
			"linkReferences": {},
			"object": "6080604052348015600f57600080fd5b5061035d8061001f6000396000f3fe608060405234801561001057600080fd5b50600436106100575760003560e01c80638d105a661461005c578063c724caf714610071578063e4e103dc14610084578063ee204abb14610097578063f50ddbc7146100d2575b600080fd5b61006f61006a366004610256565b6100f2565b005b61006f61007f366004610299565b610181565b61006f610092366004610299565b610212565b6100c06100a53660046102c3565b6001600160a01b031660009081526020819052604090205490565b60405190815260200160405180910390f35b6100c06100e03660046102c3565b60006020819052908152604090205481565b6001600160a01b03831660009081526020819052604081208054600a929061011b9084906102fb565b90915550506001600160a01b03811660009081526020819052604081208054600792906101499084906102fb565b90915550506001600160a01b03821660009081526020819052604081208054600592906101779084906102fb565b9091555050505050565b6001600160a01b0382166000908152602081905260409020548111156101e15760405162461bcd60e51b81526020600482015260116024820152704e6f7420656e6f75676820706f696e747360781b604482015260640160405180910390fd5b6001600160a01b03821660009081526020819052604081208054839290610209908490610314565b90915550505050565b6001600160a01b038216600090815260208190526040812080548392906102099084906102fb565b80356001600160a01b038116811461025157600080fd5b919050565b60008060006060848603121561026b57600080fd5b6102748461023a565b92506102826020850161023a565b91506102906040850161023a565b90509250925092565b600080604083850312156102ac57600080fd5b6102b58361023a565b946020939093013593505050565b6000602082840312156102d557600080fd5b6102de8261023a565b9392505050565b634e487b7160e01b600052601160045260246000fd5b8082018082111561030e5761030e6102e5565b92915050565b8181038181111561030e5761030e6102e556fea26469706673582212206fe2189d416334396c20c0091129d33c7eeaa00c8668b0536fcfbfe4392571c164736f6c634300081a0033",
			"opcodes": "PUSH1 0x80 PUSH1 0x40 MSTORE CALLVALUE DUP1 ISZERO PUSH1 0xF JUMPI PUSH1 0x0 DUP1 REVERT JUMPDEST POP PUSH2 0x35D DUP1 PUSH2 0x1F PUSH1 0x0 CODECOPY PUSH1 0x0 RETURN INVALID PUSH1 0x80 PUSH1 0x40 MSTORE CALLVALUE DUP1 ISZERO PUSH2 0x10 JUMPI PUSH1 0x0 DUP1 REVERT JUMPDEST POP PUSH1 0x4 CALLDATASIZE LT PUSH2 0x57 JUMPI PUSH1 0x0 CALLDATALOAD PUSH1 0xE0 SHR DUP1 PUSH4 0x8D105A66 EQ PUSH2 0x5C JUMPI DUP1 PUSH4 0xC724CAF7 EQ PUSH2 0x71 JUMPI DUP1 PUSH4 0xE4E103DC EQ PUSH2 0x84 JUMPI DUP1 PUSH4 0xEE204ABB EQ PUSH2 0x97 JUMPI DUP1 PUSH4 0xF50DDBC7 EQ PUSH2 0xD2 JUMPI JUMPDEST PUSH1 0x0 DUP1 REVERT JUMPDEST PUSH2 0x6F PUSH2 0x6A CALLDATASIZE PUSH1 0x4 PUSH2 0x256 JUMP JUMPDEST PUSH2 0xF2 JUMP JUMPDEST STOP JUMPDEST PUSH2 0x6F PUSH2 0x7F CALLDATASIZE PUSH1 0x4 PUSH2 0x299 JUMP JUMPDEST PUSH2 0x181 JUMP JUMPDEST PUSH2 0x6F PUSH2 0x92 CALLDATASIZE PUSH1 0x4 PUSH2 0x299 JUMP JUMPDEST PUSH2 0x212 JUMP JUMPDEST PUSH2 0xC0 PUSH2 0xA5 CALLDATASIZE PUSH1 0x4 PUSH2 0x2C3 JUMP JUMPDEST PUSH1 0x1 PUSH1 0x1 PUSH1 0xA0 SHL SUB AND PUSH1 0x0 SWAP1 DUP2 MSTORE PUSH1 0x20 DUP2 SWAP1 MSTORE PUSH1 0x40 SWAP1 KECCAK256 SLOAD SWAP1 JUMP JUMPDEST PUSH1 0x40 MLOAD SWAP1 DUP2 MSTORE PUSH1 0x20 ADD PUSH1 0x40 MLOAD DUP1 SWAP2 SUB SWAP1 RETURN JUMPDEST PUSH2 0xC0 PUSH2 0xE0 CALLDATASIZE PUSH1 0x4 PUSH2 0x2C3 JUMP JUMPDEST PUSH1 0x0 PUSH1 0x20 DUP2 SWAP1 MSTORE SWAP1 DUP2 MSTORE PUSH1 0x40 SWAP1 KECCAK256 SLOAD DUP2 JUMP JUMPDEST PUSH1 0x1 PUSH1 0x1 PUSH1 0xA0 SHL SUB DUP4 AND PUSH1 0x0 SWAP1 DUP2 MSTORE PUSH1 0x20 DUP2 SWAP1 MSTORE PUSH1 0x40 DUP2 KECCAK256 DUP1 SLOAD PUSH1 0xA SWAP3 SWAP1 PUSH2 0x11B SWAP1 DUP5 SWAP1 PUSH2 0x2FB JUMP JUMPDEST SWAP1 SWAP2 SSTORE POP POP PUSH1 0x1 PUSH1 0x1 PUSH1 0xA0 SHL SUB DUP2 AND PUSH1 0x0 SWAP1 DUP2 MSTORE PUSH1 0x20 DUP2 SWAP1 MSTORE PUSH1 0x40 DUP2 KECCAK256 DUP1 SLOAD PUSH1 0x7 SWAP3 SWAP1 PUSH2 0x149 SWAP1 DUP5 SWAP1 PUSH2 0x2FB JUMP JUMPDEST SWAP1 SWAP2 SSTORE POP POP PUSH1 0x1 PUSH1 0x1 PUSH1 0xA0 SHL SUB DUP3 AND PUSH1 0x0 SWAP1 DUP2 MSTORE PUSH1 0x20 DUP2 SWAP1 MSTORE PUSH1 0x40 DUP2 KECCAK256 DUP1 SLOAD PUSH1 0x5 SWAP3 SWAP1 PUSH2 0x177 SWAP1 DUP5 SWAP1 PUSH2 0x2FB JUMP JUMPDEST SWAP1 SWAP2 SSTORE POP POP POP POP POP JUMP JUMPDEST PUSH1 0x1 PUSH1 0x1 PUSH1 0xA0 SHL SUB DUP3 AND PUSH1 0x0 SWAP1 DUP2 MSTORE PUSH1 0x20 DUP2 SWAP1 MSTORE PUSH1 0x40 SWAP1 KECCAK256 SLOAD DUP2 GT ISZERO PUSH2 0x1E1 JUMPI PUSH1 0x40 MLOAD PUSH3 0x461BCD PUSH1 0xE5 SHL DUP2 MSTORE PUSH1 0x20 PUSH1 0x4 DUP3 ADD MSTORE PUSH1 0x11 PUSH1 0x24 DUP3 ADD MSTORE PUSH17 0x4E6F7420656E6F75676820706F696E7473 PUSH1 0x78 SHL PUSH1 0x44 DUP3 ADD MSTORE PUSH1 0x64 ADD PUSH1 0x40 MLOAD DUP1 SWAP2 SUB SWAP1 REVERT JUMPDEST PUSH1 0x1 PUSH1 0x1 PUSH1 0xA0 SHL SUB DUP3 AND PUSH1 0x0 SWAP1 DUP2 MSTORE PUSH1 0x20 DUP2 SWAP1 MSTORE PUSH1 0x40 DUP2 KECCAK256 DUP1 SLOAD DUP4 SWAP3 SWAP1 PUSH2 0x209 SWAP1 DUP5 SWAP1 PUSH2 0x314 JUMP JUMPDEST SWAP1 SWAP2 SSTORE POP POP POP POP JUMP JUMPDEST PUSH1 0x1 PUSH1 0x1 PUSH1 0xA0 SHL SUB DUP3 AND PUSH1 0x0 SWAP1 DUP2 MSTORE PUSH1 0x20 DUP2 SWAP1 MSTORE PUSH1 0x40 DUP2 KECCAK256 DUP1 SLOAD DUP4 SWAP3 SWAP1 PUSH2 0x209 SWAP1 DUP5 SWAP1 PUSH2 0x2FB JUMP JUMPDEST DUP1 CALLDATALOAD PUSH1 0x1 PUSH1 0x1 PUSH1 0xA0 SHL SUB DUP2 AND DUP2 EQ PUSH2 0x251 JUMPI PUSH1 0x0 DUP1 REVERT JUMPDEST SWAP2 SWAP1 POP JUMP JUMPDEST PUSH1 0x0 DUP1 PUSH1 0x0 PUSH1 0x60 DUP5 DUP7 SUB SLT ISZERO PUSH2 0x26B JUMPI PUSH1 0x0 DUP1 REVERT JUMPDEST PUSH2 0x274 DUP5 PUSH2 0x23A JUMP JUMPDEST SWAP3 POP PUSH2 0x282 PUSH1 0x20 DUP6 ADD PUSH2 0x23A JUMP JUMPDEST SWAP2 POP PUSH2 0x290 PUSH1 0x40 DUP6 ADD PUSH2 0x23A JUMP JUMPDEST SWAP1 POP SWAP3 POP SWAP3 POP SWAP3 JUMP JUMPDEST PUSH1 0x0 DUP1 PUSH1 0x40 DUP4 DUP6 SUB SLT ISZERO PUSH2 0x2AC JUMPI PUSH1 0x0 DUP1 REVERT JUMPDEST PUSH2 0x2B5 DUP4 PUSH2 0x23A JUMP JUMPDEST SWAP5 PUSH1 0x20 SWAP4 SWAP1 SWAP4 ADD CALLDATALOAD SWAP4 POP POP POP JUMP JUMPDEST PUSH1 0x0 PUSH1 0x20 DUP3 DUP5 SUB SLT ISZERO PUSH2 0x2D5 JUMPI PUSH1 0x0 DUP1 REVERT JUMPDEST PUSH2 0x2DE DUP3 PUSH2 0x23A JUMP JUMPDEST SWAP4 SWAP3 POP POP POP JUMP JUMPDEST PUSH4 0x4E487B71 PUSH1 0xE0 SHL PUSH1 0x0 MSTORE PUSH1 0x11 PUSH1 0x4 MSTORE PUSH1 0x24 PUSH1 0x0 REVERT JUMPDEST DUP1 DUP3 ADD DUP1 DUP3 GT ISZERO PUSH2 0x30E JUMPI PUSH2 0x30E PUSH2 0x2E5 JUMP JUMPDEST SWAP3 SWAP2 POP POP JUMP JUMPDEST DUP2 DUP2 SUB DUP2 DUP2 GT ISZERO PUSH2 0x30E JUMPI PUSH2 0x30E PUSH2 0x2E5 JUMP INVALID LOG2 PUSH5 0x6970667358 0x22 SLT KECCAK256 PUSH16 0xE2189D416334396C20C0091129D33C7E 0xEA LOG0 0xC DUP7 PUSH9 0xB0536FCFBFE4392571 0xC1 PUSH5 0x736F6C6343 STOP ADDMOD BYTE STOP CALLER "
		},
		"gasEstimates": {
			"creation": {
				"codeDepositCost": "172200",
				"executionCost": "214",
				"totalCost": "172414"
			},
			"external": {
				"getPoints(address)": "1272",
				"reward(address,address,address)": "infinite",
				"rewardUser(address,uint256)": "21342",
				"useConsumerPoints(address,uint256)": "22236",
				"userPoints(address)": "1276"
			}
		},
		"methodIdentifiers": {
			"getPoints(address)": "ee204abb",
			"reward(address,address,address)": "8d105a66",
			"rewardUser(address,uint256)": "e4e103dc",
			"useConsumerPoints(address,uint256)": "c724caf7",
			"userPoints(address)": "f50ddbc7"
		}
	},
	"abi": [
		{
			"inputs": [
				{
					"internalType": "address",
					"name": "user",
					"type": "address"
				}
			],
			"name": "getPoints",
			"outputs": [
				{
					"internalType": "uint256",
					"name": "",
					"type": "uint256"
				}
			],
			"stateMutability": "view",
			"type": "function"
		},
		{
			"inputs": [
				{
					"internalType": "address",
					"name": "producer",
					"type": "address"
				},
				{
					"internalType": "address",
					"name": "consumer",
					"type": "address"
				},
				{
					"internalType": "address",
					"name": "delegator",
					"type": "address"
				}
			],
			"name": "reward",
			"outputs": [],
			"stateMutability": "nonpayable",
			"type": "function"
		},
		{
			"inputs": [
				{
					"internalType": "address",
					"name": "user",
					"type": "address"
				},
				{
					"internalType": "uint256",
					"name": "points",
					"type": "uint256"
				}
			],
			"name": "rewardUser",
			"outputs": [],
			"stateMutability": "nonpayable",
			"type": "function"
		},
		{
			"inputs": [
				{
					"internalType": "address",
					"name": "user",
					"type": "address"
				},
				{
					"internalType": "uint256",
					"name": "points",
					"type": "uint256"
				}
			],
			"name": "useConsumerPoints",
			"outputs": [],
			"stateMutability": "nonpayable",
			"type": "function"
		},
		{
			"inputs": [
				{
					"internalType": "address",
					"name": "",
					"type": "address"
				}
			],
			"name": "userPoints",
			"outputs": [
				{
					"internalType": "uint256",
					"name": "",
					"type": "uint256"
				}
			],
			"stateMutability": "view",
			"type": "function"
		}
	]
}