{
	"data": {
		"bytecode": {
			"linkReferences": {},
			"object": "6080604052348015600f57600080fd5b5061077a8061001f6000396000f3fe608060405234801561001057600080fd5b50600436106100625760003560e01c80638d105a6614610067578063b74d717d1461007c578063c724caf71461008f578063e4e103dc146100a2578063ee204abb146100b5578063f50ddbc7146100f0575b600080fd5b61007a610075366004610468565b610110565b005b61007a61008a366004610560565b61019f565b61007a61009d3660046105d9565b610393565b61007a6100b03660046105d9565b610424565b6100de6100c3366004610603565b6001600160a01b031660009081526020819052604090205490565b60405190815260200160405180910390f35b6100de6100fe366004610603565b60006020819052908152604090205481565b6001600160a01b03831660009081526020819052604081208054600a929061013990849061063b565b90915550506001600160a01b038116600090815260208190526040812080546007929061016790849061063b565b90915550506001600160a01b038216600090815260208190526040812080546005929061019590849061063b565b9091555050505050565b81818082126101af57505061038d565b60008560026101be8787610654565b6101c8919061067b565b6101d290876106b7565b815181106101e2576101e26106df565b602002602001015190505b818313610361575b80868481518110610208576102086106df565b602002602001015111156102285782610220816106f5565b9350506101f5565b8086838151811061023b5761023b6106df565b6020026020010151101561025b578161025381610714565b925050610228565b81831361035c57858281518110610274576102746106df565b602002602001015186848151811061028e5761028e6106df565b60200260200101518785815181106102a8576102a86106df565b602002602001018885815181106102c1576102c16106df565b60200260200101828152508281525050508682815181106102e4576102e46106df565b60200260200101518784815181106102fe576102fe6106df565b6020026020010151888581518110610318576103186106df565b60200260200101898581518110610331576103316106df565b6020908102919091010191909152528261034a816106f5565b935050818061035890610714565b9250505b6101ed565b81851215610375576103758787878561019f565b83831215610389576103898787858761019f565b5050505b50505050565b6001600160a01b0382166000908152602081905260409020548111156103f35760405162461bcd60e51b81526020600482015260116024820152704e6f7420656e6f75676820706f696e747360781b604482015260640160405180910390fd5b6001600160a01b0382166000908152602081905260408120805483929061041b908490610731565b90915550505050565b6001600160a01b0382166000908152602081905260408120805483929061041b90849061063b565b80356001600160a01b038116811461046357600080fd5b919050565b60008060006060848603121561047d57600080fd5b6104868461044c565b92506104946020850161044c565b91506104a26040850161044c565b90509250925092565b634e487b7160e01b600052604160045260246000fd5b600082601f8301126104d257600080fd5b813567ffffffffffffffff8111156104ec576104ec6104ab565b8060051b604051601f19603f830116810181811067ffffffffffffffff82111715610519576105196104ab565b60405291825260208185018101929081018684111561053757600080fd5b6020860192505b8383101561055657823581526020928301920161053e565b5095945050505050565b6000806000806080858703121561057657600080fd5b843567ffffffffffffffff81111561058d57600080fd5b610599878288016104c1565b945050602085013567ffffffffffffffff8111156105b657600080fd5b6105c2878288016104c1565b949794965050505060408301359260600135919050565b600080604083850312156105ec57600080fd5b6105f58361044c565b946020939093013593505050565b60006020828403121561061557600080fd5b61061e8261044c565b9392505050565b634e487b7160e01b600052601160045260246000fd5b8082018082111561064e5761064e610625565b92915050565b818103600083128015838313168383128216171561067457610674610625565b5092915050565b60008261069857634e487b7160e01b600052601260045260246000fd5b600160ff1b8214600019841416156106b2576106b2610625565b500590565b80820182811260008312801582168215821617156106d7576106d7610625565b505092915050565b634e487b7160e01b600052603260045260246000fd5b60006001600160ff1b01820161070d5761070d610625565b5060010190565b6000600160ff1b820161072957610729610625565b506000190190565b8181038181111561064e5761064e61062556fea26469706673582212201172028241ec86e10a482b8d00d57d147548aedca1dfe3b3bdb38f05817aa10d64736f6c634300081a0033",
			"opcodes": "PUSH1 0x80 PUSH1 0x40 MSTORE CALLVALUE DUP1 ISZERO PUSH1 0xF JUMPI PUSH1 0x0 DUP1 REVERT JUMPDEST POP PUSH2 0x77A DUP1 PUSH2 0x1F PUSH1 0x0 CODECOPY PUSH1 0x0 RETURN INVALID PUSH1 0x80 PUSH1 0x40 MSTORE CALLVALUE DUP1 ISZERO PUSH2 0x10 JUMPI PUSH1 0x0 DUP1 REVERT JUMPDEST POP PUSH1 0x4 CALLDATASIZE LT PUSH2 0x62 JUMPI PUSH1 0x0 CALLDATALOAD PUSH1 0xE0 SHR DUP1 PUSH4 0x8D105A66 EQ PUSH2 0x67 JUMPI DUP1 PUSH4 0xB74D717D EQ PUSH2 0x7C JUMPI DUP1 PUSH4 0xC724CAF7 EQ PUSH2 0x8F JUMPI DUP1 PUSH4 0xE4E103DC EQ PUSH2 0xA2 JUMPI DUP1 PUSH4 0xEE204ABB EQ PUSH2 0xB5 JUMPI DUP1 PUSH4 0xF50DDBC7 EQ PUSH2 0xF0 JUMPI JUMPDEST PUSH1 0x0 DUP1 REVERT JUMPDEST PUSH2 0x7A PUSH2 0x75 CALLDATASIZE PUSH1 0x4 PUSH2 0x468 JUMP JUMPDEST PUSH2 0x110 JUMP JUMPDEST STOP JUMPDEST PUSH2 0x7A PUSH2 0x8A CALLDATASIZE PUSH1 0x4 PUSH2 0x560 JUMP JUMPDEST PUSH2 0x19F JUMP JUMPDEST PUSH2 0x7A PUSH2 0x9D CALLDATASIZE PUSH1 0x4 PUSH2 0x5D9 JUMP JUMPDEST PUSH2 0x393 JUMP JUMPDEST PUSH2 0x7A PUSH2 0xB0 CALLDATASIZE PUSH1 0x4 PUSH2 0x5D9 JUMP JUMPDEST PUSH2 0x424 JUMP JUMPDEST PUSH2 0xDE PUSH2 0xC3 CALLDATASIZE PUSH1 0x4 PUSH2 0x603 JUMP JUMPDEST PUSH1 0x1 PUSH1 0x1 PUSH1 0xA0 SHL SUB AND PUSH1 0x0 SWAP1 DUP2 MSTORE PUSH1 0x20 DUP2 SWAP1 MSTORE PUSH1 0x40 SWAP1 KECCAK256 SLOAD SWAP1 JUMP JUMPDEST PUSH1 0x40 MLOAD SWAP1 DUP2 MSTORE PUSH1 0x20 ADD PUSH1 0x40 MLOAD DUP1 SWAP2 SUB SWAP1 RETURN JUMPDEST PUSH2 0xDE PUSH2 0xFE CALLDATASIZE PUSH1 0x4 PUSH2 0x603 JUMP JUMPDEST PUSH1 0x0 PUSH1 0x20 DUP2 SWAP1 MSTORE SWAP1 DUP2 MSTORE PUSH1 0x40 SWAP1 KECCAK256 SLOAD DUP2 JUMP JUMPDEST PUSH1 0x1 PUSH1 0x1 PUSH1 0xA0 SHL SUB DUP4 AND PUSH1 0x0 SWAP1 DUP2 MSTORE PUSH1 0x20 DUP2 SWAP1 MSTORE PUSH1 0x40 DUP2 KECCAK256 DUP1 SLOAD PUSH1 0xA SWAP3 SWAP1 PUSH2 0x139 SWAP1 DUP5 SWAP1 PUSH2 0x63B JUMP JUMPDEST SWAP1 SWAP2 SSTORE POP POP PUSH1 0x1 PUSH1 0x1 PUSH1 0xA0 SHL SUB DUP2 AND PUSH1 0x0 SWAP1 DUP2 MSTORE PUSH1 0x20 DUP2 SWAP1 MSTORE PUSH1 0x40 DUP2 KECCAK256 DUP1 SLOAD PUSH1 0x7 SWAP3 SWAP1 PUSH2 0x167 SWAP1 DUP5 SWAP1 PUSH2 0x63B JUMP JUMPDEST SWAP1 SWAP2 SSTORE POP POP PUSH1 0x1 PUSH1 0x1 PUSH1 0xA0 SHL SUB DUP3 AND PUSH1 0x0 SWAP1 DUP2 MSTORE PUSH1 0x20 DUP2 SWAP1 MSTORE PUSH1 0x40 DUP2 KECCAK256 DUP1 SLOAD PUSH1 0x5 SWAP3 SWAP1 PUSH2 0x195 SWAP1 DUP5 SWAP1 PUSH2 0x63B JUMP JUMPDEST SWAP1 SWAP2 SSTORE POP POP POP POP POP JUMP JUMPDEST DUP2 DUP2 DUP1 DUP3 SLT PUSH2 0x1AF JUMPI POP POP PUSH2 0x38D JUMP JUMPDEST PUSH1 0x0 DUP6 PUSH1 0x2 PUSH2 0x1BE DUP8 DUP8 PUSH2 0x654 JUMP JUMPDEST PUSH2 0x1C8 SWAP2 SWAP1 PUSH2 0x67B JUMP JUMPDEST PUSH2 0x1D2 SWAP1 DUP8 PUSH2 0x6B7 JUMP JUMPDEST DUP2 MLOAD DUP2 LT PUSH2 0x1E2 JUMPI PUSH2 0x1E2 PUSH2 0x6DF JUMP JUMPDEST PUSH1 0x20 MUL PUSH1 0x20 ADD ADD MLOAD SWAP1 POP JUMPDEST DUP2 DUP4 SGT PUSH2 0x361 JUMPI JUMPDEST DUP1 DUP7 DUP5 DUP2 MLOAD DUP2 LT PUSH2 0x208 JUMPI PUSH2 0x208 PUSH2 0x6DF JUMP JUMPDEST PUSH1 0x20 MUL PUSH1 0x20 ADD ADD MLOAD GT ISZERO PUSH2 0x228 JUMPI DUP3 PUSH2 0x220 DUP2 PUSH2 0x6F5 JUMP JUMPDEST SWAP4 POP POP PUSH2 0x1F5 JUMP JUMPDEST DUP1 DUP7 DUP4 DUP2 MLOAD DUP2 LT PUSH2 0x23B JUMPI PUSH2 0x23B PUSH2 0x6DF JUMP JUMPDEST PUSH1 0x20 MUL PUSH1 0x20 ADD ADD MLOAD LT ISZERO PUSH2 0x25B JUMPI DUP2 PUSH2 0x253 DUP2 PUSH2 0x714 JUMP JUMPDEST SWAP3 POP POP PUSH2 0x228 JUMP JUMPDEST DUP2 DUP4 SGT PUSH2 0x35C JUMPI DUP6 DUP3 DUP2 MLOAD DUP2 LT PUSH2 0x274 JUMPI PUSH2 0x274 PUSH2 0x6DF JUMP JUMPDEST PUSH1 0x20 MUL PUSH1 0x20 ADD ADD MLOAD DUP7 DUP5 DUP2 MLOAD DUP2 LT PUSH2 0x28E JUMPI PUSH2 0x28E PUSH2 0x6DF JUMP JUMPDEST PUSH1 0x20 MUL PUSH1 0x20 ADD ADD MLOAD DUP8 DUP6 DUP2 MLOAD DUP2 LT PUSH2 0x2A8 JUMPI PUSH2 0x2A8 PUSH2 0x6DF JUMP JUMPDEST PUSH1 0x20 MUL PUSH1 0x20 ADD ADD DUP9 DUP6 DUP2 MLOAD DUP2 LT PUSH2 0x2C1 JUMPI PUSH2 0x2C1 PUSH2 0x6DF JUMP JUMPDEST PUSH1 0x20 MUL PUSH1 0x20 ADD ADD DUP3 DUP2 MSTORE POP DUP3 DUP2 MSTORE POP POP POP DUP7 DUP3 DUP2 MLOAD DUP2 LT PUSH2 0x2E4 JUMPI PUSH2 0x2E4 PUSH2 0x6DF JUMP JUMPDEST PUSH1 0x20 MUL PUSH1 0x20 ADD ADD MLOAD DUP8 DUP5 DUP2 MLOAD DUP2 LT PUSH2 0x2FE JUMPI PUSH2 0x2FE PUSH2 0x6DF JUMP JUMPDEST PUSH1 0x20 MUL PUSH1 0x20 ADD ADD MLOAD DUP9 DUP6 DUP2 MLOAD DUP2 LT PUSH2 0x318 JUMPI PUSH2 0x318 PUSH2 0x6DF JUMP JUMPDEST PUSH1 0x20 MUL PUSH1 0x20 ADD ADD DUP10 DUP6 DUP2 MLOAD DUP2 LT PUSH2 0x331 JUMPI PUSH2 0x331 PUSH2 0x6DF JUMP JUMPDEST PUSH1 0x20 SWAP1 DUP2 MUL SWAP2 SWAP1 SWAP2 ADD ADD SWAP2 SWAP1 SWAP2 MSTORE MSTORE DUP3 PUSH2 0x34A DUP2 PUSH2 0x6F5 JUMP JUMPDEST SWAP4 POP POP DUP2 DUP1 PUSH2 0x358 SWAP1 PUSH2 0x714 JUMP JUMPDEST SWAP3 POP POP JUMPDEST PUSH2 0x1ED JUMP JUMPDEST DUP2 DUP6 SLT ISZERO PUSH2 0x375 JUMPI PUSH2 0x375 DUP8 DUP8 DUP8 DUP6 PUSH2 0x19F JUMP JUMPDEST DUP4 DUP4 SLT ISZERO PUSH2 0x389 JUMPI PUSH2 0x389 DUP8 DUP8 DUP6 DUP8 PUSH2 0x19F JUMP JUMPDEST POP POP POP JUMPDEST POP POP POP POP JUMP JUMPDEST PUSH1 0x1 PUSH1 0x1 PUSH1 0xA0 SHL SUB DUP3 AND PUSH1 0x0 SWAP1 DUP2 MSTORE PUSH1 0x20 DUP2 SWAP1 MSTORE PUSH1 0x40 SWAP1 KECCAK256 SLOAD DUP2 GT ISZERO PUSH2 0x3F3 JUMPI PUSH1 0x40 MLOAD PUSH3 0x461BCD PUSH1 0xE5 SHL DUP2 MSTORE PUSH1 0x20 PUSH1 0x4 DUP3 ADD MSTORE PUSH1 0x11 PUSH1 0x24 DUP3 ADD MSTORE PUSH17 0x4E6F7420656E6F75676820706F696E7473 PUSH1 0x78 SHL PUSH1 0x44 DUP3 ADD MSTORE PUSH1 0x64 ADD PUSH1 0x40 MLOAD DUP1 SWAP2 SUB SWAP1 REVERT JUMPDEST PUSH1 0x1 PUSH1 0x1 PUSH1 0xA0 SHL SUB DUP3 AND PUSH1 0x0 SWAP1 DUP2 MSTORE PUSH1 0x20 DUP2 SWAP1 MSTORE PUSH1 0x40 DUP2 KECCAK256 DUP1 SLOAD DUP4 SWAP3 SWAP1 PUSH2 0x41B SWAP1 DUP5 SWAP1 PUSH2 0x731 JUMP JUMPDEST SWAP1 SWAP2 SSTORE POP POP POP POP JUMP JUMPDEST PUSH1 0x1 PUSH1 0x1 PUSH1 0xA0 SHL SUB DUP3 AND PUSH1 0x0 SWAP1 DUP2 MSTORE PUSH1 0x20 DUP2 SWAP1 MSTORE PUSH1 0x40 DUP2 KECCAK256 DUP1 SLOAD DUP4 SWAP3 SWAP1 PUSH2 0x41B SWAP1 DUP5 SWAP1 PUSH2 0x63B JUMP JUMPDEST DUP1 CALLDATALOAD PUSH1 0x1 PUSH1 0x1 PUSH1 0xA0 SHL SUB DUP2 AND DUP2 EQ PUSH2 0x463 JUMPI PUSH1 0x0 DUP1 REVERT JUMPDEST SWAP2 SWAP1 POP JUMP JUMPDEST PUSH1 0x0 DUP1 PUSH1 0x0 PUSH1 0x60 DUP5 DUP7 SUB SLT ISZERO PUSH2 0x47D JUMPI PUSH1 0x0 DUP1 REVERT JUMPDEST PUSH2 0x486 DUP5 PUSH2 0x44C JUMP JUMPDEST SWAP3 POP PUSH2 0x494 PUSH1 0x20 DUP6 ADD PUSH2 0x44C JUMP JUMPDEST SWAP2 POP PUSH2 0x4A2 PUSH1 0x40 DUP6 ADD PUSH2 0x44C JUMP JUMPDEST SWAP1 POP SWAP3 POP SWAP3 POP SWAP3 JUMP JUMPDEST PUSH4 0x4E487B71 PUSH1 0xE0 SHL PUSH1 0x0 MSTORE PUSH1 0x41 PUSH1 0x4 MSTORE PUSH1 0x24 PUSH1 0x0 REVERT JUMPDEST PUSH1 0x0 DUP3 PUSH1 0x1F DUP4 ADD SLT PUSH2 0x4D2 JUMPI PUSH1 0x0 DUP1 REVERT JUMPDEST DUP2 CALLDATALOAD PUSH8 0xFFFFFFFFFFFFFFFF DUP2 GT ISZERO PUSH2 0x4EC JUMPI PUSH2 0x4EC PUSH2 0x4AB JUMP JUMPDEST DUP1 PUSH1 0x5 SHL PUSH1 0x40 MLOAD PUSH1 0x1F NOT PUSH1 0x3F DUP4 ADD AND DUP2 ADD DUP2 DUP2 LT PUSH8 0xFFFFFFFFFFFFFFFF DUP3 GT OR ISZERO PUSH2 0x519 JUMPI PUSH2 0x519 PUSH2 0x4AB JUMP JUMPDEST PUSH1 0x40 MSTORE SWAP2 DUP3 MSTORE PUSH1 0x20 DUP2 DUP6 ADD DUP2 ADD SWAP3 SWAP1 DUP2 ADD DUP7 DUP5 GT ISZERO PUSH2 0x537 JUMPI PUSH1 0x0 DUP1 REVERT JUMPDEST PUSH1 0x20 DUP7 ADD SWAP3 POP JUMPDEST DUP4 DUP4 LT ISZERO PUSH2 0x556 JUMPI DUP3 CALLDATALOAD DUP2 MSTORE PUSH1 0x20 SWAP3 DUP4 ADD SWAP3 ADD PUSH2 0x53E JUMP JUMPDEST POP SWAP6 SWAP5 POP POP POP POP POP JUMP JUMPDEST PUSH1 0x0 DUP1 PUSH1 0x0 DUP1 PUSH1 0x80 DUP6 DUP8 SUB SLT ISZERO PUSH2 0x576 JUMPI PUSH1 0x0 DUP1 REVERT JUMPDEST DUP5 CALLDATALOAD PUSH8 0xFFFFFFFFFFFFFFFF DUP2 GT ISZERO PUSH2 0x58D JUMPI PUSH1 0x0 DUP1 REVERT JUMPDEST PUSH2 0x599 DUP8 DUP3 DUP9 ADD PUSH2 0x4C1 JUMP JUMPDEST SWAP5 POP POP PUSH1 0x20 DUP6 ADD CALLDATALOAD PUSH8 0xFFFFFFFFFFFFFFFF DUP2 GT ISZERO PUSH2 0x5B6 JUMPI PUSH1 0x0 DUP1 REVERT JUMPDEST PUSH2 0x5C2 DUP8 DUP3 DUP9 ADD PUSH2 0x4C1 JUMP JUMPDEST SWAP5 SWAP8 SWAP5 SWAP7 POP POP POP POP PUSH1 0x40 DUP4 ADD CALLDATALOAD SWAP3 PUSH1 0x60 ADD CALLDATALOAD SWAP2 SWAP1 POP JUMP JUMPDEST PUSH1 0x0 DUP1 PUSH1 0x40 DUP4 DUP6 SUB SLT ISZERO PUSH2 0x5EC JUMPI PUSH1 0x0 DUP1 REVERT JUMPDEST PUSH2 0x5F5 DUP4 PUSH2 0x44C JUMP JUMPDEST SWAP5 PUSH1 0x20 SWAP4 SWAP1 SWAP4 ADD CALLDATALOAD SWAP4 POP POP POP JUMP JUMPDEST PUSH1 0x0 PUSH1 0x20 DUP3 DUP5 SUB SLT ISZERO PUSH2 0x615 JUMPI PUSH1 0x0 DUP1 REVERT JUMPDEST PUSH2 0x61E DUP3 PUSH2 0x44C JUMP JUMPDEST SWAP4 SWAP3 POP POP POP JUMP JUMPDEST PUSH4 0x4E487B71 PUSH1 0xE0 SHL PUSH1 0x0 MSTORE PUSH1 0x11 PUSH1 0x4 MSTORE PUSH1 0x24 PUSH1 0x0 REVERT JUMPDEST DUP1 DUP3 ADD DUP1 DUP3 GT ISZERO PUSH2 0x64E JUMPI PUSH2 0x64E PUSH2 0x625 JUMP JUMPDEST SWAP3 SWAP2 POP POP JUMP JUMPDEST DUP2 DUP2 SUB PUSH1 0x0 DUP4 SLT DUP1 ISZERO DUP4 DUP4 SGT AND DUP4 DUP4 SLT DUP3 AND OR ISZERO PUSH2 0x674 JUMPI PUSH2 0x674 PUSH2 0x625 JUMP JUMPDEST POP SWAP3 SWAP2 POP POP JUMP JUMPDEST PUSH1 0x0 DUP3 PUSH2 0x698 JUMPI PUSH4 0x4E487B71 PUSH1 0xE0 SHL PUSH1 0x0 MSTORE PUSH1 0x12 PUSH1 0x4 MSTORE PUSH1 0x24 PUSH1 0x0 REVERT JUMPDEST PUSH1 0x1 PUSH1 0xFF SHL DUP3 EQ PUSH1 0x0 NOT DUP5 EQ AND ISZERO PUSH2 0x6B2 JUMPI PUSH2 0x6B2 PUSH2 0x625 JUMP JUMPDEST POP SDIV SWAP1 JUMP JUMPDEST DUP1 DUP3 ADD DUP3 DUP2 SLT PUSH1 0x0 DUP4 SLT DUP1 ISZERO DUP3 AND DUP3 ISZERO DUP3 AND OR ISZERO PUSH2 0x6D7 JUMPI PUSH2 0x6D7 PUSH2 0x625 JUMP JUMPDEST POP POP SWAP3 SWAP2 POP POP JUMP JUMPDEST PUSH4 0x4E487B71 PUSH1 0xE0 SHL PUSH1 0x0 MSTORE PUSH1 0x32 PUSH1 0x4 MSTORE PUSH1 0x24 PUSH1 0x0 REVERT JUMPDEST PUSH1 0x0 PUSH1 0x1 PUSH1 0x1 PUSH1 0xFF SHL ADD DUP3 ADD PUSH2 0x70D JUMPI PUSH2 0x70D PUSH2 0x625 JUMP JUMPDEST POP PUSH1 0x1 ADD SWAP1 JUMP JUMPDEST PUSH1 0x0 PUSH1 0x1 PUSH1 0xFF SHL DUP3 ADD PUSH2 0x729 JUMPI PUSH2 0x729 PUSH2 0x625 JUMP JUMPDEST POP PUSH1 0x0 NOT ADD SWAP1 JUMP JUMPDEST DUP2 DUP2 SUB DUP2 DUP2 GT ISZERO PUSH2 0x64E JUMPI PUSH2 0x64E PUSH2 0x625 JUMP INVALID LOG2 PUSH5 0x6970667358 0x22 SLT KECCAK256 GT PUSH19 0x28241EC86E10A482B8D00D57D147548AEDCA1 0xDF 0xE3 0xB3 0xBD 0xB3 DUP16 SDIV DUP2 PUSH27 0xA10D64736F6C634300081A00330000000000000000000000000000 "
		},
		"gasEstimates": {
			"creation": {
				"codeDepositCost": "382800",
				"executionCost": "418",
				"totalCost": "383218"
			},
			"external": {
				"getPoints(address)": "1294",
				"quickSort(uint256[],uint256[],int256,int256)": "infinite",
				"reward(address,address,address)": "infinite",
				"rewardUser(address,uint256)": "21364",
				"useConsumerPoints(address,uint256)": "22258",
				"userPoints(address)": "1298"
			}
		},
		"methodIdentifiers": {
			"getPoints(address)": "ee204abb",
			"quickSort(uint256[],uint256[],int256,int256)": "b74d717d",
			"reward(address,address,address)": "8d105a66",
			"rewardUser(address,uint256)": "e4e103dc",
			"useConsumerPoints(address,uint256)": "c724caf7",
			"userPoints(address)": "f50ddbc7"
		}
	},
	"abi": [
		{
			"inputs": [
				{
					"internalType": "address",
					"name": "user",
					"type": "address"
				}
			],
			"name": "getPoints",
			"outputs": [
				{
					"internalType": "uint256",
					"name": "",
					"type": "uint256"
				}
			],
			"stateMutability": "view",
			"type": "function"
		},
		{
			"inputs": [
				{
					"internalType": "uint256[]",
					"name": "indices",
					"type": "uint256[]"
				},
				{
					"internalType": "uint256[]",
					"name": "values",
					"type": "uint256[]"
				},
				{
					"internalType": "int256",
					"name": "left",
					"type": "int256"
				},
				{
					"internalType": "int256",
					"name": "right",
					"type": "int256"
				}
			],
			"name": "quickSort",
			"outputs": [],
			"stateMutability": "pure",
			"type": "function"
		},
		{
			"inputs": [
				{
					"internalType": "address",
					"name": "producer",
					"type": "address"
				},
				{
					"internalType": "address",
					"name": "consumer",
					"type": "address"
				},
				{
					"internalType": "address",
					"name": "delegator",
					"type": "address"
				}
			],
			"name": "reward",
			"outputs": [],
			"stateMutability": "nonpayable",
			"type": "function"
		},
		{
			"inputs": [
				{
					"internalType": "address",
					"name": "user",
					"type": "address"
				},
				{
					"internalType": "uint256",
					"name": "points",
					"type": "uint256"
				}
			],
			"name": "rewardUser",
			"outputs": [],
			"stateMutability": "nonpayable",
			"type": "function"
		},
		{
			"inputs": [
				{
					"internalType": "address",
					"name": "user",
					"type": "address"
				},
				{
					"internalType": "uint256",
					"name": "points",
					"type": "uint256"
				}
			],
			"name": "useConsumerPoints",
			"outputs": [],
			"stateMutability": "nonpayable",
			"type": "function"
		},
		{
			"inputs": [
				{
					"internalType": "address",
					"name": "",
					"type": "address"
				}
			],
			"name": "userPoints",
			"outputs": [
				{
					"internalType": "uint256",
					"name": "",
					"type": "uint256"
				}
			],
			"stateMutability": "view",
			"type": "function"
		}
	]
}