{
	"data": {
		"bytecode": {
			"linkReferences": {
				"remix_tests.sol": {
					"Assert": [
						{
							"length": 20,
							"start": 353
						}
					]
				}
			},
			"object": "60808060405234601557610e11908161001a8239f35b5f80fdfe6080806040526004361015610012575f80fd5b5f905f3560e01c9081633439c57b146104d5575080637fea0d4b146103ad5763ed2bee101461003f575f80fd5b3461036f575f36600319011261036f576040516040810181811067ffffffffffffffff821117610399575f918291604052601c8152602081017f52756e6e696e6720636865636b57696e6e696e6750726f706f73616c0000000081526100e760646040518093602082019563104c13eb60e21b8752602060248401525180918160448501528484015e86838284010152601f801991011681010301601f198101835282610553565b51906a636f6e736f6c652e6c6f675afa506001546001600160a01b0316803b1561036f575f8091602460405180948193630121b93f60e01b83528160048401525af1801561038e5761037b575b5060015460405163609ff1bd60e01b815273__$acbfb1c35000d78352310b16a054a6b106$__91602090829060049082906001600160a01b03165afa90811561031d578391610345575b506040519063055e6bcb60e51b8252600482015282602482015260606044820152603260648201527f70726f706f73616c20617420696e64657820302073686f756c6420626520746860848201527119481dda5b9b9a5b99c81c1c9bdc1bdcd85b60721b60a482015260208160c481855af4801561031d57610328575b50600154604051630e2ba53f60e41b815290602090829060049082906001600160a01b03165afa801561031d5783906102e6575b6020915060c46040518094819363ea79dd7960e01b835260048301526963616e6469646174653160b01b602483015260606044830152602460648301527f63616e646964617465312073686f756c64206265207468652077696e6e6572206084830152636e616d6560e01b60a48301525af480156102db576102af575080f35b6102d09060203d6020116102d4575b6102c88183610553565b810190610575565b5080f35b503d6102be565b6040513d84823e3d90fd5b506020813d602011610315575b8161030060209383610553565b81010312610311576020905161022f565b8280fd5b3d91506102f3565b6040513d85823e3d90fd5b6103409060203d6020116102d4576102c88183610553565b6101fb565b90506020813d602011610373575b8161036060209383610553565b8101031261036f57515f61017e565b5f80fd5b3d9150610353565b61038791505f90610553565b5f80610134565b6040513d5f823e3d90fd5b634e487b7160e01b5f52604160045260245ffd5b3461036f575f36600319011261036f575f54680100000000000000008110156103995760018101805f558110156104c1575f80526963616e6469646174653160b01b7f290decd9548b62a8d60345a988386fc84ba6bc95484008f6362f93160ef3e5639091015560405161084e8082019067ffffffffffffffff8211838310176103995790829161058e833960406020820191602081525f5480935201905f80527f290decd9548b62a8d60345a988386fc84ba6bc95484008f6362f93160ef3e563905f5b8181106104a85750505003905ff0801561038e57600180546001600160a01b0319166001600160a01b0392909216919091179055005b8254845285945060209093019260019283019201610472565b634e487b7160e01b5f52603260045260245ffd5b3461036f575f36600319011261036f5760015463609ff1bd60e01b8252602090829060049082906001600160a01b03165afa801561038e575f90610520575b60209060405190158152f35b506020813d60201161054b575b8161053a60209383610553565b8101031261036f5760209051610514565b3d915061052d565b90601f8019910116810190811067ffffffffffffffff82111761039957604052565b9081602091031261036f5751801515810361036f579056fe6080604052346101705761084e8038038061001981610174565b928339810190602081830312610170578051906001600160401b03821161017057019080601f83011215610170578151916001600160401b03831161013d578260051b9060208061006b818501610174565b80968152019282010192831161017057602001905b828210610160575f80546001600160a01b031916339081178255815260016020819052604082205584905b815181101561015157600581901b8201602001516040805192919083016001600160401b0381118482101761013d57604052825260208201915f83526002546801000000000000000081101561013d57600181018060025581101561012957600193849160025f5260205f2090831b019251835551910155016100ab565b634e487b7160e01b5f52603260045260245ffd5b634e487b7160e01b5f52604160045260245ffd5b6040516106b4908161019a8239f35b8151815260209182019101610080565b5f80fd5b6040519190601f01601f191682016001600160401b0381118382101761013d5760405256fe6080806040526004361015610012575f80fd5b5f3560e01c9081630121b93f1461051d57508063013cf08b146104e05780632e4176cf146104b95780635c19a95c1461028d578063609ff1bd1461026b5780639e7b8d611461010e578063a3ec138d146100a45763e2ba53f014610074575f80fd5b346100a0575f3660031901126100a0576020610096610091610635565b6105e4565b5054604051908152f35b5f80fd5b346100a05760203660031901126100a0576004356001600160a01b038116908190036100a0575f526001602052608060405f20805490600260018201549101549060405192835260ff81161515602084015260018060a01b039060081c1660408301526060820152f35b346100a05760203660031901126100a0576004356001600160a01b038116908190036100a0575f546001600160a01b0316330361021557805f52600160205260ff600160405f200154166101d057805f52600160205260405f205461017f575f526001602052600160405f20555f80f35b60405162461bcd60e51b8152602060048201526024808201527f566f74657220616c7265616479206861732074686520726967687420746f207660448201526337ba329760e11b6064820152608490fd5b60405162461bcd60e51b815260206004820152601860248201527f54686520766f74657220616c726561647920766f7465642e00000000000000006044820152606490fd5b60405162461bcd60e51b815260206004820152602860248201527f4f6e6c79206368616972706572736f6e2063616e2067697665207269676874206044820152673a37903b37ba329760c11b6064820152608490fd5b346100a0575f3660031901126100a0576020610285610635565b604051908152f35b346100a05760203660031901126100a0576004356001600160a01b038116908181036100a05790335f52600160205260405f2080548015610474576001820180549360ff851661043a5733146103f557935b60018060a01b03811690815f52600160205260018060a01b03600160405f20015460081c161561037757505f52600160205260018060a01b03600160405f20015460081c169333851461033257936102df565b60405162461bcd60e51b815260206004820152601960248201527f466f756e64206c6f6f7020696e2064656c65676174696f6e2e000000000000006044820152606490fd5b85915060018060a01b0381165f52600160205260405f209460018654106100a0576001600160a81b03191660089190911b610100600160a81b031617600190811790915583015460ff16156103e9575060016103db60026103e593549401546105e4565b5001918254610614565b9055005b6103e591508254610614565b60405162461bcd60e51b815260206004820152601e60248201527f53656c662d64656c65676174696f6e20697320646973616c6c6f7765642e00006044820152606490fd5b60405162461bcd60e51b81526020600482015260126024820152712cb7ba9030b63932b0b23c903b37ba32b21760711b6044820152606490fd5b60405162461bcd60e51b815260206004820152601960248201527f596f752068617665206e6f20726967687420746f20766f7465000000000000006044820152606490fd5b346100a0575f3660031901126100a0575f546040516001600160a01b039091168152602090f35b346100a05760203660031901126100a0576004356002548110156100a0576105096040916105e4565b506001815491015482519182526020820152f35b346100a05760203660031901126100a057600435335f52600160205260405f209081549283156105ab5750600182019182549160ff8316610575578060026103db936103e5966001809760ff191617905501556105e4565b60405162461bcd60e51b815260206004820152600e60248201526d20b63932b0b23c903b37ba32b21760911b6044820152606490fd5b62461bcd60e51b8152602060048201526014602482015273486173206e6f20726967687420746f20766f746560601b6044820152606490fd5b6002548110156106005760025f5260205f209060011b01905f90565b634e487b7160e01b5f52603260045260245ffd5b9190820180921161062157565b634e487b7160e01b5f52601160045260245ffd5b5f905f80600254915b82811061064a57505050565b816001610656836105e4565b50015411610667575b60010161063e565b9350506001610675846105e4565b5001548361065f56fea264697066735822122025ecea4117151f5edf5985bc82f30bc30754dcfc3cef5389e0959cd3cc730b5a64736f6c634300081a0033a2646970667358221220d90e527d1f980c73613a77368739874eff52bdd3f89b7c1a5f79988a97bd460064736f6c634300081a0033",
			"opcodes": "PUSH1 0x80 DUP1 PUSH1 0x40 MSTORE CALLVALUE PUSH1 0x15 JUMPI PUSH2 0xE11 SWAP1 DUP2 PUSH2 0x1A DUP3 CODECOPY RETURN JUMPDEST PUSH0 DUP1 REVERT INVALID PUSH1 0x80 DUP1 PUSH1 0x40 MSTORE PUSH1 0x4 CALLDATASIZE LT ISZERO PUSH2 0x12 JUMPI PUSH0 DUP1 REVERT JUMPDEST PUSH0 SWAP1 PUSH0 CALLDATALOAD PUSH1 0xE0 SHR SWAP1 DUP2 PUSH4 0x3439C57B EQ PUSH2 0x4D5 JUMPI POP DUP1 PUSH4 0x7FEA0D4B EQ PUSH2 0x3AD JUMPI PUSH4 0xED2BEE10 EQ PUSH2 0x3F JUMPI PUSH0 DUP1 REVERT JUMPDEST CALLVALUE PUSH2 0x36F JUMPI PUSH0 CALLDATASIZE PUSH1 0x3 NOT ADD SLT PUSH2 0x36F JUMPI PUSH1 0x40 MLOAD PUSH1 0x40 DUP2 ADD DUP2 DUP2 LT PUSH8 0xFFFFFFFFFFFFFFFF DUP3 GT OR PUSH2 0x399 JUMPI PUSH0 SWAP2 DUP3 SWAP2 PUSH1 0x40 MSTORE PUSH1 0x1C DUP2 MSTORE PUSH1 0x20 DUP2 ADD PUSH32 0x52756E6E696E6720636865636B57696E6E696E6750726F706F73616C00000000 DUP2 MSTORE PUSH2 0xE7 PUSH1 0x64 PUSH1 0x40 MLOAD DUP1 SWAP4 PUSH1 0x20 DUP3 ADD SWAP6 PUSH4 0x104C13EB PUSH1 0xE2 SHL DUP8 MSTORE PUSH1 0x20 PUSH1 0x24 DUP5 ADD MSTORE MLOAD DUP1 SWAP2 DUP2 PUSH1 0x44 DUP6 ADD MSTORE DUP5 DUP5 ADD MCOPY DUP7 DUP4 DUP3 DUP5 ADD ADD MSTORE PUSH1 0x1F DUP1 NOT SWAP2 ADD AND DUP2 ADD SUB ADD PUSH1 0x1F NOT DUP2 ADD DUP4 MSTORE DUP3 PUSH2 0x553 JUMP JUMPDEST MLOAD SWAP1 PUSH11 0x636F6E736F6C652E6C6F67 GAS STATICCALL POP PUSH1 0x1 SLOAD PUSH1 0x1 PUSH1 0x1 PUSH1 0xA0 SHL SUB AND DUP1 EXTCODESIZE ISZERO PUSH2 0x36F JUMPI PUSH0 DUP1 SWAP2 PUSH1 0x24 PUSH1 0x40 MLOAD DUP1 SWAP5 DUP2 SWAP4 PUSH4 0x121B93F PUSH1 0xE0 SHL DUP4 MSTORE DUP2 PUSH1 0x4 DUP5 ADD MSTORE GAS CALL DUP1 ISZERO PUSH2 0x38E JUMPI PUSH2 0x37B JUMPI JUMPDEST POP PUSH1 0x1 SLOAD PUSH1 0x40 MLOAD PUSH4 0x609FF1BD PUSH1 0xE0 SHL DUP2 MSTORE PUSH20 0x0 SWAP2 PUSH1 0x20 SWAP1 DUP3 SWAP1 PUSH1 0x4 SWAP1 DUP3 SWAP1 PUSH1 0x1 PUSH1 0x1 PUSH1 0xA0 SHL SUB AND GAS STATICCALL SWAP1 DUP2 ISZERO PUSH2 0x31D JUMPI DUP4 SWAP2 PUSH2 0x345 JUMPI JUMPDEST POP PUSH1 0x40 MLOAD SWAP1 PUSH4 0x55E6BCB PUSH1 0xE5 SHL DUP3 MSTORE PUSH1 0x4 DUP3 ADD MSTORE DUP3 PUSH1 0x24 DUP3 ADD MSTORE PUSH1 0x60 PUSH1 0x44 DUP3 ADD MSTORE PUSH1 0x32 PUSH1 0x64 DUP3 ADD MSTORE PUSH32 0x70726F706F73616C20617420696E64657820302073686F756C64206265207468 PUSH1 0x84 DUP3 ADD MSTORE PUSH18 0x19481DDA5B9B9A5B99C81C1C9BDC1BDCD85B PUSH1 0x72 SHL PUSH1 0xA4 DUP3 ADD MSTORE PUSH1 0x20 DUP2 PUSH1 0xC4 DUP2 DUP6 GAS DELEGATECALL DUP1 ISZERO PUSH2 0x31D JUMPI PUSH2 0x328 JUMPI JUMPDEST POP PUSH1 0x1 SLOAD PUSH1 0x40 MLOAD PUSH4 0xE2BA53F PUSH1 0xE4 SHL DUP2 MSTORE SWAP1 PUSH1 0x20 SWAP1 DUP3 SWAP1 PUSH1 0x4 SWAP1 DUP3 SWAP1 PUSH1 0x1 PUSH1 0x1 PUSH1 0xA0 SHL SUB AND GAS STATICCALL DUP1 ISZERO PUSH2 0x31D JUMPI DUP4 SWAP1 PUSH2 0x2E6 JUMPI JUMPDEST PUSH1 0x20 SWAP2 POP PUSH1 0xC4 PUSH1 0x40 MLOAD DUP1 SWAP5 DUP2 SWAP4 PUSH4 0xEA79DD79 PUSH1 0xE0 SHL DUP4 MSTORE PUSH1 0x4 DUP4 ADD MSTORE PUSH10 0x63616E64696461746531 PUSH1 0xB0 SHL PUSH1 0x24 DUP4 ADD MSTORE PUSH1 0x60 PUSH1 0x44 DUP4 ADD MSTORE PUSH1 0x24 PUSH1 0x64 DUP4 ADD MSTORE PUSH32 0x63616E646964617465312073686F756C64206265207468652077696E6E657220 PUSH1 0x84 DUP4 ADD MSTORE PUSH4 0x6E616D65 PUSH1 0xE0 SHL PUSH1 0xA4 DUP4 ADD MSTORE GAS DELEGATECALL DUP1 ISZERO PUSH2 0x2DB JUMPI PUSH2 0x2AF JUMPI POP DUP1 RETURN JUMPDEST PUSH2 0x2D0 SWAP1 PUSH1 0x20 RETURNDATASIZE PUSH1 0x20 GT PUSH2 0x2D4 JUMPI JUMPDEST PUSH2 0x2C8 DUP2 DUP4 PUSH2 0x553 JUMP JUMPDEST DUP2 ADD SWAP1 PUSH2 0x575 JUMP JUMPDEST POP DUP1 RETURN JUMPDEST POP RETURNDATASIZE PUSH2 0x2BE JUMP JUMPDEST PUSH1 0x40 MLOAD RETURNDATASIZE DUP5 DUP3 RETURNDATACOPY RETURNDATASIZE SWAP1 REVERT JUMPDEST POP PUSH1 0x20 DUP2 RETURNDATASIZE PUSH1 0x20 GT PUSH2 0x315 JUMPI JUMPDEST DUP2 PUSH2 0x300 PUSH1 0x20 SWAP4 DUP4 PUSH2 0x553 JUMP JUMPDEST DUP2 ADD SUB SLT PUSH2 0x311 JUMPI PUSH1 0x20 SWAP1 MLOAD PUSH2 0x22F JUMP JUMPDEST DUP3 DUP1 REVERT JUMPDEST RETURNDATASIZE SWAP2 POP PUSH2 0x2F3 JUMP JUMPDEST PUSH1 0x40 MLOAD RETURNDATASIZE DUP6 DUP3 RETURNDATACOPY RETURNDATASIZE SWAP1 REVERT JUMPDEST PUSH2 0x340 SWAP1 PUSH1 0x20 RETURNDATASIZE PUSH1 0x20 GT PUSH2 0x2D4 JUMPI PUSH2 0x2C8 DUP2 DUP4 PUSH2 0x553 JUMP JUMPDEST PUSH2 0x1FB JUMP JUMPDEST SWAP1 POP PUSH1 0x20 DUP2 RETURNDATASIZE PUSH1 0x20 GT PUSH2 0x373 JUMPI JUMPDEST DUP2 PUSH2 0x360 PUSH1 0x20 SWAP4 DUP4 PUSH2 0x553 JUMP JUMPDEST DUP2 ADD SUB SLT PUSH2 0x36F JUMPI MLOAD PUSH0 PUSH2 0x17E JUMP JUMPDEST PUSH0 DUP1 REVERT JUMPDEST RETURNDATASIZE SWAP2 POP PUSH2 0x353 JUMP JUMPDEST PUSH2 0x387 SWAP2 POP PUSH0 SWAP1 PUSH2 0x553 JUMP JUMPDEST PUSH0 DUP1 PUSH2 0x134 JUMP JUMPDEST PUSH1 0x40 MLOAD RETURNDATASIZE PUSH0 DUP3 RETURNDATACOPY RETURNDATASIZE SWAP1 REVERT JUMPDEST PUSH4 0x4E487B71 PUSH1 0xE0 SHL PUSH0 MSTORE PUSH1 0x41 PUSH1 0x4 MSTORE PUSH1 0x24 PUSH0 REVERT JUMPDEST CALLVALUE PUSH2 0x36F JUMPI PUSH0 CALLDATASIZE PUSH1 0x3 NOT ADD SLT PUSH2 0x36F JUMPI PUSH0 SLOAD PUSH9 0x10000000000000000 DUP2 LT ISZERO PUSH2 0x399 JUMPI PUSH1 0x1 DUP2 ADD DUP1 PUSH0 SSTORE DUP2 LT ISZERO PUSH2 0x4C1 JUMPI PUSH0 DUP1 MSTORE PUSH10 0x63616E64696461746531 PUSH1 0xB0 SHL PUSH32 0x290DECD9548B62A8D60345A988386FC84BA6BC95484008F6362F93160EF3E563 SWAP1 SWAP2 ADD SSTORE PUSH1 0x40 MLOAD PUSH2 0x84E DUP1 DUP3 ADD SWAP1 PUSH8 0xFFFFFFFFFFFFFFFF DUP3 GT DUP4 DUP4 LT OR PUSH2 0x399 JUMPI SWAP1 DUP3 SWAP2 PUSH2 0x58E DUP4 CODECOPY PUSH1 0x40 PUSH1 0x20 DUP3 ADD SWAP2 PUSH1 0x20 DUP2 MSTORE PUSH0 SLOAD DUP1 SWAP4 MSTORE ADD SWAP1 PUSH0 DUP1 MSTORE PUSH32 0x290DECD9548B62A8D60345A988386FC84BA6BC95484008F6362F93160EF3E563 SWAP1 PUSH0 JUMPDEST DUP2 DUP2 LT PUSH2 0x4A8 JUMPI POP POP POP SUB SWAP1 PUSH0 CREATE DUP1 ISZERO PUSH2 0x38E JUMPI PUSH1 0x1 DUP1 SLOAD PUSH1 0x1 PUSH1 0x1 PUSH1 0xA0 SHL SUB NOT AND PUSH1 0x1 PUSH1 0x1 PUSH1 0xA0 SHL SUB SWAP3 SWAP1 SWAP3 AND SWAP2 SWAP1 SWAP2 OR SWAP1 SSTORE STOP JUMPDEST DUP3 SLOAD DUP5 MSTORE DUP6 SWAP5 POP PUSH1 0x20 SWAP1 SWAP4 ADD SWAP3 PUSH1 0x1 SWAP3 DUP4 ADD SWAP3 ADD PUSH2 0x472 JUMP JUMPDEST PUSH4 0x4E487B71 PUSH1 0xE0 SHL PUSH0 MSTORE PUSH1 0x32 PUSH1 0x4 MSTORE PUSH1 0x24 PUSH0 REVERT JUMPDEST CALLVALUE PUSH2 0x36F JUMPI PUSH0 CALLDATASIZE PUSH1 0x3 NOT ADD SLT PUSH2 0x36F JUMPI PUSH1 0x1 SLOAD PUSH4 0x609FF1BD PUSH1 0xE0 SHL DUP3 MSTORE PUSH1 0x20 SWAP1 DUP3 SWAP1 PUSH1 0x4 SWAP1 DUP3 SWAP1 PUSH1 0x1 PUSH1 0x1 PUSH1 0xA0 SHL SUB AND GAS STATICCALL DUP1 ISZERO PUSH2 0x38E JUMPI PUSH0 SWAP1 PUSH2 0x520 JUMPI JUMPDEST PUSH1 0x20 SWAP1 PUSH1 0x40 MLOAD SWAP1 ISZERO DUP2 MSTORE RETURN JUMPDEST POP PUSH1 0x20 DUP2 RETURNDATASIZE PUSH1 0x20 GT PUSH2 0x54B JUMPI JUMPDEST DUP2 PUSH2 0x53A PUSH1 0x20 SWAP4 DUP4 PUSH2 0x553 JUMP JUMPDEST DUP2 ADD SUB SLT PUSH2 0x36F JUMPI PUSH1 0x20 SWAP1 MLOAD PUSH2 0x514 JUMP JUMPDEST RETURNDATASIZE SWAP2 POP PUSH2 0x52D JUMP JUMPDEST SWAP1 PUSH1 0x1F DUP1 NOT SWAP2 ADD AND DUP2 ADD SWAP1 DUP2 LT PUSH8 0xFFFFFFFFFFFFFFFF DUP3 GT OR PUSH2 0x399 JUMPI PUSH1 0x40 MSTORE JUMP JUMPDEST SWAP1 DUP2 PUSH1 0x20 SWAP2 SUB SLT PUSH2 0x36F JUMPI MLOAD DUP1 ISZERO ISZERO DUP2 SUB PUSH2 0x36F JUMPI SWAP1 JUMP INVALID PUSH1 0x80 PUSH1 0x40 MSTORE CALLVALUE PUSH2 0x170 JUMPI PUSH2 0x84E DUP1 CODESIZE SUB DUP1 PUSH2 0x19 DUP2 PUSH2 0x174 JUMP JUMPDEST SWAP3 DUP4 CODECOPY DUP2 ADD SWAP1 PUSH1 0x20 DUP2 DUP4 SUB SLT PUSH2 0x170 JUMPI DUP1 MLOAD SWAP1 PUSH1 0x1 PUSH1 0x1 PUSH1 0x40 SHL SUB DUP3 GT PUSH2 0x170 JUMPI ADD SWAP1 DUP1 PUSH1 0x1F DUP4 ADD SLT ISZERO PUSH2 0x170 JUMPI DUP2 MLOAD SWAP2 PUSH1 0x1 PUSH1 0x1 PUSH1 0x40 SHL SUB DUP4 GT PUSH2 0x13D JUMPI DUP3 PUSH1 0x5 SHL SWAP1 PUSH1 0x20 DUP1 PUSH2 0x6B DUP2 DUP6 ADD PUSH2 0x174 JUMP JUMPDEST DUP1 SWAP7 DUP2 MSTORE ADD SWAP3 DUP3 ADD ADD SWAP3 DUP4 GT PUSH2 0x170 JUMPI PUSH1 0x20 ADD SWAP1 JUMPDEST DUP3 DUP3 LT PUSH2 0x160 JUMPI PUSH0 DUP1 SLOAD PUSH1 0x1 PUSH1 0x1 PUSH1 0xA0 SHL SUB NOT AND CALLER SWAP1 DUP2 OR DUP3 SSTORE DUP2 MSTORE PUSH1 0x1 PUSH1 0x20 DUP2 SWAP1 MSTORE PUSH1 0x40 DUP3 KECCAK256 SSTORE DUP5 SWAP1 JUMPDEST DUP2 MLOAD DUP2 LT ISZERO PUSH2 0x151 JUMPI PUSH1 0x5 DUP2 SWAP1 SHL DUP3 ADD PUSH1 0x20 ADD MLOAD PUSH1 0x40 DUP1 MLOAD SWAP3 SWAP2 SWAP1 DUP4 ADD PUSH1 0x1 PUSH1 0x1 PUSH1 0x40 SHL SUB DUP2 GT DUP5 DUP3 LT OR PUSH2 0x13D JUMPI PUSH1 0x40 MSTORE DUP3 MSTORE PUSH1 0x20 DUP3 ADD SWAP2 PUSH0 DUP4 MSTORE PUSH1 0x2 SLOAD PUSH9 0x10000000000000000 DUP2 LT ISZERO PUSH2 0x13D JUMPI PUSH1 0x1 DUP2 ADD DUP1 PUSH1 0x2 SSTORE DUP2 LT ISZERO PUSH2 0x129 JUMPI PUSH1 0x1 SWAP4 DUP5 SWAP2 PUSH1 0x2 PUSH0 MSTORE PUSH1 0x20 PUSH0 KECCAK256 SWAP1 DUP4 SHL ADD SWAP3 MLOAD DUP4 SSTORE MLOAD SWAP2 ADD SSTORE ADD PUSH2 0xAB JUMP JUMPDEST PUSH4 0x4E487B71 PUSH1 0xE0 SHL PUSH0 MSTORE PUSH1 0x32 PUSH1 0x4 MSTORE PUSH1 0x24 PUSH0 REVERT JUMPDEST PUSH4 0x4E487B71 PUSH1 0xE0 SHL PUSH0 MSTORE PUSH1 0x41 PUSH1 0x4 MSTORE PUSH1 0x24 PUSH0 REVERT JUMPDEST PUSH1 0x40 MLOAD PUSH2 0x6B4 SWAP1 DUP2 PUSH2 0x19A DUP3 CODECOPY RETURN JUMPDEST DUP2 MLOAD DUP2 MSTORE PUSH1 0x20 SWAP2 DUP3 ADD SWAP2 ADD PUSH2 0x80 JUMP JUMPDEST PUSH0 DUP1 REVERT JUMPDEST PUSH1 0x40 MLOAD SWAP2 SWAP1 PUSH1 0x1F ADD PUSH1 0x1F NOT AND DUP3 ADD PUSH1 0x1 PUSH1 0x1 PUSH1 0x40 SHL SUB DUP2 GT DUP4 DUP3 LT OR PUSH2 0x13D JUMPI PUSH1 0x40 MSTORE JUMP INVALID PUSH1 0x80 DUP1 PUSH1 0x40 MSTORE PUSH1 0x4 CALLDATASIZE LT ISZERO PUSH2 0x12 JUMPI PUSH0 DUP1 REVERT JUMPDEST PUSH0 CALLDATALOAD PUSH1 0xE0 SHR SWAP1 DUP2 PUSH4 0x121B93F EQ PUSH2 0x51D JUMPI POP DUP1 PUSH4 0x13CF08B EQ PUSH2 0x4E0 JUMPI DUP1 PUSH4 0x2E4176CF EQ PUSH2 0x4B9 JUMPI DUP1 PUSH4 0x5C19A95C EQ PUSH2 0x28D JUMPI DUP1 PUSH4 0x609FF1BD EQ PUSH2 0x26B JUMPI DUP1 PUSH4 0x9E7B8D61 EQ PUSH2 0x10E JUMPI DUP1 PUSH4 0xA3EC138D EQ PUSH2 0xA4 JUMPI PUSH4 0xE2BA53F0 EQ PUSH2 0x74 JUMPI PUSH0 DUP1 REVERT JUMPDEST CALLVALUE PUSH2 0xA0 JUMPI PUSH0 CALLDATASIZE PUSH1 0x3 NOT ADD SLT PUSH2 0xA0 JUMPI PUSH1 0x20 PUSH2 0x96 PUSH2 0x91 PUSH2 0x635 JUMP JUMPDEST PUSH2 0x5E4 JUMP JUMPDEST POP SLOAD PUSH1 0x40 MLOAD SWAP1 DUP2 MSTORE RETURN JUMPDEST PUSH0 DUP1 REVERT JUMPDEST CALLVALUE PUSH2 0xA0 JUMPI PUSH1 0x20 CALLDATASIZE PUSH1 0x3 NOT ADD SLT PUSH2 0xA0 JUMPI PUSH1 0x4 CALLDATALOAD PUSH1 0x1 PUSH1 0x1 PUSH1 0xA0 SHL SUB DUP2 AND SWAP1 DUP2 SWAP1 SUB PUSH2 0xA0 JUMPI PUSH0 MSTORE PUSH1 0x1 PUSH1 0x20 MSTORE PUSH1 0x80 PUSH1 0x40 PUSH0 KECCAK256 DUP1 SLOAD SWAP1 PUSH1 0x2 PUSH1 0x1 DUP3 ADD SLOAD SWAP2 ADD SLOAD SWAP1 PUSH1 0x40 MLOAD SWAP3 DUP4 MSTORE PUSH1 0xFF DUP2 AND ISZERO ISZERO PUSH1 0x20 DUP5 ADD MSTORE PUSH1 0x1 DUP1 PUSH1 0xA0 SHL SUB SWAP1 PUSH1 0x8 SHR AND PUSH1 0x40 DUP4 ADD MSTORE PUSH1 0x60 DUP3 ADD MSTORE RETURN JUMPDEST CALLVALUE PUSH2 0xA0 JUMPI PUSH1 0x20 CALLDATASIZE PUSH1 0x3 NOT ADD SLT PUSH2 0xA0 JUMPI PUSH1 0x4 CALLDATALOAD PUSH1 0x1 PUSH1 0x1 PUSH1 0xA0 SHL SUB DUP2 AND SWAP1 DUP2 SWAP1 SUB PUSH2 0xA0 JUMPI PUSH0 SLOAD PUSH1 0x1 PUSH1 0x1 PUSH1 0xA0 SHL SUB AND CALLER SUB PUSH2 0x215 JUMPI DUP1 PUSH0 MSTORE PUSH1 0x1 PUSH1 0x20 MSTORE PUSH1 0xFF PUSH1 0x1 PUSH1 0x40 PUSH0 KECCAK256 ADD SLOAD AND PUSH2 0x1D0 JUMPI DUP1 PUSH0 MSTORE PUSH1 0x1 PUSH1 0x20 MSTORE PUSH1 0x40 PUSH0 KECCAK256 SLOAD PUSH2 0x17F JUMPI PUSH0 MSTORE PUSH1 0x1 PUSH1 0x20 MSTORE PUSH1 0x1 PUSH1 0x40 PUSH0 KECCAK256 SSTORE PUSH0 DUP1 RETURN JUMPDEST PUSH1 0x40 MLOAD PUSH3 0x461BCD PUSH1 0xE5 SHL DUP2 MSTORE PUSH1 0x20 PUSH1 0x4 DUP3 ADD MSTORE PUSH1 0x24 DUP1 DUP3 ADD MSTORE PUSH32 0x566F74657220616C7265616479206861732074686520726967687420746F2076 PUSH1 0x44 DUP3 ADD MSTORE PUSH4 0x37BA3297 PUSH1 0xE1 SHL PUSH1 0x64 DUP3 ADD MSTORE PUSH1 0x84 SWAP1 REVERT JUMPDEST PUSH1 0x40 MLOAD PUSH3 0x461BCD PUSH1 0xE5 SHL DUP2 MSTORE PUSH1 0x20 PUSH1 0x4 DUP3 ADD MSTORE PUSH1 0x18 PUSH1 0x24 DUP3 ADD MSTORE PUSH32 0x54686520766F74657220616C726561647920766F7465642E0000000000000000 PUSH1 0x44 DUP3 ADD MSTORE PUSH1 0x64 SWAP1 REVERT JUMPDEST PUSH1 0x40 MLOAD PUSH3 0x461BCD PUSH1 0xE5 SHL DUP2 MSTORE PUSH1 0x20 PUSH1 0x4 DUP3 ADD MSTORE PUSH1 0x28 PUSH1 0x24 DUP3 ADD MSTORE PUSH32 0x4F6E6C79206368616972706572736F6E2063616E206769766520726967687420 PUSH1 0x44 DUP3 ADD MSTORE PUSH8 0x3A37903B37BA3297 PUSH1 0xC1 SHL PUSH1 0x64 DUP3 ADD MSTORE PUSH1 0x84 SWAP1 REVERT JUMPDEST CALLVALUE PUSH2 0xA0 JUMPI PUSH0 CALLDATASIZE PUSH1 0x3 NOT ADD SLT PUSH2 0xA0 JUMPI PUSH1 0x20 PUSH2 0x285 PUSH2 0x635 JUMP JUMPDEST PUSH1 0x40 MLOAD SWAP1 DUP2 MSTORE RETURN JUMPDEST CALLVALUE PUSH2 0xA0 JUMPI PUSH1 0x20 CALLDATASIZE PUSH1 0x3 NOT ADD SLT PUSH2 0xA0 JUMPI PUSH1 0x4 CALLDATALOAD PUSH1 0x1 PUSH1 0x1 PUSH1 0xA0 SHL SUB DUP2 AND SWAP1 DUP2 DUP2 SUB PUSH2 0xA0 JUMPI SWAP1 CALLER PUSH0 MSTORE PUSH1 0x1 PUSH1 0x20 MSTORE PUSH1 0x40 PUSH0 KECCAK256 DUP1 SLOAD DUP1 ISZERO PUSH2 0x474 JUMPI PUSH1 0x1 DUP3 ADD DUP1 SLOAD SWAP4 PUSH1 0xFF DUP6 AND PUSH2 0x43A JUMPI CALLER EQ PUSH2 0x3F5 JUMPI SWAP4 JUMPDEST PUSH1 0x1 DUP1 PUSH1 0xA0 SHL SUB DUP2 AND SWAP1 DUP2 PUSH0 MSTORE PUSH1 0x1 PUSH1 0x20 MSTORE PUSH1 0x1 DUP1 PUSH1 0xA0 SHL SUB PUSH1 0x1 PUSH1 0x40 PUSH0 KECCAK256 ADD SLOAD PUSH1 0x8 SHR AND ISZERO PUSH2 0x377 JUMPI POP PUSH0 MSTORE PUSH1 0x1 PUSH1 0x20 MSTORE PUSH1 0x1 DUP1 PUSH1 0xA0 SHL SUB PUSH1 0x1 PUSH1 0x40 PUSH0 KECCAK256 ADD SLOAD PUSH1 0x8 SHR AND SWAP4 CALLER DUP6 EQ PUSH2 0x332 JUMPI SWAP4 PUSH2 0x2DF JUMP JUMPDEST PUSH1 0x40 MLOAD PUSH3 0x461BCD PUSH1 0xE5 SHL DUP2 MSTORE PUSH1 0x20 PUSH1 0x4 DUP3 ADD MSTORE PUSH1 0x19 PUSH1 0x24 DUP3 ADD MSTORE PUSH32 0x466F756E64206C6F6F7020696E2064656C65676174696F6E2E00000000000000 PUSH1 0x44 DUP3 ADD MSTORE PUSH1 0x64 SWAP1 REVERT JUMPDEST DUP6 SWAP2 POP PUSH1 0x1 DUP1 PUSH1 0xA0 SHL SUB DUP2 AND PUSH0 MSTORE PUSH1 0x1 PUSH1 0x20 MSTORE PUSH1 0x40 PUSH0 KECCAK256 SWAP5 PUSH1 0x1 DUP7 SLOAD LT PUSH2 0xA0 JUMPI PUSH1 0x1 PUSH1 0x1 PUSH1 0xA8 SHL SUB NOT AND PUSH1 0x8 SWAP2 SWAP1 SWAP2 SHL PUSH2 0x100 PUSH1 0x1 PUSH1 0xA8 SHL SUB AND OR PUSH1 0x1 SWAP1 DUP2 OR SWAP1 SWAP2 SSTORE DUP4 ADD SLOAD PUSH1 0xFF AND ISZERO PUSH2 0x3E9 JUMPI POP PUSH1 0x1 PUSH2 0x3DB PUSH1 0x2 PUSH2 0x3E5 SWAP4 SLOAD SWAP5 ADD SLOAD PUSH2 0x5E4 JUMP JUMPDEST POP ADD SWAP2 DUP3 SLOAD PUSH2 0x614 JUMP JUMPDEST SWAP1 SSTORE STOP JUMPDEST PUSH2 0x3E5 SWAP2 POP DUP3 SLOAD PUSH2 0x614 JUMP JUMPDEST PUSH1 0x40 MLOAD PUSH3 0x461BCD PUSH1 0xE5 SHL DUP2 MSTORE PUSH1 0x20 PUSH1 0x4 DUP3 ADD MSTORE PUSH1 0x1E PUSH1 0x24 DUP3 ADD MSTORE PUSH32 0x53656C662D64656C65676174696F6E20697320646973616C6C6F7765642E0000 PUSH1 0x44 DUP3 ADD MSTORE PUSH1 0x64 SWAP1 REVERT JUMPDEST PUSH1 0x40 MLOAD PUSH3 0x461BCD PUSH1 0xE5 SHL DUP2 MSTORE PUSH1 0x20 PUSH1 0x4 DUP3 ADD MSTORE PUSH1 0x12 PUSH1 0x24 DUP3 ADD MSTORE PUSH18 0x2CB7BA9030B63932B0B23C903B37BA32B217 PUSH1 0x71 SHL PUSH1 0x44 DUP3 ADD MSTORE PUSH1 0x64 SWAP1 REVERT JUMPDEST PUSH1 0x40 MLOAD PUSH3 0x461BCD PUSH1 0xE5 SHL DUP2 MSTORE PUSH1 0x20 PUSH1 0x4 DUP3 ADD MSTORE PUSH1 0x19 PUSH1 0x24 DUP3 ADD MSTORE PUSH32 0x596F752068617665206E6F20726967687420746F20766F746500000000000000 PUSH1 0x44 DUP3 ADD MSTORE PUSH1 0x64 SWAP1 REVERT JUMPDEST CALLVALUE PUSH2 0xA0 JUMPI PUSH0 CALLDATASIZE PUSH1 0x3 NOT ADD SLT PUSH2 0xA0 JUMPI PUSH0 SLOAD PUSH1 0x40 MLOAD PUSH1 0x1 PUSH1 0x1 PUSH1 0xA0 SHL SUB SWAP1 SWAP2 AND DUP2 MSTORE PUSH1 0x20 SWAP1 RETURN JUMPDEST CALLVALUE PUSH2 0xA0 JUMPI PUSH1 0x20 CALLDATASIZE PUSH1 0x3 NOT ADD SLT PUSH2 0xA0 JUMPI PUSH1 0x4 CALLDATALOAD PUSH1 0x2 SLOAD DUP2 LT ISZERO PUSH2 0xA0 JUMPI PUSH2 0x509 PUSH1 0x40 SWAP2 PUSH2 0x5E4 JUMP JUMPDEST POP PUSH1 0x1 DUP2 SLOAD SWAP2 ADD SLOAD DUP3 MLOAD SWAP2 DUP3 MSTORE PUSH1 0x20 DUP3 ADD MSTORE RETURN JUMPDEST CALLVALUE PUSH2 0xA0 JUMPI PUSH1 0x20 CALLDATASIZE PUSH1 0x3 NOT ADD SLT PUSH2 0xA0 JUMPI PUSH1 0x4 CALLDATALOAD CALLER PUSH0 MSTORE PUSH1 0x1 PUSH1 0x20 MSTORE PUSH1 0x40 PUSH0 KECCAK256 SWAP1 DUP2 SLOAD SWAP3 DUP4 ISZERO PUSH2 0x5AB JUMPI POP PUSH1 0x1 DUP3 ADD SWAP2 DUP3 SLOAD SWAP2 PUSH1 0xFF DUP4 AND PUSH2 0x575 JUMPI DUP1 PUSH1 0x2 PUSH2 0x3DB SWAP4 PUSH2 0x3E5 SWAP7 PUSH1 0x1 DUP1 SWAP8 PUSH1 0xFF NOT AND OR SWAP1 SSTORE ADD SSTORE PUSH2 0x5E4 JUMP JUMPDEST PUSH1 0x40 MLOAD PUSH3 0x461BCD PUSH1 0xE5 SHL DUP2 MSTORE PUSH1 0x20 PUSH1 0x4 DUP3 ADD MSTORE PUSH1 0xE PUSH1 0x24 DUP3 ADD MSTORE PUSH14 0x20B63932B0B23C903B37BA32B217 PUSH1 0x91 SHL PUSH1 0x44 DUP3 ADD MSTORE PUSH1 0x64 SWAP1 REVERT JUMPDEST PUSH3 0x461BCD PUSH1 0xE5 SHL DUP2 MSTORE PUSH1 0x20 PUSH1 0x4 DUP3 ADD MSTORE PUSH1 0x14 PUSH1 0x24 DUP3 ADD MSTORE PUSH20 0x486173206E6F20726967687420746F20766F7465 PUSH1 0x60 SHL PUSH1 0x44 DUP3 ADD MSTORE PUSH1 0x64 SWAP1 REVERT JUMPDEST PUSH1 0x2 SLOAD DUP2 LT ISZERO PUSH2 0x600 JUMPI PUSH1 0x2 PUSH0 MSTORE PUSH1 0x20 PUSH0 KECCAK256 SWAP1 PUSH1 0x1 SHL ADD SWAP1 PUSH0 SWAP1 JUMP JUMPDEST PUSH4 0x4E487B71 PUSH1 0xE0 SHL PUSH0 MSTORE PUSH1 0x32 PUSH1 0x4 MSTORE PUSH1 0x24 PUSH0 REVERT JUMPDEST SWAP2 SWAP1 DUP3 ADD DUP1 SWAP3 GT PUSH2 0x621 JUMPI JUMP JUMPDEST PUSH4 0x4E487B71 PUSH1 0xE0 SHL PUSH0 MSTORE PUSH1 0x11 PUSH1 0x4 MSTORE PUSH1 0x24 PUSH0 REVERT JUMPDEST PUSH0 SWAP1 PUSH0 DUP1 PUSH1 0x2 SLOAD SWAP2 JUMPDEST DUP3 DUP2 LT PUSH2 0x64A JUMPI POP POP POP JUMP JUMPDEST DUP2 PUSH1 0x1 PUSH2 0x656 DUP4 PUSH2 0x5E4 JUMP JUMPDEST POP ADD SLOAD GT PUSH2 0x667 JUMPI JUMPDEST PUSH1 0x1 ADD PUSH2 0x63E JUMP JUMPDEST SWAP4 POP POP PUSH1 0x1 PUSH2 0x675 DUP5 PUSH2 0x5E4 JUMP JUMPDEST POP ADD SLOAD DUP4 PUSH2 0x65F JUMP INVALID LOG2 PUSH5 0x6970667358 0x22 SLT KECCAK256 0x25 0xEC 0xEA COINBASE OR ISZERO 0x1F MCOPY 0xDF MSIZE DUP6 0xBC DUP3 RETURN SIGNEXTEND 0xC3 SMOD SLOAD 0xDC 0xFC EXTCODECOPY 0xEF MSTORE8 DUP10 0xE0 SWAP6 SWAP13 0xD3 0xCC PUSH20 0xB5A64736F6C634300081A0033A2646970667358 0x22 SLT KECCAK256 0xD9 0xE MSTORE PUSH30 0x1F980C73613A77368739874EFF52BDD3F89B7C1A5F79988A97BD46006473 PUSH16 0x6C634300081A00330000000000000000 "
		},
		"gasEstimates": {
			"creation": {
				"codeDepositCost": "720200",
				"executionCost": "761",
				"totalCost": "720961"
			},
			"external": {
				"beforeAll()": "infinite",
				"checkWinninProposalWithReturnValue()": "infinite",
				"checkWinningProposal()": "infinite"
			}
		},
		"methodIdentifiers": {
			"beforeAll()": "7fea0d4b",
			"checkWinninProposalWithReturnValue()": "3439c57b",
			"checkWinningProposal()": "ed2bee10"
		}
	},
	"abi": [
		{
			"inputs": [],
			"name": "beforeAll",
			"outputs": [],
			"stateMutability": "nonpayable",
			"type": "function"
		},
		{
			"inputs": [],
			"name": "checkWinninProposalWithReturnValue",
			"outputs": [
				{
					"internalType": "bool",
					"name": "",
					"type": "bool"
				}
			],
			"stateMutability": "view",
			"type": "function"
		},
		{
			"inputs": [],
			"name": "checkWinningProposal",
			"outputs": [],
			"stateMutability": "nonpayable",
			"type": "function"
		}
	]
}