{
	"ctiIncentiveDedupRegistry/minimalCtiContract.sol": {
		"SimpleCTIRegistry": {
			"abi": [
				{
					"anonymous": false,
					"inputs": [
						{
							"indexed": false,
							"internalType": "string",
							"name": "tid",
							"type": "string"
						},
						{
							"indexed": false,
							"internalType": "string",
							"name": "cti_hash",
							"type": "string"
						}
					],
					"name": "CTIRegistered",
					"type": "event"
				},
				{
					"inputs": [
						{
							"internalType": "string",
							"name": "",
							"type": "string"
						}
					],
					"name": "CTIByTid",
					"outputs": [
						{
							"internalType": "string",
							"name": "tid",
							"type": "string"
						},
						{
							"internalType": "string",
							"name": "tip",
							"type": "string"
						},
						{
							"internalType": "string",
							"name": "cti_hash",
							"type": "string"
						},
						{
							"internalType": "int256",
							"name": "price",
							"type": "int256"
						},
						{
							"internalType": "string",
							"name": "ip",
							"type": "string"
						},
						{
							"internalType": "uint256",
							"name": "threat_score",
							"type": "uint256"
						},
						{
							"internalType": "int256",
							"name": "confidence",
							"type": "int256"
						}
					],
					"stateMutability": "view",
					"type": "function"
				},
				{
					"inputs": [
						{
							"internalType": "string",
							"name": "tid",
							"type": "string"
						}
					],
					"name": "GetCTI",
					"outputs": [
						{
							"components": [
								{
									"internalType": "string",
									"name": "tid",
									"type": "string"
								},
								{
									"internalType": "string",
									"name": "tip",
									"type": "string"
								},
								{
									"internalType": "string",
									"name": "cti_hash",
									"type": "string"
								},
								{
									"internalType": "string[]",
									"name": "tags",
									"type": "string[]"
								},
								{
									"internalType": "int256",
									"name": "price",
									"type": "int256"
								},
								{
									"internalType": "string",
									"name": "ip",
									"type": "string"
								},
								{
									"internalType": "uint256",
									"name": "threat_score",
									"type": "uint256"
								},
								{
									"internalType": "string[]",
									"name": "iocs",
									"type": "string[]"
								},
								{
									"internalType": "int256",
									"name": "confidence",
									"type": "int256"
								}
							],
							"internalType": "struct SimpleCTIRegistry.CTI",
							"name": "",
							"type": "tuple"
						}
					],
					"stateMutability": "view",
					"type": "function"
				},
				{
					"inputs": [
						{
							"internalType": "string",
							"name": "tid",
							"type": "string"
						},
						{
							"internalType": "string",
							"name": "tip",
							"type": "string"
						},
						{
							"internalType": "string",
							"name": "cti_hash",
							"type": "string"
						},
						{
							"internalType": "string[]",
							"name": "tags",
							"type": "string[]"
						},
						{
							"internalType": "int256",
							"name": "price",
							"type": "int256"
						},
						{
							"internalType": "string",
							"name": "ip",
							"type": "string"
						},
						{
							"internalType": "uint256",
							"name": "threat_score",
							"type": "uint256"
						},
						{
							"internalType": "string[]",
							"name": "iocs",
							"type": "string[]"
						},
						{
							"internalType": "int256",
							"name": "confidence",
							"type": "int256"
						}
					],
					"name": "Register",
					"outputs": [],
					"stateMutability": "nonpayable",
					"type": "function"
				}
			],
			"devdoc": {
				"kind": "dev",
				"methods": {},
				"version": 1
			},
			"evm": {
				"assembly": "    /* \"ctiIncentiveDedupRegistry/minimalCtiContract.sol\":60:1165  contract SimpleCTIRegistry {... */\n  0x80\n  dup1\n  0x40\n  mstore\n  jumpi(tag_1, callvalue)\n  dataSize(sub_0)\n  swap1\n  dup2\n  dataOffset(sub_0)\n  dup3\n  codecopy\n  return\ntag_1:\n  0x00\n  dup1\n  revert\nstop\n\nsub_0: assembly {\n        /* \"ctiIncentiveDedupRegistry/minimalCtiContract.sol\":60:1165  contract SimpleCTIRegistry {... */\n      0x80\n      dup1\n      0x40\n      mstore\n      jumpi(tag_17, iszero(lt(calldatasize, 0x04)))\n      0x00\n      dup1\n      revert\n    tag_17:\n      shr(0xe0, calldataload(0x00))\n      swap1\n      dup2\n      0x25d8c528\n      eq\n      tag_19\n      jumpi\n      pop\n      dup1\n      0x521397d1\n      eq\n      tag_21\n      jumpi\n      0xd1082c92\n      eq\n      tag_23\n      jumpi\n      0x00\n      dup1\n      revert\n    tag_23:\n      jumpi(tag_44, callvalue)\n      jumpi(tag_44, slt(add(not(0x03), calldatasize), 0x0120))\n      calldataload(0x04)\n      sub(shl(0x40, 0x01), 0x01)\n      dup2\n      gt\n      tag_44\n      jumpi\n      tag_31\n      swap1\n      calldatasize\n      swap1\n      0x04\n      add\n      tag_1\n      jump\t// in\n    tag_31:\n      swap1\n      calldataload(0x24)\n      sub(shl(0x40, 0x01), 0x01)\n      dup2\n      gt\n      tag_44\n      jumpi\n      tag_34\n      swap1\n      calldatasize\n      swap1\n      0x04\n      add\n      tag_1\n      jump\t// in\n    tag_34:\n      0x44\n      swap4\n      swap2\n      swap4\n      calldataload\n      sub(shl(0x40, 0x01), 0x01)\n      dup2\n      gt\n      tag_44\n      jumpi\n      tag_37\n      swap1\n      calldatasize\n      swap1\n      0x04\n      add\n      tag_1\n      jump\t// in\n    tag_37:\n      swap2\n      swap1\n      swap5\n      calldataload(0x64)\n      sub(shl(0x40, 0x01), 0x01)\n      dup2\n      gt\n      tag_44\n      jumpi\n      tag_40\n      swap1\n      calldatasize\n      swap1\n      0x04\n      add\n      tag_10\n      jump\t// in\n    tag_40:\n      swap1\n      swap2\n      calldataload(0xa4)\n      sub(shl(0x40, 0x01), 0x01)\n      dup2\n      gt\n      tag_44\n      jumpi\n      tag_43\n      swap1\n      calldatasize\n      swap1\n      0x04\n      add\n      tag_1\n      jump\t// in\n    tag_43:\n      0xe4\n      swap3\n      swap2\n      swap3\n      calldataload\n      sub(shl(0x40, 0x01), 0x01)\n      dup2\n      gt\n      tag_44\n      jumpi\n      tag_46\n      swap1\n      calldatasize\n      swap1\n      0x04\n      add\n      tag_10\n      jump\t// in\n    tag_46:\n      swap4\n      swap1\n      swap3\n      mload(0x40)\n      swap8\n      tag_47\n      dup10\n      tag_4\n      jump\t// in\n    tag_47:\n      tag_48\n      calldatasize\n      dup13\n      dup15\n      tag_6\n      jump\t// in\n    tag_48:\n      dup10\n      mstore\n      calldatasize\n      swap1\n      tag_49\n      swap3\n      tag_6\n      jump\t// in\n    tag_49:\n      0x20\n        /* \"ctiIncentiveDedupRegistry/minimalCtiContract.sol\":759:959  CTI(... */\n      dup9\n      add\n        /* \"ctiIncentiveDedupRegistry/minimalCtiContract.sol\":60:1165  contract SimpleCTIRegistry {... */\n      swap1\n      dup2\n      mstore\n        /* \"ctiIncentiveDedupRegistry/minimalCtiContract.sol\":759:959  CTI(... */\n      swap6\n        /* \"ctiIncentiveDedupRegistry/minimalCtiContract.sol\":60:1165  contract SimpleCTIRegistry {... */\n      tag_50\n      calldatasize\n      dup11\n      dup15\n      tag_6\n      jump\t// in\n    tag_50:\n        /* \"ctiIncentiveDedupRegistry/minimalCtiContract.sol\":759:959  CTI(... */\n      swap6\n        /* \"ctiIncentiveDedupRegistry/minimalCtiContract.sol\":60:1165  contract SimpleCTIRegistry {... */\n      0x40\n        /* \"ctiIncentiveDedupRegistry/minimalCtiContract.sol\":759:959  CTI(... */\n      dup10\n      add\n        /* \"ctiIncentiveDedupRegistry/minimalCtiContract.sol\":60:1165  contract SimpleCTIRegistry {... */\n      swap7\n      dup8\n      mstore\n      calldatasize\n      swap1\n      tag_51\n      swap3\n      tag_13\n      jump\t// in\n    tag_51:\n        /* \"ctiIncentiveDedupRegistry/minimalCtiContract.sol\":759:959  CTI(... */\n      swap1\n        /* \"ctiIncentiveDedupRegistry/minimalCtiContract.sol\":60:1165  contract SimpleCTIRegistry {... */\n      0x60\n        /* \"ctiIncentiveDedupRegistry/minimalCtiContract.sol\":759:959  CTI(... */\n      dup9\n      add\n        /* \"ctiIncentiveDedupRegistry/minimalCtiContract.sol\":60:1165  contract SimpleCTIRegistry {... */\n      swap2\n      dup3\n      mstore\n      0x80\n        /* \"ctiIncentiveDedupRegistry/minimalCtiContract.sol\":759:959  CTI(... */\n      dup9\n      add\n        /* \"ctiIncentiveDedupRegistry/minimalCtiContract.sol\":60:1165  contract SimpleCTIRegistry {... */\n      swap3\n      calldataload(0x84)\n      dup5\n      mstore\n      calldatasize\n      swap1\n      tag_52\n      swap3\n      tag_6\n      jump\t// in\n    tag_52:\n        /* \"ctiIncentiveDedupRegistry/minimalCtiContract.sol\":759:959  CTI(... */\n      swap3\n        /* \"ctiIncentiveDedupRegistry/minimalCtiContract.sol\":60:1165  contract SimpleCTIRegistry {... */\n      0xa0\n        /* \"ctiIncentiveDedupRegistry/minimalCtiContract.sol\":759:959  CTI(... */\n      dup9\n      add\n        /* \"ctiIncentiveDedupRegistry/minimalCtiContract.sol\":60:1165  contract SimpleCTIRegistry {... */\n      swap4\n      dup5\n      mstore\n      0xc0\n        /* \"ctiIncentiveDedupRegistry/minimalCtiContract.sol\":759:959  CTI(... */\n      dup9\n      add\n        /* \"ctiIncentiveDedupRegistry/minimalCtiContract.sol\":60:1165  contract SimpleCTIRegistry {... */\n      swap5\n      calldataload(0xc4)\n      dup7\n      mstore\n      calldatasize\n      swap1\n      tag_53\n      swap3\n      tag_13\n      jump\t// in\n    tag_53:\n        /* \"ctiIncentiveDedupRegistry/minimalCtiContract.sol\":759:959  CTI(... */\n      swap5\n        /* \"ctiIncentiveDedupRegistry/minimalCtiContract.sol\":60:1165  contract SimpleCTIRegistry {... */\n      0xe0\n        /* \"ctiIncentiveDedupRegistry/minimalCtiContract.sol\":759:959  CTI(... */\n      dup9\n      add\n        /* \"ctiIncentiveDedupRegistry/minimalCtiContract.sol\":60:1165  contract SimpleCTIRegistry {... */\n      swap6\n      dup7\n      mstore\n      0x0100\n        /* \"ctiIncentiveDedupRegistry/minimalCtiContract.sol\":759:959  CTI(... */\n      dup9\n      add\n        /* \"ctiIncentiveDedupRegistry/minimalCtiContract.sol\":60:1165  contract SimpleCTIRegistry {... */\n      swap7\n      calldataload(0x0104)\n      dup9\n      mstore\n      mload(0x40)\n      dup12\n      dup14\n      dup3\n      calldatacopy\n      dup1\n      dup13\n      dup2\n      add\n      0x00\n      dup2\n      mstore\n      sub\n      0x20\n      add\n      swap1\n      keccak256\n      swap9\n      mload\n      dup1\n      mload\n      swap1\n      sub(shl(0x40, 0x01), 0x01)\n      dup3\n      gt\n      tag_114\n      jumpi\n      tag_56\n      dup12\n      sload\n      tag_8\n      jump\t// in\n    tag_56:\n      0x1f\n      dup2\n      gt\n      tag_57\n      jumpi\n    tag_58:\n      pop\n      0x20\n      swap1\n      0x1f\n      dup4\n      gt\n      0x01\n      eq\n      tag_59\n      jumpi\n      tag_61\n      swap3\n      swap2\n      0x00\n      swap2\n      dup4\n      tag_122\n      jumpi\n    tag_63:\n      pop\n      pop\n      dup2\n      0x01\n      shl\n      swap2\n      not(0x00)\n      swap1\n      0x03\n      shl\n      shr\n      not\n      and\n      or\n      swap1\n      jump\n    tag_61:\n      dup10\n      sstore\n    tag_64:\n      mload\n      dup1\n      mload\n      0x01\n      dup11\n      add\n      swap2\n      sub(shl(0x40, 0x01), 0x01)\n      dup3\n      gt\n      tag_114\n      jumpi\n      tag_67\n      dup4\n      sload\n      tag_8\n      jump\t// in\n    tag_67:\n      0x1f\n      dup2\n      gt\n      tag_68\n      jumpi\n    tag_69:\n      pop\n      0x20\n      swap1\n      0x1f\n      dup4\n      gt\n      0x01\n      eq\n      tag_70\n      jumpi\n      tag_72\n      swap3\n      swap2\n      0x00\n      swap2\n      dup4\n      tag_122\n      jumpi\n      pop\n      pop\n      dup2\n      0x01\n      shl\n      swap2\n      not(0x00)\n      swap1\n      0x03\n      shl\n      shr\n      not\n      and\n      or\n      swap1\n      jump\n    tag_72:\n      swap1\n      sstore\n    tag_75:\n      mload\n      dup1\n      mload\n      0x02\n      dup10\n      add\n      swap2\n      sub(shl(0x40, 0x01), 0x01)\n      dup3\n      gt\n      tag_114\n      jumpi\n      tag_78\n      dup4\n      sload\n      tag_8\n      jump\t// in\n    tag_78:\n      0x1f\n      dup2\n      gt\n      tag_79\n      jumpi\n    tag_80:\n      pop\n      0x20\n      swap1\n      0x1f\n      dup4\n      gt\n      0x01\n      eq\n      tag_81\n      jumpi\n      tag_83\n      swap3\n      swap2\n      0x00\n      swap2\n      dup4\n      tag_122\n      jumpi\n      pop\n      pop\n      dup2\n      0x01\n      shl\n      swap2\n      not(0x00)\n      swap1\n      0x03\n      shl\n      shr\n      not\n      and\n      or\n      swap1\n      jump\n    tag_83:\n      swap1\n      sstore\n    tag_86:\n      mload\n      dup1\n      mload\n      0x03\n      dup9\n      add\n      swap2\n      shl(0x40, 0x01)\n      dup3\n      gt\n      tag_114\n      jumpi\n      dup3\n      sload\n      dup3\n      dup5\n      sstore\n      dup1\n      dup4\n      lt\n      tag_89\n      jumpi\n    tag_90:\n      pop\n      0x20\n      add\n      swap2\n      0x00\n      mstore\n      keccak256(0x00, 0x20)\n      swap2\n      0x00\n      swap1\n    tag_91:\n      dup3\n      dup3\n      lt\n      tag_92\n      jumpi\n      pop\n      pop\n      pop\n      pop\n      mload\n      0x04\n      dup7\n      add\n      sstore\n      0x05\n      dup6\n      add\n      swap1\n      mload\n      dup1\n      mload\n      swap1\n      sub(shl(0x40, 0x01), 0x01)\n      dup3\n      gt\n      tag_114\n      jumpi\n      tag_96\n      dup4\n      sload\n      tag_8\n      jump\t// in\n    tag_96:\n      0x1f\n      dup2\n      gt\n      tag_97\n      jumpi\n    tag_98:\n      pop\n      0x20\n      swap1\n      0x1f\n      dup4\n      gt\n      0x01\n      eq\n      tag_99\n      jumpi\n      tag_101\n      swap3\n      swap2\n      0x00\n      swap2\n      dup4\n      tag_122\n      jumpi\n      pop\n      pop\n      dup2\n      0x01\n      shl\n      swap2\n      not(0x00)\n      swap1\n      0x03\n      shl\n      shr\n      not\n      and\n      or\n      swap1\n      jump\n    tag_101:\n      swap1\n      sstore\n    tag_104:\n      mload\n      0x06\n      dup5\n      add\n      sstore\n      mload\n      dup1\n      mload\n      0x07\n      dup5\n      add\n      swap2\n      shl(0x40, 0x01)\n      dup3\n      gt\n      tag_114\n      jumpi\n      dup3\n      sload\n      dup3\n      dup5\n      sstore\n      dup1\n      dup4\n      lt\n      tag_107\n      jumpi\n    tag_108:\n      pop\n      0x20\n      add\n      swap2\n      0x00\n      mstore\n      keccak256(0x00, 0x20)\n      swap2\n      0x00\n      swap1\n    tag_109:\n      dup3\n      dup3\n      lt\n      tag_110\n      jumpi\n        /* \"ctiIncentiveDedupRegistry/minimalCtiContract.sol\":1007:1035  CTIRegistered(tid, cti_hash) */\n      0x24ce69f5a6c2d487d9987ea21c389d79f66f8a927f3268ee57592645c0dbe4a8\n        /* \"ctiIncentiveDedupRegistry/minimalCtiContract.sol\":60:1165  contract SimpleCTIRegistry {... */\n      dup10\n      dup10\n      tag_112\n      dup14\n      dup12\n      dup12\n      0x08\n      dup13\n      mload\n      swap2\n      add\n      sstore\n      tag_113\n      mload(0x40)\n      swap6\n      dup7\n      swap6\n      0x40\n      dup8\n      mstore\n      0x40\n      dup8\n      add\n      swap2\n      tag_16\n      jump\t// in\n    tag_113:\n      swap2\n      dup5\n      dup4\n      sub\n      0x20\n      dup7\n      add\n      mstore\n      tag_16\n      jump\t// in\n    tag_112:\n        /* \"ctiIncentiveDedupRegistry/minimalCtiContract.sol\":1007:1035  CTIRegistered(tid, cti_hash) */\n      sub\n      swap1\n      log1\n        /* \"ctiIncentiveDedupRegistry/minimalCtiContract.sol\":60:1165  contract SimpleCTIRegistry {... */\n      stop\n    tag_110:\n      dup1\n      mload\n      dup1\n      mload\n      swap1\n      sub(shl(0x40, 0x01), 0x01)\n      dup3\n      gt\n      tag_114\n      jumpi\n      tag_116\n      dup7\n      sload\n      tag_8\n      jump\t// in\n    tag_116:\n      0x1f\n      dup2\n      gt\n      tag_117\n      jumpi\n    tag_118:\n      pop\n      0x20\n      swap1\n      0x1f\n      dup4\n      gt\n      0x01\n      eq\n      tag_119\n      jumpi\n      swap3\n      tag_121\n      dup4\n      0x01\n      swap6\n      swap5\n      0x20\n      swap5\n      dup8\n      swap7\n      0x00\n      swap3\n      tag_122\n      jumpi\n      pop\n      pop\n      dup2\n      0x01\n      shl\n      swap2\n      not(0x00)\n      swap1\n      0x03\n      shl\n      shr\n      not\n      and\n      or\n      swap1\n      jump\n    tag_121:\n      dup8\n      sstore\n    tag_124:\n      add\n      swap5\n      add\n      swap2\n      add\n      swap1\n      swap3\n      jump(tag_109)\n    tag_122:\n      add\n      mload\n      swap1\n      pop\n      0x00\n      dup1\n      jump(tag_63)\n    tag_119:\n      swap1\n      not(0x1f)\n      dup4\n      and\n      swap2\n      dup8\n      0x00\n      mstore\n      dup2\n      0x00\n      keccak256\n      swap3\n      0x00\n    tag_125:\n      dup2\n      dup2\n      lt\n      tag_126\n      jumpi\n      pop\n      swap4\n      0x20\n      swap4\n      0x01\n      swap7\n      swap4\n      dup8\n      swap7\n      swap4\n      dup4\n      dup9\n      swap6\n      lt\n      tag_128\n      jumpi\n    tag_129:\n      pop\n      pop\n      pop\n      dup2\n      shl\n      add\n      dup8\n      sstore\n      jump(tag_124)\n    tag_128:\n      add\n      mload\n      not(0x00)\n      0xf8\n      dup5\n      0x03\n      shl\n      and\n      shr\n      not\n      and\n      swap1\n      sstore\n      0x00\n      dup1\n      dup1\n      jump(tag_129)\n    tag_126:\n      swap3\n      swap4\n      0x20\n      0x01\n      dup2\n      swap3\n      dup8\n      dup7\n      add\n      mload\n      dup2\n      sstore\n      add\n      swap6\n      add\n      swap4\n      add\n      jump(tag_125)\n    tag_117:\n      tag_130\n      swap1\n      dup8\n      0x00\n      mstore\n      keccak256(0x00, 0x20)\n      0x1f\n      dup6\n      add\n      0x05\n      shr\n      dup2\n      add\n      swap2\n      0x20\n      dup7\n      lt\n      tag_131\n      jumpi\n    tag_132:\n      0x1f\n      add\n      0x05\n      shr\n      add\n      swap1\n      tag_14\n      jump\t// in\n    tag_130:\n      0x00\n      jump(tag_118)\n    tag_131:\n      swap1\n      swap2\n      pop\n      dup2\n      swap1\n      jump(tag_132)\n    tag_114:\n      mstore(0x00, shl(0xe0, 0x4e487b71))\n      mstore(0x04, 0x41)\n      revert(0x00, 0x24)\n    tag_107:\n      dup4\n      0x00\n      mstore\n      dup3\n      keccak256(0x00, 0x20)\n      swap2\n      dup3\n      add\n      swap2\n      add\n    tag_133:\n      dup2\n      dup2\n      lt\n      tag_134\n      jumpi\n      pop\n      jump(tag_108)\n    tag_134:\n      dup1\n      tag_136\n      0x01\n      swap3\n      sload\n      tag_8\n      jump\t// in\n    tag_136:\n      dup1\n      tag_137\n      jumpi\n    tag_138:\n      pop\n      add\n      jump(tag_133)\n    tag_137:\n      0x1f\n      dup2\n      gt\n      dup4\n      eq\n      tag_139\n      jumpi\n      pop\n      0x00\n      dup2\n      sstore\n    tag_141:\n      0x00\n      jump(tag_138)\n    tag_139:\n      tag_142\n      swap1\n      dup3\n      0x00\n      mstore\n      dup4\n      0x1f\n      keccak256(0x00, 0x20)\n      swap3\n      add\n      0x05\n      shr\n      dup3\n      add\n      swap2\n      add\n      tag_14\n      jump\t// in\n    tag_142:\n      dup1\n      0x00\n      mstore\n      0x00\n      0x20\n      dup2\n      keccak256\n      dup2\n      dup4\n      sstore\n      sstore\n      jump(tag_141)\n    tag_99:\n      swap1\n      not(0x1f)\n      dup4\n      and\n      swap2\n      dup5\n      0x00\n      mstore\n      dup2\n      0x00\n      keccak256\n      swap3\n      0x00\n    tag_143:\n      dup2\n      dup2\n      lt\n      tag_144\n      jumpi\n      pop\n      swap1\n      dup5\n      0x01\n      swap6\n      swap5\n      swap4\n      swap3\n      lt\n      tag_146\n      jumpi\n    tag_147:\n      pop\n      pop\n      pop\n      dup2\n      shl\n      add\n      swap1\n      sstore\n      jump(tag_104)\n    tag_146:\n      add\n      mload\n      not(0x00)\n      0xf8\n      dup5\n      0x03\n      shl\n      and\n      shr\n      not\n      and\n      swap1\n      sstore\n      0x00\n      dup1\n      dup1\n      jump(tag_147)\n    tag_144:\n      swap3\n      swap4\n      0x20\n      0x01\n      dup2\n      swap3\n      dup8\n      dup7\n      add\n      mload\n      dup2\n      sstore\n      add\n      swap6\n      add\n      swap4\n      add\n      jump(tag_143)\n    tag_97:\n      tag_148\n      swap1\n      dup5\n      0x00\n      mstore\n      keccak256(0x00, 0x20)\n      0x1f\n      dup6\n      add\n      0x05\n      shr\n      dup2\n      add\n      swap2\n      0x20\n      dup7\n      lt\n      tag_131\n      jumpi\n      0x1f\n      add\n      0x05\n      shr\n      add\n      swap1\n      tag_14\n      jump\t// in\n    tag_148:\n      0x00\n      jump(tag_98)\n    tag_92:\n      dup1\n      mload\n      dup1\n      mload\n      swap1\n      sub(shl(0x40, 0x01), 0x01)\n      dup3\n      gt\n      tag_114\n      jumpi\n      tag_153\n      dup7\n      sload\n      tag_8\n      jump\t// in\n    tag_153:\n      0x1f\n      dup2\n      gt\n      tag_154\n      jumpi\n    tag_155:\n      pop\n      0x20\n      swap1\n      0x1f\n      dup4\n      gt\n      0x01\n      eq\n      tag_156\n      jumpi\n      swap3\n      tag_158\n      dup4\n      0x01\n      swap6\n      swap5\n      0x20\n      swap5\n      dup8\n      swap7\n      0x00\n      swap3\n      tag_122\n      jumpi\n      pop\n      pop\n      dup2\n      0x01\n      shl\n      swap2\n      not(0x00)\n      swap1\n      0x03\n      shl\n      shr\n      not\n      and\n      or\n      swap1\n      jump\n    tag_158:\n      dup8\n      sstore\n    tag_161:\n      add\n      swap5\n      add\n      swap2\n      add\n      swap1\n      swap3\n      jump(tag_91)\n    tag_156:\n      swap1\n      not(0x1f)\n      dup4\n      and\n      swap2\n      dup8\n      0x00\n      mstore\n      dup2\n      0x00\n      keccak256\n      swap3\n      0x00\n    tag_162:\n      dup2\n      dup2\n      lt\n      tag_163\n      jumpi\n      pop\n      swap4\n      0x20\n      swap4\n      0x01\n      swap7\n      swap4\n      dup8\n      swap7\n      swap4\n      dup4\n      dup9\n      swap6\n      lt\n      tag_165\n      jumpi\n    tag_166:\n      pop\n      pop\n      pop\n      dup2\n      shl\n      add\n      dup8\n      sstore\n      jump(tag_161)\n    tag_165:\n      add\n      mload\n      not(0x00)\n      0xf8\n      dup5\n      0x03\n      shl\n      and\n      shr\n      not\n      and\n      swap1\n      sstore\n      0x00\n      dup1\n      dup1\n      jump(tag_166)\n    tag_163:\n      swap3\n      swap4\n      0x20\n      0x01\n      dup2\n      swap3\n      dup8\n      dup7\n      add\n      mload\n      dup2\n      sstore\n      add\n      swap6\n      add\n      swap4\n      add\n      jump(tag_162)\n    tag_154:\n      tag_167\n      swap1\n      dup8\n      0x00\n      mstore\n      keccak256(0x00, 0x20)\n      0x1f\n      dup6\n      add\n      0x05\n      shr\n      dup2\n      add\n      swap2\n      0x20\n      dup7\n      lt\n      tag_131\n      jumpi\n      0x1f\n      add\n      0x05\n      shr\n      add\n      swap1\n      tag_14\n      jump\t// in\n    tag_167:\n      0x00\n      jump(tag_155)\n    tag_89:\n      dup4\n      0x00\n      mstore\n      dup3\n      keccak256(0x00, 0x20)\n      swap2\n      dup3\n      add\n      swap2\n      add\n    tag_170:\n      dup2\n      dup2\n      lt\n      tag_171\n      jumpi\n      pop\n      jump(tag_90)\n    tag_171:\n      dup1\n      tag_173\n      0x01\n      swap3\n      sload\n      tag_8\n      jump\t// in\n    tag_173:\n      dup1\n      tag_174\n      jumpi\n    tag_175:\n      pop\n      add\n      jump(tag_170)\n    tag_174:\n      0x1f\n      dup2\n      gt\n      dup4\n      eq\n      tag_176\n      jumpi\n      pop\n      0x00\n      dup2\n      sstore\n    tag_178:\n      0x00\n      jump(tag_175)\n    tag_176:\n      tag_179\n      swap1\n      dup3\n      0x00\n      mstore\n      dup4\n      0x1f\n      keccak256(0x00, 0x20)\n      swap3\n      add\n      0x05\n      shr\n      dup3\n      add\n      swap2\n      add\n      tag_14\n      jump\t// in\n    tag_179:\n      dup1\n      0x00\n      mstore\n      0x00\n      0x20\n      dup2\n      keccak256\n      dup2\n      dup4\n      sstore\n      sstore\n      jump(tag_178)\n    tag_81:\n      swap1\n      not(0x1f)\n      dup4\n      and\n      swap2\n      dup5\n      0x00\n      mstore\n      dup2\n      0x00\n      keccak256\n      swap3\n      0x00\n    tag_180:\n      dup2\n      dup2\n      lt\n      tag_181\n      jumpi\n      pop\n      swap1\n      dup5\n      0x01\n      swap6\n      swap5\n      swap4\n      swap3\n      lt\n      tag_183\n      jumpi\n    tag_184:\n      pop\n      pop\n      pop\n      dup2\n      shl\n      add\n      swap1\n      sstore\n      jump(tag_86)\n    tag_183:\n      add\n      mload\n      not(0x00)\n      0xf8\n      dup5\n      0x03\n      shl\n      and\n      shr\n      not\n      and\n      swap1\n      sstore\n      0x00\n      dup1\n      dup1\n      jump(tag_184)\n    tag_181:\n      swap3\n      swap4\n      0x20\n      0x01\n      dup2\n      swap3\n      dup8\n      dup7\n      add\n      mload\n      dup2\n      sstore\n      add\n      swap6\n      add\n      swap4\n      add\n      jump(tag_180)\n    tag_79:\n      tag_185\n      swap1\n      dup5\n      0x00\n      mstore\n      keccak256(0x00, 0x20)\n      0x1f\n      dup6\n      add\n      0x05\n      shr\n      dup2\n      add\n      swap2\n      0x20\n      dup7\n      lt\n      tag_131\n      jumpi\n      0x1f\n      add\n      0x05\n      shr\n      add\n      swap1\n      tag_14\n      jump\t// in\n    tag_185:\n      0x00\n      jump(tag_80)\n    tag_70:\n      swap1\n      not(0x1f)\n      dup4\n      and\n      swap2\n      dup5\n      0x00\n      mstore\n      dup2\n      0x00\n      keccak256\n      swap3\n      0x00\n    tag_188:\n      dup2\n      dup2\n      lt\n      tag_189\n      jumpi\n      pop\n      swap1\n      dup5\n      0x01\n      swap6\n      swap5\n      swap4\n      swap3\n      lt\n      tag_191\n      jumpi\n    tag_192:\n      pop\n      pop\n      pop\n      dup2\n      shl\n      add\n      swap1\n      sstore\n      jump(tag_75)\n    tag_191:\n      add\n      mload\n      not(0x00)\n      0xf8\n      dup5\n      0x03\n      shl\n      and\n      shr\n      not\n      and\n      swap1\n      sstore\n      0x00\n      dup1\n      dup1\n      jump(tag_192)\n    tag_189:\n      swap3\n      swap4\n      0x20\n      0x01\n      dup2\n      swap3\n      dup8\n      dup7\n      add\n      mload\n      dup2\n      sstore\n      add\n      swap6\n      add\n      swap4\n      add\n      jump(tag_188)\n    tag_68:\n      tag_193\n      swap1\n      dup5\n      0x00\n      mstore\n      keccak256(0x00, 0x20)\n      0x1f\n      dup6\n      add\n      0x05\n      shr\n      dup2\n      add\n      swap2\n      0x20\n      dup7\n      lt\n      tag_131\n      jumpi\n      0x1f\n      add\n      0x05\n      shr\n      add\n      swap1\n      tag_14\n      jump\t// in\n    tag_193:\n      0x00\n      jump(tag_69)\n    tag_59:\n      swap1\n      not(0x1f)\n      dup4\n      and\n      swap2\n      dup13\n      0x00\n      mstore\n      dup2\n      0x00\n      keccak256\n      swap3\n      0x00\n    tag_196:\n      dup2\n      dup2\n      lt\n      tag_197\n      jumpi\n      pop\n      swap1\n      dup5\n      0x01\n      swap6\n      swap5\n      swap4\n      swap3\n      lt\n      tag_199\n      jumpi\n    tag_200:\n      pop\n      pop\n      pop\n      dup2\n      shl\n      add\n      dup10\n      sstore\n      jump(tag_64)\n    tag_199:\n      add\n      mload\n      not(0x00)\n      0xf8\n      dup5\n      0x03\n      shl\n      and\n      shr\n      not\n      and\n      swap1\n      sstore\n      0x00\n      dup1\n      dup1\n      jump(tag_200)\n    tag_197:\n      swap3\n      swap4\n      0x20\n      0x01\n      dup2\n      swap3\n      dup8\n      dup7\n      add\n      mload\n      dup2\n      sstore\n      add\n      swap6\n      add\n      swap4\n      add\n      jump(tag_196)\n    tag_57:\n      tag_201\n      swap1\n      dup13\n      0x00\n      mstore\n      keccak256(0x00, 0x20)\n      0x1f\n      dup6\n      add\n      0x05\n      shr\n      dup2\n      add\n      swap2\n      0x20\n      dup7\n      lt\n      tag_131\n      jumpi\n      0x1f\n      add\n      0x05\n      shr\n      add\n      swap1\n      tag_14\n      jump\t// in\n    tag_201:\n      0x00\n      jump(tag_58)\n    tag_44:\n      0x00\n      dup1\n      revert\n    tag_21:\n      jumpi(tag_44, callvalue)\n      jumpi(tag_44, slt(add(not(0x03), calldatasize), 0x20))\n      calldataload(0x04)\n      sub(shl(0x40, 0x01), 0x01)\n      dup2\n      gt\n      tag_44\n      jumpi\n      0x20\n      dup1\n      tag_210\n      tag_211\n      swap4\n      calldatasize\n      swap1\n      0x04\n      add\n      tag_7\n      jump\t// in\n    tag_210:\n      mload(0x40)\n      swap3\n      dup2\n      dup5\n      swap3\n      mload\n      swap2\n      dup3\n      swap2\n      add\n      dup4\n      mcopy\n      dup2\n      add\n      0x00\n      dup2\n      mstore\n      sub\n      add\n      swap1\n      keccak256\n        /* \"ctiIncentiveDedupRegistry/minimalCtiContract.sol\":330:368  mapping(string => CTI) public CTIByTid */\n      tag_212\n      dup2\n      tag_9\n      jump\t// in\n    tag_212:\n      swap1\n      tag_213\n      0x01\n      dup3\n      add\n      tag_9\n      jump\t// in\n    tag_213:\n        /* \"ctiIncentiveDedupRegistry/minimalCtiContract.sol\":60:1165  contract SimpleCTIRegistry {... */\n      tag_214\n        /* \"ctiIncentiveDedupRegistry/minimalCtiContract.sol\":330:368  mapping(string => CTI) public CTIByTid */\n      tag_215\n      0x02\n      dup5\n      add\n      tag_9\n      jump\t// in\n    tag_215:\n        /* \"ctiIncentiveDedupRegistry/minimalCtiContract.sol\":60:1165  contract SimpleCTIRegistry {... */\n      0x04\n        /* \"ctiIncentiveDedupRegistry/minimalCtiContract.sol\":330:368  mapping(string => CTI) public CTIByTid */\n      dup5\n      add\n        /* \"ctiIncentiveDedupRegistry/minimalCtiContract.sol\":60:1165  contract SimpleCTIRegistry {... */\n      sload\n        /* \"ctiIncentiveDedupRegistry/minimalCtiContract.sol\":330:368  mapping(string => CTI) public CTIByTid */\n      swap1\n        /* \"ctiIncentiveDedupRegistry/minimalCtiContract.sol\":60:1165  contract SimpleCTIRegistry {... */\n      tag_216\n        /* \"ctiIncentiveDedupRegistry/minimalCtiContract.sol\":330:368  mapping(string => CTI) public CTIByTid */\n      tag_217\n      0x05\n      dup8\n      add\n      tag_9\n      jump\t// in\n    tag_217:\n      swap2\n        /* \"ctiIncentiveDedupRegistry/minimalCtiContract.sol\":60:1165  contract SimpleCTIRegistry {... */\n      tag_218\n        /* \"ctiIncentiveDedupRegistry/minimalCtiContract.sol\":330:368  mapping(string => CTI) public CTIByTid */\n      0x08\n      0x06\n      dup10\n      add\n        /* \"ctiIncentiveDedupRegistry/minimalCtiContract.sol\":60:1165  contract SimpleCTIRegistry {... */\n      sload\n        /* \"ctiIncentiveDedupRegistry/minimalCtiContract.sol\":330:368  mapping(string => CTI) public CTIByTid */\n      swap9\n      add\n        /* \"ctiIncentiveDedupRegistry/minimalCtiContract.sol\":60:1165  contract SimpleCTIRegistry {... */\n      sload\n      swap7\n      mload(0x40)\n      swap11\n      dup12\n      swap11\n      0xe0\n      dup13\n      mstore\n      0xe0\n      dup13\n      add\n      swap1\n      tag_2\n      jump\t// in\n    tag_211:\n      swap1\n      dup11\n      dup3\n      sub\n      0x20\n      dup13\n      add\n      mstore\n      tag_2\n      jump\t// in\n    tag_218:\n      swap1\n      dup9\n      dup3\n      sub\n      0x40\n      dup11\n      add\n      mstore\n      tag_2\n      jump\t// in\n    tag_216:\n      swap2\n      0x60\n      dup8\n      add\n      mstore\n      dup6\n      dup3\n      sub\n      0x80\n      dup8\n      add\n      mstore\n      tag_2\n      jump\t// in\n    tag_214:\n      swap2\n      0xa0\n      dup5\n      add\n      mstore\n      0xc0\n      dup4\n      add\n      mstore\n      sub\n      swap1\n      return\n    tag_19:\n      jumpi(tag_44, callvalue)\n      jumpi(tag_44, slt(add(not(0x03), calldatasize), 0x20))\n      calldataload(0x04)\n      sub(shl(0x40, 0x01), 0x01)\n      dup2\n      gt\n      tag_44\n      jumpi\n      0x0100\n      0x20\n      tag_225\n      swap4\n      0x00\n      tag_226\n      tag_227\n      swap6\n      calldatasize\n      swap1\n      0x04\n      add\n      tag_1\n      jump\t// in\n    tag_226:\n      swap5\n      swap1\n      swap3\n      tag_228\n      dup2\n      tag_4\n      jump\t// in\n    tag_228:\n      0x60\n      dup2\n      mstore\n      0x60\n      dup6\n      dup3\n      add\n      mstore\n      0x60\n      0x40\n      dup3\n      add\n      mstore\n      0x60\n      dup1\n      dup3\n      add\n      mstore\n      dup3\n      0x80\n      dup3\n      add\n      mstore\n      0x60\n      0xa0\n      dup3\n      add\n      mstore\n      dup3\n      0xc0\n      dup3\n      add\n      mstore\n      0x60\n      0xe0\n      dup3\n      add\n      mstore\n      add\n      mstore\n      dup3\n      mload(0x40)\n      swap4\n      dup5\n      swap3\n      dup4\n      calldatacopy\n      dup2\n      add\n      0x00\n      dup2\n      mstore\n      sub\n      add\n      swap1\n      keccak256\n      mload(0x40)\n      swap3\n      dup4\n      swap2\n      tag_229\n      dup4\n      tag_4\n      jump\t// in\n    tag_229:\n      tag_230\n      dup2\n      tag_9\n      jump\t// in\n    tag_230:\n      dup4\n      mstore\n      dup3\n      tag_231\n      tag_232\n      0x01\n      dup5\n      add\n      tag_9\n      jump\t// in\n    tag_232:\n      0x20\n      dup4\n      add\n      swap1\n      dup2\n      mstore\n      tag_233\n      0x02\n      dup6\n      add\n      tag_9\n      jump\t// in\n    tag_233:\n      swap1\n      0x40\n      dup5\n      add\n      swap2\n      dup3\n      mstore\n      tag_234\n      tag_235\n      0x03\n      dup8\n      add\n      tag_12\n      jump\t// in\n    tag_235:\n      0x60\n      dup7\n      add\n      swap1\n      dup2\n      mstore\n      tag_236\n      0x04\n      dup9\n      add\n      sload\n      swap5\n      0x80\n      dup9\n      add\n      swap6\n      dup7\n      mstore\n      tag_237\n      tag_238\n      0x05\n      dup12\n      add\n      tag_9\n      jump\t// in\n    tag_238:\n      swap6\n      0xa0\n      dup11\n      add\n      swap7\n      dup8\n      mstore\n      0x0100\n      0x08\n      0x06\n      dup14\n      add\n      sload\n      swap13\n      0xc0\n      dup14\n      add\n      swap14\n      dup15\n      mstore\n      0xe0\n      tag_239\n      0x07\n      dup4\n      add\n      tag_12\n      jump\t// in\n    tag_239:\n      swap14\n      add\n      swap13\n      dup14\n      mstore\n      add\n      sload\n      swap14\n      add\n      swap13\n      dup14\n      mstore\n      mload(0x40)\n      swap15\n      dup16\n      swap15\n      dup16\n      swap2\n      0x20\n      dup4\n      mstore\n      mload\n      0x0120\n      0x20\n      dup5\n      add\n      mstore\n      0x0140\n      dup4\n      add\n      swap1\n      tag_2\n      jump\t// in\n    tag_227:\n      swap2\n      mload\n      swap1\n      0x40\n      not(0x1f)\n      dup3\n      dup6\n      sub\n      add\n      swap2\n      add\n      mstore\n      tag_2\n      jump\t// in\n    tag_237:\n      swap1\n      mload\n      dup13\n      dup3\n      sub\n      not(0x1f)\n      add\n      0x60\n      dup15\n      add\n      mstore\n      tag_2\n      jump\t// in\n    tag_236:\n      swap1\n      mload\n      dup11\n      dup3\n      sub\n      not(0x1f)\n      add\n      0x80\n      dup13\n      add\n      mstore\n      tag_3\n      jump\t// in\n    tag_234:\n      swap2\n      mload\n      0xa0\n      dup10\n      add\n      mstore\n      mload\n      dup8\n      dup3\n      sub\n      not(0x1f)\n      add\n      0xc0\n      dup10\n      add\n      mstore\n      tag_2\n      jump\t// in\n    tag_231:\n      swap2\n      mload\n      0xe0\n      dup7\n      add\n      mstore\n      mload\n      dup5\n      dup3\n      sub\n      not(0x1f)\n      add\n      0x0100\n      dup7\n      add\n      mstore\n      tag_3\n      jump\t// in\n    tag_225:\n      swap1\n      mload\n      0x0120\n      dup4\n      add\n      mstore\n      sub\n      swap1\n      return\n    tag_1:\n      swap2\n      dup2\n      0x1f\n      dup5\n      add\n      slt\n      iszero\n      tag_44\n      jumpi\n      dup3\n      calldataload\n      swap2\n      sub(shl(0x40, 0x01), 0x01)\n      dup4\n      gt\n      tag_44\n      jumpi\n      0x20\n      dup4\n      dup2\n      dup7\n      add\n      swap6\n      add\n      add\n      gt\n      tag_44\n      jumpi\n      jump\t// out\n    tag_2:\n      dup1\n      mload\n      dup1\n      dup4\n      mstore\n      0x20\n      swap3\n      swap2\n      dup2\n      swap1\n      dup5\n      add\n      dup5\n      dup5\n      add\n      mcopy\n      0x00\n      dup3\n      dup3\n      add\n      dup5\n      add\n      mstore\n      0x1f\n      add\n      not(0x1f)\n      and\n      add\n      add\n      swap1\n      jump\t// out\n    tag_3:\n      swap1\n      dup1\n      0x20\n      dup4\n      mload\n      swap2\n      dup3\n      dup2\n      mstore\n      add\n      swap2\n      0x20\n      dup1\n      dup4\n      0x05\n      shl\n      dup4\n      add\n      add\n      swap5\n      add\n      swap3\n      0x00\n      swap2\n    tag_246:\n      dup4\n      dup4\n      lt\n      tag_247\n      jumpi\n      pop\n      pop\n      pop\n      pop\n      pop\n      swap1\n      jump\t// out\n    tag_247:\n      swap1\n      swap2\n      swap3\n      swap4\n      swap5\n      0x20\n      dup1\n      tag_249\n      0x01\n      swap4\n      not(0x1f)\n      dup7\n      dup3\n      sub\n      add\n      dup8\n      mstore\n      dup10\n      mload\n      tag_2\n      jump\t// in\n    tag_249:\n      swap8\n      add\n      swap4\n      add\n      swap4\n      add\n      swap2\n      swap4\n      swap3\n      swap1\n      jump(tag_246)\n    tag_4:\n      0x0120\n      dup2\n      add\n      swap1\n      dup2\n      lt\n      sub(shl(0x40, 0x01), 0x01)\n      dup3\n      gt\n      or\n      tag_114\n      jumpi\n      0x40\n      mstore\n      jump\t// out\n    tag_5:\n      swap1\n      0x1f\n      dup1\n      not\n      swap2\n      add\n      and\n      dup2\n      add\n      swap1\n      dup2\n      lt\n      sub(shl(0x40, 0x01), 0x01)\n      dup3\n      gt\n      or\n      tag_114\n      jumpi\n      0x40\n      mstore\n      jump\t// out\n    tag_6:\n      swap3\n      swap2\n      swap3\n      sub(shl(0x40, 0x01), 0x01)\n      dup3\n      gt\n      tag_114\n      jumpi\n      mload(0x40)\n      swap2\n      tag_256\n      0x1f\n      dup3\n      add\n      not(0x1f)\n      and\n      0x20\n      add\n      dup5\n      tag_5\n      jump\t// in\n    tag_256:\n      dup3\n      swap5\n      dup2\n      dup5\n      mstore\n      dup2\n      dup4\n      add\n      gt\n      tag_44\n      jumpi\n      dup3\n      dup2\n      0x20\n      swap4\n      dup5\n      0x00\n      swap7\n      add\n      calldatacopy\n      add\n      add\n      mstore\n      jump\t// out\n    tag_7:\n      swap1\n      dup1\n      0x1f\n      dup4\n      add\n      slt\n      iszero\n      tag_44\n      jumpi\n      dup2\n      0x20\n      tag_261\n      swap4\n      calldataload\n      swap2\n      add\n      tag_6\n      jump\t// in\n    tag_261:\n      swap1\n      jump\t// out\n    tag_8:\n      swap1\n      0x01\n      dup3\n      dup2\n      shr\n      swap3\n      and\n      dup1\n      iszero\n      tag_262\n      jumpi\n    tag_263:\n      0x20\n      dup4\n      lt\n      eq\n      tag_264\n      jumpi\n      jump\t// out\n    tag_264:\n      mstore(0x00, shl(0xe0, 0x4e487b71))\n      mstore(0x04, 0x22)\n      revert(0x00, 0x24)\n    tag_262:\n      swap2\n      0x7f\n      and\n      swap2\n      jump(tag_263)\n    tag_9:\n      swap1\n      mload(0x40)\n      swap2\n      dup3\n      0x00\n      dup3\n      sload\n      swap3\n      tag_266\n      dup5\n      tag_8\n      jump\t// in\n    tag_266:\n      dup1\n      dup5\n      mstore\n      swap4\n      0x01\n      dup2\n      and\n      swap1\n      dup2\n      iszero\n      tag_267\n      jumpi\n      pop\n      0x01\n      eq\n      tag_269\n      jumpi\n    tag_270:\n      pop\n      tag_271\n      swap3\n      pop\n      sub\n      dup4\n      tag_5\n      jump\t// in\n    tag_271:\n      jump\t// out\n    tag_269:\n      swap1\n      pop\n      0x00\n      swap3\n      swap2\n      swap3\n      mstore\n      keccak256(0x00, 0x20)\n      swap1\n      0x00\n      swap2\n    tag_272:\n      dup2\n      dup4\n      lt\n      tag_273\n      jumpi\n      pop\n      pop\n      swap1\n      0x20\n      tag_271\n      swap3\n      dup3\n      add\n      add\n      0x00\n      jump(tag_270)\n    tag_273:\n      0x20\n      swap2\n      swap4\n      pop\n      dup1\n      0x01\n      swap2\n      sload\n      dup4\n      dup6\n      dup10\n      add\n      add\n      mstore\n      add\n      swap2\n      add\n      swap1\n      swap2\n      dup5\n      swap3\n      jump(tag_272)\n    tag_267:\n      swap1\n      pop\n      0x20\n      swap3\n      pop\n      tag_271\n      swap5\n      swap2\n      pop\n      not(0xff)\n      and\n      dup3\n      dup5\n      add\n      mstore\n      iszero\n      iszero\n      0x05\n      shl\n      dup3\n      add\n      add\n      0x00\n      jump(tag_270)\n    tag_10:\n      swap2\n      dup2\n      0x1f\n      dup5\n      add\n      slt\n      iszero\n      tag_44\n      jumpi\n      dup3\n      calldataload\n      swap2\n      sub(shl(0x40, 0x01), 0x01)\n      dup4\n      gt\n      tag_44\n      jumpi\n      0x20\n      dup1\n      dup6\n      add\n      swap5\n      dup5\n      0x05\n      shl\n      add\n      add\n      gt\n      tag_44\n      jumpi\n      jump\t// out\n    tag_11:\n      sub(shl(0x40, 0x01), 0x01)\n      dup2\n      gt\n      tag_114\n      jumpi\n      0x05\n      shl\n      0x20\n      add\n      swap1\n      jump\t// out\n    tag_12:\n      swap1\n      dup2\n      sload\n      tag_283\n      dup2\n      tag_11\n      jump\t// in\n    tag_283:\n      swap3\n      tag_284\n      mload(0x40)\n      swap5\n      dup6\n      tag_5\n      jump\t// in\n    tag_284:\n      dup2\n      dup5\n      mstore\n      0x20\n      dup5\n      add\n      swap1\n      0x00\n      mstore\n      keccak256(0x00, 0x20)\n      0x00\n      swap2\n    tag_285:\n      dup4\n      dup4\n      lt\n      tag_286\n      jumpi\n      pop\n      pop\n      pop\n      pop\n      jump\t// out\n    tag_286:\n      0x01\n      0x20\n      dup2\n      swap3\n      tag_288\n      dup6\n      tag_9\n      jump\t// in\n    tag_288:\n      dup2\n      mstore\n      add\n      swap3\n      add\n      swap3\n      add\n      swap2\n      swap1\n      jump(tag_285)\n    tag_13:\n      swap3\n      swap2\n      swap1\n      tag_289\n      dup2\n      tag_11\n      jump\t// in\n    tag_289:\n      swap4\n      tag_290\n      mload(0x40)\n      swap6\n      dup7\n      tag_5\n      jump\t// in\n    tag_290:\n      0x20\n      dup6\n      dup4\n      dup2\n      mstore\n      add\n      swap2\n      0x05\n      shl\n      dup2\n      add\n      swap2\n      dup4\n      dup4\n      gt\n      tag_44\n      jumpi\n      dup2\n      swap1\n    tag_293:\n      dup4\n      dup3\n      lt\n      tag_294\n      jumpi\n      pop\n      pop\n      pop\n      pop\n      pop\n      jump\t// out\n    tag_294:\n      dup2\n      calldataload\n      sub(shl(0x40, 0x01), 0x01)\n      dup2\n      gt\n      tag_44\n      jumpi\n      0x20\n      swap2\n      tag_298\n      dup8\n      dup5\n      swap4\n      dup8\n      add\n      tag_7\n      jump\t// in\n    tag_298:\n      dup2\n      mstore\n      add\n      swap2\n      add\n      swap1\n      jump(tag_293)\n    tag_14:\n      dup2\n      dup2\n      lt\n      tag_300\n      jumpi\n      pop\n      pop\n      jump\t// out\n    tag_300:\n      0x00\n      dup2\n      sstore\n      0x01\n      add\n      jump(tag_14)\n    tag_16:\n      swap1\n      dup1\n      0x20\n      swap4\n      swap3\n      dup2\n      dup5\n      mstore\n      dup5\n      dup5\n      add\n      calldatacopy\n      0x00\n      dup3\n      dup3\n      add\n      dup5\n      add\n      mstore\n      0x1f\n      add\n      not(0x1f)\n      and\n      add\n      add\n      swap1\n      jump\t// out\n\n    auxdata: 0xa2646970667358221220b01fc454b1a1e38927785ef23deafe39b1f3cd3de811bd159efce4303d8bb5d964736f6c634300081a0033\n}\n",
				"bytecode": {
					"linkReferences": {},
					"object": "60808060405234601557610fc9908161001a8239f35b5f80fdfe6080806040526004361015610012575f80fd5b5f3560e01c90816325d8c52814610a6057508063521397d1146109785763d1082c921461003d575f80fd5b3461097457610120366003190112610974576004356001600160401b0381116109745761006e903690600401610c35565b906024356001600160401b0381116109745761008e903690600401610c35565b6044939193356001600160401b038111610974576100b0903690600401610c35565b9190946064356001600160401b038111610974576100d2903690600401610e56565b909160a4356001600160401b038111610974576100f3903690600401610c35565b60e4929192356001600160401b03811161097457610115903690600401610e56565b9390926040519761012589610cde565b610130368c8e610d1b565b8952369061013d92610d1b565b6020880190815295610150368a8e610d1b565b9560408901968752369061016392610ef2565b906060880191825260808801926084358452369061018092610d1b565b9260a0880193845260c088019460c4358652369061019d92610ef2565b9460e088019586526101008801966101043588526040518b8d8237808c81015f815203602001902098518051906001600160401b038211610521576101e28b54610d7e565b601f8111610944575b50602090601f83116001146108e15761021b92915f9183610472575b50508160011b915f199060031b1c19161790565b89555b51805160018a01916001600160401b0382116105215761023e8354610d7e565b601f81116108b1575b50602090601f831160011461084e5761027692915f91836104725750508160011b915f199060031b1c19161790565b90555b51805160028901916001600160401b038211610521576102998354610d7e565b601f811161081e575b50602090601f83116001146107bb576102d192915f91836104725750508160011b915f199060031b1c19161790565b90555b5180516003880191600160401b8211610521578254828455808310610744575b50602001915f5260205f20915f905b82821061063f57505050505160048601556005850190518051906001600160401b038211610521576103358354610d7e565b601f811161060f575b50602090601f83116001146105ac5761036d92915f91836104725750508160011b915f199060031b1c19161790565b90555b5160068401555180516007840191600160401b8211610521578254828455808310610535575b50602001915f5260205f20915f905b828210610406577f24ce69f5a6c2d487d9987ea21c389d79f66f8a927f3268ee57592645c0dbe4a889896104018d8b8b60088c519101556103f3604051958695604087526040870191610f73565b918483036020860152610f73565b0390a1005b80518051906001600160401b038211610521576104238654610d7e565b601f81116104e6575b50602090601f831160011461047d5792610463836001959460209487965f926104725750508160011b915f199060031b1c19161790565b87555b019401910190926103a5565b015190505f80610207565b90601f19831691875f52815f20925f5b8181106104ce57509360209360019693879693838895106104b6575b505050811b018755610466565b01515f1960f88460031b161c191690555f80806104a9565b9293602060018192878601518155019501930161048d565b61051190875f5260205f20601f850160051c81019160208610610517575b601f0160051c0190610f5d565b5f61042c565b9091508190610504565b634e487b7160e01b5f52604160045260245ffd5b835f528260205f2091820191015b8181106105505750610396565b8061055d60019254610d7e565b8061056a575b5001610543565b601f8111831461057f57505f81555b5f610563565b61059b90825f5283601f60205f20920160051c82019101610f5d565b805f525f6020812081835555610579565b90601f19831691845f52815f20925f5b8181106105f757509084600195949392106105df575b505050811b019055610370565b01515f1960f88460031b161c191690555f80806105d2565b929360206001819287860151815501950193016105bc565b61063990845f5260205f20601f850160051c8101916020861061051757601f0160051c0190610f5d565b5f61033e565b80518051906001600160401b0382116105215761065c8654610d7e565b601f8111610714575b50602090601f83116001146106ab579261069c836001959460209487965f926104725750508160011b915f199060031b1c19161790565b87555b01940191019092610303565b90601f19831691875f52815f20925f5b8181106106fc57509360209360019693879693838895106106e4575b505050811b01875561069f565b01515f1960f88460031b161c191690555f80806106d7565b929360206001819287860151815501950193016106bb565b61073e90875f5260205f20601f850160051c8101916020861061051757601f0160051c0190610f5d565b5f610665565b835f528260205f2091820191015b81811061075f57506102f4565b8061076c60019254610d7e565b80610779575b5001610752565b601f8111831461078e57505f81555b5f610772565b6107aa90825f5283601f60205f20920160051c82019101610f5d565b805f525f6020812081835555610788565b90601f19831691845f52815f20925f5b81811061080657509084600195949392106107ee575b505050811b0190556102d4565b01515f1960f88460031b161c191690555f80806107e1565b929360206001819287860151815501950193016107cb565b61084890845f5260205f20601f850160051c8101916020861061051757601f0160051c0190610f5d565b5f6102a2565b90601f19831691845f52815f20925f5b8181106108995750908460019594939210610881575b505050811b019055610279565b01515f1960f88460031b161c191690555f8080610874565b9293602060018192878601518155019501930161085e565b6108db90845f5260205f20601f850160051c8101916020861061051757601f0160051c0190610f5d565b5f610247565b90601f198316918c5f52815f20925f5b81811061092c5750908460019594939210610914575b505050811b01895561021e565b01515f1960f88460031b161c191690555f8080610907565b929360206001819287860151815501950193016108f1565b61096e908c5f5260205f20601f850160051c8101916020861061051757601f0160051c0190610f5d565b5f6101eb565b5f80fd5b34610974576020366003190112610974576004356001600160401b038111610974576020806109ae610a22933690600401610d60565b604051928184925191829101835e81015f8152030190206109ce81610db6565b906109db60018201610db6565b610a516109ea60028401610db6565b600484015490610a3e6109ff60058701610db6565b91610a3060086006890154980154966040519a8b9a60e08c5260e08c0190610c62565b908a820360208c0152610c62565b9088820360408a0152610c62565b9160608701528582036080870152610c62565b9160a084015260c08301520390f35b34610974576020366003190112610974576004356001600160401b038111610974576101006020610c29935f610a9d610bbc953690600401610c35565b949092610aa981610cde565b6060815260608582015260606040820152606080820152826080820152606060a08201528260c0820152606060e0820152015282604051938492833781015f815203019020604051928391610afd83610cde565b610b0681610db6565b835282610c0f610b1860018401610db6565b60208301908152610b2b60028501610db6565b9060408401918252610bf6610b4260038701610e9d565b60608601908152610be360048801549460808801958652610bd0610b6860058b01610db6565b9560a08a01968752610100600860068d01549c60c08d019d8e5260e0610b9060078301610e9d565b9d019c8d5201549d019c8d526040519e8f9e8f9160208352516101206020840152610140830190610c62565b9151906040601f1982850301910152610c62565b90518c8203601f190160608e0152610c62565b90518a8203601f190160808c0152610c86565b915160a089015251878203601f190160c0890152610c62565b915160e086015251848203601f1901610100860152610c86565b90516101208301520390f35b9181601f84011215610974578235916001600160401b038311610974576020838186019501011161097457565b805180835260209291819084018484015e5f828201840152601f01601f1916010190565b9080602083519182815201916020808360051b8301019401925f915b838310610cb157505050505090565b9091929394602080610ccf600193601f198682030187528951610c62565b97019301930191939290610ca2565b61012081019081106001600160401b0382111761052157604052565b90601f801991011681019081106001600160401b0382111761052157604052565b9291926001600160401b0382116105215760405191610d44601f8201601f191660200184610cfa565b829481845281830111610974578281602093845f960137010152565b9080601f8301121561097457816020610d7b93359101610d1b565b90565b90600182811c92168015610dac575b6020831014610d9857565b634e487b7160e01b5f52602260045260245ffd5b91607f1691610d8d565b9060405191825f825492610dc984610d7e565b8084529360018116908115610e345750600114610df0575b50610dee92500383610cfa565b565b90505f9291925260205f20905f915b818310610e18575050906020610dee928201015f610de1565b6020919350806001915483858901015201910190918492610dff565b905060209250610dee94915060ff191682840152151560051b8201015f610de1565b9181601f84011215610974578235916001600160401b038311610974576020808501948460051b01011161097457565b6001600160401b0381116105215760051b60200190565b908154610ea981610e86565b92610eb76040519485610cfa565b81845260208401905f5260205f205f915b838310610ed55750505050565b600160208192610ee485610db6565b815201920192019190610ec8565b929190610efe81610e86565b93610f0c6040519586610cfa565b602085838152019160051b8101918383116109745781905b838210610f32575050505050565b81356001600160401b03811161097457602091610f528784938701610d60565b815201910190610f24565b818110610f68575050565b5f8155600101610f5d565b908060209392818452848401375f828201840152601f01601f191601019056fea2646970667358221220b01fc454b1a1e38927785ef23deafe39b1f3cd3de811bd159efce4303d8bb5d964736f6c634300081a0033",
					"opcodes": "PUSH1 0x80 DUP1 PUSH1 0x40 MSTORE CALLVALUE PUSH1 0x15 JUMPI PUSH2 0xFC9 SWAP1 DUP2 PUSH2 0x1A DUP3 CODECOPY RETURN JUMPDEST PUSH0 DUP1 REVERT INVALID PUSH1 0x80 DUP1 PUSH1 0x40 MSTORE PUSH1 0x4 CALLDATASIZE LT ISZERO PUSH2 0x12 JUMPI PUSH0 DUP1 REVERT JUMPDEST PUSH0 CALLDATALOAD PUSH1 0xE0 SHR SWAP1 DUP2 PUSH4 0x25D8C528 EQ PUSH2 0xA60 JUMPI POP DUP1 PUSH4 0x521397D1 EQ PUSH2 0x978 JUMPI PUSH4 0xD1082C92 EQ PUSH2 0x3D JUMPI PUSH0 DUP1 REVERT JUMPDEST CALLVALUE PUSH2 0x974 JUMPI PUSH2 0x120 CALLDATASIZE PUSH1 0x3 NOT ADD SLT PUSH2 0x974 JUMPI PUSH1 0x4 CALLDATALOAD PUSH1 0x1 PUSH1 0x1 PUSH1 0x40 SHL SUB DUP2 GT PUSH2 0x974 JUMPI PUSH2 0x6E SWAP1 CALLDATASIZE SWAP1 PUSH1 0x4 ADD PUSH2 0xC35 JUMP JUMPDEST SWAP1 PUSH1 0x24 CALLDATALOAD PUSH1 0x1 PUSH1 0x1 PUSH1 0x40 SHL SUB DUP2 GT PUSH2 0x974 JUMPI PUSH2 0x8E SWAP1 CALLDATASIZE SWAP1 PUSH1 0x4 ADD PUSH2 0xC35 JUMP JUMPDEST PUSH1 0x44 SWAP4 SWAP2 SWAP4 CALLDATALOAD PUSH1 0x1 PUSH1 0x1 PUSH1 0x40 SHL SUB DUP2 GT PUSH2 0x974 JUMPI PUSH2 0xB0 SWAP1 CALLDATASIZE SWAP1 PUSH1 0x4 ADD PUSH2 0xC35 JUMP JUMPDEST SWAP2 SWAP1 SWAP5 PUSH1 0x64 CALLDATALOAD PUSH1 0x1 PUSH1 0x1 PUSH1 0x40 SHL SUB DUP2 GT PUSH2 0x974 JUMPI PUSH2 0xD2 SWAP1 CALLDATASIZE SWAP1 PUSH1 0x4 ADD PUSH2 0xE56 JUMP JUMPDEST SWAP1 SWAP2 PUSH1 0xA4 CALLDATALOAD PUSH1 0x1 PUSH1 0x1 PUSH1 0x40 SHL SUB DUP2 GT PUSH2 0x974 JUMPI PUSH2 0xF3 SWAP1 CALLDATASIZE SWAP1 PUSH1 0x4 ADD PUSH2 0xC35 JUMP JUMPDEST PUSH1 0xE4 SWAP3 SWAP2 SWAP3 CALLDATALOAD PUSH1 0x1 PUSH1 0x1 PUSH1 0x40 SHL SUB DUP2 GT PUSH2 0x974 JUMPI PUSH2 0x115 SWAP1 CALLDATASIZE SWAP1 PUSH1 0x4 ADD PUSH2 0xE56 JUMP JUMPDEST SWAP4 SWAP1 SWAP3 PUSH1 0x40 MLOAD SWAP8 PUSH2 0x125 DUP10 PUSH2 0xCDE JUMP JUMPDEST PUSH2 0x130 CALLDATASIZE DUP13 DUP15 PUSH2 0xD1B JUMP JUMPDEST DUP10 MSTORE CALLDATASIZE SWAP1 PUSH2 0x13D SWAP3 PUSH2 0xD1B JUMP JUMPDEST PUSH1 0x20 DUP9 ADD SWAP1 DUP2 MSTORE SWAP6 PUSH2 0x150 CALLDATASIZE DUP11 DUP15 PUSH2 0xD1B JUMP JUMPDEST SWAP6 PUSH1 0x40 DUP10 ADD SWAP7 DUP8 MSTORE CALLDATASIZE SWAP1 PUSH2 0x163 SWAP3 PUSH2 0xEF2 JUMP JUMPDEST SWAP1 PUSH1 0x60 DUP9 ADD SWAP2 DUP3 MSTORE PUSH1 0x80 DUP9 ADD SWAP3 PUSH1 0x84 CALLDATALOAD DUP5 MSTORE CALLDATASIZE SWAP1 PUSH2 0x180 SWAP3 PUSH2 0xD1B JUMP JUMPDEST SWAP3 PUSH1 0xA0 DUP9 ADD SWAP4 DUP5 MSTORE PUSH1 0xC0 DUP9 ADD SWAP5 PUSH1 0xC4 CALLDATALOAD DUP7 MSTORE CALLDATASIZE SWAP1 PUSH2 0x19D SWAP3 PUSH2 0xEF2 JUMP JUMPDEST SWAP5 PUSH1 0xE0 DUP9 ADD SWAP6 DUP7 MSTORE PUSH2 0x100 DUP9 ADD SWAP7 PUSH2 0x104 CALLDATALOAD DUP9 MSTORE PUSH1 0x40 MLOAD DUP12 DUP14 DUP3 CALLDATACOPY DUP1 DUP13 DUP2 ADD PUSH0 DUP2 MSTORE SUB PUSH1 0x20 ADD SWAP1 KECCAK256 SWAP9 MLOAD DUP1 MLOAD SWAP1 PUSH1 0x1 PUSH1 0x1 PUSH1 0x40 SHL SUB DUP3 GT PUSH2 0x521 JUMPI PUSH2 0x1E2 DUP12 SLOAD PUSH2 0xD7E JUMP JUMPDEST PUSH1 0x1F DUP2 GT PUSH2 0x944 JUMPI JUMPDEST POP PUSH1 0x20 SWAP1 PUSH1 0x1F DUP4 GT PUSH1 0x1 EQ PUSH2 0x8E1 JUMPI PUSH2 0x21B SWAP3 SWAP2 PUSH0 SWAP2 DUP4 PUSH2 0x472 JUMPI JUMPDEST POP POP DUP2 PUSH1 0x1 SHL SWAP2 PUSH0 NOT SWAP1 PUSH1 0x3 SHL SHR NOT AND OR SWAP1 JUMP JUMPDEST DUP10 SSTORE JUMPDEST MLOAD DUP1 MLOAD PUSH1 0x1 DUP11 ADD SWAP2 PUSH1 0x1 PUSH1 0x1 PUSH1 0x40 SHL SUB DUP3 GT PUSH2 0x521 JUMPI PUSH2 0x23E DUP4 SLOAD PUSH2 0xD7E JUMP JUMPDEST PUSH1 0x1F DUP2 GT PUSH2 0x8B1 JUMPI JUMPDEST POP PUSH1 0x20 SWAP1 PUSH1 0x1F DUP4 GT PUSH1 0x1 EQ PUSH2 0x84E JUMPI PUSH2 0x276 SWAP3 SWAP2 PUSH0 SWAP2 DUP4 PUSH2 0x472 JUMPI POP POP DUP2 PUSH1 0x1 SHL SWAP2 PUSH0 NOT SWAP1 PUSH1 0x3 SHL SHR NOT AND OR SWAP1 JUMP JUMPDEST SWAP1 SSTORE JUMPDEST MLOAD DUP1 MLOAD PUSH1 0x2 DUP10 ADD SWAP2 PUSH1 0x1 PUSH1 0x1 PUSH1 0x40 SHL SUB DUP3 GT PUSH2 0x521 JUMPI PUSH2 0x299 DUP4 SLOAD PUSH2 0xD7E JUMP JUMPDEST PUSH1 0x1F DUP2 GT PUSH2 0x81E JUMPI JUMPDEST POP PUSH1 0x20 SWAP1 PUSH1 0x1F DUP4 GT PUSH1 0x1 EQ PUSH2 0x7BB JUMPI PUSH2 0x2D1 SWAP3 SWAP2 PUSH0 SWAP2 DUP4 PUSH2 0x472 JUMPI POP POP DUP2 PUSH1 0x1 SHL SWAP2 PUSH0 NOT SWAP1 PUSH1 0x3 SHL SHR NOT AND OR SWAP1 JUMP JUMPDEST SWAP1 SSTORE JUMPDEST MLOAD DUP1 MLOAD PUSH1 0x3 DUP9 ADD SWAP2 PUSH1 0x1 PUSH1 0x40 SHL DUP3 GT PUSH2 0x521 JUMPI DUP3 SLOAD DUP3 DUP5 SSTORE DUP1 DUP4 LT PUSH2 0x744 JUMPI JUMPDEST POP PUSH1 0x20 ADD SWAP2 PUSH0 MSTORE PUSH1 0x20 PUSH0 KECCAK256 SWAP2 PUSH0 SWAP1 JUMPDEST DUP3 DUP3 LT PUSH2 0x63F JUMPI POP POP POP POP MLOAD PUSH1 0x4 DUP7 ADD SSTORE PUSH1 0x5 DUP6 ADD SWAP1 MLOAD DUP1 MLOAD SWAP1 PUSH1 0x1 PUSH1 0x1 PUSH1 0x40 SHL SUB DUP3 GT PUSH2 0x521 JUMPI PUSH2 0x335 DUP4 SLOAD PUSH2 0xD7E JUMP JUMPDEST PUSH1 0x1F DUP2 GT PUSH2 0x60F JUMPI JUMPDEST POP PUSH1 0x20 SWAP1 PUSH1 0x1F DUP4 GT PUSH1 0x1 EQ PUSH2 0x5AC JUMPI PUSH2 0x36D SWAP3 SWAP2 PUSH0 SWAP2 DUP4 PUSH2 0x472 JUMPI POP POP DUP2 PUSH1 0x1 SHL SWAP2 PUSH0 NOT SWAP1 PUSH1 0x3 SHL SHR NOT AND OR SWAP1 JUMP JUMPDEST SWAP1 SSTORE JUMPDEST MLOAD PUSH1 0x6 DUP5 ADD SSTORE MLOAD DUP1 MLOAD PUSH1 0x7 DUP5 ADD SWAP2 PUSH1 0x1 PUSH1 0x40 SHL DUP3 GT PUSH2 0x521 JUMPI DUP3 SLOAD DUP3 DUP5 SSTORE DUP1 DUP4 LT PUSH2 0x535 JUMPI JUMPDEST POP PUSH1 0x20 ADD SWAP2 PUSH0 MSTORE PUSH1 0x20 PUSH0 KECCAK256 SWAP2 PUSH0 SWAP1 JUMPDEST DUP3 DUP3 LT PUSH2 0x406 JUMPI PUSH32 0x24CE69F5A6C2D487D9987EA21C389D79F66F8A927F3268EE57592645C0DBE4A8 DUP10 DUP10 PUSH2 0x401 DUP14 DUP12 DUP12 PUSH1 0x8 DUP13 MLOAD SWAP2 ADD SSTORE PUSH2 0x3F3 PUSH1 0x40 MLOAD SWAP6 DUP7 SWAP6 PUSH1 0x40 DUP8 MSTORE PUSH1 0x40 DUP8 ADD SWAP2 PUSH2 0xF73 JUMP JUMPDEST SWAP2 DUP5 DUP4 SUB PUSH1 0x20 DUP7 ADD MSTORE PUSH2 0xF73 JUMP JUMPDEST SUB SWAP1 LOG1 STOP JUMPDEST DUP1 MLOAD DUP1 MLOAD SWAP1 PUSH1 0x1 PUSH1 0x1 PUSH1 0x40 SHL SUB DUP3 GT PUSH2 0x521 JUMPI PUSH2 0x423 DUP7 SLOAD PUSH2 0xD7E JUMP JUMPDEST PUSH1 0x1F DUP2 GT PUSH2 0x4E6 JUMPI JUMPDEST POP PUSH1 0x20 SWAP1 PUSH1 0x1F DUP4 GT PUSH1 0x1 EQ PUSH2 0x47D JUMPI SWAP3 PUSH2 0x463 DUP4 PUSH1 0x1 SWAP6 SWAP5 PUSH1 0x20 SWAP5 DUP8 SWAP7 PUSH0 SWAP3 PUSH2 0x472 JUMPI POP POP DUP2 PUSH1 0x1 SHL SWAP2 PUSH0 NOT SWAP1 PUSH1 0x3 SHL SHR NOT AND OR SWAP1 JUMP JUMPDEST DUP8 SSTORE JUMPDEST ADD SWAP5 ADD SWAP2 ADD SWAP1 SWAP3 PUSH2 0x3A5 JUMP JUMPDEST ADD MLOAD SWAP1 POP PUSH0 DUP1 PUSH2 0x207 JUMP JUMPDEST SWAP1 PUSH1 0x1F NOT DUP4 AND SWAP2 DUP8 PUSH0 MSTORE DUP2 PUSH0 KECCAK256 SWAP3 PUSH0 JUMPDEST DUP2 DUP2 LT PUSH2 0x4CE JUMPI POP SWAP4 PUSH1 0x20 SWAP4 PUSH1 0x1 SWAP7 SWAP4 DUP8 SWAP7 SWAP4 DUP4 DUP9 SWAP6 LT PUSH2 0x4B6 JUMPI JUMPDEST POP POP POP DUP2 SHL ADD DUP8 SSTORE PUSH2 0x466 JUMP JUMPDEST ADD MLOAD PUSH0 NOT PUSH1 0xF8 DUP5 PUSH1 0x3 SHL AND SHR NOT AND SWAP1 SSTORE PUSH0 DUP1 DUP1 PUSH2 0x4A9 JUMP JUMPDEST SWAP3 SWAP4 PUSH1 0x20 PUSH1 0x1 DUP2 SWAP3 DUP8 DUP7 ADD MLOAD DUP2 SSTORE ADD SWAP6 ADD SWAP4 ADD PUSH2 0x48D JUMP JUMPDEST PUSH2 0x511 SWAP1 DUP8 PUSH0 MSTORE PUSH1 0x20 PUSH0 KECCAK256 PUSH1 0x1F DUP6 ADD PUSH1 0x5 SHR DUP2 ADD SWAP2 PUSH1 0x20 DUP7 LT PUSH2 0x517 JUMPI JUMPDEST PUSH1 0x1F ADD PUSH1 0x5 SHR ADD SWAP1 PUSH2 0xF5D JUMP JUMPDEST PUSH0 PUSH2 0x42C JUMP JUMPDEST SWAP1 SWAP2 POP DUP2 SWAP1 PUSH2 0x504 JUMP JUMPDEST PUSH4 0x4E487B71 PUSH1 0xE0 SHL PUSH0 MSTORE PUSH1 0x41 PUSH1 0x4 MSTORE PUSH1 0x24 PUSH0 REVERT JUMPDEST DUP4 PUSH0 MSTORE DUP3 PUSH1 0x20 PUSH0 KECCAK256 SWAP2 DUP3 ADD SWAP2 ADD JUMPDEST DUP2 DUP2 LT PUSH2 0x550 JUMPI POP PUSH2 0x396 JUMP JUMPDEST DUP1 PUSH2 0x55D PUSH1 0x1 SWAP3 SLOAD PUSH2 0xD7E JUMP JUMPDEST DUP1 PUSH2 0x56A JUMPI JUMPDEST POP ADD PUSH2 0x543 JUMP JUMPDEST PUSH1 0x1F DUP2 GT DUP4 EQ PUSH2 0x57F JUMPI POP PUSH0 DUP2 SSTORE JUMPDEST PUSH0 PUSH2 0x563 JUMP JUMPDEST PUSH2 0x59B SWAP1 DUP3 PUSH0 MSTORE DUP4 PUSH1 0x1F PUSH1 0x20 PUSH0 KECCAK256 SWAP3 ADD PUSH1 0x5 SHR DUP3 ADD SWAP2 ADD PUSH2 0xF5D JUMP JUMPDEST DUP1 PUSH0 MSTORE PUSH0 PUSH1 0x20 DUP2 KECCAK256 DUP2 DUP4 SSTORE SSTORE PUSH2 0x579 JUMP JUMPDEST SWAP1 PUSH1 0x1F NOT DUP4 AND SWAP2 DUP5 PUSH0 MSTORE DUP2 PUSH0 KECCAK256 SWAP3 PUSH0 JUMPDEST DUP2 DUP2 LT PUSH2 0x5F7 JUMPI POP SWAP1 DUP5 PUSH1 0x1 SWAP6 SWAP5 SWAP4 SWAP3 LT PUSH2 0x5DF JUMPI JUMPDEST POP POP POP DUP2 SHL ADD SWAP1 SSTORE PUSH2 0x370 JUMP JUMPDEST ADD MLOAD PUSH0 NOT PUSH1 0xF8 DUP5 PUSH1 0x3 SHL AND SHR NOT AND SWAP1 SSTORE PUSH0 DUP1 DUP1 PUSH2 0x5D2 JUMP JUMPDEST SWAP3 SWAP4 PUSH1 0x20 PUSH1 0x1 DUP2 SWAP3 DUP8 DUP7 ADD MLOAD DUP2 SSTORE ADD SWAP6 ADD SWAP4 ADD PUSH2 0x5BC JUMP JUMPDEST PUSH2 0x639 SWAP1 DUP5 PUSH0 MSTORE PUSH1 0x20 PUSH0 KECCAK256 PUSH1 0x1F DUP6 ADD PUSH1 0x5 SHR DUP2 ADD SWAP2 PUSH1 0x20 DUP7 LT PUSH2 0x517 JUMPI PUSH1 0x1F ADD PUSH1 0x5 SHR ADD SWAP1 PUSH2 0xF5D JUMP JUMPDEST PUSH0 PUSH2 0x33E JUMP JUMPDEST DUP1 MLOAD DUP1 MLOAD SWAP1 PUSH1 0x1 PUSH1 0x1 PUSH1 0x40 SHL SUB DUP3 GT PUSH2 0x521 JUMPI PUSH2 0x65C DUP7 SLOAD PUSH2 0xD7E JUMP JUMPDEST PUSH1 0x1F DUP2 GT PUSH2 0x714 JUMPI JUMPDEST POP PUSH1 0x20 SWAP1 PUSH1 0x1F DUP4 GT PUSH1 0x1 EQ PUSH2 0x6AB JUMPI SWAP3 PUSH2 0x69C DUP4 PUSH1 0x1 SWAP6 SWAP5 PUSH1 0x20 SWAP5 DUP8 SWAP7 PUSH0 SWAP3 PUSH2 0x472 JUMPI POP POP DUP2 PUSH1 0x1 SHL SWAP2 PUSH0 NOT SWAP1 PUSH1 0x3 SHL SHR NOT AND OR SWAP1 JUMP JUMPDEST DUP8 SSTORE JUMPDEST ADD SWAP5 ADD SWAP2 ADD SWAP1 SWAP3 PUSH2 0x303 JUMP JUMPDEST SWAP1 PUSH1 0x1F NOT DUP4 AND SWAP2 DUP8 PUSH0 MSTORE DUP2 PUSH0 KECCAK256 SWAP3 PUSH0 JUMPDEST DUP2 DUP2 LT PUSH2 0x6FC JUMPI POP SWAP4 PUSH1 0x20 SWAP4 PUSH1 0x1 SWAP7 SWAP4 DUP8 SWAP7 SWAP4 DUP4 DUP9 SWAP6 LT PUSH2 0x6E4 JUMPI JUMPDEST POP POP POP DUP2 SHL ADD DUP8 SSTORE PUSH2 0x69F JUMP JUMPDEST ADD MLOAD PUSH0 NOT PUSH1 0xF8 DUP5 PUSH1 0x3 SHL AND SHR NOT AND SWAP1 SSTORE PUSH0 DUP1 DUP1 PUSH2 0x6D7 JUMP JUMPDEST SWAP3 SWAP4 PUSH1 0x20 PUSH1 0x1 DUP2 SWAP3 DUP8 DUP7 ADD MLOAD DUP2 SSTORE ADD SWAP6 ADD SWAP4 ADD PUSH2 0x6BB JUMP JUMPDEST PUSH2 0x73E SWAP1 DUP8 PUSH0 MSTORE PUSH1 0x20 PUSH0 KECCAK256 PUSH1 0x1F DUP6 ADD PUSH1 0x5 SHR DUP2 ADD SWAP2 PUSH1 0x20 DUP7 LT PUSH2 0x517 JUMPI PUSH1 0x1F ADD PUSH1 0x5 SHR ADD SWAP1 PUSH2 0xF5D JUMP JUMPDEST PUSH0 PUSH2 0x665 JUMP JUMPDEST DUP4 PUSH0 MSTORE DUP3 PUSH1 0x20 PUSH0 KECCAK256 SWAP2 DUP3 ADD SWAP2 ADD JUMPDEST DUP2 DUP2 LT PUSH2 0x75F JUMPI POP PUSH2 0x2F4 JUMP JUMPDEST DUP1 PUSH2 0x76C PUSH1 0x1 SWAP3 SLOAD PUSH2 0xD7E JUMP JUMPDEST DUP1 PUSH2 0x779 JUMPI JUMPDEST POP ADD PUSH2 0x752 JUMP JUMPDEST PUSH1 0x1F DUP2 GT DUP4 EQ PUSH2 0x78E JUMPI POP PUSH0 DUP2 SSTORE JUMPDEST PUSH0 PUSH2 0x772 JUMP JUMPDEST PUSH2 0x7AA SWAP1 DUP3 PUSH0 MSTORE DUP4 PUSH1 0x1F PUSH1 0x20 PUSH0 KECCAK256 SWAP3 ADD PUSH1 0x5 SHR DUP3 ADD SWAP2 ADD PUSH2 0xF5D JUMP JUMPDEST DUP1 PUSH0 MSTORE PUSH0 PUSH1 0x20 DUP2 KECCAK256 DUP2 DUP4 SSTORE SSTORE PUSH2 0x788 JUMP JUMPDEST SWAP1 PUSH1 0x1F NOT DUP4 AND SWAP2 DUP5 PUSH0 MSTORE DUP2 PUSH0 KECCAK256 SWAP3 PUSH0 JUMPDEST DUP2 DUP2 LT PUSH2 0x806 JUMPI POP SWAP1 DUP5 PUSH1 0x1 SWAP6 SWAP5 SWAP4 SWAP3 LT PUSH2 0x7EE JUMPI JUMPDEST POP POP POP DUP2 SHL ADD SWAP1 SSTORE PUSH2 0x2D4 JUMP JUMPDEST ADD MLOAD PUSH0 NOT PUSH1 0xF8 DUP5 PUSH1 0x3 SHL AND SHR NOT AND SWAP1 SSTORE PUSH0 DUP1 DUP1 PUSH2 0x7E1 JUMP JUMPDEST SWAP3 SWAP4 PUSH1 0x20 PUSH1 0x1 DUP2 SWAP3 DUP8 DUP7 ADD MLOAD DUP2 SSTORE ADD SWAP6 ADD SWAP4 ADD PUSH2 0x7CB JUMP JUMPDEST PUSH2 0x848 SWAP1 DUP5 PUSH0 MSTORE PUSH1 0x20 PUSH0 KECCAK256 PUSH1 0x1F DUP6 ADD PUSH1 0x5 SHR DUP2 ADD SWAP2 PUSH1 0x20 DUP7 LT PUSH2 0x517 JUMPI PUSH1 0x1F ADD PUSH1 0x5 SHR ADD SWAP1 PUSH2 0xF5D JUMP JUMPDEST PUSH0 PUSH2 0x2A2 JUMP JUMPDEST SWAP1 PUSH1 0x1F NOT DUP4 AND SWAP2 DUP5 PUSH0 MSTORE DUP2 PUSH0 KECCAK256 SWAP3 PUSH0 JUMPDEST DUP2 DUP2 LT PUSH2 0x899 JUMPI POP SWAP1 DUP5 PUSH1 0x1 SWAP6 SWAP5 SWAP4 SWAP3 LT PUSH2 0x881 JUMPI JUMPDEST POP POP POP DUP2 SHL ADD SWAP1 SSTORE PUSH2 0x279 JUMP JUMPDEST ADD MLOAD PUSH0 NOT PUSH1 0xF8 DUP5 PUSH1 0x3 SHL AND SHR NOT AND SWAP1 SSTORE PUSH0 DUP1 DUP1 PUSH2 0x874 JUMP JUMPDEST SWAP3 SWAP4 PUSH1 0x20 PUSH1 0x1 DUP2 SWAP3 DUP8 DUP7 ADD MLOAD DUP2 SSTORE ADD SWAP6 ADD SWAP4 ADD PUSH2 0x85E JUMP JUMPDEST PUSH2 0x8DB SWAP1 DUP5 PUSH0 MSTORE PUSH1 0x20 PUSH0 KECCAK256 PUSH1 0x1F DUP6 ADD PUSH1 0x5 SHR DUP2 ADD SWAP2 PUSH1 0x20 DUP7 LT PUSH2 0x517 JUMPI PUSH1 0x1F ADD PUSH1 0x5 SHR ADD SWAP1 PUSH2 0xF5D JUMP JUMPDEST PUSH0 PUSH2 0x247 JUMP JUMPDEST SWAP1 PUSH1 0x1F NOT DUP4 AND SWAP2 DUP13 PUSH0 MSTORE DUP2 PUSH0 KECCAK256 SWAP3 PUSH0 JUMPDEST DUP2 DUP2 LT PUSH2 0x92C JUMPI POP SWAP1 DUP5 PUSH1 0x1 SWAP6 SWAP5 SWAP4 SWAP3 LT PUSH2 0x914 JUMPI JUMPDEST POP POP POP DUP2 SHL ADD DUP10 SSTORE PUSH2 0x21E JUMP JUMPDEST ADD MLOAD PUSH0 NOT PUSH1 0xF8 DUP5 PUSH1 0x3 SHL AND SHR NOT AND SWAP1 SSTORE PUSH0 DUP1 DUP1 PUSH2 0x907 JUMP JUMPDEST SWAP3 SWAP4 PUSH1 0x20 PUSH1 0x1 DUP2 SWAP3 DUP8 DUP7 ADD MLOAD DUP2 SSTORE ADD SWAP6 ADD SWAP4 ADD PUSH2 0x8F1 JUMP JUMPDEST PUSH2 0x96E SWAP1 DUP13 PUSH0 MSTORE PUSH1 0x20 PUSH0 KECCAK256 PUSH1 0x1F DUP6 ADD PUSH1 0x5 SHR DUP2 ADD SWAP2 PUSH1 0x20 DUP7 LT PUSH2 0x517 JUMPI PUSH1 0x1F ADD PUSH1 0x5 SHR ADD SWAP1 PUSH2 0xF5D JUMP JUMPDEST PUSH0 PUSH2 0x1EB JUMP JUMPDEST PUSH0 DUP1 REVERT JUMPDEST CALLVALUE PUSH2 0x974 JUMPI PUSH1 0x20 CALLDATASIZE PUSH1 0x3 NOT ADD SLT PUSH2 0x974 JUMPI PUSH1 0x4 CALLDATALOAD PUSH1 0x1 PUSH1 0x1 PUSH1 0x40 SHL SUB DUP2 GT PUSH2 0x974 JUMPI PUSH1 0x20 DUP1 PUSH2 0x9AE PUSH2 0xA22 SWAP4 CALLDATASIZE SWAP1 PUSH1 0x4 ADD PUSH2 0xD60 JUMP JUMPDEST PUSH1 0x40 MLOAD SWAP3 DUP2 DUP5 SWAP3 MLOAD SWAP2 DUP3 SWAP2 ADD DUP4 MCOPY DUP2 ADD PUSH0 DUP2 MSTORE SUB ADD SWAP1 KECCAK256 PUSH2 0x9CE DUP2 PUSH2 0xDB6 JUMP JUMPDEST SWAP1 PUSH2 0x9DB PUSH1 0x1 DUP3 ADD PUSH2 0xDB6 JUMP JUMPDEST PUSH2 0xA51 PUSH2 0x9EA PUSH1 0x2 DUP5 ADD PUSH2 0xDB6 JUMP JUMPDEST PUSH1 0x4 DUP5 ADD SLOAD SWAP1 PUSH2 0xA3E PUSH2 0x9FF PUSH1 0x5 DUP8 ADD PUSH2 0xDB6 JUMP JUMPDEST SWAP2 PUSH2 0xA30 PUSH1 0x8 PUSH1 0x6 DUP10 ADD SLOAD SWAP9 ADD SLOAD SWAP7 PUSH1 0x40 MLOAD SWAP11 DUP12 SWAP11 PUSH1 0xE0 DUP13 MSTORE PUSH1 0xE0 DUP13 ADD SWAP1 PUSH2 0xC62 JUMP JUMPDEST SWAP1 DUP11 DUP3 SUB PUSH1 0x20 DUP13 ADD MSTORE PUSH2 0xC62 JUMP JUMPDEST SWAP1 DUP9 DUP3 SUB PUSH1 0x40 DUP11 ADD MSTORE PUSH2 0xC62 JUMP JUMPDEST SWAP2 PUSH1 0x60 DUP8 ADD MSTORE DUP6 DUP3 SUB PUSH1 0x80 DUP8 ADD MSTORE PUSH2 0xC62 JUMP JUMPDEST SWAP2 PUSH1 0xA0 DUP5 ADD MSTORE PUSH1 0xC0 DUP4 ADD MSTORE SUB SWAP1 RETURN JUMPDEST CALLVALUE PUSH2 0x974 JUMPI PUSH1 0x20 CALLDATASIZE PUSH1 0x3 NOT ADD SLT PUSH2 0x974 JUMPI PUSH1 0x4 CALLDATALOAD PUSH1 0x1 PUSH1 0x1 PUSH1 0x40 SHL SUB DUP2 GT PUSH2 0x974 JUMPI PUSH2 0x100 PUSH1 0x20 PUSH2 0xC29 SWAP4 PUSH0 PUSH2 0xA9D PUSH2 0xBBC SWAP6 CALLDATASIZE SWAP1 PUSH1 0x4 ADD PUSH2 0xC35 JUMP JUMPDEST SWAP5 SWAP1 SWAP3 PUSH2 0xAA9 DUP2 PUSH2 0xCDE JUMP JUMPDEST PUSH1 0x60 DUP2 MSTORE PUSH1 0x60 DUP6 DUP3 ADD MSTORE PUSH1 0x60 PUSH1 0x40 DUP3 ADD MSTORE PUSH1 0x60 DUP1 DUP3 ADD MSTORE DUP3 PUSH1 0x80 DUP3 ADD MSTORE PUSH1 0x60 PUSH1 0xA0 DUP3 ADD MSTORE DUP3 PUSH1 0xC0 DUP3 ADD MSTORE PUSH1 0x60 PUSH1 0xE0 DUP3 ADD MSTORE ADD MSTORE DUP3 PUSH1 0x40 MLOAD SWAP4 DUP5 SWAP3 DUP4 CALLDATACOPY DUP2 ADD PUSH0 DUP2 MSTORE SUB ADD SWAP1 KECCAK256 PUSH1 0x40 MLOAD SWAP3 DUP4 SWAP2 PUSH2 0xAFD DUP4 PUSH2 0xCDE JUMP JUMPDEST PUSH2 0xB06 DUP2 PUSH2 0xDB6 JUMP JUMPDEST DUP4 MSTORE DUP3 PUSH2 0xC0F PUSH2 0xB18 PUSH1 0x1 DUP5 ADD PUSH2 0xDB6 JUMP JUMPDEST PUSH1 0x20 DUP4 ADD SWAP1 DUP2 MSTORE PUSH2 0xB2B PUSH1 0x2 DUP6 ADD PUSH2 0xDB6 JUMP JUMPDEST SWAP1 PUSH1 0x40 DUP5 ADD SWAP2 DUP3 MSTORE PUSH2 0xBF6 PUSH2 0xB42 PUSH1 0x3 DUP8 ADD PUSH2 0xE9D JUMP JUMPDEST PUSH1 0x60 DUP7 ADD SWAP1 DUP2 MSTORE PUSH2 0xBE3 PUSH1 0x4 DUP9 ADD SLOAD SWAP5 PUSH1 0x80 DUP9 ADD SWAP6 DUP7 MSTORE PUSH2 0xBD0 PUSH2 0xB68 PUSH1 0x5 DUP12 ADD PUSH2 0xDB6 JUMP JUMPDEST SWAP6 PUSH1 0xA0 DUP11 ADD SWAP7 DUP8 MSTORE PUSH2 0x100 PUSH1 0x8 PUSH1 0x6 DUP14 ADD SLOAD SWAP13 PUSH1 0xC0 DUP14 ADD SWAP14 DUP15 MSTORE PUSH1 0xE0 PUSH2 0xB90 PUSH1 0x7 DUP4 ADD PUSH2 0xE9D JUMP JUMPDEST SWAP14 ADD SWAP13 DUP14 MSTORE ADD SLOAD SWAP14 ADD SWAP13 DUP14 MSTORE PUSH1 0x40 MLOAD SWAP15 DUP16 SWAP15 DUP16 SWAP2 PUSH1 0x20 DUP4 MSTORE MLOAD PUSH2 0x120 PUSH1 0x20 DUP5 ADD MSTORE PUSH2 0x140 DUP4 ADD SWAP1 PUSH2 0xC62 JUMP JUMPDEST SWAP2 MLOAD SWAP1 PUSH1 0x40 PUSH1 0x1F NOT DUP3 DUP6 SUB ADD SWAP2 ADD MSTORE PUSH2 0xC62 JUMP JUMPDEST SWAP1 MLOAD DUP13 DUP3 SUB PUSH1 0x1F NOT ADD PUSH1 0x60 DUP15 ADD MSTORE PUSH2 0xC62 JUMP JUMPDEST SWAP1 MLOAD DUP11 DUP3 SUB PUSH1 0x1F NOT ADD PUSH1 0x80 DUP13 ADD MSTORE PUSH2 0xC86 JUMP JUMPDEST SWAP2 MLOAD PUSH1 0xA0 DUP10 ADD MSTORE MLOAD DUP8 DUP3 SUB PUSH1 0x1F NOT ADD PUSH1 0xC0 DUP10 ADD MSTORE PUSH2 0xC62 JUMP JUMPDEST SWAP2 MLOAD PUSH1 0xE0 DUP7 ADD MSTORE MLOAD DUP5 DUP3 SUB PUSH1 0x1F NOT ADD PUSH2 0x100 DUP7 ADD MSTORE PUSH2 0xC86 JUMP JUMPDEST SWAP1 MLOAD PUSH2 0x120 DUP4 ADD MSTORE SUB SWAP1 RETURN JUMPDEST SWAP2 DUP2 PUSH1 0x1F DUP5 ADD SLT ISZERO PUSH2 0x974 JUMPI DUP3 CALLDATALOAD SWAP2 PUSH1 0x1 PUSH1 0x1 PUSH1 0x40 SHL SUB DUP4 GT PUSH2 0x974 JUMPI PUSH1 0x20 DUP4 DUP2 DUP7 ADD SWAP6 ADD ADD GT PUSH2 0x974 JUMPI JUMP JUMPDEST DUP1 MLOAD DUP1 DUP4 MSTORE PUSH1 0x20 SWAP3 SWAP2 DUP2 SWAP1 DUP5 ADD DUP5 DUP5 ADD MCOPY PUSH0 DUP3 DUP3 ADD DUP5 ADD MSTORE PUSH1 0x1F ADD PUSH1 0x1F NOT AND ADD ADD SWAP1 JUMP JUMPDEST SWAP1 DUP1 PUSH1 0x20 DUP4 MLOAD SWAP2 DUP3 DUP2 MSTORE ADD SWAP2 PUSH1 0x20 DUP1 DUP4 PUSH1 0x5 SHL DUP4 ADD ADD SWAP5 ADD SWAP3 PUSH0 SWAP2 JUMPDEST DUP4 DUP4 LT PUSH2 0xCB1 JUMPI POP POP POP POP POP SWAP1 JUMP JUMPDEST SWAP1 SWAP2 SWAP3 SWAP4 SWAP5 PUSH1 0x20 DUP1 PUSH2 0xCCF PUSH1 0x1 SWAP4 PUSH1 0x1F NOT DUP7 DUP3 SUB ADD DUP8 MSTORE DUP10 MLOAD PUSH2 0xC62 JUMP JUMPDEST SWAP8 ADD SWAP4 ADD SWAP4 ADD SWAP2 SWAP4 SWAP3 SWAP1 PUSH2 0xCA2 JUMP JUMPDEST PUSH2 0x120 DUP2 ADD SWAP1 DUP2 LT PUSH1 0x1 PUSH1 0x1 PUSH1 0x40 SHL SUB DUP3 GT OR PUSH2 0x521 JUMPI PUSH1 0x40 MSTORE JUMP JUMPDEST SWAP1 PUSH1 0x1F DUP1 NOT SWAP2 ADD AND DUP2 ADD SWAP1 DUP2 LT PUSH1 0x1 PUSH1 0x1 PUSH1 0x40 SHL SUB DUP3 GT OR PUSH2 0x521 JUMPI PUSH1 0x40 MSTORE JUMP JUMPDEST SWAP3 SWAP2 SWAP3 PUSH1 0x1 PUSH1 0x1 PUSH1 0x40 SHL SUB DUP3 GT PUSH2 0x521 JUMPI PUSH1 0x40 MLOAD SWAP2 PUSH2 0xD44 PUSH1 0x1F DUP3 ADD PUSH1 0x1F NOT AND PUSH1 0x20 ADD DUP5 PUSH2 0xCFA JUMP JUMPDEST DUP3 SWAP5 DUP2 DUP5 MSTORE DUP2 DUP4 ADD GT PUSH2 0x974 JUMPI DUP3 DUP2 PUSH1 0x20 SWAP4 DUP5 PUSH0 SWAP7 ADD CALLDATACOPY ADD ADD MSTORE JUMP JUMPDEST SWAP1 DUP1 PUSH1 0x1F DUP4 ADD SLT ISZERO PUSH2 0x974 JUMPI DUP2 PUSH1 0x20 PUSH2 0xD7B SWAP4 CALLDATALOAD SWAP2 ADD PUSH2 0xD1B JUMP JUMPDEST SWAP1 JUMP JUMPDEST SWAP1 PUSH1 0x1 DUP3 DUP2 SHR SWAP3 AND DUP1 ISZERO PUSH2 0xDAC JUMPI JUMPDEST PUSH1 0x20 DUP4 LT EQ PUSH2 0xD98 JUMPI JUMP JUMPDEST PUSH4 0x4E487B71 PUSH1 0xE0 SHL PUSH0 MSTORE PUSH1 0x22 PUSH1 0x4 MSTORE PUSH1 0x24 PUSH0 REVERT JUMPDEST SWAP2 PUSH1 0x7F AND SWAP2 PUSH2 0xD8D JUMP JUMPDEST SWAP1 PUSH1 0x40 MLOAD SWAP2 DUP3 PUSH0 DUP3 SLOAD SWAP3 PUSH2 0xDC9 DUP5 PUSH2 0xD7E JUMP JUMPDEST DUP1 DUP5 MSTORE SWAP4 PUSH1 0x1 DUP2 AND SWAP1 DUP2 ISZERO PUSH2 0xE34 JUMPI POP PUSH1 0x1 EQ PUSH2 0xDF0 JUMPI JUMPDEST POP PUSH2 0xDEE SWAP3 POP SUB DUP4 PUSH2 0xCFA JUMP JUMPDEST JUMP JUMPDEST SWAP1 POP PUSH0 SWAP3 SWAP2 SWAP3 MSTORE PUSH1 0x20 PUSH0 KECCAK256 SWAP1 PUSH0 SWAP2 JUMPDEST DUP2 DUP4 LT PUSH2 0xE18 JUMPI POP POP SWAP1 PUSH1 0x20 PUSH2 0xDEE SWAP3 DUP3 ADD ADD PUSH0 PUSH2 0xDE1 JUMP JUMPDEST PUSH1 0x20 SWAP2 SWAP4 POP DUP1 PUSH1 0x1 SWAP2 SLOAD DUP4 DUP6 DUP10 ADD ADD MSTORE ADD SWAP2 ADD SWAP1 SWAP2 DUP5 SWAP3 PUSH2 0xDFF JUMP JUMPDEST SWAP1 POP PUSH1 0x20 SWAP3 POP PUSH2 0xDEE SWAP5 SWAP2 POP PUSH1 0xFF NOT AND DUP3 DUP5 ADD MSTORE ISZERO ISZERO PUSH1 0x5 SHL DUP3 ADD ADD PUSH0 PUSH2 0xDE1 JUMP JUMPDEST SWAP2 DUP2 PUSH1 0x1F DUP5 ADD SLT ISZERO PUSH2 0x974 JUMPI DUP3 CALLDATALOAD SWAP2 PUSH1 0x1 PUSH1 0x1 PUSH1 0x40 SHL SUB DUP4 GT PUSH2 0x974 JUMPI PUSH1 0x20 DUP1 DUP6 ADD SWAP5 DUP5 PUSH1 0x5 SHL ADD ADD GT PUSH2 0x974 JUMPI JUMP JUMPDEST PUSH1 0x1 PUSH1 0x1 PUSH1 0x40 SHL SUB DUP2 GT PUSH2 0x521 JUMPI PUSH1 0x5 SHL PUSH1 0x20 ADD SWAP1 JUMP JUMPDEST SWAP1 DUP2 SLOAD PUSH2 0xEA9 DUP2 PUSH2 0xE86 JUMP JUMPDEST SWAP3 PUSH2 0xEB7 PUSH1 0x40 MLOAD SWAP5 DUP6 PUSH2 0xCFA JUMP JUMPDEST DUP2 DUP5 MSTORE PUSH1 0x20 DUP5 ADD SWAP1 PUSH0 MSTORE PUSH1 0x20 PUSH0 KECCAK256 PUSH0 SWAP2 JUMPDEST DUP4 DUP4 LT PUSH2 0xED5 JUMPI POP POP POP POP JUMP JUMPDEST PUSH1 0x1 PUSH1 0x20 DUP2 SWAP3 PUSH2 0xEE4 DUP6 PUSH2 0xDB6 JUMP JUMPDEST DUP2 MSTORE ADD SWAP3 ADD SWAP3 ADD SWAP2 SWAP1 PUSH2 0xEC8 JUMP JUMPDEST SWAP3 SWAP2 SWAP1 PUSH2 0xEFE DUP2 PUSH2 0xE86 JUMP JUMPDEST SWAP4 PUSH2 0xF0C PUSH1 0x40 MLOAD SWAP6 DUP7 PUSH2 0xCFA JUMP JUMPDEST PUSH1 0x20 DUP6 DUP4 DUP2 MSTORE ADD SWAP2 PUSH1 0x5 SHL DUP2 ADD SWAP2 DUP4 DUP4 GT PUSH2 0x974 JUMPI DUP2 SWAP1 JUMPDEST DUP4 DUP3 LT PUSH2 0xF32 JUMPI POP POP POP POP POP JUMP JUMPDEST DUP2 CALLDATALOAD PUSH1 0x1 PUSH1 0x1 PUSH1 0x40 SHL SUB DUP2 GT PUSH2 0x974 JUMPI PUSH1 0x20 SWAP2 PUSH2 0xF52 DUP8 DUP5 SWAP4 DUP8 ADD PUSH2 0xD60 JUMP JUMPDEST DUP2 MSTORE ADD SWAP2 ADD SWAP1 PUSH2 0xF24 JUMP JUMPDEST DUP2 DUP2 LT PUSH2 0xF68 JUMPI POP POP JUMP JUMPDEST PUSH0 DUP2 SSTORE PUSH1 0x1 ADD PUSH2 0xF5D JUMP JUMPDEST SWAP1 DUP1 PUSH1 0x20 SWAP4 SWAP3 DUP2 DUP5 MSTORE DUP5 DUP5 ADD CALLDATACOPY PUSH0 DUP3 DUP3 ADD DUP5 ADD MSTORE PUSH1 0x1F ADD PUSH1 0x1F NOT AND ADD ADD SWAP1 JUMP INVALID LOG2 PUSH5 0x6970667358 0x22 SLT KECCAK256 0xB0 0x1F 0xC4 SLOAD 0xB1 LOG1 0xE3 DUP10 0x27 PUSH25 0x5EF23DEAFE39B1F3CD3DE811BD159EFCE4303D8BB5D964736F PUSH13 0x634300081A0033000000000000 "
				},
				"gasEstimates": {
					"creation": {
						"codeDepositCost": "808200",
						"executionCost": "852",
						"totalCost": "809052"
					},
					"external": {
						"CTIByTid(string)": "infinite",
						"GetCTI(string)": "infinite",
						"Register(string,string,string,string[],int256,string,uint256,string[],int256)": "infinite"
					}
				},
				"methodIdentifiers": {
					"CTIByTid(string)": "521397d1",
					"GetCTI(string)": "25d8c528",
					"Register(string,string,string,string[],int256,string,uint256,string[],int256)": "d1082c92"
				}
			},
			"storageLayout": {
				"storage": [
					{
						"astId": 27,
						"contract": "ctiIncentiveDedupRegistry/minimalCtiContract.sol:SimpleCTIRegistry",
						"label": "CTIByTid",
						"offset": 0,
						"slot": "0",
						"type": "t_mapping(t_string_memory_ptr,t_struct(CTI)22_storage)"
					}
				],
				"types": {
					"t_array(t_string_storage)dyn_storage": {
						"base": "t_string_storage",
						"encoding": "dynamic_array",
						"label": "string[]",
						"numberOfBytes": "32"
					},
					"t_int256": {
						"encoding": "inplace",
						"label": "int256",
						"numberOfBytes": "32"
					},
					"t_mapping(t_string_memory_ptr,t_struct(CTI)22_storage)": {
						"encoding": "mapping",
						"key": "t_string_memory_ptr",
						"label": "mapping(string => struct SimpleCTIRegistry.CTI)",
						"numberOfBytes": "32",
						"value": "t_struct(CTI)22_storage"
					},
					"t_string_memory_ptr": {
						"encoding": "bytes",
						"label": "string",
						"numberOfBytes": "32"
					},
					"t_string_storage": {
						"encoding": "bytes",
						"label": "string",
						"numberOfBytes": "32"
					},
					"t_struct(CTI)22_storage": {
						"encoding": "inplace",
						"label": "struct SimpleCTIRegistry.CTI",
						"members": [
							{
								"astId": 3,
								"contract": "ctiIncentiveDedupRegistry/minimalCtiContract.sol:SimpleCTIRegistry",
								"label": "tid",
								"offset": 0,
								"slot": "0",
								"type": "t_string_storage"
							},
							{
								"astId": 5,
								"contract": "ctiIncentiveDedupRegistry/minimalCtiContract.sol:SimpleCTIRegistry",
								"label": "tip",
								"offset": 0,
								"slot": "1",
								"type": "t_string_storage"
							},
							{
								"astId": 7,
								"contract": "ctiIncentiveDedupRegistry/minimalCtiContract.sol:SimpleCTIRegistry",
								"label": "cti_hash",
								"offset": 0,
								"slot": "2",
								"type": "t_string_storage"
							},
							{
								"astId": 10,
								"contract": "ctiIncentiveDedupRegistry/minimalCtiContract.sol:SimpleCTIRegistry",
								"label": "tags",
								"offset": 0,
								"slot": "3",
								"type": "t_array(t_string_storage)dyn_storage"
							},
							{
								"astId": 12,
								"contract": "ctiIncentiveDedupRegistry/minimalCtiContract.sol:SimpleCTIRegistry",
								"label": "price",
								"offset": 0,
								"slot": "4",
								"type": "t_int256"
							},
							{
								"astId": 14,
								"contract": "ctiIncentiveDedupRegistry/minimalCtiContract.sol:SimpleCTIRegistry",
								"label": "ip",
								"offset": 0,
								"slot": "5",
								"type": "t_string_storage"
							},
							{
								"astId": 16,
								"contract": "ctiIncentiveDedupRegistry/minimalCtiContract.sol:SimpleCTIRegistry",
								"label": "threat_score",
								"offset": 0,
								"slot": "6",
								"type": "t_uint256"
							},
							{
								"astId": 19,
								"contract": "ctiIncentiveDedupRegistry/minimalCtiContract.sol:SimpleCTIRegistry",
								"label": "iocs",
								"offset": 0,
								"slot": "7",
								"type": "t_array(t_string_storage)dyn_storage"
							},
							{
								"astId": 21,
								"contract": "ctiIncentiveDedupRegistry/minimalCtiContract.sol:SimpleCTIRegistry",
								"label": "confidence",
								"offset": 0,
								"slot": "8",
								"type": "t_int256"
							}
						],
						"numberOfBytes": "288"
					},
					"t_uint256": {
						"encoding": "inplace",
						"label": "uint256",
						"numberOfBytes": "32"
					}
				}
			},
			"userdoc": {
				"kind": "user",
				"methods": {},
				"version": 1
			}
		}
	}
}