{
	"ctiIncentiveDedupRegistry/ThreatTest.sol": {
		"DelegatorContract": {
			"abi": [
				{
					"stateMutability": "payable",
					"type": "fallback"
				},
				{
					"inputs": [
						{
							"internalType": "address",
							"name": "",
							"type": "address"
						}
					],
					"name": "DelegatorInserted",
					"outputs": [
						{
							"internalType": "bool",
							"name": "",
							"type": "bool"
						}
					],
					"stateMutability": "view",
					"type": "function"
				},
				{
					"inputs": [],
					"name": "GetContractBalance",
					"outputs": [
						{
							"internalType": "uint256",
							"name": "",
							"type": "uint256"
						}
					],
					"stateMutability": "view",
					"type": "function"
				},
				{
					"inputs": [],
					"name": "ListDelegator",
					"outputs": [
						{
							"components": [
								{
									"internalType": "string",
									"name": "name",
									"type": "string"
								},
								{
									"internalType": "address",
									"name": "addr",
									"type": "address"
								},
								{
									"internalType": "int256",
									"name": "reputation",
									"type": "int256"
								},
								{
									"internalType": "string",
									"name": "pubkey",
									"type": "string"
								},
								{
									"internalType": "uint256",
									"name": "time",
									"type": "uint256"
								}
							],
							"internalType": "struct DelegatorContract.Delegator[]",
							"name": "",
							"type": "tuple[]"
						}
					],
					"stateMutability": "view",
					"type": "function"
				},
				{
					"inputs": [
						{
							"internalType": "string",
							"name": "name",
							"type": "string"
						},
						{
							"internalType": "string",
							"name": "pubkey",
							"type": "string"
						}
					],
					"name": "Register",
					"outputs": [],
					"stateMutability": "payable",
					"type": "function"
				},
				{
					"inputs": [
						{
							"internalType": "address",
							"name": "addr",
							"type": "address"
						}
					],
					"name": "isDelegator",
					"outputs": [
						{
							"internalType": "bool",
							"name": "",
							"type": "bool"
						}
					],
					"stateMutability": "view",
					"type": "function"
				},
				{
					"inputs": [
						{
							"internalType": "uint256",
							"name": "",
							"type": "uint256"
						}
					],
					"name": "list",
					"outputs": [
						{
							"internalType": "string",
							"name": "name",
							"type": "string"
						},
						{
							"internalType": "address",
							"name": "addr",
							"type": "address"
						},
						{
							"internalType": "int256",
							"name": "reputation",
							"type": "int256"
						},
						{
							"internalType": "string",
							"name": "pubkey",
							"type": "string"
						},
						{
							"internalType": "uint256",
							"name": "time",
							"type": "uint256"
						}
					],
					"stateMutability": "view",
					"type": "function"
				},
				{
					"stateMutability": "payable",
					"type": "receive"
				}
			],
			"devdoc": {
				"kind": "dev",
				"methods": {},
				"version": 1
			},
			"evm": {
				"assembly": "    /* \"ctiIncentiveDedupRegistry/ThreatTest.sol\":6800:7850  contract DelegatorContract {... */\n  0x80\n  dup1\n  0x40\n  mstore\n  jumpi(tag_1, callvalue)\n  dataSize(sub_0)\n  swap1\n  dup2\n  dataOffset(sub_0)\n  dup3\n  codecopy\n  return\ntag_1:\n  0x00\n  dup1\n  revert\nstop\n\nsub_0: assembly {\n        /* \"ctiIncentiveDedupRegistry/ThreatTest.sol\":6800:7850  contract DelegatorContract {... */\n      0x80\n      dup1\n      0x40\n      mstore\n      jumpi(tag_9, iszero(lt(calldatasize, 0x04)))\n    tag_10:\n      pop\n      jumpi(tag_11, iszero(calldatasize))\n      stop\n    tag_11:\n      stop\n    tag_9:\n      shr(0xe0, calldataload(0x00))\n      swap1\n      dup2\n      0x30fdf374\n      eq\n      tag_13\n      jumpi\n      pop\n      dup1\n      0x80c9419e\n      eq\n      tag_15\n      jumpi\n      dup1\n      0xd6192e29\n      eq\n      tag_17\n      jumpi\n      dup1\n      0xec821d33\n      eq\n      tag_19\n      jumpi\n      dup1\n      0xf6d0bf2f\n      eq\n      tag_21\n      jumpi\n      0xfd8ab482\n      eq\n      tag_23\n      jumpi\n      0x00\n      jump(tag_10)\n    tag_23:\n      jumpi(tag_29, callvalue)\n      jumpi(tag_29, slt(add(not(0x03), calldatasize), 0x20))\n      calldataload(0x04)\n      sub(shl(0xa0, 0x01), 0x01)\n      dup2\n      and\n      swap1\n      dup2\n      swap1\n      sub\n      tag_29\n      jumpi\n      0x00\n      mstore\n        /* \"ctiIncentiveDedupRegistry/ThreatTest.sol\":7636:7653  DelegatorInserted */\n      0x01\n        /* \"ctiIncentiveDedupRegistry/ThreatTest.sol\":6800:7850  contract DelegatorContract {... */\n      0x20\n      mstore\n      0x20\n      and(sload(keccak256(0x00, 0x40)), 0xff)\n      mload(0x40)\n      swap1\n      iszero\n      iszero\n      dup2\n      mstore\n      return\n    tag_29:\n      0x00\n      dup1\n      revert\n    tag_21:\n      jumpi(tag_29, callvalue)\n      jumpi(tag_29, slt(add(not(0x03), calldatasize), 0x00))\n      0x20\n        /* \"ctiIncentiveDedupRegistry/ThreatTest.sol\":7751:7772  address(this).balance */\n      selfbalance\n        /* \"ctiIncentiveDedupRegistry/ThreatTest.sol\":6800:7850  contract DelegatorContract {... */\n      mload(0x40)\n      swap1\n      dup2\n      mstore\n      return\n    tag_19:\n      jumpi(tag_29, callvalue)\n      jumpi(tag_29, slt(add(not(0x03), calldatasize), 0x00))\n      sload(0x00)\n      0xffffffffffffffff\n      dup2\n      gt\n      tag_39\n      jumpi\n      mload(0x40)\n      swap1\n      tag_41\n      0x20\n      dup3\n      0x05\n      shl\n      add\n      dup4\n      tag_4\n      jump\t// in\n    tag_41:\n      dup1\n      dup3\n      mstore\n      0x20\n      dup3\n      add\n      swap1\n      dup2\n      0x00\n      dup1\n      mstore\n      0x290decd9548b62a8d60345a988386fc84ba6bc95484008f6362f93160ef3e563\n      0x00\n      swap2\n    tag_42:\n      dup4\n      dup4\n      lt\n      tag_43\n      jumpi\n      dup5\n      dup7\n      mload(0x40)\n      swap2\n      dup3\n      swap2\n      0x20\n      dup4\n      add\n      swap1\n      0x20\n      dup5\n      mstore\n      mload\n      dup1\n      swap2\n      mstore\n      0x40\n      dup4\n      add\n      swap1\n      0x40\n      dup2\n      0x05\n      shl\n      dup6\n      add\n      add\n      swap3\n      swap2\n      0x00\n      swap1\n    tag_45:\n      dup3\n      dup3\n      lt\n      tag_46\n      jumpi\n      pop\n      pop\n      pop\n      pop\n      sub\n      swap1\n      return\n    tag_46:\n      swap2\n      swap4\n      0x01\n      swap2\n      swap4\n      swap6\n      pop\n      0x20\n      dup1\n      swap2\n      not(0x3f)\n      dup10\n      dup3\n      sub\n      add\n      dup6\n      mstore\n      dup8\n      mload\n      swap1\n      0x80\n      dup1\n      tag_48\n      tag_49\n      dup6\n      mload\n      0xa0\n      dup7\n      mstore\n      0xa0\n      dup7\n      add\n      swap1\n      tag_6\n      jump\t// in\n    tag_49:\n      dup9\n      dup1\n      0xa0\n      shl\n      sub\n      dup8\n      dup8\n      add\n      mload\n      and\n      dup8\n      dup7\n      add\n      mstore\n      0x40\n      dup7\n      add\n      mload\n      0x40\n      dup7\n      add\n      mstore\n      0x60\n      dup7\n      add\n      mload\n      dup6\n      dup3\n      sub\n      0x60\n      dup8\n      add\n      mstore\n      tag_6\n      jump\t// in\n    tag_48:\n      swap4\n      add\n      mload\n      swap2\n      add\n      mstore\n      swap7\n      add\n      swap3\n      add\n      swap3\n      add\n      dup6\n      swap5\n      swap4\n      swap2\n      swap3\n      jump(tag_45)\n    tag_43:\n      0x05\n      0x20\n      0x01\n      swap3\n      mload(0x40)\n      tag_50\n      dup2\n      tag_3\n      jump\t// in\n    tag_50:\n      tag_51\n      dup7\n      tag_5\n      jump\t// in\n    tag_51:\n      dup2\n      mstore\n      dup5\n      dup1\n      0xa0\n      shl\n      sub\n      dup6\n      dup8\n      add\n      sload\n      and\n      dup4\n      dup3\n      add\n      mstore\n      0x02\n      dup7\n      add\n      sload\n      0x40\n      dup3\n      add\n      mstore\n      tag_52\n      0x03\n      dup8\n      add\n      tag_5\n      jump\t// in\n    tag_52:\n      0x60\n      dup3\n      add\n      mstore\n      0x04\n      dup7\n      add\n      sload\n      0x80\n      dup3\n      add\n      mstore\n      dup2\n      mstore\n      add\n      swap3\n      add\n      swap3\n      add\n      swap2\n      swap1\n      jump(tag_42)\n    tag_39:\n      mstore(0x00, shl(0xe0, 0x4e487b71))\n      mstore(0x04, 0x41)\n      revert(0x00, 0x24)\n    tag_17:\n      jumpi(tag_29, slt(add(not(0x03), calldatasize), 0x40))\n      calldataload(0x04)\n      0xffffffffffffffff\n      dup2\n      gt\n      tag_29\n      jumpi\n      tag_57\n      swap1\n      calldatasize\n      swap1\n      0x04\n      add\n      tag_7\n      jump\t// in\n    tag_57:\n      calldataload(0x24)\n      0xffffffffffffffff\n      dup2\n      gt\n      tag_29\n      jumpi\n      tag_60\n      swap1\n      calldatasize\n      swap1\n      0x04\n      add\n      tag_7\n      jump\t// in\n    tag_60:\n        /* \"ctiIncentiveDedupRegistry/ThreatTest.sol\":7301:7310  msg.value */\n      swap3\n        /* \"ctiIncentiveDedupRegistry/ThreatTest.sol\":7314:7334  10000000000000000000 */\n      0x8ac7230489e80000\n        /* \"ctiIncentiveDedupRegistry/ThreatTest.sol\":7301:7310  msg.value */\n      callvalue\n        /* \"ctiIncentiveDedupRegistry/ThreatTest.sol\":7301:7334  msg.value == 10000000000000000000 */\n      sub\n        /* \"ctiIncentiveDedupRegistry/ThreatTest.sol\":6800:7850  contract DelegatorContract {... */\n      tag_29\n      jumpi\n      0x00\n        /* \"ctiIncentiveDedupRegistry/ThreatTest.sol\":7301:7310  msg.value */\n      callvalue\n        /* \"ctiIncentiveDedupRegistry/ThreatTest.sol\":7346:7388  payable(address(this)).transfer(msg.value) */\n      iszero\n      tag_63\n      jumpi\n        /* \"ctiIncentiveDedupRegistry/ThreatTest.sol\":6800:7850  contract DelegatorContract {... */\n    tag_64:\n      0x00\n        /* \"ctiIncentiveDedupRegistry/ThreatTest.sol\":7301:7310  msg.value */\n      dup1\n      dup1\n      dup1\n      swap4\n      callvalue\n        /* \"ctiIncentiveDedupRegistry/ThreatTest.sol\":7362:7366  this */\n      swap1\n      address\n        /* \"ctiIncentiveDedupRegistry/ThreatTest.sol\":7346:7388  payable(address(this)).transfer(msg.value) */\n      swap1\n      call\n      iszero\n      tag_65\n      jumpi\n        /* \"ctiIncentiveDedupRegistry/ThreatTest.sol\":6800:7850  contract DelegatorContract {... */\n      tag_67\n      swap1\n      mload(0x40)\n      swap4\n      tag_68\n      dup6\n      tag_3\n      jump\t// in\n    tag_68:\n      calldatasize\n      swap2\n      tag_8\n      jump\t// in\n    tag_67:\n      dup3\n      mstore\n      tag_69\n      0x20\n        /* \"ctiIncentiveDedupRegistry/ThreatTest.sol\":7409:7461  Delegator(name,msg.sender,10,pubkey,block.timestamp) */\n      dup4\n      add\n        /* \"ctiIncentiveDedupRegistry/ThreatTest.sol\":7424:7434  msg.sender */\n      swap2\n      caller\n        /* \"ctiIncentiveDedupRegistry/ThreatTest.sol\":6800:7850  contract DelegatorContract {... */\n      dup4\n      mstore\n      0x40\n        /* \"ctiIncentiveDedupRegistry/ThreatTest.sol\":7409:7461  Delegator(name,msg.sender,10,pubkey,block.timestamp) */\n      dup5\n      add\n        /* \"ctiIncentiveDedupRegistry/ThreatTest.sol\":6800:7850  contract DelegatorContract {... */\n      swap5\n        /* \"ctiIncentiveDedupRegistry/ThreatTest.sol\":7435:7437  10 */\n      0x0a\n        /* \"ctiIncentiveDedupRegistry/ThreatTest.sol\":6800:7850  contract DelegatorContract {... */\n      dup7\n      mstore\n      calldatasize\n      swap2\n      tag_8\n      jump\t// in\n    tag_69:\n        /* \"ctiIncentiveDedupRegistry/ThreatTest.sol\":7409:7461  Delegator(name,msg.sender,10,pubkey,block.timestamp) */\n      swap3\n      0x60\n      dup4\n      add\n        /* \"ctiIncentiveDedupRegistry/ThreatTest.sol\":6800:7850  contract DelegatorContract {... */\n      swap4\n      dup5\n      mstore\n        /* \"ctiIncentiveDedupRegistry/ThreatTest.sol\":7409:7461  Delegator(name,msg.sender,10,pubkey,block.timestamp) */\n      0x80\n      dup4\n      add\n        /* \"ctiIncentiveDedupRegistry/ThreatTest.sol\":7445:7460  block.timestamp */\n      swap2\n      timestamp\n        /* \"ctiIncentiveDedupRegistry/ThreatTest.sol\":6800:7850  contract DelegatorContract {... */\n      dup4\n      mstore\n      sload(0x00)\n      0x010000000000000000\n      dup2\n      lt\n      iszero\n      tag_39\n      jumpi\n      dup1\n      0x01\n      tag_72\n      swap3\n      add\n      0x00\n      sstore\n      tag_1\n      jump\t// in\n    tag_72:\n      swap5\n      swap1\n      swap5\n      tag_73\n      jumpi\n      mload\n      dup1\n      mload\n      swap1\n      0xffffffffffffffff\n      dup3\n      gt\n      tag_39\n      jumpi\n      dup2\n      swap1\n      tag_77\n      dup8\n      sload\n      tag_2\n      jump\t// in\n    tag_77:\n      0x1f\n      dup2\n      gt\n      tag_78\n      jumpi\n    tag_79:\n      pop\n      0x20\n      swap1\n      0x1f\n      dup4\n      gt\n      0x01\n      eq\n      tag_80\n      jumpi\n      0x00\n      swap3\n      tag_82\n      jumpi\n    tag_83:\n      pop\n      pop\n      dup2\n      0x01\n      shl\n      swap2\n      not(0x00)\n      swap1\n      0x03\n      shl\n      shr\n      not\n      and\n      or\n      dup5\n      sstore\n    tag_84:\n      0x01\n      dup5\n      add\n      swap1\n      0x01\n      dup1\n      0xa0\n      shl\n      sub\n      swap1\n      mload\n      and\n      shl(0xa0, 0xffffffffffffffffffffffff)\n      dup3\n      sload\n      and\n      or\n      swap1\n      sstore\n      mload\n      0x02\n      dup4\n      add\n      sstore\n      0x03\n      dup3\n      add\n      swap3\n      mload\n      swap3\n      dup4\n      mload\n      0xffffffffffffffff\n      dup2\n      gt\n      tag_39\n      jumpi\n      tag_87\n      dup3\n      sload\n      tag_2\n      jump\t// in\n    tag_87:\n      0x1f\n      dup2\n      gt\n      tag_88\n      jumpi\n    tag_89:\n      pop\n      0x20\n      0x1f\n      dup3\n      gt\n      0x01\n      eq\n      tag_90\n      jumpi\n      dup2\n      swap1\n      0x04\n      swap6\n      swap7\n      0x00\n      swap3\n      tag_92\n      jumpi\n    tag_93:\n      pop\n      pop\n      dup2\n      0x01\n      shl\n      swap2\n      not(0x00)\n      swap1\n      0x03\n      shl\n      shr\n      not\n      and\n      or\n      swap1\n      sstore\n    tag_94:\n      mload\n      swap2\n      add\n      sstore\n        /* \"ctiIncentiveDedupRegistry/ThreatTest.sol\":7424:7434  msg.sender */\n      caller\n        /* \"ctiIncentiveDedupRegistry/ThreatTest.sol\":6800:7850  contract DelegatorContract {... */\n      0x00\n      mstore\n      mstore(0x20, 0x01)\n      keccak256(0x00, 0x40)\n      0x01\n      not(0xff)\n      dup3\n      sload\n      and\n      or\n      swap1\n      sstore\n      0x00\n      dup1\n      return\n    tag_92:\n      add\n      mload\n      swap1\n      pop\n      dup7\n      dup1\n      jump(tag_93)\n    tag_90:\n      not(0x1f)\n      dup3\n      and\n      swap6\n      dup4\n      0x00\n      mstore\n      dup2\n      0x00\n      keccak256\n      swap7\n      0x00\n    tag_95:\n      dup2\n      dup2\n      lt\n      tag_96\n      jumpi\n      pop\n      swap2\n      0x04\n      swap7\n      swap8\n      swap2\n      dup5\n      0x01\n      swap6\n      swap5\n      lt\n      tag_98\n      jumpi\n    tag_99:\n      pop\n      pop\n      pop\n      dup2\n      shl\n      add\n      swap1\n      sstore\n      jump(tag_94)\n    tag_98:\n      add\n      mload\n      not(0x00)\n      0xf8\n      dup5\n      0x03\n      shl\n      and\n      shr\n      not\n      and\n      swap1\n      sstore\n      dup7\n      dup1\n      dup1\n      jump(tag_99)\n    tag_96:\n      dup4\n      dup4\n      add\n      mload\n      dup10\n      sstore\n      0x01\n      swap1\n      swap9\n      add\n      swap8\n      0x20\n      swap4\n      dup5\n      add\n      swap4\n      add\n      jump(tag_95)\n    tag_88:\n      dup3\n      0x00\n      mstore\n      keccak256(0x00, 0x20)\n      0x1f\n      dup4\n      add\n      0x05\n      shr\n      dup2\n      add\n      swap2\n      0x20\n      dup5\n      lt\n      tag_100\n      jumpi\n    tag_101:\n      0x1f\n      add\n      0x05\n      shr\n      add\n      swap1\n    tag_102:\n      dup2\n      dup2\n      lt\n      tag_103\n      jumpi\n      pop\n      jump(tag_89)\n    tag_103:\n      0x00\n      dup2\n      sstore\n      0x01\n      add\n      jump(tag_102)\n    tag_100:\n      swap1\n      swap2\n      pop\n      dup2\n      swap1\n      jump(tag_101)\n    tag_82:\n      add\n      mload\n      swap1\n      pop\n      dup8\n      dup1\n      jump(tag_83)\n    tag_80:\n      0x00\n      dup9\n      dup2\n      mstore\n      dup3\n      dup2\n      keccak256\n      swap4\n      pop\n      not(0x1f)\n      dup6\n      and\n      swap1\n    tag_105:\n      dup2\n      dup2\n      lt\n      tag_106\n      jumpi\n      pop\n      swap1\n      dup5\n      0x01\n      swap6\n      swap5\n      swap4\n      swap3\n      lt\n      tag_108\n      jumpi\n    tag_109:\n      pop\n      pop\n      pop\n      dup2\n      shl\n      add\n      dup5\n      sstore\n      jump(tag_84)\n    tag_108:\n      add\n      mload\n      not(0x00)\n      0xf8\n      dup5\n      0x03\n      shl\n      and\n      shr\n      not\n      and\n      swap1\n      sstore\n      dup8\n      dup1\n      dup1\n      jump(tag_109)\n    tag_106:\n      swap3\n      swap4\n      0x20\n      0x01\n      dup2\n      swap3\n      dup8\n      dup7\n      add\n      mload\n      dup2\n      sstore\n      add\n      swap6\n      add\n      swap4\n      add\n      jump(tag_105)\n    tag_78:\n      swap1\n      swap2\n      pop\n      dup7\n      0x00\n      mstore\n      keccak256(0x00, 0x20)\n      0x1f\n      dup5\n      add\n      0x05\n      shr\n      dup2\n      add\n      swap2\n      0x20\n      dup6\n      lt\n      tag_110\n      jumpi\n    tag_111:\n      swap1\n      0x1f\n      dup6\n      swap5\n      swap4\n      swap3\n      add\n      0x05\n      shr\n      add\n      swap1\n    tag_112:\n      dup2\n      dup2\n      lt\n      tag_113\n      jumpi\n      pop\n      jump(tag_79)\n    tag_113:\n      0x00\n      dup2\n      sstore\n      dup5\n      swap4\n      pop\n      0x01\n      add\n      jump(tag_112)\n    tag_110:\n      swap1\n      swap2\n      pop\n      dup2\n      swap1\n      jump(tag_111)\n    tag_73:\n      mstore(0x00, shl(0xe0, 0x4e487b71))\n      mstore(0x04, 0x00)\n      revert(0x00, 0x24)\n        /* \"ctiIncentiveDedupRegistry/ThreatTest.sol\":7346:7388  payable(address(this)).transfer(msg.value) */\n    tag_65:\n        /* \"ctiIncentiveDedupRegistry/ThreatTest.sol\":6800:7850  contract DelegatorContract {... */\n      mload(0x40)\n      returndatasize\n      0x00\n      dup3\n      returndatacopy\n      returndatasize\n      swap1\n      revert\n        /* \"ctiIncentiveDedupRegistry/ThreatTest.sol\":7346:7388  payable(address(this)).transfer(msg.value) */\n    tag_63:\n      pop\n      0x08fc\n      jump(tag_64)\n        /* \"ctiIncentiveDedupRegistry/ThreatTest.sol\":6800:7850  contract DelegatorContract {... */\n    tag_15:\n      jumpi(tag_29, callvalue)\n      jumpi(tag_29, slt(add(not(0x03), calldatasize), 0x20))\n      calldataload(0x04)\n      sload(0x00)\n        /* \"ctiIncentiveDedupRegistry/ThreatTest.sol\":6981:7004  Delegator[] public list */\n      dup2\n      lt\n      iszero\n      tag_29\n      jumpi\n      tag_121\n        /* \"ctiIncentiveDedupRegistry/ThreatTest.sol\":6800:7850  contract DelegatorContract {... */\n      tag_122\n        /* \"ctiIncentiveDedupRegistry/ThreatTest.sol\":6981:7004  Delegator[] public list */\n      swap2\n      tag_1\n      jump\t// in\n    tag_121:\n      pop\n      tag_123\n      dup2\n      tag_5\n      jump\t// in\n    tag_123:\n        /* \"ctiIncentiveDedupRegistry/ThreatTest.sol\":6800:7850  contract DelegatorContract {... */\n      0x01\n        /* \"ctiIncentiveDedupRegistry/ThreatTest.sol\":6981:7004  Delegator[] public list */\n      dup3\n      add\n        /* \"ctiIncentiveDedupRegistry/ThreatTest.sol\":6800:7850  contract DelegatorContract {... */\n      sload\n        /* \"ctiIncentiveDedupRegistry/ThreatTest.sol\":6981:7004  Delegator[] public list */\n      0x02\n      dup4\n      add\n        /* \"ctiIncentiveDedupRegistry/ThreatTest.sol\":6800:7850  contract DelegatorContract {... */\n      sload\n      swap2\n      swap3\n      tag_124\n      swap2\n      sub(shl(0xa0, 0x01), 0x01)\n      and\n      swap1\n      0x04\n        /* \"ctiIncentiveDedupRegistry/ThreatTest.sol\":6981:7004  Delegator[] public list */\n      tag_125\n      0x03\n      dup4\n      add\n      tag_5\n      jump\t// in\n    tag_125:\n      swap2\n      add\n        /* \"ctiIncentiveDedupRegistry/ThreatTest.sol\":6800:7850  contract DelegatorContract {... */\n      sload\n      swap4\n      mload(0x40)\n      swap7\n      dup8\n      swap7\n      0xa0\n      dup9\n      mstore\n      0xa0\n      dup9\n      add\n      swap1\n      tag_6\n      jump\t// in\n    tag_122:\n      swap3\n      0x20\n      dup8\n      add\n      mstore\n      0x40\n      dup7\n      add\n      mstore\n      dup5\n      dup3\n      sub\n      0x60\n      dup7\n      add\n      mstore\n      tag_6\n      jump\t// in\n    tag_124:\n      swap1\n      0x80\n      dup4\n      add\n      mstore\n      sub\n      swap1\n      return\n    tag_13:\n      jumpi(tag_29, callvalue)\n      jumpi(tag_29, slt(add(not(0x03), calldatasize), 0x20))\n      calldataload(0x04)\n      sub(shl(0xa0, 0x01), 0x01)\n      dup2\n      and\n      swap2\n      swap1\n      dup3\n      swap1\n      sub\n      tag_29\n      jumpi\n      0x20\n      swap2\n      0x00\n      mstore\n        /* \"ctiIncentiveDedupRegistry/ThreatTest.sol\":7011:7060  mapping(address => bool) public DelegatorInserted */\n      0x01\n        /* \"ctiIncentiveDedupRegistry/ThreatTest.sol\":6800:7850  contract DelegatorContract {... */\n      dup3\n      mstore\n      iszero(iszero(and(sload(keccak256(0x00, 0x40)), 0xff)))\n      dup2\n      mstore\n      return\n    tag_1:\n      sload(0x00)\n      dup2\n      lt\n      iszero\n      tag_132\n      jumpi\n      0x00\n      dup1\n      dup1\n      mstore\n      0x05\n      swap2\n      swap1\n      swap2\n      mul\n      0x290decd9548b62a8d60345a988386fc84ba6bc95484008f6362f93160ef3e563\n      add\n      swap2\n      jump\t// out\n    tag_132:\n      mstore(0x00, shl(0xe0, 0x4e487b71))\n      mstore(0x04, 0x32)\n      revert(0x00, 0x24)\n    tag_2:\n      swap1\n      0x01\n      dup3\n      dup2\n      shr\n      swap3\n      and\n      dup1\n      iszero\n      tag_134\n      jumpi\n    tag_135:\n      0x20\n      dup4\n      lt\n      eq\n      tag_136\n      jumpi\n      jump\t// out\n    tag_136:\n      mstore(0x00, shl(0xe0, 0x4e487b71))\n      mstore(0x04, 0x22)\n      revert(0x00, 0x24)\n    tag_134:\n      swap2\n      0x7f\n      and\n      swap2\n      jump(tag_135)\n    tag_3:\n      0xa0\n      dup2\n      add\n      swap1\n      dup2\n      lt\n      0xffffffffffffffff\n      dup3\n      gt\n      or\n      tag_39\n      jumpi\n      0x40\n      mstore\n      jump\t// out\n    tag_4:\n      swap1\n      0x1f\n      dup1\n      not\n      swap2\n      add\n      and\n      dup2\n      add\n      swap1\n      dup2\n      lt\n      0xffffffffffffffff\n      dup3\n      gt\n      or\n      tag_39\n      jumpi\n      0x40\n      mstore\n      jump\t// out\n    tag_5:\n      swap1\n      mload(0x40)\n      swap2\n      dup3\n      0x00\n      dup3\n      sload\n      swap3\n      tag_142\n      dup5\n      tag_2\n      jump\t// in\n    tag_142:\n      dup1\n      dup5\n      mstore\n      swap4\n      0x01\n      dup2\n      and\n      swap1\n      dup2\n      iszero\n      tag_143\n      jumpi\n      pop\n      0x01\n      eq\n      tag_145\n      jumpi\n    tag_146:\n      pop\n      tag_147\n      swap3\n      pop\n      sub\n      dup4\n      tag_4\n      jump\t// in\n    tag_147:\n      jump\t// out\n    tag_145:\n      swap1\n      pop\n      0x00\n      swap3\n      swap2\n      swap3\n      mstore\n      keccak256(0x00, 0x20)\n      swap1\n      0x00\n      swap2\n    tag_148:\n      dup2\n      dup4\n      lt\n      tag_149\n      jumpi\n      pop\n      pop\n      swap1\n      0x20\n      tag_147\n      swap3\n      dup3\n      add\n      add\n      0x00\n      jump(tag_146)\n    tag_149:\n      0x20\n      swap2\n      swap4\n      pop\n      dup1\n      0x01\n      swap2\n      sload\n      dup4\n      dup6\n      dup10\n      add\n      add\n      mstore\n      add\n      swap2\n      add\n      swap1\n      swap2\n      dup5\n      swap3\n      jump(tag_148)\n    tag_143:\n      swap1\n      pop\n      0x20\n      swap3\n      pop\n      tag_147\n      swap5\n      swap2\n      pop\n      not(0xff)\n      and\n      dup3\n      dup5\n      add\n      mstore\n      iszero\n      iszero\n      0x05\n      shl\n      dup3\n      add\n      add\n      0x00\n      jump(tag_146)\n    tag_6:\n      dup1\n      mload\n      dup1\n      dup4\n      mstore\n      0x20\n      swap3\n      swap2\n      dup2\n      swap1\n      dup5\n      add\n      dup5\n      dup5\n      add\n      mcopy\n      0x00\n      dup3\n      dup3\n      add\n      dup5\n      add\n      mstore\n      0x1f\n      add\n      not(0x1f)\n      and\n      add\n      add\n      swap1\n      jump\t// out\n    tag_7:\n      swap2\n      dup2\n      0x1f\n      dup5\n      add\n      slt\n      iszero\n      tag_29\n      jumpi\n      dup3\n      calldataload\n      swap2\n      0xffffffffffffffff\n      dup4\n      gt\n      tag_29\n      jumpi\n      0x20\n      dup4\n      dup2\n      dup7\n      add\n      swap6\n      add\n      add\n      gt\n      tag_29\n      jumpi\n      jump\t// out\n    tag_8:\n      swap3\n      swap2\n      swap3\n      0xffffffffffffffff\n      dup3\n      gt\n      tag_39\n      jumpi\n      mload(0x40)\n      swap2\n      tag_159\n      0x1f\n      dup3\n      add\n      not(0x1f)\n      and\n      0x20\n      add\n      dup5\n      tag_4\n      jump\t// in\n    tag_159:\n      dup3\n      swap5\n      dup2\n      dup5\n      mstore\n      dup2\n      dup4\n      add\n      gt\n      tag_29\n      jumpi\n      dup3\n      dup2\n      0x20\n      swap4\n      dup5\n      0x00\n      swap7\n      add\n      calldatacopy\n      add\n      add\n      mstore\n      jump\t// out\n\n    auxdata: 0xa264697066735822122096b98da202ee9fa90f272496b80bf5fd97d27bf1d7c0436199cb6a0fead6834a64736f6c634300081a0033\n}\n",
				"bytecode": {
					"linkReferences": {},
					"object": "608080604052346015576108c5908161001a8239f35b5f80fdfe608080604052600436101561001a575b50361561001857005b005b5f3560e01c90816330fdf374146106575750806380c9419e146105c2578063d6192e2914610251578063ec821d33146100c8578063f6d0bf2f146100ad5763fd8ab48214610068575f61000f565b346100a95760203660031901126100a9576004356001600160a01b038116908190036100a9575f526001602052602060ff60405f2054166040519015158152f35b5f80fd5b346100a9575f3660031901126100a957602047604051908152f35b346100a9575f3660031901126100a9575f5467ffffffffffffffff811161023d57604051906100fd60208260051b0183610735565b8082526020820190815f80527f290decd9548b62a8d60345a988386fc84ba6bc95484008f6362f93160ef3e5635f915b8383106101dd57848660405191829160208301906020845251809152604083019060408160051b85010192915f905b82821061016b57505050500390f35b919360019193955060208091603f198982030185528751906080806101c761019c855160a0865260a08601906107f7565b888060a01b0387870151168786015260408601516040860152606086015185820360608701526107f7565b930151910152960192019201859493919261015c565b600560206001926040516101f081610719565b6101f986610757565b8152848060a01b038587015416838201526002860154604082015261022060038701610757565b60608201526004860154608082015281520192019201919061012d565b634e487b7160e01b5f52604160045260245ffd5b60403660031901126100a95760043567ffffffffffffffff81116100a95761027d90369060040161081b565b60243567ffffffffffffffff81116100a95761029d90369060040161081b565b92678ac7230489e8000034036100a9575f34156105b9575b5f8080809334903090f1156105ae576102dc90604051936102d585610719565b3691610849565b82526102f960208301913383526040840194600a86523691610849565b926060830193845260808301914283525f546801000000000000000081101561023d5780600161032b92015f55610695565b94909461059b575180519067ffffffffffffffff821161023d57819061035187546106e1565b601f811161054b575b50602090601f83116001146104e8575f926104dd575b50508160011b915f199060031b1c19161784555b600184019060018060a01b039051166bffffffffffffffffffffffff60a01b82541617905551600283015560038201925192835167ffffffffffffffff811161023d576103d182546106e1565b601f8111610498575b506020601f8211600114610433578190600495965f92610428575b50508160011b915f199060031b1c19161790555b51910155335f52600160205260405f20600160ff198254161790555f80f35b0151905086806103f5565b601f19821695835f52815f20965f5b8181106104805750916004969791846001959410610468575b505050811b019055610409565b01515f1960f88460031b161c1916905586808061045b565b83830151895560019098019760209384019301610442565b825f5260205f20601f830160051c810191602084106104d3575b601f0160051c01905b8181106104c857506103da565b5f81556001016104bb565b90915081906104b2565b015190508780610370565b5f8881528281209350601f198516905b818110610533575090846001959493921061051b575b505050811b018455610384565b01515f1960f88460031b161c1916905587808061050e565b929360206001819287860151815501950193016104f8565b909150865f5260205f20601f840160051c81019160208510610591575b90601f859493920160051c01905b818110610583575061035a565b5f8155849350600101610576565b9091508190610568565b634e487b7160e01b5f525f60045260245ffd5b6040513d5f823e3d90fd5b506108fc6102b5565b346100a95760203660031901126100a9576004355f548110156100a9576105eb61063591610695565b506105f581610757565b60018201546002830154919261064d916001600160a01b031690600461061d60038301610757565b9101549360405196879660a0885260a08801906107f7565b926020870152604086015284820360608601526107f7565b9060808301520390f35b346100a95760203660031901126100a9576004356001600160a01b03811691908290036100a9576020915f526001825260ff60405f20541615158152f35b5f548110156106cd575f8080526005919091027f290decd9548b62a8d60345a988386fc84ba6bc95484008f6362f93160ef3e5630191565b634e487b7160e01b5f52603260045260245ffd5b90600182811c9216801561070f575b60208310146106fb57565b634e487b7160e01b5f52602260045260245ffd5b91607f16916106f0565b60a0810190811067ffffffffffffffff82111761023d57604052565b90601f8019910116810190811067ffffffffffffffff82111761023d57604052565b9060405191825f82549261076a846106e1565b80845293600181169081156107d55750600114610791575b5061078f92500383610735565b565b90505f9291925260205f20905f915b8183106107b957505090602061078f928201015f610782565b60209193508060019154838589010152019101909184926107a0565b90506020925061078f94915060ff191682840152151560051b8201015f610782565b805180835260209291819084018484015e5f828201840152601f01601f1916010190565b9181601f840112156100a95782359167ffffffffffffffff83116100a957602083818601950101116100a957565b92919267ffffffffffffffff821161023d5760405191610873601f8201601f191660200184610735565b8294818452818301116100a9578281602093845f96013701015256fea264697066735822122096b98da202ee9fa90f272496b80bf5fd97d27bf1d7c0436199cb6a0fead6834a64736f6c634300081a0033",
					"opcodes": "PUSH1 0x80 DUP1 PUSH1 0x40 MSTORE CALLVALUE PUSH1 0x15 JUMPI PUSH2 0x8C5 SWAP1 DUP2 PUSH2 0x1A DUP3 CODECOPY RETURN JUMPDEST PUSH0 DUP1 REVERT INVALID PUSH1 0x80 DUP1 PUSH1 0x40 MSTORE PUSH1 0x4 CALLDATASIZE LT ISZERO PUSH2 0x1A JUMPI JUMPDEST POP CALLDATASIZE ISZERO PUSH2 0x18 JUMPI STOP JUMPDEST STOP JUMPDEST PUSH0 CALLDATALOAD PUSH1 0xE0 SHR SWAP1 DUP2 PUSH4 0x30FDF374 EQ PUSH2 0x657 JUMPI POP DUP1 PUSH4 0x80C9419E EQ PUSH2 0x5C2 JUMPI DUP1 PUSH4 0xD6192E29 EQ PUSH2 0x251 JUMPI DUP1 PUSH4 0xEC821D33 EQ PUSH2 0xC8 JUMPI DUP1 PUSH4 0xF6D0BF2F EQ PUSH2 0xAD JUMPI PUSH4 0xFD8AB482 EQ PUSH2 0x68 JUMPI PUSH0 PUSH2 0xF JUMP JUMPDEST CALLVALUE PUSH2 0xA9 JUMPI PUSH1 0x20 CALLDATASIZE PUSH1 0x3 NOT ADD SLT PUSH2 0xA9 JUMPI PUSH1 0x4 CALLDATALOAD PUSH1 0x1 PUSH1 0x1 PUSH1 0xA0 SHL SUB DUP2 AND SWAP1 DUP2 SWAP1 SUB PUSH2 0xA9 JUMPI PUSH0 MSTORE PUSH1 0x1 PUSH1 0x20 MSTORE PUSH1 0x20 PUSH1 0xFF PUSH1 0x40 PUSH0 KECCAK256 SLOAD AND PUSH1 0x40 MLOAD SWAP1 ISZERO ISZERO DUP2 MSTORE RETURN JUMPDEST PUSH0 DUP1 REVERT JUMPDEST CALLVALUE PUSH2 0xA9 JUMPI PUSH0 CALLDATASIZE PUSH1 0x3 NOT ADD SLT PUSH2 0xA9 JUMPI PUSH1 0x20 SELFBALANCE PUSH1 0x40 MLOAD SWAP1 DUP2 MSTORE RETURN JUMPDEST CALLVALUE PUSH2 0xA9 JUMPI PUSH0 CALLDATASIZE PUSH1 0x3 NOT ADD SLT PUSH2 0xA9 JUMPI PUSH0 SLOAD PUSH8 0xFFFFFFFFFFFFFFFF DUP2 GT PUSH2 0x23D JUMPI PUSH1 0x40 MLOAD SWAP1 PUSH2 0xFD PUSH1 0x20 DUP3 PUSH1 0x5 SHL ADD DUP4 PUSH2 0x735 JUMP JUMPDEST DUP1 DUP3 MSTORE PUSH1 0x20 DUP3 ADD SWAP1 DUP2 PUSH0 DUP1 MSTORE PUSH32 0x290DECD9548B62A8D60345A988386FC84BA6BC95484008F6362F93160EF3E563 PUSH0 SWAP2 JUMPDEST DUP4 DUP4 LT PUSH2 0x1DD JUMPI DUP5 DUP7 PUSH1 0x40 MLOAD SWAP2 DUP3 SWAP2 PUSH1 0x20 DUP4 ADD SWAP1 PUSH1 0x20 DUP5 MSTORE MLOAD DUP1 SWAP2 MSTORE PUSH1 0x40 DUP4 ADD SWAP1 PUSH1 0x40 DUP2 PUSH1 0x5 SHL DUP6 ADD ADD SWAP3 SWAP2 PUSH0 SWAP1 JUMPDEST DUP3 DUP3 LT PUSH2 0x16B JUMPI POP POP POP POP SUB SWAP1 RETURN JUMPDEST SWAP2 SWAP4 PUSH1 0x1 SWAP2 SWAP4 SWAP6 POP PUSH1 0x20 DUP1 SWAP2 PUSH1 0x3F NOT DUP10 DUP3 SUB ADD DUP6 MSTORE DUP8 MLOAD SWAP1 PUSH1 0x80 DUP1 PUSH2 0x1C7 PUSH2 0x19C DUP6 MLOAD PUSH1 0xA0 DUP7 MSTORE PUSH1 0xA0 DUP7 ADD SWAP1 PUSH2 0x7F7 JUMP JUMPDEST DUP9 DUP1 PUSH1 0xA0 SHL SUB DUP8 DUP8 ADD MLOAD AND DUP8 DUP7 ADD MSTORE PUSH1 0x40 DUP7 ADD MLOAD PUSH1 0x40 DUP7 ADD MSTORE PUSH1 0x60 DUP7 ADD MLOAD DUP6 DUP3 SUB PUSH1 0x60 DUP8 ADD MSTORE PUSH2 0x7F7 JUMP JUMPDEST SWAP4 ADD MLOAD SWAP2 ADD MSTORE SWAP7 ADD SWAP3 ADD SWAP3 ADD DUP6 SWAP5 SWAP4 SWAP2 SWAP3 PUSH2 0x15C JUMP JUMPDEST PUSH1 0x5 PUSH1 0x20 PUSH1 0x1 SWAP3 PUSH1 0x40 MLOAD PUSH2 0x1F0 DUP2 PUSH2 0x719 JUMP JUMPDEST PUSH2 0x1F9 DUP7 PUSH2 0x757 JUMP JUMPDEST DUP2 MSTORE DUP5 DUP1 PUSH1 0xA0 SHL SUB DUP6 DUP8 ADD SLOAD AND DUP4 DUP3 ADD MSTORE PUSH1 0x2 DUP7 ADD SLOAD PUSH1 0x40 DUP3 ADD MSTORE PUSH2 0x220 PUSH1 0x3 DUP8 ADD PUSH2 0x757 JUMP JUMPDEST PUSH1 0x60 DUP3 ADD MSTORE PUSH1 0x4 DUP7 ADD SLOAD PUSH1 0x80 DUP3 ADD MSTORE DUP2 MSTORE ADD SWAP3 ADD SWAP3 ADD SWAP2 SWAP1 PUSH2 0x12D JUMP JUMPDEST PUSH4 0x4E487B71 PUSH1 0xE0 SHL PUSH0 MSTORE PUSH1 0x41 PUSH1 0x4 MSTORE PUSH1 0x24 PUSH0 REVERT JUMPDEST PUSH1 0x40 CALLDATASIZE PUSH1 0x3 NOT ADD SLT PUSH2 0xA9 JUMPI PUSH1 0x4 CALLDATALOAD PUSH8 0xFFFFFFFFFFFFFFFF DUP2 GT PUSH2 0xA9 JUMPI PUSH2 0x27D SWAP1 CALLDATASIZE SWAP1 PUSH1 0x4 ADD PUSH2 0x81B JUMP JUMPDEST PUSH1 0x24 CALLDATALOAD PUSH8 0xFFFFFFFFFFFFFFFF DUP2 GT PUSH2 0xA9 JUMPI PUSH2 0x29D SWAP1 CALLDATASIZE SWAP1 PUSH1 0x4 ADD PUSH2 0x81B JUMP JUMPDEST SWAP3 PUSH8 0x8AC7230489E80000 CALLVALUE SUB PUSH2 0xA9 JUMPI PUSH0 CALLVALUE ISZERO PUSH2 0x5B9 JUMPI JUMPDEST PUSH0 DUP1 DUP1 DUP1 SWAP4 CALLVALUE SWAP1 ADDRESS SWAP1 CALL ISZERO PUSH2 0x5AE JUMPI PUSH2 0x2DC SWAP1 PUSH1 0x40 MLOAD SWAP4 PUSH2 0x2D5 DUP6 PUSH2 0x719 JUMP JUMPDEST CALLDATASIZE SWAP2 PUSH2 0x849 JUMP JUMPDEST DUP3 MSTORE PUSH2 0x2F9 PUSH1 0x20 DUP4 ADD SWAP2 CALLER DUP4 MSTORE PUSH1 0x40 DUP5 ADD SWAP5 PUSH1 0xA DUP7 MSTORE CALLDATASIZE SWAP2 PUSH2 0x849 JUMP JUMPDEST SWAP3 PUSH1 0x60 DUP4 ADD SWAP4 DUP5 MSTORE PUSH1 0x80 DUP4 ADD SWAP2 TIMESTAMP DUP4 MSTORE PUSH0 SLOAD PUSH9 0x10000000000000000 DUP2 LT ISZERO PUSH2 0x23D JUMPI DUP1 PUSH1 0x1 PUSH2 0x32B SWAP3 ADD PUSH0 SSTORE PUSH2 0x695 JUMP JUMPDEST SWAP5 SWAP1 SWAP5 PUSH2 0x59B JUMPI MLOAD DUP1 MLOAD SWAP1 PUSH8 0xFFFFFFFFFFFFFFFF DUP3 GT PUSH2 0x23D JUMPI DUP2 SWAP1 PUSH2 0x351 DUP8 SLOAD PUSH2 0x6E1 JUMP JUMPDEST PUSH1 0x1F DUP2 GT PUSH2 0x54B JUMPI JUMPDEST POP PUSH1 0x20 SWAP1 PUSH1 0x1F DUP4 GT PUSH1 0x1 EQ PUSH2 0x4E8 JUMPI PUSH0 SWAP3 PUSH2 0x4DD JUMPI JUMPDEST POP POP DUP2 PUSH1 0x1 SHL SWAP2 PUSH0 NOT SWAP1 PUSH1 0x3 SHL SHR NOT AND OR DUP5 SSTORE JUMPDEST PUSH1 0x1 DUP5 ADD SWAP1 PUSH1 0x1 DUP1 PUSH1 0xA0 SHL SUB SWAP1 MLOAD AND PUSH12 0xFFFFFFFFFFFFFFFFFFFFFFFF PUSH1 0xA0 SHL DUP3 SLOAD AND OR SWAP1 SSTORE MLOAD PUSH1 0x2 DUP4 ADD SSTORE PUSH1 0x3 DUP3 ADD SWAP3 MLOAD SWAP3 DUP4 MLOAD PUSH8 0xFFFFFFFFFFFFFFFF DUP2 GT PUSH2 0x23D JUMPI PUSH2 0x3D1 DUP3 SLOAD PUSH2 0x6E1 JUMP JUMPDEST PUSH1 0x1F DUP2 GT PUSH2 0x498 JUMPI JUMPDEST POP PUSH1 0x20 PUSH1 0x1F DUP3 GT PUSH1 0x1 EQ PUSH2 0x433 JUMPI DUP2 SWAP1 PUSH1 0x4 SWAP6 SWAP7 PUSH0 SWAP3 PUSH2 0x428 JUMPI JUMPDEST POP POP DUP2 PUSH1 0x1 SHL SWAP2 PUSH0 NOT SWAP1 PUSH1 0x3 SHL SHR NOT AND OR SWAP1 SSTORE JUMPDEST MLOAD SWAP2 ADD SSTORE CALLER PUSH0 MSTORE PUSH1 0x1 PUSH1 0x20 MSTORE PUSH1 0x40 PUSH0 KECCAK256 PUSH1 0x1 PUSH1 0xFF NOT DUP3 SLOAD AND OR SWAP1 SSTORE PUSH0 DUP1 RETURN JUMPDEST ADD MLOAD SWAP1 POP DUP7 DUP1 PUSH2 0x3F5 JUMP JUMPDEST PUSH1 0x1F NOT DUP3 AND SWAP6 DUP4 PUSH0 MSTORE DUP2 PUSH0 KECCAK256 SWAP7 PUSH0 JUMPDEST DUP2 DUP2 LT PUSH2 0x480 JUMPI POP SWAP2 PUSH1 0x4 SWAP7 SWAP8 SWAP2 DUP5 PUSH1 0x1 SWAP6 SWAP5 LT PUSH2 0x468 JUMPI JUMPDEST POP POP POP DUP2 SHL ADD SWAP1 SSTORE PUSH2 0x409 JUMP JUMPDEST ADD MLOAD PUSH0 NOT PUSH1 0xF8 DUP5 PUSH1 0x3 SHL AND SHR NOT AND SWAP1 SSTORE DUP7 DUP1 DUP1 PUSH2 0x45B JUMP JUMPDEST DUP4 DUP4 ADD MLOAD DUP10 SSTORE PUSH1 0x1 SWAP1 SWAP9 ADD SWAP8 PUSH1 0x20 SWAP4 DUP5 ADD SWAP4 ADD PUSH2 0x442 JUMP JUMPDEST DUP3 PUSH0 MSTORE PUSH1 0x20 PUSH0 KECCAK256 PUSH1 0x1F DUP4 ADD PUSH1 0x5 SHR DUP2 ADD SWAP2 PUSH1 0x20 DUP5 LT PUSH2 0x4D3 JUMPI JUMPDEST PUSH1 0x1F ADD PUSH1 0x5 SHR ADD SWAP1 JUMPDEST DUP2 DUP2 LT PUSH2 0x4C8 JUMPI POP PUSH2 0x3DA JUMP JUMPDEST PUSH0 DUP2 SSTORE PUSH1 0x1 ADD PUSH2 0x4BB JUMP JUMPDEST SWAP1 SWAP2 POP DUP2 SWAP1 PUSH2 0x4B2 JUMP JUMPDEST ADD MLOAD SWAP1 POP DUP8 DUP1 PUSH2 0x370 JUMP JUMPDEST PUSH0 DUP9 DUP2 MSTORE DUP3 DUP2 KECCAK256 SWAP4 POP PUSH1 0x1F NOT DUP6 AND SWAP1 JUMPDEST DUP2 DUP2 LT PUSH2 0x533 JUMPI POP SWAP1 DUP5 PUSH1 0x1 SWAP6 SWAP5 SWAP4 SWAP3 LT PUSH2 0x51B JUMPI JUMPDEST POP POP POP DUP2 SHL ADD DUP5 SSTORE PUSH2 0x384 JUMP JUMPDEST ADD MLOAD PUSH0 NOT PUSH1 0xF8 DUP5 PUSH1 0x3 SHL AND SHR NOT AND SWAP1 SSTORE DUP8 DUP1 DUP1 PUSH2 0x50E JUMP JUMPDEST SWAP3 SWAP4 PUSH1 0x20 PUSH1 0x1 DUP2 SWAP3 DUP8 DUP7 ADD MLOAD DUP2 SSTORE ADD SWAP6 ADD SWAP4 ADD PUSH2 0x4F8 JUMP JUMPDEST SWAP1 SWAP2 POP DUP7 PUSH0 MSTORE PUSH1 0x20 PUSH0 KECCAK256 PUSH1 0x1F DUP5 ADD PUSH1 0x5 SHR DUP2 ADD SWAP2 PUSH1 0x20 DUP6 LT PUSH2 0x591 JUMPI JUMPDEST SWAP1 PUSH1 0x1F DUP6 SWAP5 SWAP4 SWAP3 ADD PUSH1 0x5 SHR ADD SWAP1 JUMPDEST DUP2 DUP2 LT PUSH2 0x583 JUMPI POP PUSH2 0x35A JUMP JUMPDEST PUSH0 DUP2 SSTORE DUP5 SWAP4 POP PUSH1 0x1 ADD PUSH2 0x576 JUMP JUMPDEST SWAP1 SWAP2 POP DUP2 SWAP1 PUSH2 0x568 JUMP JUMPDEST PUSH4 0x4E487B71 PUSH1 0xE0 SHL PUSH0 MSTORE PUSH0 PUSH1 0x4 MSTORE PUSH1 0x24 PUSH0 REVERT JUMPDEST PUSH1 0x40 MLOAD RETURNDATASIZE PUSH0 DUP3 RETURNDATACOPY RETURNDATASIZE SWAP1 REVERT JUMPDEST POP PUSH2 0x8FC PUSH2 0x2B5 JUMP JUMPDEST CALLVALUE PUSH2 0xA9 JUMPI PUSH1 0x20 CALLDATASIZE PUSH1 0x3 NOT ADD SLT PUSH2 0xA9 JUMPI PUSH1 0x4 CALLDATALOAD PUSH0 SLOAD DUP2 LT ISZERO PUSH2 0xA9 JUMPI PUSH2 0x5EB PUSH2 0x635 SWAP2 PUSH2 0x695 JUMP JUMPDEST POP PUSH2 0x5F5 DUP2 PUSH2 0x757 JUMP JUMPDEST PUSH1 0x1 DUP3 ADD SLOAD PUSH1 0x2 DUP4 ADD SLOAD SWAP2 SWAP3 PUSH2 0x64D SWAP2 PUSH1 0x1 PUSH1 0x1 PUSH1 0xA0 SHL SUB AND SWAP1 PUSH1 0x4 PUSH2 0x61D PUSH1 0x3 DUP4 ADD PUSH2 0x757 JUMP JUMPDEST SWAP2 ADD SLOAD SWAP4 PUSH1 0x40 MLOAD SWAP7 DUP8 SWAP7 PUSH1 0xA0 DUP9 MSTORE PUSH1 0xA0 DUP9 ADD SWAP1 PUSH2 0x7F7 JUMP JUMPDEST SWAP3 PUSH1 0x20 DUP8 ADD MSTORE PUSH1 0x40 DUP7 ADD MSTORE DUP5 DUP3 SUB PUSH1 0x60 DUP7 ADD MSTORE PUSH2 0x7F7 JUMP JUMPDEST SWAP1 PUSH1 0x80 DUP4 ADD MSTORE SUB SWAP1 RETURN JUMPDEST CALLVALUE PUSH2 0xA9 JUMPI PUSH1 0x20 CALLDATASIZE PUSH1 0x3 NOT ADD SLT PUSH2 0xA9 JUMPI PUSH1 0x4 CALLDATALOAD PUSH1 0x1 PUSH1 0x1 PUSH1 0xA0 SHL SUB DUP2 AND SWAP2 SWAP1 DUP3 SWAP1 SUB PUSH2 0xA9 JUMPI PUSH1 0x20 SWAP2 PUSH0 MSTORE PUSH1 0x1 DUP3 MSTORE PUSH1 0xFF PUSH1 0x40 PUSH0 KECCAK256 SLOAD AND ISZERO ISZERO DUP2 MSTORE RETURN JUMPDEST PUSH0 SLOAD DUP2 LT ISZERO PUSH2 0x6CD JUMPI PUSH0 DUP1 DUP1 MSTORE PUSH1 0x5 SWAP2 SWAP1 SWAP2 MUL PUSH32 0x290DECD9548B62A8D60345A988386FC84BA6BC95484008F6362F93160EF3E563 ADD SWAP2 JUMP JUMPDEST PUSH4 0x4E487B71 PUSH1 0xE0 SHL PUSH0 MSTORE PUSH1 0x32 PUSH1 0x4 MSTORE PUSH1 0x24 PUSH0 REVERT JUMPDEST SWAP1 PUSH1 0x1 DUP3 DUP2 SHR SWAP3 AND DUP1 ISZERO PUSH2 0x70F JUMPI JUMPDEST PUSH1 0x20 DUP4 LT EQ PUSH2 0x6FB JUMPI JUMP JUMPDEST PUSH4 0x4E487B71 PUSH1 0xE0 SHL PUSH0 MSTORE PUSH1 0x22 PUSH1 0x4 MSTORE PUSH1 0x24 PUSH0 REVERT JUMPDEST SWAP2 PUSH1 0x7F AND SWAP2 PUSH2 0x6F0 JUMP JUMPDEST PUSH1 0xA0 DUP2 ADD SWAP1 DUP2 LT PUSH8 0xFFFFFFFFFFFFFFFF DUP3 GT OR PUSH2 0x23D JUMPI PUSH1 0x40 MSTORE JUMP JUMPDEST SWAP1 PUSH1 0x1F DUP1 NOT SWAP2 ADD AND DUP2 ADD SWAP1 DUP2 LT PUSH8 0xFFFFFFFFFFFFFFFF DUP3 GT OR PUSH2 0x23D JUMPI PUSH1 0x40 MSTORE JUMP JUMPDEST SWAP1 PUSH1 0x40 MLOAD SWAP2 DUP3 PUSH0 DUP3 SLOAD SWAP3 PUSH2 0x76A DUP5 PUSH2 0x6E1 JUMP JUMPDEST DUP1 DUP5 MSTORE SWAP4 PUSH1 0x1 DUP2 AND SWAP1 DUP2 ISZERO PUSH2 0x7D5 JUMPI POP PUSH1 0x1 EQ PUSH2 0x791 JUMPI JUMPDEST POP PUSH2 0x78F SWAP3 POP SUB DUP4 PUSH2 0x735 JUMP JUMPDEST JUMP JUMPDEST SWAP1 POP PUSH0 SWAP3 SWAP2 SWAP3 MSTORE PUSH1 0x20 PUSH0 KECCAK256 SWAP1 PUSH0 SWAP2 JUMPDEST DUP2 DUP4 LT PUSH2 0x7B9 JUMPI POP POP SWAP1 PUSH1 0x20 PUSH2 0x78F SWAP3 DUP3 ADD ADD PUSH0 PUSH2 0x782 JUMP JUMPDEST PUSH1 0x20 SWAP2 SWAP4 POP DUP1 PUSH1 0x1 SWAP2 SLOAD DUP4 DUP6 DUP10 ADD ADD MSTORE ADD SWAP2 ADD SWAP1 SWAP2 DUP5 SWAP3 PUSH2 0x7A0 JUMP JUMPDEST SWAP1 POP PUSH1 0x20 SWAP3 POP PUSH2 0x78F SWAP5 SWAP2 POP PUSH1 0xFF NOT AND DUP3 DUP5 ADD MSTORE ISZERO ISZERO PUSH1 0x5 SHL DUP3 ADD ADD PUSH0 PUSH2 0x782 JUMP JUMPDEST DUP1 MLOAD DUP1 DUP4 MSTORE PUSH1 0x20 SWAP3 SWAP2 DUP2 SWAP1 DUP5 ADD DUP5 DUP5 ADD MCOPY PUSH0 DUP3 DUP3 ADD DUP5 ADD MSTORE PUSH1 0x1F ADD PUSH1 0x1F NOT AND ADD ADD SWAP1 JUMP JUMPDEST SWAP2 DUP2 PUSH1 0x1F DUP5 ADD SLT ISZERO PUSH2 0xA9 JUMPI DUP3 CALLDATALOAD SWAP2 PUSH8 0xFFFFFFFFFFFFFFFF DUP4 GT PUSH2 0xA9 JUMPI PUSH1 0x20 DUP4 DUP2 DUP7 ADD SWAP6 ADD ADD GT PUSH2 0xA9 JUMPI JUMP JUMPDEST SWAP3 SWAP2 SWAP3 PUSH8 0xFFFFFFFFFFFFFFFF DUP3 GT PUSH2 0x23D JUMPI PUSH1 0x40 MLOAD SWAP2 PUSH2 0x873 PUSH1 0x1F DUP3 ADD PUSH1 0x1F NOT AND PUSH1 0x20 ADD DUP5 PUSH2 0x735 JUMP JUMPDEST DUP3 SWAP5 DUP2 DUP5 MSTORE DUP2 DUP4 ADD GT PUSH2 0xA9 JUMPI DUP3 DUP2 PUSH1 0x20 SWAP4 DUP5 PUSH0 SWAP7 ADD CALLDATACOPY ADD ADD MSTORE JUMP INVALID LOG2 PUSH5 0x6970667358 0x22 SLT KECCAK256 SWAP7 0xB9 DUP14 LOG2 MUL 0xEE SWAP16 0xA9 0xF 0x27 0x24 SWAP7 0xB8 SIGNEXTEND CREATE2 REVERT SWAP8 0xD2 PUSH28 0xF1D7C0436199CB6A0FEAD6834A64736F6C634300081A003300000000 "
				},
				"gasEstimates": {
					"creation": {
						"codeDepositCost": "449000",
						"executionCost": "493",
						"totalCost": "449493"
					},
					"external": {
						"": "226",
						"DelegatorInserted(address)": "2374",
						"GetContractBalance()": "246",
						"ListDelegator()": "infinite",
						"Register(string,string)": "infinite",
						"isDelegator(address)": "2486",
						"list(uint256)": "infinite"
					}
				},
				"methodIdentifiers": {
					"DelegatorInserted(address)": "30fdf374",
					"GetContractBalance()": "f6d0bf2f",
					"ListDelegator()": "ec821d33",
					"Register(string,string)": "d6192e29",
					"isDelegator(address)": "fd8ab482",
					"list(uint256)": "80c9419e"
				}
			},
			"storageLayout": {
				"storage": [
					{
						"astId": 651,
						"contract": "ctiIncentiveDedupRegistry/ThreatTest.sol:DelegatorContract",
						"label": "list",
						"offset": 0,
						"slot": "0",
						"type": "t_array(t_struct(Delegator)647_storage)dyn_storage"
					},
					{
						"astId": 655,
						"contract": "ctiIncentiveDedupRegistry/ThreatTest.sol:DelegatorContract",
						"label": "DelegatorInserted",
						"offset": 0,
						"slot": "1",
						"type": "t_mapping(t_address,t_bool)"
					}
				],
				"types": {
					"t_address": {
						"encoding": "inplace",
						"label": "address",
						"numberOfBytes": "20"
					},
					"t_array(t_struct(Delegator)647_storage)dyn_storage": {
						"base": "t_struct(Delegator)647_storage",
						"encoding": "dynamic_array",
						"label": "struct DelegatorContract.Delegator[]",
						"numberOfBytes": "32"
					},
					"t_bool": {
						"encoding": "inplace",
						"label": "bool",
						"numberOfBytes": "1"
					},
					"t_int256": {
						"encoding": "inplace",
						"label": "int256",
						"numberOfBytes": "32"
					},
					"t_mapping(t_address,t_bool)": {
						"encoding": "mapping",
						"key": "t_address",
						"label": "mapping(address => bool)",
						"numberOfBytes": "32",
						"value": "t_bool"
					},
					"t_string_storage": {
						"encoding": "bytes",
						"label": "string",
						"numberOfBytes": "32"
					},
					"t_struct(Delegator)647_storage": {
						"encoding": "inplace",
						"label": "struct DelegatorContract.Delegator",
						"members": [
							{
								"astId": 638,
								"contract": "ctiIncentiveDedupRegistry/ThreatTest.sol:DelegatorContract",
								"label": "name",
								"offset": 0,
								"slot": "0",
								"type": "t_string_storage"
							},
							{
								"astId": 640,
								"contract": "ctiIncentiveDedupRegistry/ThreatTest.sol:DelegatorContract",
								"label": "addr",
								"offset": 0,
								"slot": "1",
								"type": "t_address"
							},
							{
								"astId": 642,
								"contract": "ctiIncentiveDedupRegistry/ThreatTest.sol:DelegatorContract",
								"label": "reputation",
								"offset": 0,
								"slot": "2",
								"type": "t_int256"
							},
							{
								"astId": 644,
								"contract": "ctiIncentiveDedupRegistry/ThreatTest.sol:DelegatorContract",
								"label": "pubkey",
								"offset": 0,
								"slot": "3",
								"type": "t_string_storage"
							},
							{
								"astId": 646,
								"contract": "ctiIncentiveDedupRegistry/ThreatTest.sol:DelegatorContract",
								"label": "time",
								"offset": 0,
								"slot": "4",
								"type": "t_uint256"
							}
						],
						"numberOfBytes": "160"
					},
					"t_uint256": {
						"encoding": "inplace",
						"label": "uint256",
						"numberOfBytes": "32"
					}
				}
			},
			"userdoc": {
				"kind": "user",
				"methods": {},
				"version": 1
			}
		}
	}
}