{
	"ctiIncentiveDedupRegistry/ThreatTest.sol": {
		"AssignmentContract": {
			"abi": [
				{
					"inputs": [
						{
							"internalType": "address payable",
							"name": "addr",
							"type": "address"
						}
					],
					"stateMutability": "nonpayable",
					"type": "constructor"
				},
				{
					"anonymous": false,
					"inputs": [
						{
							"indexed": false,
							"internalType": "address",
							"name": "delegator_address",
							"type": "address"
						},
						{
							"indexed": false,
							"internalType": "string",
							"name": "txid",
							"type": "string"
						},
						{
							"indexed": false,
							"internalType": "uint256",
							"name": "pay",
							"type": "uint256"
						},
						{
							"indexed": false,
							"internalType": "string",
							"name": "pubkey",
							"type": "string"
						}
					],
					"name": "ConsumerAssignmentComing",
					"type": "event"
				},
				{
					"anonymous": false,
					"inputs": [
						{
							"indexed": false,
							"internalType": "address",
							"name": "consumer",
							"type": "address"
						},
						{
							"indexed": false,
							"internalType": "string",
							"name": "ipfshash",
							"type": "string"
						},
						{
							"indexed": false,
							"internalType": "string",
							"name": "txid",
							"type": "string"
						}
					],
					"name": "IPFSHashComing",
					"type": "event"
				},
				{
					"anonymous": false,
					"inputs": [
						{
							"indexed": false,
							"internalType": "address[]",
							"name": "addresses",
							"type": "address[]"
						},
						{
							"indexed": false,
							"internalType": "address",
							"name": "producer",
							"type": "address"
						},
						{
							"indexed": false,
							"internalType": "string",
							"name": "tid",
							"type": "string"
						},
						{
							"indexed": false,
							"internalType": "string",
							"name": "ipfshash",
							"type": "string"
						}
					],
					"name": "ProducerAssignmentComing",
					"type": "event"
				},
				{
					"inputs": [
						{
							"internalType": "string",
							"name": "txid",
							"type": "string"
						}
					],
					"name": "CheckCTI",
					"outputs": [],
					"stateMutability": "payable",
					"type": "function"
				},
				{
					"inputs": [
						{
							"internalType": "string",
							"name": "tid",
							"type": "string"
						},
						{
							"internalType": "string",
							"name": "txid",
							"type": "string"
						},
						{
							"internalType": "address",
							"name": "addr",
							"type": "address"
						},
						{
							"internalType": "string",
							"name": "pubkey",
							"type": "string"
						}
					],
					"name": "ConsumerSelectDelegator",
					"outputs": [],
					"stateMutability": "payable",
					"type": "function"
				},
				{
					"inputs": [
						{
							"internalType": "string",
							"name": "tid",
							"type": "string"
						}
					],
					"name": "GetAssignmentVerified",
					"outputs": [
						{
							"internalType": "address[]",
							"name": "",
							"type": "address[]"
						}
					],
					"stateMutability": "view",
					"type": "function"
				},
				{
					"inputs": [
						{
							"internalType": "string",
							"name": "tid",
							"type": "string"
						},
						{
							"internalType": "address[]",
							"name": "delegators_address",
							"type": "address[]"
						},
						{
							"internalType": "uint256",
							"name": "price",
							"type": "uint256"
						},
						{
							"internalType": "uint256",
							"name": "producer_price",
							"type": "uint256"
						},
						{
							"internalType": "uint256",
							"name": "delegator_price",
							"type": "uint256"
						},
						{
							"internalType": "string",
							"name": "ipfsHash",
							"type": "string"
						}
					],
					"name": "ProducerSelectDelegator",
					"outputs": [
						{
							"internalType": "bool",
							"name": "",
							"type": "bool"
						}
					],
					"stateMutability": "nonpayable",
					"type": "function"
				},
				{
					"inputs": [
						{
							"internalType": "string",
							"name": "ipfshash",
							"type": "string"
						},
						{
							"internalType": "address",
							"name": "consumer",
							"type": "address"
						},
						{
							"internalType": "string",
							"name": "txid",
							"type": "string"
						}
					],
					"name": "UploadCTI",
					"outputs": [],
					"stateMutability": "nonpayable",
					"type": "function"
				},
				{
					"inputs": [
						{
							"internalType": "string",
							"name": "tid",
							"type": "string"
						},
						{
							"internalType": "bool",
							"name": "opt",
							"type": "bool"
						}
					],
					"name": "VerifyAssignment",
					"outputs": [
						{
							"internalType": "bool",
							"name": "",
							"type": "bool"
						}
					],
					"stateMutability": "nonpayable",
					"type": "function"
				},
				{
					"inputs": [
						{
							"internalType": "string",
							"name": "txid",
							"type": "string"
						},
						{
							"internalType": "string",
							"name": "name",
							"type": "string"
						},
						{
							"internalType": "string",
							"name": "pubkey",
							"type": "string"
						}
					],
					"name": "consumerUpgrade",
					"outputs": [],
					"stateMutability": "payable",
					"type": "function"
				},
				{
					"inputs": [
						{
							"internalType": "string",
							"name": "",
							"type": "string"
						}
					],
					"name": "tx_list",
					"outputs": [
						{
							"internalType": "string",
							"name": "tid",
							"type": "string"
						},
						{
							"internalType": "string",
							"name": "txid",
							"type": "string"
						},
						{
							"internalType": "address",
							"name": "producer",
							"type": "address"
						},
						{
							"internalType": "address",
							"name": "delegator",
							"type": "address"
						},
						{
							"internalType": "address",
							"name": "consumer",
							"type": "address"
						},
						{
							"internalType": "uint256",
							"name": "price",
							"type": "uint256"
						},
						{
							"internalType": "uint256",
							"name": "producer_price",
							"type": "uint256"
						},
						{
							"internalType": "uint256",
							"name": "delegator_price",
							"type": "uint256"
						},
						{
							"internalType": "int256",
							"name": "status",
							"type": "int256"
						}
					],
					"stateMutability": "view",
					"type": "function"
				}
			],
			"devdoc": {
				"kind": "dev",
				"methods": {},
				"version": 1
			},
			"evm": {
				"assembly": "    /* \"ctiIncentiveDedupRegistry/ThreatTest.sol\":1369:6796  contract AssignmentContract {... */\n  0x80\n  jumpi(tag_7, callvalue)\n  0x1f\n  bytecodeSize\n  codesize\n  dup2\n  swap1\n  sub\n  swap2\n  dup3\n  add\n  not(0x1f)\n  and\n  dup4\n  add\n  swap2\n  sub(shl(0x40, 0x01), 0x01)\n  dup4\n  gt\n  dup5\n  dup5\n  lt\n  or\n  tag_3\n  jumpi\n  dup1\n  dup5\n  swap3\n  0x20\n  swap5\n  0x40\n  mstore\n  dup4\n  codecopy\n  dup2\n  add\n  sub\n  slt\n  tag_7\n  jumpi\n  mload\n  sub(shl(0xa0, 0x01), 0x01)\n  dup2\n  and\n  swap1\n  dup2\n  swap1\n  sub\n  tag_7\n  jumpi\n  0x00\n  dup1\n  sload\n  not(sub(shl(0xa0, 0x01), 0x01))\n  and\n  swap2\n  swap1\n  swap2\n  or\n  swap1\n  sstore\n  mload(0x40)\n  dataSize(sub_0)\n  swap1\n  dup2\n  dataOffset(sub_0)\n  dup3\n  codecopy\n  return\ntag_7:\n  0x00\n  dup1\n  revert\ntag_3:\n  mstore(0x00, shl(0xe0, 0x4e487b71))\n  mstore(0x04, 0x41)\n  revert(0x00, 0x24)\nstop\n\nsub_0: assembly {\n        /* \"ctiIncentiveDedupRegistry/ThreatTest.sol\":1369:6796  contract AssignmentContract {... */\n      mstore(0x40, 0x80)\n      jumpi(tag_22, iszero(lt(calldatasize, 0x04)))\n      0x00\n      dup1\n      revert\n    tag_22:\n      shr(0xe0, calldataload(0x00))\n      dup1\n      0x82da59f2\n      eq\n      tag_24\n      jumpi\n      dup1\n      0xb3a1c864\n      eq\n      tag_26\n      jumpi\n      dup1\n      0xcf99f51d\n      eq\n      tag_28\n      jumpi\n      dup1\n      0xdc7e701e\n      eq\n      tag_30\n      jumpi\n      dup1\n      0xe2599078\n      eq\n      tag_32\n      jumpi\n      dup1\n      0xea7937c2\n      eq\n      tag_34\n      jumpi\n      dup1\n      0xf26d9918\n      eq\n      tag_36\n      jumpi\n      0xfa4a3287\n      eq\n      tag_38\n      jumpi\n      0x00\n      dup1\n      revert\n    tag_38:\n      jumpi(tag_49, callvalue)\n      jumpi(tag_49, slt(add(not(0x03), calldatasize), 0x60))\n      calldataload(0x04)\n      sub(shl(0x40, 0x01), 0x01)\n      dup2\n      gt\n      tag_49\n      jumpi\n      tag_46\n      swap1\n      calldatasize\n      swap1\n      0x04\n      add\n      tag_1\n      jump\t// in\n    tag_46:\n      calldataload(0x24)\n      sub(shl(0xa0, 0x01), 0x01)\n      dup2\n      and\n      swap1\n      dup2\n      swap1\n      sub\n      tag_49\n      jumpi\n      calldataload(0x44)\n      sub(shl(0x40, 0x01), 0x01)\n      dup2\n      gt\n      tag_49\n      jumpi\n        /* \"ctiIncentiveDedupRegistry/ThreatTest.sol\":4476:4514  IPFSHashComing(consumer,ipfshash,txid) */\n      0x696776fbada6026b2cc4883473b601f70eed8609668c456c07681055dca814f0\n        /* \"ctiIncentiveDedupRegistry/ThreatTest.sol\":1369:6796  contract AssignmentContract {... */\n      swap4\n      tag_51\n      tag_52\n      tag_53\n      swap4\n      calldatasize\n      swap1\n      0x04\n      add\n      tag_1\n      jump\t// in\n    tag_52:\n      swap2\n      swap1\n      swap3\n      mload(0x40)\n      swap7\n      dup8\n      swap7\n      dup8\n      mstore\n      0x60\n      0x20\n      dup9\n      add\n      mstore\n      0x60\n      dup8\n      add\n      swap2\n      tag_12\n      jump\t// in\n    tag_51:\n      swap2\n      dup5\n      dup4\n      sub\n      0x40\n      dup7\n      add\n      mstore\n      tag_12\n      jump\t// in\n    tag_53:\n        /* \"ctiIncentiveDedupRegistry/ThreatTest.sol\":4476:4514  IPFSHashComing(consumer,ipfshash,txid) */\n      sub\n      swap1\n      log1\n        /* \"ctiIncentiveDedupRegistry/ThreatTest.sol\":1369:6796  contract AssignmentContract {... */\n      stop\n    tag_49:\n      0x00\n      dup1\n      revert\n    tag_36:\n      jumpi(tag_49, callvalue)\n      jumpi(tag_49, slt(add(not(0x03), calldatasize), 0x40))\n      calldataload(0x04)\n      sub(shl(0x40, 0x01), 0x01)\n      dup2\n      gt\n      tag_49\n      jumpi\n      tag_60\n      swap1\n      calldatasize\n      swap1\n      0x04\n      add\n      tag_1\n      jump\t// in\n    tag_60:\n      swap1\n      calldataload(0x24)\n      dup1\n      iszero\n      iszero\n      dup2\n      sub\n      tag_49\n      jumpi\n      0x20\n      swap3\n      tag_63\n      swap3\n      tag_20\n      jump\t// in\n    tag_63:\n      mload(0x40)\n      swap1\n      iszero\n      iszero\n      dup2\n      mstore\n      return\n    tag_34:\n      jumpi(tag_49, slt(add(not(0x03), calldatasize), 0x60))\n      calldataload(0x04)\n      sub(shl(0x40, 0x01), 0x01)\n      dup2\n      gt\n      tag_49\n      jumpi\n      tag_68\n      swap1\n      calldatasize\n      swap1\n      0x04\n      add\n      tag_1\n      jump\t// in\n    tag_68:\n      calldataload(0x24)\n      sub(shl(0x40, 0x01), 0x01)\n      dup2\n      gt\n      tag_49\n      jumpi\n      tag_71\n      swap1\n      calldatasize\n      swap1\n      0x04\n      add\n      tag_1\n      jump\t// in\n    tag_71:\n      calldataload(0x44)\n      swap4\n      swap2\n      sub(shl(0x40, 0x01), 0x01)\n      dup6\n      gt\n      tag_49\n      jumpi\n      tag_74\n      tag_75\n      swap6\n      calldatasize\n      swap1\n      0x04\n      add\n      tag_1\n      jump\t// in\n    tag_74:\n      swap5\n      swap1\n      swap4\n      tag_19\n      jump\t// in\n    tag_75:\n      stop\n    tag_32:\n      jumpi(tag_49, callvalue)\n      jumpi(tag_49, slt(add(not(0x03), calldatasize), 0x20))\n      calldataload(0x04)\n      sub(shl(0x40, 0x01), 0x01)\n      dup2\n      gt\n      tag_49\n      jumpi\n      0x20\n      tag_82\n      tag_83\n      swap3\n      calldatasize\n      swap1\n      0x04\n      add\n      tag_1\n      jump\t// in\n    tag_82:\n      swap2\n      swap1\n      dup3\n      mload(0x40)\n      swap4\n      dup5\n      swap3\n      dup4\n      calldatacopy\n      dup2\n      add\n        /* \"ctiIncentiveDedupRegistry/ThreatTest.sol\":6196:6202  record */\n      0x01\n        /* \"ctiIncentiveDedupRegistry/ThreatTest.sol\":1369:6796  contract AssignmentContract {... */\n      dup2\n      mstore\n      sub\n      add\n      swap1\n      keccak256\n      tag_14\n      jump\t// in\n    tag_83:\n      mload(0x40)\n      dup1\n      swap2\n      0x20\n      dup3\n      add\n      0x20\n      dup4\n      mstore\n      dup2\n      mload\n      dup1\n      swap2\n      mstore\n      0x20\n      0x40\n      dup5\n      add\n      swap3\n      add\n      swap1\n      0x00\n    tag_84:\n      dup2\n      dup2\n      lt\n      tag_85\n      jumpi\n      pop\n      pop\n      pop\n      sub\n      swap1\n      return\n    tag_85:\n      dup3\n      mload\n      sub(shl(0xa0, 0x01), 0x01)\n      and\n      dup5\n      mstore\n      dup6\n      swap5\n      pop\n      0x20\n      swap4\n      dup5\n      add\n      swap4\n      swap1\n      swap3\n      add\n      swap2\n        /* \"ctiIncentiveDedupRegistry/ThreatTest.sol\":6196:6202  record */\n      0x01\n        /* \"ctiIncentiveDedupRegistry/ThreatTest.sol\":1369:6796  contract AssignmentContract {... */\n      add\n      jump(tag_84)\n    tag_30:\n      jumpi(tag_49, slt(add(not(0x03), calldatasize), 0x20))\n      calldataload(0x04)\n      sub(shl(0x40, 0x01), 0x01)\n      dup2\n      gt\n      tag_49\n      jumpi\n      tag_91\n      tag_75\n      swap2\n      calldatasize\n      swap1\n      0x04\n      add\n      tag_1\n      jump\t// in\n    tag_91:\n      swap1\n      tag_17\n      jump\t// in\n    tag_28:\n      jumpi(tag_49, callvalue)\n      jumpi(tag_49, slt(add(not(0x03), calldatasize), 0x20))\n      calldataload(0x04)\n      sub(shl(0x40, 0x01), 0x01)\n      dup2\n      gt\n      tag_49\n      jumpi\n      0x20\n      dup1\n      tag_99\n      tag_100\n      swap4\n      calldatasize\n      swap1\n      0x04\n      add\n      tag_6\n      jump\t// in\n    tag_99:\n      mload(0x40)\n      swap3\n      dup2\n      dup5\n      swap3\n      mload\n      swap2\n      dup3\n      swap2\n      add\n      dup4\n      mcopy\n      dup2\n      add\n        /* \"ctiIncentiveDedupRegistry/ThreatTest.sol\":2149:2194  mapping(string => transaction) public tx_list */\n      0x03\n        /* \"ctiIncentiveDedupRegistry/ThreatTest.sol\":1369:6796  contract AssignmentContract {... */\n      dup2\n      mstore\n      sub\n      add\n      swap1\n      keccak256\n        /* \"ctiIncentiveDedupRegistry/ThreatTest.sol\":2149:2194  mapping(string => transaction) public tx_list */\n      tag_101\n      dup2\n      tag_9\n      jump\t// in\n    tag_101:\n      swap1\n      tag_102\n      0x01\n      dup3\n      add\n      tag_9\n      jump\t// in\n    tag_102:\n        /* \"ctiIncentiveDedupRegistry/ThreatTest.sol\":1369:6796  contract AssignmentContract {... */\n      0x01\n      dup1\n      0xa0\n      shl\n      sub\n        /* \"ctiIncentiveDedupRegistry/ThreatTest.sol\":2149:2194  mapping(string => transaction) public tx_list */\n      0x02\n      dup4\n      add\n        /* \"ctiIncentiveDedupRegistry/ThreatTest.sol\":1369:6796  contract AssignmentContract {... */\n      sload\n      and\n      swap2\n      0x01\n      dup1\n      0xa0\n      shl\n      sub\n        /* \"ctiIncentiveDedupRegistry/ThreatTest.sol\":2149:2194  mapping(string => transaction) public tx_list */\n      0x03\n      dup3\n      add\n        /* \"ctiIncentiveDedupRegistry/ThreatTest.sol\":1369:6796  contract AssignmentContract {... */\n      sload\n      and\n      0x01\n      dup1\n      0xa0\n      shl\n      sub\n      0x04\n        /* \"ctiIncentiveDedupRegistry/ThreatTest.sol\":2149:2194  mapping(string => transaction) public tx_list */\n      dup4\n      add\n        /* \"ctiIncentiveDedupRegistry/ThreatTest.sol\":1369:6796  contract AssignmentContract {... */\n      sload\n      and\n        /* \"ctiIncentiveDedupRegistry/ThreatTest.sol\":2149:2194  mapping(string => transaction) public tx_list */\n      0x05\n      dup4\n      add\n        /* \"ctiIncentiveDedupRegistry/ThreatTest.sol\":1369:6796  contract AssignmentContract {... */\n      sload\n        /* \"ctiIncentiveDedupRegistry/ThreatTest.sol\":2149:2194  mapping(string => transaction) public tx_list */\n      swap1\n      0x06\n      dup5\n      add\n        /* \"ctiIncentiveDedupRegistry/ThreatTest.sol\":1369:6796  contract AssignmentContract {... */\n      sload\n        /* \"ctiIncentiveDedupRegistry/ThreatTest.sol\":2149:2194  mapping(string => transaction) public tx_list */\n      swap3\n        /* \"ctiIncentiveDedupRegistry/ThreatTest.sol\":1369:6796  contract AssignmentContract {... */\n      tag_103\n        /* \"ctiIncentiveDedupRegistry/ThreatTest.sol\":2149:2194  mapping(string => transaction) public tx_list */\n      0x08\n      0x07\n      dup8\n      add\n        /* \"ctiIncentiveDedupRegistry/ThreatTest.sol\":1369:6796  contract AssignmentContract {... */\n      sload\n        /* \"ctiIncentiveDedupRegistry/ThreatTest.sol\":2149:2194  mapping(string => transaction) public tx_list */\n      swap7\n      add\n        /* \"ctiIncentiveDedupRegistry/ThreatTest.sol\":1369:6796  contract AssignmentContract {... */\n      sload\n      swap7\n      mload(0x40)\n      swap11\n      dup12\n      swap11\n      0x0120\n      dup13\n      mstore\n      0x0120\n      dup13\n      add\n      swap1\n      tag_10\n      jump\t// in\n    tag_100:\n      swap1\n      dup11\n      dup3\n      sub\n      0x20\n      dup13\n      add\n      mstore\n      tag_10\n      jump\t// in\n    tag_103:\n      swap7\n      0x40\n      dup10\n      add\n      mstore\n      0x60\n      dup9\n      add\n      mstore\n      0x80\n      dup8\n      add\n      mstore\n      0xa0\n      dup7\n      add\n      mstore\n      0xc0\n      dup6\n      add\n      mstore\n      0xe0\n      dup5\n      add\n      mstore\n      0x0100\n      dup4\n      add\n      mstore\n      sub\n      swap1\n      return\n    tag_26:\n      jumpi(tag_49, slt(add(not(0x03), calldatasize), 0x80))\n      calldataload(0x04)\n      sub(shl(0x40, 0x01), 0x01)\n      dup2\n      gt\n      tag_49\n      jumpi\n      tag_108\n      swap1\n      calldatasize\n      swap1\n      0x04\n      add\n      tag_6\n      jump\t// in\n    tag_108:\n      calldataload(0x24)\n      sub(shl(0x40, 0x01), 0x01)\n      dup2\n      gt\n      tag_49\n      jumpi\n      tag_111\n      swap1\n      calldatasize\n      swap1\n      0x04\n      add\n      tag_6\n      jump\t// in\n    tag_111:\n      calldataload(0x44)\n      swap2\n      sub(shl(0xa0, 0x01), 0x01)\n      dup4\n      and\n      dup4\n      sub\n      tag_49\n      jumpi\n      calldataload(0x64)\n      swap3\n      sub(shl(0x40, 0x01), 0x01)\n      dup5\n      gt\n      tag_49\n      jumpi\n      tag_116\n      tag_75\n      swap5\n      calldatasize\n      swap1\n      0x04\n      add\n      tag_1\n      jump\t// in\n    tag_116:\n      swap4\n      swap1\n      swap3\n      tag_15\n      jump\t// in\n    tag_24:\n      jumpi(tag_49, callvalue)\n      jumpi(tag_49, slt(add(not(0x03), calldatasize), 0xc0))\n      calldataload(0x04)\n      sub(shl(0x40, 0x01), 0x01)\n      dup2\n      gt\n      tag_49\n      jumpi\n      tag_124\n      swap1\n      calldatasize\n      swap1\n      0x04\n      add\n      tag_1\n      jump\t// in\n    tag_124:\n      swap1\n      calldataload(0x24)\n      sub(shl(0x40, 0x01), 0x01)\n      dup2\n      gt\n      tag_49\n      jumpi\n      calldatasize\n      0x23\n      dup3\n      add\n      slt\n      iszero\n      tag_49\n      jumpi\n      dup1\n      0x04\n      add\n      calldataload\n      sub(shl(0x40, 0x01), 0x01)\n      dup2\n      gt\n      tag_49\n      jumpi\n      calldatasize\n      0x24\n      dup3\n      0x05\n      shl\n      dup5\n      add\n      add\n      gt\n      tag_49\n      jumpi\n      calldataload(0xa4)\n      swap3\n      sub(shl(0x40, 0x01), 0x01)\n      dup5\n      gt\n      tag_49\n      jumpi\n      0x20\n      swap5\n      tag_135\n      tag_63\n      swap6\n      calldatasize\n      swap1\n      0x04\n      add\n      tag_1\n      jump\t// in\n    tag_135:\n      swap5\n      swap1\n      swap4\n      calldataload(0x84)\n      swap4\n      calldataload(0x64)\n      swap4\n      0x24\n      calldataload(0x44)\n      swap5\n      add\n      swap2\n      tag_13\n      jump\t// in\n    tag_1:\n      swap2\n      dup2\n      0x1f\n      dup5\n      add\n      slt\n      iszero\n      tag_49\n      jumpi\n      dup3\n      calldataload\n      swap2\n      sub(shl(0x40, 0x01), 0x01)\n      dup4\n      gt\n      tag_49\n      jumpi\n      0x20\n      dup4\n      dup2\n      dup7\n      add\n      swap6\n      add\n      add\n      gt\n      tag_49\n      jumpi\n      jump\t// out\n    tag_2:\n      0xe0\n      dup2\n      add\n      swap1\n      dup2\n      lt\n      sub(shl(0x40, 0x01), 0x01)\n      dup3\n      gt\n      or\n      tag_143\n      jumpi\n      0x40\n      mstore\n      jump\t// out\n    tag_143:\n      mstore(0x00, shl(0xe0, 0x4e487b71))\n      mstore(0x04, 0x41)\n      revert(0x00, 0x24)\n    tag_3:\n      0x0120\n      dup2\n      add\n      swap1\n      dup2\n      lt\n      sub(shl(0x40, 0x01), 0x01)\n      dup3\n      gt\n      or\n      tag_143\n      jumpi\n      0x40\n      mstore\n      jump\t// out\n    tag_4:\n      swap1\n      0x1f\n      dup1\n      not\n      swap2\n      add\n      and\n      dup2\n      add\n      swap1\n      dup2\n      lt\n      sub(shl(0x40, 0x01), 0x01)\n      dup3\n      gt\n      or\n      tag_143\n      jumpi\n      0x40\n      mstore\n      jump\t// out\n    tag_5:\n      swap3\n      swap2\n      swap3\n      sub(shl(0x40, 0x01), 0x01)\n      dup3\n      gt\n      tag_143\n      jumpi\n      mload(0x40)\n      swap2\n      tag_151\n      0x1f\n      dup3\n      add\n      not(0x1f)\n      and\n      0x20\n      add\n      dup5\n      tag_4\n      jump\t// in\n    tag_151:\n      dup3\n      swap5\n      dup2\n      dup5\n      mstore\n      dup2\n      dup4\n      add\n      gt\n      tag_49\n      jumpi\n      dup3\n      dup2\n      0x20\n      swap4\n      dup5\n      0x00\n      swap7\n      add\n      calldatacopy\n      add\n      add\n      mstore\n      jump\t// out\n    tag_6:\n      swap1\n      dup1\n      0x1f\n      dup4\n      add\n      slt\n      iszero\n      tag_49\n      jumpi\n      dup2\n      0x20\n      tag_156\n      swap4\n      calldataload\n      swap2\n      add\n      tag_5\n      jump\t// in\n    tag_156:\n      swap1\n      jump\t// out\n    tag_7:\n      calldataload\n      swap1\n      sub(shl(0xa0, 0x01), 0x01)\n      dup3\n      and\n      dup3\n      sub\n      tag_49\n      jumpi\n      jump\t// out\n    tag_8:\n      swap1\n      0x01\n      dup3\n      dup2\n      shr\n      swap3\n      and\n      dup1\n      iszero\n      tag_159\n      jumpi\n    tag_160:\n      0x20\n      dup4\n      lt\n      eq\n      tag_161\n      jumpi\n      jump\t// out\n    tag_161:\n      mstore(0x00, shl(0xe0, 0x4e487b71))\n      mstore(0x04, 0x22)\n      revert(0x00, 0x24)\n    tag_159:\n      swap2\n      0x7f\n      and\n      swap2\n      jump(tag_160)\n    tag_9:\n      swap1\n      mload(0x40)\n      swap2\n      dup3\n      0x00\n      dup3\n      sload\n      swap3\n      tag_163\n      dup5\n      tag_8\n      jump\t// in\n    tag_163:\n      dup1\n      dup5\n      mstore\n      swap4\n      0x01\n      dup2\n      and\n      swap1\n      dup2\n      iszero\n      tag_164\n      jumpi\n      pop\n      0x01\n      eq\n      tag_166\n      jumpi\n    tag_167:\n      pop\n      tag_168\n      swap3\n      pop\n      sub\n      dup4\n      tag_4\n      jump\t// in\n    tag_168:\n      jump\t// out\n    tag_166:\n      swap1\n      pop\n      0x00\n      swap3\n      swap2\n      swap3\n      mstore\n      keccak256(0x00, 0x20)\n      swap1\n      0x00\n      swap2\n    tag_169:\n      dup2\n      dup4\n      lt\n      tag_170\n      jumpi\n      pop\n      pop\n      swap1\n      0x20\n      tag_168\n      swap3\n      dup3\n      add\n      add\n      0x00\n      jump(tag_167)\n    tag_170:\n      0x20\n      swap2\n      swap4\n      pop\n      dup1\n      0x01\n      swap2\n      sload\n      dup4\n      dup6\n      dup10\n      add\n      add\n      mstore\n      add\n      swap2\n      add\n      swap1\n      swap2\n      dup5\n      swap3\n      jump(tag_169)\n    tag_164:\n      swap1\n      pop\n      0x20\n      swap3\n      pop\n      tag_168\n      swap5\n      swap2\n      pop\n      not(0xff)\n      and\n      dup3\n      dup5\n      add\n      mstore\n      iszero\n      iszero\n      0x05\n      shl\n      dup3\n      add\n      add\n      0x00\n      jump(tag_167)\n    tag_10:\n      dup1\n      mload\n      dup1\n      dup4\n      mstore\n      0x20\n      swap3\n      swap2\n      dup2\n      swap1\n      dup5\n      add\n      dup5\n      dup5\n      add\n      mcopy\n      0x00\n      dup3\n      dup3\n      add\n      dup5\n      add\n      mstore\n      0x1f\n      add\n      not(0x1f)\n      and\n      add\n      add\n      swap1\n      jump\t// out\n    tag_11:\n      dup2\n      dup2\n      lt\n      tag_173\n      jumpi\n      pop\n      pop\n      jump\t// out\n    tag_173:\n      0x00\n      dup2\n      sstore\n      0x01\n      add\n      jump(tag_11)\n    tag_12:\n      swap1\n      dup1\n      0x20\n      swap4\n      swap3\n      dup2\n      dup5\n      mstore\n      dup5\n      dup5\n      add\n      calldatacopy\n      0x00\n      dup3\n      dup3\n      add\n      dup5\n      add\n      mstore\n      0x1f\n      add\n      not(0x1f)\n      and\n      add\n      add\n      swap1\n      jump\t// out\n        /* \"ctiIncentiveDedupRegistry/ThreatTest.sol\":2510:3098  function ProducerSelectDelegator(... */\n    tag_13:\n      swap3\n      swap7\n      swap6\n      swap9\n      swap8\n      swap5\n      swap1\n      swap4\n      swap2\n      swap9\n        /* \"ctiIncentiveDedupRegistry/ThreatTest.sol\":1369:6796  contract AssignmentContract {... */\n      dup1\n      dup3\n      add\n      dup1\n      dup4\n      gt\n      tag_175\n      jumpi\n        /* \"ctiIncentiveDedupRegistry/ThreatTest.sol\":2782:2819  price!=producer_price+delegator_price */\n      dup4\n      sub\n        /* \"ctiIncentiveDedupRegistry/ThreatTest.sol\":2778:2859  if (price!=producer_price+delegator_price){... */\n      tag_177\n      jumpi\n        /* \"ctiIncentiveDedupRegistry/ThreatTest.sol\":1369:6796  contract AssignmentContract {... */\n      mload(0x40)\n      swap2\n      tag_179\n      dup4\n      tag_2\n      jump\t// in\n    tag_179:\n      tag_180\n      calldatasize\n      dup8\n      dup8\n      tag_5\n      jump\t// in\n    tag_180:\n      dup4\n      mstore\n        /* \"ctiIncentiveDedupRegistry/ThreatTest.sol\":2890:2984  Assignment(tid,msg.sender, delegators_address, price,producer_price,delegator_price, ipfsHash) */\n      0x20\n      dup4\n      add\n        /* \"ctiIncentiveDedupRegistry/ThreatTest.sol\":2905:2915  msg.sender */\n      swap4\n      caller\n        /* \"ctiIncentiveDedupRegistry/ThreatTest.sol\":1369:6796  contract AssignmentContract {... */\n      dup6\n      mstore\n      sub(shl(0x40, 0x01), 0x01)\n      dup11\n      gt\n      tag_143\n      jumpi\n      dup10\n      0x05\n      shl\n      dup13\n      mload(0x40)\n      swap2\n      tag_183\n        /* \"ctiIncentiveDedupRegistry/ThreatTest.sol\":2890:2984  Assignment(tid,msg.sender, delegators_address, price,producer_price,delegator_price, ipfsHash) */\n      0x20\n        /* \"ctiIncentiveDedupRegistry/ThreatTest.sol\":1369:6796  contract AssignmentContract {... */\n      dup3\n      add\n      dup5\n      tag_4\n      jump\t// in\n    tag_183:\n      dup13\n      dup4\n      mstore\n      add\n        /* \"ctiIncentiveDedupRegistry/ThreatTest.sol\":2890:2984  Assignment(tid,msg.sender, delegators_address, price,producer_price,delegator_price, ipfsHash) */\n      0x20\n        /* \"ctiIncentiveDedupRegistry/ThreatTest.sol\":1369:6796  contract AssignmentContract {... */\n      dup3\n      add\n      calldatasize\n      dup3\n      gt\n      tag_49\n      jumpi\n      dup15\n      swap1\n    tag_186:\n      dup3\n      dup3\n      lt\n      tag_187\n      jumpi\n        /* \"ctiIncentiveDedupRegistry/ThreatTest.sol\":2890:2984  Assignment(tid,msg.sender, delegators_address, price,producer_price,delegator_price, ipfsHash) */\n      pop\n      pop\n      pop\n        /* \"ctiIncentiveDedupRegistry/ThreatTest.sol\":1369:6796  contract AssignmentContract {... */\n      0x40\n        /* \"ctiIncentiveDedupRegistry/ThreatTest.sol\":2890:2984  Assignment(tid,msg.sender, delegators_address, price,producer_price,delegator_price, ipfsHash) */\n      dup6\n      add\n        /* \"ctiIncentiveDedupRegistry/ThreatTest.sol\":1369:6796  contract AssignmentContract {... */\n      swap1\n      dup2\n      mstore\n        /* \"ctiIncentiveDedupRegistry/ThreatTest.sol\":2890:2984  Assignment(tid,msg.sender, delegators_address, price,producer_price,delegator_price, ipfsHash) */\n      0x60\n      dup6\n      add\n        /* \"ctiIncentiveDedupRegistry/ThreatTest.sol\":1369:6796  contract AssignmentContract {... */\n      swap2\n      dup3\n      mstore\n        /* \"ctiIncentiveDedupRegistry/ThreatTest.sol\":2890:2984  Assignment(tid,msg.sender, delegators_address, price,producer_price,delegator_price, ipfsHash) */\n      0x80\n      dup6\n      add\n        /* \"ctiIncentiveDedupRegistry/ThreatTest.sol\":1369:6796  contract AssignmentContract {... */\n      swap3\n      dup4\n      mstore\n        /* \"ctiIncentiveDedupRegistry/ThreatTest.sol\":2890:2984  Assignment(tid,msg.sender, delegators_address, price,producer_price,delegator_price, ipfsHash) */\n      0xa0\n      dup6\n      add\n        /* \"ctiIncentiveDedupRegistry/ThreatTest.sol\":1369:6796  contract AssignmentContract {... */\n      swap4\n      dup5\n      mstore\n      tag_189\n      calldatasize\n      dup11\n      dup13\n      tag_5\n      jump\t// in\n    tag_189:\n        /* \"ctiIncentiveDedupRegistry/ThreatTest.sol\":2890:2984  Assignment(tid,msg.sender, delegators_address, price,producer_price,delegator_price, ipfsHash) */\n      swap6\n      0xc0\n      dup7\n      add\n        /* \"ctiIncentiveDedupRegistry/ThreatTest.sol\":1369:6796  contract AssignmentContract {... */\n      swap7\n      dup8\n      mstore\n      mload(0x40)\n      dup10\n      dup10\n      dup3\n      calldatacopy\n        /* \"ctiIncentiveDedupRegistry/ThreatTest.sol\":2890:2984  Assignment(tid,msg.sender, delegators_address, price,producer_price,delegator_price, ipfsHash) */\n      0x20\n        /* \"ctiIncentiveDedupRegistry/ThreatTest.sol\":1369:6796  contract AssignmentContract {... */\n      dup2\n      dup12\n      dup2\n      add\n        /* \"ctiIncentiveDedupRegistry/ThreatTest.sol\":2869:2884  assignment_list */\n      0x02\n        /* \"ctiIncentiveDedupRegistry/ThreatTest.sol\":1369:6796  contract AssignmentContract {... */\n      dup2\n      mstore\n      sub\n      add\n      swap1\n      keccak256\n      swap6\n      mload\n      dup1\n      mload\n      swap1\n      sub(shl(0x40, 0x01), 0x01)\n      dup3\n      gt\n      tag_143\n      jumpi\n      dup2\n      swap1\n      tag_192\n      dup10\n      sload\n      tag_8\n      jump\t// in\n    tag_192:\n      0x1f\n      dup2\n      gt\n      tag_193\n      jumpi\n    tag_194:\n      pop\n        /* \"ctiIncentiveDedupRegistry/ThreatTest.sol\":2890:2984  Assignment(tid,msg.sender, delegators_address, price,producer_price,delegator_price, ipfsHash) */\n      0x20\n        /* \"ctiIncentiveDedupRegistry/ThreatTest.sol\":1369:6796  contract AssignmentContract {... */\n      swap1\n      0x1f\n      dup4\n      gt\n      0x01\n      eq\n      tag_195\n      jumpi\n      0x00\n      swap3\n      tag_197\n      jumpi\n    tag_198:\n      pop\n      pop\n      dup2\n      0x01\n      shl\n      swap2\n      not(0x00)\n      swap1\n      0x03\n      shl\n      shr\n      not\n      and\n      or\n      dup7\n      sstore\n    tag_199:\n      mload\n      0x01\n      dup7\n      add\n      dup1\n      sload\n      not(sub(shl(0xa0, 0x01), 0x01))\n      and\n      sub(shl(0xa0, 0x01), 0x01)\n      swap3\n      swap1\n      swap3\n      and\n      swap2\n      swap1\n      swap2\n      or\n      swap1\n      sstore\n      mload\n      dup1\n      mload\n      swap1\n        /* \"ctiIncentiveDedupRegistry/ThreatTest.sol\":2869:2884  assignment_list */\n      0x02\n        /* \"ctiIncentiveDedupRegistry/ThreatTest.sol\":1369:6796  contract AssignmentContract {... */\n      dup7\n      add\n      swap1\n      sub(shl(0x40, 0x01), 0x01)\n      dup4\n      gt\n      tag_143\n      jumpi\n      shl(0x40, 0x01)\n      dup4\n      gt\n      tag_143\n      jumpi\n        /* \"ctiIncentiveDedupRegistry/ThreatTest.sol\":2890:2984  Assignment(tid,msg.sender, delegators_address, price,producer_price,delegator_price, ipfsHash) */\n      0x20\n        /* \"ctiIncentiveDedupRegistry/ThreatTest.sol\":1369:6796  contract AssignmentContract {... */\n      swap1\n      dup3\n      sload\n      dup5\n      dup5\n      sstore\n      dup1\n      dup6\n      lt\n      tag_204\n      jumpi\n    tag_205:\n      pop\n      add\n      swap1\n      0x00\n      mstore\n        /* \"ctiIncentiveDedupRegistry/ThreatTest.sol\":2890:2984  Assignment(tid,msg.sender, delegators_address, price,producer_price,delegator_price, ipfsHash) */\n      0x20\n        /* \"ctiIncentiveDedupRegistry/ThreatTest.sol\":1369:6796  contract AssignmentContract {... */\n      0x00\n      keccak256\n      0x00\n    tag_206:\n      dup4\n      dup2\n      lt\n      tag_207\n      jumpi\n      pop\n      pop\n      pop\n      pop\n      swap1\n      0x06\n      swap4\n      swap3\n      swap2\n      mload\n      0x03\n      dup5\n      add\n      sstore\n      mload\n      0x04\n      dup4\n      add\n      sstore\n      mload\n      0x05\n      dup3\n      add\n      sstore\n      add\n      swap1\n      mload\n      dup1\n      mload\n      swap1\n      sub(shl(0x40, 0x01), 0x01)\n      dup3\n      gt\n      tag_143\n      jumpi\n      dup2\n      swap1\n      tag_211\n      dup5\n      sload\n      tag_8\n      jump\t// in\n    tag_211:\n      0x1f\n      dup2\n      gt\n      tag_212\n      jumpi\n    tag_213:\n      pop\n        /* \"ctiIncentiveDedupRegistry/ThreatTest.sol\":2890:2984  Assignment(tid,msg.sender, delegators_address, price,producer_price,delegator_price, ipfsHash) */\n      0x20\n        /* \"ctiIncentiveDedupRegistry/ThreatTest.sol\":1369:6796  contract AssignmentContract {... */\n      swap1\n      0x1f\n      dup4\n      gt\n      0x01\n      eq\n      tag_214\n      jumpi\n      0x00\n      swap3\n      tag_216\n      jumpi\n    tag_217:\n      pop\n      pop\n      dup2\n      0x01\n      shl\n      swap2\n      not(0x00)\n      swap1\n      0x03\n      shl\n      shr\n      not\n      and\n      or\n      swap1\n      sstore\n    tag_218:\n      mload(0x40)\n      swap5\n      dup1\n        /* \"ctiIncentiveDedupRegistry/ThreatTest.sol\":2890:2984  Assignment(tid,msg.sender, delegators_address, price,producer_price,delegator_price, ipfsHash) */\n      0x80\n        /* \"ctiIncentiveDedupRegistry/ThreatTest.sol\":1369:6796  contract AssignmentContract {... */\n      dup8\n      add\n        /* \"ctiIncentiveDedupRegistry/ThreatTest.sol\":2890:2984  Assignment(tid,msg.sender, delegators_address, price,producer_price,delegator_price, ipfsHash) */\n      0x80\n        /* \"ctiIncentiveDedupRegistry/ThreatTest.sol\":1369:6796  contract AssignmentContract {... */\n      dup9\n      mstore\n      mstore\n        /* \"ctiIncentiveDedupRegistry/ThreatTest.sol\":2890:2984  Assignment(tid,msg.sender, delegators_address, price,producer_price,delegator_price, ipfsHash) */\n      0xa0\n        /* \"ctiIncentiveDedupRegistry/ThreatTest.sol\":1369:6796  contract AssignmentContract {... */\n      dup7\n      add\n      swap8\n      swap1\n      0x00\n    tag_219:\n      dup2\n      dup2\n      lt\n      tag_220\n      jumpi\n        /* \"ctiIncentiveDedupRegistry/ThreatTest.sol\":2905:2915  msg.sender */\n      pop\n      pop\n      pop\n      swap2\n        /* \"ctiIncentiveDedupRegistry/ThreatTest.sol\":1369:6796  contract AssignmentContract {... */\n      tag_222\n        /* \"ctiIncentiveDedupRegistry/ThreatTest.sol\":3000:3068  ProducerAssignmentComing(delegators_address,msg.sender,tid,ipfsHash) */\n      0xf52fcbc5cb218bae54b5dee4a14189098257cb16cc5649f3daeff8c73a56104d\n        /* \"ctiIncentiveDedupRegistry/ThreatTest.sol\":2905:2915  msg.sender */\n      swap7\n      swap8\n      dup7\n      swap6\n      swap4\n        /* \"ctiIncentiveDedupRegistry/ThreatTest.sol\":1369:6796  contract AssignmentContract {... */\n      tag_223\n        /* \"ctiIncentiveDedupRegistry/ThreatTest.sol\":2905:2915  msg.sender */\n      swap6\n      caller\n        /* \"ctiIncentiveDedupRegistry/ThreatTest.sol\":2890:2984  Assignment(tid,msg.sender, delegators_address, price,producer_price,delegator_price, ipfsHash) */\n      0x20\n        /* \"ctiIncentiveDedupRegistry/ThreatTest.sol\":1369:6796  contract AssignmentContract {... */\n      dup10\n      add\n      mstore\n      dup8\n      dup4\n      sub\n      0x40\n      dup10\n      add\n      mstore\n      tag_12\n      jump\t// in\n    tag_222:\n      swap2\n      dup5\n      dup4\n      sub\n        /* \"ctiIncentiveDedupRegistry/ThreatTest.sol\":2890:2984  Assignment(tid,msg.sender, delegators_address, price,producer_price,delegator_price, ipfsHash) */\n      0x60\n        /* \"ctiIncentiveDedupRegistry/ThreatTest.sol\":1369:6796  contract AssignmentContract {... */\n      dup7\n      add\n      mstore\n      tag_12\n      jump\t// in\n    tag_223:\n        /* \"ctiIncentiveDedupRegistry/ThreatTest.sol\":3000:3068  ProducerAssignmentComing(delegators_address,msg.sender,tid,ipfsHash) */\n      sub\n      swap1\n      log1\n        /* \"ctiIncentiveDedupRegistry/ThreatTest.sol\":1369:6796  contract AssignmentContract {... */\n      0x01\n        /* \"ctiIncentiveDedupRegistry/ThreatTest.sol\":2510:3098  function ProducerSelectDelegator(... */\n      swap1\n      jump\t// out\n        /* \"ctiIncentiveDedupRegistry/ThreatTest.sol\":1369:6796  contract AssignmentContract {... */\n    tag_220:\n      swap2\n      swap9\n      swap1\n      swap2\n      swap1\n      0x01\n      swap1\n        /* \"ctiIncentiveDedupRegistry/ThreatTest.sol\":2890:2984  Assignment(tid,msg.sender, delegators_address, price,producer_price,delegator_price, ipfsHash) */\n      0x20\n      swap1\n      dup2\n      swap1\n      sub(shl(0xa0, 0x01), 0x01)\n        /* \"ctiIncentiveDedupRegistry/ThreatTest.sol\":1369:6796  contract AssignmentContract {... */\n      tag_224\n      dup15\n      tag_7\n      jump\t// in\n    tag_224:\n      and\n      dup2\n      mstore\n      add\n      swap11\n      add\n      swap3\n      swap2\n      add\n      jump(tag_219)\n    tag_216:\n      add\n      mload\n      swap1\n      pop\n      0x00\n      dup1\n      jump(tag_217)\n    tag_214:\n      0x00\n      dup6\n      dup2\n      mstore\n      dup3\n      dup2\n      keccak256\n      swap4\n      pop\n      not(0x1f)\n      dup6\n      and\n      swap1\n    tag_225:\n      dup2\n      dup2\n      lt\n      tag_226\n      jumpi\n      pop\n      swap1\n      dup5\n      0x01\n      swap6\n      swap5\n      swap4\n      swap3\n      lt\n      tag_228\n      jumpi\n    tag_229:\n      pop\n      pop\n      pop\n      dup2\n      shl\n      add\n      swap1\n      sstore\n      jump(tag_218)\n    tag_228:\n      add\n      mload\n      not(0x00)\n      0xf8\n      dup5\n      0x03\n      shl\n      and\n      shr\n      not\n      and\n      swap1\n      sstore\n      0x00\n      dup1\n      dup1\n      jump(tag_229)\n    tag_226:\n      swap3\n      swap4\n        /* \"ctiIncentiveDedupRegistry/ThreatTest.sol\":2890:2984  Assignment(tid,msg.sender, delegators_address, price,producer_price,delegator_price, ipfsHash) */\n      0x20\n        /* \"ctiIncentiveDedupRegistry/ThreatTest.sol\":1369:6796  contract AssignmentContract {... */\n      0x01\n      dup2\n      swap3\n      dup8\n      dup7\n      add\n      mload\n      dup2\n      sstore\n      add\n      swap6\n      add\n      swap4\n      add\n      jump(tag_225)\n    tag_212:\n      tag_230\n      swap1\n      dup6\n      0x00\n      mstore\n        /* \"ctiIncentiveDedupRegistry/ThreatTest.sol\":2890:2984  Assignment(tid,msg.sender, delegators_address, price,producer_price,delegator_price, ipfsHash) */\n      0x20\n        /* \"ctiIncentiveDedupRegistry/ThreatTest.sol\":1369:6796  contract AssignmentContract {... */\n      0x00\n      keccak256\n      0x1f\n      dup6\n      add\n      0x05\n      shr\n      dup2\n      add\n      swap2\n        /* \"ctiIncentiveDedupRegistry/ThreatTest.sol\":2890:2984  Assignment(tid,msg.sender, delegators_address, price,producer_price,delegator_price, ipfsHash) */\n      0x20\n        /* \"ctiIncentiveDedupRegistry/ThreatTest.sol\":1369:6796  contract AssignmentContract {... */\n      dup7\n      lt\n      tag_231\n      jumpi\n    tag_232:\n      0x1f\n      add\n      0x05\n      shr\n      add\n      swap1\n      tag_11\n      jump\t// in\n    tag_230:\n      0x00\n      jump(tag_213)\n    tag_231:\n      swap1\n      swap2\n      pop\n      dup2\n      swap1\n      jump(tag_232)\n    tag_207:\n      dup3\n      mload\n      sub(shl(0xa0, 0x01), 0x01)\n      and\n      dup2\n      dup4\n      add\n      sstore\n        /* \"ctiIncentiveDedupRegistry/ThreatTest.sol\":2890:2984  Assignment(tid,msg.sender, delegators_address, price,producer_price,delegator_price, ipfsHash) */\n      0x20\n        /* \"ctiIncentiveDedupRegistry/ThreatTest.sol\":1369:6796  contract AssignmentContract {... */\n      swap1\n      swap3\n      add\n      swap2\n      0x01\n      add\n      jump(tag_206)\n    tag_204:\n      tag_233\n      swap1\n      dup5\n      0x00\n      mstore\n      dup6\n      dup5\n      0x00\n      keccak256\n      swap2\n      dup3\n      add\n      swap2\n      add\n      tag_11\n      jump\t// in\n    tag_233:\n      0x00\n      jump(tag_205)\n    tag_197:\n      add\n      mload\n      swap1\n      pop\n      0x00\n      dup1\n      jump(tag_198)\n    tag_195:\n      0x00\n      dup11\n      dup2\n      mstore\n      dup3\n      dup2\n      keccak256\n      swap4\n      pop\n      not(0x1f)\n      dup6\n      and\n      swap1\n    tag_234:\n      dup2\n      dup2\n      lt\n      tag_235\n      jumpi\n      pop\n      swap1\n      dup5\n      0x01\n      swap6\n      swap5\n      swap4\n      swap3\n      lt\n      tag_237\n      jumpi\n    tag_238:\n      pop\n      pop\n      pop\n      dup2\n      shl\n      add\n      dup7\n      sstore\n      jump(tag_199)\n    tag_237:\n      add\n      mload\n      not(0x00)\n      0xf8\n      dup5\n      0x03\n      shl\n      and\n      shr\n      not\n      and\n      swap1\n      sstore\n      0x00\n      dup1\n      dup1\n      jump(tag_238)\n    tag_235:\n      swap3\n      swap4\n        /* \"ctiIncentiveDedupRegistry/ThreatTest.sol\":2890:2984  Assignment(tid,msg.sender, delegators_address, price,producer_price,delegator_price, ipfsHash) */\n      0x20\n        /* \"ctiIncentiveDedupRegistry/ThreatTest.sol\":1369:6796  contract AssignmentContract {... */\n      0x01\n      dup2\n      swap3\n      dup8\n      dup7\n      add\n      mload\n      dup2\n      sstore\n      add\n      swap6\n      add\n      swap4\n      add\n      jump(tag_234)\n    tag_193:\n      tag_239\n      swap1\n      dup11\n      0x00\n      mstore\n        /* \"ctiIncentiveDedupRegistry/ThreatTest.sol\":2890:2984  Assignment(tid,msg.sender, delegators_address, price,producer_price,delegator_price, ipfsHash) */\n      0x20\n        /* \"ctiIncentiveDedupRegistry/ThreatTest.sol\":1369:6796  contract AssignmentContract {... */\n      0x00\n      keccak256\n      0x1f\n      dup6\n      add\n      0x05\n      shr\n      dup2\n      add\n      swap2\n        /* \"ctiIncentiveDedupRegistry/ThreatTest.sol\":2890:2984  Assignment(tid,msg.sender, delegators_address, price,producer_price,delegator_price, ipfsHash) */\n      0x20\n        /* \"ctiIncentiveDedupRegistry/ThreatTest.sol\":1369:6796  contract AssignmentContract {... */\n      dup7\n      lt\n      tag_231\n      jumpi\n      0x1f\n      add\n      0x05\n      shr\n      add\n      swap1\n      tag_11\n      jump\t// in\n    tag_239:\n      0x00\n      jump(tag_194)\n    tag_187:\n        /* \"ctiIncentiveDedupRegistry/ThreatTest.sol\":2890:2984  Assignment(tid,msg.sender, delegators_address, price,producer_price,delegator_price, ipfsHash) */\n      0x20\n        /* \"ctiIncentiveDedupRegistry/ThreatTest.sol\":1369:6796  contract AssignmentContract {... */\n      dup1\n      swap2\n      tag_242\n      dup5\n      tag_7\n      jump\t// in\n    tag_242:\n      dup2\n      mstore\n      add\n      swap2\n      add\n      swap1\n      jump(tag_186)\n        /* \"ctiIncentiveDedupRegistry/ThreatTest.sol\":2778:2859  if (price!=producer_price+delegator_price){... */\n    tag_177:\n      pop\n        /* \"ctiIncentiveDedupRegistry/ThreatTest.sol\":1369:6796  contract AssignmentContract {... */\n      0x00\n      swap9\n      pop\n      pop\n      pop\n      pop\n      pop\n      pop\n      pop\n      pop\n        /* \"ctiIncentiveDedupRegistry/ThreatTest.sol\":2835:2847  return false */\n      jump\t// out\n        /* \"ctiIncentiveDedupRegistry/ThreatTest.sol\":1369:6796  contract AssignmentContract {... */\n    tag_175:\n      mstore(0x00, shl(0xe0, 0x4e487b71))\n      mstore(0x04, 0x11)\n      revert(0x00, 0x24)\n    tag_14:\n      swap1\n      mload(0x40)\n      swap2\n      dup3\n      dup2\n      sload\n      swap2\n      dup3\n      dup3\n      mstore\n      0x20\n      dup3\n      add\n      swap1\n      0x00\n      mstore\n      keccak256(0x00, 0x20)\n      swap3\n      0x00\n    tag_243:\n      dup2\n      dup2\n      lt\n      tag_244\n      jumpi\n      pop\n      pop\n      tag_168\n      swap3\n      pop\n      sub\n      dup4\n      tag_4\n      jump\t// in\n    tag_244:\n      dup5\n      sload\n      sub(shl(0xa0, 0x01), 0x01)\n      and\n      dup4\n      mstore\n      0x01\n      swap5\n      dup6\n      add\n      swap5\n      dup8\n      swap5\n      pop\n      0x20\n      swap1\n      swap4\n      add\n      swap3\n      add\n      jump(tag_243)\n        /* \"ctiIncentiveDedupRegistry/ThreatTest.sol\":3138:4320  function ConsumerSelectDelegator(... */\n    tag_15:\n      swap2\n      swap3\n      swap4\n      swap5\n      swap1\n      0x00\n        /* \"ctiIncentiveDedupRegistry/ThreatTest.sol\":1369:6796  contract AssignmentContract {... */\n      swap5\n      0x60\n      0xc0\n      mload(0x40)\n      tag_247\n      dup2\n      tag_2\n      jump\t// in\n    tag_247:\n      dup3\n      dup2\n      mstore\n      0x00\n      0x20\n      dup3\n      add\n      mstore\n      dup3\n      0x40\n      dup3\n      add\n      mstore\n      0x00\n      dup4\n      dup3\n      add\n      mstore\n      0x00\n      0x80\n      dup3\n      add\n      mstore\n      0x00\n      0xa0\n      dup3\n      add\n      mstore\n      add\n      mstore\n      mload(0x40)\n      swap7\n      dup5\n      mload\n      swap8\n      0x20\n      dup2\n      dup2\n      dup9\n      add\n      swap11\n      dup1\n      dup13\n      dup4\n      mcopy\n      dup2\n      add\n        /* \"ctiIncentiveDedupRegistry/ThreatTest.sol\":3691:3706  assignment_list */\n      0x02\n        /* \"ctiIncentiveDedupRegistry/ThreatTest.sol\":1369:6796  contract AssignmentContract {... */\n      dup2\n      mstore\n      sub\n      add\n      swap1\n      keccak256\n      swap5\n      mload(0x40)\n      swap6\n      tag_248\n      dup8\n      tag_2\n      jump\t// in\n    tag_248:\n      tag_249\n      dup2\n      tag_9\n      jump\t// in\n    tag_249:\n      dup8\n      mstore\n      0x01\n      dup2\n      add\n      sload\n      sub(shl(0xa0, 0x01), 0x01)\n      and\n      0x20\n      dup9\n      add\n      swap1\n      dup2\n      mstore\n      swap10\n      dup8\n      swap1\n      tag_250\n      swap1\n      tag_251\n        /* \"ctiIncentiveDedupRegistry/ThreatTest.sol\":3691:3706  assignment_list */\n      0x02\n        /* \"ctiIncentiveDedupRegistry/ThreatTest.sol\":1369:6796  contract AssignmentContract {... */\n      dup6\n      add\n      tag_14\n      jump\t// in\n    tag_251:\n      0x40\n      dup5\n      add\n      mstore\n      0x20\n      0x03\n      dup6\n      add\n      sload\n      swap6\n      0x60\n      dup6\n      add\n      swap7\n      dup8\n      mstore\n      tag_252\n      0x06\n      0x04\n      dup9\n      add\n      sload\n      swap8\n      0x80\n      dup9\n      add\n      swap9\n      dup10\n      mstore\n      0xa0\n      0x05\n      dup3\n      add\n      sload\n      swap9\n      add\n      swap8\n      dup9\n      mstore\n      add\n      tag_9\n      jump\t// in\n    tag_252:\n      0xc0\n      dup14\n      add\n      mstore\n      mload(0x40)\n      swap3\n      dup4\n      swap2\n      mload\n      dup1\n      swap2\n      dup4\n      mcopy\n      dup2\n      add\n      0x01\n      dup2\n      mstore\n      sub\n      add\n      swap1\n      keccak256\n      tag_14\n      jump\t// in\n    tag_250:\n        /* \"ctiIncentiveDedupRegistry/ThreatTest.sol\":3782:3792  uint i = 0 */\n      swap8\n      0x00\n        /* \"ctiIncentiveDedupRegistry/ThreatTest.sol\":1369:6796  contract AssignmentContract {... */\n      swap11\n      dup10\n      mload\n        /* \"ctiIncentiveDedupRegistry/ThreatTest.sol\":3777:3914  for (uint i = 0;i<delegatorList.length;i++){... */\n      swap12\n        /* \"ctiIncentiveDedupRegistry/ThreatTest.sol\":3816:3819  i++ */\n    tag_253:\n        /* \"ctiIncentiveDedupRegistry/ThreatTest.sol\":3793:3815  i<delegatorList.length */\n      dup13\n      dup2\n      lt\n      iszero\n      tag_254\n      jumpi\n        /* \"ctiIncentiveDedupRegistry/ThreatTest.sol\":1369:6796  contract AssignmentContract {... */\n      0x05\n      dup2\n      swap1\n      shl\n      dup12\n      add\n      0x20\n      add\n      mload\n      sub(shl(0xa0, 0x01), 0x01)\n      dup14\n      dup2\n      and\n      swap2\n      and\n        /* \"ctiIncentiveDedupRegistry/ThreatTest.sol\":3839:3861  delegatorList[i]==addr */\n      eq\n        /* \"ctiIncentiveDedupRegistry/ThreatTest.sol\":3835:3903  if (delegatorList[i]==addr){... */\n      tag_256\n      jumpi\n        /* \"ctiIncentiveDedupRegistry/ThreatTest.sol\":3816:3819  i++ */\n    tag_257:\n        /* \"ctiIncentiveDedupRegistry/ThreatTest.sol\":1369:6796  contract AssignmentContract {... */\n      0x01\n      add\n        /* \"ctiIncentiveDedupRegistry/ThreatTest.sol\":3782:3792  uint i = 0 */\n      jump(tag_253)\n        /* \"ctiIncentiveDedupRegistry/ThreatTest.sol\":3835:3903  if (delegatorList[i]==addr){... */\n    tag_256:\n        /* \"ctiIncentiveDedupRegistry/ThreatTest.sol\":1369:6796  contract AssignmentContract {... */\n      0x01\n      swap2\n      pop\n        /* \"ctiIncentiveDedupRegistry/ThreatTest.sol\":3835:3903  if (delegatorList[i]==addr){... */\n      jump(tag_257)\n        /* \"ctiIncentiveDedupRegistry/ThreatTest.sol\":3793:3815  i<delegatorList.length */\n    tag_254:\n      pop\n      swap2\n      swap4\n      swap6\n      swap8\n      swap11\n      pop\n      swap2\n      swap4\n      swap6\n      swap9\n      swap8\n      pop\n        /* \"ctiIncentiveDedupRegistry/ThreatTest.sol\":1369:6796  contract AssignmentContract {... */\n      iszero\n        /* \"ctiIncentiveDedupRegistry/ThreatTest.sol\":3924:3970  if (f==false){... */\n      dup1\n      tag_258\n      jumpi\n        /* \"ctiIncentiveDedupRegistry/ThreatTest.sol\":1369:6796  contract AssignmentContract {... */\n      iszero\n      0x01\n        /* \"ctiIncentiveDedupRegistry/ThreatTest.sol\":3986:3993  f==true */\n      eq\n        /* \"ctiIncentiveDedupRegistry/ThreatTest.sol\":3982:4060  if (f==true){... */\n      tag_260\n      jumpi\n        /* \"ctiIncentiveDedupRegistry/ThreatTest.sol\":3777:3914  for (uint i = 0;i<delegatorList.length;i++){... */\n    tag_261:\n        /* \"ctiIncentiveDedupRegistry/ThreatTest.sol\":4100:4117  curAssignment.tid */\n      mload\n        /* \"ctiIncentiveDedupRegistry/ThreatTest.sol\":1369:6796  contract AssignmentContract {... */\n      swap9\n      0x01\n      dup1\n      0xa0\n      shl\n      sub\n      swap1\n      mload\n      and\n      swap3\n      mload\n      swap2\n      mload\n      swap1\n      mload\n      swap2\n      mload(0x40)\n      swap10\n      tag_262\n      dup12\n      tag_3\n      jump\t// in\n    tag_262:\n      dup11\n      mstore\n      0x20\n        /* \"ctiIncentiveDedupRegistry/ThreatTest.sol\":4088:4243  transaction(curAssignment.tid,txid,curAssignment.producer,addr,msg.sender,curAssignment.price,curAssignment.producer_price,curAssignment.delegator_price,0) */\n      dup11\n      add\n        /* \"ctiIncentiveDedupRegistry/ThreatTest.sol\":1369:6796  contract AssignmentContract {... */\n      swap4\n      dup9\n      dup6\n      mstore\n      0x40\n        /* \"ctiIncentiveDedupRegistry/ThreatTest.sol\":4088:4243  transaction(curAssignment.tid,txid,curAssignment.producer,addr,msg.sender,curAssignment.price,curAssignment.producer_price,curAssignment.delegator_price,0) */\n      dup12\n      add\n        /* \"ctiIncentiveDedupRegistry/ThreatTest.sol\":1369:6796  contract AssignmentContract {... */\n      mstore\n      0x01\n      dup1\n      0xa0\n      shl\n      sub\n      dup8\n      and\n      0x60\n        /* \"ctiIncentiveDedupRegistry/ThreatTest.sol\":4088:4243  transaction(curAssignment.tid,txid,curAssignment.producer,addr,msg.sender,curAssignment.price,curAssignment.producer_price,curAssignment.delegator_price,0) */\n      dup12\n      add\n        /* \"ctiIncentiveDedupRegistry/ThreatTest.sol\":1369:6796  contract AssignmentContract {... */\n      mstore\n        /* \"ctiIncentiveDedupRegistry/ThreatTest.sol\":4151:4161  msg.sender */\n      caller\n        /* \"ctiIncentiveDedupRegistry/ThreatTest.sol\":1369:6796  contract AssignmentContract {... */\n      0x80\n        /* \"ctiIncentiveDedupRegistry/ThreatTest.sol\":4088:4243  transaction(curAssignment.tid,txid,curAssignment.producer,addr,msg.sender,curAssignment.price,curAssignment.producer_price,curAssignment.delegator_price,0) */\n      dup12\n      add\n        /* \"ctiIncentiveDedupRegistry/ThreatTest.sol\":1369:6796  contract AssignmentContract {... */\n      mstore\n      0xa0\n        /* \"ctiIncentiveDedupRegistry/ThreatTest.sol\":4088:4243  transaction(curAssignment.tid,txid,curAssignment.producer,addr,msg.sender,curAssignment.price,curAssignment.producer_price,curAssignment.delegator_price,0) */\n      dup11\n      add\n        /* \"ctiIncentiveDedupRegistry/ThreatTest.sol\":1369:6796  contract AssignmentContract {... */\n      mstore\n      0xc0\n        /* \"ctiIncentiveDedupRegistry/ThreatTest.sol\":4088:4243  transaction(curAssignment.tid,txid,curAssignment.producer,addr,msg.sender,curAssignment.price,curAssignment.producer_price,curAssignment.delegator_price,0) */\n      dup10\n      add\n        /* \"ctiIncentiveDedupRegistry/ThreatTest.sol\":1369:6796  contract AssignmentContract {... */\n      mstore\n      0xe0\n        /* \"ctiIncentiveDedupRegistry/ThreatTest.sol\":4088:4243  transaction(curAssignment.tid,txid,curAssignment.producer,addr,msg.sender,curAssignment.price,curAssignment.producer_price,curAssignment.delegator_price,0) */\n      dup9\n      add\n        /* \"ctiIncentiveDedupRegistry/ThreatTest.sol\":1369:6796  contract AssignmentContract {... */\n      mstore\n      0x00\n        /* \"ctiIncentiveDedupRegistry/ThreatTest.sol\":4088:4243  transaction(curAssignment.tid,txid,curAssignment.producer,addr,msg.sender,curAssignment.price,curAssignment.producer_price,curAssignment.delegator_price,0) */\n      0x0100\n      dup9\n      add\n        /* \"ctiIncentiveDedupRegistry/ThreatTest.sol\":1369:6796  contract AssignmentContract {... */\n      mstore\n      mload(0x40)\n      0x20\n      dup2\n      dup8\n      mload\n      dup1\n      dup4\n      dup11\n      add\n      dup4\n      mcopy\n      dup2\n      add\n      0x03\n      dup2\n      mstore\n      sub\n      add\n      swap1\n      keccak256\n      swap1\n      dup8\n      mload\n      dup1\n      mload\n      swap1\n      sub(shl(0x40, 0x01), 0x01)\n      dup3\n      gt\n      tag_143\n      jumpi\n      dup2\n      swap1\n      tag_265\n      dup6\n      sload\n      tag_8\n      jump\t// in\n    tag_265:\n      0x1f\n      dup2\n      gt\n      tag_266\n      jumpi\n        /* \"ctiIncentiveDedupRegistry/ThreatTest.sol\":3777:3914  for (uint i = 0;i<delegatorList.length;i++){... */\n    tag_267:\n        /* \"ctiIncentiveDedupRegistry/ThreatTest.sol\":1369:6796  contract AssignmentContract {... */\n      pop\n      0x20\n      swap1\n      0x1f\n      dup4\n      gt\n      0x01\n      eq\n      tag_268\n      jumpi\n      0x00\n      swap3\n      tag_270\n      jumpi\n    tag_271:\n      pop\n      pop\n      dup2\n      0x01\n      shl\n      swap2\n      not(0x00)\n      swap1\n      0x03\n      shl\n      shr\n      not\n      and\n      or\n      dup3\n      sstore\n    tag_272:\n      mload\n      swap7\n      dup8\n      mload\n      sub(shl(0x40, 0x01), 0x01)\n      dup2\n      gt\n      tag_143\n      jumpi\n      tag_275\n      0x01\n      dup5\n      add\n      sload\n      tag_8\n      jump\t// in\n    tag_275:\n      0x1f\n      dup2\n      gt\n      tag_276\n      jumpi\n    tag_277:\n      pop\n      0x20\n      0x1f\n      dup3\n      gt\n      0x01\n      eq\n      tag_278\n      jumpi\n      tag_280\n      swap6\n      swap5\n      swap4\n      swap3\n      dup3\n      0x08\n      swap4\n        /* \"ctiIncentiveDedupRegistry/ThreatTest.sol\":4088:4243  transaction(curAssignment.tid,txid,curAssignment.producer,addr,msg.sender,curAssignment.price,curAssignment.producer_price,curAssignment.delegator_price,0) */\n      0x0100\n        /* \"ctiIncentiveDedupRegistry/ThreatTest.sol\":1369:6796  contract AssignmentContract {... */\n      swap4\n        /* \"ctiIncentiveDedupRegistry/ThreatTest.sol\":4259:4312  ConsumerAssignmentComing(addr,txid,msg.value, pubkey) */\n      0xa82fdb4b07891794fe0bcde99c7d434289ff9320ff626ff65b07a00220255777\n        /* \"ctiIncentiveDedupRegistry/ThreatTest.sol\":1369:6796  contract AssignmentContract {... */\n      swap13\n      swap14\n      0x00\n      swap3\n      tag_281\n      jumpi\n    tag_282:\n      pop\n      pop\n      dup2\n      0x01\n      shl\n      swap2\n      not(0x00)\n      swap1\n      0x03\n      shl\n      shr\n      not\n      and\n      or\n      0x01\n      dup6\n      add\n      sstore\n    tag_283:\n      0x40\n        /* \"ctiIncentiveDedupRegistry/ThreatTest.sol\":4088:4243  transaction(curAssignment.tid,txid,curAssignment.producer,addr,msg.sender,curAssignment.price,curAssignment.producer_price,curAssignment.delegator_price,0) */\n      dup2\n      dup2\n      add\n        /* \"ctiIncentiveDedupRegistry/ThreatTest.sol\":1369:6796  contract AssignmentContract {... */\n      mload\n        /* \"ctiIncentiveDedupRegistry/ThreatTest.sol\":3691:3706  assignment_list */\n      0x02\n        /* \"ctiIncentiveDedupRegistry/ThreatTest.sol\":1369:6796  contract AssignmentContract {... */\n      dup7\n      add\n      dup1\n      sload\n      not(sub(shl(0xa0, 0x01), 0x01))\n      swap1\n      dup2\n      and\n      sub(shl(0xa0, 0x01), 0x01)\n      swap4\n      dup5\n      and\n      or\n      swap1\n      swap2\n      sstore\n      0x60\n        /* \"ctiIncentiveDedupRegistry/ThreatTest.sol\":4088:4243  transaction(curAssignment.tid,txid,curAssignment.producer,addr,msg.sender,curAssignment.price,curAssignment.producer_price,curAssignment.delegator_price,0) */\n      dup5\n      add\n        /* \"ctiIncentiveDedupRegistry/ThreatTest.sol\":1369:6796  contract AssignmentContract {... */\n      mload\n      0x03\n      dup9\n      add\n      dup1\n      sload\n      dup4\n      and\n      swap2\n      dup5\n      and\n      swap2\n      swap1\n      swap2\n      or\n      swap1\n      sstore\n      0x80\n        /* \"ctiIncentiveDedupRegistry/ThreatTest.sol\":4088:4243  transaction(curAssignment.tid,txid,curAssignment.producer,addr,msg.sender,curAssignment.price,curAssignment.producer_price,curAssignment.delegator_price,0) */\n      dup1\n      dup6\n      add\n        /* \"ctiIncentiveDedupRegistry/ThreatTest.sol\":1369:6796  contract AssignmentContract {... */\n      mload\n      0x04\n      dup10\n      add\n      dup1\n      sload\n      swap1\n      swap4\n      and\n      swap1\n      dup5\n      and\n      or\n      swap1\n      swap2\n      sstore\n      0xa0\n        /* \"ctiIncentiveDedupRegistry/ThreatTest.sol\":4088:4243  transaction(curAssignment.tid,txid,curAssignment.producer,addr,msg.sender,curAssignment.price,curAssignment.producer_price,curAssignment.delegator_price,0) */\n      dup5\n      add\n        /* \"ctiIncentiveDedupRegistry/ThreatTest.sol\":1369:6796  contract AssignmentContract {... */\n      mload\n      0x05\n      dup9\n      add\n      sstore\n      0xc0\n        /* \"ctiIncentiveDedupRegistry/ThreatTest.sol\":4088:4243  transaction(curAssignment.tid,txid,curAssignment.producer,addr,msg.sender,curAssignment.price,curAssignment.producer_price,curAssignment.delegator_price,0) */\n      dup5\n      add\n        /* \"ctiIncentiveDedupRegistry/ThreatTest.sol\":1369:6796  contract AssignmentContract {... */\n      mload\n      0x06\n      dup9\n      add\n      sstore\n      0xe0\n        /* \"ctiIncentiveDedupRegistry/ThreatTest.sol\":4088:4243  transaction(curAssignment.tid,txid,curAssignment.producer,addr,msg.sender,curAssignment.price,curAssignment.producer_price,curAssignment.delegator_price,0) */\n      dup5\n      add\n        /* \"ctiIncentiveDedupRegistry/ThreatTest.sol\":1369:6796  contract AssignmentContract {... */\n      mload\n      0x07\n      dup9\n      add\n      sstore\n        /* \"ctiIncentiveDedupRegistry/ThreatTest.sol\":4088:4243  transaction(curAssignment.tid,txid,curAssignment.producer,addr,msg.sender,curAssignment.price,curAssignment.producer_price,curAssignment.delegator_price,0) */\n      swap4\n      swap1\n      swap3\n      add\n        /* \"ctiIncentiveDedupRegistry/ThreatTest.sol\":1369:6796  contract AssignmentContract {... */\n      mload\n      swap4\n      swap1\n      swap5\n      add\n      swap3\n      swap1\n      swap3\n      sstore\n      swap2\n      mload\n      swap6\n      and\n      dup6\n      mstore\n      0x20\n      dup6\n      add\n      dup2\n      swap1\n      mstore\n      swap4\n      swap5\n      dup6\n      swap5\n      tag_284\n      swap2\n      swap1\n      dup7\n      add\n      swap1\n      tag_10\n      jump\t// in\n    tag_284:\n        /* \"ctiIncentiveDedupRegistry/ThreatTest.sol\":4294:4303  msg.value */\n      swap2\n      callvalue\n        /* \"ctiIncentiveDedupRegistry/ThreatTest.sol\":1369:6796  contract AssignmentContract {... */\n      0x40\n      dup7\n      add\n      mstore\n      dup5\n      dup4\n      sub\n      0x60\n      dup7\n      add\n      mstore\n      tag_12\n      jump\t// in\n    tag_280:\n        /* \"ctiIncentiveDedupRegistry/ThreatTest.sol\":4259:4312  ConsumerAssignmentComing(addr,txid,msg.value, pubkey) */\n      sub\n      swap1\n      log1\n        /* \"ctiIncentiveDedupRegistry/ThreatTest.sol\":3138:4320  function ConsumerSelectDelegator(... */\n      jump\t// out\n        /* \"ctiIncentiveDedupRegistry/ThreatTest.sol\":1369:6796  contract AssignmentContract {... */\n    tag_281:\n      add\n      mload\n      swap1\n      pop\n      0x00\n      dup1\n      jump(tag_282)\n    tag_278:\n      0x01\n      dup5\n      add\n      0x00\n      mstore\n      dup1\n      0x00\n      keccak256\n      swap10\n      0x00\n    tag_285:\n      not(0x1f)\n      dup5\n      and\n      dup2\n      lt\n      tag_286\n      jumpi\n      pop\n      swap3\n      0x01\n      dup4\n        /* \"ctiIncentiveDedupRegistry/ThreatTest.sol\":4259:4312  ConsumerAssignmentComing(addr,txid,msg.value, pubkey) */\n      0xa82fdb4b07891794fe0bcde99c7d434289ff9320ff626ff65b07a00220255777\n        /* \"ctiIncentiveDedupRegistry/ThreatTest.sol\":1369:6796  contract AssignmentContract {... */\n      swap12\n      swap13\n        /* \"ctiIncentiveDedupRegistry/ThreatTest.sol\":4088:4243  transaction(curAssignment.tid,txid,curAssignment.producer,addr,msg.sender,curAssignment.price,curAssignment.producer_price,curAssignment.delegator_price,0) */\n      0x0100\n        /* \"ctiIncentiveDedupRegistry/ThreatTest.sol\":1369:6796  contract AssignmentContract {... */\n      swap5\n      tag_280\n      swap11\n      swap10\n      swap9\n      swap8\n      0x08\n      swap8\n      not(0x1f)\n      dup2\n      and\n      lt\n      tag_288\n      jumpi\n    tag_289:\n      pop\n      pop\n      pop\n      dup2\n      shl\n      add\n      0x01\n      dup6\n      add\n      sstore\n      jump(tag_283)\n    tag_288:\n      add\n      mload\n      not(0x00)\n      0xf8\n      dup5\n      0x03\n      shl\n      and\n      shr\n      not\n      and\n      swap1\n      sstore\n      0x00\n      dup1\n      dup1\n      jump(tag_289)\n    tag_286:\n      dup3\n      dup3\n      add\n      mload\n      dup13\n      sstore\n      0x01\n      swap1\n      swap12\n      add\n      swap11\n      0x20\n      swap3\n      dup4\n      add\n      swap3\n      add\n      jump(tag_285)\n    tag_276:\n      tag_290\n      swap1\n      0x01\n      dup6\n      add\n      0x00\n      mstore\n      keccak256(0x00, 0x20)\n      0x1f\n      dup5\n      add\n      0x05\n      shr\n      dup2\n      add\n      swap2\n      0x20\n      dup6\n      lt\n      tag_231\n      jumpi\n      0x1f\n      add\n      0x05\n      shr\n      add\n      swap1\n      tag_11\n      jump\t// in\n    tag_290:\n      0x00\n      jump(tag_277)\n    tag_270:\n      add\n      mload\n      swap1\n      pop\n      0x00\n      dup1\n      jump(tag_271)\n    tag_268:\n      0x00\n      dup7\n      dup2\n      mstore\n      dup3\n      dup2\n      keccak256\n      swap4\n      pop\n      not(0x1f)\n      dup6\n      and\n      swap1\n    tag_293:\n      dup2\n      dup2\n      lt\n      tag_294\n      jumpi\n      pop\n      swap1\n      dup5\n      0x01\n      swap6\n      swap5\n      swap4\n      swap3\n      lt\n      tag_296\n      jumpi\n    tag_297:\n      pop\n      pop\n      pop\n      dup2\n      shl\n      add\n      dup3\n      sstore\n      jump(tag_272)\n    tag_296:\n      add\n      mload\n      not(0x00)\n      0xf8\n      dup5\n      0x03\n      shl\n      and\n      shr\n      not\n      and\n      swap1\n      sstore\n      0x00\n      dup1\n      dup1\n      jump(tag_297)\n    tag_294:\n      swap3\n      swap4\n      0x20\n      0x01\n      dup2\n      swap3\n      dup8\n      dup7\n      add\n      mload\n      dup2\n      sstore\n      add\n      swap6\n      add\n      swap4\n      add\n      jump(tag_293)\n    tag_266:\n      tag_298\n      swap1\n      dup7\n      0x00\n      mstore\n      keccak256(0x00, 0x20)\n      0x1f\n      dup6\n      add\n      0x05\n      shr\n      dup2\n      add\n      swap2\n      0x20\n      dup7\n      lt\n      tag_231\n      jumpi\n      0x1f\n      add\n      0x05\n      shr\n      add\n      swap1\n      tag_11\n      jump\t// in\n    tag_298:\n      0x00\n      jump(tag_267)\n        /* \"ctiIncentiveDedupRegistry/ThreatTest.sol\":3982:4060  if (f==true){... */\n    tag_260:\n        /* \"ctiIncentiveDedupRegistry/ThreatTest.sol\":1369:6796  contract AssignmentContract {... */\n      dup4\n      mload\n        /* \"ctiIncentiveDedupRegistry/ThreatTest.sol\":4017:4026  msg.value */\n      callvalue\n        /* \"ctiIncentiveDedupRegistry/ThreatTest.sol\":4017:4047  msg.value>=curAssignment.price */\n      lt\n        /* \"ctiIncentiveDedupRegistry/ThreatTest.sol\":1369:6796  contract AssignmentContract {... */\n      iszero\n        /* \"ctiIncentiveDedupRegistry/ThreatTest.sol\":3982:4060  if (f==true){... */\n      tag_261\n        /* \"ctiIncentiveDedupRegistry/ThreatTest.sol\":1369:6796  contract AssignmentContract {... */\n      jumpi\n      0x00\n      dup1\n      revert\n        /* \"ctiIncentiveDedupRegistry/ThreatTest.sol\":3924:3970  if (f==false){... */\n    tag_258:\n        /* \"ctiIncentiveDedupRegistry/ThreatTest.sol\":3952:3959  return; */\n      pop\n      pop\n      pop\n      pop\n      pop\n      pop\n      pop\n      pop\n      pop\n      swap1\n      pop\n      jump\t// out\n        /* \"ctiIncentiveDedupRegistry/ThreatTest.sol\":1369:6796  contract AssignmentContract {... */\n    tag_16:\n      mload(0x40)\n      swap1\n      tag_303\n      dup3\n      tag_3\n      jump\t// in\n    tag_303:\n      0x00\n      0x0100\n      dup4\n      0x60\n      dup2\n      mstore\n      0x60\n      0x20\n      dup3\n      add\n      mstore\n      dup3\n      0x40\n      dup3\n      add\n      mstore\n      dup3\n      0x60\n      dup3\n      add\n      mstore\n      dup3\n      0x80\n      dup3\n      add\n      mstore\n      dup3\n      0xa0\n      dup3\n      add\n      mstore\n      dup3\n      0xc0\n      dup3\n      add\n      mstore\n      dup3\n      0xe0\n      dup3\n      add\n      mstore\n      add\n      mstore\n      jump\t// out\n        /* \"ctiIncentiveDedupRegistry/ThreatTest.sol\":4567:5044  function CheckCTI(string calldata txid) external payable  {... */\n    tag_17:\n        /* \"ctiIncentiveDedupRegistry/ThreatTest.sol\":1369:6796  contract AssignmentContract {... */\n      0x20\n        /* \"ctiIncentiveDedupRegistry/ThreatTest.sol\":4567:5044  function CheckCTI(string calldata txid) external payable  {... */\n      swap1\n        /* \"ctiIncentiveDedupRegistry/ThreatTest.sol\":1369:6796  contract AssignmentContract {... */\n      tag_304\n      tag_16\n      jump\t// in\n    tag_304:\n      pop\n      dup3\n      mload(0x40)\n      swap4\n      dup5\n      swap3\n      dup4\n      calldatacopy\n      dup2\n      add\n        /* \"ctiIncentiveDedupRegistry/ThreatTest.sol\":4675:4682  tx_list */\n      0x03\n        /* \"ctiIncentiveDedupRegistry/ThreatTest.sol\":1369:6796  contract AssignmentContract {... */\n      dup2\n      mstore\n      sub\n      add\n      swap1\n      keccak256\n      mload(0x40)\n      swap1\n      tag_305\n      dup3\n      tag_3\n      jump\t// in\n    tag_305:\n      tag_306\n      dup2\n      tag_9\n      jump\t// in\n    tag_306:\n      dup3\n      mstore\n      tag_307\n      0x01\n      dup3\n      add\n      tag_9\n      jump\t// in\n    tag_307:\n      0x20\n      dup4\n      add\n      mstore\n      0x02\n      dup2\n      add\n      sload\n      sub(shl(0xa0, 0x01), 0x01)\n      swap1\n      dup2\n      and\n      0x40\n      dup5\n      add\n      dup2\n      swap1\n      mstore\n        /* \"ctiIncentiveDedupRegistry/ThreatTest.sol\":4675:4682  tx_list */\n      0x03\n        /* \"ctiIncentiveDedupRegistry/ThreatTest.sol\":1369:6796  contract AssignmentContract {... */\n      dup4\n      add\n      sload\n      dup3\n      and\n      0x60\n      dup6\n      add\n      dup2\n      swap1\n      mstore\n      0x04\n      dup5\n      add\n      sload\n      swap1\n      swap3\n      and\n      0x80\n      dup6\n      add\n      dup2\n      swap1\n      mstore\n      0x05\n      dup5\n      add\n      sload\n      0xa0\n      dup7\n      add\n      mstore\n      0x06\n      dup5\n      add\n      sload\n      0xc0\n      dup7\n      add\n      dup2\n      swap1\n      mstore\n      0x07\n      dup6\n      add\n      sload\n      0xe0\n      dup8\n      add\n      swap1\n      dup2\n      mstore\n      0x08\n      swap1\n      swap6\n      add\n      sload\n      0x0100\n      swap1\n      swap7\n      add\n      dup7\n      dup2\n      mstore\n      swap4\n      swap6\n      swap1\n      swap3\n      swap2\n      swap1\n      0x01\n        /* \"ctiIncentiveDedupRegistry/ThreatTest.sol\":4703:4718  trc.status == 1 */\n      eq\n        /* \"ctiIncentiveDedupRegistry/ThreatTest.sol\":4699:4752  if (trc.status == 1){... */\n      tag_308\n      jumpi\n        /* \"ctiIncentiveDedupRegistry/ThreatTest.sol\":4770:4780  msg.sender */\n      caller\n        /* \"ctiIncentiveDedupRegistry/ThreatTest.sol\":4770:4794  msg.sender==trc.consumer */\n      sub\n        /* \"ctiIncentiveDedupRegistry/ThreatTest.sol\":1369:6796  contract AssignmentContract {... */\n      tag_49\n      jumpi\n      0x00\n      dup1\n      swap4\n      swap3\n      dup2\n      swap4\n      swap3\n      0x01\n      dup4\n      swap5\n      mstore\n        /* \"ctiIncentiveDedupRegistry/ThreatTest.sol\":4949:4986  producer.transfer(trc.producer_price) */\n      dup3\n      dup3\n      iszero\n      tag_312\n      jumpi\n        /* \"ctiIncentiveDedupRegistry/ThreatTest.sol\":4567:5044  function CheckCTI(string calldata txid) external payable  {... */\n    tag_313:\n        /* \"ctiIncentiveDedupRegistry/ThreatTest.sol\":4949:4986  producer.transfer(trc.producer_price) */\n      call\n      iszero\n      tag_318\n      jumpi\n      0x00\n        /* \"ctiIncentiveDedupRegistry/ThreatTest.sol\":1369:6796  contract AssignmentContract {... */\n      dup1\n      dup1\n      swap4\n      dup2\n      swap4\n      mload\n        /* \"ctiIncentiveDedupRegistry/ThreatTest.sol\":4997:5036  delegator.transfer(trc.delegator_price) */\n      swap1\n      dup3\n      dup3\n      iszero\n      tag_316\n      jumpi\n        /* \"ctiIncentiveDedupRegistry/ThreatTest.sol\":4567:5044  function CheckCTI(string calldata txid) external payable  {... */\n    tag_317:\n        /* \"ctiIncentiveDedupRegistry/ThreatTest.sol\":4997:5036  delegator.transfer(trc.delegator_price) */\n      call\n      iszero\n      tag_318\n      jumpi\n        /* \"ctiIncentiveDedupRegistry/ThreatTest.sol\":4567:5044  function CheckCTI(string calldata txid) external payable  {... */\n      jump\t// out\n        /* \"ctiIncentiveDedupRegistry/ThreatTest.sol\":4997:5036  delegator.transfer(trc.delegator_price) */\n    tag_318:\n        /* \"ctiIncentiveDedupRegistry/ThreatTest.sol\":1369:6796  contract AssignmentContract {... */\n      mload(0x40)\n      returndatasize\n      0x00\n      dup3\n      returndatacopy\n      returndatasize\n      swap1\n      revert\n        /* \"ctiIncentiveDedupRegistry/ThreatTest.sol\":4997:5036  delegator.transfer(trc.delegator_price) */\n    tag_316:\n      pop\n      0x08fc\n      jump(tag_317)\n        /* \"ctiIncentiveDedupRegistry/ThreatTest.sol\":4949:4986  producer.transfer(trc.producer_price) */\n    tag_312:\n      pop\n      0x08fc\n      jump(tag_313)\n        /* \"ctiIncentiveDedupRegistry/ThreatTest.sol\":4699:4752  if (trc.status == 1){... */\n    tag_308:\n        /* \"ctiIncentiveDedupRegistry/ThreatTest.sol\":4734:4741  return; */\n      pop\n      pop\n      pop\n      pop\n      pop\n      pop\n      jump\t// out\n        /* \"ctiIncentiveDedupRegistry/ThreatTest.sol\":1369:6796  contract AssignmentContract {... */\n    tag_18:\n      dup1\n      sload\n      swap1\n      shl(0x40, 0x01)\n      dup3\n      lt\n      iszero\n      tag_143\n      jumpi\n      0x01\n      dup3\n      add\n      dup1\n      dup3\n      sstore\n      dup3\n      lt\n      iszero\n      tag_322\n      jumpi\n      0x00\n      mstore\n      keccak256(0x00, 0x20)\n      add\n      swap1\n      0x01\n      dup1\n      0xa0\n      shl\n      sub\n      and\n      shl(0xa0, 0xffffffffffffffffffffffff)\n      dup3\n      sload\n      and\n      or\n      swap1\n      sstore\n      jump\t// out\n    tag_322:\n      mstore(0x00, shl(0xe0, 0x4e487b71))\n      mstore(0x04, 0x32)\n      revert(0x00, 0x24)\n        /* \"ctiIncentiveDedupRegistry/ThreatTest.sol\":5096:5698  function consumerUpgrade(string calldata txid,string calldata name, string calldata pubkey) external payable    {... */\n    tag_19:\n      swap5\n      swap2\n      swap3\n      swap1\n        /* \"ctiIncentiveDedupRegistry/ThreatTest.sol\":1369:6796  contract AssignmentContract {... */\n      tag_324\n      tag_16\n      jump\t// in\n    tag_324:\n      pop\n      0x20\n      0x00\n      swap7\n      dup3\n      mload(0x40)\n      swap4\n      dup5\n      swap3\n      dup4\n      calldatacopy\n      dup2\n      add\n        /* \"ctiIncentiveDedupRegistry/ThreatTest.sol\":5256:5263  tx_list */\n      0x03\n        /* \"ctiIncentiveDedupRegistry/ThreatTest.sol\":1369:6796  contract AssignmentContract {... */\n      dup2\n      mstore\n      sub\n      add\n      swap1\n      keccak256\n      swap4\n      mload(0x40)\n      swap4\n      tag_325\n      dup6\n      tag_3\n      jump\t// in\n    tag_325:\n      tag_326\n      dup7\n      tag_9\n      jump\t// in\n    tag_326:\n      dup6\n      mstore\n      tag_327\n      0x01\n      dup8\n      add\n      tag_9\n      jump\t// in\n    tag_327:\n      0x20\n      dup7\n      add\n      mstore\n      0x02\n      dup7\n      add\n      sload\n      sub(shl(0xa0, 0x01), 0x01)\n      swap1\n      dup2\n      and\n      0x40\n      dup8\n      add\n      mstore\n        /* \"ctiIncentiveDedupRegistry/ThreatTest.sol\":5256:5263  tx_list */\n      0x03\n        /* \"ctiIncentiveDedupRegistry/ThreatTest.sol\":1369:6796  contract AssignmentContract {... */\n      dup8\n      add\n      sload\n      dup2\n      and\n      0x60\n      dup8\n      add\n      mstore\n      0x04\n      dup8\n      add\n      sload\n      and\n      0x80\n      dup7\n      add\n      dup2\n      swap1\n      mstore\n      0x05\n      dup8\n      add\n      sload\n      0xa0\n      dup8\n      add\n      mstore\n      0x06\n      dup8\n      add\n      sload\n      0xc0\n      dup8\n      add\n      mstore\n      0x07\n      dup8\n      add\n      sload\n      0xe0\n      dup8\n      add\n      mstore\n      0x08\n      swap1\n      swap7\n      add\n      sload\n      0x0100\n      dup7\n      add\n      mstore\n        /* \"ctiIncentiveDedupRegistry/ThreatTest.sol\":5288:5295  trc.tid */\n      dup5\n      mload\n        /* \"ctiIncentiveDedupRegistry/ThreatTest.sol\":5284:5296  get(trc.tid) */\n      tag_328\n      swap1\n      tag_21\n      jump\t// in\n    tag_328:\n        /* \"ctiIncentiveDedupRegistry/ThreatTest.sol\":1369:6796  contract AssignmentContract {... */\n      iszero\n        /* \"ctiIncentiveDedupRegistry/ThreatTest.sol\":5280:5337  if (get(trc.tid)==false){... */\n      tag_329\n      jumpi\n      0x00\n        /* \"ctiIncentiveDedupRegistry/ThreatTest.sol\":1369:6796  contract AssignmentContract {... */\n      sload\n      mload(0x40)\n      shl(0xe1, 0x7ec55a41)\n        /* \"ctiIncentiveDedupRegistry/ThreatTest.sol\":5414:5454  delegator_contract.isDelegator(consumer) */\n      dup2\n      mstore\n        /* \"ctiIncentiveDedupRegistry/ThreatTest.sol\":1369:6796  contract AssignmentContract {... */\n      0x04\n        /* \"ctiIncentiveDedupRegistry/ThreatTest.sol\":5414:5454  delegator_contract.isDelegator(consumer) */\n      dup2\n      add\n        /* \"ctiIncentiveDedupRegistry/ThreatTest.sol\":1369:6796  contract AssignmentContract {... */\n      dup9\n      swap1\n      mstore\n      sub(shl(0xa0, 0x01), 0x01)\n      swap1\n      swap2\n      and\n      swap2\n      swap1\n      0x20\n      dup2\n        /* \"ctiIncentiveDedupRegistry/ThreatTest.sol\":5414:5454  delegator_contract.isDelegator(consumer) */\n      0x24\n        /* \"ctiIncentiveDedupRegistry/ThreatTest.sol\":1369:6796  contract AssignmentContract {... */\n      dup2\n      dup7\n        /* \"ctiIncentiveDedupRegistry/ThreatTest.sol\":5414:5454  delegator_contract.isDelegator(consumer) */\n      gas\n      staticcall\n      swap1\n      dup2\n      iszero\n      tag_318\n      jumpi\n      0x00\n      swap2\n      tag_333\n      jumpi\n        /* \"ctiIncentiveDedupRegistry/ThreatTest.sol\":5096:5698  function consumerUpgrade(string calldata txid,string calldata name, string calldata pubkey) external payable    {... */\n    tag_334:\n        /* \"ctiIncentiveDedupRegistry/ThreatTest.sol\":1369:6796  contract AssignmentContract {... */\n      pop\n      iszero\n        /* \"ctiIncentiveDedupRegistry/ThreatTest.sol\":5410:5548  if (delegator_contract.isDelegator(consumer)==false) {... */\n      tag_335\n      jumpi\n        /* \"ctiIncentiveDedupRegistry/ThreatTest.sol\":5096:5698  function consumerUpgrade(string calldata txid,string calldata name, string calldata pubkey) external payable    {... */\n    tag_336:\n        /* \"ctiIncentiveDedupRegistry/ThreatTest.sol\":5627:5634  trc.tid */\n      pop\n      pop\n      pop\n      pop\n      pop\n        /* \"ctiIncentiveDedupRegistry/ThreatTest.sol\":1369:6796  contract AssignmentContract {... */\n      0x20\n        /* \"ctiIncentiveDedupRegistry/ThreatTest.sol\":5627:5634  trc.tid */\n      dup1\n        /* \"ctiIncentiveDedupRegistry/ThreatTest.sol\":5646:5690  assignment.delegators_address.push(consumer) */\n      tag_168\n        /* \"ctiIncentiveDedupRegistry/ThreatTest.sol\":5627:5634  trc.tid */\n      swap5\n        /* \"ctiIncentiveDedupRegistry/ThreatTest.sol\":1369:6796  contract AssignmentContract {... */\n      0x02\n        /* \"ctiIncentiveDedupRegistry/ThreatTest.sol\":5627:5634  trc.tid */\n      swap4\n      mload\n        /* \"ctiIncentiveDedupRegistry/ThreatTest.sol\":1369:6796  contract AssignmentContract {... */\n      swap1\n      pop\n      mload(0x40)\n      swap3\n      dup2\n      dup5\n      swap3\n      mload\n      swap2\n      dup3\n      swap2\n      add\n      dup4\n      mcopy\n      dup2\n      add\n      dup5\n      dup2\n      mstore\n      sub\n      add\n      swap1\n      keccak256\n        /* \"ctiIncentiveDedupRegistry/ThreatTest.sol\":5646:5675  assignment.delegators_address */\n      add\n        /* \"ctiIncentiveDedupRegistry/ThreatTest.sol\":5646:5690  assignment.delegators_address.push(consumer) */\n      tag_18\n      jump\t// in\n        /* \"ctiIncentiveDedupRegistry/ThreatTest.sol\":5410:5548  if (delegator_contract.isDelegator(consumer)==false) {... */\n    tag_335:\n        /* \"ctiIncentiveDedupRegistry/ThreatTest.sol\":5478:5536  delegator_contract.Register{value:msg.value}(name, pubkey) */\n      dup2\n      extcodesize\n      iszero\n      tag_49\n      jumpi\n      0x00\n        /* \"ctiIncentiveDedupRegistry/ThreatTest.sol\":1369:6796  contract AssignmentContract {... */\n      swap4\n      tag_340\n      tag_341\n      swap5\n      mload(0x40)\n      swap8\n      dup9\n      swap7\n      dup8\n      swap6\n      dup7\n      swap6\n      shl(0xe0, 0xd6192e29)\n        /* \"ctiIncentiveDedupRegistry/ThreatTest.sol\":5478:5536  delegator_contract.Register{value:msg.value}(name, pubkey) */\n      dup8\n      mstore\n        /* \"ctiIncentiveDedupRegistry/ThreatTest.sol\":1369:6796  contract AssignmentContract {... */\n      0x40\n      0x04\n        /* \"ctiIncentiveDedupRegistry/ThreatTest.sol\":5478:5536  delegator_contract.Register{value:msg.value}(name, pubkey) */\n      dup9\n      add\n        /* \"ctiIncentiveDedupRegistry/ThreatTest.sol\":1369:6796  contract AssignmentContract {... */\n      mstore\n      0x44\n      dup8\n      add\n      swap2\n      tag_12\n      jump\t// in\n    tag_341:\n      dup5\n      dup2\n      sub\n      not(0x03)\n      add\n        /* \"ctiIncentiveDedupRegistry/ThreatTest.sol\":5414:5454  delegator_contract.isDelegator(consumer) */\n      0x24\n        /* \"ctiIncentiveDedupRegistry/ThreatTest.sol\":1369:6796  contract AssignmentContract {... */\n      dup7\n      add\n      mstore\n      swap2\n      tag_12\n      jump\t// in\n    tag_340:\n        /* \"ctiIncentiveDedupRegistry/ThreatTest.sol\":5478:5536  delegator_contract.Register{value:msg.value}(name, pubkey) */\n      sub\n        /* \"ctiIncentiveDedupRegistry/ThreatTest.sol\":5512:5521  msg.value */\n      swap2\n      callvalue\n        /* \"ctiIncentiveDedupRegistry/ThreatTest.sol\":5478:5536  delegator_contract.Register{value:msg.value}(name, pubkey) */\n      swap1\n      gas\n      call\n      dup1\n      iszero\n      tag_318\n      jumpi\n        /* \"ctiIncentiveDedupRegistry/ThreatTest.sol\":5646:5690  assignment.delegators_address.push(consumer) */\n      tag_168\n        /* \"ctiIncentiveDedupRegistry/ThreatTest.sol\":5478:5536  delegator_contract.Register{value:msg.value}(name, pubkey) */\n      swap5\n        /* \"ctiIncentiveDedupRegistry/ThreatTest.sol\":1369:6796  contract AssignmentContract {... */\n      0x02\n        /* \"ctiIncentiveDedupRegistry/ThreatTest.sol\":5478:5536  delegator_contract.Register{value:msg.value}(name, pubkey) */\n      swap4\n        /* \"ctiIncentiveDedupRegistry/ThreatTest.sol\":1369:6796  contract AssignmentContract {... */\n      0x20\n        /* \"ctiIncentiveDedupRegistry/ThreatTest.sol\":5478:5536  delegator_contract.Register{value:msg.value}(name, pubkey) */\n      swap4\n      dup5\n      swap4\n      tag_344\n      jumpi\n        /* \"ctiIncentiveDedupRegistry/ThreatTest.sol\":5410:5548  if (delegator_contract.isDelegator(consumer)==false) {... */\n    tag_345:\n      dup3\n      swap8\n      pop\n      dup2\n      swap6\n      pop\n      jump(tag_336)\n        /* \"ctiIncentiveDedupRegistry/ThreatTest.sol\":5478:5536  delegator_contract.Register{value:msg.value}(name, pubkey) */\n    tag_344:\n      tag_346\n      swap2\n      swap3\n      pop\n      0x00\n      swap1\n      tag_4\n      jump\t// in\n    tag_346:\n      0x00\n      swap1\n      0x00\n      jump(tag_345)\n        /* \"ctiIncentiveDedupRegistry/ThreatTest.sol\":5414:5454  delegator_contract.isDelegator(consumer) */\n    tag_333:\n      swap1\n      pop\n        /* \"ctiIncentiveDedupRegistry/ThreatTest.sol\":1369:6796  contract AssignmentContract {... */\n      0x20\n        /* \"ctiIncentiveDedupRegistry/ThreatTest.sol\":5414:5454  delegator_contract.isDelegator(consumer) */\n      dup2\n      returndatasize\n        /* \"ctiIncentiveDedupRegistry/ThreatTest.sol\":1369:6796  contract AssignmentContract {... */\n      0x20\n        /* \"ctiIncentiveDedupRegistry/ThreatTest.sol\":5414:5454  delegator_contract.isDelegator(consumer) */\n      gt\n      tag_347\n      jumpi\n    tag_348:\n      dup2\n      tag_349\n        /* \"ctiIncentiveDedupRegistry/ThreatTest.sol\":1369:6796  contract AssignmentContract {... */\n      0x20\n        /* \"ctiIncentiveDedupRegistry/ThreatTest.sol\":5414:5454  delegator_contract.isDelegator(consumer) */\n      swap4\n      dup4\n      tag_4\n      jump\t// in\n    tag_349:\n      dup2\n      add\n        /* \"ctiIncentiveDedupRegistry/ThreatTest.sol\":1369:6796  contract AssignmentContract {... */\n      sub\n      slt\n      tag_49\n      jumpi\n      mload\n      dup1\n      iszero\n      iszero\n      dup2\n      sub\n      tag_49\n      jumpi\n        /* \"ctiIncentiveDedupRegistry/ThreatTest.sol\":5414:5454  delegator_contract.isDelegator(consumer) */\n      0x00\n      jump(tag_334)\n    tag_347:\n      returndatasize\n      swap2\n      pop\n      jump(tag_348)\n        /* \"ctiIncentiveDedupRegistry/ThreatTest.sol\":5280:5337  if (get(trc.tid)==false){... */\n    tag_329:\n        /* \"ctiIncentiveDedupRegistry/ThreatTest.sol\":5319:5326  return; */\n      pop\n      pop\n      pop\n      pop\n      pop\n      pop\n      pop\n      jump\t// out\n        /* \"ctiIncentiveDedupRegistry/ThreatTest.sol\":5761:6006  function VerifyAssignment(... */\n    tag_20:\n      swap2\n        /* \"ctiIncentiveDedupRegistry/ThreatTest.sol\":1369:6796  contract AssignmentContract {... */\n      iszero\n      iszero\n        /* \"ctiIncentiveDedupRegistry/ThreatTest.sol\":5889:5893  true */\n      0x01\n        /* \"ctiIncentiveDedupRegistry/ThreatTest.sol\":5882:5893  opt == true */\n      eq\n        /* \"ctiIncentiveDedupRegistry/ThreatTest.sol\":5878:5976  if (opt == true) {... */\n      tag_354\n      jumpi\n        /* \"ctiIncentiveDedupRegistry/ThreatTest.sol\":5986:5998  return false */\n      pop\n      pop\n        /* \"ctiIncentiveDedupRegistry/ThreatTest.sol\":1369:6796  contract AssignmentContract {... */\n      0x00\n        /* \"ctiIncentiveDedupRegistry/ThreatTest.sol\":5761:6006  function VerifyAssignment(... */\n      swap1\n      jump\t// out\n        /* \"ctiIncentiveDedupRegistry/ThreatTest.sol\":5878:5976  if (opt == true) {... */\n    tag_354:\n        /* \"ctiIncentiveDedupRegistry/ThreatTest.sol\":1369:6796  contract AssignmentContract {... */\n      0x20\n        /* \"ctiIncentiveDedupRegistry/ThreatTest.sol\":5910:5938  record[tid].push(msg.sender) */\n      tag_356\n        /* \"ctiIncentiveDedupRegistry/ThreatTest.sol\":1369:6796  contract AssignmentContract {... */\n      swap3\n      dup3\n      mload(0x40)\n      swap4\n      dup5\n      swap3\n      dup4\n      calldatacopy\n      dup2\n      add\n        /* \"ctiIncentiveDedupRegistry/ThreatTest.sol\":5889:5893  true */\n      0x01\n        /* \"ctiIncentiveDedupRegistry/ThreatTest.sol\":1369:6796  contract AssignmentContract {... */\n      dup2\n      mstore\n      sub\n      add\n      swap1\n      keccak256\n        /* \"ctiIncentiveDedupRegistry/ThreatTest.sol\":5927:5937  msg.sender */\n      caller\n        /* \"ctiIncentiveDedupRegistry/ThreatTest.sol\":5910:5938  record[tid].push(msg.sender) */\n      swap1\n      tag_18\n      jump\t// in\n    tag_356:\n        /* \"ctiIncentiveDedupRegistry/ThreatTest.sol\":5889:5893  true */\n      0x01\n        /* \"ctiIncentiveDedupRegistry/ThreatTest.sol\":5953:5964  return true */\n      swap1\n      jump\t// out\n        /* \"ctiIncentiveDedupRegistry/ThreatTest.sol\":6630:6793  function get(string memory str) internal pure returns(bool){... */\n    tag_21:\n        /* \"ctiIncentiveDedupRegistry/ThreatTest.sol\":1369:6796  contract AssignmentContract {... */\n      mload\n        /* \"ctiIncentiveDedupRegistry/ThreatTest.sol\":6704:6724  bytes(str).length==0 */\n      iszero\n        /* \"ctiIncentiveDedupRegistry/ThreatTest.sol\":6700:6764  if (bytes(str).length==0){... */\n      tag_357\n      jumpi\n        /* \"ctiIncentiveDedupRegistry/ThreatTest.sol\":6781:6785  true */\n      0x01\n        /* \"ctiIncentiveDedupRegistry/ThreatTest.sol\":6630:6793  function get(string memory str) internal pure returns(bool){... */\n      swap1\n      jump\t// out\n        /* \"ctiIncentiveDedupRegistry/ThreatTest.sol\":6700:6764  if (bytes(str).length==0){... */\n    tag_357:\n        /* \"ctiIncentiveDedupRegistry/ThreatTest.sol\":1369:6796  contract AssignmentContract {... */\n      0x00\n        /* \"ctiIncentiveDedupRegistry/ThreatTest.sol\":6740:6752  return false */\n      swap1\n      jump\t// out\n\n    auxdata: 0xa26469706673582212203db22df3d6b6ffd6d48dd72698790f4a5cd130404d5b2dcc7f498376b8f1ca8164736f6c634300081a0033\n}\n",
				"bytecode": {
					"linkReferences": {},
					"object": "608034606f57601f61154338819003918201601f19168301916001600160401b03831184841017607357808492602094604052833981010312606f57516001600160a01b03811690819003606f575f80546001600160a01b0319169190911790556040516114bb90816100888239f35b5f80fd5b634e487b7160e01b5f52604160045260245ffdfe60806040526004361015610011575f80fd5b5f3560e01c806382da59f214610447578063b3a1c864146103be578063cf99f51d146102cb578063dc7e701e14610297578063e2599078146101fb578063ea7937c214610183578063f26d9918146101305763fa4a328714610071575f80fd5b3461012c57606036600319011261012c576004356001600160401b03811161012c576100a19036906004016104f4565b6024356001600160a01b0381169081900361012c576044356001600160401b03811161012c577f696776fbada6026b2cc4883473b601f70eed8609668c456c07681055dca814f0936101196100fd6101279336906004016104f4565b9190926040519687968752606060208801526060870191610716565b918483036040860152610716565b0390a1005b5f80fd5b3461012c57604036600319011261012c576004356001600160401b03811161012c576101609036906004016104f4565b90602435801515810361012c5760209261017992611441565b6040519015158152f35b606036600319011261012c576004356001600160401b03811161012c576101ae9036906004016104f4565b6024356001600160401b03811161012c576101cd9036906004016104f4565b60443593916001600160401b03851161012c576101f16101f99536906004016104f4565b949093611253565b005b3461012c57602036600319011261012c576004356001600160401b03811161012c57602061023061024a9236906004016104f4565b919082604051938492833781016001815203019020610b79565b6040518091602082016020835281518091526020604084019201905f5b818110610275575050500390f35b82516001600160a01b0316845285945060209384019390920191600101610267565b602036600319011261012c576004356001600160401b03811161012c576102c56101f99136906004016104f4565b906110e3565b3461012c57602036600319011261012c576004356001600160401b03811161012c576020806103016103879336906004016105d2565b604051928184925191829101835e810160038152030190206103228161063c565b9061032f6001820161063c565b60018060a01b036002830154169160018060a01b0360038201541660018060a01b0360048301541660058301549060068401549261039560086007870154960154966040519a8b9a6101208c526101208c01906106dc565b908a820360208c01526106dc565b9660408901526060880152608087015260a086015260c085015260e08401526101008301520390f35b608036600319011261012c576004356001600160401b03811161012c576103e99036906004016105d2565b6024356001600160401b03811161012c576104089036906004016105d2565b604435916001600160a01b038316830361012c57606435926001600160401b03841161012c5761043f6101f99436906004016104f4565b939092610bca565b3461012c5760c036600319011261012c576004356001600160401b03811161012c576104779036906004016104f4565b906024356001600160401b03811161012c573660238201121561012c5780600401356001600160401b03811161012c573660248260051b8401011161012c5760a435926001600160401b03841161012c576020946104dc6101799536906004016104f4565b94909360843593606435936024604435940191610736565b9181601f8401121561012c578235916001600160401b03831161012c576020838186019501011161012c57565b60e081019081106001600160401b0382111761053c57604052565b634e487b7160e01b5f52604160045260245ffd5b61012081019081106001600160401b0382111761053c57604052565b90601f801991011681019081106001600160401b0382111761053c57604052565b9291926001600160401b03821161053c57604051916105b6601f8201601f19166020018461056c565b82948184528183011161012c578281602093845f960137010152565b9080601f8301121561012c578160206105ed9335910161058d565b90565b35906001600160a01b038216820361012c57565b90600182811c92168015610632575b602083101461061e57565b634e487b7160e01b5f52602260045260245ffd5b91607f1691610613565b9060405191825f82549261064f84610604565b80845293600181169081156106ba5750600114610676575b506106749250038361056c565b565b90505f9291925260205f20905f915b81831061069e575050906020610674928201015f610667565b6020919350806001915483858901015201910190918492610685565b90506020925061067494915060ff191682840152151560051b8201015f610667565b805180835260209291819084018484015e5f828201840152601f01601f1916010190565b81811061070b575050565b5f8155600101610700565b908060209392818452848401375f828201840152601f01601f1916010190565b92969598979490939198808201808311610b65578303610b58576040519161075d83610521565b61076836878761058d565b835260208301933385526001600160401b038a1161053c578960051b8c60405191610796602082018461056c565b8c8352016020820136821161012c578e905b828210610b405750505060408501908152606085019182526080850192835260a085019384526107d9368a8c61058d565b9560c08601968752604051898982376020818b8101600281520301902095518051906001600160401b03821161053c5781906108158954610604565b601f8111610b10575b50602090601f8311600114610aad575f92610aa2575b50508160011b915f199060031b1c19161786555b516001860180546001600160a01b0319166001600160a01b03929092169190911790555180519060028601906001600160401b03831161053c57600160401b831161053c576020908254848455808510610a87575b5001905f5260205f205f5b838110610a6a57505050509060069392915160038401555160048301555160058201550190518051906001600160401b03821161053c5781906108eb8454610604565b601f8111610a2f575b50602090601f83116001146109cc575f926109c1575b50508160011b915f199060031b1c19161790555b604051948060808701608088525260a0860197905f5b818110610995575050509161097f7ff52fcbc5cb218bae54b5dee4a14189098257cb16cc5649f3daeff8c73a56104d969786959361098d953360208901528783036040890152610716565b918483036060860152610716565b0390a1600190565b919890919060019060209081906001600160a01b036109b38e6105f0565b168152019a01929101610934565b015190505f8061090a565b5f8581528281209350601f198516905b818110610a1757509084600195949392106109ff575b505050811b01905561091e565b01515f1960f88460031b161c191690555f80806109f2565b929360206001819287860151815501950193016109dc565b610a5a90855f5260205f20601f850160051c81019160208610610a60575b601f0160051c0190610700565b5f6108f4565b9091508190610a4d565b82516001600160a01b0316818301556020909201916001016108a8565b610a9c90845f5285845f209182019101610700565b5f61089d565b015190505f80610834565b5f8a81528281209350601f198516905b818110610af85750908460019594939210610ae0575b505050811b018655610848565b01515f1960f88460031b161c191690555f8080610ad3565b92936020600181928786015181550195019301610abd565b610b3a908a5f5260205f20601f850160051c81019160208610610a6057601f0160051c0190610700565b5f61081e565b60208091610b4d846105f0565b8152019101906107a8565b505f985050505050505050565b634e487b7160e01b5f52601160045260245ffd5b90604051918281549182825260208201905f5260205f20925f5b818110610ba85750506106749250038361056c565b84546001600160a01b0316835260019485019487945060209093019201610b93565b91929394905f94606060c0604051610be181610521565b8281525f60208201528260408201525f838201525f60808201525f60a08201520152604051968451976020818188019a808c835e810160028152030190209460405195610c2d87610521565b610c368161063c565b875260018101546001600160a01b031660208801908152998790610cb790610c6060028501610b79565b6040840152602060038501549560608501968752610c9860066004880154976080880198895260a0600582015498019788520161063c565b60c08d0152604051928391518091835e81016001815203019020610b79565b975f9a89519b5b8c811015610cf557600581901b8b01602001516001600160a01b038d8116911614610cec575b600101610cbe565b60019150610ce4565b50919395979a5091939598975015806110915715600114611084575b519860018060a01b039051169251915190519160405199610d318b610550565b8a5260208a019388855260408b015260018060a01b03871660608b01523360808b015260a08a015260c089015260e08801525f610100880152604051602081875180838a01835e810160038152030190209087518051906001600160401b03821161053c578190610da28554610604565b601f8111611054575b50602090601f8311600114610ff1575f92610fe6575b50508160011b915f199060031b1c19161782555b519687516001600160401b03811161053c57610df46001840154610604565b601f8111610fb3575b506020601f8211600114610f1b57610f0b9594939282600893610100937fa82fdb4b07891794fe0bcde99c7d434289ff9320ff626ff65b07a002202557779c9d5f92610f10575b50508160011b915f199060031b1c19161760018501555b6040818101516002860180546001600160a01b03199081166001600160a01b0393841617909155606084015160038801805483169184169190911790556080808501516004890180549093169084161790915560a0840151600588015560c0840151600688015560e08401516007880155939092015193909401929092559151951685526020850181905293948594610ef791908601906106dc565b913460408601528483036060860152610716565b0390a1565b015190505f80610e44565b600184015f52805f20995f5b601f1984168110610f9b5750926001837fa82fdb4b07891794fe0bcde99c7d434289ff9320ff626ff65b07a002202557779b9c61010094610f0b9a999897600897601f19811610610f83575b505050811b016001850155610e5b565b01515f1960f88460031b161c191690555f8080610f73565b828201518c556001909b019a60209283019201610f27565b610fe090600185015f5260205f20601f840160051c81019160208510610a6057601f0160051c0190610700565b5f610dfd565b015190505f80610dc1565b5f8681528281209350601f198516905b81811061103c5750908460019594939210611024575b505050811b018255610dd5565b01515f1960f88460031b161c191690555f8080611017565b92936020600181928786015181550195019301611001565b61107e90865f5260205f20601f850160051c81019160208610610a6057601f0160051c0190610700565b5f610dab565b8351341015610d11575f80fd5b5050505050505050509050565b604051906110ab82610550565b5f6101008360608152606060208201528260408201528260608201528260808201528260a08201528260c08201528260e08201520152565b6020906110ee61109e565b50826040519384928337810160038152030190206040519061110f82610550565b6111188161063c565b82526111266001820161063c565b602083015260028101546001600160a01b03908116604084018190526003830154821660608501819052600484015490921660808501819052600584015460a0860152600684015460c08601819052600785015460e087019081526008909501546101009096018681529395909291906001146111f257330361012c575f80939281939260018394528282156111e9575bf1156111d5575f808093819351908282156111e0575bf1156111d557565b6040513d5f823e3d90fd5b506108fc6111cd565b506108fc6111b7565b505050505050565b805490600160401b82101561053c576001820180825582101561123f575f5260205f20019060018060a01b03166bffffffffffffffffffffffff60a01b825416179055565b634e487b7160e01b5f52603260045260245ffd5b9491929061125f61109e565b5060205f9682604051938492833781016003815203019020936040519361128585610550565b61128e8661063c565b855261129c6001870161063c565b602086015260028601546001600160a01b03908116604087015260038701548116606087015260048701541660808601819052600587015460a0870152600687015460c0870152600787015460e0870152600890960154610100860152845161130490611476565b15611438575f54604051637ec55a4160e11b8152600481018890526001600160a01b039091169190602081602481865afa9081156111d5575f916113fd575b5015611379575b505050505060208061067494600293519050604051928184925191829101835e810184815203019020016111fa565b813b1561012c575f936113c06113ae946040519788968795869563d6192e2960e01b8752604060048801526044870191610716565b84810360031901602486015291610716565b039134905af180156111d5576106749460029360209384936113e8575b82975081955061134a565b6113f59192505f9061056c565b5f905f6113dd565b90506020813d602011611430575b816114186020938361056c565b8101031261012c5751801515810361012c575f611343565b3d915061140b565b50505050505050565b9115156001146114515750505f90565b6020611471928260405193849283378101600181520301902033906111fa565b600190565b511561148157600190565b5f9056fea26469706673582212203db22df3d6b6ffd6d48dd72698790f4a5cd130404d5b2dcc7f498376b8f1ca8164736f6c634300081a0033",
					"opcodes": "PUSH1 0x80 CALLVALUE PUSH1 0x6F JUMPI PUSH1 0x1F PUSH2 0x1543 CODESIZE DUP2 SWAP1 SUB SWAP2 DUP3 ADD PUSH1 0x1F NOT AND DUP4 ADD SWAP2 PUSH1 0x1 PUSH1 0x1 PUSH1 0x40 SHL SUB DUP4 GT DUP5 DUP5 LT OR PUSH1 0x73 JUMPI DUP1 DUP5 SWAP3 PUSH1 0x20 SWAP5 PUSH1 0x40 MSTORE DUP4 CODECOPY DUP2 ADD SUB SLT PUSH1 0x6F JUMPI MLOAD PUSH1 0x1 PUSH1 0x1 PUSH1 0xA0 SHL SUB DUP2 AND SWAP1 DUP2 SWAP1 SUB PUSH1 0x6F JUMPI PUSH0 DUP1 SLOAD PUSH1 0x1 PUSH1 0x1 PUSH1 0xA0 SHL SUB NOT AND SWAP2 SWAP1 SWAP2 OR SWAP1 SSTORE PUSH1 0x40 MLOAD PUSH2 0x14BB SWAP1 DUP2 PUSH2 0x88 DUP3 CODECOPY RETURN JUMPDEST PUSH0 DUP1 REVERT JUMPDEST PUSH4 0x4E487B71 PUSH1 0xE0 SHL PUSH0 MSTORE PUSH1 0x41 PUSH1 0x4 MSTORE PUSH1 0x24 PUSH0 REVERT INVALID PUSH1 0x80 PUSH1 0x40 MSTORE PUSH1 0x4 CALLDATASIZE LT ISZERO PUSH2 0x11 JUMPI PUSH0 DUP1 REVERT JUMPDEST PUSH0 CALLDATALOAD PUSH1 0xE0 SHR DUP1 PUSH4 0x82DA59F2 EQ PUSH2 0x447 JUMPI DUP1 PUSH4 0xB3A1C864 EQ PUSH2 0x3BE JUMPI DUP1 PUSH4 0xCF99F51D EQ PUSH2 0x2CB JUMPI DUP1 PUSH4 0xDC7E701E EQ PUSH2 0x297 JUMPI DUP1 PUSH4 0xE2599078 EQ PUSH2 0x1FB JUMPI DUP1 PUSH4 0xEA7937C2 EQ PUSH2 0x183 JUMPI DUP1 PUSH4 0xF26D9918 EQ PUSH2 0x130 JUMPI PUSH4 0xFA4A3287 EQ PUSH2 0x71 JUMPI PUSH0 DUP1 REVERT JUMPDEST CALLVALUE PUSH2 0x12C JUMPI PUSH1 0x60 CALLDATASIZE PUSH1 0x3 NOT ADD SLT PUSH2 0x12C JUMPI PUSH1 0x4 CALLDATALOAD PUSH1 0x1 PUSH1 0x1 PUSH1 0x40 SHL SUB DUP2 GT PUSH2 0x12C JUMPI PUSH2 0xA1 SWAP1 CALLDATASIZE SWAP1 PUSH1 0x4 ADD PUSH2 0x4F4 JUMP JUMPDEST PUSH1 0x24 CALLDATALOAD PUSH1 0x1 PUSH1 0x1 PUSH1 0xA0 SHL SUB DUP2 AND SWAP1 DUP2 SWAP1 SUB PUSH2 0x12C JUMPI PUSH1 0x44 CALLDATALOAD PUSH1 0x1 PUSH1 0x1 PUSH1 0x40 SHL SUB DUP2 GT PUSH2 0x12C JUMPI PUSH32 0x696776FBADA6026B2CC4883473B601F70EED8609668C456C07681055DCA814F0 SWAP4 PUSH2 0x119 PUSH2 0xFD PUSH2 0x127 SWAP4 CALLDATASIZE SWAP1 PUSH1 0x4 ADD PUSH2 0x4F4 JUMP JUMPDEST SWAP2 SWAP1 SWAP3 PUSH1 0x40 MLOAD SWAP7 DUP8 SWAP7 DUP8 MSTORE PUSH1 0x60 PUSH1 0x20 DUP9 ADD MSTORE PUSH1 0x60 DUP8 ADD SWAP2 PUSH2 0x716 JUMP JUMPDEST SWAP2 DUP5 DUP4 SUB PUSH1 0x40 DUP7 ADD MSTORE PUSH2 0x716 JUMP JUMPDEST SUB SWAP1 LOG1 STOP JUMPDEST PUSH0 DUP1 REVERT JUMPDEST CALLVALUE PUSH2 0x12C JUMPI PUSH1 0x40 CALLDATASIZE PUSH1 0x3 NOT ADD SLT PUSH2 0x12C JUMPI PUSH1 0x4 CALLDATALOAD PUSH1 0x1 PUSH1 0x1 PUSH1 0x40 SHL SUB DUP2 GT PUSH2 0x12C JUMPI PUSH2 0x160 SWAP1 CALLDATASIZE SWAP1 PUSH1 0x4 ADD PUSH2 0x4F4 JUMP JUMPDEST SWAP1 PUSH1 0x24 CALLDATALOAD DUP1 ISZERO ISZERO DUP2 SUB PUSH2 0x12C JUMPI PUSH1 0x20 SWAP3 PUSH2 0x179 SWAP3 PUSH2 0x1441 JUMP JUMPDEST PUSH1 0x40 MLOAD SWAP1 ISZERO ISZERO DUP2 MSTORE RETURN JUMPDEST PUSH1 0x60 CALLDATASIZE PUSH1 0x3 NOT ADD SLT PUSH2 0x12C JUMPI PUSH1 0x4 CALLDATALOAD PUSH1 0x1 PUSH1 0x1 PUSH1 0x40 SHL SUB DUP2 GT PUSH2 0x12C JUMPI PUSH2 0x1AE SWAP1 CALLDATASIZE SWAP1 PUSH1 0x4 ADD PUSH2 0x4F4 JUMP JUMPDEST PUSH1 0x24 CALLDATALOAD PUSH1 0x1 PUSH1 0x1 PUSH1 0x40 SHL SUB DUP2 GT PUSH2 0x12C JUMPI PUSH2 0x1CD SWAP1 CALLDATASIZE SWAP1 PUSH1 0x4 ADD PUSH2 0x4F4 JUMP JUMPDEST PUSH1 0x44 CALLDATALOAD SWAP4 SWAP2 PUSH1 0x1 PUSH1 0x1 PUSH1 0x40 SHL SUB DUP6 GT PUSH2 0x12C JUMPI PUSH2 0x1F1 PUSH2 0x1F9 SWAP6 CALLDATASIZE SWAP1 PUSH1 0x4 ADD PUSH2 0x4F4 JUMP JUMPDEST SWAP5 SWAP1 SWAP4 PUSH2 0x1253 JUMP JUMPDEST STOP JUMPDEST CALLVALUE PUSH2 0x12C JUMPI PUSH1 0x20 CALLDATASIZE PUSH1 0x3 NOT ADD SLT PUSH2 0x12C JUMPI PUSH1 0x4 CALLDATALOAD PUSH1 0x1 PUSH1 0x1 PUSH1 0x40 SHL SUB DUP2 GT PUSH2 0x12C JUMPI PUSH1 0x20 PUSH2 0x230 PUSH2 0x24A SWAP3 CALLDATASIZE SWAP1 PUSH1 0x4 ADD PUSH2 0x4F4 JUMP JUMPDEST SWAP2 SWAP1 DUP3 PUSH1 0x40 MLOAD SWAP4 DUP5 SWAP3 DUP4 CALLDATACOPY DUP2 ADD PUSH1 0x1 DUP2 MSTORE SUB ADD SWAP1 KECCAK256 PUSH2 0xB79 JUMP JUMPDEST PUSH1 0x40 MLOAD DUP1 SWAP2 PUSH1 0x20 DUP3 ADD PUSH1 0x20 DUP4 MSTORE DUP2 MLOAD DUP1 SWAP2 MSTORE PUSH1 0x20 PUSH1 0x40 DUP5 ADD SWAP3 ADD SWAP1 PUSH0 JUMPDEST DUP2 DUP2 LT PUSH2 0x275 JUMPI POP POP POP SUB SWAP1 RETURN JUMPDEST DUP3 MLOAD PUSH1 0x1 PUSH1 0x1 PUSH1 0xA0 SHL SUB AND DUP5 MSTORE DUP6 SWAP5 POP PUSH1 0x20 SWAP4 DUP5 ADD SWAP4 SWAP1 SWAP3 ADD SWAP2 PUSH1 0x1 ADD PUSH2 0x267 JUMP JUMPDEST PUSH1 0x20 CALLDATASIZE PUSH1 0x3 NOT ADD SLT PUSH2 0x12C JUMPI PUSH1 0x4 CALLDATALOAD PUSH1 0x1 PUSH1 0x1 PUSH1 0x40 SHL SUB DUP2 GT PUSH2 0x12C JUMPI PUSH2 0x2C5 PUSH2 0x1F9 SWAP2 CALLDATASIZE SWAP1 PUSH1 0x4 ADD PUSH2 0x4F4 JUMP JUMPDEST SWAP1 PUSH2 0x10E3 JUMP JUMPDEST CALLVALUE PUSH2 0x12C JUMPI PUSH1 0x20 CALLDATASIZE PUSH1 0x3 NOT ADD SLT PUSH2 0x12C JUMPI PUSH1 0x4 CALLDATALOAD PUSH1 0x1 PUSH1 0x1 PUSH1 0x40 SHL SUB DUP2 GT PUSH2 0x12C JUMPI PUSH1 0x20 DUP1 PUSH2 0x301 PUSH2 0x387 SWAP4 CALLDATASIZE SWAP1 PUSH1 0x4 ADD PUSH2 0x5D2 JUMP JUMPDEST PUSH1 0x40 MLOAD SWAP3 DUP2 DUP5 SWAP3 MLOAD SWAP2 DUP3 SWAP2 ADD DUP4 MCOPY DUP2 ADD PUSH1 0x3 DUP2 MSTORE SUB ADD SWAP1 KECCAK256 PUSH2 0x322 DUP2 PUSH2 0x63C JUMP JUMPDEST SWAP1 PUSH2 0x32F PUSH1 0x1 DUP3 ADD PUSH2 0x63C JUMP JUMPDEST PUSH1 0x1 DUP1 PUSH1 0xA0 SHL SUB PUSH1 0x2 DUP4 ADD SLOAD AND SWAP2 PUSH1 0x1 DUP1 PUSH1 0xA0 SHL SUB PUSH1 0x3 DUP3 ADD SLOAD AND PUSH1 0x1 DUP1 PUSH1 0xA0 SHL SUB PUSH1 0x4 DUP4 ADD SLOAD AND PUSH1 0x5 DUP4 ADD SLOAD SWAP1 PUSH1 0x6 DUP5 ADD SLOAD SWAP3 PUSH2 0x395 PUSH1 0x8 PUSH1 0x7 DUP8 ADD SLOAD SWAP7 ADD SLOAD SWAP7 PUSH1 0x40 MLOAD SWAP11 DUP12 SWAP11 PUSH2 0x120 DUP13 MSTORE PUSH2 0x120 DUP13 ADD SWAP1 PUSH2 0x6DC JUMP JUMPDEST SWAP1 DUP11 DUP3 SUB PUSH1 0x20 DUP13 ADD MSTORE PUSH2 0x6DC JUMP JUMPDEST SWAP7 PUSH1 0x40 DUP10 ADD MSTORE PUSH1 0x60 DUP9 ADD MSTORE PUSH1 0x80 DUP8 ADD MSTORE PUSH1 0xA0 DUP7 ADD MSTORE PUSH1 0xC0 DUP6 ADD MSTORE PUSH1 0xE0 DUP5 ADD MSTORE PUSH2 0x100 DUP4 ADD MSTORE SUB SWAP1 RETURN JUMPDEST PUSH1 0x80 CALLDATASIZE PUSH1 0x3 NOT ADD SLT PUSH2 0x12C JUMPI PUSH1 0x4 CALLDATALOAD PUSH1 0x1 PUSH1 0x1 PUSH1 0x40 SHL SUB DUP2 GT PUSH2 0x12C JUMPI PUSH2 0x3E9 SWAP1 CALLDATASIZE SWAP1 PUSH1 0x4 ADD PUSH2 0x5D2 JUMP JUMPDEST PUSH1 0x24 CALLDATALOAD PUSH1 0x1 PUSH1 0x1 PUSH1 0x40 SHL SUB DUP2 GT PUSH2 0x12C JUMPI PUSH2 0x408 SWAP1 CALLDATASIZE SWAP1 PUSH1 0x4 ADD PUSH2 0x5D2 JUMP JUMPDEST PUSH1 0x44 CALLDATALOAD SWAP2 PUSH1 0x1 PUSH1 0x1 PUSH1 0xA0 SHL SUB DUP4 AND DUP4 SUB PUSH2 0x12C JUMPI PUSH1 0x64 CALLDATALOAD SWAP3 PUSH1 0x1 PUSH1 0x1 PUSH1 0x40 SHL SUB DUP5 GT PUSH2 0x12C JUMPI PUSH2 0x43F PUSH2 0x1F9 SWAP5 CALLDATASIZE SWAP1 PUSH1 0x4 ADD PUSH2 0x4F4 JUMP JUMPDEST SWAP4 SWAP1 SWAP3 PUSH2 0xBCA JUMP JUMPDEST CALLVALUE PUSH2 0x12C JUMPI PUSH1 0xC0 CALLDATASIZE PUSH1 0x3 NOT ADD SLT PUSH2 0x12C JUMPI PUSH1 0x4 CALLDATALOAD PUSH1 0x1 PUSH1 0x1 PUSH1 0x40 SHL SUB DUP2 GT PUSH2 0x12C JUMPI PUSH2 0x477 SWAP1 CALLDATASIZE SWAP1 PUSH1 0x4 ADD PUSH2 0x4F4 JUMP JUMPDEST SWAP1 PUSH1 0x24 CALLDATALOAD PUSH1 0x1 PUSH1 0x1 PUSH1 0x40 SHL SUB DUP2 GT PUSH2 0x12C JUMPI CALLDATASIZE PUSH1 0x23 DUP3 ADD SLT ISZERO PUSH2 0x12C JUMPI DUP1 PUSH1 0x4 ADD CALLDATALOAD PUSH1 0x1 PUSH1 0x1 PUSH1 0x40 SHL SUB DUP2 GT PUSH2 0x12C JUMPI CALLDATASIZE PUSH1 0x24 DUP3 PUSH1 0x5 SHL DUP5 ADD ADD GT PUSH2 0x12C JUMPI PUSH1 0xA4 CALLDATALOAD SWAP3 PUSH1 0x1 PUSH1 0x1 PUSH1 0x40 SHL SUB DUP5 GT PUSH2 0x12C JUMPI PUSH1 0x20 SWAP5 PUSH2 0x4DC PUSH2 0x179 SWAP6 CALLDATASIZE SWAP1 PUSH1 0x4 ADD PUSH2 0x4F4 JUMP JUMPDEST SWAP5 SWAP1 SWAP4 PUSH1 0x84 CALLDATALOAD SWAP4 PUSH1 0x64 CALLDATALOAD SWAP4 PUSH1 0x24 PUSH1 0x44 CALLDATALOAD SWAP5 ADD SWAP2 PUSH2 0x736 JUMP JUMPDEST SWAP2 DUP2 PUSH1 0x1F DUP5 ADD SLT ISZERO PUSH2 0x12C JUMPI DUP3 CALLDATALOAD SWAP2 PUSH1 0x1 PUSH1 0x1 PUSH1 0x40 SHL SUB DUP4 GT PUSH2 0x12C JUMPI PUSH1 0x20 DUP4 DUP2 DUP7 ADD SWAP6 ADD ADD GT PUSH2 0x12C JUMPI JUMP JUMPDEST PUSH1 0xE0 DUP2 ADD SWAP1 DUP2 LT PUSH1 0x1 PUSH1 0x1 PUSH1 0x40 SHL SUB DUP3 GT OR PUSH2 0x53C JUMPI PUSH1 0x40 MSTORE JUMP JUMPDEST PUSH4 0x4E487B71 PUSH1 0xE0 SHL PUSH0 MSTORE PUSH1 0x41 PUSH1 0x4 MSTORE PUSH1 0x24 PUSH0 REVERT JUMPDEST PUSH2 0x120 DUP2 ADD SWAP1 DUP2 LT PUSH1 0x1 PUSH1 0x1 PUSH1 0x40 SHL SUB DUP3 GT OR PUSH2 0x53C JUMPI PUSH1 0x40 MSTORE JUMP JUMPDEST SWAP1 PUSH1 0x1F DUP1 NOT SWAP2 ADD AND DUP2 ADD SWAP1 DUP2 LT PUSH1 0x1 PUSH1 0x1 PUSH1 0x40 SHL SUB DUP3 GT OR PUSH2 0x53C JUMPI PUSH1 0x40 MSTORE JUMP JUMPDEST SWAP3 SWAP2 SWAP3 PUSH1 0x1 PUSH1 0x1 PUSH1 0x40 SHL SUB DUP3 GT PUSH2 0x53C JUMPI PUSH1 0x40 MLOAD SWAP2 PUSH2 0x5B6 PUSH1 0x1F DUP3 ADD PUSH1 0x1F NOT AND PUSH1 0x20 ADD DUP5 PUSH2 0x56C JUMP JUMPDEST DUP3 SWAP5 DUP2 DUP5 MSTORE DUP2 DUP4 ADD GT PUSH2 0x12C JUMPI DUP3 DUP2 PUSH1 0x20 SWAP4 DUP5 PUSH0 SWAP7 ADD CALLDATACOPY ADD ADD MSTORE JUMP JUMPDEST SWAP1 DUP1 PUSH1 0x1F DUP4 ADD SLT ISZERO PUSH2 0x12C JUMPI DUP2 PUSH1 0x20 PUSH2 0x5ED SWAP4 CALLDATALOAD SWAP2 ADD PUSH2 0x58D JUMP JUMPDEST SWAP1 JUMP JUMPDEST CALLDATALOAD SWAP1 PUSH1 0x1 PUSH1 0x1 PUSH1 0xA0 SHL SUB DUP3 AND DUP3 SUB PUSH2 0x12C JUMPI JUMP JUMPDEST SWAP1 PUSH1 0x1 DUP3 DUP2 SHR SWAP3 AND DUP1 ISZERO PUSH2 0x632 JUMPI JUMPDEST PUSH1 0x20 DUP4 LT EQ PUSH2 0x61E JUMPI JUMP JUMPDEST PUSH4 0x4E487B71 PUSH1 0xE0 SHL PUSH0 MSTORE PUSH1 0x22 PUSH1 0x4 MSTORE PUSH1 0x24 PUSH0 REVERT JUMPDEST SWAP2 PUSH1 0x7F AND SWAP2 PUSH2 0x613 JUMP JUMPDEST SWAP1 PUSH1 0x40 MLOAD SWAP2 DUP3 PUSH0 DUP3 SLOAD SWAP3 PUSH2 0x64F DUP5 PUSH2 0x604 JUMP JUMPDEST DUP1 DUP5 MSTORE SWAP4 PUSH1 0x1 DUP2 AND SWAP1 DUP2 ISZERO PUSH2 0x6BA JUMPI POP PUSH1 0x1 EQ PUSH2 0x676 JUMPI JUMPDEST POP PUSH2 0x674 SWAP3 POP SUB DUP4 PUSH2 0x56C JUMP JUMPDEST JUMP JUMPDEST SWAP1 POP PUSH0 SWAP3 SWAP2 SWAP3 MSTORE PUSH1 0x20 PUSH0 KECCAK256 SWAP1 PUSH0 SWAP2 JUMPDEST DUP2 DUP4 LT PUSH2 0x69E JUMPI POP POP SWAP1 PUSH1 0x20 PUSH2 0x674 SWAP3 DUP3 ADD ADD PUSH0 PUSH2 0x667 JUMP JUMPDEST PUSH1 0x20 SWAP2 SWAP4 POP DUP1 PUSH1 0x1 SWAP2 SLOAD DUP4 DUP6 DUP10 ADD ADD MSTORE ADD SWAP2 ADD SWAP1 SWAP2 DUP5 SWAP3 PUSH2 0x685 JUMP JUMPDEST SWAP1 POP PUSH1 0x20 SWAP3 POP PUSH2 0x674 SWAP5 SWAP2 POP PUSH1 0xFF NOT AND DUP3 DUP5 ADD MSTORE ISZERO ISZERO PUSH1 0x5 SHL DUP3 ADD ADD PUSH0 PUSH2 0x667 JUMP JUMPDEST DUP1 MLOAD DUP1 DUP4 MSTORE PUSH1 0x20 SWAP3 SWAP2 DUP2 SWAP1 DUP5 ADD DUP5 DUP5 ADD MCOPY PUSH0 DUP3 DUP3 ADD DUP5 ADD MSTORE PUSH1 0x1F ADD PUSH1 0x1F NOT AND ADD ADD SWAP1 JUMP JUMPDEST DUP2 DUP2 LT PUSH2 0x70B JUMPI POP POP JUMP JUMPDEST PUSH0 DUP2 SSTORE PUSH1 0x1 ADD PUSH2 0x700 JUMP JUMPDEST SWAP1 DUP1 PUSH1 0x20 SWAP4 SWAP3 DUP2 DUP5 MSTORE DUP5 DUP5 ADD CALLDATACOPY PUSH0 DUP3 DUP3 ADD DUP5 ADD MSTORE PUSH1 0x1F ADD PUSH1 0x1F NOT AND ADD ADD SWAP1 JUMP JUMPDEST SWAP3 SWAP7 SWAP6 SWAP9 SWAP8 SWAP5 SWAP1 SWAP4 SWAP2 SWAP9 DUP1 DUP3 ADD DUP1 DUP4 GT PUSH2 0xB65 JUMPI DUP4 SUB PUSH2 0xB58 JUMPI PUSH1 0x40 MLOAD SWAP2 PUSH2 0x75D DUP4 PUSH2 0x521 JUMP JUMPDEST PUSH2 0x768 CALLDATASIZE DUP8 DUP8 PUSH2 0x58D JUMP JUMPDEST DUP4 MSTORE PUSH1 0x20 DUP4 ADD SWAP4 CALLER DUP6 MSTORE PUSH1 0x1 PUSH1 0x1 PUSH1 0x40 SHL SUB DUP11 GT PUSH2 0x53C JUMPI DUP10 PUSH1 0x5 SHL DUP13 PUSH1 0x40 MLOAD SWAP2 PUSH2 0x796 PUSH1 0x20 DUP3 ADD DUP5 PUSH2 0x56C JUMP JUMPDEST DUP13 DUP4 MSTORE ADD PUSH1 0x20 DUP3 ADD CALLDATASIZE DUP3 GT PUSH2 0x12C JUMPI DUP15 SWAP1 JUMPDEST DUP3 DUP3 LT PUSH2 0xB40 JUMPI POP POP POP PUSH1 0x40 DUP6 ADD SWAP1 DUP2 MSTORE PUSH1 0x60 DUP6 ADD SWAP2 DUP3 MSTORE PUSH1 0x80 DUP6 ADD SWAP3 DUP4 MSTORE PUSH1 0xA0 DUP6 ADD SWAP4 DUP5 MSTORE PUSH2 0x7D9 CALLDATASIZE DUP11 DUP13 PUSH2 0x58D JUMP JUMPDEST SWAP6 PUSH1 0xC0 DUP7 ADD SWAP7 DUP8 MSTORE PUSH1 0x40 MLOAD DUP10 DUP10 DUP3 CALLDATACOPY PUSH1 0x20 DUP2 DUP12 DUP2 ADD PUSH1 0x2 DUP2 MSTORE SUB ADD SWAP1 KECCAK256 SWAP6 MLOAD DUP1 MLOAD SWAP1 PUSH1 0x1 PUSH1 0x1 PUSH1 0x40 SHL SUB DUP3 GT PUSH2 0x53C JUMPI DUP2 SWAP1 PUSH2 0x815 DUP10 SLOAD PUSH2 0x604 JUMP JUMPDEST PUSH1 0x1F DUP2 GT PUSH2 0xB10 JUMPI JUMPDEST POP PUSH1 0x20 SWAP1 PUSH1 0x1F DUP4 GT PUSH1 0x1 EQ PUSH2 0xAAD JUMPI PUSH0 SWAP3 PUSH2 0xAA2 JUMPI JUMPDEST POP POP DUP2 PUSH1 0x1 SHL SWAP2 PUSH0 NOT SWAP1 PUSH1 0x3 SHL SHR NOT AND OR DUP7 SSTORE JUMPDEST MLOAD PUSH1 0x1 DUP7 ADD DUP1 SLOAD PUSH1 0x1 PUSH1 0x1 PUSH1 0xA0 SHL SUB NOT AND PUSH1 0x1 PUSH1 0x1 PUSH1 0xA0 SHL SUB SWAP3 SWAP1 SWAP3 AND SWAP2 SWAP1 SWAP2 OR SWAP1 SSTORE MLOAD DUP1 MLOAD SWAP1 PUSH1 0x2 DUP7 ADD SWAP1 PUSH1 0x1 PUSH1 0x1 PUSH1 0x40 SHL SUB DUP4 GT PUSH2 0x53C JUMPI PUSH1 0x1 PUSH1 0x40 SHL DUP4 GT PUSH2 0x53C JUMPI PUSH1 0x20 SWAP1 DUP3 SLOAD DUP5 DUP5 SSTORE DUP1 DUP6 LT PUSH2 0xA87 JUMPI JUMPDEST POP ADD SWAP1 PUSH0 MSTORE PUSH1 0x20 PUSH0 KECCAK256 PUSH0 JUMPDEST DUP4 DUP2 LT PUSH2 0xA6A JUMPI POP POP POP POP SWAP1 PUSH1 0x6 SWAP4 SWAP3 SWAP2 MLOAD PUSH1 0x3 DUP5 ADD SSTORE MLOAD PUSH1 0x4 DUP4 ADD SSTORE MLOAD PUSH1 0x5 DUP3 ADD SSTORE ADD SWAP1 MLOAD DUP1 MLOAD SWAP1 PUSH1 0x1 PUSH1 0x1 PUSH1 0x40 SHL SUB DUP3 GT PUSH2 0x53C JUMPI DUP2 SWAP1 PUSH2 0x8EB DUP5 SLOAD PUSH2 0x604 JUMP JUMPDEST PUSH1 0x1F DUP2 GT PUSH2 0xA2F JUMPI JUMPDEST POP PUSH1 0x20 SWAP1 PUSH1 0x1F DUP4 GT PUSH1 0x1 EQ PUSH2 0x9CC JUMPI PUSH0 SWAP3 PUSH2 0x9C1 JUMPI JUMPDEST POP POP DUP2 PUSH1 0x1 SHL SWAP2 PUSH0 NOT SWAP1 PUSH1 0x3 SHL SHR NOT AND OR SWAP1 SSTORE JUMPDEST PUSH1 0x40 MLOAD SWAP5 DUP1 PUSH1 0x80 DUP8 ADD PUSH1 0x80 DUP9 MSTORE MSTORE PUSH1 0xA0 DUP7 ADD SWAP8 SWAP1 PUSH0 JUMPDEST DUP2 DUP2 LT PUSH2 0x995 JUMPI POP POP POP SWAP2 PUSH2 0x97F PUSH32 0xF52FCBC5CB218BAE54B5DEE4A14189098257CB16CC5649F3DAEFF8C73A56104D SWAP7 SWAP8 DUP7 SWAP6 SWAP4 PUSH2 0x98D SWAP6 CALLER PUSH1 0x20 DUP10 ADD MSTORE DUP8 DUP4 SUB PUSH1 0x40 DUP10 ADD MSTORE PUSH2 0x716 JUMP JUMPDEST SWAP2 DUP5 DUP4 SUB PUSH1 0x60 DUP7 ADD MSTORE PUSH2 0x716 JUMP JUMPDEST SUB SWAP1 LOG1 PUSH1 0x1 SWAP1 JUMP JUMPDEST SWAP2 SWAP9 SWAP1 SWAP2 SWAP1 PUSH1 0x1 SWAP1 PUSH1 0x20 SWAP1 DUP2 SWAP1 PUSH1 0x1 PUSH1 0x1 PUSH1 0xA0 SHL SUB PUSH2 0x9B3 DUP15 PUSH2 0x5F0 JUMP JUMPDEST AND DUP2 MSTORE ADD SWAP11 ADD SWAP3 SWAP2 ADD PUSH2 0x934 JUMP JUMPDEST ADD MLOAD SWAP1 POP PUSH0 DUP1 PUSH2 0x90A JUMP JUMPDEST PUSH0 DUP6 DUP2 MSTORE DUP3 DUP2 KECCAK256 SWAP4 POP PUSH1 0x1F NOT DUP6 AND SWAP1 JUMPDEST DUP2 DUP2 LT PUSH2 0xA17 JUMPI POP SWAP1 DUP5 PUSH1 0x1 SWAP6 SWAP5 SWAP4 SWAP3 LT PUSH2 0x9FF JUMPI JUMPDEST POP POP POP DUP2 SHL ADD SWAP1 SSTORE PUSH2 0x91E JUMP JUMPDEST ADD MLOAD PUSH0 NOT PUSH1 0xF8 DUP5 PUSH1 0x3 SHL AND SHR NOT AND SWAP1 SSTORE PUSH0 DUP1 DUP1 PUSH2 0x9F2 JUMP JUMPDEST SWAP3 SWAP4 PUSH1 0x20 PUSH1 0x1 DUP2 SWAP3 DUP8 DUP7 ADD MLOAD DUP2 SSTORE ADD SWAP6 ADD SWAP4 ADD PUSH2 0x9DC JUMP JUMPDEST PUSH2 0xA5A SWAP1 DUP6 PUSH0 MSTORE PUSH1 0x20 PUSH0 KECCAK256 PUSH1 0x1F DUP6 ADD PUSH1 0x5 SHR DUP2 ADD SWAP2 PUSH1 0x20 DUP7 LT PUSH2 0xA60 JUMPI JUMPDEST PUSH1 0x1F ADD PUSH1 0x5 SHR ADD SWAP1 PUSH2 0x700 JUMP JUMPDEST PUSH0 PUSH2 0x8F4 JUMP JUMPDEST SWAP1 SWAP2 POP DUP2 SWAP1 PUSH2 0xA4D JUMP JUMPDEST DUP3 MLOAD PUSH1 0x1 PUSH1 0x1 PUSH1 0xA0 SHL SUB AND DUP2 DUP4 ADD SSTORE PUSH1 0x20 SWAP1 SWAP3 ADD SWAP2 PUSH1 0x1 ADD PUSH2 0x8A8 JUMP JUMPDEST PUSH2 0xA9C SWAP1 DUP5 PUSH0 MSTORE DUP6 DUP5 PUSH0 KECCAK256 SWAP2 DUP3 ADD SWAP2 ADD PUSH2 0x700 JUMP JUMPDEST PUSH0 PUSH2 0x89D JUMP JUMPDEST ADD MLOAD SWAP1 POP PUSH0 DUP1 PUSH2 0x834 JUMP JUMPDEST PUSH0 DUP11 DUP2 MSTORE DUP3 DUP2 KECCAK256 SWAP4 POP PUSH1 0x1F NOT DUP6 AND SWAP1 JUMPDEST DUP2 DUP2 LT PUSH2 0xAF8 JUMPI POP SWAP1 DUP5 PUSH1 0x1 SWAP6 SWAP5 SWAP4 SWAP3 LT PUSH2 0xAE0 JUMPI JUMPDEST POP POP POP DUP2 SHL ADD DUP7 SSTORE PUSH2 0x848 JUMP JUMPDEST ADD MLOAD PUSH0 NOT PUSH1 0xF8 DUP5 PUSH1 0x3 SHL AND SHR NOT AND SWAP1 SSTORE PUSH0 DUP1 DUP1 PUSH2 0xAD3 JUMP JUMPDEST SWAP3 SWAP4 PUSH1 0x20 PUSH1 0x1 DUP2 SWAP3 DUP8 DUP7 ADD MLOAD DUP2 SSTORE ADD SWAP6 ADD SWAP4 ADD PUSH2 0xABD JUMP JUMPDEST PUSH2 0xB3A SWAP1 DUP11 PUSH0 MSTORE PUSH1 0x20 PUSH0 KECCAK256 PUSH1 0x1F DUP6 ADD PUSH1 0x5 SHR DUP2 ADD SWAP2 PUSH1 0x20 DUP7 LT PUSH2 0xA60 JUMPI PUSH1 0x1F ADD PUSH1 0x5 SHR ADD SWAP1 PUSH2 0x700 JUMP JUMPDEST PUSH0 PUSH2 0x81E JUMP JUMPDEST PUSH1 0x20 DUP1 SWAP2 PUSH2 0xB4D DUP5 PUSH2 0x5F0 JUMP JUMPDEST DUP2 MSTORE ADD SWAP2 ADD SWAP1 PUSH2 0x7A8 JUMP JUMPDEST POP PUSH0 SWAP9 POP POP POP POP POP POP POP POP JUMP JUMPDEST PUSH4 0x4E487B71 PUSH1 0xE0 SHL PUSH0 MSTORE PUSH1 0x11 PUSH1 0x4 MSTORE PUSH1 0x24 PUSH0 REVERT JUMPDEST SWAP1 PUSH1 0x40 MLOAD SWAP2 DUP3 DUP2 SLOAD SWAP2 DUP3 DUP3 MSTORE PUSH1 0x20 DUP3 ADD SWAP1 PUSH0 MSTORE PUSH1 0x20 PUSH0 KECCAK256 SWAP3 PUSH0 JUMPDEST DUP2 DUP2 LT PUSH2 0xBA8 JUMPI POP POP PUSH2 0x674 SWAP3 POP SUB DUP4 PUSH2 0x56C JUMP JUMPDEST DUP5 SLOAD PUSH1 0x1 PUSH1 0x1 PUSH1 0xA0 SHL SUB AND DUP4 MSTORE PUSH1 0x1 SWAP5 DUP6 ADD SWAP5 DUP8 SWAP5 POP PUSH1 0x20 SWAP1 SWAP4 ADD SWAP3 ADD PUSH2 0xB93 JUMP JUMPDEST SWAP2 SWAP3 SWAP4 SWAP5 SWAP1 PUSH0 SWAP5 PUSH1 0x60 PUSH1 0xC0 PUSH1 0x40 MLOAD PUSH2 0xBE1 DUP2 PUSH2 0x521 JUMP JUMPDEST DUP3 DUP2 MSTORE PUSH0 PUSH1 0x20 DUP3 ADD MSTORE DUP3 PUSH1 0x40 DUP3 ADD MSTORE PUSH0 DUP4 DUP3 ADD MSTORE PUSH0 PUSH1 0x80 DUP3 ADD MSTORE PUSH0 PUSH1 0xA0 DUP3 ADD MSTORE ADD MSTORE PUSH1 0x40 MLOAD SWAP7 DUP5 MLOAD SWAP8 PUSH1 0x20 DUP2 DUP2 DUP9 ADD SWAP11 DUP1 DUP13 DUP4 MCOPY DUP2 ADD PUSH1 0x2 DUP2 MSTORE SUB ADD SWAP1 KECCAK256 SWAP5 PUSH1 0x40 MLOAD SWAP6 PUSH2 0xC2D DUP8 PUSH2 0x521 JUMP JUMPDEST PUSH2 0xC36 DUP2 PUSH2 0x63C JUMP JUMPDEST DUP8 MSTORE PUSH1 0x1 DUP2 ADD SLOAD PUSH1 0x1 PUSH1 0x1 PUSH1 0xA0 SHL SUB AND PUSH1 0x20 DUP9 ADD SWAP1 DUP2 MSTORE SWAP10 DUP8 SWAP1 PUSH2 0xCB7 SWAP1 PUSH2 0xC60 PUSH1 0x2 DUP6 ADD PUSH2 0xB79 JUMP JUMPDEST PUSH1 0x40 DUP5 ADD MSTORE PUSH1 0x20 PUSH1 0x3 DUP6 ADD SLOAD SWAP6 PUSH1 0x60 DUP6 ADD SWAP7 DUP8 MSTORE PUSH2 0xC98 PUSH1 0x6 PUSH1 0x4 DUP9 ADD SLOAD SWAP8 PUSH1 0x80 DUP9 ADD SWAP9 DUP10 MSTORE PUSH1 0xA0 PUSH1 0x5 DUP3 ADD SLOAD SWAP9 ADD SWAP8 DUP9 MSTORE ADD PUSH2 0x63C JUMP JUMPDEST PUSH1 0xC0 DUP14 ADD MSTORE PUSH1 0x40 MLOAD SWAP3 DUP4 SWAP2 MLOAD DUP1 SWAP2 DUP4 MCOPY DUP2 ADD PUSH1 0x1 DUP2 MSTORE SUB ADD SWAP1 KECCAK256 PUSH2 0xB79 JUMP JUMPDEST SWAP8 PUSH0 SWAP11 DUP10 MLOAD SWAP12 JUMPDEST DUP13 DUP2 LT ISZERO PUSH2 0xCF5 JUMPI PUSH1 0x5 DUP2 SWAP1 SHL DUP12 ADD PUSH1 0x20 ADD MLOAD PUSH1 0x1 PUSH1 0x1 PUSH1 0xA0 SHL SUB DUP14 DUP2 AND SWAP2 AND EQ PUSH2 0xCEC JUMPI JUMPDEST PUSH1 0x1 ADD PUSH2 0xCBE JUMP JUMPDEST PUSH1 0x1 SWAP2 POP PUSH2 0xCE4 JUMP JUMPDEST POP SWAP2 SWAP4 SWAP6 SWAP8 SWAP11 POP SWAP2 SWAP4 SWAP6 SWAP9 SWAP8 POP ISZERO DUP1 PUSH2 0x1091 JUMPI ISZERO PUSH1 0x1 EQ PUSH2 0x1084 JUMPI JUMPDEST MLOAD SWAP9 PUSH1 0x1 DUP1 PUSH1 0xA0 SHL SUB SWAP1 MLOAD AND SWAP3 MLOAD SWAP2 MLOAD SWAP1 MLOAD SWAP2 PUSH1 0x40 MLOAD SWAP10 PUSH2 0xD31 DUP12 PUSH2 0x550 JUMP JUMPDEST DUP11 MSTORE PUSH1 0x20 DUP11 ADD SWAP4 DUP9 DUP6 MSTORE PUSH1 0x40 DUP12 ADD MSTORE PUSH1 0x1 DUP1 PUSH1 0xA0 SHL SUB DUP8 AND PUSH1 0x60 DUP12 ADD MSTORE CALLER PUSH1 0x80 DUP12 ADD MSTORE PUSH1 0xA0 DUP11 ADD MSTORE PUSH1 0xC0 DUP10 ADD MSTORE PUSH1 0xE0 DUP9 ADD MSTORE PUSH0 PUSH2 0x100 DUP9 ADD MSTORE PUSH1 0x40 MLOAD PUSH1 0x20 DUP2 DUP8 MLOAD DUP1 DUP4 DUP11 ADD DUP4 MCOPY DUP2 ADD PUSH1 0x3 DUP2 MSTORE SUB ADD SWAP1 KECCAK256 SWAP1 DUP8 MLOAD DUP1 MLOAD SWAP1 PUSH1 0x1 PUSH1 0x1 PUSH1 0x40 SHL SUB DUP3 GT PUSH2 0x53C JUMPI DUP2 SWAP1 PUSH2 0xDA2 DUP6 SLOAD PUSH2 0x604 JUMP JUMPDEST PUSH1 0x1F DUP2 GT PUSH2 0x1054 JUMPI JUMPDEST POP PUSH1 0x20 SWAP1 PUSH1 0x1F DUP4 GT PUSH1 0x1 EQ PUSH2 0xFF1 JUMPI PUSH0 SWAP3 PUSH2 0xFE6 JUMPI JUMPDEST POP POP DUP2 PUSH1 0x1 SHL SWAP2 PUSH0 NOT SWAP1 PUSH1 0x3 SHL SHR NOT AND OR DUP3 SSTORE JUMPDEST MLOAD SWAP7 DUP8 MLOAD PUSH1 0x1 PUSH1 0x1 PUSH1 0x40 SHL SUB DUP2 GT PUSH2 0x53C JUMPI PUSH2 0xDF4 PUSH1 0x1 DUP5 ADD SLOAD PUSH2 0x604 JUMP JUMPDEST PUSH1 0x1F DUP2 GT PUSH2 0xFB3 JUMPI JUMPDEST POP PUSH1 0x20 PUSH1 0x1F DUP3 GT PUSH1 0x1 EQ PUSH2 0xF1B JUMPI PUSH2 0xF0B SWAP6 SWAP5 SWAP4 SWAP3 DUP3 PUSH1 0x8 SWAP4 PUSH2 0x100 SWAP4 PUSH32 0xA82FDB4B07891794FE0BCDE99C7D434289FF9320FF626FF65B07A00220255777 SWAP13 SWAP14 PUSH0 SWAP3 PUSH2 0xF10 JUMPI JUMPDEST POP POP DUP2 PUSH1 0x1 SHL SWAP2 PUSH0 NOT SWAP1 PUSH1 0x3 SHL SHR NOT AND OR PUSH1 0x1 DUP6 ADD SSTORE JUMPDEST PUSH1 0x40 DUP2 DUP2 ADD MLOAD PUSH1 0x2 DUP7 ADD DUP1 SLOAD PUSH1 0x1 PUSH1 0x1 PUSH1 0xA0 SHL SUB NOT SWAP1 DUP2 AND PUSH1 0x1 PUSH1 0x1 PUSH1 0xA0 SHL SUB SWAP4 DUP5 AND OR SWAP1 SWAP2 SSTORE PUSH1 0x60 DUP5 ADD MLOAD PUSH1 0x3 DUP9 ADD DUP1 SLOAD DUP4 AND SWAP2 DUP5 AND SWAP2 SWAP1 SWAP2 OR SWAP1 SSTORE PUSH1 0x80 DUP1 DUP6 ADD MLOAD PUSH1 0x4 DUP10 ADD DUP1 SLOAD SWAP1 SWAP4 AND SWAP1 DUP5 AND OR SWAP1 SWAP2 SSTORE PUSH1 0xA0 DUP5 ADD MLOAD PUSH1 0x5 DUP9 ADD SSTORE PUSH1 0xC0 DUP5 ADD MLOAD PUSH1 0x6 DUP9 ADD SSTORE PUSH1 0xE0 DUP5 ADD MLOAD PUSH1 0x7 DUP9 ADD SSTORE SWAP4 SWAP1 SWAP3 ADD MLOAD SWAP4 SWAP1 SWAP5 ADD SWAP3 SWAP1 SWAP3 SSTORE SWAP2 MLOAD SWAP6 AND DUP6 MSTORE PUSH1 0x20 DUP6 ADD DUP2 SWAP1 MSTORE SWAP4 SWAP5 DUP6 SWAP5 PUSH2 0xEF7 SWAP2 SWAP1 DUP7 ADD SWAP1 PUSH2 0x6DC JUMP JUMPDEST SWAP2 CALLVALUE PUSH1 0x40 DUP7 ADD MSTORE DUP5 DUP4 SUB PUSH1 0x60 DUP7 ADD MSTORE PUSH2 0x716 JUMP JUMPDEST SUB SWAP1 LOG1 JUMP JUMPDEST ADD MLOAD SWAP1 POP PUSH0 DUP1 PUSH2 0xE44 JUMP JUMPDEST PUSH1 0x1 DUP5 ADD PUSH0 MSTORE DUP1 PUSH0 KECCAK256 SWAP10 PUSH0 JUMPDEST PUSH1 0x1F NOT DUP5 AND DUP2 LT PUSH2 0xF9B JUMPI POP SWAP3 PUSH1 0x1 DUP4 PUSH32 0xA82FDB4B07891794FE0BCDE99C7D434289FF9320FF626FF65B07A00220255777 SWAP12 SWAP13 PUSH2 0x100 SWAP5 PUSH2 0xF0B SWAP11 SWAP10 SWAP9 SWAP8 PUSH1 0x8 SWAP8 PUSH1 0x1F NOT DUP2 AND LT PUSH2 0xF83 JUMPI JUMPDEST POP POP POP DUP2 SHL ADD PUSH1 0x1 DUP6 ADD SSTORE PUSH2 0xE5B JUMP JUMPDEST ADD MLOAD PUSH0 NOT PUSH1 0xF8 DUP5 PUSH1 0x3 SHL AND SHR NOT AND SWAP1 SSTORE PUSH0 DUP1 DUP1 PUSH2 0xF73 JUMP JUMPDEST DUP3 DUP3 ADD MLOAD DUP13 SSTORE PUSH1 0x1 SWAP1 SWAP12 ADD SWAP11 PUSH1 0x20 SWAP3 DUP4 ADD SWAP3 ADD PUSH2 0xF27 JUMP JUMPDEST PUSH2 0xFE0 SWAP1 PUSH1 0x1 DUP6 ADD PUSH0 MSTORE PUSH1 0x20 PUSH0 KECCAK256 PUSH1 0x1F DUP5 ADD PUSH1 0x5 SHR DUP2 ADD SWAP2 PUSH1 0x20 DUP6 LT PUSH2 0xA60 JUMPI PUSH1 0x1F ADD PUSH1 0x5 SHR ADD SWAP1 PUSH2 0x700 JUMP JUMPDEST PUSH0 PUSH2 0xDFD JUMP JUMPDEST ADD MLOAD SWAP1 POP PUSH0 DUP1 PUSH2 0xDC1 JUMP JUMPDEST PUSH0 DUP7 DUP2 MSTORE DUP3 DUP2 KECCAK256 SWAP4 POP PUSH1 0x1F NOT DUP6 AND SWAP1 JUMPDEST DUP2 DUP2 LT PUSH2 0x103C JUMPI POP SWAP1 DUP5 PUSH1 0x1 SWAP6 SWAP5 SWAP4 SWAP3 LT PUSH2 0x1024 JUMPI JUMPDEST POP POP POP DUP2 SHL ADD DUP3 SSTORE PUSH2 0xDD5 JUMP JUMPDEST ADD MLOAD PUSH0 NOT PUSH1 0xF8 DUP5 PUSH1 0x3 SHL AND SHR NOT AND SWAP1 SSTORE PUSH0 DUP1 DUP1 PUSH2 0x1017 JUMP JUMPDEST SWAP3 SWAP4 PUSH1 0x20 PUSH1 0x1 DUP2 SWAP3 DUP8 DUP7 ADD MLOAD DUP2 SSTORE ADD SWAP6 ADD SWAP4 ADD PUSH2 0x1001 JUMP JUMPDEST PUSH2 0x107E SWAP1 DUP7 PUSH0 MSTORE PUSH1 0x20 PUSH0 KECCAK256 PUSH1 0x1F DUP6 ADD PUSH1 0x5 SHR DUP2 ADD SWAP2 PUSH1 0x20 DUP7 LT PUSH2 0xA60 JUMPI PUSH1 0x1F ADD PUSH1 0x5 SHR ADD SWAP1 PUSH2 0x700 JUMP JUMPDEST PUSH0 PUSH2 0xDAB JUMP JUMPDEST DUP4 MLOAD CALLVALUE LT ISZERO PUSH2 0xD11 JUMPI PUSH0 DUP1 REVERT JUMPDEST POP POP POP POP POP POP POP POP POP SWAP1 POP JUMP JUMPDEST PUSH1 0x40 MLOAD SWAP1 PUSH2 0x10AB DUP3 PUSH2 0x550 JUMP JUMPDEST PUSH0 PUSH2 0x100 DUP4 PUSH1 0x60 DUP2 MSTORE PUSH1 0x60 PUSH1 0x20 DUP3 ADD MSTORE DUP3 PUSH1 0x40 DUP3 ADD MSTORE DUP3 PUSH1 0x60 DUP3 ADD MSTORE DUP3 PUSH1 0x80 DUP3 ADD MSTORE DUP3 PUSH1 0xA0 DUP3 ADD MSTORE DUP3 PUSH1 0xC0 DUP3 ADD MSTORE DUP3 PUSH1 0xE0 DUP3 ADD MSTORE ADD MSTORE JUMP JUMPDEST PUSH1 0x20 SWAP1 PUSH2 0x10EE PUSH2 0x109E JUMP JUMPDEST POP DUP3 PUSH1 0x40 MLOAD SWAP4 DUP5 SWAP3 DUP4 CALLDATACOPY DUP2 ADD PUSH1 0x3 DUP2 MSTORE SUB ADD SWAP1 KECCAK256 PUSH1 0x40 MLOAD SWAP1 PUSH2 0x110F DUP3 PUSH2 0x550 JUMP JUMPDEST PUSH2 0x1118 DUP2 PUSH2 0x63C JUMP JUMPDEST DUP3 MSTORE PUSH2 0x1126 PUSH1 0x1 DUP3 ADD PUSH2 0x63C JUMP JUMPDEST PUSH1 0x20 DUP4 ADD MSTORE PUSH1 0x2 DUP2 ADD SLOAD PUSH1 0x1 PUSH1 0x1 PUSH1 0xA0 SHL SUB SWAP1 DUP2 AND PUSH1 0x40 DUP5 ADD DUP2 SWAP1 MSTORE PUSH1 0x3 DUP4 ADD SLOAD DUP3 AND PUSH1 0x60 DUP6 ADD DUP2 SWAP1 MSTORE PUSH1 0x4 DUP5 ADD SLOAD SWAP1 SWAP3 AND PUSH1 0x80 DUP6 ADD DUP2 SWAP1 MSTORE PUSH1 0x5 DUP5 ADD SLOAD PUSH1 0xA0 DUP7 ADD MSTORE PUSH1 0x6 DUP5 ADD SLOAD PUSH1 0xC0 DUP7 ADD DUP2 SWAP1 MSTORE PUSH1 0x7 DUP6 ADD SLOAD PUSH1 0xE0 DUP8 ADD SWAP1 DUP2 MSTORE PUSH1 0x8 SWAP1 SWAP6 ADD SLOAD PUSH2 0x100 SWAP1 SWAP7 ADD DUP7 DUP2 MSTORE SWAP4 SWAP6 SWAP1 SWAP3 SWAP2 SWAP1 PUSH1 0x1 EQ PUSH2 0x11F2 JUMPI CALLER SUB PUSH2 0x12C JUMPI PUSH0 DUP1 SWAP4 SWAP3 DUP2 SWAP4 SWAP3 PUSH1 0x1 DUP4 SWAP5 MSTORE DUP3 DUP3 ISZERO PUSH2 0x11E9 JUMPI JUMPDEST CALL ISZERO PUSH2 0x11D5 JUMPI PUSH0 DUP1 DUP1 SWAP4 DUP2 SWAP4 MLOAD SWAP1 DUP3 DUP3 ISZERO PUSH2 0x11E0 JUMPI JUMPDEST CALL ISZERO PUSH2 0x11D5 JUMPI JUMP JUMPDEST PUSH1 0x40 MLOAD RETURNDATASIZE PUSH0 DUP3 RETURNDATACOPY RETURNDATASIZE SWAP1 REVERT JUMPDEST POP PUSH2 0x8FC PUSH2 0x11CD JUMP JUMPDEST POP PUSH2 0x8FC PUSH2 0x11B7 JUMP JUMPDEST POP POP POP POP POP POP JUMP JUMPDEST DUP1 SLOAD SWAP1 PUSH1 0x1 PUSH1 0x40 SHL DUP3 LT ISZERO PUSH2 0x53C JUMPI PUSH1 0x1 DUP3 ADD DUP1 DUP3 SSTORE DUP3 LT ISZERO PUSH2 0x123F JUMPI PUSH0 MSTORE PUSH1 0x20 PUSH0 KECCAK256 ADD SWAP1 PUSH1 0x1 DUP1 PUSH1 0xA0 SHL SUB AND PUSH12 0xFFFFFFFFFFFFFFFFFFFFFFFF PUSH1 0xA0 SHL DUP3 SLOAD AND OR SWAP1 SSTORE JUMP JUMPDEST PUSH4 0x4E487B71 PUSH1 0xE0 SHL PUSH0 MSTORE PUSH1 0x32 PUSH1 0x4 MSTORE PUSH1 0x24 PUSH0 REVERT JUMPDEST SWAP5 SWAP2 SWAP3 SWAP1 PUSH2 0x125F PUSH2 0x109E JUMP JUMPDEST POP PUSH1 0x20 PUSH0 SWAP7 DUP3 PUSH1 0x40 MLOAD SWAP4 DUP5 SWAP3 DUP4 CALLDATACOPY DUP2 ADD PUSH1 0x3 DUP2 MSTORE SUB ADD SWAP1 KECCAK256 SWAP4 PUSH1 0x40 MLOAD SWAP4 PUSH2 0x1285 DUP6 PUSH2 0x550 JUMP JUMPDEST PUSH2 0x128E DUP7 PUSH2 0x63C JUMP JUMPDEST DUP6 MSTORE PUSH2 0x129C PUSH1 0x1 DUP8 ADD PUSH2 0x63C JUMP JUMPDEST PUSH1 0x20 DUP7 ADD MSTORE PUSH1 0x2 DUP7 ADD SLOAD PUSH1 0x1 PUSH1 0x1 PUSH1 0xA0 SHL SUB SWAP1 DUP2 AND PUSH1 0x40 DUP8 ADD MSTORE PUSH1 0x3 DUP8 ADD SLOAD DUP2 AND PUSH1 0x60 DUP8 ADD MSTORE PUSH1 0x4 DUP8 ADD SLOAD AND PUSH1 0x80 DUP7 ADD DUP2 SWAP1 MSTORE PUSH1 0x5 DUP8 ADD SLOAD PUSH1 0xA0 DUP8 ADD MSTORE PUSH1 0x6 DUP8 ADD SLOAD PUSH1 0xC0 DUP8 ADD MSTORE PUSH1 0x7 DUP8 ADD SLOAD PUSH1 0xE0 DUP8 ADD MSTORE PUSH1 0x8 SWAP1 SWAP7 ADD SLOAD PUSH2 0x100 DUP7 ADD MSTORE DUP5 MLOAD PUSH2 0x1304 SWAP1 PUSH2 0x1476 JUMP JUMPDEST ISZERO PUSH2 0x1438 JUMPI PUSH0 SLOAD PUSH1 0x40 MLOAD PUSH4 0x7EC55A41 PUSH1 0xE1 SHL DUP2 MSTORE PUSH1 0x4 DUP2 ADD DUP9 SWAP1 MSTORE PUSH1 0x1 PUSH1 0x1 PUSH1 0xA0 SHL SUB SWAP1 SWAP2 AND SWAP2 SWAP1 PUSH1 0x20 DUP2 PUSH1 0x24 DUP2 DUP7 GAS STATICCALL SWAP1 DUP2 ISZERO PUSH2 0x11D5 JUMPI PUSH0 SWAP2 PUSH2 0x13FD JUMPI JUMPDEST POP ISZERO PUSH2 0x1379 JUMPI JUMPDEST POP POP POP POP POP PUSH1 0x20 DUP1 PUSH2 0x674 SWAP5 PUSH1 0x2 SWAP4 MLOAD SWAP1 POP PUSH1 0x40 MLOAD SWAP3 DUP2 DUP5 SWAP3 MLOAD SWAP2 DUP3 SWAP2 ADD DUP4 MCOPY DUP2 ADD DUP5 DUP2 MSTORE SUB ADD SWAP1 KECCAK256 ADD PUSH2 0x11FA JUMP JUMPDEST DUP2 EXTCODESIZE ISZERO PUSH2 0x12C JUMPI PUSH0 SWAP4 PUSH2 0x13C0 PUSH2 0x13AE SWAP5 PUSH1 0x40 MLOAD SWAP8 DUP9 SWAP7 DUP8 SWAP6 DUP7 SWAP6 PUSH4 0xD6192E29 PUSH1 0xE0 SHL DUP8 MSTORE PUSH1 0x40 PUSH1 0x4 DUP9 ADD MSTORE PUSH1 0x44 DUP8 ADD SWAP2 PUSH2 0x716 JUMP JUMPDEST DUP5 DUP2 SUB PUSH1 0x3 NOT ADD PUSH1 0x24 DUP7 ADD MSTORE SWAP2 PUSH2 0x716 JUMP JUMPDEST SUB SWAP2 CALLVALUE SWAP1 GAS CALL DUP1 ISZERO PUSH2 0x11D5 JUMPI PUSH2 0x674 SWAP5 PUSH1 0x2 SWAP4 PUSH1 0x20 SWAP4 DUP5 SWAP4 PUSH2 0x13E8 JUMPI JUMPDEST DUP3 SWAP8 POP DUP2 SWAP6 POP PUSH2 0x134A JUMP JUMPDEST PUSH2 0x13F5 SWAP2 SWAP3 POP PUSH0 SWAP1 PUSH2 0x56C JUMP JUMPDEST PUSH0 SWAP1 PUSH0 PUSH2 0x13DD JUMP JUMPDEST SWAP1 POP PUSH1 0x20 DUP2 RETURNDATASIZE PUSH1 0x20 GT PUSH2 0x1430 JUMPI JUMPDEST DUP2 PUSH2 0x1418 PUSH1 0x20 SWAP4 DUP4 PUSH2 0x56C JUMP JUMPDEST DUP2 ADD SUB SLT PUSH2 0x12C JUMPI MLOAD DUP1 ISZERO ISZERO DUP2 SUB PUSH2 0x12C JUMPI PUSH0 PUSH2 0x1343 JUMP JUMPDEST RETURNDATASIZE SWAP2 POP PUSH2 0x140B JUMP JUMPDEST POP POP POP POP POP POP POP JUMP JUMPDEST SWAP2 ISZERO ISZERO PUSH1 0x1 EQ PUSH2 0x1451 JUMPI POP POP PUSH0 SWAP1 JUMP JUMPDEST PUSH1 0x20 PUSH2 0x1471 SWAP3 DUP3 PUSH1 0x40 MLOAD SWAP4 DUP5 SWAP3 DUP4 CALLDATACOPY DUP2 ADD PUSH1 0x1 DUP2 MSTORE SUB ADD SWAP1 KECCAK256 CALLER SWAP1 PUSH2 0x11FA JUMP JUMPDEST PUSH1 0x1 SWAP1 JUMP JUMPDEST MLOAD ISZERO PUSH2 0x1481 JUMPI PUSH1 0x1 SWAP1 JUMP JUMPDEST PUSH0 SWAP1 JUMP INVALID LOG2 PUSH5 0x6970667358 0x22 SLT KECCAK256 RETURNDATASIZE 0xB2 0x2D RETURN 0xD6 0xB6 SELFDESTRUCT 0xD6 0xD4 DUP14 0xD7 0x26 SWAP9 PUSH26 0xF4A5CD130404D5B2DCC7F498376B8F1CA8164736F6C63430008 BYTE STOP CALLER "
				},
				"gasEstimates": {
					"creation": {
						"codeDepositCost": "1061400",
						"executionCost": "infinite",
						"totalCost": "infinite"
					},
					"external": {
						"CheckCTI(string)": "infinite",
						"ConsumerSelectDelegator(string,string,address,string)": "infinite",
						"GetAssignmentVerified(string)": "infinite",
						"ProducerSelectDelegator(string,address[],uint256,uint256,uint256,string)": "infinite",
						"UploadCTI(string,address,string)": "infinite",
						"VerifyAssignment(string,bool)": "infinite",
						"consumerUpgrade(string,string,string)": "infinite",
						"tx_list(string)": "infinite"
					},
					"internal": {
						"get(string memory)": "infinite",
						"isStringEqual(string memory,string memory)": "infinite"
					}
				},
				"methodIdentifiers": {
					"CheckCTI(string)": "dc7e701e",
					"ConsumerSelectDelegator(string,string,address,string)": "b3a1c864",
					"GetAssignmentVerified(string)": "e2599078",
					"ProducerSelectDelegator(string,address[],uint256,uint256,uint256,string)": "82da59f2",
					"UploadCTI(string,address,string)": "fa4a3287",
					"VerifyAssignment(string,bool)": "f26d9918",
					"consumerUpgrade(string,string,string)": "ea7937c2",
					"tx_list(string)": "cf99f51d"
				}
			},
			"storageLayout": {
				"storage": [
					{
						"astId": 103,
						"contract": "ctiIncentiveDedupRegistry/ThreatTest.sol:AssignmentContract",
						"label": "delegator_contract",
						"offset": 0,
						"slot": "0",
						"type": "t_contract(DelegatorContract)746"
					},
					{
						"astId": 155,
						"contract": "ctiIncentiveDedupRegistry/ThreatTest.sol:AssignmentContract",
						"label": "record",
						"offset": 0,
						"slot": "1",
						"type": "t_mapping(t_string_memory_ptr,t_array(t_address)dyn_storage)"
					},
					{
						"astId": 160,
						"contract": "ctiIncentiveDedupRegistry/ThreatTest.sol:AssignmentContract",
						"label": "assignment_list",
						"offset": 0,
						"slot": "2",
						"type": "t_mapping(t_string_memory_ptr,t_struct(Assignment)131_storage)"
					},
					{
						"astId": 165,
						"contract": "ctiIncentiveDedupRegistry/ThreatTest.sol:AssignmentContract",
						"label": "tx_list",
						"offset": 0,
						"slot": "3",
						"type": "t_mapping(t_string_memory_ptr,t_struct(transaction)150_storage)"
					}
				],
				"types": {
					"t_address": {
						"encoding": "inplace",
						"label": "address",
						"numberOfBytes": "20"
					},
					"t_array(t_address)dyn_storage": {
						"base": "t_address",
						"encoding": "dynamic_array",
						"label": "address[]",
						"numberOfBytes": "32"
					},
					"t_contract(DelegatorContract)746": {
						"encoding": "inplace",
						"label": "contract DelegatorContract",
						"numberOfBytes": "20"
					},
					"t_int256": {
						"encoding": "inplace",
						"label": "int256",
						"numberOfBytes": "32"
					},
					"t_mapping(t_string_memory_ptr,t_array(t_address)dyn_storage)": {
						"encoding": "mapping",
						"key": "t_string_memory_ptr",
						"label": "mapping(string => address[])",
						"numberOfBytes": "32",
						"value": "t_array(t_address)dyn_storage"
					},
					"t_mapping(t_string_memory_ptr,t_struct(Assignment)131_storage)": {
						"encoding": "mapping",
						"key": "t_string_memory_ptr",
						"label": "mapping(string => struct AssignmentContract.Assignment)",
						"numberOfBytes": "32",
						"value": "t_struct(Assignment)131_storage"
					},
					"t_mapping(t_string_memory_ptr,t_struct(transaction)150_storage)": {
						"encoding": "mapping",
						"key": "t_string_memory_ptr",
						"label": "mapping(string => struct AssignmentContract.transaction)",
						"numberOfBytes": "32",
						"value": "t_struct(transaction)150_storage"
					},
					"t_string_memory_ptr": {
						"encoding": "bytes",
						"label": "string",
						"numberOfBytes": "32"
					},
					"t_string_storage": {
						"encoding": "bytes",
						"label": "string",
						"numberOfBytes": "32"
					},
					"t_struct(Assignment)131_storage": {
						"encoding": "inplace",
						"label": "struct AssignmentContract.Assignment",
						"members": [
							{
								"astId": 117,
								"contract": "ctiIncentiveDedupRegistry/ThreatTest.sol:AssignmentContract",
								"label": "tid",
								"offset": 0,
								"slot": "0",
								"type": "t_string_storage"
							},
							{
								"astId": 119,
								"contract": "ctiIncentiveDedupRegistry/ThreatTest.sol:AssignmentContract",
								"label": "producer",
								"offset": 0,
								"slot": "1",
								"type": "t_address"
							},
							{
								"astId": 122,
								"contract": "ctiIncentiveDedupRegistry/ThreatTest.sol:AssignmentContract",
								"label": "delegators_address",
								"offset": 0,
								"slot": "2",
								"type": "t_array(t_address)dyn_storage"
							},
							{
								"astId": 124,
								"contract": "ctiIncentiveDedupRegistry/ThreatTest.sol:AssignmentContract",
								"label": "price",
								"offset": 0,
								"slot": "3",
								"type": "t_uint256"
							},
							{
								"astId": 126,
								"contract": "ctiIncentiveDedupRegistry/ThreatTest.sol:AssignmentContract",
								"label": "producer_price",
								"offset": 0,
								"slot": "4",
								"type": "t_uint256"
							},
							{
								"astId": 128,
								"contract": "ctiIncentiveDedupRegistry/ThreatTest.sol:AssignmentContract",
								"label": "delegator_price",
								"offset": 0,
								"slot": "5",
								"type": "t_uint256"
							},
							{
								"astId": 130,
								"contract": "ctiIncentiveDedupRegistry/ThreatTest.sol:AssignmentContract",
								"label": "ipfsHash",
								"offset": 0,
								"slot": "6",
								"type": "t_string_storage"
							}
						],
						"numberOfBytes": "224"
					},
					"t_struct(transaction)150_storage": {
						"encoding": "inplace",
						"label": "struct AssignmentContract.transaction",
						"members": [
							{
								"astId": 133,
								"contract": "ctiIncentiveDedupRegistry/ThreatTest.sol:AssignmentContract",
								"label": "tid",
								"offset": 0,
								"slot": "0",
								"type": "t_string_storage"
							},
							{
								"astId": 135,
								"contract": "ctiIncentiveDedupRegistry/ThreatTest.sol:AssignmentContract",
								"label": "txid",
								"offset": 0,
								"slot": "1",
								"type": "t_string_storage"
							},
							{
								"astId": 137,
								"contract": "ctiIncentiveDedupRegistry/ThreatTest.sol:AssignmentContract",
								"label": "producer",
								"offset": 0,
								"slot": "2",
								"type": "t_address"
							},
							{
								"astId": 139,
								"contract": "ctiIncentiveDedupRegistry/ThreatTest.sol:AssignmentContract",
								"label": "delegator",
								"offset": 0,
								"slot": "3",
								"type": "t_address"
							},
							{
								"astId": 141,
								"contract": "ctiIncentiveDedupRegistry/ThreatTest.sol:AssignmentContract",
								"label": "consumer",
								"offset": 0,
								"slot": "4",
								"type": "t_address"
							},
							{
								"astId": 143,
								"contract": "ctiIncentiveDedupRegistry/ThreatTest.sol:AssignmentContract",
								"label": "price",
								"offset": 0,
								"slot": "5",
								"type": "t_uint256"
							},
							{
								"astId": 145,
								"contract": "ctiIncentiveDedupRegistry/ThreatTest.sol:AssignmentContract",
								"label": "producer_price",
								"offset": 0,
								"slot": "6",
								"type": "t_uint256"
							},
							{
								"astId": 147,
								"contract": "ctiIncentiveDedupRegistry/ThreatTest.sol:AssignmentContract",
								"label": "delegator_price",
								"offset": 0,
								"slot": "7",
								"type": "t_uint256"
							},
							{
								"astId": 149,
								"contract": "ctiIncentiveDedupRegistry/ThreatTest.sol:AssignmentContract",
								"label": "status",
								"offset": 0,
								"slot": "8",
								"type": "t_int256"
							}
						],
						"numberOfBytes": "288"
					},
					"t_uint256": {
						"encoding": "inplace",
						"label": "uint256",
						"numberOfBytes": "32"
					}
				}
			},
			"userdoc": {
				"kind": "user",
				"methods": {},
				"version": 1
			}
		}
	}
}