{
	"ctiIncentiveDedupRegistry/ThreatTest.sol": {
		"RegistCTI": {
			"abi": [
				{
					"inputs": [
						{
							"internalType": "string",
							"name": "",
							"type": "string"
						}
					],
					"name": "CTIByTidList",
					"outputs": [
						{
							"internalType": "string",
							"name": "tid",
							"type": "string"
						},
						{
							"internalType": "string",
							"name": "tip",
							"type": "string"
						},
						{
							"internalType": "uint256",
							"name": "register_time",
							"type": "uint256"
						},
						{
							"internalType": "address",
							"name": "producer_address",
							"type": "address"
						},
						{
							"internalType": "string",
							"name": "cti_hash",
							"type": "string"
						},
						{
							"internalType": "int256",
							"name": "price",
							"type": "int256"
						}
					],
					"stateMutability": "view",
					"type": "function"
				},
				{
					"inputs": [
						{
							"internalType": "string",
							"name": "",
							"type": "string"
						},
						{
							"internalType": "uint256",
							"name": "",
							"type": "uint256"
						}
					],
					"name": "CTIByTipListGroup",
					"outputs": [
						{
							"internalType": "string",
							"name": "tid",
							"type": "string"
						},
						{
							"internalType": "string",
							"name": "tip",
							"type": "string"
						},
						{
							"internalType": "uint256",
							"name": "register_time",
							"type": "uint256"
						},
						{
							"internalType": "address",
							"name": "producer_address",
							"type": "address"
						},
						{
							"internalType": "string",
							"name": "cti_hash",
							"type": "string"
						},
						{
							"internalType": "int256",
							"name": "price",
							"type": "int256"
						}
					],
					"stateMutability": "view",
					"type": "function"
				},
				{
					"inputs": [
						{
							"internalType": "string",
							"name": "tid",
							"type": "string"
						}
					],
					"name": "GetCTIByTid",
					"outputs": [
						{
							"components": [
								{
									"internalType": "string",
									"name": "tid",
									"type": "string"
								},
								{
									"internalType": "string",
									"name": "tip",
									"type": "string"
								},
								{
									"internalType": "uint256",
									"name": "register_time",
									"type": "uint256"
								},
								{
									"internalType": "address",
									"name": "producer_address",
									"type": "address"
								},
								{
									"internalType": "string",
									"name": "cti_hash",
									"type": "string"
								},
								{
									"internalType": "string[]",
									"name": "tags",
									"type": "string[]"
								},
								{
									"internalType": "int256",
									"name": "price",
									"type": "int256"
								}
							],
							"internalType": "struct RegistCTI.CTI",
							"name": "",
							"type": "tuple"
						}
					],
					"stateMutability": "view",
					"type": "function"
				},
				{
					"inputs": [
						{
							"internalType": "string",
							"name": "tip",
							"type": "string"
						}
					],
					"name": "GetCTIByTip",
					"outputs": [
						{
							"components": [
								{
									"internalType": "string",
									"name": "tid",
									"type": "string"
								},
								{
									"internalType": "string",
									"name": "tip",
									"type": "string"
								},
								{
									"internalType": "uint256",
									"name": "register_time",
									"type": "uint256"
								},
								{
									"internalType": "address",
									"name": "producer_address",
									"type": "address"
								},
								{
									"internalType": "string",
									"name": "cti_hash",
									"type": "string"
								},
								{
									"internalType": "string[]",
									"name": "tags",
									"type": "string[]"
								},
								{
									"internalType": "int256",
									"name": "price",
									"type": "int256"
								}
							],
							"internalType": "struct RegistCTI.CTI[]",
							"name": "",
							"type": "tuple[]"
						}
					],
					"stateMutability": "view",
					"type": "function"
				},
				{
					"inputs": [
						{
							"internalType": "string",
							"name": "tid",
							"type": "string"
						},
						{
							"internalType": "string",
							"name": "tip",
							"type": "string"
						},
						{
							"internalType": "string",
							"name": "cti_hash",
							"type": "string"
						},
						{
							"internalType": "string[]",
							"name": "tags",
							"type": "string[]"
						},
						{
							"internalType": "int256",
							"name": "price",
							"type": "int256"
						}
					],
					"name": "Register",
					"outputs": [],
					"stateMutability": "nonpayable",
					"type": "function"
				}
			],
			"devdoc": {
				"custom:dev-run-script": "./scripts/deploy_with_ethers.ts",
				"details": "Store & retrieve value in a variable",
				"kind": "dev",
				"methods": {},
				"title": "Storage",
				"version": 1
			},
			"evm": {
				"assembly": "    /* \"ctiIncentiveDedupRegistry/ThreatTest.sol\":210:1365  contract RegistCTI {... */\n  0x80\n  dup1\n  0x40\n  mstore\n  jumpi(tag_1, callvalue)\n  dataSize(sub_0)\n  swap1\n  dup2\n  dataOffset(sub_0)\n  dup3\n  codecopy\n  return\ntag_1:\n  0x00\n  dup1\n  revert\nstop\n\nsub_0: assembly {\n        /* \"ctiIncentiveDedupRegistry/ThreatTest.sol\":210:1365  contract RegistCTI {... */\n      mstore(0x40, 0x80)\n      jumpi(tag_17, iszero(lt(calldatasize, 0x04)))\n      0x00\n      dup1\n      revert\n    tag_17:\n      shr(0xe0, calldataload(0x00))\n      dup1\n      0x1d785ed3\n      eq\n      tag_19\n      jumpi\n      dup1\n      0x37903f88\n      eq\n      tag_21\n      jumpi\n      dup1\n      0x59889291\n      eq\n      tag_23\n      jumpi\n      dup1\n      0xae945443\n      eq\n      tag_25\n      jumpi\n      0xc99960d3\n      eq\n      tag_27\n      jumpi\n      0x00\n      dup1\n      revert\n    tag_27:\n      jumpi(tag_33, callvalue)\n      jumpi(tag_33, slt(add(not(0x03), calldatasize), 0x20))\n      calldataload(0x04)\n      sub(shl(0x40, 0x01), 0x01)\n      dup2\n      gt\n      tag_33\n      jumpi\n      tag_35\n      0x20\n      tag_36\n      tag_37\n      swap4\n      calldatasize\n      swap1\n      0x04\n      add\n      tag_9\n      jump\t// in\n    tag_36:\n      swap2\n      swap1\n      0x00\n      0xc0\n      mload(0x40)\n      tag_38\n      dup2\n      tag_1\n      jump\t// in\n    tag_38:\n      0x60\n      dup2\n      mstore\n      0x60\n      dup6\n      dup3\n      add\n      mstore\n      dup3\n      0x40\n      dup3\n      add\n      mstore\n      dup3\n      0x60\n      dup3\n      add\n      mstore\n      0x60\n      0x80\n      dup3\n      add\n      mstore\n      0x60\n      0xa0\n      dup3\n      add\n      mstore\n      add\n      mstore\n      dup3\n      mload(0x40)\n      swap4\n      dup5\n      swap3\n      dup4\n      calldatacopy\n      dup2\n      add\n      0x00\n      dup2\n      mstore\n      sub\n      add\n      swap1\n      keccak256\n      tag_16\n      jump\t// in\n    tag_35:\n      mload(0x40)\n      swap2\n      dup3\n      swap2\n      0x20\n      dup4\n      mstore\n      0x20\n      dup4\n      add\n      swap1\n      tag_10\n      jump\t// in\n    tag_37:\n      sub\n      swap1\n      return\n    tag_33:\n      0x00\n      dup1\n      revert\n    tag_25:\n      jumpi(tag_33, callvalue)\n      jumpi(tag_33, slt(add(not(0x03), calldatasize), 0x40))\n      calldataload(0x04)\n      sub(shl(0x40, 0x01), 0x01)\n      dup2\n      gt\n      tag_33\n      jumpi\n      tag_45\n      swap1\n      calldatasize\n      swap1\n      0x04\n      add\n      tag_4\n      jump\t// in\n    tag_45:\n      mload(0x40)\n      dup2\n      mload\n      calldataload(0x24)\n      swap3\n      0x20\n      swap2\n      dup4\n      swap2\n      dup2\n      swap1\n      dup5\n      add\n      dup4\n      mcopy\n      dup2\n      add\n      0x01\n      dup2\n      mstore\n      sub\n      add\n      swap1\n      keccak256\n      swap1\n      dup2\n      sload\n        /* \"ctiIncentiveDedupRegistry/ThreatTest.sol\":488:537  mapping(string => CTI[]) public CTIByTipListGroup */\n      dup2\n      lt\n      iszero\n      tag_33\n      jumpi\n      tag_48\n      swap2\n      tag_11\n      jump\t// in\n    tag_48:\n      pop\n      tag_49\n      dup2\n      tag_6\n      jump\t// in\n    tag_49:\n        /* \"ctiIncentiveDedupRegistry/ThreatTest.sol\":210:1365  contract RegistCTI {... */\n      tag_37\n        /* \"ctiIncentiveDedupRegistry/ThreatTest.sol\":488:537  mapping(string => CTI[]) public CTIByTipListGroup */\n      tag_51\n        /* \"ctiIncentiveDedupRegistry/ThreatTest.sol\":210:1365  contract RegistCTI {... */\n      0x01\n        /* \"ctiIncentiveDedupRegistry/ThreatTest.sol\":488:537  mapping(string => CTI[]) public CTIByTipListGroup */\n      dup5\n      add\n      tag_6\n      jump\t// in\n    tag_51:\n      0x02\n      dup5\n      add\n        /* \"ctiIncentiveDedupRegistry/ThreatTest.sol\":210:1365  contract RegistCTI {... */\n      sload\n        /* \"ctiIncentiveDedupRegistry/ThreatTest.sol\":488:537  mapping(string => CTI[]) public CTIByTipListGroup */\n      0x03\n      dup6\n      add\n        /* \"ctiIncentiveDedupRegistry/ThreatTest.sol\":210:1365  contract RegistCTI {... */\n      sload\n        /* \"ctiIncentiveDedupRegistry/ThreatTest.sol\":488:537  mapping(string => CTI[]) public CTIByTipListGroup */\n      swap2\n      swap5\n        /* \"ctiIncentiveDedupRegistry/ThreatTest.sol\":210:1365  contract RegistCTI {... */\n      swap1\n      swap2\n      sub(shl(0xa0, 0x01), 0x01)\n      and\n        /* \"ctiIncentiveDedupRegistry/ThreatTest.sol\":488:537  mapping(string => CTI[]) public CTIByTipListGroup */\n      0x06\n      tag_52\n        /* \"ctiIncentiveDedupRegistry/ThreatTest.sol\":210:1365  contract RegistCTI {... */\n      0x04\n        /* \"ctiIncentiveDedupRegistry/ThreatTest.sol\":488:537  mapping(string => CTI[]) public CTIByTipListGroup */\n      dup5\n      add\n      tag_6\n      jump\t// in\n    tag_52:\n      swap3\n      add\n        /* \"ctiIncentiveDedupRegistry/ThreatTest.sol\":210:1365  contract RegistCTI {... */\n      sload\n      swap3\n      mload(0x40)\n      swap7\n      dup8\n      swap7\n      dup8\n      tag_8\n      jump\t// in\n    tag_23:\n      jumpi(tag_33, callvalue)\n      jumpi(tag_33, slt(add(not(0x03), calldatasize), 0x20))\n      calldataload(0x04)\n      sub(shl(0x40, 0x01), 0x01)\n      dup2\n      gt\n      tag_33\n      jumpi\n      0x20\n      tag_59\n      dup2\n      swap3\n      calldatasize\n      swap1\n      0x04\n      add\n      tag_4\n      jump\t// in\n    tag_59:\n      mload(0x40)\n      swap3\n      dup2\n      dup5\n      swap3\n      mload\n      swap2\n      dup3\n      swap2\n      add\n      dup4\n      mcopy\n      dup2\n      add\n        /* \"ctiIncentiveDedupRegistry/ThreatTest.sol\":1332:1349  CTIByTipListGroup */\n      0x01\n        /* \"ctiIncentiveDedupRegistry/ThreatTest.sol\":210:1365  contract RegistCTI {... */\n      dup2\n      mstore\n      sub\n      add\n      swap1\n      keccak256\n      dup1\n      sload\n      swap1\n      tag_60\n      dup3\n      tag_12\n      jump\t// in\n    tag_60:\n      swap2\n      tag_61\n      mload(0x40)\n      swap4\n      dup5\n      tag_2\n      jump\t// in\n    tag_61:\n      dup1\n      dup4\n      mstore\n      0x20\n      dup4\n      add\n      dup1\n      swap3\n      0x00\n      mstore\n      keccak256(0x00, 0x20)\n      0x00\n      swap2\n    tag_62:\n      dup4\n      dup4\n      lt\n      tag_63\n      jumpi\n      dup5\n      dup7\n      mload(0x40)\n      swap2\n      dup3\n      swap2\n      0x20\n      dup4\n      add\n      swap1\n      0x20\n      dup5\n      mstore\n      mload\n      dup1\n      swap2\n      mstore\n      0x40\n      dup4\n      add\n      swap1\n      0x40\n      dup2\n      0x05\n      shl\n      dup6\n      add\n      add\n      swap3\n      swap2\n      0x00\n      swap1\n    tag_65:\n      dup3\n      dup3\n      lt\n      tag_66\n      jumpi\n      pop\n      pop\n      pop\n      pop\n      sub\n      swap1\n      return\n    tag_66:\n      swap2\n      swap4\n        /* \"ctiIncentiveDedupRegistry/ThreatTest.sol\":1332:1349  CTIByTipListGroup */\n      0x01\n        /* \"ctiIncentiveDedupRegistry/ThreatTest.sol\":210:1365  contract RegistCTI {... */\n      swap2\n      swap4\n      swap6\n      pop\n      0x20\n      tag_68\n      dup2\n      swap3\n      not(0x3f)\n      dup11\n      dup3\n      sub\n      add\n      dup7\n      mstore\n      dup9\n      mload\n      tag_10\n      jump\t// in\n    tag_68:\n      swap7\n      add\n      swap3\n      add\n      swap3\n      add\n      dup6\n      swap5\n      swap4\n      swap2\n      swap3\n      jump(tag_65)\n    tag_63:\n      0x07\n      0x20\n        /* \"ctiIncentiveDedupRegistry/ThreatTest.sol\":1332:1349  CTIByTipListGroup */\n      0x01\n        /* \"ctiIncentiveDedupRegistry/ThreatTest.sol\":210:1365  contract RegistCTI {... */\n      swap3\n      tag_69\n      dup6\n      tag_16\n      jump\t// in\n    tag_69:\n      dup2\n      mstore\n      add\n      swap3\n      add\n      swap3\n      add\n      swap2\n      swap1\n      jump(tag_62)\n    tag_21:\n      jumpi(tag_33, callvalue)\n      jumpi(tag_33, slt(add(not(0x03), calldatasize), 0xa0))\n      calldataload(0x04)\n      sub(shl(0x40, 0x01), 0x01)\n      dup2\n      gt\n      tag_33\n      jumpi\n      tag_76\n      swap1\n      calldatasize\n      swap1\n      0x04\n      add\n      tag_9\n      jump\t// in\n    tag_76:\n      calldataload(0x24)\n      sub(shl(0x40, 0x01), 0x01)\n      dup2\n      gt\n      tag_33\n      jumpi\n      tag_79\n      swap1\n      calldatasize\n      swap1\n      0x04\n      add\n      tag_9\n      jump\t// in\n    tag_79:\n      swap2\n      calldataload(0x44)\n      sub(shl(0x40, 0x01), 0x01)\n      dup2\n      gt\n      tag_33\n      jumpi\n      tag_82\n      swap1\n      calldatasize\n      swap1\n      0x04\n      add\n      tag_9\n      jump\t// in\n    tag_82:\n      swap5\n      swap1\n      calldataload(0x64)\n      sub(shl(0x40, 0x01), 0x01)\n      dup2\n      gt\n      tag_33\n      jumpi\n      calldatasize\n      0x23\n      dup3\n      add\n      slt\n      iszero\n      tag_33\n      jumpi\n      dup1\n      0x04\n      add\n      calldataload\n      swap2\n      sub(shl(0x40, 0x01), 0x01)\n      dup4\n      gt\n      tag_33\n      jumpi\n      0x24\n      dup4\n      0x05\n      shl\n      dup4\n      add\n      add\n      swap1\n      calldatasize\n      dup3\n      gt\n      tag_33\n      jumpi\n      swap8\n      swap5\n      swap4\n      swap3\n      swap2\n      swap1\n      tag_91\n      mload(0x40)\n      swap10\n      dup11\n      swap8\n      tag_92\n      dup10\n      tag_1\n      jump\t// in\n    tag_92:\n      tag_93\n      calldatasize\n      dup10\n      dup10\n      tag_3\n      jump\t// in\n    tag_93:\n      dup10\n      mstore\n      tag_94\n      calldatasize\n      dup13\n      dup13\n      tag_3\n      jump\t// in\n    tag_94:\n      0x20\n        /* \"ctiIncentiveDedupRegistry/ThreatTest.sol\":791:958  CTI(... */\n      dup11\n      add\n        /* \"ctiIncentiveDedupRegistry/ThreatTest.sol\":210:1365  contract RegistCTI {... */\n      mstore\n        /* \"ctiIncentiveDedupRegistry/ThreatTest.sol\":845:860  block.timestamp */\n      timestamp\n        /* \"ctiIncentiveDedupRegistry/ThreatTest.sol\":210:1365  contract RegistCTI {... */\n      0x40\n        /* \"ctiIncentiveDedupRegistry/ThreatTest.sol\":791:958  CTI(... */\n      dup11\n      add\n        /* \"ctiIncentiveDedupRegistry/ThreatTest.sol\":210:1365  contract RegistCTI {... */\n      mstore\n        /* \"ctiIncentiveDedupRegistry/ThreatTest.sol\":875:885  msg.sender */\n      caller\n        /* \"ctiIncentiveDedupRegistry/ThreatTest.sol\":210:1365  contract RegistCTI {... */\n      0x60\n        /* \"ctiIncentiveDedupRegistry/ThreatTest.sol\":791:958  CTI(... */\n      dup11\n      add\n        /* \"ctiIncentiveDedupRegistry/ThreatTest.sol\":210:1365  contract RegistCTI {... */\n      mstore\n      calldatasize\n      swap2\n      tag_3\n      jump\t// in\n    tag_91:\n      0x80\n        /* \"ctiIncentiveDedupRegistry/ThreatTest.sol\":791:958  CTI(... */\n      dup8\n      add\n        /* \"ctiIncentiveDedupRegistry/ThreatTest.sol\":210:1365  contract RegistCTI {... */\n      mstore\n      tag_95\n      dup4\n      tag_12\n      jump\t// in\n    tag_95:\n      swap3\n      tag_96\n      mload(0x40)\n      swap5\n      dup6\n      tag_2\n      jump\t// in\n    tag_96:\n      dup4\n      mstore\n      0x24\n      dup3\n      add\n      swap2\n      0x20\n      dup5\n      add\n    tag_97:\n      dup3\n      dup5\n      lt\n      tag_98\n      jumpi\n        /* \"ctiIncentiveDedupRegistry/ThreatTest.sol\":791:958  CTI(... */\n      dup8\n      dup11\n        /* \"ctiIncentiveDedupRegistry/ThreatTest.sol\":210:1365  contract RegistCTI {... */\n      0x20\n        /* \"ctiIncentiveDedupRegistry/ThreatTest.sol\":791:958  CTI(... */\n      dup12\n        /* \"ctiIncentiveDedupRegistry/ThreatTest.sol\":210:1365  contract RegistCTI {... */\n      tag_100\n        /* \"ctiIncentiveDedupRegistry/ThreatTest.sol\":791:958  CTI(... */\n      dup5\n      dup13\n      dup5\n      dup14\n      dup14\n        /* \"ctiIncentiveDedupRegistry/ThreatTest.sol\":210:1365  contract RegistCTI {... */\n      0xa0\n        /* \"ctiIncentiveDedupRegistry/ThreatTest.sol\":791:958  CTI(... */\n      dup6\n      add\n        /* \"ctiIncentiveDedupRegistry/ThreatTest.sol\":210:1365  contract RegistCTI {... */\n      mstore\n      calldataload(0x84)\n        /* \"ctiIncentiveDedupRegistry/ThreatTest.sol\":791:958  CTI(... */\n      0xc0\n      dup6\n      add\n        /* \"ctiIncentiveDedupRegistry/ThreatTest.sol\":210:1365  contract RegistCTI {... */\n      mstore\n      dup3\n      mload(0x40)\n      swap4\n      dup5\n      swap3\n      dup4\n      calldatacopy\n      dup2\n      add\n      0x00\n      dup2\n      mstore\n      sub\n      add\n      swap1\n      keccak256\n      tag_15\n      jump\t// in\n    tag_100:\n      dup3\n      mload(0x40)\n      swap4\n      dup5\n      swap3\n      dup4\n      calldatacopy\n      dup2\n      add\n      0x01\n      dup2\n      mstore\n      sub\n      add\n      swap1\n      keccak256\n      dup1\n      sload\n      shl(0x40, 0x01)\n      dup2\n      lt\n      iszero\n      tag_101\n      jumpi\n      tag_103\n      swap2\n      0x01\n      dup3\n      add\n      dup2\n      sstore\n      tag_11\n      jump\t// in\n    tag_103:\n      swap2\n      swap1\n      swap2\n      tag_104\n      jumpi\n      tag_106\n      swap2\n      tag_15\n      jump\t// in\n    tag_106:\n      stop\n    tag_104:\n      mstore(0x00, shl(0xe0, 0x4e487b71))\n      mstore(0x04, 0x00)\n      revert(0x00, 0x24)\n    tag_101:\n      mstore(0x00, shl(0xe0, 0x4e487b71))\n      mstore(0x04, 0x41)\n      revert(0x00, 0x24)\n    tag_98:\n      swap1\n      swap2\n      swap3\n      dup1\n      swap5\n      swap6\n      swap7\n      swap8\n      pop\n      calldataload\n      sub(shl(0x40, 0x01), 0x01)\n      dup2\n      gt\n      tag_33\n      jumpi\n      0x20\n      swap2\n      tag_109\n      dup4\n      swap3\n      0x24\n      calldatasize\n      swap2\n      dup8\n      add\n      add\n      tag_4\n      jump\t// in\n    tag_109:\n      dup2\n      mstore\n      add\n      swap4\n      add\n      swap2\n      swap1\n      dup10\n      swap7\n      swap6\n      swap5\n      swap4\n      jump(tag_97)\n    tag_19:\n      jumpi(tag_33, callvalue)\n      jumpi(tag_33, slt(add(not(0x03), calldatasize), 0x20))\n      calldataload(0x04)\n      sub(shl(0x40, 0x01), 0x01)\n      dup2\n      gt\n      tag_33\n      jumpi\n      0x20\n      tag_116\n      dup2\n      swap3\n      calldatasize\n      swap1\n      0x04\n      add\n      tag_4\n      jump\t// in\n    tag_116:\n      mload(0x40)\n      swap3\n      dup2\n      dup5\n      swap3\n      mload\n      swap2\n      dup3\n      swap2\n      add\n      dup4\n      mcopy\n      dup2\n      add\n      0x00\n      dup2\n      mstore\n      sub\n      add\n      swap1\n      keccak256\n        /* \"ctiIncentiveDedupRegistry/ThreatTest.sol\":439:481  mapping(string => CTI) public CTIByTidList */\n      tag_49\n      dup2\n      tag_6\n      jump\t// in\n        /* \"ctiIncentiveDedupRegistry/ThreatTest.sol\":210:1365  contract RegistCTI {... */\n    tag_1:\n      0xe0\n      dup2\n      add\n      swap1\n      dup2\n      lt\n      sub(shl(0x40, 0x01), 0x01)\n      dup3\n      gt\n      or\n      tag_101\n      jumpi\n      0x40\n      mstore\n      jump\t// out\n    tag_2:\n      swap1\n      0x1f\n      dup1\n      not\n      swap2\n      add\n      and\n      dup2\n      add\n      swap1\n      dup2\n      lt\n      sub(shl(0x40, 0x01), 0x01)\n      dup3\n      gt\n      or\n      tag_101\n      jumpi\n      0x40\n      mstore\n      jump\t// out\n    tag_3:\n      swap3\n      swap2\n      swap3\n      sub(shl(0x40, 0x01), 0x01)\n      dup3\n      gt\n      tag_101\n      jumpi\n      mload(0x40)\n      swap2\n      tag_127\n      0x1f\n      dup3\n      add\n      not(0x1f)\n      and\n      0x20\n      add\n      dup5\n      tag_2\n      jump\t// in\n    tag_127:\n      dup3\n      swap5\n      dup2\n      dup5\n      mstore\n      dup2\n      dup4\n      add\n      gt\n      tag_33\n      jumpi\n      dup3\n      dup2\n      0x20\n      swap4\n      dup5\n      0x00\n      swap7\n      add\n      calldatacopy\n      add\n      add\n      mstore\n      jump\t// out\n    tag_4:\n      swap1\n      dup1\n      0x1f\n      dup4\n      add\n      slt\n      iszero\n      tag_33\n      jumpi\n      dup2\n      0x20\n      tag_132\n      swap4\n      calldataload\n      swap2\n      add\n      tag_3\n      jump\t// in\n    tag_132:\n      swap1\n      jump\t// out\n    tag_5:\n      swap1\n      0x01\n      dup3\n      dup2\n      shr\n      swap3\n      and\n      dup1\n      iszero\n      tag_133\n      jumpi\n    tag_134:\n      0x20\n      dup4\n      lt\n      eq\n      tag_135\n      jumpi\n      jump\t// out\n    tag_135:\n      mstore(0x00, shl(0xe0, 0x4e487b71))\n      mstore(0x04, 0x22)\n      revert(0x00, 0x24)\n    tag_133:\n      swap2\n      0x7f\n      and\n      swap2\n      jump(tag_134)\n    tag_6:\n      swap1\n      mload(0x40)\n      swap2\n      dup3\n      0x00\n      dup3\n      sload\n      swap3\n      tag_137\n      dup5\n      tag_5\n      jump\t// in\n    tag_137:\n      dup1\n      dup5\n      mstore\n      swap4\n      0x01\n      dup2\n      and\n      swap1\n      dup2\n      iszero\n      tag_138\n      jumpi\n      pop\n      0x01\n      eq\n      tag_140\n      jumpi\n    tag_141:\n      pop\n      tag_142\n      swap3\n      pop\n      sub\n      dup4\n      tag_2\n      jump\t// in\n    tag_142:\n      jump\t// out\n    tag_140:\n      swap1\n      pop\n      0x00\n      swap3\n      swap2\n      swap3\n      mstore\n      keccak256(0x00, 0x20)\n      swap1\n      0x00\n      swap2\n    tag_143:\n      dup2\n      dup4\n      lt\n      tag_144\n      jumpi\n      pop\n      pop\n      swap1\n      0x20\n      tag_142\n      swap3\n      dup3\n      add\n      add\n      0x00\n      jump(tag_141)\n    tag_144:\n      0x20\n      swap2\n      swap4\n      pop\n      dup1\n      0x01\n      swap2\n      sload\n      dup4\n      dup6\n      dup10\n      add\n      add\n      mstore\n      add\n      swap2\n      add\n      swap1\n      swap2\n      dup5\n      swap3\n      jump(tag_143)\n    tag_138:\n      swap1\n      pop\n      0x20\n      swap3\n      pop\n      tag_142\n      swap5\n      swap2\n      pop\n      not(0xff)\n      and\n      dup3\n      dup5\n      add\n      mstore\n      iszero\n      iszero\n      0x05\n      shl\n      dup3\n      add\n      add\n      0x00\n      jump(tag_141)\n    tag_7:\n      dup1\n      mload\n      dup1\n      dup4\n      mstore\n      0x20\n      swap3\n      swap2\n      dup2\n      swap1\n      dup5\n      add\n      dup5\n      dup5\n      add\n      mcopy\n      0x00\n      dup3\n      dup3\n      add\n      dup5\n      add\n      mstore\n      0x1f\n      add\n      not(0x1f)\n      and\n      add\n      add\n      swap1\n      jump\t// out\n    tag_8:\n      swap7\n      swap6\n      swap5\n      swap1\n      swap4\n      tag_146\n      tag_147\n      swap5\n      swap4\n      tag_148\n      0xa0\n      swap8\n      0xc0\n      dup13\n      mstore\n      0xc0\n      dup13\n      add\n      swap1\n      tag_7\n      jump\t// in\n    tag_148:\n      swap1\n      dup11\n      dup3\n      sub\n      0x20\n      dup13\n      add\n      mstore\n      tag_7\n      jump\t// in\n    tag_146:\n      swap3\n      0x40\n      dup10\n      add\n      mstore\n      0x01\n      dup1\n      dup7\n      shl\n      sub\n      and\n      0x60\n      dup9\n      add\n      mstore\n      dup7\n      dup3\n      sub\n      0x80\n      dup9\n      add\n      mstore\n      tag_7\n      jump\t// in\n    tag_147:\n      swap4\n      add\n      mstore\n      jump\t// out\n    tag_9:\n      swap2\n      dup2\n      0x1f\n      dup5\n      add\n      slt\n      iszero\n      tag_33\n      jumpi\n      dup3\n      calldataload\n      swap2\n      sub(shl(0x40, 0x01), 0x01)\n      dup4\n      gt\n      tag_33\n      jumpi\n      0x20\n      dup4\n      dup2\n      dup7\n      add\n      swap6\n      add\n      add\n      gt\n      tag_33\n      jumpi\n      jump\t// out\n    tag_10:\n      swap1\n      tag_155\n      tag_156\n      tag_157\n      dup5\n      mload\n      0xe0\n      dup6\n      mstore\n      0xe0\n      dup6\n      add\n      swap1\n      tag_7\n      jump\t// in\n    tag_157:\n      0x20\n      dup6\n      add\n      mload\n      dup5\n      dup3\n      sub\n      0x20\n      dup7\n      add\n      mstore\n      tag_7\n      jump\t// in\n    tag_156:\n      0x40\n      dup5\n      add\n      mload\n      0x40\n      dup5\n      add\n      mstore\n      0x01\n      dup1\n      0xa0\n      shl\n      sub\n      0x60\n      dup6\n      add\n      mload\n      and\n      0x60\n      dup5\n      add\n      mstore\n      0x80\n      dup5\n      add\n      mload\n      dup4\n      dup3\n      sub\n      0x80\n      dup6\n      add\n      mstore\n      tag_7\n      jump\t// in\n    tag_155:\n      swap2\n      0xa0\n      dup2\n      add\n      mload\n      swap3\n      dup3\n      dup2\n      sub\n      0xa0\n      dup5\n      add\n      mstore\n      dup4\n      mload\n      dup1\n      dup3\n      mstore\n      0x20\n      dup3\n      add\n      swap2\n      0x20\n      dup1\n      dup4\n      0x05\n      shl\n      dup4\n      add\n      add\n      swap7\n      add\n      swap3\n      0x00\n      swap2\n    tag_158:\n      dup4\n      dup4\n      lt\n      tag_159\n      jumpi\n      pop\n      pop\n      pop\n      pop\n      pop\n      0xc0\n      dup1\n      swap2\n      add\n      mload\n      swap2\n      add\n      mstore\n      swap1\n      jump\t// out\n    tag_159:\n      swap1\n      swap2\n      swap3\n      swap4\n      swap7\n      0x20\n      dup1\n      tag_161\n      0x01\n      swap4\n      not(0x1f)\n      dup7\n      dup3\n      sub\n      add\n      dup8\n      mstore\n      dup12\n      mload\n      tag_7\n      jump\t// in\n    tag_161:\n      swap10\n      add\n      swap4\n      add\n      swap4\n      add\n      swap2\n      swap4\n      swap3\n      swap1\n      jump(tag_158)\n    tag_11:\n      dup1\n      sload\n      dup3\n      lt\n      iszero\n      tag_162\n      jumpi\n      0x00\n      mstore\n      0x07\n      keccak256(0x00, 0x20)\n      swap2\n      mul\n      add\n      swap1\n      0x00\n      swap1\n      jump\t// out\n    tag_162:\n      mstore(0x00, shl(0xe0, 0x4e487b71))\n      mstore(0x04, 0x32)\n      revert(0x00, 0x24)\n    tag_12:\n      sub(shl(0x40, 0x01), 0x01)\n      dup2\n      gt\n      tag_101\n      jumpi\n      0x05\n      shl\n      0x20\n      add\n      swap1\n      jump\t// out\n    tag_13:\n      dup2\n      dup2\n      lt\n      tag_167\n      jumpi\n      pop\n      pop\n      jump\t// out\n    tag_167:\n      0x00\n      dup2\n      sstore\n      0x01\n      add\n      jump(tag_13)\n    tag_15:\n      swap2\n      swap1\n      swap2\n      dup3\n      mload\n      swap3\n      dup4\n      mload\n      sub(shl(0x40, 0x01), 0x01)\n      dup2\n      gt\n      tag_101\n      jumpi\n      tag_171\n      dup4\n      sload\n      tag_5\n      jump\t// in\n    tag_171:\n      0x1f\n      dup2\n      gt\n      tag_172\n      jumpi\n    tag_173:\n      pop\n      0x20\n      swap5\n      0x1f\n      dup3\n      gt\n      0x01\n      eq\n      tag_174\n      jumpi\n      tag_176\n      swap3\n      swap4\n      swap5\n      swap6\n      dup3\n      swap2\n      0x00\n      swap3\n      tag_217\n      jumpi\n    tag_178:\n      pop\n      pop\n      dup2\n      0x01\n      shl\n      swap2\n      not(0x00)\n      swap1\n      0x03\n      shl\n      shr\n      not\n      and\n      or\n      swap1\n      jump\n    tag_176:\n      dup3\n      sstore\n    tag_179:\n      0x01\n      dup3\n      add\n      0x20\n      dup3\n      add\n      mload\n      dup1\n      mload\n      swap1\n      sub(shl(0x40, 0x01), 0x01)\n      dup3\n      gt\n      tag_101\n      jumpi\n      tag_182\n      dup4\n      sload\n      tag_5\n      jump\t// in\n    tag_182:\n      0x1f\n      dup2\n      gt\n      tag_183\n      jumpi\n    tag_184:\n      pop\n      0x20\n      swap1\n      0x1f\n      dup4\n      gt\n      0x01\n      eq\n      tag_185\n      jumpi\n      tag_187\n      swap3\n      swap2\n      0x00\n      swap2\n      dup4\n      tag_217\n      jumpi\n      pop\n      pop\n      dup2\n      0x01\n      shl\n      swap2\n      not(0x00)\n      swap1\n      0x03\n      shl\n      shr\n      not\n      and\n      or\n      swap1\n      jump\n    tag_187:\n      swap1\n      sstore\n    tag_190:\n      0x40\n      dup2\n      add\n      mload\n      0x02\n      dup4\n      add\n      sstore\n      0x03\n      dup3\n      add\n      0x01\n      dup1\n      0xa0\n      shl\n      sub\n      0x60\n      dup4\n      add\n      mload\n      and\n      shl(0xa0, 0xffffffffffffffffffffffff)\n      dup3\n      sload\n      and\n      or\n      swap1\n      sstore\n      0x04\n      dup3\n      add\n      0x80\n      dup3\n      add\n      mload\n      dup1\n      mload\n      swap1\n      sub(shl(0x40, 0x01), 0x01)\n      dup3\n      gt\n      tag_101\n      jumpi\n      tag_193\n      dup4\n      sload\n      tag_5\n      jump\t// in\n    tag_193:\n      0x1f\n      dup2\n      gt\n      tag_194\n      jumpi\n    tag_195:\n      pop\n      0x20\n      swap1\n      0x1f\n      dup4\n      gt\n      0x01\n      eq\n      tag_196\n      jumpi\n      tag_198\n      swap3\n      swap2\n      0x00\n      swap2\n      dup4\n      tag_217\n      jumpi\n      pop\n      pop\n      dup2\n      0x01\n      shl\n      swap2\n      not(0x00)\n      swap1\n      0x03\n      shl\n      shr\n      not\n      and\n      or\n      swap1\n      jump\n    tag_198:\n      swap1\n      sstore\n    tag_201:\n      0x05\n      dup3\n      add\n      0xa0\n      dup3\n      add\n      mload\n      dup1\n      mload\n      swap1\n      shl(0x40, 0x01)\n      dup3\n      gt\n      tag_101\n      jumpi\n      dup3\n      sload\n      dup3\n      dup5\n      sstore\n      dup1\n      dup4\n      lt\n      tag_204\n      jumpi\n    tag_205:\n      pop\n      0x20\n      add\n      swap2\n      0x00\n      mstore\n      keccak256(0x00, 0x20)\n      swap2\n      0x00\n      swap1\n    tag_206:\n      dup3\n      dup3\n      lt\n      tag_207\n      jumpi\n      pop\n      pop\n      pop\n      pop\n      0xc0\n      0x06\n      swap2\n      add\n      mload\n      swap2\n      add\n      sstore\n      jump\t// out\n    tag_207:\n      dup1\n      mload\n      dup1\n      mload\n      swap1\n      sub(shl(0x40, 0x01), 0x01)\n      dup3\n      gt\n      tag_101\n      jumpi\n      tag_211\n      dup7\n      sload\n      tag_5\n      jump\t// in\n    tag_211:\n      0x1f\n      dup2\n      gt\n      tag_212\n      jumpi\n    tag_213:\n      pop\n      0x20\n      swap1\n      0x1f\n      dup4\n      gt\n      0x01\n      eq\n      tag_214\n      jumpi\n      swap3\n      tag_216\n      dup4\n      0x01\n      swap6\n      swap5\n      0x20\n      swap5\n      dup8\n      swap7\n      0x00\n      swap3\n      tag_217\n      jumpi\n      pop\n      pop\n      dup2\n      0x01\n      shl\n      swap2\n      not(0x00)\n      swap1\n      0x03\n      shl\n      shr\n      not\n      and\n      or\n      swap1\n      jump\n    tag_216:\n      dup8\n      sstore\n    tag_219:\n      add\n      swap5\n      add\n      swap2\n      add\n      swap1\n      swap3\n      jump(tag_206)\n    tag_217:\n      add\n      mload\n      swap1\n      pop\n      0x00\n      dup1\n      jump(tag_178)\n    tag_214:\n      swap1\n      not(0x1f)\n      dup4\n      and\n      swap2\n      dup8\n      0x00\n      mstore\n      dup2\n      0x00\n      keccak256\n      swap3\n      0x00\n    tag_220:\n      dup2\n      dup2\n      lt\n      tag_221\n      jumpi\n      pop\n      swap4\n      0x20\n      swap4\n      0x01\n      swap7\n      swap4\n      dup8\n      swap7\n      swap4\n      dup4\n      dup9\n      swap6\n      lt\n      tag_223\n      jumpi\n    tag_224:\n      pop\n      pop\n      pop\n      dup2\n      shl\n      add\n      dup8\n      sstore\n      jump(tag_219)\n    tag_223:\n      add\n      mload\n      not(0x00)\n      0xf8\n      dup5\n      0x03\n      shl\n      and\n      shr\n      not\n      and\n      swap1\n      sstore\n      0x00\n      dup1\n      dup1\n      jump(tag_224)\n    tag_221:\n      swap3\n      swap4\n      0x20\n      0x01\n      dup2\n      swap3\n      dup8\n      dup7\n      add\n      mload\n      dup2\n      sstore\n      add\n      swap6\n      add\n      swap4\n      add\n      jump(tag_220)\n    tag_212:\n      tag_225\n      swap1\n      dup8\n      0x00\n      mstore\n      keccak256(0x00, 0x20)\n      0x1f\n      dup6\n      add\n      0x05\n      shr\n      dup2\n      add\n      swap2\n      0x20\n      dup7\n      lt\n      tag_226\n      jumpi\n    tag_227:\n      0x1f\n      add\n      0x05\n      shr\n      add\n      swap1\n      tag_13\n      jump\t// in\n    tag_225:\n      0x00\n      jump(tag_213)\n    tag_226:\n      swap1\n      swap2\n      pop\n      dup2\n      swap1\n      jump(tag_227)\n    tag_204:\n      dup4\n      0x00\n      mstore\n      dup3\n      keccak256(0x00, 0x20)\n      swap2\n      dup3\n      add\n      swap2\n      add\n    tag_228:\n      dup2\n      dup2\n      lt\n      tag_229\n      jumpi\n      pop\n      jump(tag_205)\n    tag_229:\n      dup1\n      tag_231\n      0x01\n      swap3\n      sload\n      tag_5\n      jump\t// in\n    tag_231:\n      dup1\n      tag_232\n      jumpi\n    tag_233:\n      pop\n      add\n      jump(tag_228)\n    tag_232:\n      0x1f\n      dup2\n      gt\n      dup4\n      eq\n      tag_234\n      jumpi\n      pop\n      0x00\n      dup2\n      sstore\n    tag_236:\n      0x00\n      jump(tag_233)\n    tag_234:\n      tag_237\n      swap1\n      dup3\n      0x00\n      mstore\n      dup4\n      0x1f\n      keccak256(0x00, 0x20)\n      swap3\n      add\n      0x05\n      shr\n      dup3\n      add\n      swap2\n      add\n      tag_13\n      jump\t// in\n    tag_237:\n      dup1\n      0x00\n      mstore\n      0x00\n      0x20\n      dup2\n      keccak256\n      dup2\n      dup4\n      sstore\n      sstore\n      jump(tag_236)\n    tag_196:\n      swap1\n      not(0x1f)\n      dup4\n      and\n      swap2\n      dup5\n      0x00\n      mstore\n      dup2\n      0x00\n      keccak256\n      swap3\n      0x00\n    tag_238:\n      dup2\n      dup2\n      lt\n      tag_239\n      jumpi\n      pop\n      swap1\n      dup5\n      0x01\n      swap6\n      swap5\n      swap4\n      swap3\n      lt\n      tag_241\n      jumpi\n    tag_242:\n      pop\n      pop\n      pop\n      dup2\n      shl\n      add\n      swap1\n      sstore\n      jump(tag_201)\n    tag_241:\n      add\n      mload\n      not(0x00)\n      0xf8\n      dup5\n      0x03\n      shl\n      and\n      shr\n      not\n      and\n      swap1\n      sstore\n      0x00\n      dup1\n      dup1\n      jump(tag_242)\n    tag_239:\n      swap3\n      swap4\n      0x20\n      0x01\n      dup2\n      swap3\n      dup8\n      dup7\n      add\n      mload\n      dup2\n      sstore\n      add\n      swap6\n      add\n      swap4\n      add\n      jump(tag_238)\n    tag_194:\n      tag_243\n      swap1\n      dup5\n      0x00\n      mstore\n      keccak256(0x00, 0x20)\n      0x1f\n      dup6\n      add\n      0x05\n      shr\n      dup2\n      add\n      swap2\n      0x20\n      dup7\n      lt\n      tag_226\n      jumpi\n      0x1f\n      add\n      0x05\n      shr\n      add\n      swap1\n      tag_13\n      jump\t// in\n    tag_243:\n      0x00\n      jump(tag_195)\n    tag_185:\n      swap1\n      not(0x1f)\n      dup4\n      and\n      swap2\n      dup5\n      0x00\n      mstore\n      dup2\n      0x00\n      keccak256\n      swap3\n      0x00\n    tag_246:\n      dup2\n      dup2\n      lt\n      tag_247\n      jumpi\n      pop\n      swap1\n      dup5\n      0x01\n      swap6\n      swap5\n      swap4\n      swap3\n      lt\n      tag_249\n      jumpi\n    tag_250:\n      pop\n      pop\n      pop\n      dup2\n      shl\n      add\n      swap1\n      sstore\n      jump(tag_190)\n    tag_249:\n      add\n      mload\n      not(0x00)\n      0xf8\n      dup5\n      0x03\n      shl\n      and\n      shr\n      not\n      and\n      swap1\n      sstore\n      0x00\n      dup1\n      dup1\n      jump(tag_250)\n    tag_247:\n      swap3\n      swap4\n      0x20\n      0x01\n      dup2\n      swap3\n      dup8\n      dup7\n      add\n      mload\n      dup2\n      sstore\n      add\n      swap6\n      add\n      swap4\n      add\n      jump(tag_246)\n    tag_183:\n      tag_251\n      swap1\n      dup5\n      0x00\n      mstore\n      keccak256(0x00, 0x20)\n      0x1f\n      dup6\n      add\n      0x05\n      shr\n      dup2\n      add\n      swap2\n      0x20\n      dup7\n      lt\n      tag_226\n      jumpi\n      0x1f\n      add\n      0x05\n      shr\n      add\n      swap1\n      tag_13\n      jump\t// in\n    tag_251:\n      0x00\n      jump(tag_184)\n    tag_174:\n      not(0x1f)\n      dup3\n      and\n      swap6\n      dup5\n      0x00\n      mstore\n      dup1\n      0x00\n      keccak256\n      swap2\n      0x00\n    tag_254:\n      dup9\n      dup2\n      lt\n      tag_255\n      jumpi\n      pop\n      dup4\n      0x01\n      swap6\n      swap7\n      swap8\n      swap9\n      lt\n      tag_257\n      jumpi\n    tag_258:\n      pop\n      pop\n      pop\n      dup2\n      shl\n      add\n      dup3\n      sstore\n      jump(tag_179)\n    tag_257:\n      add\n      mload\n      not(0x00)\n      0xf8\n      dup5\n      0x03\n      shl\n      and\n      shr\n      not\n      and\n      swap1\n      sstore\n      0x00\n      dup1\n      dup1\n      jump(tag_258)\n    tag_255:\n      swap2\n      swap3\n      0x20\n      0x01\n      dup2\n      swap3\n      dup7\n      dup6\n      add\n      mload\n      dup2\n      sstore\n      add\n      swap5\n      add\n      swap3\n      add\n      jump(tag_254)\n    tag_172:\n      tag_259\n      swap1\n      dup5\n      0x00\n      mstore\n      keccak256(0x00, 0x20)\n      0x1f\n      dup5\n      add\n      0x05\n      shr\n      dup2\n      add\n      swap2\n      0x20\n      dup6\n      lt\n      tag_226\n      jumpi\n      0x1f\n      add\n      0x05\n      shr\n      add\n      swap1\n      tag_13\n      jump\t// in\n    tag_259:\n      0x00\n      jump(tag_173)\n    tag_16:\n      swap1\n      mload(0x40)\n      tag_262\n      dup2\n      tag_1\n      jump\t// in\n    tag_262:\n      dup1\n      swap3\n      tag_263\n      dup2\n      tag_6\n      jump\t// in\n    tag_263:\n      dup3\n      mstore\n      tag_264\n      0x01\n      dup3\n      add\n      tag_6\n      jump\t// in\n    tag_264:\n      0x20\n      dup4\n      add\n      mstore\n      0x02\n      dup2\n      add\n      sload\n      0x40\n      dup4\n      add\n      mstore\n      0x03\n      dup2\n      add\n      sload\n      sub(shl(0xa0, 0x01), 0x01)\n      and\n      0x60\n      dup4\n      add\n      mstore\n      tag_265\n      0x04\n      dup3\n      add\n      tag_6\n      jump\t// in\n    tag_265:\n      0x80\n      dup4\n      add\n      mstore\n      0x05\n      dup2\n      add\n      dup1\n      sload\n      tag_266\n      dup2\n      tag_12\n      jump\t// in\n    tag_266:\n      swap2\n      tag_267\n      mload(0x40)\n      swap4\n      dup5\n      tag_2\n      jump\t// in\n    tag_267:\n      dup2\n      dup4\n      mstore\n      0x20\n      dup4\n      add\n      swap1\n      0x00\n      mstore\n      keccak256(0x00, 0x20)\n      0x00\n      swap2\n    tag_268:\n      dup4\n      dup4\n      lt\n      tag_269\n      jumpi\n      pop\n      pop\n      pop\n      pop\n      0xc0\n      swap2\n      0x06\n      swap2\n      0xa0\n      dup6\n      add\n      mstore\n      add\n      sload\n      swap2\n      add\n      mstore\n      jump\t// out\n    tag_269:\n      0x01\n      0x20\n      dup2\n      swap3\n      tag_271\n      dup6\n      tag_6\n      jump\t// in\n    tag_271:\n      dup2\n      mstore\n      add\n      swap3\n      add\n      swap3\n      add\n      swap2\n      swap1\n      jump(tag_268)\n\n    auxdata: 0xa2646970667358221220c1c1611bcba45c66a3d4011aa377d49b8b6e6b0f28c9a028f2de26acd4ab6f9d64736f6c634300081a0033\n}\n",
				"bytecode": {
					"linkReferences": {},
					"object": "60808060405234601557610e0b908161001a8239f35b5f80fdfe60806040526004361015610011575f80fd5b5f3560e01c80631d785ed3146104a357806337903f88146102a357806359889291146101a1578063ae945443146100f25763c99960d314610050575f80fd5b346100ee5760203660031901126100ee576004356001600160401b0381116100ee576100d660206100886100ea9336906004016106e4565b91905f60c0604051610099816104f6565b6060815260608582015282604082015282606082015260606080820152606060a0820152015282604051938492833781015f815203019020610d14565b604051918291602083526020830190610711565b0390f35b5f80fd5b346100ee5760403660031901126100ee576004356001600160401b0381116100ee57610122903690600401610577565b604051815160243592602091839181908401835e810160018152030190209081548110156100ee57610153916107d9565b5061015d816105cd565b6100ea61016c600184016105cd565b60028401546003850154919490916001600160a01b03166006610191600484016105cd565b9201549260405196879687610691565b346100ee5760203660031901126100ee576004356001600160401b0381116100ee5760206101d481923690600401610577565b604051928184925191829101835e810160018152030190208054906101f882610806565b916102066040519384610511565b8083526020830180925f5260205f205f915b83831061028557848660405191829160208301906020845251809152604083019060408160051b85010192915f905b82821061025657505050500390f35b919360019193955060206102758192603f198a82030186528851610711565b9601920192018594939192610247565b6007602060019261029585610d14565b815201920192019190610218565b346100ee5760a03660031901126100ee576004356001600160401b0381116100ee576102d39036906004016106e4565b6024356001600160401b0381116100ee576102f29036906004016106e4565b916044356001600160401b0381116100ee576103129036906004016106e4565b94906064356001600160401b0381116100ee57366023820112156100ee578060040135916001600160401b0383116100ee5760248360051b830101903682116100ee5797949392919061039d604051998a9761036d896104f6565b610378368989610532565b8952610385368c8c610532565b60208a01524260408a01523360608a01523691610532565b60808701526103ab83610806565b926103b96040519485610511565b83526024820191602084015b82841061046657878a60208b6103fd848c848d8d60a085015260843560c085015282604051938492833781015f815203019020610833565b826040519384928337810160018152030190208054600160401b8110156104525761042d916001820181556107d9565b91909161043f5761043d91610833565b005b634e487b7160e01b5f525f60045260245ffd5b634e487b7160e01b5f52604160045260245ffd5b909192809495969750356001600160401b0381116100ee57602091610492839260243691870101610577565b8152019301919089969594936103c5565b346100ee5760203660031901126100ee576004356001600160401b0381116100ee5760206104d681923690600401610577565b604051928184925191829101835e81015f81520301902061015d816105cd565b60e081019081106001600160401b0382111761045257604052565b90601f801991011681019081106001600160401b0382111761045257604052565b9291926001600160401b038211610452576040519161055b601f8201601f191660200184610511565b8294818452818301116100ee578281602093845f960137010152565b9080601f830112156100ee5781602061059293359101610532565b90565b90600182811c921680156105c3575b60208310146105af57565b634e487b7160e01b5f52602260045260245ffd5b91607f16916105a4565b9060405191825f8254926105e084610595565b808452936001811690811561064b5750600114610607575b5061060592500383610511565b565b90505f9291925260205f20905f915b81831061062f575050906020610605928201015f6105f8565b6020919350806001915483858901015201910190918492610616565b90506020925061060594915060ff191682840152151560051b8201015f6105f8565b805180835260209291819084018484015e5f828201840152601f01601f1916010190565b96959490936106c06106df94936106b260a09760c08c5260c08c019061066d565b908a820360208c015261066d565b926040890152600180861b03166060880152868203608088015261066d565b930152565b9181601f840112156100ee578235916001600160401b0383116100ee57602083818601950101116100ee57565b9061076b61073d61072b845160e0855260e085019061066d565b6020850151848203602086015261066d565b6040840151604084015260018060a01b0360608501511660608401526080840151838203608085015261066d565b9160a08101519282810360a0840152835180825260208201916020808360051b8301019601925f915b8383106107ac57505050505060c08091015191015290565b90919293966020806107ca600193601f198682030187528b5161066d565b99019301930191939290610794565b80548210156107f2575f52600760205f20910201905f90565b634e487b7160e01b5f52603260045260245ffd5b6001600160401b0381116104525760051b60200190565b818110610828575050565b5f815560010161081d565b91909182519283516001600160401b038111610452576108538354610595565b601f8111610ce4575b50602094601f8211600114610c835761088f9293949582915f92610a37575b50508160011b915f199060031b1c19161790565b82555b6001820160208201518051906001600160401b038211610452576108b68354610595565b601f8111610c53575b50602090601f8311600114610bf0576108ee92915f9183610a375750508160011b915f199060031b1c19161790565b90555b604081015160028301556003820160018060a01b036060830151166bffffffffffffffffffffffff60a01b8254161790556004820160808201518051906001600160401b038211610452576109468354610595565b601f8111610bc0575b50602090601f8311600114610b5d5761097e92915f9183610a375750508160011b915f199060031b1c19161790565b90555b6005820160a0820151805190600160401b8211610452578254828455808310610ae6575b50602001915f5260205f20915f905b8282106109cb575050505060c06006910151910155565b80518051906001600160401b038211610452576109e88654610595565b601f8111610aab575b50602090601f8311600114610a425792610a28836001959460209487965f92610a375750508160011b915f199060031b1c19161790565b87555b019401910190926109b4565b015190505f8061087b565b90601f19831691875f52815f20925f5b818110610a935750936020936001969387969383889510610a7b575b505050811b018755610a2b565b01515f1960f88460031b161c191690555f8080610a6e565b92936020600181928786015181550195019301610a52565b610ad690875f5260205f20601f850160051c81019160208610610adc575b601f0160051c019061081d565b5f6109f1565b9091508190610ac9565b835f528260205f2091820191015b818110610b0157506109a5565b80610b0e60019254610595565b80610b1b575b5001610af4565b601f81118314610b3057505f81555b5f610b14565b610b4c90825f5283601f60205f20920160051c8201910161081d565b805f525f6020812081835555610b2a565b90601f19831691845f52815f20925f5b818110610ba85750908460019594939210610b90575b505050811b019055610981565b01515f1960f88460031b161c191690555f8080610b83565b92936020600181928786015181550195019301610b6d565b610bea90845f5260205f20601f850160051c81019160208610610adc57601f0160051c019061081d565b5f61094f565b90601f19831691845f52815f20925f5b818110610c3b5750908460019594939210610c23575b505050811b0190556108f1565b01515f1960f88460031b161c191690555f8080610c16565b92936020600181928786015181550195019301610c00565b610c7d90845f5260205f20601f850160051c81019160208610610adc57601f0160051c019061081d565b5f6108bf565b601f19821695845f52805f20915f5b888110610ccc57508360019596979810610cb4575b505050811b018255610892565b01515f1960f88460031b161c191690555f8080610ca7565b91926020600181928685015181550194019201610c92565b610d0e90845f5260205f20601f840160051c81019160208510610adc57601f0160051c019061081d565b5f61085c565b90604051610d21816104f6565b8092610d2c816105cd565b8252610d3a600182016105cd565b60208301526002810154604083015260038101546001600160a01b03166060830152610d68600482016105cd565b6080830152600581018054610d7c81610806565b91610d8a6040519384610511565b81835260208301905f5260205f205f915b838310610db8575050505060c09160069160a08501520154910152565b600160208192610dc7856105cd565b815201920192019190610d9b56fea2646970667358221220c1c1611bcba45c66a3d4011aa377d49b8b6e6b0f28c9a028f2de26acd4ab6f9d64736f6c634300081a0033",
					"opcodes": "PUSH1 0x80 DUP1 PUSH1 0x40 MSTORE CALLVALUE PUSH1 0x15 JUMPI PUSH2 0xE0B SWAP1 DUP2 PUSH2 0x1A DUP3 CODECOPY RETURN JUMPDEST PUSH0 DUP1 REVERT INVALID PUSH1 0x80 PUSH1 0x40 MSTORE PUSH1 0x4 CALLDATASIZE LT ISZERO PUSH2 0x11 JUMPI PUSH0 DUP1 REVERT JUMPDEST PUSH0 CALLDATALOAD PUSH1 0xE0 SHR DUP1 PUSH4 0x1D785ED3 EQ PUSH2 0x4A3 JUMPI DUP1 PUSH4 0x37903F88 EQ PUSH2 0x2A3 JUMPI DUP1 PUSH4 0x59889291 EQ PUSH2 0x1A1 JUMPI DUP1 PUSH4 0xAE945443 EQ PUSH2 0xF2 JUMPI PUSH4 0xC99960D3 EQ PUSH2 0x50 JUMPI PUSH0 DUP1 REVERT JUMPDEST CALLVALUE PUSH2 0xEE JUMPI PUSH1 0x20 CALLDATASIZE PUSH1 0x3 NOT ADD SLT PUSH2 0xEE JUMPI PUSH1 0x4 CALLDATALOAD PUSH1 0x1 PUSH1 0x1 PUSH1 0x40 SHL SUB DUP2 GT PUSH2 0xEE JUMPI PUSH2 0xD6 PUSH1 0x20 PUSH2 0x88 PUSH2 0xEA SWAP4 CALLDATASIZE SWAP1 PUSH1 0x4 ADD PUSH2 0x6E4 JUMP JUMPDEST SWAP2 SWAP1 PUSH0 PUSH1 0xC0 PUSH1 0x40 MLOAD PUSH2 0x99 DUP2 PUSH2 0x4F6 JUMP JUMPDEST PUSH1 0x60 DUP2 MSTORE PUSH1 0x60 DUP6 DUP3 ADD MSTORE DUP3 PUSH1 0x40 DUP3 ADD MSTORE DUP3 PUSH1 0x60 DUP3 ADD MSTORE PUSH1 0x60 PUSH1 0x80 DUP3 ADD MSTORE PUSH1 0x60 PUSH1 0xA0 DUP3 ADD MSTORE ADD MSTORE DUP3 PUSH1 0x40 MLOAD SWAP4 DUP5 SWAP3 DUP4 CALLDATACOPY DUP2 ADD PUSH0 DUP2 MSTORE SUB ADD SWAP1 KECCAK256 PUSH2 0xD14 JUMP JUMPDEST PUSH1 0x40 MLOAD SWAP2 DUP3 SWAP2 PUSH1 0x20 DUP4 MSTORE PUSH1 0x20 DUP4 ADD SWAP1 PUSH2 0x711 JUMP JUMPDEST SUB SWAP1 RETURN JUMPDEST PUSH0 DUP1 REVERT JUMPDEST CALLVALUE PUSH2 0xEE JUMPI PUSH1 0x40 CALLDATASIZE PUSH1 0x3 NOT ADD SLT PUSH2 0xEE JUMPI PUSH1 0x4 CALLDATALOAD PUSH1 0x1 PUSH1 0x1 PUSH1 0x40 SHL SUB DUP2 GT PUSH2 0xEE JUMPI PUSH2 0x122 SWAP1 CALLDATASIZE SWAP1 PUSH1 0x4 ADD PUSH2 0x577 JUMP JUMPDEST PUSH1 0x40 MLOAD DUP2 MLOAD PUSH1 0x24 CALLDATALOAD SWAP3 PUSH1 0x20 SWAP2 DUP4 SWAP2 DUP2 SWAP1 DUP5 ADD DUP4 MCOPY DUP2 ADD PUSH1 0x1 DUP2 MSTORE SUB ADD SWAP1 KECCAK256 SWAP1 DUP2 SLOAD DUP2 LT ISZERO PUSH2 0xEE JUMPI PUSH2 0x153 SWAP2 PUSH2 0x7D9 JUMP JUMPDEST POP PUSH2 0x15D DUP2 PUSH2 0x5CD JUMP JUMPDEST PUSH2 0xEA PUSH2 0x16C PUSH1 0x1 DUP5 ADD PUSH2 0x5CD JUMP JUMPDEST PUSH1 0x2 DUP5 ADD SLOAD PUSH1 0x3 DUP6 ADD SLOAD SWAP2 SWAP5 SWAP1 SWAP2 PUSH1 0x1 PUSH1 0x1 PUSH1 0xA0 SHL SUB AND PUSH1 0x6 PUSH2 0x191 PUSH1 0x4 DUP5 ADD PUSH2 0x5CD JUMP JUMPDEST SWAP3 ADD SLOAD SWAP3 PUSH1 0x40 MLOAD SWAP7 DUP8 SWAP7 DUP8 PUSH2 0x691 JUMP JUMPDEST CALLVALUE PUSH2 0xEE JUMPI PUSH1 0x20 CALLDATASIZE PUSH1 0x3 NOT ADD SLT PUSH2 0xEE JUMPI PUSH1 0x4 CALLDATALOAD PUSH1 0x1 PUSH1 0x1 PUSH1 0x40 SHL SUB DUP2 GT PUSH2 0xEE JUMPI PUSH1 0x20 PUSH2 0x1D4 DUP2 SWAP3 CALLDATASIZE SWAP1 PUSH1 0x4 ADD PUSH2 0x577 JUMP JUMPDEST PUSH1 0x40 MLOAD SWAP3 DUP2 DUP5 SWAP3 MLOAD SWAP2 DUP3 SWAP2 ADD DUP4 MCOPY DUP2 ADD PUSH1 0x1 DUP2 MSTORE SUB ADD SWAP1 KECCAK256 DUP1 SLOAD SWAP1 PUSH2 0x1F8 DUP3 PUSH2 0x806 JUMP JUMPDEST SWAP2 PUSH2 0x206 PUSH1 0x40 MLOAD SWAP4 DUP5 PUSH2 0x511 JUMP JUMPDEST DUP1 DUP4 MSTORE PUSH1 0x20 DUP4 ADD DUP1 SWAP3 PUSH0 MSTORE PUSH1 0x20 PUSH0 KECCAK256 PUSH0 SWAP2 JUMPDEST DUP4 DUP4 LT PUSH2 0x285 JUMPI DUP5 DUP7 PUSH1 0x40 MLOAD SWAP2 DUP3 SWAP2 PUSH1 0x20 DUP4 ADD SWAP1 PUSH1 0x20 DUP5 MSTORE MLOAD DUP1 SWAP2 MSTORE PUSH1 0x40 DUP4 ADD SWAP1 PUSH1 0x40 DUP2 PUSH1 0x5 SHL DUP6 ADD ADD SWAP3 SWAP2 PUSH0 SWAP1 JUMPDEST DUP3 DUP3 LT PUSH2 0x256 JUMPI POP POP POP POP SUB SWAP1 RETURN JUMPDEST SWAP2 SWAP4 PUSH1 0x1 SWAP2 SWAP4 SWAP6 POP PUSH1 0x20 PUSH2 0x275 DUP2 SWAP3 PUSH1 0x3F NOT DUP11 DUP3 SUB ADD DUP7 MSTORE DUP9 MLOAD PUSH2 0x711 JUMP JUMPDEST SWAP7 ADD SWAP3 ADD SWAP3 ADD DUP6 SWAP5 SWAP4 SWAP2 SWAP3 PUSH2 0x247 JUMP JUMPDEST PUSH1 0x7 PUSH1 0x20 PUSH1 0x1 SWAP3 PUSH2 0x295 DUP6 PUSH2 0xD14 JUMP JUMPDEST DUP2 MSTORE ADD SWAP3 ADD SWAP3 ADD SWAP2 SWAP1 PUSH2 0x218 JUMP JUMPDEST CALLVALUE PUSH2 0xEE JUMPI PUSH1 0xA0 CALLDATASIZE PUSH1 0x3 NOT ADD SLT PUSH2 0xEE JUMPI PUSH1 0x4 CALLDATALOAD PUSH1 0x1 PUSH1 0x1 PUSH1 0x40 SHL SUB DUP2 GT PUSH2 0xEE JUMPI PUSH2 0x2D3 SWAP1 CALLDATASIZE SWAP1 PUSH1 0x4 ADD PUSH2 0x6E4 JUMP JUMPDEST PUSH1 0x24 CALLDATALOAD PUSH1 0x1 PUSH1 0x1 PUSH1 0x40 SHL SUB DUP2 GT PUSH2 0xEE JUMPI PUSH2 0x2F2 SWAP1 CALLDATASIZE SWAP1 PUSH1 0x4 ADD PUSH2 0x6E4 JUMP JUMPDEST SWAP2 PUSH1 0x44 CALLDATALOAD PUSH1 0x1 PUSH1 0x1 PUSH1 0x40 SHL SUB DUP2 GT PUSH2 0xEE JUMPI PUSH2 0x312 SWAP1 CALLDATASIZE SWAP1 PUSH1 0x4 ADD PUSH2 0x6E4 JUMP JUMPDEST SWAP5 SWAP1 PUSH1 0x64 CALLDATALOAD PUSH1 0x1 PUSH1 0x1 PUSH1 0x40 SHL SUB DUP2 GT PUSH2 0xEE JUMPI CALLDATASIZE PUSH1 0x23 DUP3 ADD SLT ISZERO PUSH2 0xEE JUMPI DUP1 PUSH1 0x4 ADD CALLDATALOAD SWAP2 PUSH1 0x1 PUSH1 0x1 PUSH1 0x40 SHL SUB DUP4 GT PUSH2 0xEE JUMPI PUSH1 0x24 DUP4 PUSH1 0x5 SHL DUP4 ADD ADD SWAP1 CALLDATASIZE DUP3 GT PUSH2 0xEE JUMPI SWAP8 SWAP5 SWAP4 SWAP3 SWAP2 SWAP1 PUSH2 0x39D PUSH1 0x40 MLOAD SWAP10 DUP11 SWAP8 PUSH2 0x36D DUP10 PUSH2 0x4F6 JUMP JUMPDEST PUSH2 0x378 CALLDATASIZE DUP10 DUP10 PUSH2 0x532 JUMP JUMPDEST DUP10 MSTORE PUSH2 0x385 CALLDATASIZE DUP13 DUP13 PUSH2 0x532 JUMP JUMPDEST PUSH1 0x20 DUP11 ADD MSTORE TIMESTAMP PUSH1 0x40 DUP11 ADD MSTORE CALLER PUSH1 0x60 DUP11 ADD MSTORE CALLDATASIZE SWAP2 PUSH2 0x532 JUMP JUMPDEST PUSH1 0x80 DUP8 ADD MSTORE PUSH2 0x3AB DUP4 PUSH2 0x806 JUMP JUMPDEST SWAP3 PUSH2 0x3B9 PUSH1 0x40 MLOAD SWAP5 DUP6 PUSH2 0x511 JUMP JUMPDEST DUP4 MSTORE PUSH1 0x24 DUP3 ADD SWAP2 PUSH1 0x20 DUP5 ADD JUMPDEST DUP3 DUP5 LT PUSH2 0x466 JUMPI DUP8 DUP11 PUSH1 0x20 DUP12 PUSH2 0x3FD DUP5 DUP13 DUP5 DUP14 DUP14 PUSH1 0xA0 DUP6 ADD MSTORE PUSH1 0x84 CALLDATALOAD PUSH1 0xC0 DUP6 ADD MSTORE DUP3 PUSH1 0x40 MLOAD SWAP4 DUP5 SWAP3 DUP4 CALLDATACOPY DUP2 ADD PUSH0 DUP2 MSTORE SUB ADD SWAP1 KECCAK256 PUSH2 0x833 JUMP JUMPDEST DUP3 PUSH1 0x40 MLOAD SWAP4 DUP5 SWAP3 DUP4 CALLDATACOPY DUP2 ADD PUSH1 0x1 DUP2 MSTORE SUB ADD SWAP1 KECCAK256 DUP1 SLOAD PUSH1 0x1 PUSH1 0x40 SHL DUP2 LT ISZERO PUSH2 0x452 JUMPI PUSH2 0x42D SWAP2 PUSH1 0x1 DUP3 ADD DUP2 SSTORE PUSH2 0x7D9 JUMP JUMPDEST SWAP2 SWAP1 SWAP2 PUSH2 0x43F JUMPI PUSH2 0x43D SWAP2 PUSH2 0x833 JUMP JUMPDEST STOP JUMPDEST PUSH4 0x4E487B71 PUSH1 0xE0 SHL PUSH0 MSTORE PUSH0 PUSH1 0x4 MSTORE PUSH1 0x24 PUSH0 REVERT JUMPDEST PUSH4 0x4E487B71 PUSH1 0xE0 SHL PUSH0 MSTORE PUSH1 0x41 PUSH1 0x4 MSTORE PUSH1 0x24 PUSH0 REVERT JUMPDEST SWAP1 SWAP2 SWAP3 DUP1 SWAP5 SWAP6 SWAP7 SWAP8 POP CALLDATALOAD PUSH1 0x1 PUSH1 0x1 PUSH1 0x40 SHL SUB DUP2 GT PUSH2 0xEE JUMPI PUSH1 0x20 SWAP2 PUSH2 0x492 DUP4 SWAP3 PUSH1 0x24 CALLDATASIZE SWAP2 DUP8 ADD ADD PUSH2 0x577 JUMP JUMPDEST DUP2 MSTORE ADD SWAP4 ADD SWAP2 SWAP1 DUP10 SWAP7 SWAP6 SWAP5 SWAP4 PUSH2 0x3C5 JUMP JUMPDEST CALLVALUE PUSH2 0xEE JUMPI PUSH1 0x20 CALLDATASIZE PUSH1 0x3 NOT ADD SLT PUSH2 0xEE JUMPI PUSH1 0x4 CALLDATALOAD PUSH1 0x1 PUSH1 0x1 PUSH1 0x40 SHL SUB DUP2 GT PUSH2 0xEE JUMPI PUSH1 0x20 PUSH2 0x4D6 DUP2 SWAP3 CALLDATASIZE SWAP1 PUSH1 0x4 ADD PUSH2 0x577 JUMP JUMPDEST PUSH1 0x40 MLOAD SWAP3 DUP2 DUP5 SWAP3 MLOAD SWAP2 DUP3 SWAP2 ADD DUP4 MCOPY DUP2 ADD PUSH0 DUP2 MSTORE SUB ADD SWAP1 KECCAK256 PUSH2 0x15D DUP2 PUSH2 0x5CD JUMP JUMPDEST PUSH1 0xE0 DUP2 ADD SWAP1 DUP2 LT PUSH1 0x1 PUSH1 0x1 PUSH1 0x40 SHL SUB DUP3 GT OR PUSH2 0x452 JUMPI PUSH1 0x40 MSTORE JUMP JUMPDEST SWAP1 PUSH1 0x1F DUP1 NOT SWAP2 ADD AND DUP2 ADD SWAP1 DUP2 LT PUSH1 0x1 PUSH1 0x1 PUSH1 0x40 SHL SUB DUP3 GT OR PUSH2 0x452 JUMPI PUSH1 0x40 MSTORE JUMP JUMPDEST SWAP3 SWAP2 SWAP3 PUSH1 0x1 PUSH1 0x1 PUSH1 0x40 SHL SUB DUP3 GT PUSH2 0x452 JUMPI PUSH1 0x40 MLOAD SWAP2 PUSH2 0x55B PUSH1 0x1F DUP3 ADD PUSH1 0x1F NOT AND PUSH1 0x20 ADD DUP5 PUSH2 0x511 JUMP JUMPDEST DUP3 SWAP5 DUP2 DUP5 MSTORE DUP2 DUP4 ADD GT PUSH2 0xEE JUMPI DUP3 DUP2 PUSH1 0x20 SWAP4 DUP5 PUSH0 SWAP7 ADD CALLDATACOPY ADD ADD MSTORE JUMP JUMPDEST SWAP1 DUP1 PUSH1 0x1F DUP4 ADD SLT ISZERO PUSH2 0xEE JUMPI DUP2 PUSH1 0x20 PUSH2 0x592 SWAP4 CALLDATALOAD SWAP2 ADD PUSH2 0x532 JUMP JUMPDEST SWAP1 JUMP JUMPDEST SWAP1 PUSH1 0x1 DUP3 DUP2 SHR SWAP3 AND DUP1 ISZERO PUSH2 0x5C3 JUMPI JUMPDEST PUSH1 0x20 DUP4 LT EQ PUSH2 0x5AF JUMPI JUMP JUMPDEST PUSH4 0x4E487B71 PUSH1 0xE0 SHL PUSH0 MSTORE PUSH1 0x22 PUSH1 0x4 MSTORE PUSH1 0x24 PUSH0 REVERT JUMPDEST SWAP2 PUSH1 0x7F AND SWAP2 PUSH2 0x5A4 JUMP JUMPDEST SWAP1 PUSH1 0x40 MLOAD SWAP2 DUP3 PUSH0 DUP3 SLOAD SWAP3 PUSH2 0x5E0 DUP5 PUSH2 0x595 JUMP JUMPDEST DUP1 DUP5 MSTORE SWAP4 PUSH1 0x1 DUP2 AND SWAP1 DUP2 ISZERO PUSH2 0x64B JUMPI POP PUSH1 0x1 EQ PUSH2 0x607 JUMPI JUMPDEST POP PUSH2 0x605 SWAP3 POP SUB DUP4 PUSH2 0x511 JUMP JUMPDEST JUMP JUMPDEST SWAP1 POP PUSH0 SWAP3 SWAP2 SWAP3 MSTORE PUSH1 0x20 PUSH0 KECCAK256 SWAP1 PUSH0 SWAP2 JUMPDEST DUP2 DUP4 LT PUSH2 0x62F JUMPI POP POP SWAP1 PUSH1 0x20 PUSH2 0x605 SWAP3 DUP3 ADD ADD PUSH0 PUSH2 0x5F8 JUMP JUMPDEST PUSH1 0x20 SWAP2 SWAP4 POP DUP1 PUSH1 0x1 SWAP2 SLOAD DUP4 DUP6 DUP10 ADD ADD MSTORE ADD SWAP2 ADD SWAP1 SWAP2 DUP5 SWAP3 PUSH2 0x616 JUMP JUMPDEST SWAP1 POP PUSH1 0x20 SWAP3 POP PUSH2 0x605 SWAP5 SWAP2 POP PUSH1 0xFF NOT AND DUP3 DUP5 ADD MSTORE ISZERO ISZERO PUSH1 0x5 SHL DUP3 ADD ADD PUSH0 PUSH2 0x5F8 JUMP JUMPDEST DUP1 MLOAD DUP1 DUP4 MSTORE PUSH1 0x20 SWAP3 SWAP2 DUP2 SWAP1 DUP5 ADD DUP5 DUP5 ADD MCOPY PUSH0 DUP3 DUP3 ADD DUP5 ADD MSTORE PUSH1 0x1F ADD PUSH1 0x1F NOT AND ADD ADD SWAP1 JUMP JUMPDEST SWAP7 SWAP6 SWAP5 SWAP1 SWAP4 PUSH2 0x6C0 PUSH2 0x6DF SWAP5 SWAP4 PUSH2 0x6B2 PUSH1 0xA0 SWAP8 PUSH1 0xC0 DUP13 MSTORE PUSH1 0xC0 DUP13 ADD SWAP1 PUSH2 0x66D JUMP JUMPDEST SWAP1 DUP11 DUP3 SUB PUSH1 0x20 DUP13 ADD MSTORE PUSH2 0x66D JUMP JUMPDEST SWAP3 PUSH1 0x40 DUP10 ADD MSTORE PUSH1 0x1 DUP1 DUP7 SHL SUB AND PUSH1 0x60 DUP9 ADD MSTORE DUP7 DUP3 SUB PUSH1 0x80 DUP9 ADD MSTORE PUSH2 0x66D JUMP JUMPDEST SWAP4 ADD MSTORE JUMP JUMPDEST SWAP2 DUP2 PUSH1 0x1F DUP5 ADD SLT ISZERO PUSH2 0xEE JUMPI DUP3 CALLDATALOAD SWAP2 PUSH1 0x1 PUSH1 0x1 PUSH1 0x40 SHL SUB DUP4 GT PUSH2 0xEE JUMPI PUSH1 0x20 DUP4 DUP2 DUP7 ADD SWAP6 ADD ADD GT PUSH2 0xEE JUMPI JUMP JUMPDEST SWAP1 PUSH2 0x76B PUSH2 0x73D PUSH2 0x72B DUP5 MLOAD PUSH1 0xE0 DUP6 MSTORE PUSH1 0xE0 DUP6 ADD SWAP1 PUSH2 0x66D JUMP JUMPDEST PUSH1 0x20 DUP6 ADD MLOAD DUP5 DUP3 SUB PUSH1 0x20 DUP7 ADD MSTORE PUSH2 0x66D JUMP JUMPDEST PUSH1 0x40 DUP5 ADD MLOAD PUSH1 0x40 DUP5 ADD MSTORE PUSH1 0x1 DUP1 PUSH1 0xA0 SHL SUB PUSH1 0x60 DUP6 ADD MLOAD AND PUSH1 0x60 DUP5 ADD MSTORE PUSH1 0x80 DUP5 ADD MLOAD DUP4 DUP3 SUB PUSH1 0x80 DUP6 ADD MSTORE PUSH2 0x66D JUMP JUMPDEST SWAP2 PUSH1 0xA0 DUP2 ADD MLOAD SWAP3 DUP3 DUP2 SUB PUSH1 0xA0 DUP5 ADD MSTORE DUP4 MLOAD DUP1 DUP3 MSTORE PUSH1 0x20 DUP3 ADD SWAP2 PUSH1 0x20 DUP1 DUP4 PUSH1 0x5 SHL DUP4 ADD ADD SWAP7 ADD SWAP3 PUSH0 SWAP2 JUMPDEST DUP4 DUP4 LT PUSH2 0x7AC JUMPI POP POP POP POP POP PUSH1 0xC0 DUP1 SWAP2 ADD MLOAD SWAP2 ADD MSTORE SWAP1 JUMP JUMPDEST SWAP1 SWAP2 SWAP3 SWAP4 SWAP7 PUSH1 0x20 DUP1 PUSH2 0x7CA PUSH1 0x1 SWAP4 PUSH1 0x1F NOT DUP7 DUP3 SUB ADD DUP8 MSTORE DUP12 MLOAD PUSH2 0x66D JUMP JUMPDEST SWAP10 ADD SWAP4 ADD SWAP4 ADD SWAP2 SWAP4 SWAP3 SWAP1 PUSH2 0x794 JUMP JUMPDEST DUP1 SLOAD DUP3 LT ISZERO PUSH2 0x7F2 JUMPI PUSH0 MSTORE PUSH1 0x7 PUSH1 0x20 PUSH0 KECCAK256 SWAP2 MUL ADD SWAP1 PUSH0 SWAP1 JUMP JUMPDEST PUSH4 0x4E487B71 PUSH1 0xE0 SHL PUSH0 MSTORE PUSH1 0x32 PUSH1 0x4 MSTORE PUSH1 0x24 PUSH0 REVERT JUMPDEST PUSH1 0x1 PUSH1 0x1 PUSH1 0x40 SHL SUB DUP2 GT PUSH2 0x452 JUMPI PUSH1 0x5 SHL PUSH1 0x20 ADD SWAP1 JUMP JUMPDEST DUP2 DUP2 LT PUSH2 0x828 JUMPI POP POP JUMP JUMPDEST PUSH0 DUP2 SSTORE PUSH1 0x1 ADD PUSH2 0x81D JUMP JUMPDEST SWAP2 SWAP1 SWAP2 DUP3 MLOAD SWAP3 DUP4 MLOAD PUSH1 0x1 PUSH1 0x1 PUSH1 0x40 SHL SUB DUP2 GT PUSH2 0x452 JUMPI PUSH2 0x853 DUP4 SLOAD PUSH2 0x595 JUMP JUMPDEST PUSH1 0x1F DUP2 GT PUSH2 0xCE4 JUMPI JUMPDEST POP PUSH1 0x20 SWAP5 PUSH1 0x1F DUP3 GT PUSH1 0x1 EQ PUSH2 0xC83 JUMPI PUSH2 0x88F SWAP3 SWAP4 SWAP5 SWAP6 DUP3 SWAP2 PUSH0 SWAP3 PUSH2 0xA37 JUMPI JUMPDEST POP POP DUP2 PUSH1 0x1 SHL SWAP2 PUSH0 NOT SWAP1 PUSH1 0x3 SHL SHR NOT AND OR SWAP1 JUMP JUMPDEST DUP3 SSTORE JUMPDEST PUSH1 0x1 DUP3 ADD PUSH1 0x20 DUP3 ADD MLOAD DUP1 MLOAD SWAP1 PUSH1 0x1 PUSH1 0x1 PUSH1 0x40 SHL SUB DUP3 GT PUSH2 0x452 JUMPI PUSH2 0x8B6 DUP4 SLOAD PUSH2 0x595 JUMP JUMPDEST PUSH1 0x1F DUP2 GT PUSH2 0xC53 JUMPI JUMPDEST POP PUSH1 0x20 SWAP1 PUSH1 0x1F DUP4 GT PUSH1 0x1 EQ PUSH2 0xBF0 JUMPI PUSH2 0x8EE SWAP3 SWAP2 PUSH0 SWAP2 DUP4 PUSH2 0xA37 JUMPI POP POP DUP2 PUSH1 0x1 SHL SWAP2 PUSH0 NOT SWAP1 PUSH1 0x3 SHL SHR NOT AND OR SWAP1 JUMP JUMPDEST SWAP1 SSTORE JUMPDEST PUSH1 0x40 DUP2 ADD MLOAD PUSH1 0x2 DUP4 ADD SSTORE PUSH1 0x3 DUP3 ADD PUSH1 0x1 DUP1 PUSH1 0xA0 SHL SUB PUSH1 0x60 DUP4 ADD MLOAD AND PUSH12 0xFFFFFFFFFFFFFFFFFFFFFFFF PUSH1 0xA0 SHL DUP3 SLOAD AND OR SWAP1 SSTORE PUSH1 0x4 DUP3 ADD PUSH1 0x80 DUP3 ADD MLOAD DUP1 MLOAD SWAP1 PUSH1 0x1 PUSH1 0x1 PUSH1 0x40 SHL SUB DUP3 GT PUSH2 0x452 JUMPI PUSH2 0x946 DUP4 SLOAD PUSH2 0x595 JUMP JUMPDEST PUSH1 0x1F DUP2 GT PUSH2 0xBC0 JUMPI JUMPDEST POP PUSH1 0x20 SWAP1 PUSH1 0x1F DUP4 GT PUSH1 0x1 EQ PUSH2 0xB5D JUMPI PUSH2 0x97E SWAP3 SWAP2 PUSH0 SWAP2 DUP4 PUSH2 0xA37 JUMPI POP POP DUP2 PUSH1 0x1 SHL SWAP2 PUSH0 NOT SWAP1 PUSH1 0x3 SHL SHR NOT AND OR SWAP1 JUMP JUMPDEST SWAP1 SSTORE JUMPDEST PUSH1 0x5 DUP3 ADD PUSH1 0xA0 DUP3 ADD MLOAD DUP1 MLOAD SWAP1 PUSH1 0x1 PUSH1 0x40 SHL DUP3 GT PUSH2 0x452 JUMPI DUP3 SLOAD DUP3 DUP5 SSTORE DUP1 DUP4 LT PUSH2 0xAE6 JUMPI JUMPDEST POP PUSH1 0x20 ADD SWAP2 PUSH0 MSTORE PUSH1 0x20 PUSH0 KECCAK256 SWAP2 PUSH0 SWAP1 JUMPDEST DUP3 DUP3 LT PUSH2 0x9CB JUMPI POP POP POP POP PUSH1 0xC0 PUSH1 0x6 SWAP2 ADD MLOAD SWAP2 ADD SSTORE JUMP JUMPDEST DUP1 MLOAD DUP1 MLOAD SWAP1 PUSH1 0x1 PUSH1 0x1 PUSH1 0x40 SHL SUB DUP3 GT PUSH2 0x452 JUMPI PUSH2 0x9E8 DUP7 SLOAD PUSH2 0x595 JUMP JUMPDEST PUSH1 0x1F DUP2 GT PUSH2 0xAAB JUMPI JUMPDEST POP PUSH1 0x20 SWAP1 PUSH1 0x1F DUP4 GT PUSH1 0x1 EQ PUSH2 0xA42 JUMPI SWAP3 PUSH2 0xA28 DUP4 PUSH1 0x1 SWAP6 SWAP5 PUSH1 0x20 SWAP5 DUP8 SWAP7 PUSH0 SWAP3 PUSH2 0xA37 JUMPI POP POP DUP2 PUSH1 0x1 SHL SWAP2 PUSH0 NOT SWAP1 PUSH1 0x3 SHL SHR NOT AND OR SWAP1 JUMP JUMPDEST DUP8 SSTORE JUMPDEST ADD SWAP5 ADD SWAP2 ADD SWAP1 SWAP3 PUSH2 0x9B4 JUMP JUMPDEST ADD MLOAD SWAP1 POP PUSH0 DUP1 PUSH2 0x87B JUMP JUMPDEST SWAP1 PUSH1 0x1F NOT DUP4 AND SWAP2 DUP8 PUSH0 MSTORE DUP2 PUSH0 KECCAK256 SWAP3 PUSH0 JUMPDEST DUP2 DUP2 LT PUSH2 0xA93 JUMPI POP SWAP4 PUSH1 0x20 SWAP4 PUSH1 0x1 SWAP7 SWAP4 DUP8 SWAP7 SWAP4 DUP4 DUP9 SWAP6 LT PUSH2 0xA7B JUMPI JUMPDEST POP POP POP DUP2 SHL ADD DUP8 SSTORE PUSH2 0xA2B JUMP JUMPDEST ADD MLOAD PUSH0 NOT PUSH1 0xF8 DUP5 PUSH1 0x3 SHL AND SHR NOT AND SWAP1 SSTORE PUSH0 DUP1 DUP1 PUSH2 0xA6E JUMP JUMPDEST SWAP3 SWAP4 PUSH1 0x20 PUSH1 0x1 DUP2 SWAP3 DUP8 DUP7 ADD MLOAD DUP2 SSTORE ADD SWAP6 ADD SWAP4 ADD PUSH2 0xA52 JUMP JUMPDEST PUSH2 0xAD6 SWAP1 DUP8 PUSH0 MSTORE PUSH1 0x20 PUSH0 KECCAK256 PUSH1 0x1F DUP6 ADD PUSH1 0x5 SHR DUP2 ADD SWAP2 PUSH1 0x20 DUP7 LT PUSH2 0xADC JUMPI JUMPDEST PUSH1 0x1F ADD PUSH1 0x5 SHR ADD SWAP1 PUSH2 0x81D JUMP JUMPDEST PUSH0 PUSH2 0x9F1 JUMP JUMPDEST SWAP1 SWAP2 POP DUP2 SWAP1 PUSH2 0xAC9 JUMP JUMPDEST DUP4 PUSH0 MSTORE DUP3 PUSH1 0x20 PUSH0 KECCAK256 SWAP2 DUP3 ADD SWAP2 ADD JUMPDEST DUP2 DUP2 LT PUSH2 0xB01 JUMPI POP PUSH2 0x9A5 JUMP JUMPDEST DUP1 PUSH2 0xB0E PUSH1 0x1 SWAP3 SLOAD PUSH2 0x595 JUMP JUMPDEST DUP1 PUSH2 0xB1B JUMPI JUMPDEST POP ADD PUSH2 0xAF4 JUMP JUMPDEST PUSH1 0x1F DUP2 GT DUP4 EQ PUSH2 0xB30 JUMPI POP PUSH0 DUP2 SSTORE JUMPDEST PUSH0 PUSH2 0xB14 JUMP JUMPDEST PUSH2 0xB4C SWAP1 DUP3 PUSH0 MSTORE DUP4 PUSH1 0x1F PUSH1 0x20 PUSH0 KECCAK256 SWAP3 ADD PUSH1 0x5 SHR DUP3 ADD SWAP2 ADD PUSH2 0x81D JUMP JUMPDEST DUP1 PUSH0 MSTORE PUSH0 PUSH1 0x20 DUP2 KECCAK256 DUP2 DUP4 SSTORE SSTORE PUSH2 0xB2A JUMP JUMPDEST SWAP1 PUSH1 0x1F NOT DUP4 AND SWAP2 DUP5 PUSH0 MSTORE DUP2 PUSH0 KECCAK256 SWAP3 PUSH0 JUMPDEST DUP2 DUP2 LT PUSH2 0xBA8 JUMPI POP SWAP1 DUP5 PUSH1 0x1 SWAP6 SWAP5 SWAP4 SWAP3 LT PUSH2 0xB90 JUMPI JUMPDEST POP POP POP DUP2 SHL ADD SWAP1 SSTORE PUSH2 0x981 JUMP JUMPDEST ADD MLOAD PUSH0 NOT PUSH1 0xF8 DUP5 PUSH1 0x3 SHL AND SHR NOT AND SWAP1 SSTORE PUSH0 DUP1 DUP1 PUSH2 0xB83 JUMP JUMPDEST SWAP3 SWAP4 PUSH1 0x20 PUSH1 0x1 DUP2 SWAP3 DUP8 DUP7 ADD MLOAD DUP2 SSTORE ADD SWAP6 ADD SWAP4 ADD PUSH2 0xB6D JUMP JUMPDEST PUSH2 0xBEA SWAP1 DUP5 PUSH0 MSTORE PUSH1 0x20 PUSH0 KECCAK256 PUSH1 0x1F DUP6 ADD PUSH1 0x5 SHR DUP2 ADD SWAP2 PUSH1 0x20 DUP7 LT PUSH2 0xADC JUMPI PUSH1 0x1F ADD PUSH1 0x5 SHR ADD SWAP1 PUSH2 0x81D JUMP JUMPDEST PUSH0 PUSH2 0x94F JUMP JUMPDEST SWAP1 PUSH1 0x1F NOT DUP4 AND SWAP2 DUP5 PUSH0 MSTORE DUP2 PUSH0 KECCAK256 SWAP3 PUSH0 JUMPDEST DUP2 DUP2 LT PUSH2 0xC3B JUMPI POP SWAP1 DUP5 PUSH1 0x1 SWAP6 SWAP5 SWAP4 SWAP3 LT PUSH2 0xC23 JUMPI JUMPDEST POP POP POP DUP2 SHL ADD SWAP1 SSTORE PUSH2 0x8F1 JUMP JUMPDEST ADD MLOAD PUSH0 NOT PUSH1 0xF8 DUP5 PUSH1 0x3 SHL AND SHR NOT AND SWAP1 SSTORE PUSH0 DUP1 DUP1 PUSH2 0xC16 JUMP JUMPDEST SWAP3 SWAP4 PUSH1 0x20 PUSH1 0x1 DUP2 SWAP3 DUP8 DUP7 ADD MLOAD DUP2 SSTORE ADD SWAP6 ADD SWAP4 ADD PUSH2 0xC00 JUMP JUMPDEST PUSH2 0xC7D SWAP1 DUP5 PUSH0 MSTORE PUSH1 0x20 PUSH0 KECCAK256 PUSH1 0x1F DUP6 ADD PUSH1 0x5 SHR DUP2 ADD SWAP2 PUSH1 0x20 DUP7 LT PUSH2 0xADC JUMPI PUSH1 0x1F ADD PUSH1 0x5 SHR ADD SWAP1 PUSH2 0x81D JUMP JUMPDEST PUSH0 PUSH2 0x8BF JUMP JUMPDEST PUSH1 0x1F NOT DUP3 AND SWAP6 DUP5 PUSH0 MSTORE DUP1 PUSH0 KECCAK256 SWAP2 PUSH0 JUMPDEST DUP9 DUP2 LT PUSH2 0xCCC JUMPI POP DUP4 PUSH1 0x1 SWAP6 SWAP7 SWAP8 SWAP9 LT PUSH2 0xCB4 JUMPI JUMPDEST POP POP POP DUP2 SHL ADD DUP3 SSTORE PUSH2 0x892 JUMP JUMPDEST ADD MLOAD PUSH0 NOT PUSH1 0xF8 DUP5 PUSH1 0x3 SHL AND SHR NOT AND SWAP1 SSTORE PUSH0 DUP1 DUP1 PUSH2 0xCA7 JUMP JUMPDEST SWAP2 SWAP3 PUSH1 0x20 PUSH1 0x1 DUP2 SWAP3 DUP7 DUP6 ADD MLOAD DUP2 SSTORE ADD SWAP5 ADD SWAP3 ADD PUSH2 0xC92 JUMP JUMPDEST PUSH2 0xD0E SWAP1 DUP5 PUSH0 MSTORE PUSH1 0x20 PUSH0 KECCAK256 PUSH1 0x1F DUP5 ADD PUSH1 0x5 SHR DUP2 ADD SWAP2 PUSH1 0x20 DUP6 LT PUSH2 0xADC JUMPI PUSH1 0x1F ADD PUSH1 0x5 SHR ADD SWAP1 PUSH2 0x81D JUMP JUMPDEST PUSH0 PUSH2 0x85C JUMP JUMPDEST SWAP1 PUSH1 0x40 MLOAD PUSH2 0xD21 DUP2 PUSH2 0x4F6 JUMP JUMPDEST DUP1 SWAP3 PUSH2 0xD2C DUP2 PUSH2 0x5CD JUMP JUMPDEST DUP3 MSTORE PUSH2 0xD3A PUSH1 0x1 DUP3 ADD PUSH2 0x5CD JUMP JUMPDEST PUSH1 0x20 DUP4 ADD MSTORE PUSH1 0x2 DUP2 ADD SLOAD PUSH1 0x40 DUP4 ADD MSTORE PUSH1 0x3 DUP2 ADD SLOAD PUSH1 0x1 PUSH1 0x1 PUSH1 0xA0 SHL SUB AND PUSH1 0x60 DUP4 ADD MSTORE PUSH2 0xD68 PUSH1 0x4 DUP3 ADD PUSH2 0x5CD JUMP JUMPDEST PUSH1 0x80 DUP4 ADD MSTORE PUSH1 0x5 DUP2 ADD DUP1 SLOAD PUSH2 0xD7C DUP2 PUSH2 0x806 JUMP JUMPDEST SWAP2 PUSH2 0xD8A PUSH1 0x40 MLOAD SWAP4 DUP5 PUSH2 0x511 JUMP JUMPDEST DUP2 DUP4 MSTORE PUSH1 0x20 DUP4 ADD SWAP1 PUSH0 MSTORE PUSH1 0x20 PUSH0 KECCAK256 PUSH0 SWAP2 JUMPDEST DUP4 DUP4 LT PUSH2 0xDB8 JUMPI POP POP POP POP PUSH1 0xC0 SWAP2 PUSH1 0x6 SWAP2 PUSH1 0xA0 DUP6 ADD MSTORE ADD SLOAD SWAP2 ADD MSTORE JUMP JUMPDEST PUSH1 0x1 PUSH1 0x20 DUP2 SWAP3 PUSH2 0xDC7 DUP6 PUSH2 0x5CD JUMP JUMPDEST DUP2 MSTORE ADD SWAP3 ADD SWAP3 ADD SWAP2 SWAP1 PUSH2 0xD9B JUMP INVALID LOG2 PUSH5 0x6970667358 0x22 SLT KECCAK256 0xC1 0xC1 PUSH2 0x1BCB LOG4 TLOAD PUSH7 0xA3D4011AA377D4 SWAP12 DUP12 PUSH15 0x6B0F28C9A028F2DE26ACD4AB6F9D64 PUSH20 0x6F6C634300081A00330000000000000000000000 "
				},
				"gasEstimates": {
					"creation": {
						"codeDepositCost": "719000",
						"executionCost": "761",
						"totalCost": "719761"
					},
					"external": {
						"CTIByTidList(string)": "infinite",
						"CTIByTipListGroup(string,uint256)": "infinite",
						"GetCTIByTid(string)": "infinite",
						"GetCTIByTip(string)": "infinite",
						"Register(string,string,string,string[],int256)": "infinite"
					}
				},
				"methodIdentifiers": {
					"CTIByTidList(string)": "1d785ed3",
					"CTIByTipListGroup(string,uint256)": "ae945443",
					"GetCTIByTid(string)": "c99960d3",
					"GetCTIByTip(string)": "59889291",
					"Register(string,string,string,string[],int256)": "37903f88"
				}
			},
			"storageLayout": {
				"storage": [
					{
						"astId": 23,
						"contract": "ctiIncentiveDedupRegistry/ThreatTest.sol:RegistCTI",
						"label": "CTIByTidList",
						"offset": 0,
						"slot": "0",
						"type": "t_mapping(t_string_memory_ptr,t_struct(CTI)18_storage)"
					},
					{
						"astId": 29,
						"contract": "ctiIncentiveDedupRegistry/ThreatTest.sol:RegistCTI",
						"label": "CTIByTipListGroup",
						"offset": 0,
						"slot": "1",
						"type": "t_mapping(t_string_memory_ptr,t_array(t_struct(CTI)18_storage)dyn_storage)"
					}
				],
				"types": {
					"t_address": {
						"encoding": "inplace",
						"label": "address",
						"numberOfBytes": "20"
					},
					"t_array(t_string_storage)dyn_storage": {
						"base": "t_string_storage",
						"encoding": "dynamic_array",
						"label": "string[]",
						"numberOfBytes": "32"
					},
					"t_array(t_struct(CTI)18_storage)dyn_storage": {
						"base": "t_struct(CTI)18_storage",
						"encoding": "dynamic_array",
						"label": "struct RegistCTI.CTI[]",
						"numberOfBytes": "32"
					},
					"t_int256": {
						"encoding": "inplace",
						"label": "int256",
						"numberOfBytes": "32"
					},
					"t_mapping(t_string_memory_ptr,t_array(t_struct(CTI)18_storage)dyn_storage)": {
						"encoding": "mapping",
						"key": "t_string_memory_ptr",
						"label": "mapping(string => struct RegistCTI.CTI[])",
						"numberOfBytes": "32",
						"value": "t_array(t_struct(CTI)18_storage)dyn_storage"
					},
					"t_mapping(t_string_memory_ptr,t_struct(CTI)18_storage)": {
						"encoding": "mapping",
						"key": "t_string_memory_ptr",
						"label": "mapping(string => struct RegistCTI.CTI)",
						"numberOfBytes": "32",
						"value": "t_struct(CTI)18_storage"
					},
					"t_string_memory_ptr": {
						"encoding": "bytes",
						"label": "string",
						"numberOfBytes": "32"
					},
					"t_string_storage": {
						"encoding": "bytes",
						"label": "string",
						"numberOfBytes": "32"
					},
					"t_struct(CTI)18_storage": {
						"encoding": "inplace",
						"label": "struct RegistCTI.CTI",
						"members": [
							{
								"astId": 4,
								"contract": "ctiIncentiveDedupRegistry/ThreatTest.sol:RegistCTI",
								"label": "tid",
								"offset": 0,
								"slot": "0",
								"type": "t_string_storage"
							},
							{
								"astId": 6,
								"contract": "ctiIncentiveDedupRegistry/ThreatTest.sol:RegistCTI",
								"label": "tip",
								"offset": 0,
								"slot": "1",
								"type": "t_string_storage"
							},
							{
								"astId": 8,
								"contract": "ctiIncentiveDedupRegistry/ThreatTest.sol:RegistCTI",
								"label": "register_time",
								"offset": 0,
								"slot": "2",
								"type": "t_uint256"
							},
							{
								"astId": 10,
								"contract": "ctiIncentiveDedupRegistry/ThreatTest.sol:RegistCTI",
								"label": "producer_address",
								"offset": 0,
								"slot": "3",
								"type": "t_address"
							},
							{
								"astId": 12,
								"contract": "ctiIncentiveDedupRegistry/ThreatTest.sol:RegistCTI",
								"label": "cti_hash",
								"offset": 0,
								"slot": "4",
								"type": "t_string_storage"
							},
							{
								"astId": 15,
								"contract": "ctiIncentiveDedupRegistry/ThreatTest.sol:RegistCTI",
								"label": "tags",
								"offset": 0,
								"slot": "5",
								"type": "t_array(t_string_storage)dyn_storage"
							},
							{
								"astId": 17,
								"contract": "ctiIncentiveDedupRegistry/ThreatTest.sol:RegistCTI",
								"label": "price",
								"offset": 0,
								"slot": "6",
								"type": "t_int256"
							}
						],
						"numberOfBytes": "224"
					},
					"t_uint256": {
						"encoding": "inplace",
						"label": "uint256",
						"numberOfBytes": "32"
					}
				}
			},
			"userdoc": {
				"kind": "user",
				"methods": {},
				"version": 1
			}
		}
	}
}