{
	"ctiIncentiveDedupRegistry/ctiIncentiveDedupRegistry.sol": {
		"RegistCTI": {
			"abi": [
				{
					"inputs": [
						{
							"internalType": "string",
							"name": "",
							"type": "string"
						}
					],
					"name": "CTIByTidList",
					"outputs": [
						{
							"internalType": "string",
							"name": "tid",
							"type": "string"
						},
						{
							"internalType": "string",
							"name": "tip",
							"type": "string"
						},
						{
							"internalType": "uint256",
							"name": "register_time",
							"type": "uint256"
						},
						{
							"internalType": "address",
							"name": "producer_address",
							"type": "address"
						},
						{
							"internalType": "string",
							"name": "cti_hash",
							"type": "string"
						},
						{
							"internalType": "int256",
							"name": "price",
							"type": "int256"
						},
						{
							"internalType": "string",
							"name": "ip",
							"type": "string"
						},
						{
							"internalType": "uint256",
							"name": "threat_score",
							"type": "uint256"
						},
						{
							"internalType": "int256",
							"name": "confidence",
							"type": "int256"
						},
						{
							"internalType": "int256",
							"name": "consumption_count",
							"type": "int256"
						},
						{
							"internalType": "int256",
							"name": "transaction_value",
							"type": "int256"
						},
						{
							"internalType": "int256",
							"name": "validation_count",
							"type": "int256"
						},
						{
							"internalType": "uint256",
							"name": "feedback_score",
							"type": "uint256"
						}
					],
					"stateMutability": "view",
					"type": "function"
				},
				{
					"inputs": [
						{
							"internalType": "string",
							"name": "",
							"type": "string"
						},
						{
							"internalType": "uint256",
							"name": "",
							"type": "uint256"
						}
					],
					"name": "CTIByTipListGroup",
					"outputs": [
						{
							"internalType": "string",
							"name": "tid",
							"type": "string"
						},
						{
							"internalType": "string",
							"name": "tip",
							"type": "string"
						},
						{
							"internalType": "uint256",
							"name": "register_time",
							"type": "uint256"
						},
						{
							"internalType": "address",
							"name": "producer_address",
							"type": "address"
						},
						{
							"internalType": "string",
							"name": "cti_hash",
							"type": "string"
						},
						{
							"internalType": "int256",
							"name": "price",
							"type": "int256"
						},
						{
							"internalType": "string",
							"name": "ip",
							"type": "string"
						},
						{
							"internalType": "uint256",
							"name": "threat_score",
							"type": "uint256"
						},
						{
							"internalType": "int256",
							"name": "confidence",
							"type": "int256"
						},
						{
							"internalType": "int256",
							"name": "consumption_count",
							"type": "int256"
						},
						{
							"internalType": "int256",
							"name": "transaction_value",
							"type": "int256"
						},
						{
							"internalType": "int256",
							"name": "validation_count",
							"type": "int256"
						},
						{
							"internalType": "uint256",
							"name": "feedback_score",
							"type": "uint256"
						}
					],
					"stateMutability": "view",
					"type": "function"
				},
				{
					"inputs": [
						{
							"internalType": "string",
							"name": "tid",
							"type": "string"
						}
					],
					"name": "GetCTIByTid",
					"outputs": [
						{
							"components": [
								{
									"internalType": "string",
									"name": "tid",
									"type": "string"
								},
								{
									"internalType": "string",
									"name": "tip",
									"type": "string"
								},
								{
									"internalType": "uint256",
									"name": "register_time",
									"type": "uint256"
								},
								{
									"internalType": "address",
									"name": "producer_address",
									"type": "address"
								},
								{
									"internalType": "string",
									"name": "cti_hash",
									"type": "string"
								},
								{
									"internalType": "string[]",
									"name": "tags",
									"type": "string[]"
								},
								{
									"internalType": "int256",
									"name": "price",
									"type": "int256"
								},
								{
									"internalType": "string",
									"name": "ip",
									"type": "string"
								},
								{
									"internalType": "uint256",
									"name": "threat_score",
									"type": "uint256"
								},
								{
									"internalType": "string[]",
									"name": "iocs",
									"type": "string[]"
								},
								{
									"internalType": "int256",
									"name": "confidence",
									"type": "int256"
								},
								{
									"internalType": "int256",
									"name": "consumption_count",
									"type": "int256"
								},
								{
									"internalType": "int256",
									"name": "transaction_value",
									"type": "int256"
								},
								{
									"internalType": "int256",
									"name": "validation_count",
									"type": "int256"
								},
								{
									"internalType": "uint256",
									"name": "feedback_score",
									"type": "uint256"
								}
							],
							"internalType": "struct RegistCTI.CTI",
							"name": "",
							"type": "tuple"
						}
					],
					"stateMutability": "view",
					"type": "function"
				},
				{
					"inputs": [
						{
							"internalType": "string",
							"name": "tip",
							"type": "string"
						}
					],
					"name": "GetCTIByTip",
					"outputs": [
						{
							"components": [
								{
									"internalType": "string",
									"name": "tid",
									"type": "string"
								},
								{
									"internalType": "string",
									"name": "tip",
									"type": "string"
								},
								{
									"internalType": "uint256",
									"name": "register_time",
									"type": "uint256"
								},
								{
									"internalType": "address",
									"name": "producer_address",
									"type": "address"
								},
								{
									"internalType": "string",
									"name": "cti_hash",
									"type": "string"
								},
								{
									"internalType": "string[]",
									"name": "tags",
									"type": "string[]"
								},
								{
									"internalType": "int256",
									"name": "price",
									"type": "int256"
								},
								{
									"internalType": "string",
									"name": "ip",
									"type": "string"
								},
								{
									"internalType": "uint256",
									"name": "threat_score",
									"type": "uint256"
								},
								{
									"internalType": "string[]",
									"name": "iocs",
									"type": "string[]"
								},
								{
									"internalType": "int256",
									"name": "confidence",
									"type": "int256"
								},
								{
									"internalType": "int256",
									"name": "consumption_count",
									"type": "int256"
								},
								{
									"internalType": "int256",
									"name": "transaction_value",
									"type": "int256"
								},
								{
									"internalType": "int256",
									"name": "validation_count",
									"type": "int256"
								},
								{
									"internalType": "uint256",
									"name": "feedback_score",
									"type": "uint256"
								}
							],
							"internalType": "struct RegistCTI.CTI[]",
							"name": "",
							"type": "tuple[]"
						}
					],
					"stateMutability": "view",
					"type": "function"
				},
				{
					"inputs": [
						{
							"internalType": "string",
							"name": "tid",
							"type": "string"
						}
					],
					"name": "GetFeedbackStats",
					"outputs": [
						{
							"internalType": "uint256",
							"name": "average",
							"type": "uint256"
						},
						{
							"internalType": "uint256",
							"name": "count",
							"type": "uint256"
						}
					],
					"stateMutability": "view",
					"type": "function"
				},
				{
					"inputs": [
						{
							"internalType": "string",
							"name": "tid",
							"type": "string"
						},
						{
							"internalType": "string",
							"name": "tip",
							"type": "string"
						},
						{
							"internalType": "string",
							"name": "cti_hash",
							"type": "string"
						},
						{
							"internalType": "string[]",
							"name": "tags",
							"type": "string[]"
						},
						{
							"internalType": "int256",
							"name": "price",
							"type": "int256"
						},
						{
							"internalType": "string",
							"name": "ip",
							"type": "string"
						},
						{
							"internalType": "uint256",
							"name": "threat_score",
							"type": "uint256"
						},
						{
							"internalType": "string[]",
							"name": "iocs",
							"type": "string[]"
						},
						{
							"internalType": "int256",
							"name": "confidence",
							"type": "int256"
						}
					],
					"name": "Register",
					"outputs": [],
					"stateMutability": "nonpayable",
					"type": "function"
				},
				{
					"inputs": [
						{
							"internalType": "string",
							"name": "tid",
							"type": "string"
						},
						{
							"internalType": "int256",
							"name": "transactionAmount",
							"type": "int256"
						}
					],
					"name": "UpdateConsumption",
					"outputs": [],
					"stateMutability": "nonpayable",
					"type": "function"
				},
				{
					"inputs": [
						{
							"internalType": "string",
							"name": "tid",
							"type": "string"
						},
						{
							"internalType": "uint256",
							"name": "feedback",
							"type": "uint256"
						}
					],
					"name": "UpdateFeedbackScore",
					"outputs": [],
					"stateMutability": "nonpayable",
					"type": "function"
				},
				{
					"inputs": [
						{
							"internalType": "string",
							"name": "tid",
							"type": "string"
						}
					],
					"name": "UpdateValidation",
					"outputs": [],
					"stateMutability": "nonpayable",
					"type": "function"
				},
				{
					"inputs": [
						{
							"internalType": "string",
							"name": "cti_hash",
							"type": "string"
						}
					],
					"name": "checkDuplicate",
					"outputs": [
						{
							"internalType": "bool",
							"name": "",
							"type": "bool"
						}
					],
					"stateMutability": "view",
					"type": "function"
				},
				{
					"inputs": [
						{
							"internalType": "string",
							"name": "cti_hash",
							"type": "string"
						}
					],
					"name": "checkSimilarity",
					"outputs": [
						{
							"internalType": "bool",
							"name": "",
							"type": "bool"
						}
					],
					"stateMutability": "view",
					"type": "function"
				},
				{
					"inputs": [
						{
							"internalType": "bytes32",
							"name": "hash1",
							"type": "bytes32"
						},
						{
							"internalType": "bytes32",
							"name": "hash2",
							"type": "bytes32"
						}
					],
					"name": "detectCompositeSimilarity",
					"outputs": [
						{
							"internalType": "uint256",
							"name": "",
							"type": "uint256"
						}
					],
					"stateMutability": "pure",
					"type": "function"
				},
				{
					"inputs": [
						{
							"internalType": "string",
							"name": "new_cti_hash",
							"type": "string"
						},
						{
							"internalType": "string",
							"name": "existing_cti_hash",
							"type": "string"
						}
					],
					"name": "detectSimilarity",
					"outputs": [
						{
							"internalType": "uint256",
							"name": "similarityScore",
							"type": "uint256"
						}
					],
					"stateMutability": "pure",
					"type": "function"
				},
				{
					"inputs": [
						{
							"internalType": "string",
							"name": "",
							"type": "string"
						}
					],
					"name": "duplicateCTICount",
					"outputs": [
						{
							"internalType": "uint256",
							"name": "",
							"type": "uint256"
						}
					],
					"stateMutability": "view",
					"type": "function"
				},
				{
					"inputs": [
						{
							"internalType": "string",
							"name": "",
							"type": "string"
						}
					],
					"name": "existingCTIHashes",
					"outputs": [
						{
							"internalType": "bool",
							"name": "",
							"type": "bool"
						}
					],
					"stateMutability": "view",
					"type": "function"
				},
				{
					"inputs": [
						{
							"internalType": "string",
							"name": "",
							"type": "string"
						},
						{
							"internalType": "uint256",
							"name": "",
							"type": "uint256"
						}
					],
					"name": "feedbackScores",
					"outputs": [
						{
							"internalType": "uint256",
							"name": "",
							"type": "uint256"
						}
					],
					"stateMutability": "view",
					"type": "function"
				},
				{
					"inputs": [
						{
							"internalType": "string",
							"name": "ip",
							"type": "string"
						},
						{
							"internalType": "string[]",
							"name": "tags",
							"type": "string[]"
						},
						{
							"internalType": "string[]",
							"name": "iocs",
							"type": "string[]"
						}
					],
					"name": "generateCompositeHash",
					"outputs": [
						{
							"internalType": "bytes32",
							"name": "",
							"type": "bytes32"
						}
					],
					"stateMutability": "pure",
					"type": "function"
				},
				{
					"inputs": [
						{
							"internalType": "string",
							"name": "",
							"type": "string"
						},
						{
							"internalType": "address",
							"name": "",
							"type": "address"
						}
					],
					"name": "hasScored",
					"outputs": [
						{
							"internalType": "bool",
							"name": "",
							"type": "bool"
						}
					],
					"stateMutability": "view",
					"type": "function"
				},
				{
					"inputs": [
						{
							"internalType": "string",
							"name": "",
							"type": "string"
						},
						{
							"internalType": "uint256",
							"name": "",
							"type": "uint256"
						}
					],
					"name": "reportedDuplicates",
					"outputs": [
						{
							"internalType": "address",
							"name": "",
							"type": "address"
						}
					],
					"stateMutability": "view",
					"type": "function"
				}
			],
			"devdoc": {
				"details": "威胁情报注册合约，支持链下相似度检测融合判断",
				"kind": "dev",
				"methods": {},
				"title": "RegistCTI",
				"version": 1
			},
			"evm": {
				"assembly": "    /* \"ctiIncentiveDedupRegistry/ctiIncentiveDedupRegistry.sol\":173:7664  contract RegistCTI {... */\n  0x80\n  dup1\n  0x40\n  mstore\n  jumpi(tag_1, callvalue)\n    /* \"ctiIncentiveDedupRegistry/ctiIncentiveDedupRegistry.sol\":1780:1782  85 */\n  0x55\n  0x05\n    /* \"ctiIncentiveDedupRegistry/ctiIncentiveDedupRegistry.sol\":173:7664  contract RegistCTI {... */\n  sstore\n  dataSize(sub_0)\n  swap1\n  dup2\n  dataOffset(sub_0)\n  dup3\n  codecopy\n  return\ntag_1:\n  0x00\n  dup1\n  revert\nstop\n\nsub_0: assembly {\n        /* \"ctiIncentiveDedupRegistry/ctiIncentiveDedupRegistry.sol\":173:7664  contract RegistCTI {... */\n      mstore(0x40, 0x80)\n      jumpi(tag_37, iszero(lt(calldatasize, 0x04)))\n      0x00\n      dup1\n      revert\n    tag_37:\n      shr(0xe0, calldataload(0x00))\n      dup1\n      0x17093bce\n      eq\n      tag_39\n      jumpi\n      dup1\n      0x1d785ed3\n      eq\n      tag_41\n      jumpi\n      dup1\n      0x2489ed49\n      eq\n      tag_43\n      jumpi\n      dup1\n      0x467fe707\n      eq\n      tag_45\n      jumpi\n      dup1\n      0x59889291\n      eq\n      tag_47\n      jumpi\n      dup1\n      0x7c4870e7\n      eq\n      tag_49\n      jumpi\n      dup1\n      0x7f979a09\n      eq\n      tag_51\n      jumpi\n      dup1\n      0x83de1191\n      eq\n      tag_53\n      jumpi\n      dup1\n      0x98ea94c6\n      eq\n      tag_55\n      jumpi\n      dup1\n      0x99cfaa32\n      eq\n      tag_57\n      jumpi\n      dup1\n      0x9a0f9ea9\n      eq\n      tag_59\n      jumpi\n      dup1\n      0x9febecfa\n      eq\n      tag_61\n      jumpi\n      dup1\n      0xa4e4fd85\n      eq\n      tag_63\n      jumpi\n      dup1\n      0xaa67f0fe\n      eq\n      tag_65\n      jumpi\n      dup1\n      0xae945443\n      eq\n      tag_67\n      jumpi\n      dup1\n      0xc99960d3\n      eq\n      tag_69\n      jumpi\n      dup1\n      0xd1082c92\n      eq\n      tag_71\n      jumpi\n      dup1\n      0xf2ff5b5c\n      eq\n      tag_73\n      jumpi\n      0xf718fe17\n      eq\n      tag_75\n      jumpi\n      0x00\n      dup1\n      revert\n    tag_75:\n      jumpi(tag_80, callvalue)\n      0x20\n      dup1\n      tag_79\n      calldatasize\n      tag_5\n      jump\t// in\n    tag_79:\n      swap3\n      swap1\n      mload(0x40)\n      swap3\n      dup2\n      dup5\n      swap3\n      mload\n      swap2\n      dup3\n      swap2\n      add\n      dup4\n      mcopy\n      dup2\n      add\n        /* \"ctiIncentiveDedupRegistry/ctiIncentiveDedupRegistry.sol\":1907:1954  mapping(string => uint[]) public feedbackScores */\n      0x06\n        /* \"ctiIncentiveDedupRegistry/ctiIncentiveDedupRegistry.sol\":173:7664  contract RegistCTI {... */\n      dup2\n      mstore\n      sub\n      add\n      swap1\n      keccak256\n      dup1\n      sload\n        /* \"ctiIncentiveDedupRegistry/ctiIncentiveDedupRegistry.sol\":1907:1954  mapping(string => uint[]) public feedbackScores */\n      dup3\n      lt\n      iszero\n      tag_80\n      jumpi\n        /* \"ctiIncentiveDedupRegistry/ctiIncentiveDedupRegistry.sol\":173:7664  contract RegistCTI {... */\n      0x20\n        /* \"ctiIncentiveDedupRegistry/ctiIncentiveDedupRegistry.sol\":1907:1954  mapping(string => uint[]) public feedbackScores */\n      swap2\n      tag_82\n      swap2\n      tag_6\n      jump\t// in\n    tag_82:\n        /* \"ctiIncentiveDedupRegistry/ctiIncentiveDedupRegistry.sol\":173:7664  contract RegistCTI {... */\n      swap1\n      sload\n      swap1\n      0x03\n      shl\n      shr\n      mload(0x40)\n      swap1\n      dup2\n      mstore\n      return\n        /* \"ctiIncentiveDedupRegistry/ctiIncentiveDedupRegistry.sol\":1907:1954  mapping(string => uint[]) public feedbackScores */\n    tag_80:\n        /* \"ctiIncentiveDedupRegistry/ctiIncentiveDedupRegistry.sol\":173:7664  contract RegistCTI {... */\n      0x00\n        /* \"ctiIncentiveDedupRegistry/ctiIncentiveDedupRegistry.sol\":1907:1954  mapping(string => uint[]) public feedbackScores */\n      dup1\n      revert\n        /* \"ctiIncentiveDedupRegistry/ctiIncentiveDedupRegistry.sol\":173:7664  contract RegistCTI {... */\n    tag_73:\n      jumpi(tag_80, callvalue)\n      jumpi(tag_80, slt(add(not(0x03), calldatasize), 0x40))\n      calldataload(0x04)\n      sub(shl(0x40, 0x01), 0x01)\n      dup2\n      gt\n      tag_80\n      jumpi\n      tag_89\n      swap1\n      calldatasize\n      swap1\n      0x04\n      add\n      tag_4\n      jump\t// in\n    tag_89:\n      calldataload(0x24)\n      sub(shl(0x40, 0x01), 0x01)\n      dup2\n      gt\n      tag_80\n      jumpi\n      0x20\n      swap2\n      tag_92\n      tag_93\n      swap3\n      calldatasize\n      swap1\n      0x04\n      add\n      tag_4\n      jump\t// in\n    tag_92:\n      swap1\n      tag_36\n      jump\t// in\n    tag_93:\n      mload(0x40)\n      swap1\n      dup2\n      mstore\n      return\n    tag_71:\n      jumpi(tag_80, callvalue)\n      jumpi(tag_80, slt(add(not(0x03), calldatasize), 0x0120))\n      calldataload(0x04)\n      sub(shl(0x40, 0x01), 0x01)\n      dup2\n      gt\n      tag_80\n      jumpi\n      tag_100\n      swap1\n      calldatasize\n      swap1\n      0x04\n      add\n      tag_11\n      jump\t// in\n    tag_100:\n      swap1\n      calldataload(0x24)\n      sub(shl(0x40, 0x01), 0x01)\n      dup2\n      gt\n      tag_80\n      jumpi\n      tag_103\n      swap1\n      calldatasize\n      swap1\n      0x04\n      add\n      tag_11\n      jump\t// in\n    tag_103:\n      0x44\n      swap3\n      swap2\n      swap3\n      calldataload\n      sub(shl(0x40, 0x01), 0x01)\n      dup2\n      gt\n      tag_80\n      jumpi\n      tag_106\n      swap1\n      calldatasize\n      swap1\n      0x04\n      add\n      tag_11\n      jump\t// in\n    tag_106:\n      swap4\n      swap1\n      calldataload(0x64)\n      sub(shl(0x40, 0x01), 0x01)\n      dup2\n      gt\n      tag_80\n      jumpi\n      tag_109\n      swap1\n      calldatasize\n      swap1\n      0x04\n      add\n      tag_18\n      jump\t// in\n    tag_109:\n      swap6\n      swap1\n      swap7\n      calldataload(0xa4)\n      sub(shl(0x40, 0x01), 0x01)\n      dup2\n      gt\n      tag_80\n      jumpi\n      tag_112\n      swap1\n      calldatasize\n      swap1\n      0x04\n      add\n      tag_11\n      jump\t// in\n    tag_112:\n      swap7\n      swap1\n      calldataload(0xe4)\n      sub(shl(0x40, 0x01), 0x01)\n      dup2\n      gt\n      tag_80\n      jumpi\n      tag_115\n      swap1\n      calldatasize\n      swap1\n      0x04\n      add\n      tag_18\n      jump\t// in\n    tag_115:\n      swap1\n      swap2\n        /* \"ctiIncentiveDedupRegistry/ctiIncentiveDedupRegistry.sol\":4581:4605  checkDuplicate(cti_hash) */\n      tag_116\n        /* \"ctiIncentiveDedupRegistry/ctiIncentiveDedupRegistry.sol\":173:7664  contract RegistCTI {... */\n      tag_117\n      calldatasize\n      dup9\n      dup11\n      tag_3\n      jump\t// in\n    tag_117:\n        /* \"ctiIncentiveDedupRegistry/ctiIncentiveDedupRegistry.sol\":4581:4605  checkDuplicate(cti_hash) */\n      tag_31\n      jump\t// in\n    tag_116:\n        /* \"ctiIncentiveDedupRegistry/ctiIncentiveDedupRegistry.sol\":173:7664  contract RegistCTI {... */\n      tag_118\n      jumpi\n        /* \"ctiIncentiveDedupRegistry/ctiIncentiveDedupRegistry.sol\":4664:4701  generateCompositeHash(ip, tags, iocs) */\n      tag_120\n        /* \"ctiIncentiveDedupRegistry/ctiIncentiveDedupRegistry.sol\":173:7664  contract RegistCTI {... */\n      dup12\n      tag_121\n      dup15\n      swap14\n      swap15\n      tag_122\n      dup15\n      calldatasize\n      swap1\n      dup8\n      tag_3\n      jump\t// in\n    tag_122:\n      swap3\n      calldatasize\n      swap2\n      tag_15\n      jump\t// in\n    tag_121:\n      tag_123\n      calldatasize\n      dup7\n      dup9\n      tag_15\n      jump\t// in\n    tag_123:\n        /* \"ctiIncentiveDedupRegistry/ctiIncentiveDedupRegistry.sol\":4664:4701  generateCompositeHash(ip, tags, iocs) */\n      swap2\n      tag_32\n      jump\t// in\n    tag_120:\n        /* \"ctiIncentiveDedupRegistry/ctiIncentiveDedupRegistry.sol\":4717:4727  uint i = 0 */\n      swap10\n        /* \"ctiIncentiveDedupRegistry/ctiIncentiveDedupRegistry.sol\":173:7664  contract RegistCTI {... */\n      0x00\n      swap12\n        /* \"ctiIncentiveDedupRegistry/ctiIncentiveDedupRegistry.sol\":5044:5063  similarityThreshold */\n      0x05\n        /* \"ctiIncentiveDedupRegistry/ctiIncentiveDedupRegistry.sol\":173:7664  contract RegistCTI {... */\n      sload\n        /* \"ctiIncentiveDedupRegistry/ctiIncentiveDedupRegistry.sol\":4712:5155  for (uint i = 0; i < CTIByTipListGroup[tip].length; i++) {... */\n      swap13\n        /* \"ctiIncentiveDedupRegistry/ctiIncentiveDedupRegistry.sol\":4764:4767  i++ */\n    tag_124:\n        /* \"ctiIncentiveDedupRegistry/ctiIncentiveDedupRegistry.sol\":173:7664  contract RegistCTI {... */\n      mload(0x40)\n      0x20\n      dup2\n      dup15\n      dup1\n      dup16\n      dup4\n      calldatacopy\n      dup2\n      add\n      0x01\n      dup2\n      mstore\n      sub\n      add\n      swap1\n      keccak256\n      sload\n        /* \"ctiIncentiveDedupRegistry/ctiIncentiveDedupRegistry.sol\":4729:4762  i < CTIByTipListGroup[tip].length */\n      dup2\n      lt\n      iszero\n      tag_125\n      jumpi\n        /* \"ctiIncentiveDedupRegistry/ctiIncentiveDedupRegistry.sol\":173:7664  contract RegistCTI {... */\n      dup14\n        /* \"ctiIncentiveDedupRegistry/ctiIncentiveDedupRegistry.sol\":4961:5019  detectCompositeSimilarity(newComposite, existingComposite) */\n      tag_127\n        /* \"ctiIncentiveDedupRegistry/ctiIncentiveDedupRegistry.sol\":173:7664  contract RegistCTI {... */\n      dup15\n        /* \"ctiIncentiveDedupRegistry/ctiIncentiveDedupRegistry.sol\":4872:4936  generateCompositeHash(existing.ip, existing.tags, existing.iocs) */\n      tag_128\n        /* \"ctiIncentiveDedupRegistry/ctiIncentiveDedupRegistry.sol\":173:7664  contract RegistCTI {... */\n      dup16\n      dup16\n      dup7\n      dup3\n      0x20\n        /* \"ctiIncentiveDedupRegistry/ctiIncentiveDedupRegistry.sol\":4805:4830  CTIByTipListGroup[tip][i] */\n      tag_129\n        /* \"ctiIncentiveDedupRegistry/ctiIncentiveDedupRegistry.sol\":173:7664  contract RegistCTI {... */\n      swap4\n      tag_130\n      swap6\n      mload(0x40)\n      swap4\n      dup5\n      swap3\n      dup4\n      calldatacopy\n      dup2\n      add\n      0x01\n      dup2\n      mstore\n      sub\n      add\n      swap1\n      keccak256\n        /* \"ctiIncentiveDedupRegistry/ctiIncentiveDedupRegistry.sol\":4805:4830  CTIByTipListGroup[tip][i] */\n      tag_17\n      jump\t// in\n    tag_129:\n        /* \"ctiIncentiveDedupRegistry/ctiIncentiveDedupRegistry.sol\":173:7664  contract RegistCTI {... */\n      pop\n      tag_27\n      jump\t// in\n    tag_130:\n      0xe0\n        /* \"ctiIncentiveDedupRegistry/ctiIncentiveDedupRegistry.sol\":4894:4905  existing.ip */\n      dup2\n      add\n      mload\n        /* \"ctiIncentiveDedupRegistry/ctiIncentiveDedupRegistry.sol\":4907:4920  existing.tags */\n      swap1\n        /* \"ctiIncentiveDedupRegistry/ctiIncentiveDedupRegistry.sol\":173:7664  contract RegistCTI {... */\n      0x0120\n      0xa0\n        /* \"ctiIncentiveDedupRegistry/ctiIncentiveDedupRegistry.sol\":4907:4920  existing.tags */\n      dup3\n      add\n      mload\n        /* \"ctiIncentiveDedupRegistry/ctiIncentiveDedupRegistry.sol\":4922:4935  existing.iocs */\n      swap2\n      add\n      mload\n        /* \"ctiIncentiveDedupRegistry/ctiIncentiveDedupRegistry.sol\":4872:4936  generateCompositeHash(existing.ip, existing.tags, existing.iocs) */\n      swap2\n      tag_32\n      jump\t// in\n    tag_128:\n        /* \"ctiIncentiveDedupRegistry/ctiIncentiveDedupRegistry.sol\":4961:5019  detectCompositeSimilarity(newComposite, existingComposite) */\n      swap1\n      tag_23\n      jump\t// in\n    tag_127:\n        /* \"ctiIncentiveDedupRegistry/ctiIncentiveDedupRegistry.sol\":5037:5063  sim >= similarityThreshold */\n      lt\n      iszero\n        /* \"ctiIncentiveDedupRegistry/ctiIncentiveDedupRegistry.sol\":5033:5145  if (sim >= similarityThreshold) {... */\n      tag_131\n      jumpi\n        /* \"ctiIncentiveDedupRegistry/ctiIncentiveDedupRegistry.sol\":173:7664  contract RegistCTI {... */\n      0x01\n      add\n        /* \"ctiIncentiveDedupRegistry/ctiIncentiveDedupRegistry.sol\":4717:4727  uint i = 0 */\n      jump(tag_124)\n        /* \"ctiIncentiveDedupRegistry/ctiIncentiveDedupRegistry.sol\":5033:5145  if (sim >= similarityThreshold) {... */\n    tag_131:\n        /* \"ctiIncentiveDedupRegistry/ctiIncentiveDedupRegistry.sol\":173:7664  contract RegistCTI {... */\n      mload(0x40)\n      shl(0xe5, 0x461bcd)\n        /* \"ctiIncentiveDedupRegistry/ctiIncentiveDedupRegistry.sol\":5083:5130  revert(\"CTI is too similar to an existing one\") */\n      dup2\n      mstore\n        /* \"ctiIncentiveDedupRegistry/ctiIncentiveDedupRegistry.sol\":173:7664  contract RegistCTI {... */\n      0x20\n      0x04\n        /* \"ctiIncentiveDedupRegistry/ctiIncentiveDedupRegistry.sol\":5083:5130  revert(\"CTI is too similar to an existing one\") */\n      dup3\n      add\n        /* \"ctiIncentiveDedupRegistry/ctiIncentiveDedupRegistry.sol\":173:7664  contract RegistCTI {... */\n      mstore\n      0x25\n      0x24\n      dup3\n      add\n      mstore\n      0x43544920697320746f6f2073696d696c617220746f20616e206578697374696e\n      0x44\n      dup3\n      add\n      mstore\n      shl(0xd8, 0x67206f6e65)\n      0x64\n      dup3\n      add\n      mstore\n      0x84\n      swap1\n        /* \"ctiIncentiveDedupRegistry/ctiIncentiveDedupRegistry.sol\":5083:5130  revert(\"CTI is too similar to an existing one\") */\n      revert\n        /* \"ctiIncentiveDedupRegistry/ctiIncentiveDedupRegistry.sol\":4729:4762  i < CTIByTipListGroup[tip].length */\n    tag_125:\n      pop\n      dup14\n      swap11\n      swap10\n      swap9\n      swap11\n        /* \"ctiIncentiveDedupRegistry/ctiIncentiveDedupRegistry.sol\":173:7664  contract RegistCTI {... */\n      mload(0x40)\n      dup10\n      dup14\n      dup3\n      calldatacopy\n      dup1\n      dup11\n      dup2\n      add\n        /* \"ctiIncentiveDedupRegistry/ctiIncentiveDedupRegistry.sol\":5165:5182  existingCTIHashes */\n      0x02\n        /* \"ctiIncentiveDedupRegistry/ctiIncentiveDedupRegistry.sol\":173:7664  contract RegistCTI {... */\n      dup2\n      mstore\n      sub\n      0x20\n      add\n      swap1\n      keccak256\n      not(0xff)\n      dup2\n      sload\n      and\n      0x01\n      or\n      swap1\n      sstore\n      mload(0x40)\n      swap12\n      dup13\n      swap10\n      tag_133\n      dup12\n      tag_1\n      jump\t// in\n    tag_133:\n      tag_134\n      calldatasize\n      dup12\n      dup12\n      tag_3\n      jump\t// in\n    tag_134:\n      dup12\n      mstore\n      tag_135\n      calldatasize\n      dup15\n      dup15\n      tag_3\n      jump\t// in\n    tag_135:\n      0x20\n        /* \"ctiIncentiveDedupRegistry/ctiIncentiveDedupRegistry.sol\":5227:5530  CTI(... */\n      dup13\n      add\n        /* \"ctiIncentiveDedupRegistry/ctiIncentiveDedupRegistry.sol\":173:7664  contract RegistCTI {... */\n      mstore\n        /* \"ctiIncentiveDedupRegistry/ctiIncentiveDedupRegistry.sol\":5278:5293  block.timestamp */\n      timestamp\n        /* \"ctiIncentiveDedupRegistry/ctiIncentiveDedupRegistry.sol\":173:7664  contract RegistCTI {... */\n      0x40\n        /* \"ctiIncentiveDedupRegistry/ctiIncentiveDedupRegistry.sol\":5227:5530  CTI(... */\n      dup13\n      add\n        /* \"ctiIncentiveDedupRegistry/ctiIncentiveDedupRegistry.sol\":173:7664  contract RegistCTI {... */\n      mstore\n        /* \"ctiIncentiveDedupRegistry/ctiIncentiveDedupRegistry.sol\":5307:5317  msg.sender */\n      caller\n        /* \"ctiIncentiveDedupRegistry/ctiIncentiveDedupRegistry.sol\":173:7664  contract RegistCTI {... */\n      0x60\n        /* \"ctiIncentiveDedupRegistry/ctiIncentiveDedupRegistry.sol\":5227:5530  CTI(... */\n      dup13\n      add\n        /* \"ctiIncentiveDedupRegistry/ctiIncentiveDedupRegistry.sol\":173:7664  contract RegistCTI {... */\n      mstore\n      calldatasize\n      swap1\n      tag_136\n      swap3\n      tag_3\n      jump\t// in\n    tag_136:\n      0x80\n        /* \"ctiIncentiveDedupRegistry/ctiIncentiveDedupRegistry.sol\":5227:5530  CTI(... */\n      dup11\n      add\n        /* \"ctiIncentiveDedupRegistry/ctiIncentiveDedupRegistry.sol\":173:7664  contract RegistCTI {... */\n      mstore\n      calldatasize\n      swap1\n      tag_137\n      swap3\n      tag_15\n      jump\t// in\n    tag_137:\n      0xa0\n        /* \"ctiIncentiveDedupRegistry/ctiIncentiveDedupRegistry.sol\":5227:5530  CTI(... */\n      dup9\n      add\n        /* \"ctiIncentiveDedupRegistry/ctiIncentiveDedupRegistry.sol\":173:7664  contract RegistCTI {... */\n      mstore\n      calldataload(0x84)\n      0xc0\n        /* \"ctiIncentiveDedupRegistry/ctiIncentiveDedupRegistry.sol\":5227:5530  CTI(... */\n      dup9\n      add\n        /* \"ctiIncentiveDedupRegistry/ctiIncentiveDedupRegistry.sol\":173:7664  contract RegistCTI {... */\n      mstore\n      calldatasize\n      swap1\n      tag_138\n      swap3\n      tag_3\n      jump\t// in\n    tag_138:\n      0xe0\n        /* \"ctiIncentiveDedupRegistry/ctiIncentiveDedupRegistry.sol\":5227:5530  CTI(... */\n      dup7\n      add\n        /* \"ctiIncentiveDedupRegistry/ctiIncentiveDedupRegistry.sol\":173:7664  contract RegistCTI {... */\n      mstore\n      calldataload(0xc4)\n      0x0100\n        /* \"ctiIncentiveDedupRegistry/ctiIncentiveDedupRegistry.sol\":5227:5530  CTI(... */\n      dup7\n      add\n        /* \"ctiIncentiveDedupRegistry/ctiIncentiveDedupRegistry.sol\":173:7664  contract RegistCTI {... */\n      mstore\n      calldatasize\n      swap1\n      tag_139\n      swap3\n      tag_15\n      jump\t// in\n    tag_139:\n      0x0120\n        /* \"ctiIncentiveDedupRegistry/ctiIncentiveDedupRegistry.sol\":5227:5530  CTI(... */\n      dup5\n      add\n        /* \"ctiIncentiveDedupRegistry/ctiIncentiveDedupRegistry.sol\":173:7664  contract RegistCTI {... */\n      mstore\n      calldataload(0x0104)\n        /* \"ctiIncentiveDedupRegistry/ctiIncentiveDedupRegistry.sol\":5227:5530  CTI(... */\n      0x0140\n      dup5\n      add\n        /* \"ctiIncentiveDedupRegistry/ctiIncentiveDedupRegistry.sol\":173:7664  contract RegistCTI {... */\n      mstore\n        /* \"ctiIncentiveDedupRegistry/ctiIncentiveDedupRegistry.sol\":5227:5530  CTI(... */\n      0x0160\n      dup4\n      add\n        /* \"ctiIncentiveDedupRegistry/ctiIncentiveDedupRegistry.sol\":173:7664  contract RegistCTI {... */\n      0x00\n      swap1\n      mstore\n        /* \"ctiIncentiveDedupRegistry/ctiIncentiveDedupRegistry.sol\":5227:5530  CTI(... */\n      0x0180\n      dup4\n      add\n        /* \"ctiIncentiveDedupRegistry/ctiIncentiveDedupRegistry.sol\":173:7664  contract RegistCTI {... */\n      0x00\n      swap1\n      mstore\n        /* \"ctiIncentiveDedupRegistry/ctiIncentiveDedupRegistry.sol\":5227:5530  CTI(... */\n      0x01a0\n      dup4\n      add\n        /* \"ctiIncentiveDedupRegistry/ctiIncentiveDedupRegistry.sol\":173:7664  contract RegistCTI {... */\n      0x00\n      swap1\n      mstore\n        /* \"ctiIncentiveDedupRegistry/ctiIncentiveDedupRegistry.sol\":5227:5530  CTI(... */\n      0x01c0\n      dup4\n      add\n        /* \"ctiIncentiveDedupRegistry/ctiIncentiveDedupRegistry.sol\":173:7664  contract RegistCTI {... */\n      0x00\n      swap1\n      mstore\n      dup2\n      mload(0x40)\n      swap3\n      dup4\n      swap3\n      dup4\n      calldatacopy\n      dup2\n      add\n      0x00\n      dup2\n      mstore\n      sub\n      0x20\n      add\n      swap1\n      keccak256\n      swap1\n      tag_140\n      swap2\n      tag_35\n      jump\t// in\n    tag_140:\n      dup2\n      mload(0x40)\n      swap3\n      dup4\n      swap3\n      dup4\n      calldatacopy\n      dup2\n      add\n      0x01\n      dup2\n      mstore\n      sub\n      0x20\n      add\n      swap1\n      keccak256\n      dup1\n      sload\n      shl(0x40, 0x01)\n      dup2\n      lt\n      iszero\n      tag_141\n      jumpi\n      tag_143\n      swap2\n      0x01\n      dup3\n      add\n      dup2\n      sstore\n      tag_17\n      jump\t// in\n    tag_143:\n      swap2\n      swap1\n      swap2\n      tag_144\n      jumpi\n      tag_146\n      swap2\n      tag_35\n      jump\t// in\n    tag_146:\n      stop\n    tag_144:\n      mstore(0x00, shl(0xe0, 0x4e487b71))\n      mstore(0x04, 0x00)\n      revert(0x00, 0x24)\n    tag_141:\n      mstore(0x00, shl(0xe0, 0x4e487b71))\n      mstore(0x04, 0x41)\n      revert(0x00, 0x24)\n    tag_118:\n      mload(0x40)\n      shl(0xe5, 0x461bcd)\n      dup2\n      mstore\n      0x20\n      0x04\n      dup3\n      add\n      mstore\n      0x14\n      0x24\n      dup3\n      add\n      mstore\n      shl(0x62, 0x10d51248185b1c9958591e481d5c1b1bd8591959)\n      0x44\n      dup3\n      add\n      mstore\n      0x64\n      swap1\n      revert\n    tag_69:\n      jumpi(tag_80, callvalue)\n      jumpi(tag_80, slt(add(not(0x03), calldatasize), 0x20))\n      calldataload(0x04)\n      sub(shl(0x40, 0x01), 0x01)\n      dup2\n      gt\n      tag_80\n      jumpi\n      tag_153\n      0x20\n      tag_154\n      tag_155\n      swap4\n      calldatasize\n      swap1\n      0x04\n      add\n      tag_11\n      jump\t// in\n    tag_154:\n      swap2\n      swap1\n      0x00\n      0x01c0\n      mload(0x40)\n      tag_156\n      dup2\n      tag_1\n      jump\t// in\n    tag_156:\n      0x60\n      dup2\n      mstore\n      0x60\n      dup6\n      dup3\n      add\n      mstore\n      dup3\n      0x40\n      dup3\n      add\n      mstore\n      dup3\n      0x60\n      dup3\n      add\n      mstore\n      0x60\n      0x80\n      dup3\n      add\n      mstore\n      0x60\n      0xa0\n      dup3\n      add\n      mstore\n      dup3\n      0xc0\n      dup3\n      add\n      mstore\n      0x60\n      0xe0\n      dup3\n      add\n      mstore\n      dup3\n      0x0100\n      dup3\n      add\n      mstore\n      0x60\n      0x0120\n      dup3\n      add\n      mstore\n      dup3\n      0x0140\n      dup3\n      add\n      mstore\n      dup3\n      0x0160\n      dup3\n      add\n      mstore\n      dup3\n      0x0180\n      dup3\n      add\n      mstore\n      dup3\n      0x01a0\n      dup3\n      add\n      mstore\n      add\n      mstore\n      dup3\n      mload(0x40)\n      swap4\n      dup5\n      swap3\n      dup4\n      calldatacopy\n      dup2\n      add\n      0x00\n      dup2\n      mstore\n      sub\n      add\n      swap1\n      keccak256\n      tag_27\n      jump\t// in\n    tag_153:\n      mload(0x40)\n      swap2\n      dup3\n      swap2\n      0x20\n      dup4\n      mstore\n      0x20\n      dup4\n      add\n      swap1\n      tag_13\n      jump\t// in\n    tag_155:\n      sub\n      swap1\n      return\n    tag_67:\n      jumpi(tag_80, callvalue)\n      0x20\n      dup1\n      tag_159\n      calldatasize\n      tag_5\n      jump\t// in\n    tag_159:\n      swap3\n      swap1\n      mload(0x40)\n      swap3\n      dup2\n      dup5\n      swap3\n      mload\n      swap2\n      dup3\n      swap2\n      add\n      dup4\n      mcopy\n      dup2\n      add\n        /* \"ctiIncentiveDedupRegistry/ctiIncentiveDedupRegistry.sol\":1387:1436  mapping(string => CTI[]) public CTIByTipListGroup */\n      0x01\n        /* \"ctiIncentiveDedupRegistry/ctiIncentiveDedupRegistry.sol\":173:7664  contract RegistCTI {... */\n      dup2\n      mstore\n      sub\n      add\n      swap1\n      keccak256\n      swap1\n      dup2\n      sload\n        /* \"ctiIncentiveDedupRegistry/ctiIncentiveDedupRegistry.sol\":1387:1436  mapping(string => CTI[]) public CTIByTipListGroup */\n      dup2\n      lt\n      iszero\n      tag_80\n      jumpi\n      tag_162\n      swap2\n      tag_17\n      jump\t// in\n    tag_162:\n      pop\n      tag_163\n      dup2\n      tag_8\n      jump\t// in\n    tag_163:\n        /* \"ctiIncentiveDedupRegistry/ctiIncentiveDedupRegistry.sol\":173:7664  contract RegistCTI {... */\n      tag_155\n        /* \"ctiIncentiveDedupRegistry/ctiIncentiveDedupRegistry.sol\":1387:1436  mapping(string => CTI[]) public CTIByTipListGroup */\n      tag_165\n      0x01\n      dup5\n      add\n      tag_8\n      jump\t// in\n    tag_165:\n      0x02\n      dup5\n      add\n        /* \"ctiIncentiveDedupRegistry/ctiIncentiveDedupRegistry.sol\":173:7664  contract RegistCTI {... */\n      sload\n        /* \"ctiIncentiveDedupRegistry/ctiIncentiveDedupRegistry.sol\":1387:1436  mapping(string => CTI[]) public CTIByTipListGroup */\n      0x03\n      dup6\n      add\n        /* \"ctiIncentiveDedupRegistry/ctiIncentiveDedupRegistry.sol\":173:7664  contract RegistCTI {... */\n      sload\n        /* \"ctiIncentiveDedupRegistry/ctiIncentiveDedupRegistry.sol\":1387:1436  mapping(string => CTI[]) public CTIByTipListGroup */\n      swap2\n      swap5\n        /* \"ctiIncentiveDedupRegistry/ctiIncentiveDedupRegistry.sol\":173:7664  contract RegistCTI {... */\n      swap1\n      swap2\n      sub(shl(0xa0, 0x01), 0x01)\n      and\n        /* \"ctiIncentiveDedupRegistry/ctiIncentiveDedupRegistry.sol\":1387:1436  mapping(string => CTI[]) public CTIByTipListGroup */\n      tag_166\n        /* \"ctiIncentiveDedupRegistry/ctiIncentiveDedupRegistry.sol\":173:7664  contract RegistCTI {... */\n      0x04\n        /* \"ctiIncentiveDedupRegistry/ctiIncentiveDedupRegistry.sol\":1387:1436  mapping(string => CTI[]) public CTIByTipListGroup */\n      dup4\n      add\n      tag_8\n      jump\t// in\n    tag_166:\n      0x06\n      dup4\n      add\n        /* \"ctiIncentiveDedupRegistry/ctiIncentiveDedupRegistry.sol\":173:7664  contract RegistCTI {... */\n      sload\n        /* \"ctiIncentiveDedupRegistry/ctiIncentiveDedupRegistry.sol\":1387:1436  mapping(string => CTI[]) public CTIByTipListGroup */\n      tag_167\n      0x07\n      dup6\n      add\n      tag_8\n      jump\t// in\n    tag_167:\n      0x08\n      dup6\n      add\n        /* \"ctiIncentiveDedupRegistry/ctiIncentiveDedupRegistry.sol\":173:7664  contract RegistCTI {... */\n      sload\n        /* \"ctiIncentiveDedupRegistry/ctiIncentiveDedupRegistry.sol\":1387:1436  mapping(string => CTI[]) public CTIByTipListGroup */\n      swap1\n      0x0a\n      dup7\n      add\n        /* \"ctiIncentiveDedupRegistry/ctiIncentiveDedupRegistry.sol\":173:7664  contract RegistCTI {... */\n      sload\n        /* \"ctiIncentiveDedupRegistry/ctiIncentiveDedupRegistry.sol\":1387:1436  mapping(string => CTI[]) public CTIByTipListGroup */\n      swap3\n      0x0b\n      dup8\n      add\n        /* \"ctiIncentiveDedupRegistry/ctiIncentiveDedupRegistry.sol\":173:7664  contract RegistCTI {... */\n      sload\n        /* \"ctiIncentiveDedupRegistry/ctiIncentiveDedupRegistry.sol\":1387:1436  mapping(string => CTI[]) public CTIByTipListGroup */\n      swap5\n      0x0c\n      dup9\n      add\n        /* \"ctiIncentiveDedupRegistry/ctiIncentiveDedupRegistry.sol\":173:7664  contract RegistCTI {... */\n      sload\n        /* \"ctiIncentiveDedupRegistry/ctiIncentiveDedupRegistry.sol\":1387:1436  mapping(string => CTI[]) public CTIByTipListGroup */\n      swap7\n      0x0e\n      0x0d\n      dup11\n      add\n        /* \"ctiIncentiveDedupRegistry/ctiIncentiveDedupRegistry.sol\":173:7664  contract RegistCTI {... */\n      sload\n        /* \"ctiIncentiveDedupRegistry/ctiIncentiveDedupRegistry.sol\":1387:1436  mapping(string => CTI[]) public CTIByTipListGroup */\n      swap10\n      add\n        /* \"ctiIncentiveDedupRegistry/ctiIncentiveDedupRegistry.sol\":173:7664  contract RegistCTI {... */\n      sload\n      swap10\n      mload(0x40)\n      swap14\n      dup15\n      swap14\n      dup15\n      tag_10\n      jump\t// in\n    tag_65:\n      jumpi(tag_80, callvalue)\n      jumpi(tag_80, slt(add(not(0x03), calldatasize), 0x20))\n      calldataload(0x04)\n      sub(shl(0x40, 0x01), 0x01)\n      dup2\n      gt\n      tag_80\n      jumpi\n      0x20\n      dup1\n      tag_174\n      dup2\n      swap4\n      calldatasize\n      swap1\n      0x04\n      add\n      tag_4\n      jump\t// in\n    tag_174:\n      mload(0x40)\n      swap3\n      dup2\n      dup5\n      swap3\n      mload\n      swap2\n      dup3\n      swap2\n      add\n      dup4\n      mcopy\n      dup2\n      add\n        /* \"ctiIncentiveDedupRegistry/ctiIncentiveDedupRegistry.sol\":1581:1629  mapping(string => uint) public duplicateCTICount */\n      0x03\n        /* \"ctiIncentiveDedupRegistry/ctiIncentiveDedupRegistry.sol\":173:7664  contract RegistCTI {... */\n      dup2\n      mstore\n      sub\n      add\n      swap1\n      keccak256\n      sload\n      mload(0x40)\n      swap1\n      dup2\n      mstore\n      return\n    tag_63:\n      jumpi(tag_80, callvalue)\n      jumpi(tag_80, slt(add(not(0x03), calldatasize), 0x40))\n      calldataload(0x04)\n      sub(shl(0x40, 0x01), 0x01)\n      dup2\n      gt\n      tag_80\n      jumpi\n      tag_181\n      swap1\n      calldatasize\n      swap1\n      0x04\n      add\n      tag_11\n      jump\t// in\n    tag_181:\n      calldataload(0x24)\n        /* \"ctiIncentiveDedupRegistry/ctiIncentiveDedupRegistry.sol\":6700:6779  require(CTIByTidList[tid].producer_address != address(0), \"CTI does not exist\") */\n      tag_182\n        /* \"ctiIncentiveDedupRegistry/ctiIncentiveDedupRegistry.sol\":173:7664  contract RegistCTI {... */\n      mload(0x40)\n      dup4\n      dup6\n      dup3\n      calldatacopy\n      0x00\n      dup2\n      dup6\n      add\n      swap1\n      dup2\n      mstore\n      dup2\n      swap1\n      sub\n      0x20\n      add\n      swap1\n      keccak256\n        /* \"ctiIncentiveDedupRegistry/ctiIncentiveDedupRegistry.sol\":6708:6742  CTIByTidList[tid].producer_address */\n      0x03\n      add\n        /* \"ctiIncentiveDedupRegistry/ctiIncentiveDedupRegistry.sol\":173:7664  contract RegistCTI {... */\n      sload\n      sub(shl(0xa0, 0x01), 0x01)\n      and\n        /* \"ctiIncentiveDedupRegistry/ctiIncentiveDedupRegistry.sol\":6708:6756  CTIByTidList[tid].producer_address != address(0) */\n      iszero\n      iszero\n        /* \"ctiIncentiveDedupRegistry/ctiIncentiveDedupRegistry.sol\":6700:6779  require(CTIByTidList[tid].producer_address != address(0), \"CTI does not exist\") */\n      tag_24\n      jump\t// in\n    tag_182:\n        /* \"ctiIncentiveDedupRegistry/ctiIncentiveDedupRegistry.sol\":173:7664  contract RegistCTI {... */\n      mload(0x40)\n      dup3\n      dup5\n      dup3\n      calldatacopy\n      0x20\n      dup2\n      dup5\n      dup2\n      add\n        /* \"ctiIncentiveDedupRegistry/ctiIncentiveDedupRegistry.sol\":6798:6807  hasScored */\n      0x07\n        /* \"ctiIncentiveDedupRegistry/ctiIncentiveDedupRegistry.sol\":173:7664  contract RegistCTI {... */\n      dup2\n      mstore\n      sub\n      add\n      swap1\n      keccak256\n      0x01\n      dup1\n      0xa0\n      shl\n      sub\n        /* \"ctiIncentiveDedupRegistry/ctiIncentiveDedupRegistry.sol\":6813:6823  msg.sender */\n      caller\n        /* \"ctiIncentiveDedupRegistry/ctiIncentiveDedupRegistry.sol\":173:7664  contract RegistCTI {... */\n      and\n      0x00\n      mstore\n      0x20\n      mstore\n      jumpi(tag_183, and(sload(keccak256(0x00, 0x40)), 0xff))\n        /* \"ctiIncentiveDedupRegistry/ctiIncentiveDedupRegistry.sol\":6886:6889  100 */\n      0x64\n        /* \"ctiIncentiveDedupRegistry/ctiIncentiveDedupRegistry.sol\":6874:6889  feedback <= 100 */\n      dup2\n      gt\n        /* \"ctiIncentiveDedupRegistry/ctiIncentiveDedupRegistry.sol\":173:7664  contract RegistCTI {... */\n      tag_185\n      jumpi\n      mload(0x40)\n      dup3\n      dup5\n      dup3\n      calldatacopy\n      0x20\n      dup2\n      dup5\n      dup2\n      add\n        /* \"ctiIncentiveDedupRegistry/ctiIncentiveDedupRegistry.sol\":6927:6941  feedbackScores */\n      0x06\n        /* \"ctiIncentiveDedupRegistry/ctiIncentiveDedupRegistry.sol\":173:7664  contract RegistCTI {... */\n      dup2\n      mstore\n      sub\n      add\n      swap1\n      keccak256\n      dup1\n      sload\n      shl(0x40, 0x01)\n      dup2\n      lt\n      iszero\n      tag_141\n      jumpi\n      tag_189\n      swap2\n      0x01\n      dup3\n      add\n      dup2\n      sstore\n      tag_6\n      jump\t// in\n    tag_189:\n      dup2\n      swap3\n      swap2\n      sload\n      swap1\n        /* \"ctiIncentiveDedupRegistry/ctiIncentiveDedupRegistry.sol\":6708:6742  CTIByTidList[tid].producer_address */\n      0x03\n        /* \"ctiIncentiveDedupRegistry/ctiIncentiveDedupRegistry.sol\":173:7664  contract RegistCTI {... */\n      shl\n      swap2\n      dup3\n      shl\n      swap2\n      not(0x00)\n      swap1\n      shl\n      not\n      and\n      or\n      swap1\n      sstore\n      mload(0x40)\n      dup2\n      dup4\n      dup3\n      calldatacopy\n        /* \"ctiIncentiveDedupRegistry/ctiIncentiveDedupRegistry.sol\":6798:6807  hasScored */\n      0x07\n        /* \"ctiIncentiveDedupRegistry/ctiIncentiveDedupRegistry.sol\":173:7664  contract RegistCTI {... */\n      dup3\n      dup3\n      add\n      swap1\n      dup2\n      mstore\n      dup2\n      swap1\n      sub\n      0x20\n      swap1\n      dup2\n      add\n      swap1\n      swap2\n      keccak256\n        /* \"ctiIncentiveDedupRegistry/ctiIncentiveDedupRegistry.sol\":6813:6823  msg.sender */\n      caller\n      0x00\n        /* \"ctiIncentiveDedupRegistry/ctiIncentiveDedupRegistry.sol\":173:7664  contract RegistCTI {... */\n      swap1\n      dup2\n      mstore\n      swap2\n      mstore\n      0x40\n      dup1\n      dup3\n      keccak256\n      dup1\n      sload\n      not(0xff)\n      and\n      0x01\n      or\n      swap1\n      sstore\n      mload\n      dup3\n      dup5\n      dup3\n      calldatacopy\n      0x20\n      dup2\n      dup5\n      dup2\n      add\n        /* \"ctiIncentiveDedupRegistry/ctiIncentiveDedupRegistry.sol\":6927:6941  feedbackScores */\n      0x06\n        /* \"ctiIncentiveDedupRegistry/ctiIncentiveDedupRegistry.sol\":173:7664  contract RegistCTI {... */\n      dup2\n      mstore\n      sub\n      add\n      swap1\n      keccak256\n      sload\n        /* \"ctiIncentiveDedupRegistry/ctiIncentiveDedupRegistry.sol\":7089:7099  uint i = 0 */\n      swap1\n        /* \"ctiIncentiveDedupRegistry/ctiIncentiveDedupRegistry.sol\":173:7664  contract RegistCTI {... */\n      0x00\n        /* \"ctiIncentiveDedupRegistry/ctiIncentiveDedupRegistry.sol\":7101:7108  i < len */\n    tag_190:\n      dup3\n      dup2\n      lt\n      tag_191\n      jumpi\n        /* \"ctiIncentiveDedupRegistry/ctiIncentiveDedupRegistry.sol\":7214:7223  sum / len */\n      pop\n      tag_193\n        /* \"ctiIncentiveDedupRegistry/ctiIncentiveDedupRegistry.sol\":7179:7211  CTIByTidList[tid].feedback_score */\n      0x0e\n        /* \"ctiIncentiveDedupRegistry/ctiIncentiveDedupRegistry.sol\":7214:7223  sum / len */\n      swap4\n      swap3\n        /* \"ctiIncentiveDedupRegistry/ctiIncentiveDedupRegistry.sol\":173:7664  contract RegistCTI {... */\n      0x20\n        /* \"ctiIncentiveDedupRegistry/ctiIncentiveDedupRegistry.sol\":7214:7223  sum / len */\n      swap3\n      tag_22\n      jump\t// in\n    tag_193:\n        /* \"ctiIncentiveDedupRegistry/ctiIncentiveDedupRegistry.sol\":173:7664  contract RegistCTI {... */\n      swap4\n      dup3\n      mload(0x40)\n      swap4\n      dup5\n      swap3\n      dup4\n      calldatacopy\n      dup2\n      add\n      0x00\n      dup2\n      mstore\n      sub\n      add\n      swap1\n      keccak256\n        /* \"ctiIncentiveDedupRegistry/ctiIncentiveDedupRegistry.sol\":7179:7211  CTIByTidList[tid].feedback_score */\n      add\n        /* \"ctiIncentiveDedupRegistry/ctiIncentiveDedupRegistry.sol\":173:7664  contract RegistCTI {... */\n      sstore\n      0x00\n      dup1\n      return\n        /* \"ctiIncentiveDedupRegistry/ctiIncentiveDedupRegistry.sol\":7110:7113  i++ */\n    tag_191:\n        /* \"ctiIncentiveDedupRegistry/ctiIncentiveDedupRegistry.sol\":173:7664  contract RegistCTI {... */\n      swap1\n        /* \"ctiIncentiveDedupRegistry/ctiIncentiveDedupRegistry.sol\":7129:7158  sum += feedbackScores[tid][i] */\n      tag_194\n        /* \"ctiIncentiveDedupRegistry/ctiIncentiveDedupRegistry.sol\":173:7664  contract RegistCTI {... */\n      0x01\n      swap2\n        /* \"ctiIncentiveDedupRegistry/ctiIncentiveDedupRegistry.sol\":7136:7158  feedbackScores[tid][i] */\n      tag_195\n        /* \"ctiIncentiveDedupRegistry/ctiIncentiveDedupRegistry.sol\":173:7664  contract RegistCTI {... */\n      dup5\n      mload(0x40)\n      dup9\n      dup11\n      dup3\n      calldatacopy\n      0x20\n      dup2\n      dup11\n      dup2\n      add\n        /* \"ctiIncentiveDedupRegistry/ctiIncentiveDedupRegistry.sol\":6927:6941  feedbackScores */\n      0x06\n        /* \"ctiIncentiveDedupRegistry/ctiIncentiveDedupRegistry.sol\":173:7664  contract RegistCTI {... */\n      dup2\n      mstore\n      sub\n      add\n      swap1\n      keccak256\n        /* \"ctiIncentiveDedupRegistry/ctiIncentiveDedupRegistry.sol\":7136:7158  feedbackScores[tid][i] */\n      tag_6\n      jump\t// in\n    tag_195:\n        /* \"ctiIncentiveDedupRegistry/ctiIncentiveDedupRegistry.sol\":173:7664  contract RegistCTI {... */\n      swap1\n      sload\n      swap1\n        /* \"ctiIncentiveDedupRegistry/ctiIncentiveDedupRegistry.sol\":6708:6742  CTIByTidList[tid].producer_address */\n      0x03\n        /* \"ctiIncentiveDedupRegistry/ctiIncentiveDedupRegistry.sol\":173:7664  contract RegistCTI {... */\n      shl\n      shr\n        /* \"ctiIncentiveDedupRegistry/ctiIncentiveDedupRegistry.sol\":7129:7158  sum += feedbackScores[tid][i] */\n      swap1\n      tag_29\n      jump\t// in\n    tag_194:\n        /* \"ctiIncentiveDedupRegistry/ctiIncentiveDedupRegistry.sol\":7110:7113  i++ */\n      swap2\n        /* \"ctiIncentiveDedupRegistry/ctiIncentiveDedupRegistry.sol\":173:7664  contract RegistCTI {... */\n      add\n        /* \"ctiIncentiveDedupRegistry/ctiIncentiveDedupRegistry.sol\":7089:7099  uint i = 0 */\n      jump(tag_190)\n        /* \"ctiIncentiveDedupRegistry/ctiIncentiveDedupRegistry.sol\":173:7664  contract RegistCTI {... */\n    tag_185:\n      mload(0x40)\n      shl(0xe5, 0x461bcd)\n      dup2\n      mstore\n      0x20\n      0x04\n      dup3\n      add\n      mstore\n      0x16\n      0x24\n      dup3\n      add\n      mstore\n      shl(0x54, 0x0466565646261636b206d75737420626520307e31303)\n      0x44\n      dup3\n      add\n      mstore\n        /* \"ctiIncentiveDedupRegistry/ctiIncentiveDedupRegistry.sol\":6886:6889  100 */\n      0x64\n      swap1\n        /* \"ctiIncentiveDedupRegistry/ctiIncentiveDedupRegistry.sol\":173:7664  contract RegistCTI {... */\n      revert\n    tag_183:\n      mload(0x40)\n      shl(0xe5, 0x461bcd)\n      dup2\n      mstore\n      0x20\n      0x04\n      dup3\n      add\n      mstore\n      0x1b\n      0x24\n      dup3\n      add\n      mstore\n      0x596f7520616c72656164792073636f7265642074686973204354490000000000\n      0x44\n      dup3\n      add\n      mstore\n      0x64\n      swap1\n      revert\n    tag_61:\n      jumpi(tag_80, callvalue)\n      jumpi(tag_80, slt(add(not(0x03), calldatasize), 0x20))\n      calldataload(0x04)\n      sub(shl(0x40, 0x01), 0x01)\n      dup2\n      gt\n      tag_80\n      jumpi\n        /* \"ctiIncentiveDedupRegistry/ctiIncentiveDedupRegistry.sol\":4149:4185  detectSimilarity(cti_hash, cti_hash) */\n      tag_202\n        /* \"ctiIncentiveDedupRegistry/ctiIncentiveDedupRegistry.sol\":173:7664  contract RegistCTI {... */\n      tag_92\n      tag_204\n      0x20\n      swap4\n      calldatasize\n      swap1\n      0x04\n      add\n      tag_11\n      jump\t// in\n    tag_204:\n      swap2\n      swap1\n      tag_205\n      calldatasize\n      dup5\n      dup4\n      tag_3\n      jump\t// in\n    tag_205:\n      swap3\n      calldatasize\n      swap2\n      tag_3\n      jump\t// in\n        /* \"ctiIncentiveDedupRegistry/ctiIncentiveDedupRegistry.sol\":4149:4185  detectSimilarity(cti_hash, cti_hash) */\n    tag_202:\n        /* \"ctiIncentiveDedupRegistry/ctiIncentiveDedupRegistry.sol\":4216:4235  similarityThreshold */\n      0x05\n        /* \"ctiIncentiveDedupRegistry/ctiIncentiveDedupRegistry.sol\":173:7664  contract RegistCTI {... */\n      sload\n      gt\n        /* \"ctiIncentiveDedupRegistry/ctiIncentiveDedupRegistry.sol\":4202:4235  similarity >= similarityThreshold */\n      iszero\n        /* \"ctiIncentiveDedupRegistry/ctiIncentiveDedupRegistry.sol\":173:7664  contract RegistCTI {... */\n      mload(0x40)\n      swap1\n      dup2\n      mstore\n      return\n    tag_59:\n      jumpi(tag_80, callvalue)\n      jumpi(tag_80, slt(add(not(0x03), calldatasize), 0x60))\n      calldataload(0x04)\n      sub(shl(0x40, 0x01), 0x01)\n      dup2\n      gt\n      tag_80\n      jumpi\n      tag_212\n      swap1\n      calldatasize\n      swap1\n      0x04\n      add\n      tag_4\n      jump\t// in\n    tag_212:\n      calldataload(0x24)\n      sub(shl(0x40, 0x01), 0x01)\n      dup2\n      gt\n      tag_80\n      jumpi\n      tag_215\n      swap1\n      calldatasize\n      swap1\n      0x04\n      add\n      tag_16\n      jump\t// in\n    tag_215:\n      swap1\n      calldataload(0x44)\n      swap1\n      sub(shl(0x40, 0x01), 0x01)\n      dup3\n      gt\n      tag_80\n      jumpi\n      0x20\n      swap3\n      tag_123\n      tag_93\n      swap4\n      calldatasize\n      swap1\n      0x04\n      add\n      tag_16\n      jump\t// in\n    tag_57:\n      jumpi(tag_80, callvalue)\n      jumpi(tag_80, slt(add(not(0x03), calldatasize), 0x20))\n      calldataload(0x04)\n      sub(shl(0x40, 0x01), 0x01)\n      dup2\n      gt\n      tag_80\n      jumpi\n      tag_226\n      tag_117\n      0x20\n      swap3\n      calldatasize\n      swap1\n      0x04\n      add\n      tag_4\n      jump\t// in\n    tag_226:\n      mload(0x40)\n      swap1\n      iszero\n      iszero\n      dup2\n      mstore\n      return\n    tag_55:\n      jumpi(tag_80, callvalue)\n      jumpi(tag_80, slt(add(not(0x03), calldatasize), 0x20))\n      calldataload(0x04)\n      sub(shl(0x40, 0x01), 0x01)\n      dup2\n      gt\n      tag_80\n      jumpi\n      tag_234\n      tag_235\n      0x40\n      swap3\n      calldatasize\n      swap1\n      0x04\n      add\n      tag_11\n      jump\t// in\n    tag_235:\n      swap1\n      tag_30\n      jump\t// in\n    tag_234:\n      dup3\n      mload\n      swap2\n      dup3\n      mstore\n      0x20\n      dup3\n      add\n      mstore\n      return\n    tag_53:\n      jumpi(tag_80, callvalue)\n      jumpi(tag_80, slt(add(not(0x03), calldatasize), 0x40))\n      calldataload(0x04)\n      sub(shl(0x40, 0x01), 0x01)\n      dup2\n      gt\n      tag_80\n      jumpi\n      tag_242\n      swap1\n      calldatasize\n      swap1\n      0x04\n      add\n      tag_4\n      jump\t// in\n    tag_242:\n      calldataload(0x24)\n      swap1\n      sub(shl(0xa0, 0x01), 0x01)\n      dup3\n      and\n      dup3\n      sub\n      tag_80\n      jumpi\n      0x20\n      dup1\n      swap2\n      mload(0x40)\n      swap3\n      dup2\n      dup5\n      swap3\n      mload\n      swap2\n      dup3\n      swap2\n      add\n      dup4\n      mcopy\n      dup2\n      add\n        /* \"ctiIncentiveDedupRegistry/ctiIncentiveDedupRegistry.sol\":1996:2056  mapping(string => mapping(address => bool)) public hasScored */\n      0x07\n        /* \"ctiIncentiveDedupRegistry/ctiIncentiveDedupRegistry.sol\":173:7664  contract RegistCTI {... */\n      dup2\n      mstore\n      sub\n      add\n      swap1\n      keccak256\n        /* \"ctiIncentiveDedupRegistry/ctiIncentiveDedupRegistry.sol\":1996:2056  mapping(string => mapping(address => bool)) public hasScored */\n      swap1\n        /* \"ctiIncentiveDedupRegistry/ctiIncentiveDedupRegistry.sol\":173:7664  contract RegistCTI {... */\n      0x01\n      dup1\n      0xa0\n      shl\n      sub\n      and\n      0x00\n      mstore\n      0x20\n      mstore\n      0x20\n      and(sload(keccak256(0x00, 0x40)), 0xff)\n      mload(0x40)\n      swap1\n      iszero\n      iszero\n      dup2\n      mstore\n      return\n    tag_51:\n      jumpi(tag_80, callvalue)\n      jumpi(tag_80, slt(add(not(0x03), calldatasize), 0x20))\n      calldataload(0x04)\n      sub(shl(0x40, 0x01), 0x01)\n      dup2\n      gt\n      tag_80\n      jumpi\n      0xff\n      0x20\n      dup1\n      tag_251\n      dup2\n      swap5\n      calldatasize\n      swap1\n      0x04\n      add\n      tag_4\n      jump\t// in\n    tag_251:\n      mload(0x40)\n      swap3\n      dup2\n      dup5\n      swap3\n      mload\n      swap2\n      dup3\n      swap2\n      add\n      dup4\n      mcopy\n      dup2\n      add\n        /* \"ctiIncentiveDedupRegistry/ctiIncentiveDedupRegistry.sol\":1487:1535  mapping(string => bool) public existingCTIHashes */\n      0x02\n        /* \"ctiIncentiveDedupRegistry/ctiIncentiveDedupRegistry.sol\":173:7664  contract RegistCTI {... */\n      dup2\n      mstore\n      sub\n      add\n      swap1\n      keccak256\n      sload\n      and\n      mload(0x40)\n      swap1\n      iszero\n      iszero\n      dup2\n      mstore\n      return\n    tag_49:\n      jumpi(tag_80, callvalue)\n      jumpi(tag_80, slt(add(not(0x03), calldatasize), 0x40))\n      calldataload(0x04)\n      sub(shl(0x40, 0x01), 0x01)\n      dup2\n      gt\n      tag_80\n      jumpi\n      tag_258\n        /* \"ctiIncentiveDedupRegistry/ctiIncentiveDedupRegistry.sol\":6218:6253  CTIByTidList[tid].transaction_value */\n      0x0c\n        /* \"ctiIncentiveDedupRegistry/ctiIncentiveDedupRegistry.sol\":173:7664  contract RegistCTI {... */\n      swap2\n      calldatasize\n      swap1\n      0x04\n      add\n      tag_11\n      jump\t// in\n    tag_258:\n      0x20\n      0x24\n      swap4\n      swap3\n      swap4\n      calldataload\n      swap4\n        /* \"ctiIncentiveDedupRegistry/ctiIncentiveDedupRegistry.sol\":6079:6158  require(CTIByTidList[tid].producer_address != address(0), \"CTI does not exist\") */\n      tag_259\n        /* \"ctiIncentiveDedupRegistry/ctiIncentiveDedupRegistry.sol\":173:7664  contract RegistCTI {... */\n      mload(0x40)\n      dup5\n      dup4\n      dup3\n      calldatacopy\n      0x00\n      dup2\n      dup7\n      add\n      swap1\n      dup2\n      mstore\n      dup2\n      swap1\n      sub\n      dup5\n      add\n      swap1\n      keccak256\n        /* \"ctiIncentiveDedupRegistry/ctiIncentiveDedupRegistry.sol\":6087:6121  CTIByTidList[tid].producer_address */\n      0x03\n      add\n        /* \"ctiIncentiveDedupRegistry/ctiIncentiveDedupRegistry.sol\":173:7664  contract RegistCTI {... */\n      sload\n      sub(shl(0xa0, 0x01), 0x01)\n      and\n        /* \"ctiIncentiveDedupRegistry/ctiIncentiveDedupRegistry.sol\":6087:6135  CTIByTidList[tid].producer_address != address(0) */\n      iszero\n      iszero\n        /* \"ctiIncentiveDedupRegistry/ctiIncentiveDedupRegistry.sol\":6079:6158  require(CTIByTidList[tid].producer_address != address(0), \"CTI does not exist\") */\n      tag_24\n      jump\t// in\n    tag_259:\n        /* \"ctiIncentiveDedupRegistry/ctiIncentiveDedupRegistry.sol\":6168:6203  CTIByTidList[tid].consumption_count */\n      0x0b\n        /* \"ctiIncentiveDedupRegistry/ctiIncentiveDedupRegistry.sol\":173:7664  contract RegistCTI {... */\n      mload(0x40)\n      dup5\n      dup4\n      dup3\n      calldatacopy\n      dup4\n      dup2\n      dup7\n      dup2\n      add\n      0x00\n      dup2\n      mstore\n      sub\n      add\n      swap1\n      keccak256\n        /* \"ctiIncentiveDedupRegistry/ctiIncentiveDedupRegistry.sol\":6168:6203  CTIByTidList[tid].consumption_count */\n      add\n        /* \"ctiIncentiveDedupRegistry/ctiIncentiveDedupRegistry.sol\":6168:6208  CTIByTidList[tid].consumption_count += 1 */\n      tag_260\n        /* \"ctiIncentiveDedupRegistry/ctiIncentiveDedupRegistry.sol\":173:7664  contract RegistCTI {... */\n      dup2\n      sload\n        /* \"ctiIncentiveDedupRegistry/ctiIncentiveDedupRegistry.sol\":6168:6208  CTIByTidList[tid].consumption_count += 1 */\n      tag_25\n      jump\t// in\n    tag_260:\n        /* \"ctiIncentiveDedupRegistry/ctiIncentiveDedupRegistry.sol\":173:7664  contract RegistCTI {... */\n      swap1\n      sstore\n      dup3\n      mload(0x40)\n      swap4\n      dup5\n      swap3\n      dup4\n      calldatacopy\n      dup2\n      add\n      0x00\n      dup2\n      mstore\n      sub\n      add\n      swap1\n      keccak256\n        /* \"ctiIncentiveDedupRegistry/ctiIncentiveDedupRegistry.sol\":6218:6253  CTIByTidList[tid].transaction_value */\n      add\n        /* \"ctiIncentiveDedupRegistry/ctiIncentiveDedupRegistry.sol\":173:7664  contract RegistCTI {... */\n      dup1\n      sload\n      0x00\n      dup4\n      dup3\n      add\n      swap4\n      dup5\n      slt\n      swap2\n      slt\n      swap1\n      dup1\n      iszero\n      dup3\n      and\n      swap2\n      iszero\n      and\n      or\n      tag_261\n      jumpi\n      sstore\n      stop\n    tag_261:\n      mstore(0x00, shl(0xe0, 0x4e487b71))\n      mstore(0x04, 0x11)\n      revert(0x00, 0x24)\n    tag_47:\n      jumpi(tag_80, callvalue)\n      jumpi(tag_80, slt(add(not(0x03), calldatasize), 0x20))\n      calldataload(0x04)\n      sub(shl(0x40, 0x01), 0x01)\n      dup2\n      gt\n      tag_80\n      jumpi\n      0x20\n      tag_269\n      dup2\n      swap3\n      calldatasize\n      swap1\n      0x04\n      add\n      tag_4\n      jump\t// in\n    tag_269:\n      mload(0x40)\n      swap3\n      dup2\n      dup5\n      swap3\n      mload\n      swap2\n      dup3\n      swap2\n      add\n      dup4\n      mcopy\n      dup2\n      add\n        /* \"ctiIncentiveDedupRegistry/ctiIncentiveDedupRegistry.sol\":5895:5912  CTIByTipListGroup */\n      0x01\n        /* \"ctiIncentiveDedupRegistry/ctiIncentiveDedupRegistry.sol\":173:7664  contract RegistCTI {... */\n      dup2\n      mstore\n      sub\n      add\n      swap1\n      keccak256\n      dup1\n      sload\n      swap1\n      tag_270\n      dup3\n      tag_14\n      jump\t// in\n    tag_270:\n      swap2\n      tag_271\n      mload(0x40)\n      swap4\n      dup5\n      tag_2\n      jump\t// in\n    tag_271:\n      dup1\n      dup4\n      mstore\n      0x20\n      dup4\n      add\n      dup1\n      swap3\n      0x00\n      mstore\n      keccak256(0x00, 0x20)\n      0x00\n      swap2\n    tag_272:\n      dup4\n      dup4\n      lt\n      tag_273\n      jumpi\n      dup5\n      dup7\n      mload(0x40)\n      swap2\n      dup3\n      swap2\n      0x20\n      dup4\n      add\n      swap1\n      0x20\n      dup5\n      mstore\n      mload\n      dup1\n      swap2\n      mstore\n      0x40\n      dup4\n      add\n      swap1\n      0x40\n      dup2\n      0x05\n      shl\n      dup6\n      add\n      add\n      swap3\n      swap2\n      0x00\n      swap1\n    tag_275:\n      dup3\n      dup3\n      lt\n      tag_276\n      jumpi\n      pop\n      pop\n      pop\n      pop\n      sub\n      swap1\n      return\n    tag_276:\n      swap2\n      swap4\n        /* \"ctiIncentiveDedupRegistry/ctiIncentiveDedupRegistry.sol\":5895:5912  CTIByTipListGroup */\n      0x01\n        /* \"ctiIncentiveDedupRegistry/ctiIncentiveDedupRegistry.sol\":173:7664  contract RegistCTI {... */\n      swap2\n      swap4\n      swap6\n      pop\n      0x20\n      tag_278\n      dup2\n      swap3\n      not(0x3f)\n      dup11\n      dup3\n      sub\n      add\n      dup7\n      mstore\n      dup9\n      mload\n      tag_13\n      jump\t// in\n    tag_278:\n      swap7\n      add\n      swap3\n      add\n      swap3\n      add\n      dup6\n      swap5\n      swap4\n      swap2\n      swap3\n      jump(tag_275)\n    tag_273:\n      0x0f\n      0x20\n        /* \"ctiIncentiveDedupRegistry/ctiIncentiveDedupRegistry.sol\":5895:5912  CTIByTipListGroup */\n      0x01\n        /* \"ctiIncentiveDedupRegistry/ctiIncentiveDedupRegistry.sol\":173:7664  contract RegistCTI {... */\n      swap3\n      tag_279\n      dup6\n      tag_27\n      jump\t// in\n    tag_279:\n      dup2\n      mstore\n      add\n      swap3\n      add\n      swap3\n      add\n      swap2\n      swap1\n      jump(tag_272)\n    tag_45:\n      jumpi(tag_80, callvalue)\n      jumpi(tag_80, slt(add(not(0x03), calldatasize), 0x20))\n      calldataload(0x04)\n      sub(shl(0x40, 0x01), 0x01)\n      dup2\n      gt\n      tag_80\n      jumpi\n      0x20\n      tag_286\n        /* \"ctiIncentiveDedupRegistry/ctiIncentiveDedupRegistry.sol\":6486:6520  CTIByTidList[tid].validation_count */\n      0x0d\n        /* \"ctiIncentiveDedupRegistry/ctiIncentiveDedupRegistry.sol\":173:7664  contract RegistCTI {... */\n      swap3\n      calldatasize\n      swap1\n      0x04\n      add\n      tag_11\n      jump\t// in\n    tag_286:\n      swap2\n      swap1\n        /* \"ctiIncentiveDedupRegistry/ctiIncentiveDedupRegistry.sol\":6397:6476  require(CTIByTidList[tid].producer_address != address(0), \"CTI does not exist\") */\n      tag_287\n        /* \"ctiIncentiveDedupRegistry/ctiIncentiveDedupRegistry.sol\":173:7664  contract RegistCTI {... */\n      mload(0x40)\n      dup5\n      dup4\n      dup3\n      calldatacopy\n      0x00\n      dup2\n      dup7\n      add\n      swap1\n      dup2\n      mstore\n      dup2\n      swap1\n      sub\n      dup5\n      add\n      swap1\n      keccak256\n        /* \"ctiIncentiveDedupRegistry/ctiIncentiveDedupRegistry.sol\":6405:6439  CTIByTidList[tid].producer_address */\n      0x03\n      add\n        /* \"ctiIncentiveDedupRegistry/ctiIncentiveDedupRegistry.sol\":173:7664  contract RegistCTI {... */\n      sload\n      sub(shl(0xa0, 0x01), 0x01)\n      and\n        /* \"ctiIncentiveDedupRegistry/ctiIncentiveDedupRegistry.sol\":6405:6453  CTIByTidList[tid].producer_address != address(0) */\n      iszero\n      iszero\n        /* \"ctiIncentiveDedupRegistry/ctiIncentiveDedupRegistry.sol\":6397:6476  require(CTIByTidList[tid].producer_address != address(0), \"CTI does not exist\") */\n      tag_24\n      jump\t// in\n    tag_287:\n        /* \"ctiIncentiveDedupRegistry/ctiIncentiveDedupRegistry.sol\":173:7664  contract RegistCTI {... */\n      dup3\n      mload(0x40)\n      swap4\n      dup5\n      swap3\n      dup4\n      calldatacopy\n      dup2\n      add\n      0x00\n      dup2\n      mstore\n      sub\n      add\n      swap1\n      keccak256\n        /* \"ctiIncentiveDedupRegistry/ctiIncentiveDedupRegistry.sol\":6486:6520  CTIByTidList[tid].validation_count */\n      add\n        /* \"ctiIncentiveDedupRegistry/ctiIncentiveDedupRegistry.sol\":6486:6525  CTIByTidList[tid].validation_count += 1 */\n      tag_288\n        /* \"ctiIncentiveDedupRegistry/ctiIncentiveDedupRegistry.sol\":173:7664  contract RegistCTI {... */\n      dup2\n      sload\n        /* \"ctiIncentiveDedupRegistry/ctiIncentiveDedupRegistry.sol\":6486:6525  CTIByTidList[tid].validation_count += 1 */\n      tag_25\n      jump\t// in\n    tag_288:\n        /* \"ctiIncentiveDedupRegistry/ctiIncentiveDedupRegistry.sol\":173:7664  contract RegistCTI {... */\n      swap1\n      sstore\n      stop\n    tag_43:\n      jumpi(tag_80, callvalue)\n      jumpi(tag_80, slt(add(not(0x03), calldatasize), 0x40))\n      0x20\n      tag_93\n      calldataload(0x24)\n      calldataload(0x04)\n      tag_23\n      jump\t// in\n    tag_41:\n      jumpi(tag_80, callvalue)\n      jumpi(tag_80, slt(add(not(0x03), calldatasize), 0x20))\n      calldataload(0x04)\n      sub(shl(0x40, 0x01), 0x01)\n      dup2\n      gt\n      tag_80\n      jumpi\n      0x20\n      tag_300\n      dup2\n      swap3\n      calldatasize\n      swap1\n      0x04\n      add\n      tag_4\n      jump\t// in\n    tag_300:\n      mload(0x40)\n      swap3\n      dup2\n      dup5\n      swap3\n      mload\n      swap2\n      dup3\n      swap2\n      add\n      dup4\n      mcopy\n      dup2\n      add\n      0x00\n      dup2\n      mstore\n      sub\n      add\n      swap1\n      keccak256\n        /* \"ctiIncentiveDedupRegistry/ctiIncentiveDedupRegistry.sol\":1293:1335  mapping(string => CTI) public CTIByTidList */\n      tag_163\n      dup2\n      tag_8\n      jump\t// in\n        /* \"ctiIncentiveDedupRegistry/ctiIncentiveDedupRegistry.sol\":173:7664  contract RegistCTI {... */\n    tag_39:\n      jumpi(tag_80, callvalue)\n      0x20\n      dup1\n      tag_308\n      calldatasize\n      tag_5\n      jump\t// in\n    tag_308:\n      swap3\n      swap1\n      mload(0x40)\n      swap3\n      dup2\n      dup5\n      swap3\n      mload\n      swap2\n      dup3\n      swap2\n      add\n      dup4\n      mcopy\n      dup2\n      add\n      0x04\n      dup2\n      mstore\n      sub\n      add\n      swap1\n      keccak256\n      dup1\n      sload\n        /* \"ctiIncentiveDedupRegistry/ctiIncentiveDedupRegistry.sol\":1661:1715  mapping(string => address[]) public reportedDuplicates */\n      dup3\n      lt\n      iszero\n      tag_80\n      jumpi\n        /* \"ctiIncentiveDedupRegistry/ctiIncentiveDedupRegistry.sol\":173:7664  contract RegistCTI {... */\n      0x20\n        /* \"ctiIncentiveDedupRegistry/ctiIncentiveDedupRegistry.sol\":1661:1715  mapping(string => address[]) public reportedDuplicates */\n      swap2\n      tag_311\n      swap2\n      tag_6\n      jump\t// in\n    tag_311:\n        /* \"ctiIncentiveDedupRegistry/ctiIncentiveDedupRegistry.sol\":173:7664  contract RegistCTI {... */\n      swap1\n      sload\n      mload(0x40)\n      0x03\n      swap3\n      swap1\n      swap3\n      shl\n      shr\n      sub(shl(0xa0, 0x01), 0x01)\n      and\n      dup2\n      mstore\n      return\n    tag_1:\n      0x01e0\n      dup2\n      add\n      swap1\n      dup2\n      lt\n      sub(shl(0x40, 0x01), 0x01)\n      dup3\n      gt\n      or\n      tag_141\n      jumpi\n      0x40\n      mstore\n      jump\t// out\n    tag_2:\n      swap1\n      0x1f\n      dup1\n      not\n      swap2\n      add\n      and\n      dup2\n      add\n      swap1\n      dup2\n      lt\n      sub(shl(0x40, 0x01), 0x01)\n      dup3\n      gt\n      or\n      tag_141\n      jumpi\n      0x40\n      mstore\n      jump\t// out\n    tag_3:\n      swap3\n      swap2\n      swap3\n      sub(shl(0x40, 0x01), 0x01)\n      dup3\n      gt\n      tag_141\n      jumpi\n      mload(0x40)\n      swap2\n      tag_318\n      0x1f\n      dup3\n      add\n      not(0x1f)\n      and\n      0x20\n      add\n      dup5\n      tag_2\n      jump\t// in\n    tag_318:\n      dup3\n      swap5\n      dup2\n      dup5\n      mstore\n      dup2\n      dup4\n      add\n      gt\n      tag_80\n      jumpi\n      dup3\n      dup2\n      0x20\n      swap4\n      dup5\n      0x00\n      swap7\n      add\n      calldatacopy\n      add\n      add\n      mstore\n      jump\t// out\n    tag_4:\n      swap1\n      dup1\n      0x1f\n      dup4\n      add\n      slt\n      iszero\n      tag_80\n      jumpi\n      dup2\n      0x20\n      tag_323\n      swap4\n      calldataload\n      swap2\n      add\n      tag_3\n      jump\t// in\n    tag_323:\n      swap1\n      jump\t// out\n    tag_5:\n      0x40\n      not(0x03)\n      dup3\n      add\n      slt\n      tag_80\n      jumpi\n      calldataload(0x04)\n      swap1\n      sub(shl(0x40, 0x01), 0x01)\n      dup3\n      gt\n      tag_80\n      jumpi\n      tag_328\n      swap2\n      0x04\n      add\n      tag_4\n      jump\t// in\n    tag_328:\n      swap1\n      calldataload(0x24)\n      swap1\n      jump\t// out\n    tag_6:\n      dup1\n      sload\n      dup3\n      lt\n      iszero\n      tag_329\n      jumpi\n      0x00\n      mstore\n      keccak256(0x00, 0x20)\n      add\n      swap1\n      0x00\n      swap1\n      jump\t// out\n    tag_329:\n      mstore(0x00, shl(0xe0, 0x4e487b71))\n      mstore(0x04, 0x32)\n      revert(0x00, 0x24)\n    tag_7:\n      swap1\n      0x01\n      dup3\n      dup2\n      shr\n      swap3\n      and\n      dup1\n      iszero\n      tag_331\n      jumpi\n    tag_332:\n      0x20\n      dup4\n      lt\n      eq\n      tag_333\n      jumpi\n      jump\t// out\n    tag_333:\n      mstore(0x00, shl(0xe0, 0x4e487b71))\n      mstore(0x04, 0x22)\n      revert(0x00, 0x24)\n    tag_331:\n      swap2\n      0x7f\n      and\n      swap2\n      jump(tag_332)\n    tag_8:\n      swap1\n      mload(0x40)\n      swap2\n      dup3\n      0x00\n      dup3\n      sload\n      swap3\n      tag_335\n      dup5\n      tag_7\n      jump\t// in\n    tag_335:\n      dup1\n      dup5\n      mstore\n      swap4\n      0x01\n      dup2\n      and\n      swap1\n      dup2\n      iszero\n      tag_336\n      jumpi\n      pop\n      0x01\n      eq\n      tag_338\n      jumpi\n    tag_339:\n      pop\n      tag_340\n      swap3\n      pop\n      sub\n      dup4\n      tag_2\n      jump\t// in\n    tag_340:\n      jump\t// out\n    tag_338:\n      swap1\n      pop\n      0x00\n      swap3\n      swap2\n      swap3\n      mstore\n      keccak256(0x00, 0x20)\n      swap1\n      0x00\n      swap2\n    tag_341:\n      dup2\n      dup4\n      lt\n      tag_342\n      jumpi\n      pop\n      pop\n      swap1\n      0x20\n      tag_340\n      swap3\n      dup3\n      add\n      add\n      0x00\n      jump(tag_339)\n    tag_342:\n      0x20\n      swap2\n      swap4\n      pop\n      dup1\n      0x01\n      swap2\n      sload\n      dup4\n      dup6\n      dup10\n      add\n      add\n      mstore\n      add\n      swap2\n      add\n      swap1\n      swap2\n      dup5\n      swap3\n      jump(tag_341)\n    tag_336:\n      swap1\n      pop\n      0x20\n      swap3\n      pop\n      tag_340\n      swap5\n      swap2\n      pop\n      not(0xff)\n      and\n      dup3\n      dup5\n      add\n      mstore\n      iszero\n      iszero\n      0x05\n      shl\n      dup3\n      add\n      add\n      0x00\n      jump(tag_339)\n    tag_9:\n      dup1\n      mload\n      dup1\n      dup4\n      mstore\n      0x20\n      swap3\n      swap2\n      dup2\n      swap1\n      dup5\n      add\n      dup5\n      dup5\n      add\n      mcopy\n      0x00\n      dup3\n      dup3\n      add\n      dup5\n      add\n      mstore\n      0x1f\n      add\n      not(0x1f)\n      and\n      add\n      add\n      swap1\n      jump\t// out\n    tag_10:\n      swap10\n      swap7\n      swap3\n      swap1\n      swap5\n      0x0180\n      swap12\n      swap9\n      swap15\n      swap14\n      swap13\n      swap10\n      swap7\n      swap5\n      tag_344\n      dup13\n      tag_345\n      swap6\n      tag_346\n      tag_347\n      swap11\n      0x01a0\n      dup5\n      mstore\n      0x01a0\n      dup5\n      add\n      swap1\n      tag_9\n      jump\t// in\n    tag_346:\n      swap2\n      0x20\n      dup2\n      dup5\n      sub\n      swap2\n      add\n      mstore\n      tag_9\n      jump\t// in\n    tag_344:\n      0x40\n      dup14\n      add\n      swap4\n      swap1\n      swap4\n      mstore\n      sub(shl(0xa0, 0x01), 0x01)\n      and\n      0x60\n      dup13\n      add\n      mstore\n      dup11\n      dup3\n      sub\n      0x80\n      dup13\n      add\n      mstore\n      tag_9\n      jump\t// in\n    tag_345:\n      swap2\n      0xa0\n      dup10\n      add\n      mstore\n      dup8\n      dup3\n      sub\n      0xc0\n      dup10\n      add\n      mstore\n      tag_9\n      jump\t// in\n    tag_347:\n      swap9\n      0xe0\n      dup7\n      add\n      mstore\n      0x0100\n      dup6\n      add\n      mstore\n      0x0120\n      dup5\n      add\n      mstore\n      0x0140\n      dup4\n      add\n      mstore\n      0x0160\n      dup3\n      add\n      mstore\n      add\n      mstore\n      jump\t// out\n    tag_11:\n      swap2\n      dup2\n      0x1f\n      dup5\n      add\n      slt\n      iszero\n      tag_80\n      jumpi\n      dup3\n      calldataload\n      swap2\n      sub(shl(0x40, 0x01), 0x01)\n      dup4\n      gt\n      tag_80\n      jumpi\n      0x20\n      dup4\n      dup2\n      dup7\n      add\n      swap6\n      add\n      add\n      gt\n      tag_80\n      jumpi\n      jump\t// out\n    tag_12:\n      swap1\n      dup1\n      0x20\n      dup4\n      mload\n      swap2\n      dup3\n      dup2\n      mstore\n      add\n      swap2\n      0x20\n      dup1\n      dup4\n      0x05\n      shl\n      dup4\n      add\n      add\n      swap5\n      add\n      swap3\n      0x00\n      swap2\n    tag_354:\n      dup4\n      dup4\n      lt\n      tag_355\n      jumpi\n      pop\n      pop\n      pop\n      pop\n      pop\n      swap1\n      jump\t// out\n    tag_355:\n      swap1\n      swap2\n      swap3\n      swap4\n      swap5\n      0x20\n      dup1\n      tag_357\n      0x01\n      swap4\n      not(0x1f)\n      dup7\n      dup3\n      sub\n      add\n      dup8\n      mstore\n      dup10\n      mload\n      tag_9\n      jump\t// in\n    tag_357:\n      swap8\n      add\n      swap4\n      add\n      swap4\n      add\n      swap2\n      swap4\n      swap3\n      swap1\n      jump(tag_354)\n    tag_13:\n      swap1\n      0x01c0\n      dup1\n      tag_358\n      tag_359\n      tag_360\n      tag_361\n      tag_362\n      tag_363\n      dup10\n      mload\n      0x01e0\n      dup11\n      mstore\n      0x01e0\n      dup11\n      add\n      swap1\n      tag_9\n      jump\t// in\n    tag_363:\n      0x20\n      dup11\n      add\n      mload\n      dup10\n      dup3\n      sub\n      0x20\n      dup12\n      add\n      mstore\n      tag_9\n      jump\t// in\n    tag_362:\n      0x40\n      dup10\n      add\n      mload\n      0x40\n      dup10\n      add\n      mstore\n      0x01\n      dup1\n      0xa0\n      shl\n      sub\n      0x60\n      dup11\n      add\n      mload\n      and\n      0x60\n      dup10\n      add\n      mstore\n      0x80\n      dup10\n      add\n      mload\n      dup9\n      dup3\n      sub\n      0x80\n      dup11\n      add\n      mstore\n      tag_9\n      jump\t// in\n    tag_361:\n      0xa0\n      dup9\n      add\n      mload\n      dup8\n      dup3\n      sub\n      0xa0\n      dup10\n      add\n      mstore\n      tag_12\n      jump\t// in\n    tag_360:\n      0xc0\n      dup8\n      add\n      mload\n      0xc0\n      dup8\n      add\n      mstore\n      0xe0\n      dup8\n      add\n      mload\n      dup7\n      dup3\n      sub\n      0xe0\n      dup9\n      add\n      mstore\n      tag_9\n      jump\t// in\n    tag_359:\n      0x0100\n      dup7\n      add\n      mload\n      0x0100\n      dup7\n      add\n      mstore\n      0x0120\n      dup7\n      add\n      mload\n      dup6\n      dup3\n      sub\n      0x0120\n      dup8\n      add\n      mstore\n      tag_12\n      jump\t// in\n    tag_358:\n      swap4\n      0x0140\n      dup2\n      add\n      mload\n      0x0140\n      dup6\n      add\n      mstore\n      0x0160\n      dup2\n      add\n      mload\n      0x0160\n      dup6\n      add\n      mstore\n      0x0180\n      dup2\n      add\n      mload\n      0x0180\n      dup6\n      add\n      mstore\n      0x01a0\n      dup2\n      add\n      mload\n      0x01a0\n      dup6\n      add\n      mstore\n      add\n      mload\n      swap2\n      add\n      mstore\n      swap1\n      jump\t// out\n    tag_14:\n      sub(shl(0x40, 0x01), 0x01)\n      dup2\n      gt\n      tag_141\n      jumpi\n      0x05\n      shl\n      0x20\n      add\n      swap1\n      jump\t// out\n    tag_15:\n      swap3\n      swap2\n      swap1\n      tag_366\n      dup2\n      tag_14\n      jump\t// in\n    tag_366:\n      swap4\n      tag_367\n      mload(0x40)\n      swap6\n      dup7\n      tag_2\n      jump\t// in\n    tag_367:\n      0x20\n      dup6\n      dup4\n      dup2\n      mstore\n      add\n      swap2\n      0x05\n      shl\n      dup2\n      add\n      swap2\n      dup4\n      dup4\n      gt\n      tag_80\n      jumpi\n      dup2\n      swap1\n    tag_370:\n      dup4\n      dup3\n      lt\n      tag_371\n      jumpi\n      pop\n      pop\n      pop\n      pop\n      pop\n      jump\t// out\n    tag_371:\n      dup2\n      calldataload\n      sub(shl(0x40, 0x01), 0x01)\n      dup2\n      gt\n      tag_80\n      jumpi\n      0x20\n      swap2\n      tag_375\n      dup8\n      dup5\n      swap4\n      dup8\n      add\n      tag_4\n      jump\t// in\n    tag_375:\n      dup2\n      mstore\n      add\n      swap2\n      add\n      swap1\n      jump(tag_370)\n    tag_16:\n      swap1\n      dup1\n      0x1f\n      dup4\n      add\n      slt\n      iszero\n      tag_80\n      jumpi\n      dup2\n      0x20\n      tag_323\n      swap4\n      calldataload\n      swap2\n      add\n      tag_15\n      jump\t// in\n    tag_17:\n      dup1\n      sload\n      dup3\n      lt\n      iszero\n      tag_329\n      jumpi\n      0x00\n      mstore\n      0x0f\n      keccak256(0x00, 0x20)\n      swap2\n      mul\n      add\n      swap1\n      0x00\n      swap1\n      jump\t// out\n    tag_18:\n      swap2\n      dup2\n      0x1f\n      dup5\n      add\n      slt\n      iszero\n      tag_80\n      jumpi\n      dup3\n      calldataload\n      swap2\n      sub(shl(0x40, 0x01), 0x01)\n      dup4\n      gt\n      tag_80\n      jumpi\n      0x20\n      dup1\n      dup6\n      add\n      swap5\n      dup5\n      0x05\n      shl\n      add\n      add\n      gt\n      tag_80\n      jumpi\n      jump\t// out\n    tag_19:\n      swap1\n      dup2\n      mload\n      dup2\n      lt\n      iszero\n      tag_329\n      jumpi\n      add\n      0x20\n      add\n      swap1\n      jump\t// out\n    tag_20:\n      not(0x00)\n      dup2\n      eq\n      tag_261\n      jumpi\n      0x01\n      add\n      swap1\n      jump\t// out\n    tag_21:\n      swap2\n      swap1\n      dup3\n      sub\n      swap2\n      dup3\n      gt\n      tag_261\n      jumpi\n      jump\t// out\n    tag_22:\n      dup2\n      iszero\n      tag_393\n      jumpi\n      div\n      swap1\n      jump\t// out\n    tag_393:\n      mstore(0x00, shl(0xe0, 0x4e487b71))\n      mstore(0x04, 0x12)\n      revert(0x00, 0x24)\n        /* \"ctiIncentiveDedupRegistry/ctiIncentiveDedupRegistry.sol\":3554:3955  function detectCompositeSimilarity(bytes32 hash1, bytes32 hash2) public pure returns (uint) {... */\n    tag_23:\n      swap1\n        /* \"ctiIncentiveDedupRegistry/ctiIncentiveDedupRegistry.sol\":173:7664  contract RegistCTI {... */\n      mload(0x40)\n        /* \"ctiIncentiveDedupRegistry/ctiIncentiveDedupRegistry.sol\":3673:3696  abi.encodePacked(hash1) */\n      swap2\n      0x20\n      dup4\n      add\n        /* \"ctiIncentiveDedupRegistry/ctiIncentiveDedupRegistry.sol\":173:7664  contract RegistCTI {... */\n      mstore\n        /* \"ctiIncentiveDedupRegistry/ctiIncentiveDedupRegistry.sol\":3673:3696  abi.encodePacked(hash1) */\n      0x20\n      dup3\n      mstore\n      tag_395\n        /* \"ctiIncentiveDedupRegistry/ctiIncentiveDedupRegistry.sol\":173:7664  contract RegistCTI {... */\n      0x40\n        /* \"ctiIncentiveDedupRegistry/ctiIncentiveDedupRegistry.sol\":3673:3696  abi.encodePacked(hash1) */\n      dup4\n      tag_2\n      jump\t// in\n    tag_395:\n        /* \"ctiIncentiveDedupRegistry/ctiIncentiveDedupRegistry.sol\":173:7664  contract RegistCTI {... */\n      mload(0x40)\n        /* \"ctiIncentiveDedupRegistry/ctiIncentiveDedupRegistry.sol\":3723:3746  abi.encodePacked(hash2) */\n      swap1\n        /* \"ctiIncentiveDedupRegistry/ctiIncentiveDedupRegistry.sol\":3673:3696  abi.encodePacked(hash1) */\n      0x20\n        /* \"ctiIncentiveDedupRegistry/ctiIncentiveDedupRegistry.sol\":3723:3746  abi.encodePacked(hash2) */\n      dup3\n      add\n        /* \"ctiIncentiveDedupRegistry/ctiIncentiveDedupRegistry.sol\":173:7664  contract RegistCTI {... */\n      mstore\n        /* \"ctiIncentiveDedupRegistry/ctiIncentiveDedupRegistry.sol\":3673:3696  abi.encodePacked(hash1) */\n      0x20\n        /* \"ctiIncentiveDedupRegistry/ctiIncentiveDedupRegistry.sol\":3723:3746  abi.encodePacked(hash2) */\n      dup2\n      mstore\n      tag_396\n        /* \"ctiIncentiveDedupRegistry/ctiIncentiveDedupRegistry.sol\":173:7664  contract RegistCTI {... */\n      0x40\n        /* \"ctiIncentiveDedupRegistry/ctiIncentiveDedupRegistry.sol\":3723:3746  abi.encodePacked(hash2) */\n      dup3\n      tag_2\n      jump\t// in\n    tag_396:\n      0x00\n        /* \"ctiIncentiveDedupRegistry/ctiIncentiveDedupRegistry.sol\":3784:3794  uint i = 0 */\n      swap1\n      0x00\n        /* \"ctiIncentiveDedupRegistry/ctiIncentiveDedupRegistry.sol\":3810:3813  i++ */\n    tag_397:\n        /* \"ctiIncentiveDedupRegistry/ctiIncentiveDedupRegistry.sol\":173:7664  contract RegistCTI {... */\n      dup4\n      mload\n        /* \"ctiIncentiveDedupRegistry/ctiIncentiveDedupRegistry.sol\":3796:3808  i < a.length */\n      dup2\n      lt\n      iszero\n      tag_398\n      jumpi\n      not(sub(shl(0xf8, 0x01), 0x01))\n        /* \"ctiIncentiveDedupRegistry/ctiIncentiveDedupRegistry.sol\":3833:3837  a[i] */\n      tag_400\n      dup3\n      dup7\n      tag_19\n      jump\t// in\n    tag_400:\n        /* \"ctiIncentiveDedupRegistry/ctiIncentiveDedupRegistry.sol\":173:7664  contract RegistCTI {... */\n      mload\n      and\n      not(sub(shl(0xf8, 0x01), 0x01))\n        /* \"ctiIncentiveDedupRegistry/ctiIncentiveDedupRegistry.sol\":3841:3845  b[i] */\n      tag_401\n      dup4\n      dup6\n      tag_19\n      jump\t// in\n    tag_401:\n        /* \"ctiIncentiveDedupRegistry/ctiIncentiveDedupRegistry.sol\":173:7664  contract RegistCTI {... */\n      mload\n      and\n        /* \"ctiIncentiveDedupRegistry/ctiIncentiveDedupRegistry.sol\":3833:3845  a[i] != b[i] */\n      sub\n        /* \"ctiIncentiveDedupRegistry/ctiIncentiveDedupRegistry.sol\":3829:3886  if (a[i] != b[i]) {... */\n      tag_402\n      jumpi\n        /* \"ctiIncentiveDedupRegistry/ctiIncentiveDedupRegistry.sol\":3810:3813  i++ */\n    tag_403:\n        /* \"ctiIncentiveDedupRegistry/ctiIncentiveDedupRegistry.sol\":173:7664  contract RegistCTI {... */\n      0x01\n      add\n        /* \"ctiIncentiveDedupRegistry/ctiIncentiveDedupRegistry.sol\":3784:3794  uint i = 0 */\n      jump(tag_397)\n        /* \"ctiIncentiveDedupRegistry/ctiIncentiveDedupRegistry.sol\":3829:3886  if (a[i] != b[i]) {... */\n    tag_402:\n        /* \"ctiIncentiveDedupRegistry/ctiIncentiveDedupRegistry.sol\":3865:3871  diff++ */\n      swap2\n      tag_404\n        /* \"ctiIncentiveDedupRegistry/ctiIncentiveDedupRegistry.sol\":173:7664  contract RegistCTI {... */\n      0x01\n        /* \"ctiIncentiveDedupRegistry/ctiIncentiveDedupRegistry.sol\":3865:3871  diff++ */\n      swap2\n      tag_20\n      jump\t// in\n    tag_404:\n        /* \"ctiIncentiveDedupRegistry/ctiIncentiveDedupRegistry.sol\":3829:3886  if (a[i] != b[i]) {... */\n      swap3\n      swap1\n      pop\n      jump(tag_403)\n        /* \"ctiIncentiveDedupRegistry/ctiIncentiveDedupRegistry.sol\":3796:3808  i < a.length */\n    tag_398:\n      pop\n      pop\n        /* \"ctiIncentiveDedupRegistry/ctiIncentiveDedupRegistry.sol\":3914:3929  a.length - diff */\n      tag_405\n        /* \"ctiIncentiveDedupRegistry/ctiIncentiveDedupRegistry.sol\":3796:3808  i < a.length */\n      swap1\n        /* \"ctiIncentiveDedupRegistry/ctiIncentiveDedupRegistry.sol\":173:7664  contract RegistCTI {... */\n      dup3\n      mload\n        /* \"ctiIncentiveDedupRegistry/ctiIncentiveDedupRegistry.sol\":3914:3929  a.length - diff */\n      tag_21\n      jump\t// in\n    tag_405:\n        /* \"ctiIncentiveDedupRegistry/ctiIncentiveDedupRegistry.sol\":3933:3936  100 */\n      0x64\n        /* \"ctiIncentiveDedupRegistry/ctiIncentiveDedupRegistry.sol\":173:7664  contract RegistCTI {... */\n      dup2\n      mul\n      swap1\n      dup1\n      dup3\n      div\n        /* \"ctiIncentiveDedupRegistry/ctiIncentiveDedupRegistry.sol\":3933:3936  100 */\n      0x64\n        /* \"ctiIncentiveDedupRegistry/ctiIncentiveDedupRegistry.sol\":173:7664  contract RegistCTI {... */\n      eq\n      swap1\n      iszero\n      or\n      iszero\n      tag_261\n      jumpi\n        /* \"ctiIncentiveDedupRegistry/ctiIncentiveDedupRegistry.sol\":3912:3948  ((a.length - diff) * 100) / a.length */\n      tag_323\n        /* \"ctiIncentiveDedupRegistry/ctiIncentiveDedupRegistry.sol\":173:7664  contract RegistCTI {... */\n      swap2\n      mload\n        /* \"ctiIncentiveDedupRegistry/ctiIncentiveDedupRegistry.sol\":3912:3948  ((a.length - diff) * 100) / a.length */\n      swap1\n      tag_22\n      jump\t// in\n        /* \"ctiIncentiveDedupRegistry/ctiIncentiveDedupRegistry.sol\":173:7664  contract RegistCTI {... */\n    tag_24:\n      iszero\n      tag_409\n      jumpi\n      jump\t// out\n    tag_409:\n      mload(0x40)\n      shl(0xe5, 0x461bcd)\n      dup2\n      mstore\n      0x20\n      0x04\n      dup3\n      add\n      mstore\n      0x12\n      0x24\n      dup3\n      add\n      mstore\n      shl(0x72, 0x10d51248191bd95cc81b9bdd08195e1a5cdd)\n      0x44\n      dup3\n      add\n      mstore\n      0x64\n      swap1\n      revert\n    tag_25:\n      swap1\n        /* \"ctiIncentiveDedupRegistry/ctiIncentiveDedupRegistry.sol\":6524:6525  1 */\n      0x01\n        /* \"ctiIncentiveDedupRegistry/ctiIncentiveDedupRegistry.sol\":173:7664  contract RegistCTI {... */\n      dup3\n      add\n      swap2\n      0x00\n        /* \"ctiIncentiveDedupRegistry/ctiIncentiveDedupRegistry.sol\":6524:6525  1 */\n      0x01\n        /* \"ctiIncentiveDedupRegistry/ctiIncentiveDedupRegistry.sol\":173:7664  contract RegistCTI {... */\n      dup5\n      slt\n      swap2\n      slt\n      swap1\n      dup1\n      iszero\n      dup3\n      and\n      swap2\n      iszero\n      and\n      or\n      tag_261\n      jumpi\n      jump\t// out\n    tag_26:\n      swap1\n      dup2\n      sload\n      tag_413\n      dup2\n      tag_14\n      jump\t// in\n    tag_413:\n      swap3\n      tag_414\n      mload(0x40)\n      swap5\n      dup6\n      tag_2\n      jump\t// in\n    tag_414:\n      dup2\n      dup5\n      mstore\n      0x20\n      dup5\n      add\n      swap1\n      0x00\n      mstore\n      keccak256(0x00, 0x20)\n      0x00\n      swap2\n    tag_415:\n      dup4\n      dup4\n      lt\n      tag_416\n      jumpi\n      pop\n      pop\n      pop\n      pop\n      jump\t// out\n    tag_416:\n      0x01\n      0x20\n      dup2\n      swap3\n      tag_418\n      dup6\n      tag_8\n      jump\t// in\n    tag_418:\n      dup2\n      mstore\n      add\n      swap3\n      add\n      swap3\n      add\n      swap2\n      swap1\n      jump(tag_415)\n    tag_27:\n      swap1\n      mload(0x40)\n      tag_419\n      dup2\n      tag_1\n      jump\t// in\n    tag_419:\n      0x01c0\n      0x0e\n      dup3\n      swap5\n      tag_420\n      dup2\n      tag_8\n      jump\t// in\n    tag_420:\n      dup5\n      mstore\n      tag_421\n      0x01\n      dup3\n      add\n      tag_8\n      jump\t// in\n    tag_421:\n      0x20\n      dup6\n      add\n      mstore\n      0x02\n      dup2\n      add\n      sload\n      0x40\n      dup6\n      add\n      mstore\n      0x03\n      dup2\n      add\n      sload\n      sub(shl(0xa0, 0x01), 0x01)\n      and\n      0x60\n      dup6\n      add\n      mstore\n      tag_422\n      0x04\n      dup3\n      add\n      tag_8\n      jump\t// in\n    tag_422:\n      0x80\n      dup6\n      add\n      mstore\n      tag_423\n      0x05\n      dup3\n      add\n      tag_26\n      jump\t// in\n    tag_423:\n      0xa0\n      dup6\n      add\n      mstore\n      0x06\n      dup2\n      add\n      sload\n      0xc0\n      dup6\n      add\n      mstore\n      tag_424\n      0x07\n      dup3\n      add\n      tag_8\n      jump\t// in\n    tag_424:\n      0xe0\n      dup6\n      add\n      mstore\n      0x08\n      dup2\n      add\n      sload\n      0x0100\n      dup6\n      add\n      mstore\n      tag_425\n      0x09\n      dup3\n      add\n      tag_26\n      jump\t// in\n    tag_425:\n      0x0120\n      dup6\n      add\n      mstore\n      0x0a\n      dup2\n      add\n      sload\n      0x0140\n      dup6\n      add\n      mstore\n      0x0b\n      dup2\n      add\n      sload\n      0x0160\n      dup6\n      add\n      mstore\n      0x0c\n      dup2\n      add\n      sload\n      0x0180\n      dup6\n      add\n      mstore\n      0x0d\n      dup2\n      add\n      sload\n      0x01a0\n      dup6\n      add\n      mstore\n      add\n      sload\n      swap2\n      add\n      mstore\n      jump\t// out\n    tag_28:\n      dup1\n      mload\n      dup3\n      lt\n      iszero\n      tag_329\n      jumpi\n      0x20\n      swap2\n      0x05\n      shl\n      add\n      add\n      swap1\n      jump\t// out\n    tag_29:\n      swap2\n      swap1\n      dup3\n      add\n      dup1\n      swap3\n      gt\n      tag_261\n      jumpi\n      jump\t// out\n        /* \"ctiIncentiveDedupRegistry/ctiIncentiveDedupRegistry.sol\":7298:7662  function GetFeedbackStats(string calldata tid) external view returns (uint average, uint count) {... */\n    tag_30:\n        /* \"ctiIncentiveDedupRegistry/ctiIncentiveDedupRegistry.sol\":173:7664  contract RegistCTI {... */\n      0x20\n        /* \"ctiIncentiveDedupRegistry/ctiIncentiveDedupRegistry.sol\":7298:7662  function GetFeedbackStats(string calldata tid) external view returns (uint average, uint count) {... */\n      swap1\n        /* \"ctiIncentiveDedupRegistry/ctiIncentiveDedupRegistry.sol\":173:7664  contract RegistCTI {... */\n      dup3\n      mload(0x40)\n      swap4\n      dup5\n      swap3\n      dup4\n      calldatacopy\n      dup2\n      add\n        /* \"ctiIncentiveDedupRegistry/ctiIncentiveDedupRegistry.sol\":7427:7441  feedbackScores */\n      0x06\n        /* \"ctiIncentiveDedupRegistry/ctiIncentiveDedupRegistry.sol\":173:7664  contract RegistCTI {... */\n      dup2\n      mstore\n      sub\n      add\n      swap1\n      keccak256\n      swap1\n      mload(0x40)\n      dup1\n      dup4\n      0x20\n      dup3\n      swap6\n      sload\n      swap4\n      dup5\n      dup2\n      mstore\n      add\n      swap1\n      0x00\n      mstore\n      keccak256(0x00, 0x20)\n      swap3\n      0x00\n    tag_430:\n      dup2\n      dup2\n      lt\n      tag_431\n      jumpi\n      pop\n      pop\n      tag_433\n      swap3\n      pop\n      sub\n      dup4\n      tag_2\n      jump\t// in\n    tag_433:\n      dup2\n      mload\n        /* \"ctiIncentiveDedupRegistry/ctiIncentiveDedupRegistry.sol\":7494:7502  len == 0 */\n      swap2\n      dup3\n      iszero\n        /* \"ctiIncentiveDedupRegistry/ctiIncentiveDedupRegistry.sol\":7490:7517  if (len == 0) return (0, 0) */\n      tag_434\n      jumpi\n        /* \"ctiIncentiveDedupRegistry/ctiIncentiveDedupRegistry.sol\":7528:7540  uint sum = 0 */\n      dup3\n      0x00\n      dup1\n        /* \"ctiIncentiveDedupRegistry/ctiIncentiveDedupRegistry.sol\":7550:7622  for (uint i = 0; i < len; i++) {... */\n      swap3\n        /* \"ctiIncentiveDedupRegistry/ctiIncentiveDedupRegistry.sol\":7567:7574  i < len */\n    tag_436:\n      dup3\n      dup5\n      lt\n      tag_437\n      jumpi\n        /* \"ctiIncentiveDedupRegistry/ctiIncentiveDedupRegistry.sol\":7640:7649  sum / len */\n      pop\n      tag_439\n      swap3\n      pop\n      tag_22\n      jump\t// in\n    tag_439:\n        /* \"ctiIncentiveDedupRegistry/ctiIncentiveDedupRegistry.sol\":7632:7655  return (sum / len, len) */\n      swap2\n        /* \"ctiIncentiveDedupRegistry/ctiIncentiveDedupRegistry.sol\":7298:7662  function GetFeedbackStats(string calldata tid) external view returns (uint average, uint count) {... */\n      swap1\n      jump\t// out\n        /* \"ctiIncentiveDedupRegistry/ctiIncentiveDedupRegistry.sol\":7576:7579  i++ */\n    tag_437:\n        /* \"ctiIncentiveDedupRegistry/ctiIncentiveDedupRegistry.sol\":7602:7611  scores[i] */\n      swap2\n      pop\n        /* \"ctiIncentiveDedupRegistry/ctiIncentiveDedupRegistry.sol\":7595:7611  sum += scores[i] */\n      tag_440\n        /* \"ctiIncentiveDedupRegistry/ctiIncentiveDedupRegistry.sol\":173:7664  contract RegistCTI {... */\n      0x01\n        /* \"ctiIncentiveDedupRegistry/ctiIncentiveDedupRegistry.sol\":7602:7611  scores[i] */\n      swap2\n      tag_441\n      dup6\n      dup6\n      tag_28\n      jump\t// in\n    tag_441:\n        /* \"ctiIncentiveDedupRegistry/ctiIncentiveDedupRegistry.sol\":173:7664  contract RegistCTI {... */\n      mload\n        /* \"ctiIncentiveDedupRegistry/ctiIncentiveDedupRegistry.sol\":7595:7611  sum += scores[i] */\n      swap1\n      tag_29\n      jump\t// in\n    tag_440:\n        /* \"ctiIncentiveDedupRegistry/ctiIncentiveDedupRegistry.sol\":7576:7579  i++ */\n      swap3\n        /* \"ctiIncentiveDedupRegistry/ctiIncentiveDedupRegistry.sol\":173:7664  contract RegistCTI {... */\n      add\n        /* \"ctiIncentiveDedupRegistry/ctiIncentiveDedupRegistry.sol\":7555:7565  uint i = 0 */\n      swap2\n      dup5\n      swap2\n      jump(tag_436)\n        /* \"ctiIncentiveDedupRegistry/ctiIncentiveDedupRegistry.sol\":7490:7517  if (len == 0) return (0, 0) */\n    tag_434:\n      pop\n      0x00\n      swap2\n      pop\n      dup2\n      swap1\n        /* \"ctiIncentiveDedupRegistry/ctiIncentiveDedupRegistry.sol\":7504:7517  return (0, 0) */\n      jump\t// out\n        /* \"ctiIncentiveDedupRegistry/ctiIncentiveDedupRegistry.sol\":173:7664  contract RegistCTI {... */\n    tag_431:\n      dup5\n      sload\n      dup4\n      mstore\n      0x01\n      swap5\n      dup6\n      add\n      swap5\n      dup8\n      swap5\n      pop\n      0x20\n      swap1\n      swap4\n      add\n      swap3\n      add\n      jump(tag_430)\n        /* \"ctiIncentiveDedupRegistry/ctiIncentiveDedupRegistry.sol\":2193:2319  function checkDuplicate(string memory cti_hash) public view returns (bool) {... */\n    tag_31:\n        /* \"ctiIncentiveDedupRegistry/ctiIncentiveDedupRegistry.sol\":173:7664  contract RegistCTI {... */\n      mload(0x40)\n      dup2\n      mload\n      0xff\n      swap3\n      0x20\n      swap2\n      dup4\n      swap2\n      dup2\n      swap1\n      dup5\n      add\n      dup4\n      mcopy\n      dup2\n      add\n        /* \"ctiIncentiveDedupRegistry/ctiIncentiveDedupRegistry.sol\":2285:2302  existingCTIHashes */\n      0x02\n        /* \"ctiIncentiveDedupRegistry/ctiIncentiveDedupRegistry.sol\":173:7664  contract RegistCTI {... */\n      dup2\n      mstore\n      sub\n      add\n      swap1\n      keccak256\n      sload\n      and\n        /* \"ctiIncentiveDedupRegistry/ctiIncentiveDedupRegistry.sol\":2193:2319  function checkDuplicate(string memory cti_hash) public view returns (bool) {... */\n      swap1\n      jump\t// out\n        /* \"ctiIncentiveDedupRegistry/ctiIncentiveDedupRegistry.sol\":2998:3486  function generateCompositeHash(... */\n    tag_32:\n        /* \"ctiIncentiveDedupRegistry/ctiIncentiveDedupRegistry.sol\":3185:3205  abi.encodePacked(ip) */\n      tag_442\n      0x20\n        /* \"ctiIncentiveDedupRegistry/ctiIncentiveDedupRegistry.sol\":2998:3486  function generateCompositeHash(... */\n      dup1\n      swap3\n      swap6\n      swap5\n      swap6\n        /* \"ctiIncentiveDedupRegistry/ctiIncentiveDedupRegistry.sol\":173:7664  contract RegistCTI {... */\n      mload(0x40)\n      swap4\n      dup2\n      dup6\n      swap3\n      mload\n      swap2\n      dup3\n      swap2\n      add\n        /* \"ctiIncentiveDedupRegistry/ctiIncentiveDedupRegistry.sol\":3185:3205  abi.encodePacked(ip) */\n      dup5\n      dup5\n      add\n        /* \"ctiIncentiveDedupRegistry/ctiIncentiveDedupRegistry.sol\":173:7664  contract RegistCTI {... */\n      mcopy\n      dup2\n      add\n      0x00\n      dup4\n      dup3\n      add\n      mstore\n        /* \"ctiIncentiveDedupRegistry/ctiIncentiveDedupRegistry.sol\":3185:3205  abi.encodePacked(ip) */\n      sub\n      add\n        /* \"ctiIncentiveDedupRegistry/ctiIncentiveDedupRegistry.sol\":173:7664  contract RegistCTI {... */\n      not(0x1f)\n        /* \"ctiIncentiveDedupRegistry/ctiIncentiveDedupRegistry.sol\":3185:3205  abi.encodePacked(ip) */\n      dup2\n      add\n      dup4\n      mstore\n      dup3\n      tag_2\n      jump\t// in\n    tag_442:\n        /* \"ctiIncentiveDedupRegistry/ctiIncentiveDedupRegistry.sol\":3220:3230  uint i = 0 */\n      swap2\n      0x00\n        /* \"ctiIncentiveDedupRegistry/ctiIncentiveDedupRegistry.sol\":3215:3325  for (uint i = 0; i < tags.length; i++) {... */\n      swap3\n        /* \"ctiIncentiveDedupRegistry/ctiIncentiveDedupRegistry.sol\":3249:3252  i++ */\n    tag_443:\n        /* \"ctiIncentiveDedupRegistry/ctiIncentiveDedupRegistry.sol\":173:7664  contract RegistCTI {... */\n      dup3\n      mload\n        /* \"ctiIncentiveDedupRegistry/ctiIncentiveDedupRegistry.sol\":3232:3247  i < tags.length */\n      dup5\n      lt\n      iszero\n      tag_444\n      jumpi\n        /* \"ctiIncentiveDedupRegistry/ctiIncentiveDedupRegistry.sol\":3185:3205  abi.encodePacked(ip) */\n      0x20\n        /* \"ctiIncentiveDedupRegistry/ctiIncentiveDedupRegistry.sol\":3279:3314  abi.encodePacked(combined, tags[i]) */\n      tag_446\n        /* \"ctiIncentiveDedupRegistry/ctiIncentiveDedupRegistry.sol\":173:7664  contract RegistCTI {... */\n      0x01\n        /* \"ctiIncentiveDedupRegistry/ctiIncentiveDedupRegistry.sol\":3306:3313  tags[i] */\n      swap3\n      dup3\n      dup1\n      tag_447\n      dup10\n      dup10\n      tag_28\n      jump\t// in\n    tag_447:\n      mload\n        /* \"ctiIncentiveDedupRegistry/ctiIncentiveDedupRegistry.sol\":173:7664  contract RegistCTI {... */\n      mload(0x40)\n      swap6\n      dup5\n      dup8\n      swap6\n      mload\n      swap2\n      dup3\n      swap2\n      add\n        /* \"ctiIncentiveDedupRegistry/ctiIncentiveDedupRegistry.sol\":3279:3314  abi.encodePacked(combined, tags[i]) */\n      dup5\n      dup8\n      add\n        /* \"ctiIncentiveDedupRegistry/ctiIncentiveDedupRegistry.sol\":173:7664  contract RegistCTI {... */\n      mcopy\n      dup5\n      add\n      swap1\n      dup3\n      dup3\n      add\n      0x00\n      dup2\n      mstore\n      dup2\n      mload\n      swap4\n      dup5\n      swap3\n      add\n      swap1\n      mcopy\n      add\n      add\n      0x00\n      dup2\n      mstore\n        /* \"ctiIncentiveDedupRegistry/ctiIncentiveDedupRegistry.sol\":3279:3314  abi.encodePacked(combined, tags[i]) */\n      sub\n        /* \"ctiIncentiveDedupRegistry/ctiIncentiveDedupRegistry.sol\":173:7664  contract RegistCTI {... */\n      not(0x1f)\n        /* \"ctiIncentiveDedupRegistry/ctiIncentiveDedupRegistry.sol\":3279:3314  abi.encodePacked(combined, tags[i]) */\n      dup2\n      add\n      dup4\n      mstore\n      dup3\n      tag_2\n      jump\t// in\n    tag_446:\n        /* \"ctiIncentiveDedupRegistry/ctiIncentiveDedupRegistry.sol\":3249:3252  i++ */\n      swap4\n        /* \"ctiIncentiveDedupRegistry/ctiIncentiveDedupRegistry.sol\":173:7664  contract RegistCTI {... */\n      add\n        /* \"ctiIncentiveDedupRegistry/ctiIncentiveDedupRegistry.sol\":3220:3230  uint i = 0 */\n      swap3\n      jump(tag_443)\n        /* \"ctiIncentiveDedupRegistry/ctiIncentiveDedupRegistry.sol\":3232:3247  i < tags.length */\n    tag_444:\n      swap3\n      pop\n      swap3\n      swap1\n      pop\n      0x00\n        /* \"ctiIncentiveDedupRegistry/ctiIncentiveDedupRegistry.sol\":3334:3444  for (uint i = 0; i < iocs.length; i++) {... */\n      swap2\n        /* \"ctiIncentiveDedupRegistry/ctiIncentiveDedupRegistry.sol\":3368:3371  i++ */\n    tag_448:\n        /* \"ctiIncentiveDedupRegistry/ctiIncentiveDedupRegistry.sol\":173:7664  contract RegistCTI {... */\n      dup2\n      mload\n        /* \"ctiIncentiveDedupRegistry/ctiIncentiveDedupRegistry.sol\":3351:3366  i < iocs.length */\n      dup4\n      lt\n      iszero\n      tag_449\n      jumpi\n        /* \"ctiIncentiveDedupRegistry/ctiIncentiveDedupRegistry.sol\":3185:3205  abi.encodePacked(ip) */\n      0x20\n        /* \"ctiIncentiveDedupRegistry/ctiIncentiveDedupRegistry.sol\":3398:3433  abi.encodePacked(combined, iocs[i]) */\n      tag_451\n        /* \"ctiIncentiveDedupRegistry/ctiIncentiveDedupRegistry.sol\":173:7664  contract RegistCTI {... */\n      0x01\n        /* \"ctiIncentiveDedupRegistry/ctiIncentiveDedupRegistry.sol\":3425:3432  iocs[i] */\n      swap3\n      dup3\n      dup1\n      tag_447\n      dup9\n      dup9\n      tag_28\n      jump\t// in\n        /* \"ctiIncentiveDedupRegistry/ctiIncentiveDedupRegistry.sol\":3398:3433  abi.encodePacked(combined, iocs[i]) */\n    tag_451:\n        /* \"ctiIncentiveDedupRegistry/ctiIncentiveDedupRegistry.sol\":3368:3371  i++ */\n      swap3\n        /* \"ctiIncentiveDedupRegistry/ctiIncentiveDedupRegistry.sol\":173:7664  contract RegistCTI {... */\n      add\n        /* \"ctiIncentiveDedupRegistry/ctiIncentiveDedupRegistry.sol\":3339:3349  uint i = 0 */\n      swap2\n      jump(tag_448)\n        /* \"ctiIncentiveDedupRegistry/ctiIncentiveDedupRegistry.sol\":3351:3366  i < iocs.length */\n    tag_449:\n      swap2\n      pop\n      pop\n        /* \"ctiIncentiveDedupRegistry/ctiIncentiveDedupRegistry.sol\":3185:3205  abi.encodePacked(ip) */\n      0x20\n        /* \"ctiIncentiveDedupRegistry/ctiIncentiveDedupRegistry.sol\":173:7664  contract RegistCTI {... */\n      dup2\n      mload\n      swap2\n      add\n        /* \"ctiIncentiveDedupRegistry/ctiIncentiveDedupRegistry.sol\":3460:3479  keccak256(combined) */\n      keccak256\n        /* \"ctiIncentiveDedupRegistry/ctiIncentiveDedupRegistry.sol\":2998:3486  function generateCompositeHash(... */\n      swap1\n      jump\t// out\n        /* \"ctiIncentiveDedupRegistry/ctiIncentiveDedupRegistry.sol\":173:7664  contract RegistCTI {... */\n    tag_33:\n      dup2\n      dup2\n      lt\n      tag_454\n      jumpi\n      pop\n      pop\n      jump\t// out\n    tag_454:\n      0x00\n      dup2\n      sstore\n      0x01\n      add\n      jump(tag_33)\n    tag_35:\n      swap2\n      swap1\n      swap2\n      dup3\n      mload\n      swap3\n      dup4\n      mload\n      sub(shl(0x40, 0x01), 0x01)\n      dup2\n      gt\n      tag_141\n      jumpi\n      tag_458\n      dup4\n      sload\n      tag_7\n      jump\t// in\n    tag_458:\n      0x1f\n      dup2\n      gt\n      tag_459\n      jumpi\n    tag_460:\n      pop\n      0x20\n      swap5\n      0x1f\n      dup3\n      gt\n      0x01\n      eq\n      tag_461\n      jumpi\n      tag_463\n      swap3\n      swap4\n      swap5\n      swap6\n      dup3\n      swap2\n      0x00\n      swap3\n      tag_522\n      jumpi\n    tag_465:\n      pop\n      pop\n      dup2\n      0x01\n      shl\n      swap2\n      not(0x00)\n      swap1\n      0x03\n      shl\n      shr\n      not\n      and\n      or\n      swap1\n      jump\n    tag_463:\n      dup3\n      sstore\n    tag_466:\n      0x01\n      dup3\n      add\n      0x20\n      dup3\n      add\n      mload\n      dup1\n      mload\n      swap1\n      sub(shl(0x40, 0x01), 0x01)\n      dup3\n      gt\n      tag_141\n      jumpi\n      tag_469\n      dup4\n      sload\n      tag_7\n      jump\t// in\n    tag_469:\n      0x1f\n      dup2\n      gt\n      tag_470\n      jumpi\n    tag_471:\n      pop\n      0x20\n      swap1\n      0x1f\n      dup4\n      gt\n      0x01\n      eq\n      tag_472\n      jumpi\n      tag_474\n      swap3\n      swap2\n      0x00\n      swap2\n      dup4\n      tag_522\n      jumpi\n      pop\n      pop\n      dup2\n      0x01\n      shl\n      swap2\n      not(0x00)\n      swap1\n      0x03\n      shl\n      shr\n      not\n      and\n      or\n      swap1\n      jump\n    tag_474:\n      swap1\n      sstore\n    tag_477:\n      0x40\n      dup2\n      add\n      mload\n      0x02\n      dup4\n      add\n      sstore\n      0x03\n      dup3\n      add\n      0x01\n      dup1\n      0xa0\n      shl\n      sub\n      0x60\n      dup4\n      add\n      mload\n      and\n      shl(0xa0, 0xffffffffffffffffffffffff)\n      dup3\n      sload\n      and\n      or\n      swap1\n      sstore\n      0x04\n      dup3\n      add\n      0x80\n      dup3\n      add\n      mload\n      dup1\n      mload\n      swap1\n      sub(shl(0x40, 0x01), 0x01)\n      dup3\n      gt\n      tag_141\n      jumpi\n      tag_480\n      dup4\n      sload\n      tag_7\n      jump\t// in\n    tag_480:\n      0x1f\n      dup2\n      gt\n      tag_481\n      jumpi\n    tag_482:\n      pop\n      0x20\n      swap1\n      0x1f\n      dup4\n      gt\n      0x01\n      eq\n      tag_483\n      jumpi\n      tag_485\n      swap3\n      swap2\n      0x00\n      swap2\n      dup4\n      tag_522\n      jumpi\n      pop\n      pop\n      dup2\n      0x01\n      shl\n      swap2\n      not(0x00)\n      swap1\n      0x03\n      shl\n      shr\n      not\n      and\n      or\n      swap1\n      jump\n    tag_485:\n      swap1\n      sstore\n    tag_488:\n      0x05\n      dup3\n      add\n      0xa0\n      dup3\n      add\n      mload\n      dup1\n      mload\n      swap1\n      shl(0x40, 0x01)\n      dup3\n      gt\n      tag_141\n      jumpi\n      dup3\n      sload\n      dup3\n      dup5\n      sstore\n      dup1\n      dup4\n      lt\n      tag_491\n      jumpi\n    tag_492:\n      pop\n      0x20\n      add\n      swap2\n      0x00\n      mstore\n      keccak256(0x00, 0x20)\n      swap2\n      0x00\n      swap1\n    tag_493:\n      dup3\n      dup3\n      lt\n      tag_494\n      jumpi\n      pop\n      pop\n      pop\n      pop\n      0xc0\n      dup2\n      add\n      mload\n      0x06\n      dup4\n      add\n      sstore\n      0x07\n      dup3\n      add\n      0xe0\n      dup3\n      add\n      mload\n      dup1\n      mload\n      swap1\n      sub(shl(0x40, 0x01), 0x01)\n      dup3\n      gt\n      tag_141\n      jumpi\n      tag_498\n      dup4\n      sload\n      tag_7\n      jump\t// in\n    tag_498:\n      0x1f\n      dup2\n      gt\n      tag_499\n      jumpi\n    tag_500:\n      pop\n      0x20\n      swap1\n      0x1f\n      dup4\n      gt\n      0x01\n      eq\n      tag_501\n      jumpi\n      tag_503\n      swap3\n      swap2\n      0x00\n      swap2\n      dup4\n      tag_522\n      jumpi\n      pop\n      pop\n      dup2\n      0x01\n      shl\n      swap2\n      not(0x00)\n      swap1\n      0x03\n      shl\n      shr\n      not\n      and\n      or\n      swap1\n      jump\n    tag_503:\n      swap1\n      sstore\n    tag_506:\n      0x0100\n      dup2\n      add\n      mload\n      0x08\n      dup4\n      add\n      sstore\n      0x09\n      dup3\n      add\n      0x0120\n      dup3\n      add\n      mload\n      dup1\n      mload\n      swap1\n      shl(0x40, 0x01)\n      dup3\n      gt\n      tag_141\n      jumpi\n      dup3\n      sload\n      dup3\n      dup5\n      sstore\n      dup1\n      dup4\n      lt\n      tag_509\n      jumpi\n    tag_510:\n      pop\n      0x20\n      add\n      swap2\n      0x00\n      mstore\n      keccak256(0x00, 0x20)\n      swap2\n      0x00\n      swap1\n    tag_511:\n      dup3\n      dup3\n      lt\n      tag_512\n      jumpi\n      pop\n      pop\n      pop\n      pop\n      0x01c0\n      dup2\n      0x0140\n      0x0e\n      swap4\n      add\n      mload\n      0x0a\n      dup6\n      add\n      sstore\n      0x0160\n      dup2\n      add\n      mload\n      0x0b\n      dup6\n      add\n      sstore\n      0x0180\n      dup2\n      add\n      mload\n      0x0c\n      dup6\n      add\n      sstore\n      0x01a0\n      dup2\n      add\n      mload\n      0x0d\n      dup6\n      add\n      sstore\n      add\n      mload\n      swap2\n      add\n      sstore\n      jump\t// out\n    tag_512:\n      dup1\n      mload\n      dup1\n      mload\n      swap1\n      sub(shl(0x40, 0x01), 0x01)\n      dup3\n      gt\n      tag_141\n      jumpi\n      tag_516\n      dup7\n      sload\n      tag_7\n      jump\t// in\n    tag_516:\n      0x1f\n      dup2\n      gt\n      tag_517\n      jumpi\n    tag_518:\n      pop\n      0x20\n      swap1\n      0x1f\n      dup4\n      gt\n      0x01\n      eq\n      tag_519\n      jumpi\n      swap3\n      tag_521\n      dup4\n      0x01\n      swap6\n      swap5\n      0x20\n      swap5\n      dup8\n      swap7\n      0x00\n      swap3\n      tag_522\n      jumpi\n      pop\n      pop\n      dup2\n      0x01\n      shl\n      swap2\n      not(0x00)\n      swap1\n      0x03\n      shl\n      shr\n      not\n      and\n      or\n      swap1\n      jump\n    tag_521:\n      dup8\n      sstore\n    tag_524:\n      add\n      swap5\n      add\n      swap2\n      add\n      swap1\n      swap3\n      jump(tag_511)\n    tag_522:\n      add\n      mload\n      swap1\n      pop\n      0x00\n      dup1\n      jump(tag_465)\n    tag_519:\n      swap1\n      not(0x1f)\n      dup4\n      and\n      swap2\n      dup8\n      0x00\n      mstore\n      dup2\n      0x00\n      keccak256\n      swap3\n      0x00\n    tag_525:\n      dup2\n      dup2\n      lt\n      tag_526\n      jumpi\n      pop\n      swap4\n      0x20\n      swap4\n      0x01\n      swap7\n      swap4\n      dup8\n      swap7\n      swap4\n      dup4\n      dup9\n      swap6\n      lt\n      tag_528\n      jumpi\n    tag_529:\n      pop\n      pop\n      pop\n      dup2\n      shl\n      add\n      dup8\n      sstore\n      jump(tag_524)\n    tag_528:\n      add\n      mload\n      not(0x00)\n      0xf8\n      dup5\n      0x03\n      shl\n      and\n      shr\n      not\n      and\n      swap1\n      sstore\n      0x00\n      dup1\n      dup1\n      jump(tag_529)\n    tag_526:\n      swap3\n      swap4\n      0x20\n      0x01\n      dup2\n      swap3\n      dup8\n      dup7\n      add\n      mload\n      dup2\n      sstore\n      add\n      swap6\n      add\n      swap4\n      add\n      jump(tag_525)\n    tag_517:\n      tag_530\n      swap1\n      dup8\n      0x00\n      mstore\n      keccak256(0x00, 0x20)\n      0x1f\n      dup6\n      add\n      0x05\n      shr\n      dup2\n      add\n      swap2\n      0x20\n      dup7\n      lt\n      tag_531\n      jumpi\n    tag_532:\n      0x1f\n      add\n      0x05\n      shr\n      add\n      swap1\n      tag_33\n      jump\t// in\n    tag_530:\n      0x00\n      jump(tag_518)\n    tag_531:\n      swap1\n      swap2\n      pop\n      dup2\n      swap1\n      jump(tag_532)\n    tag_509:\n      dup4\n      0x00\n      mstore\n      dup3\n      keccak256(0x00, 0x20)\n      swap2\n      dup3\n      add\n      swap2\n      add\n    tag_533:\n      dup2\n      dup2\n      lt\n      tag_534\n      jumpi\n      pop\n      jump(tag_510)\n    tag_534:\n      dup1\n      tag_536\n      0x01\n      swap3\n      sload\n      tag_7\n      jump\t// in\n    tag_536:\n      dup1\n      tag_537\n      jumpi\n    tag_538:\n      pop\n      add\n      jump(tag_533)\n    tag_537:\n      0x1f\n      dup2\n      gt\n      dup4\n      eq\n      tag_539\n      jumpi\n      pop\n      0x00\n      dup2\n      sstore\n    tag_541:\n      0x00\n      jump(tag_538)\n    tag_539:\n      tag_542\n      swap1\n      dup3\n      0x00\n      mstore\n      dup4\n      0x1f\n      keccak256(0x00, 0x20)\n      swap3\n      add\n      0x05\n      shr\n      dup3\n      add\n      swap2\n      add\n      tag_33\n      jump\t// in\n    tag_542:\n      dup1\n      0x00\n      mstore\n      0x00\n      0x20\n      dup2\n      keccak256\n      dup2\n      dup4\n      sstore\n      sstore\n      jump(tag_541)\n    tag_501:\n      swap1\n      not(0x1f)\n      dup4\n      and\n      swap2\n      dup5\n      0x00\n      mstore\n      dup2\n      0x00\n      keccak256\n      swap3\n      0x00\n    tag_543:\n      dup2\n      dup2\n      lt\n      tag_544\n      jumpi\n      pop\n      swap1\n      dup5\n      0x01\n      swap6\n      swap5\n      swap4\n      swap3\n      lt\n      tag_546\n      jumpi\n    tag_547:\n      pop\n      pop\n      pop\n      dup2\n      shl\n      add\n      swap1\n      sstore\n      jump(tag_506)\n    tag_546:\n      add\n      mload\n      not(0x00)\n      0xf8\n      dup5\n      0x03\n      shl\n      and\n      shr\n      not\n      and\n      swap1\n      sstore\n      0x00\n      dup1\n      dup1\n      jump(tag_547)\n    tag_544:\n      swap3\n      swap4\n      0x20\n      0x01\n      dup2\n      swap3\n      dup8\n      dup7\n      add\n      mload\n      dup2\n      sstore\n      add\n      swap6\n      add\n      swap4\n      add\n      jump(tag_543)\n    tag_499:\n      tag_548\n      swap1\n      dup5\n      0x00\n      mstore\n      keccak256(0x00, 0x20)\n      0x1f\n      dup6\n      add\n      0x05\n      shr\n      dup2\n      add\n      swap2\n      0x20\n      dup7\n      lt\n      tag_531\n      jumpi\n      0x1f\n      add\n      0x05\n      shr\n      add\n      swap1\n      tag_33\n      jump\t// in\n    tag_548:\n      0x00\n      jump(tag_500)\n    tag_494:\n      dup1\n      mload\n      dup1\n      mload\n      swap1\n      sub(shl(0x40, 0x01), 0x01)\n      dup3\n      gt\n      tag_141\n      jumpi\n      tag_553\n      dup7\n      sload\n      tag_7\n      jump\t// in\n    tag_553:\n      0x1f\n      dup2\n      gt\n      tag_554\n      jumpi\n    tag_555:\n      pop\n      0x20\n      swap1\n      0x1f\n      dup4\n      gt\n      0x01\n      eq\n      tag_556\n      jumpi\n      swap3\n      tag_558\n      dup4\n      0x01\n      swap6\n      swap5\n      0x20\n      swap5\n      dup8\n      swap7\n      0x00\n      swap3\n      tag_522\n      jumpi\n      pop\n      pop\n      dup2\n      0x01\n      shl\n      swap2\n      not(0x00)\n      swap1\n      0x03\n      shl\n      shr\n      not\n      and\n      or\n      swap1\n      jump\n    tag_558:\n      dup8\n      sstore\n    tag_561:\n      add\n      swap5\n      add\n      swap2\n      add\n      swap1\n      swap3\n      jump(tag_493)\n    tag_556:\n      swap1\n      not(0x1f)\n      dup4\n      and\n      swap2\n      dup8\n      0x00\n      mstore\n      dup2\n      0x00\n      keccak256\n      swap3\n      0x00\n    tag_562:\n      dup2\n      dup2\n      lt\n      tag_563\n      jumpi\n      pop\n      swap4\n      0x20\n      swap4\n      0x01\n      swap7\n      swap4\n      dup8\n      swap7\n      swap4\n      dup4\n      dup9\n      swap6\n      lt\n      tag_565\n      jumpi\n    tag_566:\n      pop\n      pop\n      pop\n      dup2\n      shl\n      add\n      dup8\n      sstore\n      jump(tag_561)\n    tag_565:\n      add\n      mload\n      not(0x00)\n      0xf8\n      dup5\n      0x03\n      shl\n      and\n      shr\n      not\n      and\n      swap1\n      sstore\n      0x00\n      dup1\n      dup1\n      jump(tag_566)\n    tag_563:\n      swap3\n      swap4\n      0x20\n      0x01\n      dup2\n      swap3\n      dup8\n      dup7\n      add\n      mload\n      dup2\n      sstore\n      add\n      swap6\n      add\n      swap4\n      add\n      jump(tag_562)\n    tag_554:\n      tag_567\n      swap1\n      dup8\n      0x00\n      mstore\n      keccak256(0x00, 0x20)\n      0x1f\n      dup6\n      add\n      0x05\n      shr\n      dup2\n      add\n      swap2\n      0x20\n      dup7\n      lt\n      tag_531\n      jumpi\n      0x1f\n      add\n      0x05\n      shr\n      add\n      swap1\n      tag_33\n      jump\t// in\n    tag_567:\n      0x00\n      jump(tag_555)\n    tag_491:\n      dup4\n      0x00\n      mstore\n      dup3\n      keccak256(0x00, 0x20)\n      swap2\n      dup3\n      add\n      swap2\n      add\n    tag_570:\n      dup2\n      dup2\n      lt\n      tag_571\n      jumpi\n      pop\n      jump(tag_492)\n    tag_571:\n      dup1\n      tag_573\n      0x01\n      swap3\n      sload\n      tag_7\n      jump\t// in\n    tag_573:\n      dup1\n      tag_574\n      jumpi\n    tag_575:\n      pop\n      add\n      jump(tag_570)\n    tag_574:\n      0x1f\n      dup2\n      gt\n      dup4\n      eq\n      tag_576\n      jumpi\n      pop\n      0x00\n      dup2\n      sstore\n    tag_578:\n      0x00\n      jump(tag_575)\n    tag_576:\n      tag_579\n      swap1\n      dup3\n      0x00\n      mstore\n      dup4\n      0x1f\n      keccak256(0x00, 0x20)\n      swap3\n      add\n      0x05\n      shr\n      dup3\n      add\n      swap2\n      add\n      tag_33\n      jump\t// in\n    tag_579:\n      dup1\n      0x00\n      mstore\n      0x00\n      0x20\n      dup2\n      keccak256\n      dup2\n      dup4\n      sstore\n      sstore\n      jump(tag_578)\n    tag_483:\n      swap1\n      not(0x1f)\n      dup4\n      and\n      swap2\n      dup5\n      0x00\n      mstore\n      dup2\n      0x00\n      keccak256\n      swap3\n      0x00\n    tag_580:\n      dup2\n      dup2\n      lt\n      tag_581\n      jumpi\n      pop\n      swap1\n      dup5\n      0x01\n      swap6\n      swap5\n      swap4\n      swap3\n      lt\n      tag_583\n      jumpi\n    tag_584:\n      pop\n      pop\n      pop\n      dup2\n      shl\n      add\n      swap1\n      sstore\n      jump(tag_488)\n    tag_583:\n      add\n      mload\n      not(0x00)\n      0xf8\n      dup5\n      0x03\n      shl\n      and\n      shr\n      not\n      and\n      swap1\n      sstore\n      0x00\n      dup1\n      dup1\n      jump(tag_584)\n    tag_581:\n      swap3\n      swap4\n      0x20\n      0x01\n      dup2\n      swap3\n      dup8\n      dup7\n      add\n      mload\n      dup2\n      sstore\n      add\n      swap6\n      add\n      swap4\n      add\n      jump(tag_580)\n    tag_481:\n      tag_585\n      swap1\n      dup5\n      0x00\n      mstore\n      keccak256(0x00, 0x20)\n      0x1f\n      dup6\n      add\n      0x05\n      shr\n      dup2\n      add\n      swap2\n      0x20\n      dup7\n      lt\n      tag_531\n      jumpi\n      0x1f\n      add\n      0x05\n      shr\n      add\n      swap1\n      tag_33\n      jump\t// in\n    tag_585:\n      0x00\n      jump(tag_482)\n    tag_472:\n      swap1\n      not(0x1f)\n      dup4\n      and\n      swap2\n      dup5\n      0x00\n      mstore\n      dup2\n      0x00\n      keccak256\n      swap3\n      0x00\n    tag_588:\n      dup2\n      dup2\n      lt\n      tag_589\n      jumpi\n      pop\n      swap1\n      dup5\n      0x01\n      swap6\n      swap5\n      swap4\n      swap3\n      lt\n      tag_591\n      jumpi\n    tag_592:\n      pop\n      pop\n      pop\n      dup2\n      shl\n      add\n      swap1\n      sstore\n      jump(tag_477)\n    tag_591:\n      add\n      mload\n      not(0x00)\n      0xf8\n      dup5\n      0x03\n      shl\n      and\n      shr\n      not\n      and\n      swap1\n      sstore\n      0x00\n      dup1\n      dup1\n      jump(tag_592)\n    tag_589:\n      swap3\n      swap4\n      0x20\n      0x01\n      dup2\n      swap3\n      dup8\n      dup7\n      add\n      mload\n      dup2\n      sstore\n      add\n      swap6\n      add\n      swap4\n      add\n      jump(tag_588)\n    tag_470:\n      tag_593\n      swap1\n      dup5\n      0x00\n      mstore\n      keccak256(0x00, 0x20)\n      0x1f\n      dup6\n      add\n      0x05\n      shr\n      dup2\n      add\n      swap2\n      0x20\n      dup7\n      lt\n      tag_531\n      jumpi\n      0x1f\n      add\n      0x05\n      shr\n      add\n      swap1\n      tag_33\n      jump\t// in\n    tag_593:\n      0x00\n      jump(tag_471)\n    tag_461:\n      not(0x1f)\n      dup3\n      and\n      swap6\n      dup5\n      0x00\n      mstore\n      dup1\n      0x00\n      keccak256\n      swap2\n      0x00\n    tag_596:\n      dup9\n      dup2\n      lt\n      tag_597\n      jumpi\n      pop\n      dup4\n      0x01\n      swap6\n      swap7\n      swap8\n      swap9\n      lt\n      tag_599\n      jumpi\n    tag_600:\n      pop\n      pop\n      pop\n      dup2\n      shl\n      add\n      dup3\n      sstore\n      jump(tag_466)\n    tag_599:\n      add\n      mload\n      not(0x00)\n      0xf8\n      dup5\n      0x03\n      shl\n      and\n      shr\n      not\n      and\n      swap1\n      sstore\n      0x00\n      dup1\n      dup1\n      jump(tag_600)\n    tag_597:\n      swap2\n      swap3\n      0x20\n      0x01\n      dup2\n      swap3\n      dup7\n      dup6\n      add\n      mload\n      dup2\n      sstore\n      add\n      swap5\n      add\n      swap3\n      add\n      jump(tag_596)\n    tag_459:\n      tag_601\n      swap1\n      dup5\n      0x00\n      mstore\n      keccak256(0x00, 0x20)\n      0x1f\n      dup5\n      add\n      0x05\n      shr\n      dup2\n      add\n      swap2\n      0x20\n      dup6\n      lt\n      tag_531\n      jumpi\n      0x1f\n      add\n      0x05\n      shr\n      add\n      swap1\n      tag_33\n      jump\t// in\n    tag_601:\n      0x00\n      jump(tag_460)\n        /* \"ctiIncentiveDedupRegistry/ctiIncentiveDedupRegistry.sol\":2385:2930  function detectSimilarity(string memory new_cti_hash, string memory existing_cti_hash) public pure returns (uint similarityScore) {... */\n    tag_36:\n      swap1\n        /* \"ctiIncentiveDedupRegistry/ctiIncentiveDedupRegistry.sol\":173:7664  contract RegistCTI {... */\n      dup2\n      mload\n      dup2\n      mload\n        /* \"ctiIncentiveDedupRegistry/ctiIncentiveDedupRegistry.sol\":2626:2646  a.length != b.length */\n      dup2\n      eq\n      swap1\n      dup2\n      iszero\n        /* \"ctiIncentiveDedupRegistry/ctiIncentiveDedupRegistry.sol\":2626:2663  a.length != b.length || a.length == 0 */\n      swap2\n      tag_604\n      jumpi\n        /* \"ctiIncentiveDedupRegistry/ctiIncentiveDedupRegistry.sol\":2385:2930  function detectSimilarity(string memory new_cti_hash, string memory existing_cti_hash) public pure returns (uint similarityScore) {... */\n    tag_605:\n        /* \"ctiIncentiveDedupRegistry/ctiIncentiveDedupRegistry.sol\":2622:2698  if (a.length != b.length || a.length == 0) {... */\n      pop\n      tag_606\n      jumpi\n        /* \"ctiIncentiveDedupRegistry/ctiIncentiveDedupRegistry.sol\":173:7664  contract RegistCTI {... */\n      0x00\n        /* \"ctiIncentiveDedupRegistry/ctiIncentiveDedupRegistry.sol\":2735:2745  uint i = 0 */\n      swap1\n        /* \"ctiIncentiveDedupRegistry/ctiIncentiveDedupRegistry.sol\":173:7664  contract RegistCTI {... */\n      0x00\n        /* \"ctiIncentiveDedupRegistry/ctiIncentiveDedupRegistry.sol\":2761:2764  i++ */\n    tag_608:\n        /* \"ctiIncentiveDedupRegistry/ctiIncentiveDedupRegistry.sol\":173:7664  contract RegistCTI {... */\n      dup4\n      mload\n        /* \"ctiIncentiveDedupRegistry/ctiIncentiveDedupRegistry.sol\":2747:2759  i < a.length */\n      dup2\n      lt\n      iszero\n      tag_398\n      jumpi\n      not(sub(shl(0xf8, 0x01), 0x01))\n        /* \"ctiIncentiveDedupRegistry/ctiIncentiveDedupRegistry.sol\":2784:2788  a[i] */\n      tag_611\n      dup3\n      dup7\n      tag_19\n      jump\t// in\n    tag_611:\n        /* \"ctiIncentiveDedupRegistry/ctiIncentiveDedupRegistry.sol\":173:7664  contract RegistCTI {... */\n      mload\n      and\n      not(sub(shl(0xf8, 0x01), 0x01))\n        /* \"ctiIncentiveDedupRegistry/ctiIncentiveDedupRegistry.sol\":2792:2796  b[i] */\n      tag_612\n      dup4\n      dup6\n      tag_19\n      jump\t// in\n    tag_612:\n        /* \"ctiIncentiveDedupRegistry/ctiIncentiveDedupRegistry.sol\":173:7664  contract RegistCTI {... */\n      mload\n      and\n        /* \"ctiIncentiveDedupRegistry/ctiIncentiveDedupRegistry.sol\":2784:2796  a[i] != b[i] */\n      sub\n        /* \"ctiIncentiveDedupRegistry/ctiIncentiveDedupRegistry.sol\":2780:2837  if (a[i] != b[i]) {... */\n      tag_613\n      jumpi\n        /* \"ctiIncentiveDedupRegistry/ctiIncentiveDedupRegistry.sol\":2761:2764  i++ */\n    tag_614:\n        /* \"ctiIncentiveDedupRegistry/ctiIncentiveDedupRegistry.sol\":173:7664  contract RegistCTI {... */\n      0x01\n      add\n        /* \"ctiIncentiveDedupRegistry/ctiIncentiveDedupRegistry.sol\":2735:2745  uint i = 0 */\n      jump(tag_608)\n        /* \"ctiIncentiveDedupRegistry/ctiIncentiveDedupRegistry.sol\":2780:2837  if (a[i] != b[i]) {... */\n    tag_613:\n        /* \"ctiIncentiveDedupRegistry/ctiIncentiveDedupRegistry.sol\":2816:2822  diff++ */\n      swap2\n      tag_615\n        /* \"ctiIncentiveDedupRegistry/ctiIncentiveDedupRegistry.sol\":173:7664  contract RegistCTI {... */\n      0x01\n        /* \"ctiIncentiveDedupRegistry/ctiIncentiveDedupRegistry.sol\":2816:2822  diff++ */\n      swap2\n      tag_20\n      jump\t// in\n    tag_615:\n        /* \"ctiIncentiveDedupRegistry/ctiIncentiveDedupRegistry.sol\":2780:2837  if (a[i] != b[i]) {... */\n      swap3\n      swap1\n      pop\n      jump(tag_614)\n        /* \"ctiIncentiveDedupRegistry/ctiIncentiveDedupRegistry.sol\":2622:2698  if (a.length != b.length || a.length == 0) {... */\n    tag_606:\n        /* \"ctiIncentiveDedupRegistry/ctiIncentiveDedupRegistry.sol\":2679:2687  return 0 */\n      pop\n      pop\n        /* \"ctiIncentiveDedupRegistry/ctiIncentiveDedupRegistry.sol\":173:7664  contract RegistCTI {... */\n      0x00\n        /* \"ctiIncentiveDedupRegistry/ctiIncentiveDedupRegistry.sol\":2679:2687  return 0 */\n      swap1\n      jump\t// out\n        /* \"ctiIncentiveDedupRegistry/ctiIncentiveDedupRegistry.sol\":2626:2663  a.length != b.length || a.length == 0 */\n    tag_604:\n        /* \"ctiIncentiveDedupRegistry/ctiIncentiveDedupRegistry.sol\":2650:2663  a.length == 0 */\n      swap1\n      pop\n      iszero\n        /* \"ctiIncentiveDedupRegistry/ctiIncentiveDedupRegistry.sol\":2626:2663  a.length != b.length || a.length == 0 */\n      0x00\n      jump(tag_605)\n\n    auxdata: 0xa26469706673582212203c862d75897fca32e23c4c16afea7e2061c8e008f23aa57bfd28dc54c8038a4e64736f6c634300081a0033\n}\n",
				"bytecode": {
					"linkReferences": {},
					"object": "60808060405234601a57605560055561203d908161001f8239f35b5f80fdfe60806040526004361015610011575f80fd5b5f3560e01c806317093bce14610e225780631d785ed314610dcf5780632489ed4914610dae578063467fe70714610d2b5780635988929114610c295780637c4870e714610b5e5780637f979a0914610b0457806383de119114610a8257806398ea94c614610a3b57806399cfaa32146109fc5780639a0f9ea9146109865780639febecfa1461092c578063a4e4fd851461071a578063aa67f0fe146106c5578063ae9454431461060b578063c99960d314610534578063d1082c92146101a0578063f2ff5b5c1461013d5763f718fe17146100ea575f80fd5b34610139576020806100fb36610f1b565b9290604051928184925191829101835e8101600681520301902080548210156101395760209161012a91610f4c565b90549060031b1c604051908152f35b5f80fd5b34610139576040366003190112610139576004356001600160401b0381116101395761016d903690600401610efd565b6024356001600160401b03811161013957602091610192610198923690600401610efd565b90611f8a565b604051908152f35b3461013957610120366003190112610139576004356001600160401b038111610139576101d1903690600401611106565b906024356001600160401b038111610139576101f1903690600401611106565b6044929192356001600160401b03811161013957610213903690600401611106565b93906064356001600160401b03811161013957610234903690600401611331565b95909660a4356001600160401b03811161013957610256903690600401611106565b969060e4356001600160401b03811161013957610277903690600401611331565b909161028c61028736888a610eb8565b6116ba565b6104f8576102bf8b6102ae8e9d9e6102a68e369087610eb8565b923691611292565b6102b9368688611292565b916116dc565b995f9b6005549c5b6040516020818e808f83378101600181520301902054811015610395578d6103348e61032e8f8f868260206103119361031795604051938492833781016001815203019020611318565b50611512565b60e08101519061012060a0820151910151916116dc565b906113ab565b1015610342576001016102c7565b60405162461bcd60e51b815260206004820152602560248201527f43544920697320746f6f2073696d696c617220746f20616e206578697374696e60448201526467206f6e6560d81b6064820152608490fd5b508d9a99989a604051898d8237808a81016002815203602001902060ff1981541660011790556040519b8c996103ca8b610e7b565b6103d5368b8b610eb8565b8b526103e2368e8e610eb8565b60208c01524260408c01523360608c015236906103fe92610eb8565b60808a0152369061040e92611292565b60a088015260843560c0880152369061042692610eb8565b60e086015260c435610100860152369061043f92611292565b6101208401526101043561014084015261016083015f905261018083015f90526101a083015f90526101c083015f905281604051928392833781015f81520360200190209061048d916117ba565b8160405192839283378101600181520360200190208054600160401b8110156104e4576104bf91600182018155611318565b9190916104d1576104cf916117ba565b005b634e487b7160e01b5f525f60045260245ffd5b634e487b7160e01b5f52604160045260245ffd5b60405162461bcd60e51b815260206004820152601460248201527310d51248185b1c9958591e481d5c1b1bd859195960621b6044820152606490fd5b34610139576020366003190112610139576004356001600160401b038111610139576105f3602061056c610607933690600401611106565b91905f6101c060405161057e81610e7b565b6060815260608582015282604082015282606082015260606080820152606060a08201528260c0820152606060e0820152826101008201526060610120820152826101408201528261016082015282610180820152826101a0820152015282604051938492833781015f815203019020611512565b60405191829160208352602083019061118b565b0390f35b346101395760208061061c36610f1b565b9290604051928184925191829101835e810160018152030190209081548110156101395761064991611318565b5061065381610fad565b61060761066260018401610fad565b60028401546003850154919490916001600160a01b031661068560048301610fad565b600683015461069660078501610fad565b600885015490600a86015492600b87015494600c88015496600e600d8a0154990154996040519d8e9d8e611071565b34610139576020366003190112610139576004356001600160401b038111610139576020806106f981933690600401610efd565b604051928184925191829101835e8101600381520301902054604051908152f35b34610139576040366003190112610139576004356001600160401b0381116101395761074a903690600401611106565b60243561077a604051838582375f8185019081528190036020019020600301546001600160a01b03161515611460565b60405182848237602081848101600781520301902060018060a01b0333165f5260205260ff60405f2054166108e757606481116108a9576040518284823760208184810160068152030190208054600160401b8110156104e4576107e391600182018155610f4c565b819291549060031b91821b915f19901b19161790556040518183823760078282019081528190036020908101909120335f90815291526040808220805460ff191660011790555182848237602081848101600681520301902054905f5b8281106108705750610857600e939260209261138d565b9382604051938492833781015f81520301902001555f80f35b906108a260019161089584604051888a82376020818a81016006815203019020610f4c565b90549060031b1c90611600565b9101610840565b60405162461bcd60e51b81526020600482015260166024820152750466565646261636b206d75737420626520307e3130360541b6044820152606490fd5b60405162461bcd60e51b815260206004820152601b60248201527f596f7520616c72656164792073636f72656420746869732043544900000000006044820152606490fd5b34610139576020366003190112610139576004356001600160401b038111610139576109796101926109646020933690600401611106565b9190610971368483610eb8565b923691610eb8565b6005541115604051908152f35b34610139576060366003190112610139576004356001600160401b038111610139576109b6903690600401610efd565b6024356001600160401b038111610139576109d59036906004016112fd565b90604435906001600160401b038211610139576020926102b96101989336906004016112fd565b34610139576020366003190112610139576004356001600160401b03811161013957610a316102876020923690600401610efd565b6040519015158152f35b34610139576020366003190112610139576004356001600160401b03811161013957610a76610a706040923690600401611106565b9061160d565b82519182526020820152f35b34610139576040366003190112610139576004356001600160401b03811161013957610ab2903690600401610efd565b602435906001600160a01b03821682036101395760208091604051928184925191829101835e810160078152030190209060018060a01b03165f52602052602060ff60405f2054166040519015158152f35b34610139576020366003190112610139576004356001600160401b0381116101395760ff602080610b3a81943690600401610efd565b604051928184925191829101835e8101600281520301902054166040519015158152f35b34610139576040366003190112610139576004356001600160401b03811161013957610b90600c913690600401611106565b602060249392933593610bc5604051848382375f81860190815281900384019020600301546001600160a01b03161515611460565b600b6040518483823783818681015f81520301902001610be581546114a1565b905582604051938492833781015f8152030190200180545f8382019384129112908015821691151617610c155755005b634e487b7160e01b5f52601160045260245ffd5b34610139576020366003190112610139576004356001600160401b038111610139576020610c5c81923690600401610efd565b604051928184925191829101835e81016001815203019020805490610c808261127b565b91610c8e6040519384610e97565b8083526020830180925f5260205f205f915b838310610d0d57848660405191829160208301906020845251809152604083019060408160051b85010192915f905b828210610cde57505050500390f35b91936001919395506020610cfd8192603f198a8203018652885161118b565b9601920192018594939192610ccf565b600f6020600192610d1d85611512565b815201920192019190610ca0565b34610139576020366003190112610139576004356001600160401b038111610139576020610d5f600d923690600401611106565b9190610d8d604051848382375f81860190815281900384019020600301546001600160a01b03161515611460565b82604051938492833781015f81520301902001610daa81546114a1565b9055005b346101395760403660031901126101395760206101986024356004356113ab565b34610139576020366003190112610139576004356001600160401b038111610139576020610e0281923690600401610efd565b604051928184925191829101835e81015f81520301902061065381610fad565b3461013957602080610e3336610f1b565b9290604051928184925191829101835e81016004815203019020805482101561013957602091610e6291610f4c565b905460405160039290921b1c6001600160a01b03168152f35b6101e081019081106001600160401b038211176104e457604052565b90601f801991011681019081106001600160401b038211176104e457604052565b9291926001600160401b0382116104e45760405191610ee1601f8201601f191660200184610e97565b829481845281830111610139578281602093845f960137010152565b9080601f8301121561013957816020610f1893359101610eb8565b90565b604060031982011261013957600435906001600160401b03821161013957610f4591600401610efd565b9060243590565b8054821015610f61575f5260205f2001905f90565b634e487b7160e01b5f52603260045260245ffd5b90600182811c92168015610fa3575b6020831014610f8f57565b634e487b7160e01b5f52602260045260245ffd5b91607f1691610f84565b9060405191825f825492610fc084610f75565b808452936001811690811561102b5750600114610fe7575b50610fe592500383610e97565b565b90505f9291925260205f20905f915b81831061100f575050906020610fe5928201015f610fd8565b6020919350806001915483858901015201910190918492610ff6565b905060209250610fe594915060ff191682840152151560051b8201015f610fd8565b805180835260209291819084018484015e5f828201840152601f01601f1916010190565b99969290946101809b989e9d9c9996946110ae8c6110d1956110a06110e49a6101a084526101a084019061104d565b91602081840391015261104d565b60408d01939093526001600160a01b031660608c01528a820360808c015261104d565b9160a089015287820360c089015261104d565b9860e08601526101008501526101208401526101408301526101608201520152565b9181601f84011215610139578235916001600160401b038311610139576020838186019501011161013957565b9080602083519182815201916020808360051b8301019401925f915b83831061115e57505050505090565b909192939460208061117c600193601f19868203018752895161104d565b9701930193019193929061114f565b906101c0806112426112226112066111f46111c66111b489516101e08a526101e08a019061104d565b60208a015189820360208b015261104d565b6040890151604089015260018060a01b0360608a0151166060890152608089015188820360808a015261104d565b60a088015187820360a0890152611133565b60c087015160c087015260e087015186820360e088015261104d565b610100860151610100860152610120860151858203610120870152611133565b936101408101516101408501526101608101516101608501526101808101516101808501526101a08101516101a0850152015191015290565b6001600160401b0381116104e45760051b60200190565b92919061129e8161127b565b936112ac6040519586610e97565b602085838152019160051b8101918383116101395781905b8382106112d2575050505050565b81356001600160401b038111610139576020916112f28784938701610efd565b8152019101906112c4565b9080601f8301121561013957816020610f1893359101611292565b8054821015610f61575f52600f60205f20910201905f90565b9181601f84011215610139578235916001600160401b038311610139576020808501948460051b01011161013957565b908151811015610f61570160200190565b5f198114610c155760010190565b91908203918211610c1557565b8115611397570490565b634e487b7160e01b5f52601260045260245ffd5b90604051916020830152602082526113c4604083610e97565b604051906020820152602081526113dc604082610e97565b5f905f5b8351811015611435576001600160f81b03196113fc8286611361565b51166001600160f81b03196114118385611361565b511603611421575b6001016113e0565b9161142d600191611372565b929050611419565b5050611442908251611380565b606481029080820460641490151715610c1557610f1891519061138d565b1561146757565b60405162461bcd60e51b815260206004820152601260248201527110d51248191bd95cc81b9bdd08195e1a5cdd60721b6044820152606490fd5b9060018201915f600184129112908015821691151617610c1557565b9081546114c98161127b565b926114d76040519485610e97565b81845260208401905f5260205f205f915b8383106114f55750505050565b60016020819261150485610fad565b8152019201920191906114e8565b9060405161151f81610e7b565b6101c0600e829461152f81610fad565b845261153d60018201610fad565b60208501526002810154604085015260038101546001600160a01b0316606085015261156b60048201610fad565b608085015261157c600582016114bd565b60a0850152600681015460c085015261159760078201610fad565b60e085015260088101546101008501526115b3600982016114bd565b610120850152600a810154610140850152600b810154610160850152600c810154610180850152600d8101546101a08501520154910152565b8051821015610f615760209160051b010190565b91908201809211610c1557565b6020908260405193849283378101600681520301902090604051808360208295549384815201905f5260205f20925f5b8181106116a157505061165292500383610e97565b815191821561169957825f80925b8284106116765750611672925061138d565b9190565b915061168f60019161168885856115ec565b5190611600565b9201918491611660565b505f91508190565b845483526001948501948794506020909301920161163d565b604051815160ff92602091839181908401835e81016002815203019020541690565b61170c602080929594956040519381859251918291018484015e81015f838201520301601f198101835282610e97565b915f925b825184101561176a576020611762600192828061172d89896115ec565b516040519584879551918291018487015e8401908282015f8152815193849201905e01015f815203601f198101835282610e97565b930192611710565b92509290505f915b815183101561179757602061178f600192828061172d88886115ec565b920191611772565b9150506020815191012090565b8181106117af575050565b5f81556001016117a4565b91909182519283516001600160401b0381116104e4576117da8354610f75565b601f8111611f5a575b50602094601f8211600114611ef9576118169293949582915f92611a9e575b50508160011b915f199060031b1c19161790565b82555b6001820160208201518051906001600160401b0382116104e45761183d8354610f75565b601f8111611ec9575b50602090601f8311600114611e665761187592915f9183611a9e5750508160011b915f199060031b1c19161790565b90555b604081015160028301556003820160018060a01b036060830151166bffffffffffffffffffffffff60a01b8254161790556004820160808201518051906001600160401b0382116104e4576118cd8354610f75565b601f8111611e36575b50602090601f8311600114611dd35761190592915f9183611a9e5750508160011b915f199060031b1c19161790565b90555b6005820160a0820151805190600160401b82116104e4578254828455808310611d5c575b50602001915f5260205f20915f905b828210611c57575050505060c081015160068301556007820160e08201518051906001600160401b0382116104e4576119748354610f75565b601f8111611c27575b50602090601f8311600114611bc4576119ac92915f9183611a9e5750508160011b915f199060031b1c19161790565b90555b610100810151600883015560098201610120820151805190600160401b82116104e4578254828455808310611b4d575b50602001915f5260205f20915f905b828210611a3257505050506101c081610140600e930151600a850155610160810151600b850155610180810151600c8501556101a0810151600d8501550151910155565b80518051906001600160401b0382116104e457611a4f8654610f75565b601f8111611b12575b50602090601f8311600114611aa95792611a8f836001959460209487965f92611a9e5750508160011b915f199060031b1c19161790565b87555b019401910190926119ee565b015190505f80611802565b90601f19831691875f52815f20925f5b818110611afa5750936020936001969387969383889510611ae2575b505050811b018755611a92565b01515f1960f88460031b161c191690555f8080611ad5565b92936020600181928786015181550195019301611ab9565b611b3d90875f5260205f20601f850160051c81019160208610611b43575b601f0160051c01906117a4565b5f611a58565b9091508190611b30565b835f528260205f2091820191015b818110611b6857506119df565b80611b7560019254610f75565b80611b82575b5001611b5b565b601f81118314611b9757505f81555b5f611b7b565b611bb390825f5283601f60205f20920160051c820191016117a4565b805f525f6020812081835555611b91565b90601f19831691845f52815f20925f5b818110611c0f5750908460019594939210611bf7575b505050811b0190556119af565b01515f1960f88460031b161c191690555f8080611bea565b92936020600181928786015181550195019301611bd4565b611c5190845f5260205f20601f850160051c81019160208610611b4357601f0160051c01906117a4565b5f61197d565b80518051906001600160401b0382116104e457611c748654610f75565b601f8111611d2c575b50602090601f8311600114611cc35792611cb4836001959460209487965f92611a9e5750508160011b915f199060031b1c19161790565b87555b0194019101909261193b565b90601f19831691875f52815f20925f5b818110611d145750936020936001969387969383889510611cfc575b505050811b018755611cb7565b01515f1960f88460031b161c191690555f8080611cef565b92936020600181928786015181550195019301611cd3565b611d5690875f5260205f20601f850160051c81019160208610611b4357601f0160051c01906117a4565b5f611c7d565b835f528260205f2091820191015b818110611d77575061192c565b80611d8460019254610f75565b80611d91575b5001611d6a565b601f81118314611da657505f81555b5f611d8a565b611dc290825f5283601f60205f20920160051c820191016117a4565b805f525f6020812081835555611da0565b90601f19831691845f52815f20925f5b818110611e1e5750908460019594939210611e06575b505050811b019055611908565b01515f1960f88460031b161c191690555f8080611df9565b92936020600181928786015181550195019301611de3565b611e6090845f5260205f20601f850160051c81019160208610611b4357601f0160051c01906117a4565b5f6118d6565b90601f19831691845f52815f20925f5b818110611eb15750908460019594939210611e99575b505050811b019055611878565b01515f1960f88460031b161c191690555f8080611e8c565b92936020600181928786015181550195019301611e76565b611ef390845f5260205f20601f850160051c81019160208610611b4357601f0160051c01906117a4565b5f611846565b601f19821695845f52805f20915f5b888110611f4257508360019596979810611f2a575b505050811b018255611819565b01515f1960f88460031b161c191690555f8080611f1d565b91926020600181928685015181550194019201611f08565b611f8490845f5260205f20601f840160051c81019160208510611b4357601f0160051c01906117a4565b5f6117e3565b9081518151811490811591611ffe575b50611ff8575f905f5b8351811015611435576001600160f81b0319611fbf8286611361565b51166001600160f81b0319611fd48385611361565b511603611fe4575b600101611fa3565b91611ff0600191611372565b929050611fdc565b50505f90565b9050155f611f9a56fea26469706673582212203c862d75897fca32e23c4c16afea7e2061c8e008f23aa57bfd28dc54c8038a4e64736f6c634300081a0033",
					"opcodes": "PUSH1 0x80 DUP1 PUSH1 0x40 MSTORE CALLVALUE PUSH1 0x1A JUMPI PUSH1 0x55 PUSH1 0x5 SSTORE PUSH2 0x203D SWAP1 DUP2 PUSH2 0x1F DUP3 CODECOPY RETURN JUMPDEST PUSH0 DUP1 REVERT INVALID PUSH1 0x80 PUSH1 0x40 MSTORE PUSH1 0x4 CALLDATASIZE LT ISZERO PUSH2 0x11 JUMPI PUSH0 DUP1 REVERT JUMPDEST PUSH0 CALLDATALOAD PUSH1 0xE0 SHR DUP1 PUSH4 0x17093BCE EQ PUSH2 0xE22 JUMPI DUP1 PUSH4 0x1D785ED3 EQ PUSH2 0xDCF JUMPI DUP1 PUSH4 0x2489ED49 EQ PUSH2 0xDAE JUMPI DUP1 PUSH4 0x467FE707 EQ PUSH2 0xD2B JUMPI DUP1 PUSH4 0x59889291 EQ PUSH2 0xC29 JUMPI DUP1 PUSH4 0x7C4870E7 EQ PUSH2 0xB5E JUMPI DUP1 PUSH4 0x7F979A09 EQ PUSH2 0xB04 JUMPI DUP1 PUSH4 0x83DE1191 EQ PUSH2 0xA82 JUMPI DUP1 PUSH4 0x98EA94C6 EQ PUSH2 0xA3B JUMPI DUP1 PUSH4 0x99CFAA32 EQ PUSH2 0x9FC JUMPI DUP1 PUSH4 0x9A0F9EA9 EQ PUSH2 0x986 JUMPI DUP1 PUSH4 0x9FEBECFA EQ PUSH2 0x92C JUMPI DUP1 PUSH4 0xA4E4FD85 EQ PUSH2 0x71A JUMPI DUP1 PUSH4 0xAA67F0FE EQ PUSH2 0x6C5 JUMPI DUP1 PUSH4 0xAE945443 EQ PUSH2 0x60B JUMPI DUP1 PUSH4 0xC99960D3 EQ PUSH2 0x534 JUMPI DUP1 PUSH4 0xD1082C92 EQ PUSH2 0x1A0 JUMPI DUP1 PUSH4 0xF2FF5B5C EQ PUSH2 0x13D JUMPI PUSH4 0xF718FE17 EQ PUSH2 0xEA JUMPI PUSH0 DUP1 REVERT JUMPDEST CALLVALUE PUSH2 0x139 JUMPI PUSH1 0x20 DUP1 PUSH2 0xFB CALLDATASIZE PUSH2 0xF1B JUMP JUMPDEST SWAP3 SWAP1 PUSH1 0x40 MLOAD SWAP3 DUP2 DUP5 SWAP3 MLOAD SWAP2 DUP3 SWAP2 ADD DUP4 MCOPY DUP2 ADD PUSH1 0x6 DUP2 MSTORE SUB ADD SWAP1 KECCAK256 DUP1 SLOAD DUP3 LT ISZERO PUSH2 0x139 JUMPI PUSH1 0x20 SWAP2 PUSH2 0x12A SWAP2 PUSH2 0xF4C JUMP JUMPDEST SWAP1 SLOAD SWAP1 PUSH1 0x3 SHL SHR PUSH1 0x40 MLOAD SWAP1 DUP2 MSTORE RETURN JUMPDEST PUSH0 DUP1 REVERT JUMPDEST CALLVALUE PUSH2 0x139 JUMPI PUSH1 0x40 CALLDATASIZE PUSH1 0x3 NOT ADD SLT PUSH2 0x139 JUMPI PUSH1 0x4 CALLDATALOAD PUSH1 0x1 PUSH1 0x1 PUSH1 0x40 SHL SUB DUP2 GT PUSH2 0x139 JUMPI PUSH2 0x16D SWAP1 CALLDATASIZE SWAP1 PUSH1 0x4 ADD PUSH2 0xEFD JUMP JUMPDEST PUSH1 0x24 CALLDATALOAD PUSH1 0x1 PUSH1 0x1 PUSH1 0x40 SHL SUB DUP2 GT PUSH2 0x139 JUMPI PUSH1 0x20 SWAP2 PUSH2 0x192 PUSH2 0x198 SWAP3 CALLDATASIZE SWAP1 PUSH1 0x4 ADD PUSH2 0xEFD JUMP JUMPDEST SWAP1 PUSH2 0x1F8A JUMP JUMPDEST PUSH1 0x40 MLOAD SWAP1 DUP2 MSTORE RETURN JUMPDEST CALLVALUE PUSH2 0x139 JUMPI PUSH2 0x120 CALLDATASIZE PUSH1 0x3 NOT ADD SLT PUSH2 0x139 JUMPI PUSH1 0x4 CALLDATALOAD PUSH1 0x1 PUSH1 0x1 PUSH1 0x40 SHL SUB DUP2 GT PUSH2 0x139 JUMPI PUSH2 0x1D1 SWAP1 CALLDATASIZE SWAP1 PUSH1 0x4 ADD PUSH2 0x1106 JUMP JUMPDEST SWAP1 PUSH1 0x24 CALLDATALOAD PUSH1 0x1 PUSH1 0x1 PUSH1 0x40 SHL SUB DUP2 GT PUSH2 0x139 JUMPI PUSH2 0x1F1 SWAP1 CALLDATASIZE SWAP1 PUSH1 0x4 ADD PUSH2 0x1106 JUMP JUMPDEST PUSH1 0x44 SWAP3 SWAP2 SWAP3 CALLDATALOAD PUSH1 0x1 PUSH1 0x1 PUSH1 0x40 SHL SUB DUP2 GT PUSH2 0x139 JUMPI PUSH2 0x213 SWAP1 CALLDATASIZE SWAP1 PUSH1 0x4 ADD PUSH2 0x1106 JUMP JUMPDEST SWAP4 SWAP1 PUSH1 0x64 CALLDATALOAD PUSH1 0x1 PUSH1 0x1 PUSH1 0x40 SHL SUB DUP2 GT PUSH2 0x139 JUMPI PUSH2 0x234 SWAP1 CALLDATASIZE SWAP1 PUSH1 0x4 ADD PUSH2 0x1331 JUMP JUMPDEST SWAP6 SWAP1 SWAP7 PUSH1 0xA4 CALLDATALOAD PUSH1 0x1 PUSH1 0x1 PUSH1 0x40 SHL SUB DUP2 GT PUSH2 0x139 JUMPI PUSH2 0x256 SWAP1 CALLDATASIZE SWAP1 PUSH1 0x4 ADD PUSH2 0x1106 JUMP JUMPDEST SWAP7 SWAP1 PUSH1 0xE4 CALLDATALOAD PUSH1 0x1 PUSH1 0x1 PUSH1 0x40 SHL SUB DUP2 GT PUSH2 0x139 JUMPI PUSH2 0x277 SWAP1 CALLDATASIZE SWAP1 PUSH1 0x4 ADD PUSH2 0x1331 JUMP JUMPDEST SWAP1 SWAP2 PUSH2 0x28C PUSH2 0x287 CALLDATASIZE DUP9 DUP11 PUSH2 0xEB8 JUMP JUMPDEST PUSH2 0x16BA JUMP JUMPDEST PUSH2 0x4F8 JUMPI PUSH2 0x2BF DUP12 PUSH2 0x2AE DUP15 SWAP14 SWAP15 PUSH2 0x2A6 DUP15 CALLDATASIZE SWAP1 DUP8 PUSH2 0xEB8 JUMP JUMPDEST SWAP3 CALLDATASIZE SWAP2 PUSH2 0x1292 JUMP JUMPDEST PUSH2 0x2B9 CALLDATASIZE DUP7 DUP9 PUSH2 0x1292 JUMP JUMPDEST SWAP2 PUSH2 0x16DC JUMP JUMPDEST SWAP10 PUSH0 SWAP12 PUSH1 0x5 SLOAD SWAP13 JUMPDEST PUSH1 0x40 MLOAD PUSH1 0x20 DUP2 DUP15 DUP1 DUP16 DUP4 CALLDATACOPY DUP2 ADD PUSH1 0x1 DUP2 MSTORE SUB ADD SWAP1 KECCAK256 SLOAD DUP2 LT ISZERO PUSH2 0x395 JUMPI DUP14 PUSH2 0x334 DUP15 PUSH2 0x32E DUP16 DUP16 DUP7 DUP3 PUSH1 0x20 PUSH2 0x311 SWAP4 PUSH2 0x317 SWAP6 PUSH1 0x40 MLOAD SWAP4 DUP5 SWAP3 DUP4 CALLDATACOPY DUP2 ADD PUSH1 0x1 DUP2 MSTORE SUB ADD SWAP1 KECCAK256 PUSH2 0x1318 JUMP JUMPDEST POP PUSH2 0x1512 JUMP JUMPDEST PUSH1 0xE0 DUP2 ADD MLOAD SWAP1 PUSH2 0x120 PUSH1 0xA0 DUP3 ADD MLOAD SWAP2 ADD MLOAD SWAP2 PUSH2 0x16DC JUMP JUMPDEST SWAP1 PUSH2 0x13AB JUMP JUMPDEST LT ISZERO PUSH2 0x342 JUMPI PUSH1 0x1 ADD PUSH2 0x2C7 JUMP JUMPDEST PUSH1 0x40 MLOAD PUSH3 0x461BCD PUSH1 0xE5 SHL DUP2 MSTORE PUSH1 0x20 PUSH1 0x4 DUP3 ADD MSTORE PUSH1 0x25 PUSH1 0x24 DUP3 ADD MSTORE PUSH32 0x43544920697320746F6F2073696D696C617220746F20616E206578697374696E PUSH1 0x44 DUP3 ADD MSTORE PUSH5 0x67206F6E65 PUSH1 0xD8 SHL PUSH1 0x64 DUP3 ADD MSTORE PUSH1 0x84 SWAP1 REVERT JUMPDEST POP DUP14 SWAP11 SWAP10 SWAP9 SWAP11 PUSH1 0x40 MLOAD DUP10 DUP14 DUP3 CALLDATACOPY DUP1 DUP11 DUP2 ADD PUSH1 0x2 DUP2 MSTORE SUB PUSH1 0x20 ADD SWAP1 KECCAK256 PUSH1 0xFF NOT DUP2 SLOAD AND PUSH1 0x1 OR SWAP1 SSTORE PUSH1 0x40 MLOAD SWAP12 DUP13 SWAP10 PUSH2 0x3CA DUP12 PUSH2 0xE7B JUMP JUMPDEST PUSH2 0x3D5 CALLDATASIZE DUP12 DUP12 PUSH2 0xEB8 JUMP JUMPDEST DUP12 MSTORE PUSH2 0x3E2 CALLDATASIZE DUP15 DUP15 PUSH2 0xEB8 JUMP JUMPDEST PUSH1 0x20 DUP13 ADD MSTORE TIMESTAMP PUSH1 0x40 DUP13 ADD MSTORE CALLER PUSH1 0x60 DUP13 ADD MSTORE CALLDATASIZE SWAP1 PUSH2 0x3FE SWAP3 PUSH2 0xEB8 JUMP JUMPDEST PUSH1 0x80 DUP11 ADD MSTORE CALLDATASIZE SWAP1 PUSH2 0x40E SWAP3 PUSH2 0x1292 JUMP JUMPDEST PUSH1 0xA0 DUP9 ADD MSTORE PUSH1 0x84 CALLDATALOAD PUSH1 0xC0 DUP9 ADD MSTORE CALLDATASIZE SWAP1 PUSH2 0x426 SWAP3 PUSH2 0xEB8 JUMP JUMPDEST PUSH1 0xE0 DUP7 ADD MSTORE PUSH1 0xC4 CALLDATALOAD PUSH2 0x100 DUP7 ADD MSTORE CALLDATASIZE SWAP1 PUSH2 0x43F SWAP3 PUSH2 0x1292 JUMP JUMPDEST PUSH2 0x120 DUP5 ADD MSTORE PUSH2 0x104 CALLDATALOAD PUSH2 0x140 DUP5 ADD MSTORE PUSH2 0x160 DUP4 ADD PUSH0 SWAP1 MSTORE PUSH2 0x180 DUP4 ADD PUSH0 SWAP1 MSTORE PUSH2 0x1A0 DUP4 ADD PUSH0 SWAP1 MSTORE PUSH2 0x1C0 DUP4 ADD PUSH0 SWAP1 MSTORE DUP2 PUSH1 0x40 MLOAD SWAP3 DUP4 SWAP3 DUP4 CALLDATACOPY DUP2 ADD PUSH0 DUP2 MSTORE SUB PUSH1 0x20 ADD SWAP1 KECCAK256 SWAP1 PUSH2 0x48D SWAP2 PUSH2 0x17BA JUMP JUMPDEST DUP2 PUSH1 0x40 MLOAD SWAP3 DUP4 SWAP3 DUP4 CALLDATACOPY DUP2 ADD PUSH1 0x1 DUP2 MSTORE SUB PUSH1 0x20 ADD SWAP1 KECCAK256 DUP1 SLOAD PUSH1 0x1 PUSH1 0x40 SHL DUP2 LT ISZERO PUSH2 0x4E4 JUMPI PUSH2 0x4BF SWAP2 PUSH1 0x1 DUP3 ADD DUP2 SSTORE PUSH2 0x1318 JUMP JUMPDEST SWAP2 SWAP1 SWAP2 PUSH2 0x4D1 JUMPI PUSH2 0x4CF SWAP2 PUSH2 0x17BA JUMP JUMPDEST STOP JUMPDEST PUSH4 0x4E487B71 PUSH1 0xE0 SHL PUSH0 MSTORE PUSH0 PUSH1 0x4 MSTORE PUSH1 0x24 PUSH0 REVERT JUMPDEST PUSH4 0x4E487B71 PUSH1 0xE0 SHL PUSH0 MSTORE PUSH1 0x41 PUSH1 0x4 MSTORE PUSH1 0x24 PUSH0 REVERT JUMPDEST PUSH1 0x40 MLOAD PUSH3 0x461BCD PUSH1 0xE5 SHL DUP2 MSTORE PUSH1 0x20 PUSH1 0x4 DUP3 ADD MSTORE PUSH1 0x14 PUSH1 0x24 DUP3 ADD MSTORE PUSH20 0x10D51248185B1C9958591E481D5C1B1BD8591959 PUSH1 0x62 SHL PUSH1 0x44 DUP3 ADD MSTORE PUSH1 0x64 SWAP1 REVERT JUMPDEST CALLVALUE PUSH2 0x139 JUMPI PUSH1 0x20 CALLDATASIZE PUSH1 0x3 NOT ADD SLT PUSH2 0x139 JUMPI PUSH1 0x4 CALLDATALOAD PUSH1 0x1 PUSH1 0x1 PUSH1 0x40 SHL SUB DUP2 GT PUSH2 0x139 JUMPI PUSH2 0x5F3 PUSH1 0x20 PUSH2 0x56C PUSH2 0x607 SWAP4 CALLDATASIZE SWAP1 PUSH1 0x4 ADD PUSH2 0x1106 JUMP JUMPDEST SWAP2 SWAP1 PUSH0 PUSH2 0x1C0 PUSH1 0x40 MLOAD PUSH2 0x57E DUP2 PUSH2 0xE7B JUMP JUMPDEST PUSH1 0x60 DUP2 MSTORE PUSH1 0x60 DUP6 DUP3 ADD MSTORE DUP3 PUSH1 0x40 DUP3 ADD MSTORE DUP3 PUSH1 0x60 DUP3 ADD MSTORE PUSH1 0x60 PUSH1 0x80 DUP3 ADD MSTORE PUSH1 0x60 PUSH1 0xA0 DUP3 ADD MSTORE DUP3 PUSH1 0xC0 DUP3 ADD MSTORE PUSH1 0x60 PUSH1 0xE0 DUP3 ADD MSTORE DUP3 PUSH2 0x100 DUP3 ADD MSTORE PUSH1 0x60 PUSH2 0x120 DUP3 ADD MSTORE DUP3 PUSH2 0x140 DUP3 ADD MSTORE DUP3 PUSH2 0x160 DUP3 ADD MSTORE DUP3 PUSH2 0x180 DUP3 ADD MSTORE DUP3 PUSH2 0x1A0 DUP3 ADD MSTORE ADD MSTORE DUP3 PUSH1 0x40 MLOAD SWAP4 DUP5 SWAP3 DUP4 CALLDATACOPY DUP2 ADD PUSH0 DUP2 MSTORE SUB ADD SWAP1 KECCAK256 PUSH2 0x1512 JUMP JUMPDEST PUSH1 0x40 MLOAD SWAP2 DUP3 SWAP2 PUSH1 0x20 DUP4 MSTORE PUSH1 0x20 DUP4 ADD SWAP1 PUSH2 0x118B JUMP JUMPDEST SUB SWAP1 RETURN JUMPDEST CALLVALUE PUSH2 0x139 JUMPI PUSH1 0x20 DUP1 PUSH2 0x61C CALLDATASIZE PUSH2 0xF1B JUMP JUMPDEST SWAP3 SWAP1 PUSH1 0x40 MLOAD SWAP3 DUP2 DUP5 SWAP3 MLOAD SWAP2 DUP3 SWAP2 ADD DUP4 MCOPY DUP2 ADD PUSH1 0x1 DUP2 MSTORE SUB ADD SWAP1 KECCAK256 SWAP1 DUP2 SLOAD DUP2 LT ISZERO PUSH2 0x139 JUMPI PUSH2 0x649 SWAP2 PUSH2 0x1318 JUMP JUMPDEST POP PUSH2 0x653 DUP2 PUSH2 0xFAD JUMP JUMPDEST PUSH2 0x607 PUSH2 0x662 PUSH1 0x1 DUP5 ADD PUSH2 0xFAD JUMP JUMPDEST PUSH1 0x2 DUP5 ADD SLOAD PUSH1 0x3 DUP6 ADD SLOAD SWAP2 SWAP5 SWAP1 SWAP2 PUSH1 0x1 PUSH1 0x1 PUSH1 0xA0 SHL SUB AND PUSH2 0x685 PUSH1 0x4 DUP4 ADD PUSH2 0xFAD JUMP JUMPDEST PUSH1 0x6 DUP4 ADD SLOAD PUSH2 0x696 PUSH1 0x7 DUP6 ADD PUSH2 0xFAD JUMP JUMPDEST PUSH1 0x8 DUP6 ADD SLOAD SWAP1 PUSH1 0xA DUP7 ADD SLOAD SWAP3 PUSH1 0xB DUP8 ADD SLOAD SWAP5 PUSH1 0xC DUP9 ADD SLOAD SWAP7 PUSH1 0xE PUSH1 0xD DUP11 ADD SLOAD SWAP10 ADD SLOAD SWAP10 PUSH1 0x40 MLOAD SWAP14 DUP15 SWAP14 DUP15 PUSH2 0x1071 JUMP JUMPDEST CALLVALUE PUSH2 0x139 JUMPI PUSH1 0x20 CALLDATASIZE PUSH1 0x3 NOT ADD SLT PUSH2 0x139 JUMPI PUSH1 0x4 CALLDATALOAD PUSH1 0x1 PUSH1 0x1 PUSH1 0x40 SHL SUB DUP2 GT PUSH2 0x139 JUMPI PUSH1 0x20 DUP1 PUSH2 0x6F9 DUP2 SWAP4 CALLDATASIZE SWAP1 PUSH1 0x4 ADD PUSH2 0xEFD JUMP JUMPDEST PUSH1 0x40 MLOAD SWAP3 DUP2 DUP5 SWAP3 MLOAD SWAP2 DUP3 SWAP2 ADD DUP4 MCOPY DUP2 ADD PUSH1 0x3 DUP2 MSTORE SUB ADD SWAP1 KECCAK256 SLOAD PUSH1 0x40 MLOAD SWAP1 DUP2 MSTORE RETURN JUMPDEST CALLVALUE PUSH2 0x139 JUMPI PUSH1 0x40 CALLDATASIZE PUSH1 0x3 NOT ADD SLT PUSH2 0x139 JUMPI PUSH1 0x4 CALLDATALOAD PUSH1 0x1 PUSH1 0x1 PUSH1 0x40 SHL SUB DUP2 GT PUSH2 0x139 JUMPI PUSH2 0x74A SWAP1 CALLDATASIZE SWAP1 PUSH1 0x4 ADD PUSH2 0x1106 JUMP JUMPDEST PUSH1 0x24 CALLDATALOAD PUSH2 0x77A PUSH1 0x40 MLOAD DUP4 DUP6 DUP3 CALLDATACOPY PUSH0 DUP2 DUP6 ADD SWAP1 DUP2 MSTORE DUP2 SWAP1 SUB PUSH1 0x20 ADD SWAP1 KECCAK256 PUSH1 0x3 ADD SLOAD PUSH1 0x1 PUSH1 0x1 PUSH1 0xA0 SHL SUB AND ISZERO ISZERO PUSH2 0x1460 JUMP JUMPDEST PUSH1 0x40 MLOAD DUP3 DUP5 DUP3 CALLDATACOPY PUSH1 0x20 DUP2 DUP5 DUP2 ADD PUSH1 0x7 DUP2 MSTORE SUB ADD SWAP1 KECCAK256 PUSH1 0x1 DUP1 PUSH1 0xA0 SHL SUB CALLER AND PUSH0 MSTORE PUSH1 0x20 MSTORE PUSH1 0xFF PUSH1 0x40 PUSH0 KECCAK256 SLOAD AND PUSH2 0x8E7 JUMPI PUSH1 0x64 DUP2 GT PUSH2 0x8A9 JUMPI PUSH1 0x40 MLOAD DUP3 DUP5 DUP3 CALLDATACOPY PUSH1 0x20 DUP2 DUP5 DUP2 ADD PUSH1 0x6 DUP2 MSTORE SUB ADD SWAP1 KECCAK256 DUP1 SLOAD PUSH1 0x1 PUSH1 0x40 SHL DUP2 LT ISZERO PUSH2 0x4E4 JUMPI PUSH2 0x7E3 SWAP2 PUSH1 0x1 DUP3 ADD DUP2 SSTORE PUSH2 0xF4C JUMP JUMPDEST DUP2 SWAP3 SWAP2 SLOAD SWAP1 PUSH1 0x3 SHL SWAP2 DUP3 SHL SWAP2 PUSH0 NOT SWAP1 SHL NOT AND OR SWAP1 SSTORE PUSH1 0x40 MLOAD DUP2 DUP4 DUP3 CALLDATACOPY PUSH1 0x7 DUP3 DUP3 ADD SWAP1 DUP2 MSTORE DUP2 SWAP1 SUB PUSH1 0x20 SWAP1 DUP2 ADD SWAP1 SWAP2 KECCAK256 CALLER PUSH0 SWAP1 DUP2 MSTORE SWAP2 MSTORE PUSH1 0x40 DUP1 DUP3 KECCAK256 DUP1 SLOAD PUSH1 0xFF NOT AND PUSH1 0x1 OR SWAP1 SSTORE MLOAD DUP3 DUP5 DUP3 CALLDATACOPY PUSH1 0x20 DUP2 DUP5 DUP2 ADD PUSH1 0x6 DUP2 MSTORE SUB ADD SWAP1 KECCAK256 SLOAD SWAP1 PUSH0 JUMPDEST DUP3 DUP2 LT PUSH2 0x870 JUMPI POP PUSH2 0x857 PUSH1 0xE SWAP4 SWAP3 PUSH1 0x20 SWAP3 PUSH2 0x138D JUMP JUMPDEST SWAP4 DUP3 PUSH1 0x40 MLOAD SWAP4 DUP5 SWAP3 DUP4 CALLDATACOPY DUP2 ADD PUSH0 DUP2 MSTORE SUB ADD SWAP1 KECCAK256 ADD SSTORE PUSH0 DUP1 RETURN JUMPDEST SWAP1 PUSH2 0x8A2 PUSH1 0x1 SWAP2 PUSH2 0x895 DUP5 PUSH1 0x40 MLOAD DUP9 DUP11 DUP3 CALLDATACOPY PUSH1 0x20 DUP2 DUP11 DUP2 ADD PUSH1 0x6 DUP2 MSTORE SUB ADD SWAP1 KECCAK256 PUSH2 0xF4C JUMP JUMPDEST SWAP1 SLOAD SWAP1 PUSH1 0x3 SHL SHR SWAP1 PUSH2 0x1600 JUMP JUMPDEST SWAP2 ADD PUSH2 0x840 JUMP JUMPDEST PUSH1 0x40 MLOAD PUSH3 0x461BCD PUSH1 0xE5 SHL DUP2 MSTORE PUSH1 0x20 PUSH1 0x4 DUP3 ADD MSTORE PUSH1 0x16 PUSH1 0x24 DUP3 ADD MSTORE PUSH22 0x466565646261636B206D75737420626520307E31303 PUSH1 0x54 SHL PUSH1 0x44 DUP3 ADD MSTORE PUSH1 0x64 SWAP1 REVERT JUMPDEST PUSH1 0x40 MLOAD PUSH3 0x461BCD PUSH1 0xE5 SHL DUP2 MSTORE PUSH1 0x20 PUSH1 0x4 DUP3 ADD MSTORE PUSH1 0x1B PUSH1 0x24 DUP3 ADD MSTORE PUSH32 0x596F7520616C72656164792073636F7265642074686973204354490000000000 PUSH1 0x44 DUP3 ADD MSTORE PUSH1 0x64 SWAP1 REVERT JUMPDEST CALLVALUE PUSH2 0x139 JUMPI PUSH1 0x20 CALLDATASIZE PUSH1 0x3 NOT ADD SLT PUSH2 0x139 JUMPI PUSH1 0x4 CALLDATALOAD PUSH1 0x1 PUSH1 0x1 PUSH1 0x40 SHL SUB DUP2 GT PUSH2 0x139 JUMPI PUSH2 0x979 PUSH2 0x192 PUSH2 0x964 PUSH1 0x20 SWAP4 CALLDATASIZE SWAP1 PUSH1 0x4 ADD PUSH2 0x1106 JUMP JUMPDEST SWAP2 SWAP1 PUSH2 0x971 CALLDATASIZE DUP5 DUP4 PUSH2 0xEB8 JUMP JUMPDEST SWAP3 CALLDATASIZE SWAP2 PUSH2 0xEB8 JUMP JUMPDEST PUSH1 0x5 SLOAD GT ISZERO PUSH1 0x40 MLOAD SWAP1 DUP2 MSTORE RETURN JUMPDEST CALLVALUE PUSH2 0x139 JUMPI PUSH1 0x60 CALLDATASIZE PUSH1 0x3 NOT ADD SLT PUSH2 0x139 JUMPI PUSH1 0x4 CALLDATALOAD PUSH1 0x1 PUSH1 0x1 PUSH1 0x40 SHL SUB DUP2 GT PUSH2 0x139 JUMPI PUSH2 0x9B6 SWAP1 CALLDATASIZE SWAP1 PUSH1 0x4 ADD PUSH2 0xEFD JUMP JUMPDEST PUSH1 0x24 CALLDATALOAD PUSH1 0x1 PUSH1 0x1 PUSH1 0x40 SHL SUB DUP2 GT PUSH2 0x139 JUMPI PUSH2 0x9D5 SWAP1 CALLDATASIZE SWAP1 PUSH1 0x4 ADD PUSH2 0x12FD JUMP JUMPDEST SWAP1 PUSH1 0x44 CALLDATALOAD SWAP1 PUSH1 0x1 PUSH1 0x1 PUSH1 0x40 SHL SUB DUP3 GT PUSH2 0x139 JUMPI PUSH1 0x20 SWAP3 PUSH2 0x2B9 PUSH2 0x198 SWAP4 CALLDATASIZE SWAP1 PUSH1 0x4 ADD PUSH2 0x12FD JUMP JUMPDEST CALLVALUE PUSH2 0x139 JUMPI PUSH1 0x20 CALLDATASIZE PUSH1 0x3 NOT ADD SLT PUSH2 0x139 JUMPI PUSH1 0x4 CALLDATALOAD PUSH1 0x1 PUSH1 0x1 PUSH1 0x40 SHL SUB DUP2 GT PUSH2 0x139 JUMPI PUSH2 0xA31 PUSH2 0x287 PUSH1 0x20 SWAP3 CALLDATASIZE SWAP1 PUSH1 0x4 ADD PUSH2 0xEFD JUMP JUMPDEST PUSH1 0x40 MLOAD SWAP1 ISZERO ISZERO DUP2 MSTORE RETURN JUMPDEST CALLVALUE PUSH2 0x139 JUMPI PUSH1 0x20 CALLDATASIZE PUSH1 0x3 NOT ADD SLT PUSH2 0x139 JUMPI PUSH1 0x4 CALLDATALOAD PUSH1 0x1 PUSH1 0x1 PUSH1 0x40 SHL SUB DUP2 GT PUSH2 0x139 JUMPI PUSH2 0xA76 PUSH2 0xA70 PUSH1 0x40 SWAP3 CALLDATASIZE SWAP1 PUSH1 0x4 ADD PUSH2 0x1106 JUMP JUMPDEST SWAP1 PUSH2 0x160D JUMP JUMPDEST DUP3 MLOAD SWAP2 DUP3 MSTORE PUSH1 0x20 DUP3 ADD MSTORE RETURN JUMPDEST CALLVALUE PUSH2 0x139 JUMPI PUSH1 0x40 CALLDATASIZE PUSH1 0x3 NOT ADD SLT PUSH2 0x139 JUMPI PUSH1 0x4 CALLDATALOAD PUSH1 0x1 PUSH1 0x1 PUSH1 0x40 SHL SUB DUP2 GT PUSH2 0x139 JUMPI PUSH2 0xAB2 SWAP1 CALLDATASIZE SWAP1 PUSH1 0x4 ADD PUSH2 0xEFD JUMP JUMPDEST PUSH1 0x24 CALLDATALOAD SWAP1 PUSH1 0x1 PUSH1 0x1 PUSH1 0xA0 SHL SUB DUP3 AND DUP3 SUB PUSH2 0x139 JUMPI PUSH1 0x20 DUP1 SWAP2 PUSH1 0x40 MLOAD SWAP3 DUP2 DUP5 SWAP3 MLOAD SWAP2 DUP3 SWAP2 ADD DUP4 MCOPY DUP2 ADD PUSH1 0x7 DUP2 MSTORE SUB ADD SWAP1 KECCAK256 SWAP1 PUSH1 0x1 DUP1 PUSH1 0xA0 SHL SUB AND PUSH0 MSTORE PUSH1 0x20 MSTORE PUSH1 0x20 PUSH1 0xFF PUSH1 0x40 PUSH0 KECCAK256 SLOAD AND PUSH1 0x40 MLOAD SWAP1 ISZERO ISZERO DUP2 MSTORE RETURN JUMPDEST CALLVALUE PUSH2 0x139 JUMPI PUSH1 0x20 CALLDATASIZE PUSH1 0x3 NOT ADD SLT PUSH2 0x139 JUMPI PUSH1 0x4 CALLDATALOAD PUSH1 0x1 PUSH1 0x1 PUSH1 0x40 SHL SUB DUP2 GT PUSH2 0x139 JUMPI PUSH1 0xFF PUSH1 0x20 DUP1 PUSH2 0xB3A DUP2 SWAP5 CALLDATASIZE SWAP1 PUSH1 0x4 ADD PUSH2 0xEFD JUMP JUMPDEST PUSH1 0x40 MLOAD SWAP3 DUP2 DUP5 SWAP3 MLOAD SWAP2 DUP3 SWAP2 ADD DUP4 MCOPY DUP2 ADD PUSH1 0x2 DUP2 MSTORE SUB ADD SWAP1 KECCAK256 SLOAD AND PUSH1 0x40 MLOAD SWAP1 ISZERO ISZERO DUP2 MSTORE RETURN JUMPDEST CALLVALUE PUSH2 0x139 JUMPI PUSH1 0x40 CALLDATASIZE PUSH1 0x3 NOT ADD SLT PUSH2 0x139 JUMPI PUSH1 0x4 CALLDATALOAD PUSH1 0x1 PUSH1 0x1 PUSH1 0x40 SHL SUB DUP2 GT PUSH2 0x139 JUMPI PUSH2 0xB90 PUSH1 0xC SWAP2 CALLDATASIZE SWAP1 PUSH1 0x4 ADD PUSH2 0x1106 JUMP JUMPDEST PUSH1 0x20 PUSH1 0x24 SWAP4 SWAP3 SWAP4 CALLDATALOAD SWAP4 PUSH2 0xBC5 PUSH1 0x40 MLOAD DUP5 DUP4 DUP3 CALLDATACOPY PUSH0 DUP2 DUP7 ADD SWAP1 DUP2 MSTORE DUP2 SWAP1 SUB DUP5 ADD SWAP1 KECCAK256 PUSH1 0x3 ADD SLOAD PUSH1 0x1 PUSH1 0x1 PUSH1 0xA0 SHL SUB AND ISZERO ISZERO PUSH2 0x1460 JUMP JUMPDEST PUSH1 0xB PUSH1 0x40 MLOAD DUP5 DUP4 DUP3 CALLDATACOPY DUP4 DUP2 DUP7 DUP2 ADD PUSH0 DUP2 MSTORE SUB ADD SWAP1 KECCAK256 ADD PUSH2 0xBE5 DUP2 SLOAD PUSH2 0x14A1 JUMP JUMPDEST SWAP1 SSTORE DUP3 PUSH1 0x40 MLOAD SWAP4 DUP5 SWAP3 DUP4 CALLDATACOPY DUP2 ADD PUSH0 DUP2 MSTORE SUB ADD SWAP1 KECCAK256 ADD DUP1 SLOAD PUSH0 DUP4 DUP3 ADD SWAP4 DUP5 SLT SWAP2 SLT SWAP1 DUP1 ISZERO DUP3 AND SWAP2 ISZERO AND OR PUSH2 0xC15 JUMPI SSTORE STOP JUMPDEST PUSH4 0x4E487B71 PUSH1 0xE0 SHL PUSH0 MSTORE PUSH1 0x11 PUSH1 0x4 MSTORE PUSH1 0x24 PUSH0 REVERT JUMPDEST CALLVALUE PUSH2 0x139 JUMPI PUSH1 0x20 CALLDATASIZE PUSH1 0x3 NOT ADD SLT PUSH2 0x139 JUMPI PUSH1 0x4 CALLDATALOAD PUSH1 0x1 PUSH1 0x1 PUSH1 0x40 SHL SUB DUP2 GT PUSH2 0x139 JUMPI PUSH1 0x20 PUSH2 0xC5C DUP2 SWAP3 CALLDATASIZE SWAP1 PUSH1 0x4 ADD PUSH2 0xEFD JUMP JUMPDEST PUSH1 0x40 MLOAD SWAP3 DUP2 DUP5 SWAP3 MLOAD SWAP2 DUP3 SWAP2 ADD DUP4 MCOPY DUP2 ADD PUSH1 0x1 DUP2 MSTORE SUB ADD SWAP1 KECCAK256 DUP1 SLOAD SWAP1 PUSH2 0xC80 DUP3 PUSH2 0x127B JUMP JUMPDEST SWAP2 PUSH2 0xC8E PUSH1 0x40 MLOAD SWAP4 DUP5 PUSH2 0xE97 JUMP JUMPDEST DUP1 DUP4 MSTORE PUSH1 0x20 DUP4 ADD DUP1 SWAP3 PUSH0 MSTORE PUSH1 0x20 PUSH0 KECCAK256 PUSH0 SWAP2 JUMPDEST DUP4 DUP4 LT PUSH2 0xD0D JUMPI DUP5 DUP7 PUSH1 0x40 MLOAD SWAP2 DUP3 SWAP2 PUSH1 0x20 DUP4 ADD SWAP1 PUSH1 0x20 DUP5 MSTORE MLOAD DUP1 SWAP2 MSTORE PUSH1 0x40 DUP4 ADD SWAP1 PUSH1 0x40 DUP2 PUSH1 0x5 SHL DUP6 ADD ADD SWAP3 SWAP2 PUSH0 SWAP1 JUMPDEST DUP3 DUP3 LT PUSH2 0xCDE JUMPI POP POP POP POP SUB SWAP1 RETURN JUMPDEST SWAP2 SWAP4 PUSH1 0x1 SWAP2 SWAP4 SWAP6 POP PUSH1 0x20 PUSH2 0xCFD DUP2 SWAP3 PUSH1 0x3F NOT DUP11 DUP3 SUB ADD DUP7 MSTORE DUP9 MLOAD PUSH2 0x118B JUMP JUMPDEST SWAP7 ADD SWAP3 ADD SWAP3 ADD DUP6 SWAP5 SWAP4 SWAP2 SWAP3 PUSH2 0xCCF JUMP JUMPDEST PUSH1 0xF PUSH1 0x20 PUSH1 0x1 SWAP3 PUSH2 0xD1D DUP6 PUSH2 0x1512 JUMP JUMPDEST DUP2 MSTORE ADD SWAP3 ADD SWAP3 ADD SWAP2 SWAP1 PUSH2 0xCA0 JUMP JUMPDEST CALLVALUE PUSH2 0x139 JUMPI PUSH1 0x20 CALLDATASIZE PUSH1 0x3 NOT ADD SLT PUSH2 0x139 JUMPI PUSH1 0x4 CALLDATALOAD PUSH1 0x1 PUSH1 0x1 PUSH1 0x40 SHL SUB DUP2 GT PUSH2 0x139 JUMPI PUSH1 0x20 PUSH2 0xD5F PUSH1 0xD SWAP3 CALLDATASIZE SWAP1 PUSH1 0x4 ADD PUSH2 0x1106 JUMP JUMPDEST SWAP2 SWAP1 PUSH2 0xD8D PUSH1 0x40 MLOAD DUP5 DUP4 DUP3 CALLDATACOPY PUSH0 DUP2 DUP7 ADD SWAP1 DUP2 MSTORE DUP2 SWAP1 SUB DUP5 ADD SWAP1 KECCAK256 PUSH1 0x3 ADD SLOAD PUSH1 0x1 PUSH1 0x1 PUSH1 0xA0 SHL SUB AND ISZERO ISZERO PUSH2 0x1460 JUMP JUMPDEST DUP3 PUSH1 0x40 MLOAD SWAP4 DUP5 SWAP3 DUP4 CALLDATACOPY DUP2 ADD PUSH0 DUP2 MSTORE SUB ADD SWAP1 KECCAK256 ADD PUSH2 0xDAA DUP2 SLOAD PUSH2 0x14A1 JUMP JUMPDEST SWAP1 SSTORE STOP JUMPDEST CALLVALUE PUSH2 0x139 JUMPI PUSH1 0x40 CALLDATASIZE PUSH1 0x3 NOT ADD SLT PUSH2 0x139 JUMPI PUSH1 0x20 PUSH2 0x198 PUSH1 0x24 CALLDATALOAD PUSH1 0x4 CALLDATALOAD PUSH2 0x13AB JUMP JUMPDEST CALLVALUE PUSH2 0x139 JUMPI PUSH1 0x20 CALLDATASIZE PUSH1 0x3 NOT ADD SLT PUSH2 0x139 JUMPI PUSH1 0x4 CALLDATALOAD PUSH1 0x1 PUSH1 0x1 PUSH1 0x40 SHL SUB DUP2 GT PUSH2 0x139 JUMPI PUSH1 0x20 PUSH2 0xE02 DUP2 SWAP3 CALLDATASIZE SWAP1 PUSH1 0x4 ADD PUSH2 0xEFD JUMP JUMPDEST PUSH1 0x40 MLOAD SWAP3 DUP2 DUP5 SWAP3 MLOAD SWAP2 DUP3 SWAP2 ADD DUP4 MCOPY DUP2 ADD PUSH0 DUP2 MSTORE SUB ADD SWAP1 KECCAK256 PUSH2 0x653 DUP2 PUSH2 0xFAD JUMP JUMPDEST CALLVALUE PUSH2 0x139 JUMPI PUSH1 0x20 DUP1 PUSH2 0xE33 CALLDATASIZE PUSH2 0xF1B JUMP JUMPDEST SWAP3 SWAP1 PUSH1 0x40 MLOAD SWAP3 DUP2 DUP5 SWAP3 MLOAD SWAP2 DUP3 SWAP2 ADD DUP4 MCOPY DUP2 ADD PUSH1 0x4 DUP2 MSTORE SUB ADD SWAP1 KECCAK256 DUP1 SLOAD DUP3 LT ISZERO PUSH2 0x139 JUMPI PUSH1 0x20 SWAP2 PUSH2 0xE62 SWAP2 PUSH2 0xF4C JUMP JUMPDEST SWAP1 SLOAD PUSH1 0x40 MLOAD PUSH1 0x3 SWAP3 SWAP1 SWAP3 SHL SHR PUSH1 0x1 PUSH1 0x1 PUSH1 0xA0 SHL SUB AND DUP2 MSTORE RETURN JUMPDEST PUSH2 0x1E0 DUP2 ADD SWAP1 DUP2 LT PUSH1 0x1 PUSH1 0x1 PUSH1 0x40 SHL SUB DUP3 GT OR PUSH2 0x4E4 JUMPI PUSH1 0x40 MSTORE JUMP JUMPDEST SWAP1 PUSH1 0x1F DUP1 NOT SWAP2 ADD AND DUP2 ADD SWAP1 DUP2 LT PUSH1 0x1 PUSH1 0x1 PUSH1 0x40 SHL SUB DUP3 GT OR PUSH2 0x4E4 JUMPI PUSH1 0x40 MSTORE JUMP JUMPDEST SWAP3 SWAP2 SWAP3 PUSH1 0x1 PUSH1 0x1 PUSH1 0x40 SHL SUB DUP3 GT PUSH2 0x4E4 JUMPI PUSH1 0x40 MLOAD SWAP2 PUSH2 0xEE1 PUSH1 0x1F DUP3 ADD PUSH1 0x1F NOT AND PUSH1 0x20 ADD DUP5 PUSH2 0xE97 JUMP JUMPDEST DUP3 SWAP5 DUP2 DUP5 MSTORE DUP2 DUP4 ADD GT PUSH2 0x139 JUMPI DUP3 DUP2 PUSH1 0x20 SWAP4 DUP5 PUSH0 SWAP7 ADD CALLDATACOPY ADD ADD MSTORE JUMP JUMPDEST SWAP1 DUP1 PUSH1 0x1F DUP4 ADD SLT ISZERO PUSH2 0x139 JUMPI DUP2 PUSH1 0x20 PUSH2 0xF18 SWAP4 CALLDATALOAD SWAP2 ADD PUSH2 0xEB8 JUMP JUMPDEST SWAP1 JUMP JUMPDEST PUSH1 0x40 PUSH1 0x3 NOT DUP3 ADD SLT PUSH2 0x139 JUMPI PUSH1 0x4 CALLDATALOAD SWAP1 PUSH1 0x1 PUSH1 0x1 PUSH1 0x40 SHL SUB DUP3 GT PUSH2 0x139 JUMPI PUSH2 0xF45 SWAP2 PUSH1 0x4 ADD PUSH2 0xEFD JUMP JUMPDEST SWAP1 PUSH1 0x24 CALLDATALOAD SWAP1 JUMP JUMPDEST DUP1 SLOAD DUP3 LT ISZERO PUSH2 0xF61 JUMPI PUSH0 MSTORE PUSH1 0x20 PUSH0 KECCAK256 ADD SWAP1 PUSH0 SWAP1 JUMP JUMPDEST PUSH4 0x4E487B71 PUSH1 0xE0 SHL PUSH0 MSTORE PUSH1 0x32 PUSH1 0x4 MSTORE PUSH1 0x24 PUSH0 REVERT JUMPDEST SWAP1 PUSH1 0x1 DUP3 DUP2 SHR SWAP3 AND DUP1 ISZERO PUSH2 0xFA3 JUMPI JUMPDEST PUSH1 0x20 DUP4 LT EQ PUSH2 0xF8F JUMPI JUMP JUMPDEST PUSH4 0x4E487B71 PUSH1 0xE0 SHL PUSH0 MSTORE PUSH1 0x22 PUSH1 0x4 MSTORE PUSH1 0x24 PUSH0 REVERT JUMPDEST SWAP2 PUSH1 0x7F AND SWAP2 PUSH2 0xF84 JUMP JUMPDEST SWAP1 PUSH1 0x40 MLOAD SWAP2 DUP3 PUSH0 DUP3 SLOAD SWAP3 PUSH2 0xFC0 DUP5 PUSH2 0xF75 JUMP JUMPDEST DUP1 DUP5 MSTORE SWAP4 PUSH1 0x1 DUP2 AND SWAP1 DUP2 ISZERO PUSH2 0x102B JUMPI POP PUSH1 0x1 EQ PUSH2 0xFE7 JUMPI JUMPDEST POP PUSH2 0xFE5 SWAP3 POP SUB DUP4 PUSH2 0xE97 JUMP JUMPDEST JUMP JUMPDEST SWAP1 POP PUSH0 SWAP3 SWAP2 SWAP3 MSTORE PUSH1 0x20 PUSH0 KECCAK256 SWAP1 PUSH0 SWAP2 JUMPDEST DUP2 DUP4 LT PUSH2 0x100F JUMPI POP POP SWAP1 PUSH1 0x20 PUSH2 0xFE5 SWAP3 DUP3 ADD ADD PUSH0 PUSH2 0xFD8 JUMP JUMPDEST PUSH1 0x20 SWAP2 SWAP4 POP DUP1 PUSH1 0x1 SWAP2 SLOAD DUP4 DUP6 DUP10 ADD ADD MSTORE ADD SWAP2 ADD SWAP1 SWAP2 DUP5 SWAP3 PUSH2 0xFF6 JUMP JUMPDEST SWAP1 POP PUSH1 0x20 SWAP3 POP PUSH2 0xFE5 SWAP5 SWAP2 POP PUSH1 0xFF NOT AND DUP3 DUP5 ADD MSTORE ISZERO ISZERO PUSH1 0x5 SHL DUP3 ADD ADD PUSH0 PUSH2 0xFD8 JUMP JUMPDEST DUP1 MLOAD DUP1 DUP4 MSTORE PUSH1 0x20 SWAP3 SWAP2 DUP2 SWAP1 DUP5 ADD DUP5 DUP5 ADD MCOPY PUSH0 DUP3 DUP3 ADD DUP5 ADD MSTORE PUSH1 0x1F ADD PUSH1 0x1F NOT AND ADD ADD SWAP1 JUMP JUMPDEST SWAP10 SWAP7 SWAP3 SWAP1 SWAP5 PUSH2 0x180 SWAP12 SWAP9 SWAP15 SWAP14 SWAP13 SWAP10 SWAP7 SWAP5 PUSH2 0x10AE DUP13 PUSH2 0x10D1 SWAP6 PUSH2 0x10A0 PUSH2 0x10E4 SWAP11 PUSH2 0x1A0 DUP5 MSTORE PUSH2 0x1A0 DUP5 ADD SWAP1 PUSH2 0x104D JUMP JUMPDEST SWAP2 PUSH1 0x20 DUP2 DUP5 SUB SWAP2 ADD MSTORE PUSH2 0x104D JUMP JUMPDEST PUSH1 0x40 DUP14 ADD SWAP4 SWAP1 SWAP4 MSTORE PUSH1 0x1 PUSH1 0x1 PUSH1 0xA0 SHL SUB AND PUSH1 0x60 DUP13 ADD MSTORE DUP11 DUP3 SUB PUSH1 0x80 DUP13 ADD MSTORE PUSH2 0x104D JUMP JUMPDEST SWAP2 PUSH1 0xA0 DUP10 ADD MSTORE DUP8 DUP3 SUB PUSH1 0xC0 DUP10 ADD MSTORE PUSH2 0x104D JUMP JUMPDEST SWAP9 PUSH1 0xE0 DUP7 ADD MSTORE PUSH2 0x100 DUP6 ADD MSTORE PUSH2 0x120 DUP5 ADD MSTORE PUSH2 0x140 DUP4 ADD MSTORE PUSH2 0x160 DUP3 ADD MSTORE ADD MSTORE JUMP JUMPDEST SWAP2 DUP2 PUSH1 0x1F DUP5 ADD SLT ISZERO PUSH2 0x139 JUMPI DUP3 CALLDATALOAD SWAP2 PUSH1 0x1 PUSH1 0x1 PUSH1 0x40 SHL SUB DUP4 GT PUSH2 0x139 JUMPI PUSH1 0x20 DUP4 DUP2 DUP7 ADD SWAP6 ADD ADD GT PUSH2 0x139 JUMPI JUMP JUMPDEST SWAP1 DUP1 PUSH1 0x20 DUP4 MLOAD SWAP2 DUP3 DUP2 MSTORE ADD SWAP2 PUSH1 0x20 DUP1 DUP4 PUSH1 0x5 SHL DUP4 ADD ADD SWAP5 ADD SWAP3 PUSH0 SWAP2 JUMPDEST DUP4 DUP4 LT PUSH2 0x115E JUMPI POP POP POP POP POP SWAP1 JUMP JUMPDEST SWAP1 SWAP2 SWAP3 SWAP4 SWAP5 PUSH1 0x20 DUP1 PUSH2 0x117C PUSH1 0x1 SWAP4 PUSH1 0x1F NOT DUP7 DUP3 SUB ADD DUP8 MSTORE DUP10 MLOAD PUSH2 0x104D JUMP JUMPDEST SWAP8 ADD SWAP4 ADD SWAP4 ADD SWAP2 SWAP4 SWAP3 SWAP1 PUSH2 0x114F JUMP JUMPDEST SWAP1 PUSH2 0x1C0 DUP1 PUSH2 0x1242 PUSH2 0x1222 PUSH2 0x1206 PUSH2 0x11F4 PUSH2 0x11C6 PUSH2 0x11B4 DUP10 MLOAD PUSH2 0x1E0 DUP11 MSTORE PUSH2 0x1E0 DUP11 ADD SWAP1 PUSH2 0x104D JUMP JUMPDEST PUSH1 0x20 DUP11 ADD MLOAD DUP10 DUP3 SUB PUSH1 0x20 DUP12 ADD MSTORE PUSH2 0x104D JUMP JUMPDEST PUSH1 0x40 DUP10 ADD MLOAD PUSH1 0x40 DUP10 ADD MSTORE PUSH1 0x1 DUP1 PUSH1 0xA0 SHL SUB PUSH1 0x60 DUP11 ADD MLOAD AND PUSH1 0x60 DUP10 ADD MSTORE PUSH1 0x80 DUP10 ADD MLOAD DUP9 DUP3 SUB PUSH1 0x80 DUP11 ADD MSTORE PUSH2 0x104D JUMP JUMPDEST PUSH1 0xA0 DUP9 ADD MLOAD DUP8 DUP3 SUB PUSH1 0xA0 DUP10 ADD MSTORE PUSH2 0x1133 JUMP JUMPDEST PUSH1 0xC0 DUP8 ADD MLOAD PUSH1 0xC0 DUP8 ADD MSTORE PUSH1 0xE0 DUP8 ADD MLOAD DUP7 DUP3 SUB PUSH1 0xE0 DUP9 ADD MSTORE PUSH2 0x104D JUMP JUMPDEST PUSH2 0x100 DUP7 ADD MLOAD PUSH2 0x100 DUP7 ADD MSTORE PUSH2 0x120 DUP7 ADD MLOAD DUP6 DUP3 SUB PUSH2 0x120 DUP8 ADD MSTORE PUSH2 0x1133 JUMP JUMPDEST SWAP4 PUSH2 0x140 DUP2 ADD MLOAD PUSH2 0x140 DUP6 ADD MSTORE PUSH2 0x160 DUP2 ADD MLOAD PUSH2 0x160 DUP6 ADD MSTORE PUSH2 0x180 DUP2 ADD MLOAD PUSH2 0x180 DUP6 ADD MSTORE PUSH2 0x1A0 DUP2 ADD MLOAD PUSH2 0x1A0 DUP6 ADD MSTORE ADD MLOAD SWAP2 ADD MSTORE SWAP1 JUMP JUMPDEST PUSH1 0x1 PUSH1 0x1 PUSH1 0x40 SHL SUB DUP2 GT PUSH2 0x4E4 JUMPI PUSH1 0x5 SHL PUSH1 0x20 ADD SWAP1 JUMP JUMPDEST SWAP3 SWAP2 SWAP1 PUSH2 0x129E DUP2 PUSH2 0x127B JUMP JUMPDEST SWAP4 PUSH2 0x12AC PUSH1 0x40 MLOAD SWAP6 DUP7 PUSH2 0xE97 JUMP JUMPDEST PUSH1 0x20 DUP6 DUP4 DUP2 MSTORE ADD SWAP2 PUSH1 0x5 SHL DUP2 ADD SWAP2 DUP4 DUP4 GT PUSH2 0x139 JUMPI DUP2 SWAP1 JUMPDEST DUP4 DUP3 LT PUSH2 0x12D2 JUMPI POP POP POP POP POP JUMP JUMPDEST DUP2 CALLDATALOAD PUSH1 0x1 PUSH1 0x1 PUSH1 0x40 SHL SUB DUP2 GT PUSH2 0x139 JUMPI PUSH1 0x20 SWAP2 PUSH2 0x12F2 DUP8 DUP5 SWAP4 DUP8 ADD PUSH2 0xEFD JUMP JUMPDEST DUP2 MSTORE ADD SWAP2 ADD SWAP1 PUSH2 0x12C4 JUMP JUMPDEST SWAP1 DUP1 PUSH1 0x1F DUP4 ADD SLT ISZERO PUSH2 0x139 JUMPI DUP2 PUSH1 0x20 PUSH2 0xF18 SWAP4 CALLDATALOAD SWAP2 ADD PUSH2 0x1292 JUMP JUMPDEST DUP1 SLOAD DUP3 LT ISZERO PUSH2 0xF61 JUMPI PUSH0 MSTORE PUSH1 0xF PUSH1 0x20 PUSH0 KECCAK256 SWAP2 MUL ADD SWAP1 PUSH0 SWAP1 JUMP JUMPDEST SWAP2 DUP2 PUSH1 0x1F DUP5 ADD SLT ISZERO PUSH2 0x139 JUMPI DUP3 CALLDATALOAD SWAP2 PUSH1 0x1 PUSH1 0x1 PUSH1 0x40 SHL SUB DUP4 GT PUSH2 0x139 JUMPI PUSH1 0x20 DUP1 DUP6 ADD SWAP5 DUP5 PUSH1 0x5 SHL ADD ADD GT PUSH2 0x139 JUMPI JUMP JUMPDEST SWAP1 DUP2 MLOAD DUP2 LT ISZERO PUSH2 0xF61 JUMPI ADD PUSH1 0x20 ADD SWAP1 JUMP JUMPDEST PUSH0 NOT DUP2 EQ PUSH2 0xC15 JUMPI PUSH1 0x1 ADD SWAP1 JUMP JUMPDEST SWAP2 SWAP1 DUP3 SUB SWAP2 DUP3 GT PUSH2 0xC15 JUMPI JUMP JUMPDEST DUP2 ISZERO PUSH2 0x1397 JUMPI DIV SWAP1 JUMP JUMPDEST PUSH4 0x4E487B71 PUSH1 0xE0 SHL PUSH0 MSTORE PUSH1 0x12 PUSH1 0x4 MSTORE PUSH1 0x24 PUSH0 REVERT JUMPDEST SWAP1 PUSH1 0x40 MLOAD SWAP2 PUSH1 0x20 DUP4 ADD MSTORE PUSH1 0x20 DUP3 MSTORE PUSH2 0x13C4 PUSH1 0x40 DUP4 PUSH2 0xE97 JUMP JUMPDEST PUSH1 0x40 MLOAD SWAP1 PUSH1 0x20 DUP3 ADD MSTORE PUSH1 0x20 DUP2 MSTORE PUSH2 0x13DC PUSH1 0x40 DUP3 PUSH2 0xE97 JUMP JUMPDEST PUSH0 SWAP1 PUSH0 JUMPDEST DUP4 MLOAD DUP2 LT ISZERO PUSH2 0x1435 JUMPI PUSH1 0x1 PUSH1 0x1 PUSH1 0xF8 SHL SUB NOT PUSH2 0x13FC DUP3 DUP7 PUSH2 0x1361 JUMP JUMPDEST MLOAD AND PUSH1 0x1 PUSH1 0x1 PUSH1 0xF8 SHL SUB NOT PUSH2 0x1411 DUP4 DUP6 PUSH2 0x1361 JUMP JUMPDEST MLOAD AND SUB PUSH2 0x1421 JUMPI JUMPDEST PUSH1 0x1 ADD PUSH2 0x13E0 JUMP JUMPDEST SWAP2 PUSH2 0x142D PUSH1 0x1 SWAP2 PUSH2 0x1372 JUMP JUMPDEST SWAP3 SWAP1 POP PUSH2 0x1419 JUMP JUMPDEST POP POP PUSH2 0x1442 SWAP1 DUP3 MLOAD PUSH2 0x1380 JUMP JUMPDEST PUSH1 0x64 DUP2 MUL SWAP1 DUP1 DUP3 DIV PUSH1 0x64 EQ SWAP1 ISZERO OR ISZERO PUSH2 0xC15 JUMPI PUSH2 0xF18 SWAP2 MLOAD SWAP1 PUSH2 0x138D JUMP JUMPDEST ISZERO PUSH2 0x1467 JUMPI JUMP JUMPDEST PUSH1 0x40 MLOAD PUSH3 0x461BCD PUSH1 0xE5 SHL DUP2 MSTORE PUSH1 0x20 PUSH1 0x4 DUP3 ADD MSTORE PUSH1 0x12 PUSH1 0x24 DUP3 ADD MSTORE PUSH18 0x10D51248191BD95CC81B9BDD08195E1A5CDD PUSH1 0x72 SHL PUSH1 0x44 DUP3 ADD MSTORE PUSH1 0x64 SWAP1 REVERT JUMPDEST SWAP1 PUSH1 0x1 DUP3 ADD SWAP2 PUSH0 PUSH1 0x1 DUP5 SLT SWAP2 SLT SWAP1 DUP1 ISZERO DUP3 AND SWAP2 ISZERO AND OR PUSH2 0xC15 JUMPI JUMP JUMPDEST SWAP1 DUP2 SLOAD PUSH2 0x14C9 DUP2 PUSH2 0x127B JUMP JUMPDEST SWAP3 PUSH2 0x14D7 PUSH1 0x40 MLOAD SWAP5 DUP6 PUSH2 0xE97 JUMP JUMPDEST DUP2 DUP5 MSTORE PUSH1 0x20 DUP5 ADD SWAP1 PUSH0 MSTORE PUSH1 0x20 PUSH0 KECCAK256 PUSH0 SWAP2 JUMPDEST DUP4 DUP4 LT PUSH2 0x14F5 JUMPI POP POP POP POP JUMP JUMPDEST PUSH1 0x1 PUSH1 0x20 DUP2 SWAP3 PUSH2 0x1504 DUP6 PUSH2 0xFAD JUMP JUMPDEST DUP2 MSTORE ADD SWAP3 ADD SWAP3 ADD SWAP2 SWAP1 PUSH2 0x14E8 JUMP JUMPDEST SWAP1 PUSH1 0x40 MLOAD PUSH2 0x151F DUP2 PUSH2 0xE7B JUMP JUMPDEST PUSH2 0x1C0 PUSH1 0xE DUP3 SWAP5 PUSH2 0x152F DUP2 PUSH2 0xFAD JUMP JUMPDEST DUP5 MSTORE PUSH2 0x153D PUSH1 0x1 DUP3 ADD PUSH2 0xFAD JUMP JUMPDEST PUSH1 0x20 DUP6 ADD MSTORE PUSH1 0x2 DUP2 ADD SLOAD PUSH1 0x40 DUP6 ADD MSTORE PUSH1 0x3 DUP2 ADD SLOAD PUSH1 0x1 PUSH1 0x1 PUSH1 0xA0 SHL SUB AND PUSH1 0x60 DUP6 ADD MSTORE PUSH2 0x156B PUSH1 0x4 DUP3 ADD PUSH2 0xFAD JUMP JUMPDEST PUSH1 0x80 DUP6 ADD MSTORE PUSH2 0x157C PUSH1 0x5 DUP3 ADD PUSH2 0x14BD JUMP JUMPDEST PUSH1 0xA0 DUP6 ADD MSTORE PUSH1 0x6 DUP2 ADD SLOAD PUSH1 0xC0 DUP6 ADD MSTORE PUSH2 0x1597 PUSH1 0x7 DUP3 ADD PUSH2 0xFAD JUMP JUMPDEST PUSH1 0xE0 DUP6 ADD MSTORE PUSH1 0x8 DUP2 ADD SLOAD PUSH2 0x100 DUP6 ADD MSTORE PUSH2 0x15B3 PUSH1 0x9 DUP3 ADD PUSH2 0x14BD JUMP JUMPDEST PUSH2 0x120 DUP6 ADD MSTORE PUSH1 0xA DUP2 ADD SLOAD PUSH2 0x140 DUP6 ADD MSTORE PUSH1 0xB DUP2 ADD SLOAD PUSH2 0x160 DUP6 ADD MSTORE PUSH1 0xC DUP2 ADD SLOAD PUSH2 0x180 DUP6 ADD MSTORE PUSH1 0xD DUP2 ADD SLOAD PUSH2 0x1A0 DUP6 ADD MSTORE ADD SLOAD SWAP2 ADD MSTORE JUMP JUMPDEST DUP1 MLOAD DUP3 LT ISZERO PUSH2 0xF61 JUMPI PUSH1 0x20 SWAP2 PUSH1 0x5 SHL ADD ADD SWAP1 JUMP JUMPDEST SWAP2 SWAP1 DUP3 ADD DUP1 SWAP3 GT PUSH2 0xC15 JUMPI JUMP JUMPDEST PUSH1 0x20 SWAP1 DUP3 PUSH1 0x40 MLOAD SWAP4 DUP5 SWAP3 DUP4 CALLDATACOPY DUP2 ADD PUSH1 0x6 DUP2 MSTORE SUB ADD SWAP1 KECCAK256 SWAP1 PUSH1 0x40 MLOAD DUP1 DUP4 PUSH1 0x20 DUP3 SWAP6 SLOAD SWAP4 DUP5 DUP2 MSTORE ADD SWAP1 PUSH0 MSTORE PUSH1 0x20 PUSH0 KECCAK256 SWAP3 PUSH0 JUMPDEST DUP2 DUP2 LT PUSH2 0x16A1 JUMPI POP POP PUSH2 0x1652 SWAP3 POP SUB DUP4 PUSH2 0xE97 JUMP JUMPDEST DUP2 MLOAD SWAP2 DUP3 ISZERO PUSH2 0x1699 JUMPI DUP3 PUSH0 DUP1 SWAP3 JUMPDEST DUP3 DUP5 LT PUSH2 0x1676 JUMPI POP PUSH2 0x1672 SWAP3 POP PUSH2 0x138D JUMP JUMPDEST SWAP2 SWAP1 JUMP JUMPDEST SWAP2 POP PUSH2 0x168F PUSH1 0x1 SWAP2 PUSH2 0x1688 DUP6 DUP6 PUSH2 0x15EC JUMP JUMPDEST MLOAD SWAP1 PUSH2 0x1600 JUMP JUMPDEST SWAP3 ADD SWAP2 DUP5 SWAP2 PUSH2 0x1660 JUMP JUMPDEST POP PUSH0 SWAP2 POP DUP2 SWAP1 JUMP JUMPDEST DUP5 SLOAD DUP4 MSTORE PUSH1 0x1 SWAP5 DUP6 ADD SWAP5 DUP8 SWAP5 POP PUSH1 0x20 SWAP1 SWAP4 ADD SWAP3 ADD PUSH2 0x163D JUMP JUMPDEST PUSH1 0x40 MLOAD DUP2 MLOAD PUSH1 0xFF SWAP3 PUSH1 0x20 SWAP2 DUP4 SWAP2 DUP2 SWAP1 DUP5 ADD DUP4 MCOPY DUP2 ADD PUSH1 0x2 DUP2 MSTORE SUB ADD SWAP1 KECCAK256 SLOAD AND SWAP1 JUMP JUMPDEST PUSH2 0x170C PUSH1 0x20 DUP1 SWAP3 SWAP6 SWAP5 SWAP6 PUSH1 0x40 MLOAD SWAP4 DUP2 DUP6 SWAP3 MLOAD SWAP2 DUP3 SWAP2 ADD DUP5 DUP5 ADD MCOPY DUP2 ADD PUSH0 DUP4 DUP3 ADD MSTORE SUB ADD PUSH1 0x1F NOT DUP2 ADD DUP4 MSTORE DUP3 PUSH2 0xE97 JUMP JUMPDEST SWAP2 PUSH0 SWAP3 JUMPDEST DUP3 MLOAD DUP5 LT ISZERO PUSH2 0x176A JUMPI PUSH1 0x20 PUSH2 0x1762 PUSH1 0x1 SWAP3 DUP3 DUP1 PUSH2 0x172D DUP10 DUP10 PUSH2 0x15EC JUMP JUMPDEST MLOAD PUSH1 0x40 MLOAD SWAP6 DUP5 DUP8 SWAP6 MLOAD SWAP2 DUP3 SWAP2 ADD DUP5 DUP8 ADD MCOPY DUP5 ADD SWAP1 DUP3 DUP3 ADD PUSH0 DUP2 MSTORE DUP2 MLOAD SWAP4 DUP5 SWAP3 ADD SWAP1 MCOPY ADD ADD PUSH0 DUP2 MSTORE SUB PUSH1 0x1F NOT DUP2 ADD DUP4 MSTORE DUP3 PUSH2 0xE97 JUMP JUMPDEST SWAP4 ADD SWAP3 PUSH2 0x1710 JUMP JUMPDEST SWAP3 POP SWAP3 SWAP1 POP PUSH0 SWAP2 JUMPDEST DUP2 MLOAD DUP4 LT ISZERO PUSH2 0x1797 JUMPI PUSH1 0x20 PUSH2 0x178F PUSH1 0x1 SWAP3 DUP3 DUP1 PUSH2 0x172D DUP9 DUP9 PUSH2 0x15EC JUMP JUMPDEST SWAP3 ADD SWAP2 PUSH2 0x1772 JUMP JUMPDEST SWAP2 POP POP PUSH1 0x20 DUP2 MLOAD SWAP2 ADD KECCAK256 SWAP1 JUMP JUMPDEST DUP2 DUP2 LT PUSH2 0x17AF JUMPI POP POP JUMP JUMPDEST PUSH0 DUP2 SSTORE PUSH1 0x1 ADD PUSH2 0x17A4 JUMP JUMPDEST SWAP2 SWAP1 SWAP2 DUP3 MLOAD SWAP3 DUP4 MLOAD PUSH1 0x1 PUSH1 0x1 PUSH1 0x40 SHL SUB DUP2 GT PUSH2 0x4E4 JUMPI PUSH2 0x17DA DUP4 SLOAD PUSH2 0xF75 JUMP JUMPDEST PUSH1 0x1F DUP2 GT PUSH2 0x1F5A JUMPI JUMPDEST POP PUSH1 0x20 SWAP5 PUSH1 0x1F DUP3 GT PUSH1 0x1 EQ PUSH2 0x1EF9 JUMPI PUSH2 0x1816 SWAP3 SWAP4 SWAP5 SWAP6 DUP3 SWAP2 PUSH0 SWAP3 PUSH2 0x1A9E JUMPI JUMPDEST POP POP DUP2 PUSH1 0x1 SHL SWAP2 PUSH0 NOT SWAP1 PUSH1 0x3 SHL SHR NOT AND OR SWAP1 JUMP JUMPDEST DUP3 SSTORE JUMPDEST PUSH1 0x1 DUP3 ADD PUSH1 0x20 DUP3 ADD MLOAD DUP1 MLOAD SWAP1 PUSH1 0x1 PUSH1 0x1 PUSH1 0x40 SHL SUB DUP3 GT PUSH2 0x4E4 JUMPI PUSH2 0x183D DUP4 SLOAD PUSH2 0xF75 JUMP JUMPDEST PUSH1 0x1F DUP2 GT PUSH2 0x1EC9 JUMPI JUMPDEST POP PUSH1 0x20 SWAP1 PUSH1 0x1F DUP4 GT PUSH1 0x1 EQ PUSH2 0x1E66 JUMPI PUSH2 0x1875 SWAP3 SWAP2 PUSH0 SWAP2 DUP4 PUSH2 0x1A9E JUMPI POP POP DUP2 PUSH1 0x1 SHL SWAP2 PUSH0 NOT SWAP1 PUSH1 0x3 SHL SHR NOT AND OR SWAP1 JUMP JUMPDEST SWAP1 SSTORE JUMPDEST PUSH1 0x40 DUP2 ADD MLOAD PUSH1 0x2 DUP4 ADD SSTORE PUSH1 0x3 DUP3 ADD PUSH1 0x1 DUP1 PUSH1 0xA0 SHL SUB PUSH1 0x60 DUP4 ADD MLOAD AND PUSH12 0xFFFFFFFFFFFFFFFFFFFFFFFF PUSH1 0xA0 SHL DUP3 SLOAD AND OR SWAP1 SSTORE PUSH1 0x4 DUP3 ADD PUSH1 0x80 DUP3 ADD MLOAD DUP1 MLOAD SWAP1 PUSH1 0x1 PUSH1 0x1 PUSH1 0x40 SHL SUB DUP3 GT PUSH2 0x4E4 JUMPI PUSH2 0x18CD DUP4 SLOAD PUSH2 0xF75 JUMP JUMPDEST PUSH1 0x1F DUP2 GT PUSH2 0x1E36 JUMPI JUMPDEST POP PUSH1 0x20 SWAP1 PUSH1 0x1F DUP4 GT PUSH1 0x1 EQ PUSH2 0x1DD3 JUMPI PUSH2 0x1905 SWAP3 SWAP2 PUSH0 SWAP2 DUP4 PUSH2 0x1A9E JUMPI POP POP DUP2 PUSH1 0x1 SHL SWAP2 PUSH0 NOT SWAP1 PUSH1 0x3 SHL SHR NOT AND OR SWAP1 JUMP JUMPDEST SWAP1 SSTORE JUMPDEST PUSH1 0x5 DUP3 ADD PUSH1 0xA0 DUP3 ADD MLOAD DUP1 MLOAD SWAP1 PUSH1 0x1 PUSH1 0x40 SHL DUP3 GT PUSH2 0x4E4 JUMPI DUP3 SLOAD DUP3 DUP5 SSTORE DUP1 DUP4 LT PUSH2 0x1D5C JUMPI JUMPDEST POP PUSH1 0x20 ADD SWAP2 PUSH0 MSTORE PUSH1 0x20 PUSH0 KECCAK256 SWAP2 PUSH0 SWAP1 JUMPDEST DUP3 DUP3 LT PUSH2 0x1C57 JUMPI POP POP POP POP PUSH1 0xC0 DUP2 ADD MLOAD PUSH1 0x6 DUP4 ADD SSTORE PUSH1 0x7 DUP3 ADD PUSH1 0xE0 DUP3 ADD MLOAD DUP1 MLOAD SWAP1 PUSH1 0x1 PUSH1 0x1 PUSH1 0x40 SHL SUB DUP3 GT PUSH2 0x4E4 JUMPI PUSH2 0x1974 DUP4 SLOAD PUSH2 0xF75 JUMP JUMPDEST PUSH1 0x1F DUP2 GT PUSH2 0x1C27 JUMPI JUMPDEST POP PUSH1 0x20 SWAP1 PUSH1 0x1F DUP4 GT PUSH1 0x1 EQ PUSH2 0x1BC4 JUMPI PUSH2 0x19AC SWAP3 SWAP2 PUSH0 SWAP2 DUP4 PUSH2 0x1A9E JUMPI POP POP DUP2 PUSH1 0x1 SHL SWAP2 PUSH0 NOT SWAP1 PUSH1 0x3 SHL SHR NOT AND OR SWAP1 JUMP JUMPDEST SWAP1 SSTORE JUMPDEST PUSH2 0x100 DUP2 ADD MLOAD PUSH1 0x8 DUP4 ADD SSTORE PUSH1 0x9 DUP3 ADD PUSH2 0x120 DUP3 ADD MLOAD DUP1 MLOAD SWAP1 PUSH1 0x1 PUSH1 0x40 SHL DUP3 GT PUSH2 0x4E4 JUMPI DUP3 SLOAD DUP3 DUP5 SSTORE DUP1 DUP4 LT PUSH2 0x1B4D JUMPI JUMPDEST POP PUSH1 0x20 ADD SWAP2 PUSH0 MSTORE PUSH1 0x20 PUSH0 KECCAK256 SWAP2 PUSH0 SWAP1 JUMPDEST DUP3 DUP3 LT PUSH2 0x1A32 JUMPI POP POP POP POP PUSH2 0x1C0 DUP2 PUSH2 0x140 PUSH1 0xE SWAP4 ADD MLOAD PUSH1 0xA DUP6 ADD SSTORE PUSH2 0x160 DUP2 ADD MLOAD PUSH1 0xB DUP6 ADD SSTORE PUSH2 0x180 DUP2 ADD MLOAD PUSH1 0xC DUP6 ADD SSTORE PUSH2 0x1A0 DUP2 ADD MLOAD PUSH1 0xD DUP6 ADD SSTORE ADD MLOAD SWAP2 ADD SSTORE JUMP JUMPDEST DUP1 MLOAD DUP1 MLOAD SWAP1 PUSH1 0x1 PUSH1 0x1 PUSH1 0x40 SHL SUB DUP3 GT PUSH2 0x4E4 JUMPI PUSH2 0x1A4F DUP7 SLOAD PUSH2 0xF75 JUMP JUMPDEST PUSH1 0x1F DUP2 GT PUSH2 0x1B12 JUMPI JUMPDEST POP PUSH1 0x20 SWAP1 PUSH1 0x1F DUP4 GT PUSH1 0x1 EQ PUSH2 0x1AA9 JUMPI SWAP3 PUSH2 0x1A8F DUP4 PUSH1 0x1 SWAP6 SWAP5 PUSH1 0x20 SWAP5 DUP8 SWAP7 PUSH0 SWAP3 PUSH2 0x1A9E JUMPI POP POP DUP2 PUSH1 0x1 SHL SWAP2 PUSH0 NOT SWAP1 PUSH1 0x3 SHL SHR NOT AND OR SWAP1 JUMP JUMPDEST DUP8 SSTORE JUMPDEST ADD SWAP5 ADD SWAP2 ADD SWAP1 SWAP3 PUSH2 0x19EE JUMP JUMPDEST ADD MLOAD SWAP1 POP PUSH0 DUP1 PUSH2 0x1802 JUMP JUMPDEST SWAP1 PUSH1 0x1F NOT DUP4 AND SWAP2 DUP8 PUSH0 MSTORE DUP2 PUSH0 KECCAK256 SWAP3 PUSH0 JUMPDEST DUP2 DUP2 LT PUSH2 0x1AFA JUMPI POP SWAP4 PUSH1 0x20 SWAP4 PUSH1 0x1 SWAP7 SWAP4 DUP8 SWAP7 SWAP4 DUP4 DUP9 SWAP6 LT PUSH2 0x1AE2 JUMPI JUMPDEST POP POP POP DUP2 SHL ADD DUP8 SSTORE PUSH2 0x1A92 JUMP JUMPDEST ADD MLOAD PUSH0 NOT PUSH1 0xF8 DUP5 PUSH1 0x3 SHL AND SHR NOT AND SWAP1 SSTORE PUSH0 DUP1 DUP1 PUSH2 0x1AD5 JUMP JUMPDEST SWAP3 SWAP4 PUSH1 0x20 PUSH1 0x1 DUP2 SWAP3 DUP8 DUP7 ADD MLOAD DUP2 SSTORE ADD SWAP6 ADD SWAP4 ADD PUSH2 0x1AB9 JUMP JUMPDEST PUSH2 0x1B3D SWAP1 DUP8 PUSH0 MSTORE PUSH1 0x20 PUSH0 KECCAK256 PUSH1 0x1F DUP6 ADD PUSH1 0x5 SHR DUP2 ADD SWAP2 PUSH1 0x20 DUP7 LT PUSH2 0x1B43 JUMPI JUMPDEST PUSH1 0x1F ADD PUSH1 0x5 SHR ADD SWAP1 PUSH2 0x17A4 JUMP JUMPDEST PUSH0 PUSH2 0x1A58 JUMP JUMPDEST SWAP1 SWAP2 POP DUP2 SWAP1 PUSH2 0x1B30 JUMP JUMPDEST DUP4 PUSH0 MSTORE DUP3 PUSH1 0x20 PUSH0 KECCAK256 SWAP2 DUP3 ADD SWAP2 ADD JUMPDEST DUP2 DUP2 LT PUSH2 0x1B68 JUMPI POP PUSH2 0x19DF JUMP JUMPDEST DUP1 PUSH2 0x1B75 PUSH1 0x1 SWAP3 SLOAD PUSH2 0xF75 JUMP JUMPDEST DUP1 PUSH2 0x1B82 JUMPI JUMPDEST POP ADD PUSH2 0x1B5B JUMP JUMPDEST PUSH1 0x1F DUP2 GT DUP4 EQ PUSH2 0x1B97 JUMPI POP PUSH0 DUP2 SSTORE JUMPDEST PUSH0 PUSH2 0x1B7B JUMP JUMPDEST PUSH2 0x1BB3 SWAP1 DUP3 PUSH0 MSTORE DUP4 PUSH1 0x1F PUSH1 0x20 PUSH0 KECCAK256 SWAP3 ADD PUSH1 0x5 SHR DUP3 ADD SWAP2 ADD PUSH2 0x17A4 JUMP JUMPDEST DUP1 PUSH0 MSTORE PUSH0 PUSH1 0x20 DUP2 KECCAK256 DUP2 DUP4 SSTORE SSTORE PUSH2 0x1B91 JUMP JUMPDEST SWAP1 PUSH1 0x1F NOT DUP4 AND SWAP2 DUP5 PUSH0 MSTORE DUP2 PUSH0 KECCAK256 SWAP3 PUSH0 JUMPDEST DUP2 DUP2 LT PUSH2 0x1C0F JUMPI POP SWAP1 DUP5 PUSH1 0x1 SWAP6 SWAP5 SWAP4 SWAP3 LT PUSH2 0x1BF7 JUMPI JUMPDEST POP POP POP DUP2 SHL ADD SWAP1 SSTORE PUSH2 0x19AF JUMP JUMPDEST ADD MLOAD PUSH0 NOT PUSH1 0xF8 DUP5 PUSH1 0x3 SHL AND SHR NOT AND SWAP1 SSTORE PUSH0 DUP1 DUP1 PUSH2 0x1BEA JUMP JUMPDEST SWAP3 SWAP4 PUSH1 0x20 PUSH1 0x1 DUP2 SWAP3 DUP8 DUP7 ADD MLOAD DUP2 SSTORE ADD SWAP6 ADD SWAP4 ADD PUSH2 0x1BD4 JUMP JUMPDEST PUSH2 0x1C51 SWAP1 DUP5 PUSH0 MSTORE PUSH1 0x20 PUSH0 KECCAK256 PUSH1 0x1F DUP6 ADD PUSH1 0x5 SHR DUP2 ADD SWAP2 PUSH1 0x20 DUP7 LT PUSH2 0x1B43 JUMPI PUSH1 0x1F ADD PUSH1 0x5 SHR ADD SWAP1 PUSH2 0x17A4 JUMP JUMPDEST PUSH0 PUSH2 0x197D JUMP JUMPDEST DUP1 MLOAD DUP1 MLOAD SWAP1 PUSH1 0x1 PUSH1 0x1 PUSH1 0x40 SHL SUB DUP3 GT PUSH2 0x4E4 JUMPI PUSH2 0x1C74 DUP7 SLOAD PUSH2 0xF75 JUMP JUMPDEST PUSH1 0x1F DUP2 GT PUSH2 0x1D2C JUMPI JUMPDEST POP PUSH1 0x20 SWAP1 PUSH1 0x1F DUP4 GT PUSH1 0x1 EQ PUSH2 0x1CC3 JUMPI SWAP3 PUSH2 0x1CB4 DUP4 PUSH1 0x1 SWAP6 SWAP5 PUSH1 0x20 SWAP5 DUP8 SWAP7 PUSH0 SWAP3 PUSH2 0x1A9E JUMPI POP POP DUP2 PUSH1 0x1 SHL SWAP2 PUSH0 NOT SWAP1 PUSH1 0x3 SHL SHR NOT AND OR SWAP1 JUMP JUMPDEST DUP8 SSTORE JUMPDEST ADD SWAP5 ADD SWAP2 ADD SWAP1 SWAP3 PUSH2 0x193B JUMP JUMPDEST SWAP1 PUSH1 0x1F NOT DUP4 AND SWAP2 DUP8 PUSH0 MSTORE DUP2 PUSH0 KECCAK256 SWAP3 PUSH0 JUMPDEST DUP2 DUP2 LT PUSH2 0x1D14 JUMPI POP SWAP4 PUSH1 0x20 SWAP4 PUSH1 0x1 SWAP7 SWAP4 DUP8 SWAP7 SWAP4 DUP4 DUP9 SWAP6 LT PUSH2 0x1CFC JUMPI JUMPDEST POP POP POP DUP2 SHL ADD DUP8 SSTORE PUSH2 0x1CB7 JUMP JUMPDEST ADD MLOAD PUSH0 NOT PUSH1 0xF8 DUP5 PUSH1 0x3 SHL AND SHR NOT AND SWAP1 SSTORE PUSH0 DUP1 DUP1 PUSH2 0x1CEF JUMP JUMPDEST SWAP3 SWAP4 PUSH1 0x20 PUSH1 0x1 DUP2 SWAP3 DUP8 DUP7 ADD MLOAD DUP2 SSTORE ADD SWAP6 ADD SWAP4 ADD PUSH2 0x1CD3 JUMP JUMPDEST PUSH2 0x1D56 SWAP1 DUP8 PUSH0 MSTORE PUSH1 0x20 PUSH0 KECCAK256 PUSH1 0x1F DUP6 ADD PUSH1 0x5 SHR DUP2 ADD SWAP2 PUSH1 0x20 DUP7 LT PUSH2 0x1B43 JUMPI PUSH1 0x1F ADD PUSH1 0x5 SHR ADD SWAP1 PUSH2 0x17A4 JUMP JUMPDEST PUSH0 PUSH2 0x1C7D JUMP JUMPDEST DUP4 PUSH0 MSTORE DUP3 PUSH1 0x20 PUSH0 KECCAK256 SWAP2 DUP3 ADD SWAP2 ADD JUMPDEST DUP2 DUP2 LT PUSH2 0x1D77 JUMPI POP PUSH2 0x192C JUMP JUMPDEST DUP1 PUSH2 0x1D84 PUSH1 0x1 SWAP3 SLOAD PUSH2 0xF75 JUMP JUMPDEST DUP1 PUSH2 0x1D91 JUMPI JUMPDEST POP ADD PUSH2 0x1D6A JUMP JUMPDEST PUSH1 0x1F DUP2 GT DUP4 EQ PUSH2 0x1DA6 JUMPI POP PUSH0 DUP2 SSTORE JUMPDEST PUSH0 PUSH2 0x1D8A JUMP JUMPDEST PUSH2 0x1DC2 SWAP1 DUP3 PUSH0 MSTORE DUP4 PUSH1 0x1F PUSH1 0x20 PUSH0 KECCAK256 SWAP3 ADD PUSH1 0x5 SHR DUP3 ADD SWAP2 ADD PUSH2 0x17A4 JUMP JUMPDEST DUP1 PUSH0 MSTORE PUSH0 PUSH1 0x20 DUP2 KECCAK256 DUP2 DUP4 SSTORE SSTORE PUSH2 0x1DA0 JUMP JUMPDEST SWAP1 PUSH1 0x1F NOT DUP4 AND SWAP2 DUP5 PUSH0 MSTORE DUP2 PUSH0 KECCAK256 SWAP3 PUSH0 JUMPDEST DUP2 DUP2 LT PUSH2 0x1E1E JUMPI POP SWAP1 DUP5 PUSH1 0x1 SWAP6 SWAP5 SWAP4 SWAP3 LT PUSH2 0x1E06 JUMPI JUMPDEST POP POP POP DUP2 SHL ADD SWAP1 SSTORE PUSH2 0x1908 JUMP JUMPDEST ADD MLOAD PUSH0 NOT PUSH1 0xF8 DUP5 PUSH1 0x3 SHL AND SHR NOT AND SWAP1 SSTORE PUSH0 DUP1 DUP1 PUSH2 0x1DF9 JUMP JUMPDEST SWAP3 SWAP4 PUSH1 0x20 PUSH1 0x1 DUP2 SWAP3 DUP8 DUP7 ADD MLOAD DUP2 SSTORE ADD SWAP6 ADD SWAP4 ADD PUSH2 0x1DE3 JUMP JUMPDEST PUSH2 0x1E60 SWAP1 DUP5 PUSH0 MSTORE PUSH1 0x20 PUSH0 KECCAK256 PUSH1 0x1F DUP6 ADD PUSH1 0x5 SHR DUP2 ADD SWAP2 PUSH1 0x20 DUP7 LT PUSH2 0x1B43 JUMPI PUSH1 0x1F ADD PUSH1 0x5 SHR ADD SWAP1 PUSH2 0x17A4 JUMP JUMPDEST PUSH0 PUSH2 0x18D6 JUMP JUMPDEST SWAP1 PUSH1 0x1F NOT DUP4 AND SWAP2 DUP5 PUSH0 MSTORE DUP2 PUSH0 KECCAK256 SWAP3 PUSH0 JUMPDEST DUP2 DUP2 LT PUSH2 0x1EB1 JUMPI POP SWAP1 DUP5 PUSH1 0x1 SWAP6 SWAP5 SWAP4 SWAP3 LT PUSH2 0x1E99 JUMPI JUMPDEST POP POP POP DUP2 SHL ADD SWAP1 SSTORE PUSH2 0x1878 JUMP JUMPDEST ADD MLOAD PUSH0 NOT PUSH1 0xF8 DUP5 PUSH1 0x3 SHL AND SHR NOT AND SWAP1 SSTORE PUSH0 DUP1 DUP1 PUSH2 0x1E8C JUMP JUMPDEST SWAP3 SWAP4 PUSH1 0x20 PUSH1 0x1 DUP2 SWAP3 DUP8 DUP7 ADD MLOAD DUP2 SSTORE ADD SWAP6 ADD SWAP4 ADD PUSH2 0x1E76 JUMP JUMPDEST PUSH2 0x1EF3 SWAP1 DUP5 PUSH0 MSTORE PUSH1 0x20 PUSH0 KECCAK256 PUSH1 0x1F DUP6 ADD PUSH1 0x5 SHR DUP2 ADD SWAP2 PUSH1 0x20 DUP7 LT PUSH2 0x1B43 JUMPI PUSH1 0x1F ADD PUSH1 0x5 SHR ADD SWAP1 PUSH2 0x17A4 JUMP JUMPDEST PUSH0 PUSH2 0x1846 JUMP JUMPDEST PUSH1 0x1F NOT DUP3 AND SWAP6 DUP5 PUSH0 MSTORE DUP1 PUSH0 KECCAK256 SWAP2 PUSH0 JUMPDEST DUP9 DUP2 LT PUSH2 0x1F42 JUMPI POP DUP4 PUSH1 0x1 SWAP6 SWAP7 SWAP8 SWAP9 LT PUSH2 0x1F2A JUMPI JUMPDEST POP POP POP DUP2 SHL ADD DUP3 SSTORE PUSH2 0x1819 JUMP JUMPDEST ADD MLOAD PUSH0 NOT PUSH1 0xF8 DUP5 PUSH1 0x3 SHL AND SHR NOT AND SWAP1 SSTORE PUSH0 DUP1 DUP1 PUSH2 0x1F1D JUMP JUMPDEST SWAP2 SWAP3 PUSH1 0x20 PUSH1 0x1 DUP2 SWAP3 DUP7 DUP6 ADD MLOAD DUP2 SSTORE ADD SWAP5 ADD SWAP3 ADD PUSH2 0x1F08 JUMP JUMPDEST PUSH2 0x1F84 SWAP1 DUP5 PUSH0 MSTORE PUSH1 0x20 PUSH0 KECCAK256 PUSH1 0x1F DUP5 ADD PUSH1 0x5 SHR DUP2 ADD SWAP2 PUSH1 0x20 DUP6 LT PUSH2 0x1B43 JUMPI PUSH1 0x1F ADD PUSH1 0x5 SHR ADD SWAP1 PUSH2 0x17A4 JUMP JUMPDEST PUSH0 PUSH2 0x17E3 JUMP JUMPDEST SWAP1 DUP2 MLOAD DUP2 MLOAD DUP2 EQ SWAP1 DUP2 ISZERO SWAP2 PUSH2 0x1FFE JUMPI JUMPDEST POP PUSH2 0x1FF8 JUMPI PUSH0 SWAP1 PUSH0 JUMPDEST DUP4 MLOAD DUP2 LT ISZERO PUSH2 0x1435 JUMPI PUSH1 0x1 PUSH1 0x1 PUSH1 0xF8 SHL SUB NOT PUSH2 0x1FBF DUP3 DUP7 PUSH2 0x1361 JUMP JUMPDEST MLOAD AND PUSH1 0x1 PUSH1 0x1 PUSH1 0xF8 SHL SUB NOT PUSH2 0x1FD4 DUP4 DUP6 PUSH2 0x1361 JUMP JUMPDEST MLOAD AND SUB PUSH2 0x1FE4 JUMPI JUMPDEST PUSH1 0x1 ADD PUSH2 0x1FA3 JUMP JUMPDEST SWAP2 PUSH2 0x1FF0 PUSH1 0x1 SWAP2 PUSH2 0x1372 JUMP JUMPDEST SWAP3 SWAP1 POP PUSH2 0x1FDC JUMP JUMPDEST POP POP PUSH0 SWAP1 JUMP JUMPDEST SWAP1 POP ISZERO PUSH0 PUSH2 0x1F9A JUMP INVALID LOG2 PUSH5 0x6970667358 0x22 SLT KECCAK256 EXTCODECOPY DUP7 0x2D PUSH22 0x897FCA32E23C4C16AFEA7E2061C8E008F23AA57BFD28 0xDC SLOAD 0xC8 SUB DUP11 0x4E PUSH5 0x736F6C6343 STOP ADDMOD BYTE STOP CALLER "
				},
				"gasEstimates": {
					"creation": {
						"codeDepositCost": "1650600",
						"executionCost": "23845",
						"totalCost": "1674445"
					},
					"external": {
						"CTIByTidList(string)": "infinite",
						"CTIByTipListGroup(string,uint256)": "infinite",
						"GetCTIByTid(string)": "infinite",
						"GetCTIByTip(string)": "infinite",
						"GetFeedbackStats(string)": "infinite",
						"Register(string,string,string,string[],int256,string,uint256,string[],int256)": "infinite",
						"UpdateConsumption(string,int256)": "infinite",
						"UpdateFeedbackScore(string,uint256)": "infinite",
						"UpdateValidation(string)": "infinite",
						"checkDuplicate(string)": "infinite",
						"checkSimilarity(string)": "infinite",
						"detectCompositeSimilarity(bytes32,bytes32)": "infinite",
						"detectSimilarity(string,string)": "infinite",
						"duplicateCTICount(string)": "infinite",
						"existingCTIHashes(string)": "infinite",
						"feedbackScores(string,uint256)": "infinite",
						"generateCompositeHash(string,string[],string[])": "infinite",
						"hasScored(string,address)": "infinite",
						"reportedDuplicates(string,uint256)": "infinite"
					}
				},
				"methodIdentifiers": {
					"CTIByTidList(string)": "1d785ed3",
					"CTIByTipListGroup(string,uint256)": "ae945443",
					"GetCTIByTid(string)": "c99960d3",
					"GetCTIByTip(string)": "59889291",
					"GetFeedbackStats(string)": "98ea94c6",
					"Register(string,string,string,string[],int256,string,uint256,string[],int256)": "d1082c92",
					"UpdateConsumption(string,int256)": "7c4870e7",
					"UpdateFeedbackScore(string,uint256)": "a4e4fd85",
					"UpdateValidation(string)": "467fe707",
					"checkDuplicate(string)": "99cfaa32",
					"checkSimilarity(string)": "9febecfa",
					"detectCompositeSimilarity(bytes32,bytes32)": "2489ed49",
					"detectSimilarity(string,string)": "f2ff5b5c",
					"duplicateCTICount(string)": "aa67f0fe",
					"existingCTIHashes(string)": "7f979a09",
					"feedbackScores(string,uint256)": "f718fe17",
					"generateCompositeHash(string,string[],string[])": "9a0f9ea9",
					"hasScored(string,address)": "83de1191",
					"reportedDuplicates(string,uint256)": "17093bce"
				}
			},
			"storageLayout": {
				"storage": [
					{
						"astId": 40,
						"contract": "ctiIncentiveDedupRegistry/ctiIncentiveDedupRegistry.sol:RegistCTI",
						"label": "CTIByTidList",
						"offset": 0,
						"slot": "0",
						"type": "t_mapping(t_string_memory_ptr,t_struct(CTI)35_storage)"
					},
					{
						"astId": 46,
						"contract": "ctiIncentiveDedupRegistry/ctiIncentiveDedupRegistry.sol:RegistCTI",
						"label": "CTIByTipListGroup",
						"offset": 0,
						"slot": "1",
						"type": "t_mapping(t_string_memory_ptr,t_array(t_struct(CTI)35_storage)dyn_storage)"
					},
					{
						"astId": 50,
						"contract": "ctiIncentiveDedupRegistry/ctiIncentiveDedupRegistry.sol:RegistCTI",
						"label": "existingCTIHashes",
						"offset": 0,
						"slot": "2",
						"type": "t_mapping(t_string_memory_ptr,t_bool)"
					},
					{
						"astId": 54,
						"contract": "ctiIncentiveDedupRegistry/ctiIncentiveDedupRegistry.sol:RegistCTI",
						"label": "duplicateCTICount",
						"offset": 0,
						"slot": "3",
						"type": "t_mapping(t_string_memory_ptr,t_uint256)"
					},
					{
						"astId": 59,
						"contract": "ctiIncentiveDedupRegistry/ctiIncentiveDedupRegistry.sol:RegistCTI",
						"label": "reportedDuplicates",
						"offset": 0,
						"slot": "4",
						"type": "t_mapping(t_string_memory_ptr,t_array(t_address)dyn_storage)"
					},
					{
						"astId": 62,
						"contract": "ctiIncentiveDedupRegistry/ctiIncentiveDedupRegistry.sol:RegistCTI",
						"label": "similarityThreshold",
						"offset": 0,
						"slot": "5",
						"type": "t_uint256"
					},
					{
						"astId": 67,
						"contract": "ctiIncentiveDedupRegistry/ctiIncentiveDedupRegistry.sol:RegistCTI",
						"label": "feedbackScores",
						"offset": 0,
						"slot": "6",
						"type": "t_mapping(t_string_memory_ptr,t_array(t_uint256)dyn_storage)"
					},
					{
						"astId": 73,
						"contract": "ctiIncentiveDedupRegistry/ctiIncentiveDedupRegistry.sol:RegistCTI",
						"label": "hasScored",
						"offset": 0,
						"slot": "7",
						"type": "t_mapping(t_string_memory_ptr,t_mapping(t_address,t_bool))"
					}
				],
				"types": {
					"t_address": {
						"encoding": "inplace",
						"label": "address",
						"numberOfBytes": "20"
					},
					"t_array(t_address)dyn_storage": {
						"base": "t_address",
						"encoding": "dynamic_array",
						"label": "address[]",
						"numberOfBytes": "32"
					},
					"t_array(t_string_storage)dyn_storage": {
						"base": "t_string_storage",
						"encoding": "dynamic_array",
						"label": "string[]",
						"numberOfBytes": "32"
					},
					"t_array(t_struct(CTI)35_storage)dyn_storage": {
						"base": "t_struct(CTI)35_storage",
						"encoding": "dynamic_array",
						"label": "struct RegistCTI.CTI[]",
						"numberOfBytes": "32"
					},
					"t_array(t_uint256)dyn_storage": {
						"base": "t_uint256",
						"encoding": "dynamic_array",
						"label": "uint256[]",
						"numberOfBytes": "32"
					},
					"t_bool": {
						"encoding": "inplace",
						"label": "bool",
						"numberOfBytes": "1"
					},
					"t_int256": {
						"encoding": "inplace",
						"label": "int256",
						"numberOfBytes": "32"
					},
					"t_mapping(t_address,t_bool)": {
						"encoding": "mapping",
						"key": "t_address",
						"label": "mapping(address => bool)",
						"numberOfBytes": "32",
						"value": "t_bool"
					},
					"t_mapping(t_string_memory_ptr,t_array(t_address)dyn_storage)": {
						"encoding": "mapping",
						"key": "t_string_memory_ptr",
						"label": "mapping(string => address[])",
						"numberOfBytes": "32",
						"value": "t_array(t_address)dyn_storage"
					},
					"t_mapping(t_string_memory_ptr,t_array(t_struct(CTI)35_storage)dyn_storage)": {
						"encoding": "mapping",
						"key": "t_string_memory_ptr",
						"label": "mapping(string => struct RegistCTI.CTI[])",
						"numberOfBytes": "32",
						"value": "t_array(t_struct(CTI)35_storage)dyn_storage"
					},
					"t_mapping(t_string_memory_ptr,t_array(t_uint256)dyn_storage)": {
						"encoding": "mapping",
						"key": "t_string_memory_ptr",
						"label": "mapping(string => uint256[])",
						"numberOfBytes": "32",
						"value": "t_array(t_uint256)dyn_storage"
					},
					"t_mapping(t_string_memory_ptr,t_bool)": {
						"encoding": "mapping",
						"key": "t_string_memory_ptr",
						"label": "mapping(string => bool)",
						"numberOfBytes": "32",
						"value": "t_bool"
					},
					"t_mapping(t_string_memory_ptr,t_mapping(t_address,t_bool))": {
						"encoding": "mapping",
						"key": "t_string_memory_ptr",
						"label": "mapping(string => mapping(address => bool))",
						"numberOfBytes": "32",
						"value": "t_mapping(t_address,t_bool)"
					},
					"t_mapping(t_string_memory_ptr,t_struct(CTI)35_storage)": {
						"encoding": "mapping",
						"key": "t_string_memory_ptr",
						"label": "mapping(string => struct RegistCTI.CTI)",
						"numberOfBytes": "32",
						"value": "t_struct(CTI)35_storage"
					},
					"t_mapping(t_string_memory_ptr,t_uint256)": {
						"encoding": "mapping",
						"key": "t_string_memory_ptr",
						"label": "mapping(string => uint256)",
						"numberOfBytes": "32",
						"value": "t_uint256"
					},
					"t_string_memory_ptr": {
						"encoding": "bytes",
						"label": "string",
						"numberOfBytes": "32"
					},
					"t_string_storage": {
						"encoding": "bytes",
						"label": "string",
						"numberOfBytes": "32"
					},
					"t_struct(CTI)35_storage": {
						"encoding": "inplace",
						"label": "struct RegistCTI.CTI",
						"members": [
							{
								"astId": 4,
								"contract": "ctiIncentiveDedupRegistry/ctiIncentiveDedupRegistry.sol:RegistCTI",
								"label": "tid",
								"offset": 0,
								"slot": "0",
								"type": "t_string_storage"
							},
							{
								"astId": 6,
								"contract": "ctiIncentiveDedupRegistry/ctiIncentiveDedupRegistry.sol:RegistCTI",
								"label": "tip",
								"offset": 0,
								"slot": "1",
								"type": "t_string_storage"
							},
							{
								"astId": 8,
								"contract": "ctiIncentiveDedupRegistry/ctiIncentiveDedupRegistry.sol:RegistCTI",
								"label": "register_time",
								"offset": 0,
								"slot": "2",
								"type": "t_uint256"
							},
							{
								"astId": 10,
								"contract": "ctiIncentiveDedupRegistry/ctiIncentiveDedupRegistry.sol:RegistCTI",
								"label": "producer_address",
								"offset": 0,
								"slot": "3",
								"type": "t_address"
							},
							{
								"astId": 12,
								"contract": "ctiIncentiveDedupRegistry/ctiIncentiveDedupRegistry.sol:RegistCTI",
								"label": "cti_hash",
								"offset": 0,
								"slot": "4",
								"type": "t_string_storage"
							},
							{
								"astId": 15,
								"contract": "ctiIncentiveDedupRegistry/ctiIncentiveDedupRegistry.sol:RegistCTI",
								"label": "tags",
								"offset": 0,
								"slot": "5",
								"type": "t_array(t_string_storage)dyn_storage"
							},
							{
								"astId": 17,
								"contract": "ctiIncentiveDedupRegistry/ctiIncentiveDedupRegistry.sol:RegistCTI",
								"label": "price",
								"offset": 0,
								"slot": "6",
								"type": "t_int256"
							},
							{
								"astId": 19,
								"contract": "ctiIncentiveDedupRegistry/ctiIncentiveDedupRegistry.sol:RegistCTI",
								"label": "ip",
								"offset": 0,
								"slot": "7",
								"type": "t_string_storage"
							},
							{
								"astId": 21,
								"contract": "ctiIncentiveDedupRegistry/ctiIncentiveDedupRegistry.sol:RegistCTI",
								"label": "threat_score",
								"offset": 0,
								"slot": "8",
								"type": "t_uint256"
							},
							{
								"astId": 24,
								"contract": "ctiIncentiveDedupRegistry/ctiIncentiveDedupRegistry.sol:RegistCTI",
								"label": "iocs",
								"offset": 0,
								"slot": "9",
								"type": "t_array(t_string_storage)dyn_storage"
							},
							{
								"astId": 26,
								"contract": "ctiIncentiveDedupRegistry/ctiIncentiveDedupRegistry.sol:RegistCTI",
								"label": "confidence",
								"offset": 0,
								"slot": "10",
								"type": "t_int256"
							},
							{
								"astId": 28,
								"contract": "ctiIncentiveDedupRegistry/ctiIncentiveDedupRegistry.sol:RegistCTI",
								"label": "consumption_count",
								"offset": 0,
								"slot": "11",
								"type": "t_int256"
							},
							{
								"astId": 30,
								"contract": "ctiIncentiveDedupRegistry/ctiIncentiveDedupRegistry.sol:RegistCTI",
								"label": "transaction_value",
								"offset": 0,
								"slot": "12",
								"type": "t_int256"
							},
							{
								"astId": 32,
								"contract": "ctiIncentiveDedupRegistry/ctiIncentiveDedupRegistry.sol:RegistCTI",
								"label": "validation_count",
								"offset": 0,
								"slot": "13",
								"type": "t_int256"
							},
							{
								"astId": 34,
								"contract": "ctiIncentiveDedupRegistry/ctiIncentiveDedupRegistry.sol:RegistCTI",
								"label": "feedback_score",
								"offset": 0,
								"slot": "14",
								"type": "t_uint256"
							}
						],
						"numberOfBytes": "480"
					},
					"t_uint256": {
						"encoding": "inplace",
						"label": "uint256",
						"numberOfBytes": "32"
					}
				}
			},
			"userdoc": {
				"kind": "user",
				"methods": {
					"GetFeedbackStats(string)": {
						"notice": "获取某 CTI 的平均反馈分数和总评分次数"
					},
					"UpdateFeedbackScore(string,uint256)": {
						"notice": "消费者提交对情报的反馈评分（用于判断情报质量）"
					}
				},
				"version": 1
			}
		}
	}
}