{
	"ctiIncentiveDedupRegistry/ctiIncentiveDedupRegistry.sol": {
		"AssignmentContract": {
			"abi": [
				{
					"inputs": [
						{
							"internalType": "address payable",
							"name": "addr",
							"type": "address"
						}
					],
					"stateMutability": "nonpayable",
					"type": "constructor"
				},
				{
					"anonymous": false,
					"inputs": [
						{
							"indexed": false,
							"internalType": "string",
							"name": "txid",
							"type": "string"
						},
						{
							"indexed": false,
							"internalType": "address",
							"name": "consumer",
							"type": "address"
						},
						{
							"indexed": false,
							"internalType": "address",
							"name": "producer",
							"type": "address"
						},
						{
							"indexed": false,
							"internalType": "address",
							"name": "delegator",
							"type": "address"
						},
						{
							"indexed": false,
							"internalType": "uint256",
							"name": "consumerReward",
							"type": "uint256"
						},
						{
							"indexed": false,
							"internalType": "uint256",
							"name": "producerReward",
							"type": "uint256"
						},
						{
							"indexed": false,
							"internalType": "uint256",
							"name": "delegatorReward",
							"type": "uint256"
						}
					],
					"name": "CTIChecked",
					"type": "event"
				},
				{
					"anonymous": false,
					"inputs": [
						{
							"indexed": false,
							"internalType": "address",
							"name": "delegator_address",
							"type": "address"
						},
						{
							"indexed": false,
							"internalType": "string",
							"name": "txid",
							"type": "string"
						},
						{
							"indexed": false,
							"internalType": "uint256",
							"name": "pay",
							"type": "uint256"
						},
						{
							"indexed": false,
							"internalType": "string",
							"name": "pubkey",
							"type": "string"
						}
					],
					"name": "ConsumerAssignmentComing",
					"type": "event"
				},
				{
					"anonymous": false,
					"inputs": [
						{
							"indexed": false,
							"internalType": "address",
							"name": "consumer",
							"type": "address"
						},
						{
							"indexed": false,
							"internalType": "string",
							"name": "ipfshash",
							"type": "string"
						},
						{
							"indexed": false,
							"internalType": "string",
							"name": "txid",
							"type": "string"
						}
					],
					"name": "IPFSHashComing",
					"type": "event"
				},
				{
					"anonymous": false,
					"inputs": [
						{
							"indexed": false,
							"internalType": "address[]",
							"name": "addresses",
							"type": "address[]"
						},
						{
							"indexed": false,
							"internalType": "address",
							"name": "producer",
							"type": "address"
						},
						{
							"indexed": false,
							"internalType": "string",
							"name": "tid",
							"type": "string"
						},
						{
							"indexed": false,
							"internalType": "string",
							"name": "ipfshash",
							"type": "string"
						}
					],
					"name": "ProducerAssignmentComing",
					"type": "event"
				},
				{
					"inputs": [
						{
							"internalType": "string",
							"name": "txid",
							"type": "string"
						}
					],
					"name": "CheckCTI",
					"outputs": [],
					"stateMutability": "payable",
					"type": "function"
				},
				{
					"inputs": [
						{
							"internalType": "string",
							"name": "tid",
							"type": "string"
						},
						{
							"internalType": "string",
							"name": "txid",
							"type": "string"
						},
						{
							"internalType": "address",
							"name": "addr",
							"type": "address"
						},
						{
							"internalType": "string",
							"name": "pubkey",
							"type": "string"
						}
					],
					"name": "ConsumerSelectDelegator",
					"outputs": [],
					"stateMutability": "payable",
					"type": "function"
				},
				{
					"inputs": [
						{
							"internalType": "string",
							"name": "tid",
							"type": "string"
						}
					],
					"name": "GetAssignmentVerified",
					"outputs": [
						{
							"internalType": "address[]",
							"name": "",
							"type": "address[]"
						}
					],
					"stateMutability": "view",
					"type": "function"
				},
				{
					"inputs": [
						{
							"internalType": "string",
							"name": "tid",
							"type": "string"
						},
						{
							"internalType": "address[]",
							"name": "delegators_address",
							"type": "address[]"
						},
						{
							"internalType": "uint256",
							"name": "price",
							"type": "uint256"
						},
						{
							"internalType": "uint256",
							"name": "producer_price",
							"type": "uint256"
						},
						{
							"internalType": "uint256",
							"name": "delegator_price",
							"type": "uint256"
						},
						{
							"internalType": "string",
							"name": "ipfsHash",
							"type": "string"
						}
					],
					"name": "ProducerSelectDelegator",
					"outputs": [
						{
							"internalType": "bool",
							"name": "",
							"type": "bool"
						}
					],
					"stateMutability": "nonpayable",
					"type": "function"
				},
				{
					"inputs": [
						{
							"internalType": "string",
							"name": "ipfshash",
							"type": "string"
						},
						{
							"internalType": "address",
							"name": "consumer",
							"type": "address"
						},
						{
							"internalType": "string",
							"name": "txid",
							"type": "string"
						}
					],
					"name": "UploadCTI",
					"outputs": [],
					"stateMutability": "nonpayable",
					"type": "function"
				},
				{
					"inputs": [
						{
							"internalType": "string",
							"name": "tid",
							"type": "string"
						},
						{
							"internalType": "bool",
							"name": "opt",
							"type": "bool"
						}
					],
					"name": "VerifyAssignment",
					"outputs": [
						{
							"internalType": "bool",
							"name": "",
							"type": "bool"
						}
					],
					"stateMutability": "nonpayable",
					"type": "function"
				},
				{
					"inputs": [
						{
							"internalType": "string",
							"name": "txid",
							"type": "string"
						},
						{
							"internalType": "string",
							"name": "name",
							"type": "string"
						},
						{
							"internalType": "string",
							"name": "pubkey",
							"type": "string"
						}
					],
					"name": "consumerUpgrade",
					"outputs": [],
					"stateMutability": "payable",
					"type": "function"
				},
				{
					"inputs": [
						{
							"internalType": "address",
							"name": "user",
							"type": "address"
						}
					],
					"name": "getPoints",
					"outputs": [
						{
							"internalType": "uint256",
							"name": "",
							"type": "uint256"
						}
					],
					"stateMutability": "view",
					"type": "function"
				},
				{
					"inputs": [],
					"name": "maxDiscountPercent",
					"outputs": [
						{
							"internalType": "uint256",
							"name": "",
							"type": "uint256"
						}
					],
					"stateMutability": "view",
					"type": "function"
				},
				{
					"inputs": [],
					"name": "pointValueInWei",
					"outputs": [
						{
							"internalType": "uint256",
							"name": "",
							"type": "uint256"
						}
					],
					"stateMutability": "view",
					"type": "function"
				},
				{
					"inputs": [
						{
							"internalType": "address",
							"name": "",
							"type": "address"
						}
					],
					"name": "points",
					"outputs": [
						{
							"internalType": "uint256",
							"name": "",
							"type": "uint256"
						}
					],
					"stateMutability": "view",
					"type": "function"
				},
				{
					"inputs": [
						{
							"internalType": "uint256",
							"name": "val",
							"type": "uint256"
						}
					],
					"name": "setMaxDiscountPercent",
					"outputs": [],
					"stateMutability": "nonpayable",
					"type": "function"
				},
				{
					"inputs": [
						{
							"internalType": "uint256",
							"name": "val",
							"type": "uint256"
						}
					],
					"name": "setPointValueInWei",
					"outputs": [],
					"stateMutability": "nonpayable",
					"type": "function"
				},
				{
					"inputs": [
						{
							"internalType": "string",
							"name": "",
							"type": "string"
						}
					],
					"name": "tx_list",
					"outputs": [
						{
							"internalType": "string",
							"name": "tid",
							"type": "string"
						},
						{
							"internalType": "string",
							"name": "txid",
							"type": "string"
						},
						{
							"internalType": "address",
							"name": "producer",
							"type": "address"
						},
						{
							"internalType": "address",
							"name": "delegator",
							"type": "address"
						},
						{
							"internalType": "address",
							"name": "consumer",
							"type": "address"
						},
						{
							"internalType": "uint256",
							"name": "price",
							"type": "uint256"
						},
						{
							"internalType": "uint256",
							"name": "producer_price",
							"type": "uint256"
						},
						{
							"internalType": "uint256",
							"name": "delegator_price",
							"type": "uint256"
						},
						{
							"internalType": "int256",
							"name": "status",
							"type": "int256"
						}
					],
					"stateMutability": "view",
					"type": "function"
				}
			],
			"devdoc": {
				"kind": "dev",
				"methods": {},
				"version": 1
			},
			"evm": {
				"assembly": "    /* \"ctiIncentiveDedupRegistry/ctiIncentiveDedupRegistry.sol\":7667:14922  contract AssignmentContract {... */\n  0x80\n  jumpi(tag_7, callvalue)\n  0x1f\n  bytecodeSize\n  codesize\n  dup2\n  swap1\n  sub\n  swap2\n  dup3\n  add\n  not(0x1f)\n  and\n  dup4\n  add\n  swap2\n  sub(shl(0x40, 0x01), 0x01)\n  dup4\n  gt\n  dup5\n  dup5\n  lt\n  or\n  tag_3\n  jumpi\n  dup1\n  dup5\n  swap3\n  0x20\n  swap5\n  0x40\n  mstore\n  dup4\n  codecopy\n  dup2\n  add\n  sub\n  slt\n  tag_7\n  jumpi\n  mload\n  sub(shl(0xa0, 0x01), 0x01)\n  dup2\n  and\n  swap1\n  dup2\n  swap1\n  sub\n  tag_7\n  jumpi\n    /* \"ctiIncentiveDedupRegistry/ctiIncentiveDedupRegistry.sol\":8990:8992  20 */\n  0x14\n  0x05\n    /* \"ctiIncentiveDedupRegistry/ctiIncentiveDedupRegistry.sol\":7667:14922  contract AssignmentContract {... */\n  sstore\n    /* \"ctiIncentiveDedupRegistry/ctiIncentiveDedupRegistry.sol\":9061:9065  2e15 */\n  0x071afd498d0000\n  0x06\n    /* \"ctiIncentiveDedupRegistry/ctiIncentiveDedupRegistry.sol\":7667:14922  contract AssignmentContract {... */\n  sstore\n  0x00\n  dup1\n  sload\n  not(sub(shl(0xa0, 0x01), 0x01))\n  and\n  swap2\n  swap1\n  swap2\n  or\n  swap1\n  sstore\n  mload(0x40)\n  dataSize(sub_0)\n  swap1\n  dup2\n  dataOffset(sub_0)\n  dup3\n  codecopy\n  return\ntag_7:\n  0x00\n  dup1\n  revert\ntag_3:\n  mstore(0x00, shl(0xe0, 0x4e487b71))\n  mstore(0x04, 0x41)\n  revert(0x00, 0x24)\nstop\n\nsub_0: assembly {\n        /* \"ctiIncentiveDedupRegistry/ctiIncentiveDedupRegistry.sol\":7667:14922  contract AssignmentContract {... */\n      0x80\n      dup1\n      0x40\n      mstore\n      jumpi(tag_24, iszero(lt(calldatasize, 0x04)))\n      0x00\n      dup1\n      revert\n    tag_24:\n      shr(0xe0, calldataload(0x00))\n      swap1\n      dup2\n      0x022a6089\n      eq\n      tag_26\n      jumpi\n      pop\n      dup1\n      0x358b8166\n      eq\n      tag_48\n      jumpi\n      dup1\n      0x82da59f2\n      eq\n      tag_30\n      jumpi\n      dup1\n      0x83cf6c95\n      eq\n      tag_32\n      jumpi\n      dup1\n      0x9461a963\n      eq\n      tag_34\n      jumpi\n      dup1\n      0xb3a1c864\n      eq\n      tag_36\n      jumpi\n      dup1\n      0xcf99f51d\n      eq\n      tag_38\n      jumpi\n      dup1\n      0xd0b13a62\n      eq\n      tag_40\n      jumpi\n      dup1\n      0xdc7e701e\n      eq\n      tag_42\n      jumpi\n      dup1\n      0xe2599078\n      eq\n      tag_44\n      jumpi\n      dup1\n      0xea7937c2\n      eq\n      tag_46\n      jumpi\n      dup1\n      0xee204abb\n      eq\n      tag_48\n      jumpi\n      dup1\n      0xf26d9918\n      eq\n      tag_50\n      jumpi\n      0xfa4a3287\n      eq\n      tag_52\n      jumpi\n      0x00\n      dup1\n      revert\n    tag_52:\n      jumpi(tag_63, callvalue)\n      jumpi(tag_63, slt(add(not(0x03), calldatasize), 0x60))\n      calldataload(0x04)\n      sub(shl(0x40, 0x01), 0x01)\n      dup2\n      gt\n      tag_63\n      jumpi\n      tag_60\n      swap1\n      calldatasize\n      swap1\n      0x04\n      add\n      tag_3\n      jump\t// in\n    tag_60:\n      calldataload(0x24)\n      sub(shl(0xa0, 0x01), 0x01)\n      dup2\n      and\n      swap1\n      dup2\n      swap1\n      sub\n      tag_63\n      jumpi\n      calldataload(0x44)\n      sub(shl(0x40, 0x01), 0x01)\n      dup2\n      gt\n      tag_63\n      jumpi\n        /* \"ctiIncentiveDedupRegistry/ctiIncentiveDedupRegistry.sol\":12337:12375  IPFSHashComing(consumer,ipfshash,txid) */\n      0x696776fbada6026b2cc4883473b601f70eed8609668c456c07681055dca814f0\n        /* \"ctiIncentiveDedupRegistry/ctiIncentiveDedupRegistry.sol\":7667:14922  contract AssignmentContract {... */\n      swap4\n      tag_65\n      tag_66\n      tag_67\n      swap4\n      calldatasize\n      swap1\n      0x04\n      add\n      tag_3\n      jump\t// in\n    tag_66:\n      swap2\n      swap1\n      swap3\n      mload(0x40)\n      swap7\n      dup8\n      swap7\n      dup8\n      mstore\n      0x60\n      0x20\n      dup9\n      add\n      mstore\n      0x60\n      dup8\n      add\n      swap2\n      tag_14\n      jump\t// in\n    tag_65:\n      swap2\n      dup5\n      dup4\n      sub\n      0x40\n      dup7\n      add\n      mstore\n      tag_14\n      jump\t// in\n    tag_67:\n        /* \"ctiIncentiveDedupRegistry/ctiIncentiveDedupRegistry.sol\":12337:12375  IPFSHashComing(consumer,ipfshash,txid) */\n      sub\n      swap1\n      log1\n        /* \"ctiIncentiveDedupRegistry/ctiIncentiveDedupRegistry.sol\":7667:14922  contract AssignmentContract {... */\n      stop\n    tag_63:\n      0x00\n      dup1\n      revert\n    tag_50:\n      jumpi(tag_63, callvalue)\n      jumpi(tag_63, slt(add(not(0x03), calldatasize), 0x40))\n      calldataload(0x04)\n      sub(shl(0x40, 0x01), 0x01)\n      dup2\n      gt\n      tag_63\n      jumpi\n      tag_74\n      swap1\n      calldatasize\n      swap1\n      0x04\n      add\n      tag_3\n      jump\t// in\n    tag_74:\n      swap1\n      calldataload(0x24)\n      dup1\n      iszero\n      iszero\n      dup2\n      sub\n      tag_63\n      jumpi\n      0x20\n      swap3\n      tag_77\n      swap3\n      tag_22\n      jump\t// in\n    tag_77:\n      mload(0x40)\n      swap1\n      iszero\n      iszero\n      dup2\n      mstore\n      return\n    tag_48:\n      jumpi(tag_63, callvalue)\n      jumpi(tag_63, slt(add(not(0x03), calldatasize), 0x20))\n      sub(shl(0xa0, 0x01), 0x01)\n      tag_82\n      tag_1\n      jump\t// in\n    tag_82:\n      and\n      0x00\n      mstore\n        /* \"ctiIncentiveDedupRegistry/ctiIncentiveDedupRegistry.sol\":9724:9730  points */\n      0x01\n        /* \"ctiIncentiveDedupRegistry/ctiIncentiveDedupRegistry.sol\":7667:14922  contract AssignmentContract {... */\n      0x20\n      mstore\n      0x20\n      sload(keccak256(0x00, 0x40))\n      mload(0x40)\n      swap1\n      dup2\n      mstore\n      return\n    tag_46:\n      jumpi(tag_63, slt(add(not(0x03), calldatasize), 0x60))\n      calldataload(0x04)\n      sub(shl(0x40, 0x01), 0x01)\n      dup2\n      gt\n      tag_63\n      jumpi\n      tag_87\n      swap1\n      calldatasize\n      swap1\n      0x04\n      add\n      tag_3\n      jump\t// in\n    tag_87:\n      calldataload(0x24)\n      sub(shl(0x40, 0x01), 0x01)\n      dup2\n      gt\n      tag_63\n      jumpi\n      tag_90\n      swap1\n      calldatasize\n      swap1\n      0x04\n      add\n      tag_3\n      jump\t// in\n    tag_90:\n      calldataload(0x44)\n      swap4\n      swap2\n      sub(shl(0x40, 0x01), 0x01)\n      dup6\n      gt\n      tag_63\n      jumpi\n      tag_93\n      tag_94\n      swap6\n      calldatasize\n      swap1\n      0x04\n      add\n      tag_3\n      jump\t// in\n    tag_93:\n      swap5\n      swap1\n      swap4\n      tag_21\n      jump\t// in\n    tag_94:\n      stop\n    tag_44:\n      jumpi(tag_63, callvalue)\n      jumpi(tag_63, slt(add(not(0x03), calldatasize), 0x20))\n      calldataload(0x04)\n      sub(shl(0x40, 0x01), 0x01)\n      dup2\n      gt\n      tag_63\n      jumpi\n      0x20\n      tag_101\n      tag_102\n      swap3\n      calldatasize\n      swap1\n      0x04\n      add\n      tag_3\n      jump\t// in\n    tag_101:\n      swap2\n      swap1\n      dup3\n      mload(0x40)\n      swap4\n      dup5\n      swap3\n      dup4\n      calldatacopy\n      dup2\n      add\n        /* \"ctiIncentiveDedupRegistry/ctiIncentiveDedupRegistry.sol\":14345:14351  record */\n      0x02\n        /* \"ctiIncentiveDedupRegistry/ctiIncentiveDedupRegistry.sol\":7667:14922  contract AssignmentContract {... */\n      dup2\n      mstore\n      sub\n      add\n      swap1\n      keccak256\n      tag_16\n      jump\t// in\n    tag_102:\n      mload(0x40)\n      dup1\n      swap2\n      0x20\n      dup3\n      add\n      0x20\n      dup4\n      mstore\n      dup2\n      mload\n      dup1\n      swap2\n      mstore\n      0x20\n      0x40\n      dup5\n      add\n      swap3\n      add\n      swap1\n      0x00\n    tag_103:\n      dup2\n      dup2\n      lt\n      tag_104\n      jumpi\n      pop\n      pop\n      pop\n      sub\n      swap1\n      return\n    tag_104:\n      dup3\n      mload\n      sub(shl(0xa0, 0x01), 0x01)\n      and\n      dup5\n      mstore\n      dup6\n      swap5\n      pop\n      0x20\n      swap4\n      dup5\n      add\n      swap4\n      swap1\n      swap3\n      add\n      swap2\n      0x01\n      add\n      jump(tag_103)\n    tag_42:\n      jumpi(tag_63, slt(add(not(0x03), calldatasize), 0x20))\n      calldataload(0x04)\n      sub(shl(0x40, 0x01), 0x01)\n      dup2\n      gt\n      tag_63\n      jumpi\n      tag_110\n      tag_94\n      swap2\n      calldatasize\n      swap1\n      0x04\n      add\n      tag_3\n      jump\t// in\n    tag_110:\n      swap1\n      tag_19\n      jump\t// in\n    tag_40:\n      jumpi(tag_63, callvalue)\n      jumpi(tag_63, slt(add(not(0x03), calldatasize), 0x00))\n      0x20\n        /* \"ctiIncentiveDedupRegistry/ctiIncentiveDedupRegistry.sol\":8957:8992  uint public maxDiscountPercent = 20 */\n      0x05\n        /* \"ctiIncentiveDedupRegistry/ctiIncentiveDedupRegistry.sol\":7667:14922  contract AssignmentContract {... */\n      sload\n      mload(0x40)\n      swap1\n      dup2\n      mstore\n      return\n    tag_38:\n      jumpi(tag_63, callvalue)\n      jumpi(tag_63, slt(add(not(0x03), calldatasize), 0x20))\n      calldataload(0x04)\n      sub(shl(0x40, 0x01), 0x01)\n      dup2\n      gt\n      tag_63\n      jumpi\n      0x20\n      dup1\n      tag_122\n      tag_123\n      swap4\n      calldatasize\n      swap1\n      0x04\n      add\n      tag_8\n      jump\t// in\n    tag_122:\n      mload(0x40)\n      swap3\n      dup2\n      dup5\n      swap3\n      mload\n      swap2\n      dup3\n      swap2\n      add\n      dup4\n      mcopy\n      dup2\n      add\n      0x04\n      dup2\n      mstore\n      sub\n      add\n      swap1\n      keccak256\n        /* \"ctiIncentiveDedupRegistry/ctiIncentiveDedupRegistry.sol\":8885:8930  mapping(string => transaction) public tx_list */\n      tag_124\n      dup2\n      tag_10\n      jump\t// in\n    tag_124:\n      swap1\n      tag_125\n      0x01\n      dup3\n      add\n      tag_10\n      jump\t// in\n    tag_125:\n        /* \"ctiIncentiveDedupRegistry/ctiIncentiveDedupRegistry.sol\":7667:14922  contract AssignmentContract {... */\n      0x01\n      dup1\n      0xa0\n      shl\n      sub\n        /* \"ctiIncentiveDedupRegistry/ctiIncentiveDedupRegistry.sol\":8885:8930  mapping(string => transaction) public tx_list */\n      0x02\n      dup4\n      add\n        /* \"ctiIncentiveDedupRegistry/ctiIncentiveDedupRegistry.sol\":7667:14922  contract AssignmentContract {... */\n      sload\n      and\n      swap2\n      0x01\n      dup1\n      0xa0\n      shl\n      sub\n        /* \"ctiIncentiveDedupRegistry/ctiIncentiveDedupRegistry.sol\":8885:8930  mapping(string => transaction) public tx_list */\n      0x03\n      dup3\n      add\n        /* \"ctiIncentiveDedupRegistry/ctiIncentiveDedupRegistry.sol\":7667:14922  contract AssignmentContract {... */\n      sload\n      and\n      0x01\n      dup1\n      0xa0\n      shl\n      sub\n      0x04\n        /* \"ctiIncentiveDedupRegistry/ctiIncentiveDedupRegistry.sol\":8885:8930  mapping(string => transaction) public tx_list */\n      dup4\n      add\n        /* \"ctiIncentiveDedupRegistry/ctiIncentiveDedupRegistry.sol\":7667:14922  contract AssignmentContract {... */\n      sload\n      and\n        /* \"ctiIncentiveDedupRegistry/ctiIncentiveDedupRegistry.sol\":8885:8930  mapping(string => transaction) public tx_list */\n      0x05\n      dup4\n      add\n        /* \"ctiIncentiveDedupRegistry/ctiIncentiveDedupRegistry.sol\":7667:14922  contract AssignmentContract {... */\n      sload\n        /* \"ctiIncentiveDedupRegistry/ctiIncentiveDedupRegistry.sol\":8885:8930  mapping(string => transaction) public tx_list */\n      swap1\n      0x06\n      dup5\n      add\n        /* \"ctiIncentiveDedupRegistry/ctiIncentiveDedupRegistry.sol\":7667:14922  contract AssignmentContract {... */\n      sload\n        /* \"ctiIncentiveDedupRegistry/ctiIncentiveDedupRegistry.sol\":8885:8930  mapping(string => transaction) public tx_list */\n      swap3\n        /* \"ctiIncentiveDedupRegistry/ctiIncentiveDedupRegistry.sol\":7667:14922  contract AssignmentContract {... */\n      tag_126\n        /* \"ctiIncentiveDedupRegistry/ctiIncentiveDedupRegistry.sol\":8885:8930  mapping(string => transaction) public tx_list */\n      0x08\n      0x07\n      dup8\n      add\n        /* \"ctiIncentiveDedupRegistry/ctiIncentiveDedupRegistry.sol\":7667:14922  contract AssignmentContract {... */\n      sload\n        /* \"ctiIncentiveDedupRegistry/ctiIncentiveDedupRegistry.sol\":8885:8930  mapping(string => transaction) public tx_list */\n      swap7\n      add\n        /* \"ctiIncentiveDedupRegistry/ctiIncentiveDedupRegistry.sol\":7667:14922  contract AssignmentContract {... */\n      sload\n      swap7\n      mload(0x40)\n      swap11\n      dup12\n      swap11\n      0x0120\n      dup13\n      mstore\n      0x0120\n      dup13\n      add\n      swap1\n      tag_11\n      jump\t// in\n    tag_123:\n      swap1\n      dup11\n      dup3\n      sub\n      0x20\n      dup13\n      add\n      mstore\n      tag_11\n      jump\t// in\n    tag_126:\n      swap7\n      0x40\n      dup10\n      add\n      mstore\n      0x60\n      dup9\n      add\n      mstore\n      0x80\n      dup8\n      add\n      mstore\n      0xa0\n      dup7\n      add\n      mstore\n      0xc0\n      dup6\n      add\n      mstore\n      0xe0\n      dup5\n      add\n      mstore\n      0x0100\n      dup4\n      add\n      mstore\n      sub\n      swap1\n      return\n    tag_36:\n      jumpi(tag_63, slt(add(not(0x03), calldatasize), 0x80))\n      calldataload(0x04)\n      sub(shl(0x40, 0x01), 0x01)\n      dup2\n      gt\n      tag_63\n      jumpi\n      tag_131\n      swap1\n      calldatasize\n      swap1\n      0x04\n      add\n      tag_8\n      jump\t// in\n    tag_131:\n      calldataload(0x24)\n      sub(shl(0x40, 0x01), 0x01)\n      dup2\n      gt\n      tag_63\n      jumpi\n      tag_134\n      swap1\n      calldatasize\n      swap1\n      0x04\n      add\n      tag_8\n      jump\t// in\n    tag_134:\n      calldataload(0x44)\n      swap2\n      sub(shl(0xa0, 0x01), 0x01)\n      dup4\n      and\n      dup4\n      sub\n      tag_63\n      jumpi\n      calldataload(0x64)\n      swap3\n      sub(shl(0x40, 0x01), 0x01)\n      dup5\n      gt\n      tag_63\n      jumpi\n      tag_139\n      tag_94\n      swap5\n      calldatasize\n      swap1\n      0x04\n      add\n      tag_3\n      jump\t// in\n    tag_139:\n      swap4\n      swap1\n      swap3\n      tag_18\n      jump\t// in\n    tag_34:\n      jumpi(tag_63, callvalue)\n      jumpi(tag_63, slt(add(not(0x03), calldatasize), 0x20))\n      calldataload(0x04)\n        /* \"ctiIncentiveDedupRegistry/ctiIncentiveDedupRegistry.sol\":10480:10483  100 */\n      0x64\n        /* \"ctiIncentiveDedupRegistry/ctiIncentiveDedupRegistry.sol\":10473:10483  val <= 100 */\n      dup2\n      gt\n        /* \"ctiIncentiveDedupRegistry/ctiIncentiveDedupRegistry.sol\":7667:14922  contract AssignmentContract {... */\n      tag_145\n      jumpi\n        /* \"ctiIncentiveDedupRegistry/ctiIncentiveDedupRegistry.sol\":10506:10530  maxDiscountPercent = val */\n      0x05\n        /* \"ctiIncentiveDedupRegistry/ctiIncentiveDedupRegistry.sol\":7667:14922  contract AssignmentContract {... */\n      sstore\n      stop\n    tag_145:\n      mload(0x40)\n      shl(0xe5, 0x461bcd)\n      dup2\n      mstore\n      0x20\n      0x04\n      dup3\n      add\n      mstore\n      0x08\n      0x24\n      dup3\n      add\n      mstore\n      shl(0xc3, 0x0a8dede40d0d2ced)\n      0x44\n      dup3\n      add\n      mstore\n        /* \"ctiIncentiveDedupRegistry/ctiIncentiveDedupRegistry.sol\":10480:10483  100 */\n      0x64\n      swap1\n        /* \"ctiIncentiveDedupRegistry/ctiIncentiveDedupRegistry.sol\":7667:14922  contract AssignmentContract {... */\n      revert\n    tag_32:\n      jumpi(tag_63, callvalue)\n      jumpi(tag_63, slt(add(not(0x03), calldatasize), 0x20))\n      calldataload(0x04)\n        /* \"ctiIncentiveDedupRegistry/ctiIncentiveDedupRegistry.sol\":10606:10613  val > 0 */\n      dup1\n      iszero\n        /* \"ctiIncentiveDedupRegistry/ctiIncentiveDedupRegistry.sol\":7667:14922  contract AssignmentContract {... */\n      tag_151\n      jumpi\n        /* \"ctiIncentiveDedupRegistry/ctiIncentiveDedupRegistry.sol\":10635:10656  pointValueInWei = val */\n      0x06\n        /* \"ctiIncentiveDedupRegistry/ctiIncentiveDedupRegistry.sol\":7667:14922  contract AssignmentContract {... */\n      sstore\n      stop\n    tag_151:\n      mload(0x40)\n      shl(0xe5, 0x461bcd)\n      dup2\n      mstore\n      0x20\n      0x04\n      dup3\n      add\n      mstore\n      0x07\n      0x24\n      dup3\n      add\n      mstore\n      shl(0xca, 0x125b9d985b1a59)\n      0x44\n      dup3\n      add\n      mstore\n      0x64\n      swap1\n      revert\n    tag_30:\n      jumpi(tag_63, callvalue)\n      jumpi(tag_63, slt(add(not(0x03), calldatasize), 0xc0))\n      calldataload(0x04)\n      sub(shl(0x40, 0x01), 0x01)\n      dup2\n      gt\n      tag_63\n      jumpi\n      tag_159\n      swap1\n      calldatasize\n      swap1\n      0x04\n      add\n      tag_3\n      jump\t// in\n    tag_159:\n      swap1\n      calldataload(0x24)\n      sub(shl(0x40, 0x01), 0x01)\n      dup2\n      gt\n      tag_63\n      jumpi\n      calldatasize\n      0x23\n      dup3\n      add\n      slt\n      iszero\n      tag_63\n      jumpi\n      dup1\n      0x04\n      add\n      calldataload\n      sub(shl(0x40, 0x01), 0x01)\n      dup2\n      gt\n      tag_63\n      jumpi\n      calldatasize\n      0x24\n      dup3\n      0x05\n      shl\n      dup5\n      add\n      add\n      gt\n      tag_63\n      jumpi\n      calldataload(0xa4)\n      swap3\n      sub(shl(0x40, 0x01), 0x01)\n      dup5\n      gt\n      tag_63\n      jumpi\n      0x20\n      swap5\n      tag_170\n      tag_77\n      swap6\n      calldatasize\n      swap1\n      0x04\n      add\n      tag_3\n      jump\t// in\n    tag_170:\n      swap5\n      swap1\n      swap4\n      calldataload(0x84)\n      swap4\n      calldataload(0x64)\n      swap4\n      0x24\n      calldataload(0x44)\n      swap5\n      add\n      swap2\n      tag_15\n      jump\t// in\n    tag_26:\n      jumpi(tag_63, callvalue)\n      jumpi(tag_63, slt(add(not(0x03), calldatasize), 0x00))\n      0x20\n      swap1\n        /* \"ctiIncentiveDedupRegistry/ctiIncentiveDedupRegistry.sol\":9031:9065  uint public pointValueInWei = 2e15 */\n      0x06\n        /* \"ctiIncentiveDedupRegistry/ctiIncentiveDedupRegistry.sol\":7667:14922  contract AssignmentContract {... */\n      sload\n      dup2\n      mstore\n      return\n    tag_1:\n      calldataload(0x04)\n      swap1\n      sub(shl(0xa0, 0x01), 0x01)\n      dup3\n      and\n      dup3\n      sub\n      tag_63\n      jumpi\n      jump\t// out\n    tag_2:\n      calldataload\n      swap1\n      sub(shl(0xa0, 0x01), 0x01)\n      dup3\n      and\n      dup3\n      sub\n      tag_63\n      jumpi\n      jump\t// out\n    tag_3:\n      swap2\n      dup2\n      0x1f\n      dup5\n      add\n      slt\n      iszero\n      tag_63\n      jumpi\n      dup3\n      calldataload\n      swap2\n      sub(shl(0x40, 0x01), 0x01)\n      dup4\n      gt\n      tag_63\n      jumpi\n      0x20\n      dup4\n      dup2\n      dup7\n      add\n      swap6\n      add\n      add\n      gt\n      tag_63\n      jumpi\n      jump\t// out\n    tag_4:\n      0xe0\n      dup2\n      add\n      swap1\n      dup2\n      lt\n      sub(shl(0x40, 0x01), 0x01)\n      dup3\n      gt\n      or\n      tag_191\n      jumpi\n      0x40\n      mstore\n      jump\t// out\n    tag_191:\n      mstore(0x00, shl(0xe0, 0x4e487b71))\n      mstore(0x04, 0x41)\n      revert(0x00, 0x24)\n    tag_5:\n      0x0120\n      dup2\n      add\n      swap1\n      dup2\n      lt\n      sub(shl(0x40, 0x01), 0x01)\n      dup3\n      gt\n      or\n      tag_191\n      jumpi\n      0x40\n      mstore\n      jump\t// out\n    tag_6:\n      swap1\n      0x1f\n      dup1\n      not\n      swap2\n      add\n      and\n      dup2\n      add\n      swap1\n      dup2\n      lt\n      sub(shl(0x40, 0x01), 0x01)\n      dup3\n      gt\n      or\n      tag_191\n      jumpi\n      0x40\n      mstore\n      jump\t// out\n    tag_7:\n      swap3\n      swap2\n      swap3\n      sub(shl(0x40, 0x01), 0x01)\n      dup3\n      gt\n      tag_191\n      jumpi\n      mload(0x40)\n      swap2\n      tag_199\n      0x1f\n      dup3\n      add\n      not(0x1f)\n      and\n      0x20\n      add\n      dup5\n      tag_6\n      jump\t// in\n    tag_199:\n      dup3\n      swap5\n      dup2\n      dup5\n      mstore\n      dup2\n      dup4\n      add\n      gt\n      tag_63\n      jumpi\n      dup3\n      dup2\n      0x20\n      swap4\n      dup5\n      0x00\n      swap7\n      add\n      calldatacopy\n      add\n      add\n      mstore\n      jump\t// out\n    tag_8:\n      swap1\n      dup1\n      0x1f\n      dup4\n      add\n      slt\n      iszero\n      tag_63\n      jumpi\n      dup2\n      0x20\n      tag_204\n      swap4\n      calldataload\n      swap2\n      add\n      tag_7\n      jump\t// in\n    tag_204:\n      swap1\n      jump\t// out\n    tag_9:\n      swap1\n      0x01\n      dup3\n      dup2\n      shr\n      swap3\n      and\n      dup1\n      iszero\n      tag_205\n      jumpi\n    tag_206:\n      0x20\n      dup4\n      lt\n      eq\n      tag_207\n      jumpi\n      jump\t// out\n    tag_207:\n      mstore(0x00, shl(0xe0, 0x4e487b71))\n      mstore(0x04, 0x22)\n      revert(0x00, 0x24)\n    tag_205:\n      swap2\n      0x7f\n      and\n      swap2\n      jump(tag_206)\n    tag_10:\n      swap1\n      mload(0x40)\n      swap2\n      dup3\n      0x00\n      dup3\n      sload\n      swap3\n      tag_209\n      dup5\n      tag_9\n      jump\t// in\n    tag_209:\n      dup1\n      dup5\n      mstore\n      swap4\n      0x01\n      dup2\n      and\n      swap1\n      dup2\n      iszero\n      tag_210\n      jumpi\n      pop\n      0x01\n      eq\n      tag_212\n      jumpi\n    tag_213:\n      pop\n      tag_214\n      swap3\n      pop\n      sub\n      dup4\n      tag_6\n      jump\t// in\n    tag_214:\n      jump\t// out\n    tag_212:\n      swap1\n      pop\n      0x00\n      swap3\n      swap2\n      swap3\n      mstore\n      keccak256(0x00, 0x20)\n      swap1\n      0x00\n      swap2\n    tag_215:\n      dup2\n      dup4\n      lt\n      tag_216\n      jumpi\n      pop\n      pop\n      swap1\n      0x20\n      tag_214\n      swap3\n      dup3\n      add\n      add\n      0x00\n      jump(tag_213)\n    tag_216:\n      0x20\n      swap2\n      swap4\n      pop\n      dup1\n      0x01\n      swap2\n      sload\n      dup4\n      dup6\n      dup10\n      add\n      add\n      mstore\n      add\n      swap2\n      add\n      swap1\n      swap2\n      dup5\n      swap3\n      jump(tag_215)\n    tag_210:\n      swap1\n      pop\n      0x20\n      swap3\n      pop\n      tag_214\n      swap5\n      swap2\n      pop\n      not(0xff)\n      and\n      dup3\n      dup5\n      add\n      mstore\n      iszero\n      iszero\n      0x05\n      shl\n      dup3\n      add\n      add\n      0x00\n      jump(tag_213)\n    tag_11:\n      dup1\n      mload\n      dup1\n      dup4\n      mstore\n      0x20\n      swap3\n      swap2\n      dup2\n      swap1\n      dup5\n      add\n      dup5\n      dup5\n      add\n      mcopy\n      0x00\n      dup3\n      dup3\n      add\n      dup5\n      add\n      mstore\n      0x1f\n      add\n      not(0x1f)\n      and\n      add\n      add\n      swap1\n      jump\t// out\n    tag_12:\n      dup2\n      dup2\n      lt\n      tag_219\n      jumpi\n      pop\n      pop\n      jump\t// out\n    tag_219:\n      0x00\n      dup2\n      sstore\n      0x01\n      add\n      jump(tag_12)\n    tag_13:\n      dup2\n      dup2\n      mul\n      swap3\n      swap2\n      dup2\n      iszero\n      swap2\n      dup5\n      div\n      eq\n      or\n      iszero\n      tag_221\n      jumpi\n      jump\t// out\n    tag_221:\n      mstore(0x00, shl(0xe0, 0x4e487b71))\n      mstore(0x04, 0x11)\n      revert(0x00, 0x24)\n    tag_14:\n      swap1\n      dup1\n      0x20\n      swap4\n      swap3\n      dup2\n      dup5\n      mstore\n      dup5\n      dup5\n      add\n      calldatacopy\n      0x00\n      dup3\n      dup3\n      add\n      dup5\n      add\n      mstore\n      0x1f\n      add\n      not(0x1f)\n      and\n      add\n      add\n      swap1\n      jump\t// out\n        /* \"ctiIncentiveDedupRegistry/ctiIncentiveDedupRegistry.sol\":9780:10354  function ProducerSelectDelegator(... */\n    tag_15:\n      swap3\n      swap7\n      swap6\n      swap9\n      swap8\n      swap5\n      swap1\n      swap4\n      swap2\n      swap9\n        /* \"ctiIncentiveDedupRegistry/ctiIncentiveDedupRegistry.sol\":7667:14922  contract AssignmentContract {... */\n      dup1\n      dup3\n      add\n      dup1\n      dup4\n      gt\n      tag_221\n      jumpi\n        /* \"ctiIncentiveDedupRegistry/ctiIncentiveDedupRegistry.sol\":10044:10081  price!=producer_price+delegator_price */\n      dup4\n      sub\n        /* \"ctiIncentiveDedupRegistry/ctiIncentiveDedupRegistry.sol\":10040:10119  if (price!=producer_price+delegator_price){... */\n      tag_225\n      jumpi\n        /* \"ctiIncentiveDedupRegistry/ctiIncentiveDedupRegistry.sol\":7667:14922  contract AssignmentContract {... */\n      mload(0x40)\n      swap2\n      tag_227\n      dup4\n      tag_4\n      jump\t// in\n    tag_227:\n      tag_228\n      calldatasize\n      dup8\n      dup8\n      tag_7\n      jump\t// in\n    tag_228:\n      dup4\n      mstore\n        /* \"ctiIncentiveDedupRegistry/ctiIncentiveDedupRegistry.sol\":10149:10243  Assignment(tid,msg.sender, delegators_address, price,producer_price,delegator_price, ipfsHash) */\n      0x20\n      dup4\n      add\n        /* \"ctiIncentiveDedupRegistry/ctiIncentiveDedupRegistry.sol\":10164:10174  msg.sender */\n      swap4\n      caller\n        /* \"ctiIncentiveDedupRegistry/ctiIncentiveDedupRegistry.sol\":7667:14922  contract AssignmentContract {... */\n      dup6\n      mstore\n      sub(shl(0x40, 0x01), 0x01)\n      dup11\n      gt\n      tag_191\n      jumpi\n      dup10\n      0x05\n      shl\n      dup13\n      mload(0x40)\n      swap2\n      tag_231\n        /* \"ctiIncentiveDedupRegistry/ctiIncentiveDedupRegistry.sol\":10149:10243  Assignment(tid,msg.sender, delegators_address, price,producer_price,delegator_price, ipfsHash) */\n      0x20\n        /* \"ctiIncentiveDedupRegistry/ctiIncentiveDedupRegistry.sol\":7667:14922  contract AssignmentContract {... */\n      dup3\n      add\n      dup5\n      tag_6\n      jump\t// in\n    tag_231:\n      dup13\n      dup4\n      mstore\n      add\n        /* \"ctiIncentiveDedupRegistry/ctiIncentiveDedupRegistry.sol\":10149:10243  Assignment(tid,msg.sender, delegators_address, price,producer_price,delegator_price, ipfsHash) */\n      0x20\n        /* \"ctiIncentiveDedupRegistry/ctiIncentiveDedupRegistry.sol\":7667:14922  contract AssignmentContract {... */\n      dup3\n      add\n      calldatasize\n      dup3\n      gt\n      tag_63\n      jumpi\n      dup15\n      swap1\n    tag_234:\n      dup3\n      dup3\n      lt\n      tag_235\n      jumpi\n        /* \"ctiIncentiveDedupRegistry/ctiIncentiveDedupRegistry.sol\":10149:10243  Assignment(tid,msg.sender, delegators_address, price,producer_price,delegator_price, ipfsHash) */\n      pop\n      pop\n      pop\n        /* \"ctiIncentiveDedupRegistry/ctiIncentiveDedupRegistry.sol\":7667:14922  contract AssignmentContract {... */\n      0x40\n        /* \"ctiIncentiveDedupRegistry/ctiIncentiveDedupRegistry.sol\":10149:10243  Assignment(tid,msg.sender, delegators_address, price,producer_price,delegator_price, ipfsHash) */\n      dup6\n      add\n        /* \"ctiIncentiveDedupRegistry/ctiIncentiveDedupRegistry.sol\":7667:14922  contract AssignmentContract {... */\n      swap1\n      dup2\n      mstore\n        /* \"ctiIncentiveDedupRegistry/ctiIncentiveDedupRegistry.sol\":10149:10243  Assignment(tid,msg.sender, delegators_address, price,producer_price,delegator_price, ipfsHash) */\n      0x60\n      dup6\n      add\n        /* \"ctiIncentiveDedupRegistry/ctiIncentiveDedupRegistry.sol\":7667:14922  contract AssignmentContract {... */\n      swap2\n      dup3\n      mstore\n        /* \"ctiIncentiveDedupRegistry/ctiIncentiveDedupRegistry.sol\":10149:10243  Assignment(tid,msg.sender, delegators_address, price,producer_price,delegator_price, ipfsHash) */\n      0x80\n      dup6\n      add\n        /* \"ctiIncentiveDedupRegistry/ctiIncentiveDedupRegistry.sol\":7667:14922  contract AssignmentContract {... */\n      swap3\n      dup4\n      mstore\n        /* \"ctiIncentiveDedupRegistry/ctiIncentiveDedupRegistry.sol\":10149:10243  Assignment(tid,msg.sender, delegators_address, price,producer_price,delegator_price, ipfsHash) */\n      0xa0\n      dup6\n      add\n        /* \"ctiIncentiveDedupRegistry/ctiIncentiveDedupRegistry.sol\":7667:14922  contract AssignmentContract {... */\n      swap4\n      dup5\n      mstore\n      tag_237\n      calldatasize\n      dup11\n      dup13\n      tag_7\n      jump\t// in\n    tag_237:\n        /* \"ctiIncentiveDedupRegistry/ctiIncentiveDedupRegistry.sol\":10149:10243  Assignment(tid,msg.sender, delegators_address, price,producer_price,delegator_price, ipfsHash) */\n      swap6\n      0xc0\n      dup7\n      add\n        /* \"ctiIncentiveDedupRegistry/ctiIncentiveDedupRegistry.sol\":7667:14922  contract AssignmentContract {... */\n      swap7\n      dup8\n      mstore\n      mload(0x40)\n      dup10\n      dup10\n      dup3\n      calldatacopy\n        /* \"ctiIncentiveDedupRegistry/ctiIncentiveDedupRegistry.sol\":10149:10243  Assignment(tid,msg.sender, delegators_address, price,producer_price,delegator_price, ipfsHash) */\n      0x20\n        /* \"ctiIncentiveDedupRegistry/ctiIncentiveDedupRegistry.sol\":7667:14922  contract AssignmentContract {... */\n      dup2\n      dup12\n      dup2\n      add\n        /* \"ctiIncentiveDedupRegistry/ctiIncentiveDedupRegistry.sol\":10128:10143  assignment_list */\n      0x03\n        /* \"ctiIncentiveDedupRegistry/ctiIncentiveDedupRegistry.sol\":7667:14922  contract AssignmentContract {... */\n      dup2\n      mstore\n      sub\n      add\n      swap1\n      keccak256\n      swap6\n      mload\n      dup1\n      mload\n      swap1\n      sub(shl(0x40, 0x01), 0x01)\n      dup3\n      gt\n      tag_191\n      jumpi\n      dup2\n      swap1\n      tag_240\n      dup10\n      sload\n      tag_9\n      jump\t// in\n    tag_240:\n      0x1f\n      dup2\n      gt\n      tag_241\n      jumpi\n    tag_242:\n      pop\n        /* \"ctiIncentiveDedupRegistry/ctiIncentiveDedupRegistry.sol\":10149:10243  Assignment(tid,msg.sender, delegators_address, price,producer_price,delegator_price, ipfsHash) */\n      0x20\n        /* \"ctiIncentiveDedupRegistry/ctiIncentiveDedupRegistry.sol\":7667:14922  contract AssignmentContract {... */\n      swap1\n      0x1f\n      dup4\n      gt\n      0x01\n      eq\n      tag_243\n      jumpi\n      0x00\n      swap3\n      tag_245\n      jumpi\n    tag_246:\n      pop\n      pop\n      dup2\n      0x01\n      shl\n      swap2\n      not(0x00)\n      swap1\n        /* \"ctiIncentiveDedupRegistry/ctiIncentiveDedupRegistry.sol\":10128:10143  assignment_list */\n      0x03\n        /* \"ctiIncentiveDedupRegistry/ctiIncentiveDedupRegistry.sol\":7667:14922  contract AssignmentContract {... */\n      shl\n      shr\n      not\n      and\n      or\n      dup7\n      sstore\n    tag_247:\n      mload\n      0x01\n      dup7\n      add\n      dup1\n      sload\n      not(sub(shl(0xa0, 0x01), 0x01))\n      and\n      sub(shl(0xa0, 0x01), 0x01)\n      swap3\n      swap1\n      swap3\n      and\n      swap2\n      swap1\n      swap2\n      or\n      swap1\n      sstore\n      mload\n      dup1\n      mload\n      swap1\n      0x02\n      dup7\n      add\n      swap1\n      sub(shl(0x40, 0x01), 0x01)\n      dup4\n      gt\n      tag_191\n      jumpi\n      shl(0x40, 0x01)\n      dup4\n      gt\n      tag_191\n      jumpi\n        /* \"ctiIncentiveDedupRegistry/ctiIncentiveDedupRegistry.sol\":10149:10243  Assignment(tid,msg.sender, delegators_address, price,producer_price,delegator_price, ipfsHash) */\n      0x20\n        /* \"ctiIncentiveDedupRegistry/ctiIncentiveDedupRegistry.sol\":7667:14922  contract AssignmentContract {... */\n      swap1\n      dup3\n      sload\n      dup5\n      dup5\n      sstore\n      dup1\n      dup6\n      lt\n      tag_252\n      jumpi\n    tag_253:\n      pop\n      add\n      swap1\n      0x00\n      mstore\n        /* \"ctiIncentiveDedupRegistry/ctiIncentiveDedupRegistry.sol\":10149:10243  Assignment(tid,msg.sender, delegators_address, price,producer_price,delegator_price, ipfsHash) */\n      0x20\n        /* \"ctiIncentiveDedupRegistry/ctiIncentiveDedupRegistry.sol\":7667:14922  contract AssignmentContract {... */\n      0x00\n      keccak256\n      0x00\n    tag_254:\n      dup4\n      dup2\n      lt\n      tag_255\n      jumpi\n      pop\n      pop\n      pop\n      pop\n      swap1\n      0x06\n      swap4\n      swap3\n      swap2\n      mload\n        /* \"ctiIncentiveDedupRegistry/ctiIncentiveDedupRegistry.sol\":10128:10143  assignment_list */\n      0x03\n        /* \"ctiIncentiveDedupRegistry/ctiIncentiveDedupRegistry.sol\":7667:14922  contract AssignmentContract {... */\n      dup5\n      add\n      sstore\n      mload\n      0x04\n      dup4\n      add\n      sstore\n      mload\n      0x05\n      dup3\n      add\n      sstore\n      add\n      swap1\n      mload\n      dup1\n      mload\n      swap1\n      sub(shl(0x40, 0x01), 0x01)\n      dup3\n      gt\n      tag_191\n      jumpi\n      dup2\n      swap1\n      tag_259\n      dup5\n      sload\n      tag_9\n      jump\t// in\n    tag_259:\n      0x1f\n      dup2\n      gt\n      tag_260\n      jumpi\n    tag_261:\n      pop\n        /* \"ctiIncentiveDedupRegistry/ctiIncentiveDedupRegistry.sol\":10149:10243  Assignment(tid,msg.sender, delegators_address, price,producer_price,delegator_price, ipfsHash) */\n      0x20\n        /* \"ctiIncentiveDedupRegistry/ctiIncentiveDedupRegistry.sol\":7667:14922  contract AssignmentContract {... */\n      swap1\n      0x1f\n      dup4\n      gt\n      0x01\n      eq\n      tag_262\n      jumpi\n      0x00\n      swap3\n      tag_264\n      jumpi\n    tag_265:\n      pop\n      pop\n      dup2\n      0x01\n      shl\n      swap2\n      not(0x00)\n      swap1\n        /* \"ctiIncentiveDedupRegistry/ctiIncentiveDedupRegistry.sol\":10128:10143  assignment_list */\n      0x03\n        /* \"ctiIncentiveDedupRegistry/ctiIncentiveDedupRegistry.sol\":7667:14922  contract AssignmentContract {... */\n      shl\n      shr\n      not\n      and\n      or\n      swap1\n      sstore\n    tag_266:\n      mload(0x40)\n      swap5\n      dup1\n        /* \"ctiIncentiveDedupRegistry/ctiIncentiveDedupRegistry.sol\":10149:10243  Assignment(tid,msg.sender, delegators_address, price,producer_price,delegator_price, ipfsHash) */\n      0x80\n        /* \"ctiIncentiveDedupRegistry/ctiIncentiveDedupRegistry.sol\":7667:14922  contract AssignmentContract {... */\n      dup8\n      add\n        /* \"ctiIncentiveDedupRegistry/ctiIncentiveDedupRegistry.sol\":10149:10243  Assignment(tid,msg.sender, delegators_address, price,producer_price,delegator_price, ipfsHash) */\n      0x80\n        /* \"ctiIncentiveDedupRegistry/ctiIncentiveDedupRegistry.sol\":7667:14922  contract AssignmentContract {... */\n      dup9\n      mstore\n      mstore\n        /* \"ctiIncentiveDedupRegistry/ctiIncentiveDedupRegistry.sol\":10149:10243  Assignment(tid,msg.sender, delegators_address, price,producer_price,delegator_price, ipfsHash) */\n      0xa0\n        /* \"ctiIncentiveDedupRegistry/ctiIncentiveDedupRegistry.sol\":7667:14922  contract AssignmentContract {... */\n      dup7\n      add\n      swap8\n      swap1\n      0x00\n    tag_267:\n      dup2\n      dup2\n      lt\n      tag_268\n      jumpi\n        /* \"ctiIncentiveDedupRegistry/ctiIncentiveDedupRegistry.sol\":10164:10174  msg.sender */\n      pop\n      pop\n      pop\n      swap2\n        /* \"ctiIncentiveDedupRegistry/ctiIncentiveDedupRegistry.sol\":7667:14922  contract AssignmentContract {... */\n      tag_270\n        /* \"ctiIncentiveDedupRegistry/ctiIncentiveDedupRegistry.sol\":10258:10326  ProducerAssignmentComing(delegators_address,msg.sender,tid,ipfsHash) */\n      0xf52fcbc5cb218bae54b5dee4a14189098257cb16cc5649f3daeff8c73a56104d\n        /* \"ctiIncentiveDedupRegistry/ctiIncentiveDedupRegistry.sol\":10164:10174  msg.sender */\n      swap7\n      swap8\n      dup7\n      swap6\n      swap4\n        /* \"ctiIncentiveDedupRegistry/ctiIncentiveDedupRegistry.sol\":7667:14922  contract AssignmentContract {... */\n      tag_271\n        /* \"ctiIncentiveDedupRegistry/ctiIncentiveDedupRegistry.sol\":10164:10174  msg.sender */\n      swap6\n      caller\n        /* \"ctiIncentiveDedupRegistry/ctiIncentiveDedupRegistry.sol\":10149:10243  Assignment(tid,msg.sender, delegators_address, price,producer_price,delegator_price, ipfsHash) */\n      0x20\n        /* \"ctiIncentiveDedupRegistry/ctiIncentiveDedupRegistry.sol\":7667:14922  contract AssignmentContract {... */\n      dup10\n      add\n      mstore\n      dup8\n      dup4\n      sub\n      0x40\n      dup10\n      add\n      mstore\n      tag_14\n      jump\t// in\n    tag_270:\n      swap2\n      dup5\n      dup4\n      sub\n        /* \"ctiIncentiveDedupRegistry/ctiIncentiveDedupRegistry.sol\":10149:10243  Assignment(tid,msg.sender, delegators_address, price,producer_price,delegator_price, ipfsHash) */\n      0x60\n        /* \"ctiIncentiveDedupRegistry/ctiIncentiveDedupRegistry.sol\":7667:14922  contract AssignmentContract {... */\n      dup7\n      add\n      mstore\n      tag_14\n      jump\t// in\n    tag_271:\n        /* \"ctiIncentiveDedupRegistry/ctiIncentiveDedupRegistry.sol\":10258:10326  ProducerAssignmentComing(delegators_address,msg.sender,tid,ipfsHash) */\n      sub\n      swap1\n      log1\n        /* \"ctiIncentiveDedupRegistry/ctiIncentiveDedupRegistry.sol\":7667:14922  contract AssignmentContract {... */\n      0x01\n        /* \"ctiIncentiveDedupRegistry/ctiIncentiveDedupRegistry.sol\":9780:10354  function ProducerSelectDelegator(... */\n      swap1\n      jump\t// out\n        /* \"ctiIncentiveDedupRegistry/ctiIncentiveDedupRegistry.sol\":7667:14922  contract AssignmentContract {... */\n    tag_268:\n      swap2\n      swap9\n      swap1\n      swap2\n      swap1\n      0x01\n      swap1\n        /* \"ctiIncentiveDedupRegistry/ctiIncentiveDedupRegistry.sol\":10149:10243  Assignment(tid,msg.sender, delegators_address, price,producer_price,delegator_price, ipfsHash) */\n      0x20\n      swap1\n      dup2\n      swap1\n      sub(shl(0xa0, 0x01), 0x01)\n        /* \"ctiIncentiveDedupRegistry/ctiIncentiveDedupRegistry.sol\":7667:14922  contract AssignmentContract {... */\n      tag_272\n      dup15\n      tag_2\n      jump\t// in\n    tag_272:\n      and\n      dup2\n      mstore\n      add\n      swap11\n      add\n      swap3\n      swap2\n      add\n      jump(tag_267)\n    tag_264:\n      add\n      mload\n      swap1\n      pop\n      0x00\n      dup1\n      jump(tag_265)\n    tag_262:\n      0x00\n      dup6\n      dup2\n      mstore\n      dup3\n      dup2\n      keccak256\n      swap4\n      pop\n      not(0x1f)\n      dup6\n      and\n      swap1\n    tag_273:\n      dup2\n      dup2\n      lt\n      tag_274\n      jumpi\n      pop\n      swap1\n      dup5\n      0x01\n      swap6\n      swap5\n      swap4\n      swap3\n      lt\n      tag_276\n      jumpi\n    tag_277:\n      pop\n      pop\n      pop\n      dup2\n      shl\n      add\n      swap1\n      sstore\n      jump(tag_266)\n    tag_276:\n      add\n      mload\n      not(0x00)\n      0xf8\n      dup5\n        /* \"ctiIncentiveDedupRegistry/ctiIncentiveDedupRegistry.sol\":10128:10143  assignment_list */\n      0x03\n        /* \"ctiIncentiveDedupRegistry/ctiIncentiveDedupRegistry.sol\":7667:14922  contract AssignmentContract {... */\n      shl\n      and\n      shr\n      not\n      and\n      swap1\n      sstore\n      0x00\n      dup1\n      dup1\n      jump(tag_277)\n    tag_274:\n      swap3\n      swap4\n        /* \"ctiIncentiveDedupRegistry/ctiIncentiveDedupRegistry.sol\":10149:10243  Assignment(tid,msg.sender, delegators_address, price,producer_price,delegator_price, ipfsHash) */\n      0x20\n        /* \"ctiIncentiveDedupRegistry/ctiIncentiveDedupRegistry.sol\":7667:14922  contract AssignmentContract {... */\n      0x01\n      dup2\n      swap3\n      dup8\n      dup7\n      add\n      mload\n      dup2\n      sstore\n      add\n      swap6\n      add\n      swap4\n      add\n      jump(tag_273)\n    tag_260:\n      tag_278\n      swap1\n      dup6\n      0x00\n      mstore\n        /* \"ctiIncentiveDedupRegistry/ctiIncentiveDedupRegistry.sol\":10149:10243  Assignment(tid,msg.sender, delegators_address, price,producer_price,delegator_price, ipfsHash) */\n      0x20\n        /* \"ctiIncentiveDedupRegistry/ctiIncentiveDedupRegistry.sol\":7667:14922  contract AssignmentContract {... */\n      0x00\n      keccak256\n      0x1f\n      dup6\n      add\n      0x05\n      shr\n      dup2\n      add\n      swap2\n        /* \"ctiIncentiveDedupRegistry/ctiIncentiveDedupRegistry.sol\":10149:10243  Assignment(tid,msg.sender, delegators_address, price,producer_price,delegator_price, ipfsHash) */\n      0x20\n        /* \"ctiIncentiveDedupRegistry/ctiIncentiveDedupRegistry.sol\":7667:14922  contract AssignmentContract {... */\n      dup7\n      lt\n      tag_279\n      jumpi\n    tag_280:\n      0x1f\n      add\n      0x05\n      shr\n      add\n      swap1\n      tag_12\n      jump\t// in\n    tag_278:\n      0x00\n      jump(tag_261)\n    tag_279:\n      swap1\n      swap2\n      pop\n      dup2\n      swap1\n      jump(tag_280)\n    tag_255:\n      dup3\n      mload\n      sub(shl(0xa0, 0x01), 0x01)\n      and\n      dup2\n      dup4\n      add\n      sstore\n        /* \"ctiIncentiveDedupRegistry/ctiIncentiveDedupRegistry.sol\":10149:10243  Assignment(tid,msg.sender, delegators_address, price,producer_price,delegator_price, ipfsHash) */\n      0x20\n        /* \"ctiIncentiveDedupRegistry/ctiIncentiveDedupRegistry.sol\":7667:14922  contract AssignmentContract {... */\n      swap1\n      swap3\n      add\n      swap2\n      0x01\n      add\n      jump(tag_254)\n    tag_252:\n      tag_281\n      swap1\n      dup5\n      0x00\n      mstore\n      dup6\n      dup5\n      0x00\n      keccak256\n      swap2\n      dup3\n      add\n      swap2\n      add\n      tag_12\n      jump\t// in\n    tag_281:\n      0x00\n      jump(tag_253)\n    tag_245:\n      add\n      mload\n      swap1\n      pop\n      0x00\n      dup1\n      jump(tag_246)\n    tag_243:\n      0x00\n      dup11\n      dup2\n      mstore\n      dup3\n      dup2\n      keccak256\n      swap4\n      pop\n      not(0x1f)\n      dup6\n      and\n      swap1\n    tag_282:\n      dup2\n      dup2\n      lt\n      tag_283\n      jumpi\n      pop\n      swap1\n      dup5\n      0x01\n      swap6\n      swap5\n      swap4\n      swap3\n      lt\n      tag_285\n      jumpi\n    tag_286:\n      pop\n      pop\n      pop\n      dup2\n      shl\n      add\n      dup7\n      sstore\n      jump(tag_247)\n    tag_285:\n      add\n      mload\n      not(0x00)\n      0xf8\n      dup5\n        /* \"ctiIncentiveDedupRegistry/ctiIncentiveDedupRegistry.sol\":10128:10143  assignment_list */\n      0x03\n        /* \"ctiIncentiveDedupRegistry/ctiIncentiveDedupRegistry.sol\":7667:14922  contract AssignmentContract {... */\n      shl\n      and\n      shr\n      not\n      and\n      swap1\n      sstore\n      0x00\n      dup1\n      dup1\n      jump(tag_286)\n    tag_283:\n      swap3\n      swap4\n        /* \"ctiIncentiveDedupRegistry/ctiIncentiveDedupRegistry.sol\":10149:10243  Assignment(tid,msg.sender, delegators_address, price,producer_price,delegator_price, ipfsHash) */\n      0x20\n        /* \"ctiIncentiveDedupRegistry/ctiIncentiveDedupRegistry.sol\":7667:14922  contract AssignmentContract {... */\n      0x01\n      dup2\n      swap3\n      dup8\n      dup7\n      add\n      mload\n      dup2\n      sstore\n      add\n      swap6\n      add\n      swap4\n      add\n      jump(tag_282)\n    tag_241:\n      tag_287\n      swap1\n      dup11\n      0x00\n      mstore\n        /* \"ctiIncentiveDedupRegistry/ctiIncentiveDedupRegistry.sol\":10149:10243  Assignment(tid,msg.sender, delegators_address, price,producer_price,delegator_price, ipfsHash) */\n      0x20\n        /* \"ctiIncentiveDedupRegistry/ctiIncentiveDedupRegistry.sol\":7667:14922  contract AssignmentContract {... */\n      0x00\n      keccak256\n      0x1f\n      dup6\n      add\n      0x05\n      shr\n      dup2\n      add\n      swap2\n        /* \"ctiIncentiveDedupRegistry/ctiIncentiveDedupRegistry.sol\":10149:10243  Assignment(tid,msg.sender, delegators_address, price,producer_price,delegator_price, ipfsHash) */\n      0x20\n        /* \"ctiIncentiveDedupRegistry/ctiIncentiveDedupRegistry.sol\":7667:14922  contract AssignmentContract {... */\n      dup7\n      lt\n      tag_279\n      jumpi\n      0x1f\n      add\n      0x05\n      shr\n      add\n      swap1\n      tag_12\n      jump\t// in\n    tag_287:\n      0x00\n      jump(tag_242)\n    tag_235:\n        /* \"ctiIncentiveDedupRegistry/ctiIncentiveDedupRegistry.sol\":10149:10243  Assignment(tid,msg.sender, delegators_address, price,producer_price,delegator_price, ipfsHash) */\n      0x20\n        /* \"ctiIncentiveDedupRegistry/ctiIncentiveDedupRegistry.sol\":7667:14922  contract AssignmentContract {... */\n      dup1\n      swap2\n      tag_290\n      dup5\n      tag_2\n      jump\t// in\n    tag_290:\n      dup2\n      mstore\n      add\n      swap2\n      add\n      swap1\n      jump(tag_234)\n        /* \"ctiIncentiveDedupRegistry/ctiIncentiveDedupRegistry.sol\":10040:10119  if (price!=producer_price+delegator_price){... */\n    tag_225:\n      pop\n        /* \"ctiIncentiveDedupRegistry/ctiIncentiveDedupRegistry.sol\":7667:14922  contract AssignmentContract {... */\n      0x00\n      swap9\n      pop\n      pop\n      pop\n      pop\n      pop\n      pop\n      pop\n      pop\n        /* \"ctiIncentiveDedupRegistry/ctiIncentiveDedupRegistry.sol\":10096:10108  return false */\n      jump\t// out\n        /* \"ctiIncentiveDedupRegistry/ctiIncentiveDedupRegistry.sol\":7667:14922  contract AssignmentContract {... */\n    tag_16:\n      swap1\n      mload(0x40)\n      swap2\n      dup3\n      dup2\n      sload\n      swap2\n      dup3\n      dup3\n      mstore\n      0x20\n      dup3\n      add\n      swap1\n      0x00\n      mstore\n      keccak256(0x00, 0x20)\n      swap3\n      0x00\n    tag_291:\n      dup2\n      dup2\n      lt\n      tag_292\n      jumpi\n      pop\n      pop\n      tag_214\n      swap3\n      pop\n      sub\n      dup4\n      tag_6\n      jump\t// in\n    tag_292:\n      dup5\n      sload\n      sub(shl(0xa0, 0x01), 0x01)\n      and\n      dup4\n      mstore\n      0x01\n      swap5\n      dup6\n      add\n      swap5\n      dup8\n      swap5\n      pop\n      0x20\n      swap1\n      swap4\n      add\n      swap3\n      add\n      jump(tag_291)\n    tag_17:\n      swap2\n      swap1\n      dup3\n      sub\n      swap2\n      dup3\n      gt\n      tag_221\n      jumpi\n      jump\t// out\n        /* \"ctiIncentiveDedupRegistry/ctiIncentiveDedupRegistry.sol\":10744:12185  function ConsumerSelectDelegator(... */\n    tag_18:\n      swap4\n      swap5\n      swap3\n      swap2\n      swap1\n      swap2\n        /* \"ctiIncentiveDedupRegistry/ctiIncentiveDedupRegistry.sol\":7667:14922  contract AssignmentContract {... */\n      mload(0x40)\n      swap6\n      dup6\n      mload\n      swap7\n      0x20\n      dup2\n      dup2\n      dup10\n      add\n      swap10\n      dup1\n      dup12\n      dup4\n      mcopy\n      dup2\n      add\n        /* \"ctiIncentiveDedupRegistry/ctiIncentiveDedupRegistry.sol\":10953:10968  assignment_list */\n      0x03\n        /* \"ctiIncentiveDedupRegistry/ctiIncentiveDedupRegistry.sol\":7667:14922  contract AssignmentContract {... */\n      dup2\n      mstore\n      sub\n      add\n      swap1\n      keccak256\n      swap7\n      mload(0x40)\n      swap7\n      tag_297\n      dup9\n      tag_4\n      jump\t// in\n    tag_297:\n      tag_298\n      dup10\n      tag_10\n      jump\t// in\n    tag_298:\n      dup9\n      mstore\n      0x01\n      dup10\n      add\n      sload\n      sub(shl(0xa0, 0x01), 0x01)\n      and\n      0x20\n      dup10\n      add\n      swap1\n      dup2\n      mstore\n      swap9\n      tag_299\n      0x02\n      dup3\n      add\n      tag_16\n      jump\t// in\n    tag_299:\n      0x40\n      dup11\n      add\n      mstore\n      tag_300\n        /* \"ctiIncentiveDedupRegistry/ctiIncentiveDedupRegistry.sol\":10953:10968  assignment_list */\n      0x03\n        /* \"ctiIncentiveDedupRegistry/ctiIncentiveDedupRegistry.sol\":7667:14922  contract AssignmentContract {... */\n      dup3\n      add\n      sload\n      swap4\n      0x60\n      dup12\n      add\n      swap5\n      dup6\n      mstore\n      0x20\n      0x04\n      dup5\n      add\n      sload\n      swap5\n      0x80\n      dup14\n      add\n      swap6\n      dup7\n      mstore\n      dup13\n      0xc0\n      tag_301\n      0x06\n      0x05\n      dup10\n      add\n      sload\n      swap9\n      0xa0\n      dup6\n      add\n      swap10\n      dup11\n      mstore\n      add\n      tag_10\n      jump\t// in\n    tag_301:\n      swap2\n      add\n      mstore\n      mload(0x40)\n      swap3\n      dup4\n      swap2\n      mload\n      dup1\n      swap2\n      dup4\n      mcopy\n      dup2\n      add\n      0x02\n      dup2\n      mstore\n      sub\n      add\n      swap1\n      keccak256\n      tag_16\n      jump\t// in\n    tag_300:\n      dup1\n      mload\n      swap10\n        /* \"ctiIncentiveDedupRegistry/ctiIncentiveDedupRegistry.sol\":11038:11056  bool valid = false */\n      swap1\n      0x00\n      dup1\n        /* \"ctiIncentiveDedupRegistry/ctiIncentiveDedupRegistry.sol\":11109:11112  i++ */\n    tag_302:\n        /* \"ctiIncentiveDedupRegistry/ctiIncentiveDedupRegistry.sol\":11083:11107  i < delegatorList.length */\n      dup13\n      dup2\n      lt\n      iszero\n      tag_303\n      jumpi\n        /* \"ctiIncentiveDedupRegistry/ctiIncentiveDedupRegistry.sol\":7667:14922  contract AssignmentContract {... */\n      0x05\n      dup2\n      swap1\n      shl\n      dup4\n      add\n      0x20\n      add\n      mload\n      sub(shl(0xa0, 0x01), 0x01)\n      dup12\n      dup2\n      and\n      swap2\n      and\n        /* \"ctiIncentiveDedupRegistry/ctiIncentiveDedupRegistry.sol\":11132:11156  delegatorList[i] == addr */\n      eq\n        /* \"ctiIncentiveDedupRegistry/ctiIncentiveDedupRegistry.sol\":11128:11226  if (delegatorList[i] == addr) {... */\n      tag_305\n      jumpi\n        /* \"ctiIncentiveDedupRegistry/ctiIncentiveDedupRegistry.sol\":7667:14922  contract AssignmentContract {... */\n      0x01\n      add\n        /* \"ctiIncentiveDedupRegistry/ctiIncentiveDedupRegistry.sol\":11071:11081  uint i = 0 */\n      jump(tag_302)\n        /* \"ctiIncentiveDedupRegistry/ctiIncentiveDedupRegistry.sol\":11128:11226  if (delegatorList[i] == addr) {... */\n    tag_305:\n        /* \"ctiIncentiveDedupRegistry/ctiIncentiveDedupRegistry.sol\":11176:11188  valid = true */\n      pop\n      pop\n      pop\n      swap1\n      swap2\n      swap3\n      swap4\n      swap5\n      swap6\n      swap7\n      swap8\n      swap9\n      pop\n        /* \"ctiIncentiveDedupRegistry/ctiIncentiveDedupRegistry.sol\":7667:14922  contract AssignmentContract {... */\n      0x01\n        /* \"ctiIncentiveDedupRegistry/ctiIncentiveDedupRegistry.sol\":11066:11236  for (uint i = 0; i < delegatorList.length; i++) {... */\n    tag_307:\n        /* \"ctiIncentiveDedupRegistry/ctiIncentiveDedupRegistry.sol\":11249:11255  !valid */\n      iszero\n        /* \"ctiIncentiveDedupRegistry/ctiIncentiveDedupRegistry.sol\":11245:11264  if (!valid) return; */\n      tag_308\n      jumpi\n        /* \"ctiIncentiveDedupRegistry/ctiIncentiveDedupRegistry.sol\":7667:14922  contract AssignmentContract {... */\n      dup4\n      mload\n        /* \"ctiIncentiveDedupRegistry/ctiIncentiveDedupRegistry.sol\":11403:11406  100 */\n      0x64\n        /* \"ctiIncentiveDedupRegistry/ctiIncentiveDedupRegistry.sol\":11373:11399  price * maxDiscountPercent */\n      tag_310\n        /* \"ctiIncentiveDedupRegistry/ctiIncentiveDedupRegistry.sol\":7667:14922  contract AssignmentContract {... */\n      sload(0x05)\n        /* \"ctiIncentiveDedupRegistry/ctiIncentiveDedupRegistry.sol\":11373:11399  price * maxDiscountPercent */\n      dup4\n      tag_13\n      jump\t// in\n    tag_310:\n        /* \"ctiIncentiveDedupRegistry/ctiIncentiveDedupRegistry.sol\":7667:14922  contract AssignmentContract {... */\n      div\n        /* \"ctiIncentiveDedupRegistry/ctiIncentiveDedupRegistry.sol\":11441:11451  msg.sender */\n      swap1\n      caller\n      0x00\n        /* \"ctiIncentiveDedupRegistry/ctiIncentiveDedupRegistry.sol\":7667:14922  contract AssignmentContract {... */\n      mstore\n      mstore(0x20, 0x01)\n        /* \"ctiIncentiveDedupRegistry/ctiIncentiveDedupRegistry.sol\":11576:11592  price - discount */\n      tag_311\n        /* \"ctiIncentiveDedupRegistry/ctiIncentiveDedupRegistry.sol\":7667:14922  contract AssignmentContract {... */\n      sload(keccak256(0x00, 0x40))\n      swap3\n        /* \"ctiIncentiveDedupRegistry/ctiIncentiveDedupRegistry.sol\":11434:11470  points[msg.sender] * pointValueInWei */\n      tag_312\n        /* \"ctiIncentiveDedupRegistry/ctiIncentiveDedupRegistry.sol\":7667:14922  contract AssignmentContract {... */\n      sload(0x06)\n        /* \"ctiIncentiveDedupRegistry/ctiIncentiveDedupRegistry.sol\":11434:11470  points[msg.sender] * pointValueInWei */\n      dup1\n      swap6\n      tag_13\n      jump\t// in\n    tag_312:\n        /* \"ctiIncentiveDedupRegistry/ctiIncentiveDedupRegistry.sol\":11496:11520  pointValue > maxDiscount */\n      dup2\n      dup2\n      gt\n      iszero\n      tag_313\n      jumpi\n        /* \"ctiIncentiveDedupRegistry/ctiIncentiveDedupRegistry.sol\":11496:11547  pointValue > maxDiscount ? maxDiscount : pointValue */\n      pop\n      dup1\n      swap3\n        /* \"ctiIncentiveDedupRegistry/ctiIncentiveDedupRegistry.sol\":11576:11592  price - discount */\n      tag_17\n      jump\t// in\n    tag_311:\n        /* \"ctiIncentiveDedupRegistry/ctiIncentiveDedupRegistry.sol\":11610:11619  msg.value */\n      callvalue\n        /* \"ctiIncentiveDedupRegistry/ctiIncentiveDedupRegistry.sol\":11610:11633  msg.value >= finalPrice */\n      lt\n        /* \"ctiIncentiveDedupRegistry/ctiIncentiveDedupRegistry.sol\":7667:14922  contract AssignmentContract {... */\n      tag_316\n      jumpi\n      dup2\n      iszero\n      tag_318\n      jumpi\n      div\n        /* \"ctiIncentiveDedupRegistry/ctiIncentiveDedupRegistry.sol\":11727:11741  usedPoints > 0 */\n      dup1\n        /* \"ctiIncentiveDedupRegistry/ctiIncentiveDedupRegistry.sol\":11723:11800  if (usedPoints > 0) {... */\n      tag_320\n      jumpi\n        /* \"ctiIncentiveDedupRegistry/ctiIncentiveDedupRegistry.sol\":11496:11547  pointValue > maxDiscount ? maxDiscount : pointValue */\n    tag_321:\n        /* \"ctiIncentiveDedupRegistry/ctiIncentiveDedupRegistry.sol\":11851:11868  curAssignment.tid */\n      pop\n      mload\n        /* \"ctiIncentiveDedupRegistry/ctiIncentiveDedupRegistry.sol\":7667:14922  contract AssignmentContract {... */\n      swap9\n      0x01\n      dup1\n      0xa0\n      shl\n      sub\n      swap1\n      mload\n      and\n      swap3\n      mload\n      swap2\n      mload\n      swap1\n      mload\n      swap2\n      mload(0x40)\n      swap10\n      tag_322\n      dup12\n      tag_5\n      jump\t// in\n    tag_322:\n      dup11\n      mstore\n      0x20\n        /* \"ctiIncentiveDedupRegistry/ctiIncentiveDedupRegistry.sol\":11826:12107  transaction(... */\n      dup11\n      add\n        /* \"ctiIncentiveDedupRegistry/ctiIncentiveDedupRegistry.sol\":7667:14922  contract AssignmentContract {... */\n      swap4\n      dup9\n      dup6\n      mstore\n      0x40\n        /* \"ctiIncentiveDedupRegistry/ctiIncentiveDedupRegistry.sol\":11826:12107  transaction(... */\n      dup12\n      add\n        /* \"ctiIncentiveDedupRegistry/ctiIncentiveDedupRegistry.sol\":7667:14922  contract AssignmentContract {... */\n      mstore\n      0x01\n      dup1\n      0xa0\n      shl\n      sub\n      dup8\n      and\n      0x60\n        /* \"ctiIncentiveDedupRegistry/ctiIncentiveDedupRegistry.sol\":11826:12107  transaction(... */\n      dup12\n      add\n        /* \"ctiIncentiveDedupRegistry/ctiIncentiveDedupRegistry.sol\":7667:14922  contract AssignmentContract {... */\n      mstore\n        /* \"ctiIncentiveDedupRegistry/ctiIncentiveDedupRegistry.sol\":11441:11451  msg.sender */\n      caller\n        /* \"ctiIncentiveDedupRegistry/ctiIncentiveDedupRegistry.sol\":7667:14922  contract AssignmentContract {... */\n      0x80\n        /* \"ctiIncentiveDedupRegistry/ctiIncentiveDedupRegistry.sol\":11826:12107  transaction(... */\n      dup12\n      add\n        /* \"ctiIncentiveDedupRegistry/ctiIncentiveDedupRegistry.sol\":7667:14922  contract AssignmentContract {... */\n      mstore\n      0xa0\n        /* \"ctiIncentiveDedupRegistry/ctiIncentiveDedupRegistry.sol\":11826:12107  transaction(... */\n      dup11\n      add\n        /* \"ctiIncentiveDedupRegistry/ctiIncentiveDedupRegistry.sol\":7667:14922  contract AssignmentContract {... */\n      mstore\n      0xc0\n        /* \"ctiIncentiveDedupRegistry/ctiIncentiveDedupRegistry.sol\":11826:12107  transaction(... */\n      dup10\n      add\n        /* \"ctiIncentiveDedupRegistry/ctiIncentiveDedupRegistry.sol\":7667:14922  contract AssignmentContract {... */\n      mstore\n      0xe0\n        /* \"ctiIncentiveDedupRegistry/ctiIncentiveDedupRegistry.sol\":11826:12107  transaction(... */\n      dup9\n      add\n        /* \"ctiIncentiveDedupRegistry/ctiIncentiveDedupRegistry.sol\":7667:14922  contract AssignmentContract {... */\n      mstore\n      0x00\n        /* \"ctiIncentiveDedupRegistry/ctiIncentiveDedupRegistry.sol\":11826:12107  transaction(... */\n      0x0100\n      dup9\n      add\n        /* \"ctiIncentiveDedupRegistry/ctiIncentiveDedupRegistry.sol\":7667:14922  contract AssignmentContract {... */\n      mstore\n      mload(0x40)\n      0x20\n      dup2\n      dup8\n      mload\n      dup1\n      dup4\n      dup11\n      add\n      dup4\n      mcopy\n      dup2\n      add\n      0x04\n      dup2\n      mstore\n      sub\n      add\n      swap1\n      keccak256\n      swap1\n      dup8\n      mload\n      dup1\n      mload\n      swap1\n      sub(shl(0x40, 0x01), 0x01)\n      dup3\n      gt\n      tag_191\n      jumpi\n      dup2\n      swap1\n      tag_325\n      dup6\n      sload\n      tag_9\n      jump\t// in\n    tag_325:\n      0x1f\n      dup2\n      gt\n      tag_326\n      jumpi\n        /* \"ctiIncentiveDedupRegistry/ctiIncentiveDedupRegistry.sol\":11496:11547  pointValue > maxDiscount ? maxDiscount : pointValue */\n    tag_327:\n        /* \"ctiIncentiveDedupRegistry/ctiIncentiveDedupRegistry.sol\":7667:14922  contract AssignmentContract {... */\n      pop\n      0x20\n      swap1\n      0x1f\n      dup4\n      gt\n      0x01\n      eq\n      tag_328\n      jumpi\n      0x00\n      swap3\n      tag_330\n      jumpi\n    tag_331:\n      pop\n      pop\n      dup2\n      0x01\n      shl\n      swap2\n      not(0x00)\n      swap1\n        /* \"ctiIncentiveDedupRegistry/ctiIncentiveDedupRegistry.sol\":10953:10968  assignment_list */\n      0x03\n        /* \"ctiIncentiveDedupRegistry/ctiIncentiveDedupRegistry.sol\":7667:14922  contract AssignmentContract {... */\n      shl\n      shr\n      not\n      and\n      or\n      dup3\n      sstore\n    tag_332:\n      mload\n      swap7\n      dup8\n      mload\n      sub(shl(0x40, 0x01), 0x01)\n      dup2\n      gt\n      tag_191\n      jumpi\n      tag_335\n      0x01\n      dup5\n      add\n      sload\n      tag_9\n      jump\t// in\n    tag_335:\n      0x1f\n      dup2\n      gt\n      tag_336\n      jumpi\n    tag_337:\n      pop\n      0x20\n      0x1f\n      dup3\n      gt\n      0x01\n      eq\n      tag_338\n      jumpi\n      tag_340\n      swap6\n      swap5\n      swap4\n      swap3\n      dup3\n      0x08\n      swap4\n        /* \"ctiIncentiveDedupRegistry/ctiIncentiveDedupRegistry.sol\":11826:12107  transaction(... */\n      0x0100\n        /* \"ctiIncentiveDedupRegistry/ctiIncentiveDedupRegistry.sol\":7667:14922  contract AssignmentContract {... */\n      swap4\n        /* \"ctiIncentiveDedupRegistry/ctiIncentiveDedupRegistry.sol\":12123:12178  ConsumerAssignmentComing(addr, txid, msg.value, pubkey) */\n      0xa82fdb4b07891794fe0bcde99c7d434289ff9320ff626ff65b07a00220255777\n        /* \"ctiIncentiveDedupRegistry/ctiIncentiveDedupRegistry.sol\":7667:14922  contract AssignmentContract {... */\n      swap13\n      swap14\n      0x00\n      swap3\n      tag_341\n      jumpi\n    tag_342:\n      pop\n      pop\n      dup2\n      0x01\n      shl\n      swap2\n      not(0x00)\n      swap1\n        /* \"ctiIncentiveDedupRegistry/ctiIncentiveDedupRegistry.sol\":10953:10968  assignment_list */\n      0x03\n        /* \"ctiIncentiveDedupRegistry/ctiIncentiveDedupRegistry.sol\":7667:14922  contract AssignmentContract {... */\n      shl\n      shr\n      not\n      and\n      or\n      0x01\n      dup6\n      add\n      sstore\n    tag_343:\n      0x40\n        /* \"ctiIncentiveDedupRegistry/ctiIncentiveDedupRegistry.sol\":11826:12107  transaction(... */\n      dup2\n      dup2\n      add\n        /* \"ctiIncentiveDedupRegistry/ctiIncentiveDedupRegistry.sol\":7667:14922  contract AssignmentContract {... */\n      mload\n      0x02\n      dup7\n      add\n      dup1\n      sload\n      not(sub(shl(0xa0, 0x01), 0x01))\n      swap1\n      dup2\n      and\n      sub(shl(0xa0, 0x01), 0x01)\n      swap4\n      dup5\n      and\n      or\n      swap1\n      swap2\n      sstore\n      0x60\n        /* \"ctiIncentiveDedupRegistry/ctiIncentiveDedupRegistry.sol\":11826:12107  transaction(... */\n      dup5\n      add\n        /* \"ctiIncentiveDedupRegistry/ctiIncentiveDedupRegistry.sol\":7667:14922  contract AssignmentContract {... */\n      mload\n        /* \"ctiIncentiveDedupRegistry/ctiIncentiveDedupRegistry.sol\":10953:10968  assignment_list */\n      0x03\n        /* \"ctiIncentiveDedupRegistry/ctiIncentiveDedupRegistry.sol\":7667:14922  contract AssignmentContract {... */\n      dup9\n      add\n      dup1\n      sload\n      dup4\n      and\n      swap2\n      dup5\n      and\n      swap2\n      swap1\n      swap2\n      or\n      swap1\n      sstore\n      0x80\n        /* \"ctiIncentiveDedupRegistry/ctiIncentiveDedupRegistry.sol\":11826:12107  transaction(... */\n      dup1\n      dup6\n      add\n        /* \"ctiIncentiveDedupRegistry/ctiIncentiveDedupRegistry.sol\":7667:14922  contract AssignmentContract {... */\n      mload\n      0x04\n      dup10\n      add\n      dup1\n      sload\n      swap1\n      swap4\n      and\n      swap1\n      dup5\n      and\n      or\n      swap1\n      swap2\n      sstore\n      0xa0\n        /* \"ctiIncentiveDedupRegistry/ctiIncentiveDedupRegistry.sol\":11826:12107  transaction(... */\n      dup5\n      add\n        /* \"ctiIncentiveDedupRegistry/ctiIncentiveDedupRegistry.sol\":7667:14922  contract AssignmentContract {... */\n      mload\n      0x05\n      dup9\n      add\n      sstore\n      0xc0\n        /* \"ctiIncentiveDedupRegistry/ctiIncentiveDedupRegistry.sol\":11826:12107  transaction(... */\n      dup5\n      add\n        /* \"ctiIncentiveDedupRegistry/ctiIncentiveDedupRegistry.sol\":7667:14922  contract AssignmentContract {... */\n      mload\n      0x06\n      dup9\n      add\n      sstore\n      0xe0\n        /* \"ctiIncentiveDedupRegistry/ctiIncentiveDedupRegistry.sol\":11826:12107  transaction(... */\n      dup5\n      add\n        /* \"ctiIncentiveDedupRegistry/ctiIncentiveDedupRegistry.sol\":7667:14922  contract AssignmentContract {... */\n      mload\n      0x07\n      dup9\n      add\n      sstore\n        /* \"ctiIncentiveDedupRegistry/ctiIncentiveDedupRegistry.sol\":11826:12107  transaction(... */\n      swap4\n      swap1\n      swap3\n      add\n        /* \"ctiIncentiveDedupRegistry/ctiIncentiveDedupRegistry.sol\":7667:14922  contract AssignmentContract {... */\n      mload\n      swap4\n      swap1\n      swap5\n      add\n      swap3\n      swap1\n      swap3\n      sstore\n      swap2\n      mload\n      swap6\n      and\n      dup6\n      mstore\n      0x20\n      dup6\n      add\n      dup2\n      swap1\n      mstore\n      swap4\n      swap5\n      dup6\n      swap5\n      tag_344\n      swap2\n      swap1\n      dup7\n      add\n      swap1\n      tag_11\n      jump\t// in\n    tag_344:\n        /* \"ctiIncentiveDedupRegistry/ctiIncentiveDedupRegistry.sol\":11610:11619  msg.value */\n      swap2\n      callvalue\n        /* \"ctiIncentiveDedupRegistry/ctiIncentiveDedupRegistry.sol\":7667:14922  contract AssignmentContract {... */\n      0x40\n      dup7\n      add\n      mstore\n      dup5\n      dup4\n      sub\n      0x60\n      dup7\n      add\n      mstore\n      tag_14\n      jump\t// in\n    tag_340:\n        /* \"ctiIncentiveDedupRegistry/ctiIncentiveDedupRegistry.sol\":12123:12178  ConsumerAssignmentComing(addr, txid, msg.value, pubkey) */\n      sub\n      swap1\n      log1\n        /* \"ctiIncentiveDedupRegistry/ctiIncentiveDedupRegistry.sol\":10744:12185  function ConsumerSelectDelegator(... */\n      jump\t// out\n        /* \"ctiIncentiveDedupRegistry/ctiIncentiveDedupRegistry.sol\":7667:14922  contract AssignmentContract {... */\n    tag_341:\n      add\n      mload\n      swap1\n      pop\n      0x00\n      dup1\n      jump(tag_342)\n    tag_338:\n      0x01\n      dup5\n      add\n      0x00\n      mstore\n      dup1\n      0x00\n      keccak256\n      swap10\n      0x00\n    tag_345:\n      not(0x1f)\n      dup5\n      and\n      dup2\n      lt\n      tag_346\n      jumpi\n      pop\n      swap3\n      0x01\n      dup4\n        /* \"ctiIncentiveDedupRegistry/ctiIncentiveDedupRegistry.sol\":12123:12178  ConsumerAssignmentComing(addr, txid, msg.value, pubkey) */\n      0xa82fdb4b07891794fe0bcde99c7d434289ff9320ff626ff65b07a00220255777\n        /* \"ctiIncentiveDedupRegistry/ctiIncentiveDedupRegistry.sol\":7667:14922  contract AssignmentContract {... */\n      swap12\n      swap13\n        /* \"ctiIncentiveDedupRegistry/ctiIncentiveDedupRegistry.sol\":11826:12107  transaction(... */\n      0x0100\n        /* \"ctiIncentiveDedupRegistry/ctiIncentiveDedupRegistry.sol\":7667:14922  contract AssignmentContract {... */\n      swap5\n      tag_340\n      swap11\n      swap10\n      swap9\n      swap8\n      0x08\n      swap8\n      not(0x1f)\n      dup2\n      and\n      lt\n      tag_348\n      jumpi\n    tag_349:\n      pop\n      pop\n      pop\n      dup2\n      shl\n      add\n      0x01\n      dup6\n      add\n      sstore\n      jump(tag_343)\n    tag_348:\n      add\n      mload\n      not(0x00)\n      0xf8\n      dup5\n        /* \"ctiIncentiveDedupRegistry/ctiIncentiveDedupRegistry.sol\":10953:10968  assignment_list */\n      0x03\n        /* \"ctiIncentiveDedupRegistry/ctiIncentiveDedupRegistry.sol\":7667:14922  contract AssignmentContract {... */\n      shl\n      and\n      shr\n      not\n      and\n      swap1\n      sstore\n      0x00\n      dup1\n      dup1\n      jump(tag_349)\n    tag_346:\n      dup3\n      dup3\n      add\n      mload\n      dup13\n      sstore\n      0x01\n      swap1\n      swap12\n      add\n      swap11\n      0x20\n      swap3\n      dup4\n      add\n      swap3\n      add\n      jump(tag_345)\n    tag_336:\n      tag_350\n      swap1\n      0x01\n      dup6\n      add\n      0x00\n      mstore\n      keccak256(0x00, 0x20)\n      0x1f\n      dup5\n      add\n      0x05\n      shr\n      dup2\n      add\n      swap2\n      0x20\n      dup6\n      lt\n      tag_279\n      jumpi\n      0x1f\n      add\n      0x05\n      shr\n      add\n      swap1\n      tag_12\n      jump\t// in\n    tag_350:\n      0x00\n      jump(tag_337)\n    tag_330:\n      add\n      mload\n      swap1\n      pop\n      0x00\n      dup1\n      jump(tag_331)\n    tag_328:\n      0x00\n      dup7\n      dup2\n      mstore\n      dup3\n      dup2\n      keccak256\n      swap4\n      pop\n      not(0x1f)\n      dup6\n      and\n      swap1\n    tag_353:\n      dup2\n      dup2\n      lt\n      tag_354\n      jumpi\n      pop\n      swap1\n      dup5\n      0x01\n      swap6\n      swap5\n      swap4\n      swap3\n      lt\n      tag_356\n      jumpi\n    tag_357:\n      pop\n      pop\n      pop\n      dup2\n      shl\n      add\n      dup3\n      sstore\n      jump(tag_332)\n    tag_356:\n      add\n      mload\n      not(0x00)\n      0xf8\n      dup5\n        /* \"ctiIncentiveDedupRegistry/ctiIncentiveDedupRegistry.sol\":10953:10968  assignment_list */\n      0x03\n        /* \"ctiIncentiveDedupRegistry/ctiIncentiveDedupRegistry.sol\":7667:14922  contract AssignmentContract {... */\n      shl\n      and\n      shr\n      not\n      and\n      swap1\n      sstore\n      0x00\n      dup1\n      dup1\n      jump(tag_357)\n    tag_354:\n      swap3\n      swap4\n      0x20\n      0x01\n      dup2\n      swap3\n      dup8\n      dup7\n      add\n      mload\n      dup2\n      sstore\n      add\n      swap6\n      add\n      swap4\n      add\n      jump(tag_353)\n    tag_326:\n      tag_358\n      swap1\n      dup7\n      0x00\n      mstore\n      keccak256(0x00, 0x20)\n      0x1f\n      dup6\n      add\n      0x05\n      shr\n      dup2\n      add\n      swap2\n      0x20\n      dup7\n      lt\n      tag_279\n      jumpi\n      0x1f\n      add\n      0x05\n      shr\n      add\n      swap1\n      tag_12\n      jump\t// in\n    tag_358:\n      0x00\n      jump(tag_327)\n        /* \"ctiIncentiveDedupRegistry/ctiIncentiveDedupRegistry.sol\":11723:11800  if (usedPoints > 0) {... */\n    tag_320:\n        /* \"ctiIncentiveDedupRegistry/ctiIncentiveDedupRegistry.sol\":11441:11451  msg.sender */\n      caller\n      0x00\n        /* \"ctiIncentiveDedupRegistry/ctiIncentiveDedupRegistry.sol\":7667:14922  contract AssignmentContract {... */\n      mstore\n      mstore(0x20, 0x01)\n        /* \"ctiIncentiveDedupRegistry/ctiIncentiveDedupRegistry.sol\":11757:11789  points[msg.sender] -= usedPoints */\n      tag_361\n        /* \"ctiIncentiveDedupRegistry/ctiIncentiveDedupRegistry.sol\":7667:14922  contract AssignmentContract {... */\n      keccak256(0x00, 0x40)\n      swap2\n      dup3\n      sload\n        /* \"ctiIncentiveDedupRegistry/ctiIncentiveDedupRegistry.sol\":11757:11789  points[msg.sender] -= usedPoints */\n      tag_17\n      jump\t// in\n    tag_361:\n        /* \"ctiIncentiveDedupRegistry/ctiIncentiveDedupRegistry.sol\":7667:14922  contract AssignmentContract {... */\n      swap1\n      sstore\n        /* \"ctiIncentiveDedupRegistry/ctiIncentiveDedupRegistry.sol\":11723:11800  if (usedPoints > 0) {... */\n      0x00\n      jump(tag_321)\n        /* \"ctiIncentiveDedupRegistry/ctiIncentiveDedupRegistry.sol\":7667:14922  contract AssignmentContract {... */\n    tag_318:\n      mstore(0x00, shl(0xe0, 0x4e487b71))\n      mstore(0x04, 0x12)\n      revert(0x00, 0x24)\n    tag_316:\n      mload(0x40)\n      shl(0xe5, 0x461bcd)\n      dup2\n      mstore\n      0x20\n      0x04\n      dup3\n      add\n      mstore\n      0x14\n      0x24\n      dup3\n      add\n      mstore\n      shl(0x62, 0x125b9cdd59999a58da595b9d081c185e5b595b9d)\n      0x44\n      dup3\n      add\n      mstore\n        /* \"ctiIncentiveDedupRegistry/ctiIncentiveDedupRegistry.sol\":11403:11406  100 */\n      0x64\n      swap1\n        /* \"ctiIncentiveDedupRegistry/ctiIncentiveDedupRegistry.sol\":7667:14922  contract AssignmentContract {... */\n      revert\n        /* \"ctiIncentiveDedupRegistry/ctiIncentiveDedupRegistry.sol\":11496:11547  pointValue > maxDiscount ? maxDiscount : pointValue */\n    tag_313:\n      swap1\n      pop\n      dup1\n      swap3\n        /* \"ctiIncentiveDedupRegistry/ctiIncentiveDedupRegistry.sol\":11576:11592  price - discount */\n      tag_17\n      jump\t// in\n        /* \"ctiIncentiveDedupRegistry/ctiIncentiveDedupRegistry.sol\":11245:11264  if (!valid) return; */\n    tag_308:\n        /* \"ctiIncentiveDedupRegistry/ctiIncentiveDedupRegistry.sol\":11257:11264  return; */\n      pop\n      pop\n      pop\n      pop\n      pop\n      pop\n      pop\n      pop\n      swap1\n      pop\n      jump\t// out\n        /* \"ctiIncentiveDedupRegistry/ctiIncentiveDedupRegistry.sol\":11083:11107  i < delegatorList.length */\n    tag_303:\n      pop\n      swap2\n      swap3\n      swap4\n      swap5\n      swap6\n      swap7\n      swap8\n      swap9\n      swap10\n      swap11\n      pop\n      pop\n      jump(tag_307)\n        /* \"ctiIncentiveDedupRegistry/ctiIncentiveDedupRegistry.sol\":12424:13222  function CheckCTI(string calldata txid) external payable  {... */\n    tag_19:\n        /* \"ctiIncentiveDedupRegistry/ctiIncentiveDedupRegistry.sol\":7667:14922  contract AssignmentContract {... */\n      mload(0x40)\n      dup3\n      dup3\n      dup3\n      calldatacopy\n      0x20\n      dup2\n      dup5\n      dup2\n      add\n        /* \"ctiIncentiveDedupRegistry/ctiIncentiveDedupRegistry.sol\":12517:12524  tx_list */\n      0x04\n        /* \"ctiIncentiveDedupRegistry/ctiIncentiveDedupRegistry.sol\":7667:14922  contract AssignmentContract {... */\n      dup2\n      mstore\n      sub\n      add\n      swap1\n      keccak256\n      0x0100\n      0x08\n      mload(0x40)\n      swap3\n      tag_362\n      dup5\n      tag_5\n      jump\t// in\n    tag_362:\n      tag_363\n      dup2\n      tag_10\n      jump\t// in\n    tag_363:\n      dup5\n      mstore\n      tag_364\n      0x01\n      dup3\n      add\n      tag_10\n      jump\t// in\n    tag_364:\n      0x20\n      dup6\n      add\n      mstore\n      0x02\n      dup2\n      add\n      sload\n      sub(shl(0xa0, 0x01), 0x01)\n      swap1\n      dup2\n      and\n      0x40\n      dup1\n      dup8\n      add\n      swap2\n      swap1\n      swap2\n      mstore\n      0x03\n      dup4\n      add\n      sload\n      dup3\n      and\n      0x60\n      dup8\n      add\n      mstore\n        /* \"ctiIncentiveDedupRegistry/ctiIncentiveDedupRegistry.sol\":12517:12524  tx_list */\n      0x04\n        /* \"ctiIncentiveDedupRegistry/ctiIncentiveDedupRegistry.sol\":7667:14922  contract AssignmentContract {... */\n      dup4\n      add\n      sload\n      swap1\n      swap2\n      and\n      0x80\n      dup7\n      add\n      mstore\n      0x05\n      dup3\n      add\n      sload\n      0xa0\n      dup7\n      add\n      mstore\n      0x06\n      dup3\n      add\n      sload\n      0xc0\n      dup7\n      add\n      mstore\n      0x07\n      dup3\n      add\n      sload\n      0xe0\n      dup7\n      add\n      mstore\n      swap2\n      add\n      sload\n      swap2\n      swap1\n      swap3\n      add\n      mstore\n      mload\n      dup3\n      dup3\n      dup3\n      calldatacopy\n      0x20\n      dup2\n      dup5\n      dup2\n      add\n        /* \"ctiIncentiveDedupRegistry/ctiIncentiveDedupRegistry.sol\":12517:12524  tx_list */\n      0x04\n        /* \"ctiIncentiveDedupRegistry/ctiIncentiveDedupRegistry.sol\":7667:14922  contract AssignmentContract {... */\n      dup2\n      mstore\n      sub\n      add\n      swap1\n      keccak256\n      swap2\n      mload(0x40)\n      tag_365\n      dup2\n      tag_5\n      jump\t// in\n    tag_365:\n      tag_366\n      dup5\n      tag_10\n      jump\t// in\n    tag_366:\n      dup2\n      mstore\n      tag_367\n      0x01\n      dup6\n      add\n      tag_10\n      jump\t// in\n    tag_367:\n      0x20\n      dup3\n      add\n      mstore\n      0x01\n      dup1\n      0xa0\n      shl\n      sub\n      0x02\n      dup6\n      add\n      sload\n      and\n      swap1\n      0x40\n      dup2\n      add\n      swap5\n      dup3\n      dup7\n      mstore\n      0x01\n      dup1\n      0xa0\n      shl\n      sub\n      0x03\n      dup3\n      add\n      sload\n      and\n      swap2\n      0x60\n      dup2\n      add\n      swap4\n      dup4\n      dup6\n      mstore\n      0x01\n      dup1\n      0xa0\n      shl\n      sub\n        /* \"ctiIncentiveDedupRegistry/ctiIncentiveDedupRegistry.sol\":12517:12524  tx_list */\n      0x04\n        /* \"ctiIncentiveDedupRegistry/ctiIncentiveDedupRegistry.sol\":7667:14922  contract AssignmentContract {... */\n      dup5\n      add\n      sload\n      and\n      swap1\n      dup2\n      0x80\n      dup5\n      add\n      mstore\n      0x05\n      dup5\n      add\n      sload\n      0xa0\n      dup5\n      add\n      mstore\n      0x06\n      dup5\n      add\n      sload\n      swap2\n      dup3\n      0xc0\n      dup6\n      add\n      mstore\n      0x01\n      0x0100\n      0x08\n      0x07\n      dup9\n      add\n      sload\n      swap8\n      0xe0\n      dup9\n      add\n      swap9\n      dup10\n      mstore\n      add\n      sload\n      swap6\n      add\n      swap5\n      dup1\n      dup7\n      mstore\n        /* \"ctiIncentiveDedupRegistry/ctiIncentiveDedupRegistry.sol\":12573:12588  trc.status == 1 */\n      eq\n        /* \"ctiIncentiveDedupRegistry/ctiIncentiveDedupRegistry.sol\":12569:12620  if (trc.status == 1){... */\n      tag_368\n      jumpi\n        /* \"ctiIncentiveDedupRegistry/ctiIncentiveDedupRegistry.sol\":12637:12647  msg.sender */\n      caller\n        /* \"ctiIncentiveDedupRegistry/ctiIncentiveDedupRegistry.sol\":12637:12661  msg.sender==trc.consumer */\n      sub\n        /* \"ctiIncentiveDedupRegistry/ctiIncentiveDedupRegistry.sol\":7667:14922  contract AssignmentContract {... */\n      tag_63\n      jumpi\n      0x00\n      dup1\n      swap4\n      swap3\n      dup2\n      swap4\n      swap3\n      0x01\n      dup4\n      swap5\n      mstore\n        /* \"ctiIncentiveDedupRegistry/ctiIncentiveDedupRegistry.sol\":12815:12852  producer.transfer(trc.producer_price) */\n      dup3\n      dup3\n      iszero\n      tag_372\n      jumpi\n        /* \"ctiIncentiveDedupRegistry/ctiIncentiveDedupRegistry.sol\":12424:13222  function CheckCTI(string calldata txid) external payable  {... */\n    tag_373:\n        /* \"ctiIncentiveDedupRegistry/ctiIncentiveDedupRegistry.sol\":12815:12852  producer.transfer(trc.producer_price) */\n      call\n      iszero\n      tag_378\n      jumpi\n      0x00\n        /* \"ctiIncentiveDedupRegistry/ctiIncentiveDedupRegistry.sol\":7667:14922  contract AssignmentContract {... */\n      dup1\n      dup1\n      swap4\n      dup2\n      swap4\n      mload\n        /* \"ctiIncentiveDedupRegistry/ctiIncentiveDedupRegistry.sol\":12862:12901  delegator.transfer(trc.delegator_price) */\n      swap1\n      dup3\n      dup3\n      iszero\n      tag_376\n      jumpi\n        /* \"ctiIncentiveDedupRegistry/ctiIncentiveDedupRegistry.sol\":12424:13222  function CheckCTI(string calldata txid) external payable  {... */\n    tag_377:\n        /* \"ctiIncentiveDedupRegistry/ctiIncentiveDedupRegistry.sol\":12862:12901  delegator.transfer(trc.delegator_price) */\n      call\n      iszero\n      tag_378\n      jumpi\n        /* \"ctiIncentiveDedupRegistry/ctiIncentiveDedupRegistry.sol\":7667:14922  contract AssignmentContract {... */\n      dup4\n      mload\n      sub(shl(0xa0, 0x01), 0x01)\n      and\n      0x00\n      swap1\n      dup2\n      mstore\n      mstore(0x20, 0x01)\n      0x40\n      swap1\n      keccak256\n      dup1\n      sload\n        /* \"ctiIncentiveDedupRegistry/ctiIncentiveDedupRegistry.sol\":12977:12979  10 */\n      0x0a\n        /* \"ctiIncentiveDedupRegistry/ctiIncentiveDedupRegistry.sol\":7667:14922  contract AssignmentContract {... */\n      dup2\n      add\n      swap2\n      swap1\n      dup3\n      lt\n      tag_221\n      jumpi\n      sstore\n      dup1\n      mload\n      sub(shl(0xa0, 0x01), 0x01)\n      and\n      0x00\n      swap1\n      dup2\n      mstore\n      mstore(0x20, 0x01)\n      0x40\n      swap1\n      keccak256\n      dup1\n      sload\n      0x05\n      dup2\n      add\n      swap2\n      swap1\n      dup3\n      lt\n      tag_221\n      jumpi\n      sstore\n        /* \"ctiIncentiveDedupRegistry/ctiIncentiveDedupRegistry.sol\":12637:12647  msg.sender */\n      caller\n      0x00\n        /* \"ctiIncentiveDedupRegistry/ctiIncentiveDedupRegistry.sol\":7667:14922  contract AssignmentContract {... */\n      mstore\n      mstore(0x20, 0x01)\n      keccak256(0x00, 0x40)\n      swap4\n      dup5\n      sload\n      0x02\n      dup2\n      add\n      dup1\n      swap2\n      gt\n      tag_221\n      jumpi\n        /* \"ctiIncentiveDedupRegistry/ctiIncentiveDedupRegistry.sol\":13148:13215  CTIChecked(txid, msg.sender, trc.producer, trc.delegator, 2, 10, 5) */\n      0x3ca4856774fe33fc92bdfc265c349721ad30590e023f1b868557bc3db326c7cb\n        /* \"ctiIncentiveDedupRegistry/ctiIncentiveDedupRegistry.sol\":7667:14922  contract AssignmentContract {... */\n      swap6\n      sstore\n      0x01\n      dup1\n      0xa0\n      shl\n      sub\n      swap1\n      mload\n      and\n      swap1\n      0x01\n      dup1\n      0xa0\n      shl\n      sub\n      swap1\n      mload\n      and\n      tag_386\n      mload(0x40)\n      swap5\n      dup6\n      swap5\n      0xe0\n      dup7\n      mstore\n      0xe0\n      dup7\n      add\n      swap2\n      tag_14\n      jump\t// in\n    tag_386:\n        /* \"ctiIncentiveDedupRegistry/ctiIncentiveDedupRegistry.sol\":12637:12647  msg.sender */\n      swap2\n      caller\n        /* \"ctiIncentiveDedupRegistry/ctiIncentiveDedupRegistry.sol\":7667:14922  contract AssignmentContract {... */\n      0x20\n      dup6\n      add\n      mstore\n      0x40\n      dup5\n      add\n      mstore\n      0x60\n      dup4\n      add\n      mstore\n      0x02\n      0x80\n      dup4\n      add\n      mstore\n        /* \"ctiIncentiveDedupRegistry/ctiIncentiveDedupRegistry.sol\":12977:12979  10 */\n      0x0a\n        /* \"ctiIncentiveDedupRegistry/ctiIncentiveDedupRegistry.sol\":7667:14922  contract AssignmentContract {... */\n      0xa0\n      dup4\n      add\n      mstore\n      0x05\n      0xc0\n      dup4\n      add\n      mstore\n        /* \"ctiIncentiveDedupRegistry/ctiIncentiveDedupRegistry.sol\":13148:13215  CTIChecked(txid, msg.sender, trc.producer, trc.delegator, 2, 10, 5) */\n      sub\n      swap1\n      log1\n        /* \"ctiIncentiveDedupRegistry/ctiIncentiveDedupRegistry.sol\":12424:13222  function CheckCTI(string calldata txid) external payable  {... */\n      jump\t// out\n        /* \"ctiIncentiveDedupRegistry/ctiIncentiveDedupRegistry.sol\":12862:12901  delegator.transfer(trc.delegator_price) */\n    tag_378:\n        /* \"ctiIncentiveDedupRegistry/ctiIncentiveDedupRegistry.sol\":7667:14922  contract AssignmentContract {... */\n      mload(0x40)\n      returndatasize\n      0x00\n      dup3\n      returndatacopy\n      returndatasize\n      swap1\n      revert\n        /* \"ctiIncentiveDedupRegistry/ctiIncentiveDedupRegistry.sol\":12862:12901  delegator.transfer(trc.delegator_price) */\n    tag_376:\n      pop\n      0x08fc\n      jump(tag_377)\n        /* \"ctiIncentiveDedupRegistry/ctiIncentiveDedupRegistry.sol\":12815:12852  producer.transfer(trc.producer_price) */\n    tag_372:\n      pop\n      0x08fc\n      jump(tag_373)\n        /* \"ctiIncentiveDedupRegistry/ctiIncentiveDedupRegistry.sol\":12569:12620  if (trc.status == 1){... */\n    tag_368:\n        /* \"ctiIncentiveDedupRegistry/ctiIncentiveDedupRegistry.sol\":12603:12610  return; */\n      pop\n      pop\n      pop\n      pop\n      pop\n      pop\n      pop\n      pop\n      pop\n      pop\n      jump\t// out\n        /* \"ctiIncentiveDedupRegistry/ctiIncentiveDedupRegistry.sol\":7667:14922  contract AssignmentContract {... */\n    tag_20:\n      dup1\n      sload\n      swap1\n      shl(0x40, 0x01)\n      dup3\n      lt\n      iszero\n      tag_191\n      jumpi\n      0x01\n      dup3\n      add\n      dup1\n      dup3\n      sstore\n      dup3\n      lt\n      iszero\n      tag_389\n      jumpi\n      0x00\n      mstore\n      keccak256(0x00, 0x20)\n      add\n      swap1\n      0x01\n      dup1\n      0xa0\n      shl\n      sub\n      and\n      shl(0xa0, 0xffffffffffffffffffffffff)\n      dup3\n      sload\n      and\n      or\n      swap1\n      sstore\n      jump\t// out\n    tag_389:\n      mstore(0x00, shl(0xe0, 0x4e487b71))\n      mstore(0x04, 0x32)\n      revert(0x00, 0x24)\n        /* \"ctiIncentiveDedupRegistry/ctiIncentiveDedupRegistry.sol\":13277:13863  function consumerUpgrade(string calldata txid,string calldata name, string calldata pubkey) external payable    {... */\n    tag_21:\n      swap5\n      swap2\n      swap3\n      swap1\n        /* \"ctiIncentiveDedupRegistry/ctiIncentiveDedupRegistry.sol\":7667:14922  contract AssignmentContract {... */\n      0x20\n      0x00\n      swap7\n      0x00\n      0x0100\n      mload(0x40)\n      tag_391\n      dup2\n      tag_5\n      jump\t// in\n    tag_391:\n      0x60\n      dup2\n      mstore\n      0x60\n      dup6\n      dup3\n      add\n      mstore\n      dup3\n      0x40\n      dup3\n      add\n      mstore\n      dup3\n      0x60\n      dup3\n      add\n      mstore\n      dup3\n      0x80\n      dup3\n      add\n      mstore\n      dup3\n      0xa0\n      dup3\n      add\n      mstore\n      dup3\n      0xc0\n      dup3\n      add\n      mstore\n      dup3\n      0xe0\n      dup3\n      add\n      mstore\n      add\n      mstore\n      dup3\n      mload(0x40)\n      swap4\n      dup5\n      swap3\n      dup4\n      calldatacopy\n      dup2\n      add\n        /* \"ctiIncentiveDedupRegistry/ctiIncentiveDedupRegistry.sol\":13435:13442  tx_list */\n      0x04\n        /* \"ctiIncentiveDedupRegistry/ctiIncentiveDedupRegistry.sol\":7667:14922  contract AssignmentContract {... */\n      dup2\n      mstore\n      sub\n      add\n      swap1\n      keccak256\n      swap4\n      mload(0x40)\n      swap4\n      tag_392\n      dup6\n      tag_5\n      jump\t// in\n    tag_392:\n      tag_393\n      dup7\n      tag_10\n      jump\t// in\n    tag_393:\n      dup6\n      mstore\n      tag_394\n      0x01\n      dup8\n      add\n      tag_10\n      jump\t// in\n    tag_394:\n      0x20\n      dup7\n      add\n      mstore\n      0x02\n      dup7\n      add\n      sload\n      sub(shl(0xa0, 0x01), 0x01)\n      swap1\n      dup2\n      and\n      0x40\n      dup8\n      add\n      mstore\n      0x03\n      dup8\n      add\n      sload\n      dup2\n      and\n      0x60\n      dup8\n      add\n      mstore\n        /* \"ctiIncentiveDedupRegistry/ctiIncentiveDedupRegistry.sol\":13435:13442  tx_list */\n      0x04\n        /* \"ctiIncentiveDedupRegistry/ctiIncentiveDedupRegistry.sol\":7667:14922  contract AssignmentContract {... */\n      dup8\n      add\n      sload\n      and\n      0x80\n      dup7\n      add\n      dup2\n      swap1\n      mstore\n      0x05\n      dup8\n      add\n      sload\n      0xa0\n      dup8\n      add\n      mstore\n      0x06\n      dup8\n      add\n      sload\n      0xc0\n      dup8\n      add\n      mstore\n      0x07\n      dup8\n      add\n      sload\n      0xe0\n      dup8\n      add\n      mstore\n      0x08\n      swap1\n      swap7\n      add\n      sload\n      0x0100\n      dup7\n      add\n      mstore\n        /* \"ctiIncentiveDedupRegistry/ctiIncentiveDedupRegistry.sol\":13466:13473  trc.tid */\n      dup5\n      mload\n        /* \"ctiIncentiveDedupRegistry/ctiIncentiveDedupRegistry.sol\":13462:13474  get(trc.tid) */\n      tag_395\n      swap1\n      tag_23\n      jump\t// in\n    tag_395:\n        /* \"ctiIncentiveDedupRegistry/ctiIncentiveDedupRegistry.sol\":7667:14922  contract AssignmentContract {... */\n      iszero\n        /* \"ctiIncentiveDedupRegistry/ctiIncentiveDedupRegistry.sol\":13458:13513  if (get(trc.tid)==false){... */\n      tag_396\n      jumpi\n      0x00\n        /* \"ctiIncentiveDedupRegistry/ctiIncentiveDedupRegistry.sol\":7667:14922  contract AssignmentContract {... */\n      sload\n      mload(0x40)\n      shl(0xe1, 0x7ec55a41)\n        /* \"ctiIncentiveDedupRegistry/ctiIncentiveDedupRegistry.sol\":13586:13626  delegator_contract.isDelegator(consumer) */\n      dup2\n      mstore\n        /* \"ctiIncentiveDedupRegistry/ctiIncentiveDedupRegistry.sol\":13435:13442  tx_list */\n      0x04\n        /* \"ctiIncentiveDedupRegistry/ctiIncentiveDedupRegistry.sol\":13586:13626  delegator_contract.isDelegator(consumer) */\n      dup2\n      add\n        /* \"ctiIncentiveDedupRegistry/ctiIncentiveDedupRegistry.sol\":7667:14922  contract AssignmentContract {... */\n      dup9\n      swap1\n      mstore\n      sub(shl(0xa0, 0x01), 0x01)\n      swap1\n      swap2\n      and\n      swap2\n      swap1\n      0x20\n      dup2\n        /* \"ctiIncentiveDedupRegistry/ctiIncentiveDedupRegistry.sol\":13586:13626  delegator_contract.isDelegator(consumer) */\n      0x24\n        /* \"ctiIncentiveDedupRegistry/ctiIncentiveDedupRegistry.sol\":7667:14922  contract AssignmentContract {... */\n      dup2\n      dup7\n        /* \"ctiIncentiveDedupRegistry/ctiIncentiveDedupRegistry.sol\":13586:13626  delegator_contract.isDelegator(consumer) */\n      gas\n      staticcall\n      swap1\n      dup2\n      iszero\n      tag_378\n      jumpi\n      0x00\n      swap2\n      tag_400\n      jumpi\n        /* \"ctiIncentiveDedupRegistry/ctiIncentiveDedupRegistry.sol\":13277:13863  function consumerUpgrade(string calldata txid,string calldata name, string calldata pubkey) external payable    {... */\n    tag_401:\n        /* \"ctiIncentiveDedupRegistry/ctiIncentiveDedupRegistry.sol\":7667:14922  contract AssignmentContract {... */\n      pop\n      iszero\n        /* \"ctiIncentiveDedupRegistry/ctiIncentiveDedupRegistry.sol\":13582:13718  if (delegator_contract.isDelegator(consumer)==false) {... */\n      tag_402\n      jumpi\n        /* \"ctiIncentiveDedupRegistry/ctiIncentiveDedupRegistry.sol\":13277:13863  function consumerUpgrade(string calldata txid,string calldata name, string calldata pubkey) external payable    {... */\n    tag_403:\n        /* \"ctiIncentiveDedupRegistry/ctiIncentiveDedupRegistry.sol\":13794:13801  trc.tid */\n      pop\n      pop\n      pop\n      pop\n      pop\n        /* \"ctiIncentiveDedupRegistry/ctiIncentiveDedupRegistry.sol\":7667:14922  contract AssignmentContract {... */\n      0x20\n        /* \"ctiIncentiveDedupRegistry/ctiIncentiveDedupRegistry.sol\":13794:13801  trc.tid */\n      dup1\n        /* \"ctiIncentiveDedupRegistry/ctiIncentiveDedupRegistry.sol\":13812:13856  assignment.delegators_address.push(consumer) */\n      tag_214\n        /* \"ctiIncentiveDedupRegistry/ctiIncentiveDedupRegistry.sol\":13794:13801  trc.tid */\n      swap5\n        /* \"ctiIncentiveDedupRegistry/ctiIncentiveDedupRegistry.sol\":7667:14922  contract AssignmentContract {... */\n      0x02\n        /* \"ctiIncentiveDedupRegistry/ctiIncentiveDedupRegistry.sol\":13794:13801  trc.tid */\n      swap4\n      mload\n        /* \"ctiIncentiveDedupRegistry/ctiIncentiveDedupRegistry.sol\":7667:14922  contract AssignmentContract {... */\n      swap1\n      pop\n      mload(0x40)\n      swap3\n      dup2\n      dup5\n      swap3\n      mload\n      swap2\n      dup3\n      swap2\n      add\n      dup4\n      mcopy\n      dup2\n      add\n      0x03\n      dup2\n      mstore\n      sub\n      add\n      swap1\n      keccak256\n        /* \"ctiIncentiveDedupRegistry/ctiIncentiveDedupRegistry.sol\":13812:13841  assignment.delegators_address */\n      add\n        /* \"ctiIncentiveDedupRegistry/ctiIncentiveDedupRegistry.sol\":13812:13856  assignment.delegators_address.push(consumer) */\n      tag_20\n      jump\t// in\n        /* \"ctiIncentiveDedupRegistry/ctiIncentiveDedupRegistry.sol\":13582:13718  if (delegator_contract.isDelegator(consumer)==false) {... */\n    tag_402:\n        /* \"ctiIncentiveDedupRegistry/ctiIncentiveDedupRegistry.sol\":13649:13707  delegator_contract.Register{value:msg.value}(name, pubkey) */\n      dup2\n      extcodesize\n      iszero\n      tag_63\n      jumpi\n      0x00\n        /* \"ctiIncentiveDedupRegistry/ctiIncentiveDedupRegistry.sol\":7667:14922  contract AssignmentContract {... */\n      swap4\n      tag_407\n      tag_408\n      swap5\n      mload(0x40)\n      swap8\n      dup9\n      swap7\n      dup8\n      swap6\n      dup7\n      swap6\n      shl(0xe0, 0xd6192e29)\n        /* \"ctiIncentiveDedupRegistry/ctiIncentiveDedupRegistry.sol\":13649:13707  delegator_contract.Register{value:msg.value}(name, pubkey) */\n      dup8\n      mstore\n        /* \"ctiIncentiveDedupRegistry/ctiIncentiveDedupRegistry.sol\":7667:14922  contract AssignmentContract {... */\n      0x40\n        /* \"ctiIncentiveDedupRegistry/ctiIncentiveDedupRegistry.sol\":13435:13442  tx_list */\n      0x04\n        /* \"ctiIncentiveDedupRegistry/ctiIncentiveDedupRegistry.sol\":13649:13707  delegator_contract.Register{value:msg.value}(name, pubkey) */\n      dup9\n      add\n        /* \"ctiIncentiveDedupRegistry/ctiIncentiveDedupRegistry.sol\":7667:14922  contract AssignmentContract {... */\n      mstore\n      0x44\n      dup8\n      add\n      swap2\n      tag_14\n      jump\t// in\n    tag_408:\n      dup5\n      dup2\n      sub\n      not(0x03)\n      add\n        /* \"ctiIncentiveDedupRegistry/ctiIncentiveDedupRegistry.sol\":13586:13626  delegator_contract.isDelegator(consumer) */\n      0x24\n        /* \"ctiIncentiveDedupRegistry/ctiIncentiveDedupRegistry.sol\":7667:14922  contract AssignmentContract {... */\n      dup7\n      add\n      mstore\n      swap2\n      tag_14\n      jump\t// in\n    tag_407:\n        /* \"ctiIncentiveDedupRegistry/ctiIncentiveDedupRegistry.sol\":13649:13707  delegator_contract.Register{value:msg.value}(name, pubkey) */\n      sub\n        /* \"ctiIncentiveDedupRegistry/ctiIncentiveDedupRegistry.sol\":13683:13692  msg.value */\n      swap2\n      callvalue\n        /* \"ctiIncentiveDedupRegistry/ctiIncentiveDedupRegistry.sol\":13649:13707  delegator_contract.Register{value:msg.value}(name, pubkey) */\n      swap1\n      gas\n      call\n      dup1\n      iszero\n      tag_378\n      jumpi\n        /* \"ctiIncentiveDedupRegistry/ctiIncentiveDedupRegistry.sol\":13812:13856  assignment.delegators_address.push(consumer) */\n      tag_214\n        /* \"ctiIncentiveDedupRegistry/ctiIncentiveDedupRegistry.sol\":13649:13707  delegator_contract.Register{value:msg.value}(name, pubkey) */\n      swap5\n        /* \"ctiIncentiveDedupRegistry/ctiIncentiveDedupRegistry.sol\":7667:14922  contract AssignmentContract {... */\n      0x02\n        /* \"ctiIncentiveDedupRegistry/ctiIncentiveDedupRegistry.sol\":13649:13707  delegator_contract.Register{value:msg.value}(name, pubkey) */\n      swap4\n        /* \"ctiIncentiveDedupRegistry/ctiIncentiveDedupRegistry.sol\":7667:14922  contract AssignmentContract {... */\n      0x20\n        /* \"ctiIncentiveDedupRegistry/ctiIncentiveDedupRegistry.sol\":13649:13707  delegator_contract.Register{value:msg.value}(name, pubkey) */\n      swap4\n      dup5\n      swap4\n      tag_411\n      jumpi\n        /* \"ctiIncentiveDedupRegistry/ctiIncentiveDedupRegistry.sol\":13582:13718  if (delegator_contract.isDelegator(consumer)==false) {... */\n    tag_412:\n      dup3\n      swap8\n      pop\n      dup2\n      swap6\n      pop\n      jump(tag_403)\n        /* \"ctiIncentiveDedupRegistry/ctiIncentiveDedupRegistry.sol\":13649:13707  delegator_contract.Register{value:msg.value}(name, pubkey) */\n    tag_411:\n      tag_413\n      swap2\n      swap3\n      pop\n      0x00\n      swap1\n      tag_6\n      jump\t// in\n    tag_413:\n      0x00\n      swap1\n      0x00\n      jump(tag_412)\n        /* \"ctiIncentiveDedupRegistry/ctiIncentiveDedupRegistry.sol\":13586:13626  delegator_contract.isDelegator(consumer) */\n    tag_400:\n      swap1\n      pop\n        /* \"ctiIncentiveDedupRegistry/ctiIncentiveDedupRegistry.sol\":7667:14922  contract AssignmentContract {... */\n      0x20\n        /* \"ctiIncentiveDedupRegistry/ctiIncentiveDedupRegistry.sol\":13586:13626  delegator_contract.isDelegator(consumer) */\n      dup2\n      returndatasize\n        /* \"ctiIncentiveDedupRegistry/ctiIncentiveDedupRegistry.sol\":7667:14922  contract AssignmentContract {... */\n      0x20\n        /* \"ctiIncentiveDedupRegistry/ctiIncentiveDedupRegistry.sol\":13586:13626  delegator_contract.isDelegator(consumer) */\n      gt\n      tag_414\n      jumpi\n    tag_415:\n      dup2\n      tag_416\n        /* \"ctiIncentiveDedupRegistry/ctiIncentiveDedupRegistry.sol\":7667:14922  contract AssignmentContract {... */\n      0x20\n        /* \"ctiIncentiveDedupRegistry/ctiIncentiveDedupRegistry.sol\":13586:13626  delegator_contract.isDelegator(consumer) */\n      swap4\n      dup4\n      tag_6\n      jump\t// in\n    tag_416:\n      dup2\n      add\n        /* \"ctiIncentiveDedupRegistry/ctiIncentiveDedupRegistry.sol\":7667:14922  contract AssignmentContract {... */\n      sub\n      slt\n      tag_63\n      jumpi\n      mload\n      dup1\n      iszero\n      iszero\n      dup2\n      sub\n      tag_63\n      jumpi\n        /* \"ctiIncentiveDedupRegistry/ctiIncentiveDedupRegistry.sol\":13586:13626  delegator_contract.isDelegator(consumer) */\n      0x00\n      jump(tag_401)\n    tag_414:\n      returndatasize\n      swap2\n      pop\n      jump(tag_415)\n        /* \"ctiIncentiveDedupRegistry/ctiIncentiveDedupRegistry.sol\":13458:13513  if (get(trc.tid)==false){... */\n    tag_396:\n        /* \"ctiIncentiveDedupRegistry/ctiIncentiveDedupRegistry.sol\":13496:13503  return; */\n      pop\n      pop\n      pop\n      pop\n      pop\n      pop\n      pop\n      jump\t// out\n        /* \"ctiIncentiveDedupRegistry/ctiIncentiveDedupRegistry.sol\":13923:14159  function VerifyAssignment(... */\n    tag_22:\n      swap2\n        /* \"ctiIncentiveDedupRegistry/ctiIncentiveDedupRegistry.sol\":7667:14922  contract AssignmentContract {... */\n      iszero\n      iszero\n        /* \"ctiIncentiveDedupRegistry/ctiIncentiveDedupRegistry.sol\":14047:14051  true */\n      0x01\n        /* \"ctiIncentiveDedupRegistry/ctiIncentiveDedupRegistry.sol\":14040:14051  opt == true */\n      eq\n        /* \"ctiIncentiveDedupRegistry/ctiIncentiveDedupRegistry.sol\":14036:14131  if (opt == true) {... */\n      tag_421\n      jumpi\n        /* \"ctiIncentiveDedupRegistry/ctiIncentiveDedupRegistry.sol\":14140:14152  return false */\n      pop\n      pop\n        /* \"ctiIncentiveDedupRegistry/ctiIncentiveDedupRegistry.sol\":7667:14922  contract AssignmentContract {... */\n      0x00\n        /* \"ctiIncentiveDedupRegistry/ctiIncentiveDedupRegistry.sol\":13923:14159  function VerifyAssignment(... */\n      swap1\n      jump\t// out\n        /* \"ctiIncentiveDedupRegistry/ctiIncentiveDedupRegistry.sol\":14036:14131  if (opt == true) {... */\n    tag_421:\n        /* \"ctiIncentiveDedupRegistry/ctiIncentiveDedupRegistry.sol\":7667:14922  contract AssignmentContract {... */\n      0x20\n        /* \"ctiIncentiveDedupRegistry/ctiIncentiveDedupRegistry.sol\":14067:14095  record[tid].push(msg.sender) */\n      tag_423\n        /* \"ctiIncentiveDedupRegistry/ctiIncentiveDedupRegistry.sol\":7667:14922  contract AssignmentContract {... */\n      swap3\n      dup3\n      mload(0x40)\n      swap4\n      dup5\n      swap3\n      dup4\n      calldatacopy\n      dup2\n      add\n        /* \"ctiIncentiveDedupRegistry/ctiIncentiveDedupRegistry.sol\":14067:14073  record */\n      0x02\n        /* \"ctiIncentiveDedupRegistry/ctiIncentiveDedupRegistry.sol\":7667:14922  contract AssignmentContract {... */\n      dup2\n      mstore\n      sub\n      add\n      swap1\n      keccak256\n        /* \"ctiIncentiveDedupRegistry/ctiIncentiveDedupRegistry.sol\":14084:14094  msg.sender */\n      caller\n        /* \"ctiIncentiveDedupRegistry/ctiIncentiveDedupRegistry.sol\":14067:14095  record[tid].push(msg.sender) */\n      swap1\n      tag_20\n      jump\t// in\n    tag_423:\n        /* \"ctiIncentiveDedupRegistry/ctiIncentiveDedupRegistry.sol\":14047:14051  true */\n      0x01\n        /* \"ctiIncentiveDedupRegistry/ctiIncentiveDedupRegistry.sol\":14109:14120  return true */\n      swap1\n      jump\t// out\n        /* \"ctiIncentiveDedupRegistry/ctiIncentiveDedupRegistry.sol\":14762:14920  function get(string memory str) internal pure returns(bool){... */\n    tag_23:\n        /* \"ctiIncentiveDedupRegistry/ctiIncentiveDedupRegistry.sol\":7667:14922  contract AssignmentContract {... */\n      mload\n        /* \"ctiIncentiveDedupRegistry/ctiIncentiveDedupRegistry.sol\":14835:14855  bytes(str).length==0 */\n      iszero\n        /* \"ctiIncentiveDedupRegistry/ctiIncentiveDedupRegistry.sol\":14831:14893  if (bytes(str).length==0){... */\n      tag_424\n      jumpi\n        /* \"ctiIncentiveDedupRegistry/ctiIncentiveDedupRegistry.sol\":14909:14913  true */\n      0x01\n        /* \"ctiIncentiveDedupRegistry/ctiIncentiveDedupRegistry.sol\":14762:14920  function get(string memory str) internal pure returns(bool){... */\n      swap1\n      jump\t// out\n        /* \"ctiIncentiveDedupRegistry/ctiIncentiveDedupRegistry.sol\":14831:14893  if (bytes(str).length==0){... */\n    tag_424:\n        /* \"ctiIncentiveDedupRegistry/ctiIncentiveDedupRegistry.sol\":7667:14922  contract AssignmentContract {... */\n      0x00\n        /* \"ctiIncentiveDedupRegistry/ctiIncentiveDedupRegistry.sol\":14870:14882  return false */\n      swap1\n      jump\t// out\n\n    auxdata: 0xa26469706673582212208d1d26acedd898ec5bafeca2ec8bd5dc567948e284ba6b226791af856613e4f264736f6c634300081a0033\n}\n",
				"bytecode": {
					"linkReferences": {},
					"object": "608034607f57601f6118d238819003918201601f19168301916001600160401b03831184841017608357808492602094604052833981010312607f57516001600160a01b03811690819003607f57601460055566071afd498d00006006555f80546001600160a01b03191691909117905560405161183a90816100988239f35b5f80fd5b634e487b7160e01b5f52604160045260245ffdfe6080806040526004361015610012575f80fd5b5f3560e01c908163022a60891461062d57508063358b8166146101c857806382da59f21461058057806383cf6c95146105325780639461a963146104e1578063b3a1c86414610458578063cf99f51d14610365578063d0b13a6214610348578063dc7e701e14610314578063e259907814610278578063ea7937c214610200578063ee204abb146101c8578063f26d9918146101755763fa4a3287146100b6575f80fd5b34610171576060366003190112610171576004356001600160401b038111610171576100e6903690600401610671565b6024356001600160a01b03811690819003610171576044356001600160401b038111610171577f696776fbada6026b2cc4883473b601f70eed8609668c456c07681055dca814f09361015e61014261016c933690600401610671565b91909260405196879687526060602088015260608701916108a6565b9184830360408601526108a6565b0390a1005b5f80fd5b34610171576040366003190112610171576004356001600160401b038111610171576101a5903690600401610671565b906024358015158103610171576020926101be926117c0565b6040519015158152f35b34610171576020366003190112610171576001600160a01b036101e9610647565b165f526001602052602060405f2054604051908152f35b6060366003190112610171576004356001600160401b0381116101715761022b903690600401610671565b6024356001600160401b0381116101715761024a903690600401610671565b60443593916001600160401b0385116101715761026e610276953690600401610671565b94909361159a565b005b34610171576020366003190112610171576004356001600160401b0381116101715760206102ad6102c7923690600401610671565b919082604051938492833781016002815203019020610cf5565b6040518091602082016020835281518091526020604084019201905f5b8181106102f2575050500390f35b82516001600160a01b03168452859450602093840193909201916001016102e4565b6020366003190112610171576004356001600160401b03811161017157610342610276913690600401610671565b906112b2565b34610171575f366003190112610171576020600554604051908152f35b34610171576020366003190112610171576004356001600160401b0381116101715760208061039b61042193369060040161074f565b604051928184925191829101835e810160048152030190206103bc816107a5565b906103c9600182016107a5565b60018060a01b036002830154169160018060a01b0360038201541660018060a01b0360048301541660058301549060068401549261042f60086007870154960154966040519a8b9a6101208c526101208c0190610845565b908a820360208c0152610845565b9660408901526060880152608087015260a086015260c085015260e08401526101008301520390f35b6080366003190112610171576004356001600160401b0381116101715761048390369060040161074f565b6024356001600160401b038111610171576104a290369060040161074f565b604435916001600160a01b038316830361017157606435926001600160401b038411610171576104d9610276943690600401610671565b939092610d53565b34610171576020366003190112610171576004356064811161050257600555005b60405162461bcd60e51b81526020600482015260086024820152670a8dede40d0d2ced60c31b6044820152606490fd5b3461017157602036600319011261017157600435801561055157600655005b60405162461bcd60e51b8152602060048201526007602482015266125b9d985b1a5960ca1b6044820152606490fd5b346101715760c0366003190112610171576004356001600160401b038111610171576105b0903690600401610671565b906024356001600160401b03811161017157366023820112156101715780600401356001600160401b038111610171573660248260051b840101116101715760a435926001600160401b038411610171576020946106156101be953690600401610671565b949093608435936064359360246044359401916108c6565b34610171575f366003190112610171576020906006548152f35b600435906001600160a01b038216820361017157565b35906001600160a01b038216820361017157565b9181601f84011215610171578235916001600160401b038311610171576020838186019501011161017157565b60e081019081106001600160401b038211176106b957604052565b634e487b7160e01b5f52604160045260245ffd5b61012081019081106001600160401b038211176106b957604052565b90601f801991011681019081106001600160401b038211176106b957604052565b9291926001600160401b0382116106b95760405191610733601f8201601f1916602001846106e9565b829481845281830111610171578281602093845f960137010152565b9080601f830112156101715781602061076a9335910161070a565b90565b90600182811c9216801561079b575b602083101461078757565b634e487b7160e01b5f52602260045260245ffd5b91607f169161077c565b9060405191825f8254926107b88461076d565b808452936001811690811561082357506001146107df575b506107dd925003836106e9565b565b90505f9291925260205f20905f915b8183106108075750509060206107dd928201015f6107d0565b60209193508060019154838589010152019101909184926107ee565b9050602092506107dd94915060ff191682840152151560051b8201015f6107d0565b805180835260209291819084018484015e5f828201840152601f01601f1916010190565b818110610874575050565b5f8155600101610869565b8181029291811591840414171561089257565b634e487b7160e01b5f52601160045260245ffd5b908060209392818452848401375f828201840152601f01601f1916010190565b92969598979490939198808201808311610892578303610ce857604051916108ed8361069e565b6108f836878761070a565b835260208301933385526001600160401b038a116106b9578960051b8c6040519161092660208201846106e9565b8c83520160208201368211610171578e905b828210610cd05750505060408501908152606085019182526080850192835260a08501938452610969368a8c61070a565b9560c08601968752604051898982376020818b8101600381520301902095518051906001600160401b0382116106b95781906109a5895461076d565b601f8111610ca0575b50602090601f8311600114610c3d575f92610c32575b50508160011b915f199060031b1c19161786555b516001860180546001600160a01b0319166001600160a01b03929092169190911790555180519060028601906001600160401b0383116106b957600160401b83116106b9576020908254848455808510610c17575b5001905f5260205f205f5b838110610bfa57505050509060069392915160038401555160048301555160058201550190518051906001600160401b0382116106b9578190610a7b845461076d565b601f8111610bbf575b50602090601f8311600114610b5c575f92610b51575b50508160011b915f199060031b1c19161790555b604051948060808701608088525260a0860197905f5b818110610b255750505091610b0f7ff52fcbc5cb218bae54b5dee4a14189098257cb16cc5649f3daeff8c73a56104d9697869593610b1d9533602089015287830360408901526108a6565b9184830360608601526108a6565b0390a1600190565b919890919060019060209081906001600160a01b03610b438e61065d565b168152019a01929101610ac4565b015190505f80610a9a565b5f8581528281209350601f198516905b818110610ba75750908460019594939210610b8f575b505050811b019055610aae565b01515f1960f88460031b161c191690555f8080610b82565b92936020600181928786015181550195019301610b6c565b610bea90855f5260205f20601f850160051c81019160208610610bf0575b601f0160051c0190610869565b5f610a84565b9091508190610bdd565b82516001600160a01b031681830155602090920191600101610a38565b610c2c90845f5285845f209182019101610869565b5f610a2d565b015190505f806109c4565b5f8a81528281209350601f198516905b818110610c885750908460019594939210610c70575b505050811b0186556109d8565b01515f1960f88460031b161c191690555f8080610c63565b92936020600181928786015181550195019301610c4d565b610cca908a5f5260205f20601f850160051c81019160208610610bf057601f0160051c0190610869565b5f6109ae565b60208091610cdd8461065d565b815201910190610938565b505f985050505050505050565b90604051918281549182825260208201905f5260205f20925f5b818110610d245750506107dd925003836106e9565b84546001600160a01b0316835260019485019487945060209093019201610d0f565b9190820391821161089257565b9394929190916040519585519660208181890199808b835e810160038152030190209660405196610d838861069e565b610d8c896107a5565b885260018901546001600160a01b03166020890190815298610db060028201610cf5565b60408a0152610e0c60038201549360608b01948552602060048401549460808d019586528c60c0610def600660058901549860a08501998a52016107a5565b910152604051928391518091835e81016002815203019020610cf5565b805199905f805b8c8110156112a057600581901b8301602001516001600160a01b038b8116911614610e4057600101610e13565b5050509091929394959697985060015b156112945783516064610e656005548361087f565b0490335f526001602052610e9560405f205492610e85600654809561087f565b8181111561128b57508092610d46565b341061124f57811561123b57048061121c575b50519860018060a01b039051169251915190519160405199610ec98b6106cd565b8a5260208a019388855260408b015260018060a01b03871660608b01523360808b015260a08a015260c089015260e08801525f610100880152604051602081875180838a01835e810160048152030190209087518051906001600160401b0382116106b9578190610f3a855461076d565b601f81116111ec575b50602090601f8311600114611189575f9261117e575b50508160011b915f199060031b1c19161782555b519687516001600160401b0381116106b957610f8c600184015461076d565b601f811161114b575b506020601f82116001146110b3576110a39594939282600893610100937fa82fdb4b07891794fe0bcde99c7d434289ff9320ff626ff65b07a002202557779c9d5f926110a8575b50508160011b915f199060031b1c19161760018501555b6040818101516002860180546001600160a01b03199081166001600160a01b0393841617909155606084015160038801805483169184169190911790556080808501516004890180549093169084161790915560a0840151600588015560c0840151600688015560e0840151600788015593909201519390940192909255915195168552602085018190529394859461108f9190860190610845565b9134604086015284830360608601526108a6565b0390a1565b015190505f80610fdc565b600184015f52805f20995f5b601f19841681106111335750926001837fa82fdb4b07891794fe0bcde99c7d434289ff9320ff626ff65b07a002202557779b9c610100946110a39a999897600897601f1981161061111b575b505050811b016001850155610ff3565b01515f1960f88460031b161c191690555f808061110b565b828201518c556001909b019a602092830192016110bf565b61117890600185015f5260205f20601f840160051c81019160208510610bf057601f0160051c0190610869565b5f610f95565b015190505f80610f59565b5f8681528281209350601f198516905b8181106111d457509084600195949392106111bc575b505050811b018255610f6d565b01515f1960f88460031b161c191690555f80806111af565b92936020600181928786015181550195019301611199565b61121690865f5260205f20601f850160051c81019160208610610bf057601f0160051c0190610869565b5f610f43565b335f52600160205261123360405f20918254610d46565b90555f610ea8565b634e487b7160e01b5f52601260045260245ffd5b60405162461bcd60e51b8152602060048201526014602482015273125b9cdd59999a58da595b9d081c185e5b595b9d60621b6044820152606490fd5b90508092610d46565b50505050505050509050565b509192939495969798999a5050610e50565b6040518282823760208184810160048152030190206101006008604051926112d9846106cd565b6112e2816107a5565b84526112f0600182016107a5565b602085015260028101546001600160a01b0390811660408087019190915260038301548216606087015260048301549091166080860152600582015460a0860152600682015460c0860152600782015460e08601529101549190920152518282823760208184810160048152030190209160405161136d816106cd565b611376846107a5565b8152611384600185016107a5565b602082015260018060a01b0360028501541690604081019482865260018060a01b0360038201541691606081019383855260018060a01b0360048401541690816080840152600584015460a08401526006840154918260c08501526001610100600860078801549760e08801988952015495019480865214611535573303610171575f809392819392600183945282821561152c575bf115611518575f80809381935190828215611523575bf1156115185783516001600160a01b03165f9081526001602052604090208054600a810191908210610892575580516001600160a01b03165f908152600160205260409020805460058101919082106108925755335f52600160205260405f2093845460028101809111610892577f3ca4856774fe33fc92bdfc265c349721ad30590e023f1b868557bc3db326c7cb955560018060a01b039051169060018060a01b039051166114ed60405194859460e0865260e08601916108a6565b913360208501526040840152606083015260026080830152600a60a0830152600560c08301520390a1565b6040513d5f823e3d90fd5b506108fc611430565b506108fc61141a565b50505050505050505050565b805490600160401b8210156106b95760018201808255821015611586575f5260205f20019060018060a01b03166bffffffffffffffffffffffff60a01b825416179055565b634e487b7160e01b5f52603260045260245ffd5b9491929060205f965f6101006040516115b2816106cd565b606081526060858201528260408201528260608201528260808201528260a08201528260c08201528260e08201520152826040519384928337810160048152030190209360405193611603856106cd565b61160c866107a5565b855261161a600187016107a5565b602086015260028601546001600160a01b03908116604087015260038701548116606087015260048701541660808601819052600587015460a0870152600687015460c0870152600787015460e08701526008909601546101008601528451611682906117f5565b156117b7575f54604051637ec55a4160e11b8152600481018890526001600160a01b039091169190602081602481865afa908115611518575f9161177c575b50156116f8575b50505050506020806107dd94600293519050604051928184925191829101835e8101600381520301902001611541565b813b15610171575f9361173f61172d946040519788968795869563d6192e2960e01b87526040600488015260448701916108a6565b848103600319016024860152916108a6565b039134905af18015611518576107dd946002936020938493611767575b8297508195506116c8565b6117749192505f906106e9565b5f905f61175c565b90506020813d6020116117af575b81611797602093836106e9565b8101031261017157518015158103610171575f6116c1565b3d915061178a565b50505050505050565b9115156001146117d05750505f90565b60206117f092826040519384928337810160028152030190203390611541565b600190565b511561180057600190565b5f9056fea26469706673582212208d1d26acedd898ec5bafeca2ec8bd5dc567948e284ba6b226791af856613e4f264736f6c634300081a0033",
					"opcodes": "PUSH1 0x80 CALLVALUE PUSH1 0x7F JUMPI PUSH1 0x1F PUSH2 0x18D2 CODESIZE DUP2 SWAP1 SUB SWAP2 DUP3 ADD PUSH1 0x1F NOT AND DUP4 ADD SWAP2 PUSH1 0x1 PUSH1 0x1 PUSH1 0x40 SHL SUB DUP4 GT DUP5 DUP5 LT OR PUSH1 0x83 JUMPI DUP1 DUP5 SWAP3 PUSH1 0x20 SWAP5 PUSH1 0x40 MSTORE DUP4 CODECOPY DUP2 ADD SUB SLT PUSH1 0x7F JUMPI MLOAD PUSH1 0x1 PUSH1 0x1 PUSH1 0xA0 SHL SUB DUP2 AND SWAP1 DUP2 SWAP1 SUB PUSH1 0x7F JUMPI PUSH1 0x14 PUSH1 0x5 SSTORE PUSH7 0x71AFD498D0000 PUSH1 0x6 SSTORE PUSH0 DUP1 SLOAD PUSH1 0x1 PUSH1 0x1 PUSH1 0xA0 SHL SUB NOT AND SWAP2 SWAP1 SWAP2 OR SWAP1 SSTORE PUSH1 0x40 MLOAD PUSH2 0x183A SWAP1 DUP2 PUSH2 0x98 DUP3 CODECOPY RETURN JUMPDEST PUSH0 DUP1 REVERT JUMPDEST PUSH4 0x4E487B71 PUSH1 0xE0 SHL PUSH0 MSTORE PUSH1 0x41 PUSH1 0x4 MSTORE PUSH1 0x24 PUSH0 REVERT INVALID PUSH1 0x80 DUP1 PUSH1 0x40 MSTORE PUSH1 0x4 CALLDATASIZE LT ISZERO PUSH2 0x12 JUMPI PUSH0 DUP1 REVERT JUMPDEST PUSH0 CALLDATALOAD PUSH1 0xE0 SHR SWAP1 DUP2 PUSH4 0x22A6089 EQ PUSH2 0x62D JUMPI POP DUP1 PUSH4 0x358B8166 EQ PUSH2 0x1C8 JUMPI DUP1 PUSH4 0x82DA59F2 EQ PUSH2 0x580 JUMPI DUP1 PUSH4 0x83CF6C95 EQ PUSH2 0x532 JUMPI DUP1 PUSH4 0x9461A963 EQ PUSH2 0x4E1 JUMPI DUP1 PUSH4 0xB3A1C864 EQ PUSH2 0x458 JUMPI DUP1 PUSH4 0xCF99F51D EQ PUSH2 0x365 JUMPI DUP1 PUSH4 0xD0B13A62 EQ PUSH2 0x348 JUMPI DUP1 PUSH4 0xDC7E701E EQ PUSH2 0x314 JUMPI DUP1 PUSH4 0xE2599078 EQ PUSH2 0x278 JUMPI DUP1 PUSH4 0xEA7937C2 EQ PUSH2 0x200 JUMPI DUP1 PUSH4 0xEE204ABB EQ PUSH2 0x1C8 JUMPI DUP1 PUSH4 0xF26D9918 EQ PUSH2 0x175 JUMPI PUSH4 0xFA4A3287 EQ PUSH2 0xB6 JUMPI PUSH0 DUP1 REVERT JUMPDEST CALLVALUE PUSH2 0x171 JUMPI PUSH1 0x60 CALLDATASIZE PUSH1 0x3 NOT ADD SLT PUSH2 0x171 JUMPI PUSH1 0x4 CALLDATALOAD PUSH1 0x1 PUSH1 0x1 PUSH1 0x40 SHL SUB DUP2 GT PUSH2 0x171 JUMPI PUSH2 0xE6 SWAP1 CALLDATASIZE SWAP1 PUSH1 0x4 ADD PUSH2 0x671 JUMP JUMPDEST PUSH1 0x24 CALLDATALOAD PUSH1 0x1 PUSH1 0x1 PUSH1 0xA0 SHL SUB DUP2 AND SWAP1 DUP2 SWAP1 SUB PUSH2 0x171 JUMPI PUSH1 0x44 CALLDATALOAD PUSH1 0x1 PUSH1 0x1 PUSH1 0x40 SHL SUB DUP2 GT PUSH2 0x171 JUMPI PUSH32 0x696776FBADA6026B2CC4883473B601F70EED8609668C456C07681055DCA814F0 SWAP4 PUSH2 0x15E PUSH2 0x142 PUSH2 0x16C SWAP4 CALLDATASIZE SWAP1 PUSH1 0x4 ADD PUSH2 0x671 JUMP JUMPDEST SWAP2 SWAP1 SWAP3 PUSH1 0x40 MLOAD SWAP7 DUP8 SWAP7 DUP8 MSTORE PUSH1 0x60 PUSH1 0x20 DUP9 ADD MSTORE PUSH1 0x60 DUP8 ADD SWAP2 PUSH2 0x8A6 JUMP JUMPDEST SWAP2 DUP5 DUP4 SUB PUSH1 0x40 DUP7 ADD MSTORE PUSH2 0x8A6 JUMP JUMPDEST SUB SWAP1 LOG1 STOP JUMPDEST PUSH0 DUP1 REVERT JUMPDEST CALLVALUE PUSH2 0x171 JUMPI PUSH1 0x40 CALLDATASIZE PUSH1 0x3 NOT ADD SLT PUSH2 0x171 JUMPI PUSH1 0x4 CALLDATALOAD PUSH1 0x1 PUSH1 0x1 PUSH1 0x40 SHL SUB DUP2 GT PUSH2 0x171 JUMPI PUSH2 0x1A5 SWAP1 CALLDATASIZE SWAP1 PUSH1 0x4 ADD PUSH2 0x671 JUMP JUMPDEST SWAP1 PUSH1 0x24 CALLDATALOAD DUP1 ISZERO ISZERO DUP2 SUB PUSH2 0x171 JUMPI PUSH1 0x20 SWAP3 PUSH2 0x1BE SWAP3 PUSH2 0x17C0 JUMP JUMPDEST PUSH1 0x40 MLOAD SWAP1 ISZERO ISZERO DUP2 MSTORE RETURN JUMPDEST CALLVALUE PUSH2 0x171 JUMPI PUSH1 0x20 CALLDATASIZE PUSH1 0x3 NOT ADD SLT PUSH2 0x171 JUMPI PUSH1 0x1 PUSH1 0x1 PUSH1 0xA0 SHL SUB PUSH2 0x1E9 PUSH2 0x647 JUMP JUMPDEST AND PUSH0 MSTORE PUSH1 0x1 PUSH1 0x20 MSTORE PUSH1 0x20 PUSH1 0x40 PUSH0 KECCAK256 SLOAD PUSH1 0x40 MLOAD SWAP1 DUP2 MSTORE RETURN JUMPDEST PUSH1 0x60 CALLDATASIZE PUSH1 0x3 NOT ADD SLT PUSH2 0x171 JUMPI PUSH1 0x4 CALLDATALOAD PUSH1 0x1 PUSH1 0x1 PUSH1 0x40 SHL SUB DUP2 GT PUSH2 0x171 JUMPI PUSH2 0x22B SWAP1 CALLDATASIZE SWAP1 PUSH1 0x4 ADD PUSH2 0x671 JUMP JUMPDEST PUSH1 0x24 CALLDATALOAD PUSH1 0x1 PUSH1 0x1 PUSH1 0x40 SHL SUB DUP2 GT PUSH2 0x171 JUMPI PUSH2 0x24A SWAP1 CALLDATASIZE SWAP1 PUSH1 0x4 ADD PUSH2 0x671 JUMP JUMPDEST PUSH1 0x44 CALLDATALOAD SWAP4 SWAP2 PUSH1 0x1 PUSH1 0x1 PUSH1 0x40 SHL SUB DUP6 GT PUSH2 0x171 JUMPI PUSH2 0x26E PUSH2 0x276 SWAP6 CALLDATASIZE SWAP1 PUSH1 0x4 ADD PUSH2 0x671 JUMP JUMPDEST SWAP5 SWAP1 SWAP4 PUSH2 0x159A JUMP JUMPDEST STOP JUMPDEST CALLVALUE PUSH2 0x171 JUMPI PUSH1 0x20 CALLDATASIZE PUSH1 0x3 NOT ADD SLT PUSH2 0x171 JUMPI PUSH1 0x4 CALLDATALOAD PUSH1 0x1 PUSH1 0x1 PUSH1 0x40 SHL SUB DUP2 GT PUSH2 0x171 JUMPI PUSH1 0x20 PUSH2 0x2AD PUSH2 0x2C7 SWAP3 CALLDATASIZE SWAP1 PUSH1 0x4 ADD PUSH2 0x671 JUMP JUMPDEST SWAP2 SWAP1 DUP3 PUSH1 0x40 MLOAD SWAP4 DUP5 SWAP3 DUP4 CALLDATACOPY DUP2 ADD PUSH1 0x2 DUP2 MSTORE SUB ADD SWAP1 KECCAK256 PUSH2 0xCF5 JUMP JUMPDEST PUSH1 0x40 MLOAD DUP1 SWAP2 PUSH1 0x20 DUP3 ADD PUSH1 0x20 DUP4 MSTORE DUP2 MLOAD DUP1 SWAP2 MSTORE PUSH1 0x20 PUSH1 0x40 DUP5 ADD SWAP3 ADD SWAP1 PUSH0 JUMPDEST DUP2 DUP2 LT PUSH2 0x2F2 JUMPI POP POP POP SUB SWAP1 RETURN JUMPDEST DUP3 MLOAD PUSH1 0x1 PUSH1 0x1 PUSH1 0xA0 SHL SUB AND DUP5 MSTORE DUP6 SWAP5 POP PUSH1 0x20 SWAP4 DUP5 ADD SWAP4 SWAP1 SWAP3 ADD SWAP2 PUSH1 0x1 ADD PUSH2 0x2E4 JUMP JUMPDEST PUSH1 0x20 CALLDATASIZE PUSH1 0x3 NOT ADD SLT PUSH2 0x171 JUMPI PUSH1 0x4 CALLDATALOAD PUSH1 0x1 PUSH1 0x1 PUSH1 0x40 SHL SUB DUP2 GT PUSH2 0x171 JUMPI PUSH2 0x342 PUSH2 0x276 SWAP2 CALLDATASIZE SWAP1 PUSH1 0x4 ADD PUSH2 0x671 JUMP JUMPDEST SWAP1 PUSH2 0x12B2 JUMP JUMPDEST CALLVALUE PUSH2 0x171 JUMPI PUSH0 CALLDATASIZE PUSH1 0x3 NOT ADD SLT PUSH2 0x171 JUMPI PUSH1 0x20 PUSH1 0x5 SLOAD PUSH1 0x40 MLOAD SWAP1 DUP2 MSTORE RETURN JUMPDEST CALLVALUE PUSH2 0x171 JUMPI PUSH1 0x20 CALLDATASIZE PUSH1 0x3 NOT ADD SLT PUSH2 0x171 JUMPI PUSH1 0x4 CALLDATALOAD PUSH1 0x1 PUSH1 0x1 PUSH1 0x40 SHL SUB DUP2 GT PUSH2 0x171 JUMPI PUSH1 0x20 DUP1 PUSH2 0x39B PUSH2 0x421 SWAP4 CALLDATASIZE SWAP1 PUSH1 0x4 ADD PUSH2 0x74F JUMP JUMPDEST PUSH1 0x40 MLOAD SWAP3 DUP2 DUP5 SWAP3 MLOAD SWAP2 DUP3 SWAP2 ADD DUP4 MCOPY DUP2 ADD PUSH1 0x4 DUP2 MSTORE SUB ADD SWAP1 KECCAK256 PUSH2 0x3BC DUP2 PUSH2 0x7A5 JUMP JUMPDEST SWAP1 PUSH2 0x3C9 PUSH1 0x1 DUP3 ADD PUSH2 0x7A5 JUMP JUMPDEST PUSH1 0x1 DUP1 PUSH1 0xA0 SHL SUB PUSH1 0x2 DUP4 ADD SLOAD AND SWAP2 PUSH1 0x1 DUP1 PUSH1 0xA0 SHL SUB PUSH1 0x3 DUP3 ADD SLOAD AND PUSH1 0x1 DUP1 PUSH1 0xA0 SHL SUB PUSH1 0x4 DUP4 ADD SLOAD AND PUSH1 0x5 DUP4 ADD SLOAD SWAP1 PUSH1 0x6 DUP5 ADD SLOAD SWAP3 PUSH2 0x42F PUSH1 0x8 PUSH1 0x7 DUP8 ADD SLOAD SWAP7 ADD SLOAD SWAP7 PUSH1 0x40 MLOAD SWAP11 DUP12 SWAP11 PUSH2 0x120 DUP13 MSTORE PUSH2 0x120 DUP13 ADD SWAP1 PUSH2 0x845 JUMP JUMPDEST SWAP1 DUP11 DUP3 SUB PUSH1 0x20 DUP13 ADD MSTORE PUSH2 0x845 JUMP JUMPDEST SWAP7 PUSH1 0x40 DUP10 ADD MSTORE PUSH1 0x60 DUP9 ADD MSTORE PUSH1 0x80 DUP8 ADD MSTORE PUSH1 0xA0 DUP7 ADD MSTORE PUSH1 0xC0 DUP6 ADD MSTORE PUSH1 0xE0 DUP5 ADD MSTORE PUSH2 0x100 DUP4 ADD MSTORE SUB SWAP1 RETURN JUMPDEST PUSH1 0x80 CALLDATASIZE PUSH1 0x3 NOT ADD SLT PUSH2 0x171 JUMPI PUSH1 0x4 CALLDATALOAD PUSH1 0x1 PUSH1 0x1 PUSH1 0x40 SHL SUB DUP2 GT PUSH2 0x171 JUMPI PUSH2 0x483 SWAP1 CALLDATASIZE SWAP1 PUSH1 0x4 ADD PUSH2 0x74F JUMP JUMPDEST PUSH1 0x24 CALLDATALOAD PUSH1 0x1 PUSH1 0x1 PUSH1 0x40 SHL SUB DUP2 GT PUSH2 0x171 JUMPI PUSH2 0x4A2 SWAP1 CALLDATASIZE SWAP1 PUSH1 0x4 ADD PUSH2 0x74F JUMP JUMPDEST PUSH1 0x44 CALLDATALOAD SWAP2 PUSH1 0x1 PUSH1 0x1 PUSH1 0xA0 SHL SUB DUP4 AND DUP4 SUB PUSH2 0x171 JUMPI PUSH1 0x64 CALLDATALOAD SWAP3 PUSH1 0x1 PUSH1 0x1 PUSH1 0x40 SHL SUB DUP5 GT PUSH2 0x171 JUMPI PUSH2 0x4D9 PUSH2 0x276 SWAP5 CALLDATASIZE SWAP1 PUSH1 0x4 ADD PUSH2 0x671 JUMP JUMPDEST SWAP4 SWAP1 SWAP3 PUSH2 0xD53 JUMP JUMPDEST CALLVALUE PUSH2 0x171 JUMPI PUSH1 0x20 CALLDATASIZE PUSH1 0x3 NOT ADD SLT PUSH2 0x171 JUMPI PUSH1 0x4 CALLDATALOAD PUSH1 0x64 DUP2 GT PUSH2 0x502 JUMPI PUSH1 0x5 SSTORE STOP JUMPDEST PUSH1 0x40 MLOAD PUSH3 0x461BCD PUSH1 0xE5 SHL DUP2 MSTORE PUSH1 0x20 PUSH1 0x4 DUP3 ADD MSTORE PUSH1 0x8 PUSH1 0x24 DUP3 ADD MSTORE PUSH8 0xA8DEDE40D0D2CED PUSH1 0xC3 SHL PUSH1 0x44 DUP3 ADD MSTORE PUSH1 0x64 SWAP1 REVERT JUMPDEST CALLVALUE PUSH2 0x171 JUMPI PUSH1 0x20 CALLDATASIZE PUSH1 0x3 NOT ADD SLT PUSH2 0x171 JUMPI PUSH1 0x4 CALLDATALOAD DUP1 ISZERO PUSH2 0x551 JUMPI PUSH1 0x6 SSTORE STOP JUMPDEST PUSH1 0x40 MLOAD PUSH3 0x461BCD PUSH1 0xE5 SHL DUP2 MSTORE PUSH1 0x20 PUSH1 0x4 DUP3 ADD MSTORE PUSH1 0x7 PUSH1 0x24 DUP3 ADD MSTORE PUSH7 0x125B9D985B1A59 PUSH1 0xCA SHL PUSH1 0x44 DUP3 ADD MSTORE PUSH1 0x64 SWAP1 REVERT JUMPDEST CALLVALUE PUSH2 0x171 JUMPI PUSH1 0xC0 CALLDATASIZE PUSH1 0x3 NOT ADD SLT PUSH2 0x171 JUMPI PUSH1 0x4 CALLDATALOAD PUSH1 0x1 PUSH1 0x1 PUSH1 0x40 SHL SUB DUP2 GT PUSH2 0x171 JUMPI PUSH2 0x5B0 SWAP1 CALLDATASIZE SWAP1 PUSH1 0x4 ADD PUSH2 0x671 JUMP JUMPDEST SWAP1 PUSH1 0x24 CALLDATALOAD PUSH1 0x1 PUSH1 0x1 PUSH1 0x40 SHL SUB DUP2 GT PUSH2 0x171 JUMPI CALLDATASIZE PUSH1 0x23 DUP3 ADD SLT ISZERO PUSH2 0x171 JUMPI DUP1 PUSH1 0x4 ADD CALLDATALOAD PUSH1 0x1 PUSH1 0x1 PUSH1 0x40 SHL SUB DUP2 GT PUSH2 0x171 JUMPI CALLDATASIZE PUSH1 0x24 DUP3 PUSH1 0x5 SHL DUP5 ADD ADD GT PUSH2 0x171 JUMPI PUSH1 0xA4 CALLDATALOAD SWAP3 PUSH1 0x1 PUSH1 0x1 PUSH1 0x40 SHL SUB DUP5 GT PUSH2 0x171 JUMPI PUSH1 0x20 SWAP5 PUSH2 0x615 PUSH2 0x1BE SWAP6 CALLDATASIZE SWAP1 PUSH1 0x4 ADD PUSH2 0x671 JUMP JUMPDEST SWAP5 SWAP1 SWAP4 PUSH1 0x84 CALLDATALOAD SWAP4 PUSH1 0x64 CALLDATALOAD SWAP4 PUSH1 0x24 PUSH1 0x44 CALLDATALOAD SWAP5 ADD SWAP2 PUSH2 0x8C6 JUMP JUMPDEST CALLVALUE PUSH2 0x171 JUMPI PUSH0 CALLDATASIZE PUSH1 0x3 NOT ADD SLT PUSH2 0x171 JUMPI PUSH1 0x20 SWAP1 PUSH1 0x6 SLOAD DUP2 MSTORE RETURN JUMPDEST PUSH1 0x4 CALLDATALOAD SWAP1 PUSH1 0x1 PUSH1 0x1 PUSH1 0xA0 SHL SUB DUP3 AND DUP3 SUB PUSH2 0x171 JUMPI JUMP JUMPDEST CALLDATALOAD SWAP1 PUSH1 0x1 PUSH1 0x1 PUSH1 0xA0 SHL SUB DUP3 AND DUP3 SUB PUSH2 0x171 JUMPI JUMP JUMPDEST SWAP2 DUP2 PUSH1 0x1F DUP5 ADD SLT ISZERO PUSH2 0x171 JUMPI DUP3 CALLDATALOAD SWAP2 PUSH1 0x1 PUSH1 0x1 PUSH1 0x40 SHL SUB DUP4 GT PUSH2 0x171 JUMPI PUSH1 0x20 DUP4 DUP2 DUP7 ADD SWAP6 ADD ADD GT PUSH2 0x171 JUMPI JUMP JUMPDEST PUSH1 0xE0 DUP2 ADD SWAP1 DUP2 LT PUSH1 0x1 PUSH1 0x1 PUSH1 0x40 SHL SUB DUP3 GT OR PUSH2 0x6B9 JUMPI PUSH1 0x40 MSTORE JUMP JUMPDEST PUSH4 0x4E487B71 PUSH1 0xE0 SHL PUSH0 MSTORE PUSH1 0x41 PUSH1 0x4 MSTORE PUSH1 0x24 PUSH0 REVERT JUMPDEST PUSH2 0x120 DUP2 ADD SWAP1 DUP2 LT PUSH1 0x1 PUSH1 0x1 PUSH1 0x40 SHL SUB DUP3 GT OR PUSH2 0x6B9 JUMPI PUSH1 0x40 MSTORE JUMP JUMPDEST SWAP1 PUSH1 0x1F DUP1 NOT SWAP2 ADD AND DUP2 ADD SWAP1 DUP2 LT PUSH1 0x1 PUSH1 0x1 PUSH1 0x40 SHL SUB DUP3 GT OR PUSH2 0x6B9 JUMPI PUSH1 0x40 MSTORE JUMP JUMPDEST SWAP3 SWAP2 SWAP3 PUSH1 0x1 PUSH1 0x1 PUSH1 0x40 SHL SUB DUP3 GT PUSH2 0x6B9 JUMPI PUSH1 0x40 MLOAD SWAP2 PUSH2 0x733 PUSH1 0x1F DUP3 ADD PUSH1 0x1F NOT AND PUSH1 0x20 ADD DUP5 PUSH2 0x6E9 JUMP JUMPDEST DUP3 SWAP5 DUP2 DUP5 MSTORE DUP2 DUP4 ADD GT PUSH2 0x171 JUMPI DUP3 DUP2 PUSH1 0x20 SWAP4 DUP5 PUSH0 SWAP7 ADD CALLDATACOPY ADD ADD MSTORE JUMP JUMPDEST SWAP1 DUP1 PUSH1 0x1F DUP4 ADD SLT ISZERO PUSH2 0x171 JUMPI DUP2 PUSH1 0x20 PUSH2 0x76A SWAP4 CALLDATALOAD SWAP2 ADD PUSH2 0x70A JUMP JUMPDEST SWAP1 JUMP JUMPDEST SWAP1 PUSH1 0x1 DUP3 DUP2 SHR SWAP3 AND DUP1 ISZERO PUSH2 0x79B JUMPI JUMPDEST PUSH1 0x20 DUP4 LT EQ PUSH2 0x787 JUMPI JUMP JUMPDEST PUSH4 0x4E487B71 PUSH1 0xE0 SHL PUSH0 MSTORE PUSH1 0x22 PUSH1 0x4 MSTORE PUSH1 0x24 PUSH0 REVERT JUMPDEST SWAP2 PUSH1 0x7F AND SWAP2 PUSH2 0x77C JUMP JUMPDEST SWAP1 PUSH1 0x40 MLOAD SWAP2 DUP3 PUSH0 DUP3 SLOAD SWAP3 PUSH2 0x7B8 DUP5 PUSH2 0x76D JUMP JUMPDEST DUP1 DUP5 MSTORE SWAP4 PUSH1 0x1 DUP2 AND SWAP1 DUP2 ISZERO PUSH2 0x823 JUMPI POP PUSH1 0x1 EQ PUSH2 0x7DF JUMPI JUMPDEST POP PUSH2 0x7DD SWAP3 POP SUB DUP4 PUSH2 0x6E9 JUMP JUMPDEST JUMP JUMPDEST SWAP1 POP PUSH0 SWAP3 SWAP2 SWAP3 MSTORE PUSH1 0x20 PUSH0 KECCAK256 SWAP1 PUSH0 SWAP2 JUMPDEST DUP2 DUP4 LT PUSH2 0x807 JUMPI POP POP SWAP1 PUSH1 0x20 PUSH2 0x7DD SWAP3 DUP3 ADD ADD PUSH0 PUSH2 0x7D0 JUMP JUMPDEST PUSH1 0x20 SWAP2 SWAP4 POP DUP1 PUSH1 0x1 SWAP2 SLOAD DUP4 DUP6 DUP10 ADD ADD MSTORE ADD SWAP2 ADD SWAP1 SWAP2 DUP5 SWAP3 PUSH2 0x7EE JUMP JUMPDEST SWAP1 POP PUSH1 0x20 SWAP3 POP PUSH2 0x7DD SWAP5 SWAP2 POP PUSH1 0xFF NOT AND DUP3 DUP5 ADD MSTORE ISZERO ISZERO PUSH1 0x5 SHL DUP3 ADD ADD PUSH0 PUSH2 0x7D0 JUMP JUMPDEST DUP1 MLOAD DUP1 DUP4 MSTORE PUSH1 0x20 SWAP3 SWAP2 DUP2 SWAP1 DUP5 ADD DUP5 DUP5 ADD MCOPY PUSH0 DUP3 DUP3 ADD DUP5 ADD MSTORE PUSH1 0x1F ADD PUSH1 0x1F NOT AND ADD ADD SWAP1 JUMP JUMPDEST DUP2 DUP2 LT PUSH2 0x874 JUMPI POP POP JUMP JUMPDEST PUSH0 DUP2 SSTORE PUSH1 0x1 ADD PUSH2 0x869 JUMP JUMPDEST DUP2 DUP2 MUL SWAP3 SWAP2 DUP2 ISZERO SWAP2 DUP5 DIV EQ OR ISZERO PUSH2 0x892 JUMPI JUMP JUMPDEST PUSH4 0x4E487B71 PUSH1 0xE0 SHL PUSH0 MSTORE PUSH1 0x11 PUSH1 0x4 MSTORE PUSH1 0x24 PUSH0 REVERT JUMPDEST SWAP1 DUP1 PUSH1 0x20 SWAP4 SWAP3 DUP2 DUP5 MSTORE DUP5 DUP5 ADD CALLDATACOPY PUSH0 DUP3 DUP3 ADD DUP5 ADD MSTORE PUSH1 0x1F ADD PUSH1 0x1F NOT AND ADD ADD SWAP1 JUMP JUMPDEST SWAP3 SWAP7 SWAP6 SWAP9 SWAP8 SWAP5 SWAP1 SWAP4 SWAP2 SWAP9 DUP1 DUP3 ADD DUP1 DUP4 GT PUSH2 0x892 JUMPI DUP4 SUB PUSH2 0xCE8 JUMPI PUSH1 0x40 MLOAD SWAP2 PUSH2 0x8ED DUP4 PUSH2 0x69E JUMP JUMPDEST PUSH2 0x8F8 CALLDATASIZE DUP8 DUP8 PUSH2 0x70A JUMP JUMPDEST DUP4 MSTORE PUSH1 0x20 DUP4 ADD SWAP4 CALLER DUP6 MSTORE PUSH1 0x1 PUSH1 0x1 PUSH1 0x40 SHL SUB DUP11 GT PUSH2 0x6B9 JUMPI DUP10 PUSH1 0x5 SHL DUP13 PUSH1 0x40 MLOAD SWAP2 PUSH2 0x926 PUSH1 0x20 DUP3 ADD DUP5 PUSH2 0x6E9 JUMP JUMPDEST DUP13 DUP4 MSTORE ADD PUSH1 0x20 DUP3 ADD CALLDATASIZE DUP3 GT PUSH2 0x171 JUMPI DUP15 SWAP1 JUMPDEST DUP3 DUP3 LT PUSH2 0xCD0 JUMPI POP POP POP PUSH1 0x40 DUP6 ADD SWAP1 DUP2 MSTORE PUSH1 0x60 DUP6 ADD SWAP2 DUP3 MSTORE PUSH1 0x80 DUP6 ADD SWAP3 DUP4 MSTORE PUSH1 0xA0 DUP6 ADD SWAP4 DUP5 MSTORE PUSH2 0x969 CALLDATASIZE DUP11 DUP13 PUSH2 0x70A JUMP JUMPDEST SWAP6 PUSH1 0xC0 DUP7 ADD SWAP7 DUP8 MSTORE PUSH1 0x40 MLOAD DUP10 DUP10 DUP3 CALLDATACOPY PUSH1 0x20 DUP2 DUP12 DUP2 ADD PUSH1 0x3 DUP2 MSTORE SUB ADD SWAP1 KECCAK256 SWAP6 MLOAD DUP1 MLOAD SWAP1 PUSH1 0x1 PUSH1 0x1 PUSH1 0x40 SHL SUB DUP3 GT PUSH2 0x6B9 JUMPI DUP2 SWAP1 PUSH2 0x9A5 DUP10 SLOAD PUSH2 0x76D JUMP JUMPDEST PUSH1 0x1F DUP2 GT PUSH2 0xCA0 JUMPI JUMPDEST POP PUSH1 0x20 SWAP1 PUSH1 0x1F DUP4 GT PUSH1 0x1 EQ PUSH2 0xC3D JUMPI PUSH0 SWAP3 PUSH2 0xC32 JUMPI JUMPDEST POP POP DUP2 PUSH1 0x1 SHL SWAP2 PUSH0 NOT SWAP1 PUSH1 0x3 SHL SHR NOT AND OR DUP7 SSTORE JUMPDEST MLOAD PUSH1 0x1 DUP7 ADD DUP1 SLOAD PUSH1 0x1 PUSH1 0x1 PUSH1 0xA0 SHL SUB NOT AND PUSH1 0x1 PUSH1 0x1 PUSH1 0xA0 SHL SUB SWAP3 SWAP1 SWAP3 AND SWAP2 SWAP1 SWAP2 OR SWAP1 SSTORE MLOAD DUP1 MLOAD SWAP1 PUSH1 0x2 DUP7 ADD SWAP1 PUSH1 0x1 PUSH1 0x1 PUSH1 0x40 SHL SUB DUP4 GT PUSH2 0x6B9 JUMPI PUSH1 0x1 PUSH1 0x40 SHL DUP4 GT PUSH2 0x6B9 JUMPI PUSH1 0x20 SWAP1 DUP3 SLOAD DUP5 DUP5 SSTORE DUP1 DUP6 LT PUSH2 0xC17 JUMPI JUMPDEST POP ADD SWAP1 PUSH0 MSTORE PUSH1 0x20 PUSH0 KECCAK256 PUSH0 JUMPDEST DUP4 DUP2 LT PUSH2 0xBFA JUMPI POP POP POP POP SWAP1 PUSH1 0x6 SWAP4 SWAP3 SWAP2 MLOAD PUSH1 0x3 DUP5 ADD SSTORE MLOAD PUSH1 0x4 DUP4 ADD SSTORE MLOAD PUSH1 0x5 DUP3 ADD SSTORE ADD SWAP1 MLOAD DUP1 MLOAD SWAP1 PUSH1 0x1 PUSH1 0x1 PUSH1 0x40 SHL SUB DUP3 GT PUSH2 0x6B9 JUMPI DUP2 SWAP1 PUSH2 0xA7B DUP5 SLOAD PUSH2 0x76D JUMP JUMPDEST PUSH1 0x1F DUP2 GT PUSH2 0xBBF JUMPI JUMPDEST POP PUSH1 0x20 SWAP1 PUSH1 0x1F DUP4 GT PUSH1 0x1 EQ PUSH2 0xB5C JUMPI PUSH0 SWAP3 PUSH2 0xB51 JUMPI JUMPDEST POP POP DUP2 PUSH1 0x1 SHL SWAP2 PUSH0 NOT SWAP1 PUSH1 0x3 SHL SHR NOT AND OR SWAP1 SSTORE JUMPDEST PUSH1 0x40 MLOAD SWAP5 DUP1 PUSH1 0x80 DUP8 ADD PUSH1 0x80 DUP9 MSTORE MSTORE PUSH1 0xA0 DUP7 ADD SWAP8 SWAP1 PUSH0 JUMPDEST DUP2 DUP2 LT PUSH2 0xB25 JUMPI POP POP POP SWAP2 PUSH2 0xB0F PUSH32 0xF52FCBC5CB218BAE54B5DEE4A14189098257CB16CC5649F3DAEFF8C73A56104D SWAP7 SWAP8 DUP7 SWAP6 SWAP4 PUSH2 0xB1D SWAP6 CALLER PUSH1 0x20 DUP10 ADD MSTORE DUP8 DUP4 SUB PUSH1 0x40 DUP10 ADD MSTORE PUSH2 0x8A6 JUMP JUMPDEST SWAP2 DUP5 DUP4 SUB PUSH1 0x60 DUP7 ADD MSTORE PUSH2 0x8A6 JUMP JUMPDEST SUB SWAP1 LOG1 PUSH1 0x1 SWAP1 JUMP JUMPDEST SWAP2 SWAP9 SWAP1 SWAP2 SWAP1 PUSH1 0x1 SWAP1 PUSH1 0x20 SWAP1 DUP2 SWAP1 PUSH1 0x1 PUSH1 0x1 PUSH1 0xA0 SHL SUB PUSH2 0xB43 DUP15 PUSH2 0x65D JUMP JUMPDEST AND DUP2 MSTORE ADD SWAP11 ADD SWAP3 SWAP2 ADD PUSH2 0xAC4 JUMP JUMPDEST ADD MLOAD SWAP1 POP PUSH0 DUP1 PUSH2 0xA9A JUMP JUMPDEST PUSH0 DUP6 DUP2 MSTORE DUP3 DUP2 KECCAK256 SWAP4 POP PUSH1 0x1F NOT DUP6 AND SWAP1 JUMPDEST DUP2 DUP2 LT PUSH2 0xBA7 JUMPI POP SWAP1 DUP5 PUSH1 0x1 SWAP6 SWAP5 SWAP4 SWAP3 LT PUSH2 0xB8F JUMPI JUMPDEST POP POP POP DUP2 SHL ADD SWAP1 SSTORE PUSH2 0xAAE JUMP JUMPDEST ADD MLOAD PUSH0 NOT PUSH1 0xF8 DUP5 PUSH1 0x3 SHL AND SHR NOT AND SWAP1 SSTORE PUSH0 DUP1 DUP1 PUSH2 0xB82 JUMP JUMPDEST SWAP3 SWAP4 PUSH1 0x20 PUSH1 0x1 DUP2 SWAP3 DUP8 DUP7 ADD MLOAD DUP2 SSTORE ADD SWAP6 ADD SWAP4 ADD PUSH2 0xB6C JUMP JUMPDEST PUSH2 0xBEA SWAP1 DUP6 PUSH0 MSTORE PUSH1 0x20 PUSH0 KECCAK256 PUSH1 0x1F DUP6 ADD PUSH1 0x5 SHR DUP2 ADD SWAP2 PUSH1 0x20 DUP7 LT PUSH2 0xBF0 JUMPI JUMPDEST PUSH1 0x1F ADD PUSH1 0x5 SHR ADD SWAP1 PUSH2 0x869 JUMP JUMPDEST PUSH0 PUSH2 0xA84 JUMP JUMPDEST SWAP1 SWAP2 POP DUP2 SWAP1 PUSH2 0xBDD JUMP JUMPDEST DUP3 MLOAD PUSH1 0x1 PUSH1 0x1 PUSH1 0xA0 SHL SUB AND DUP2 DUP4 ADD SSTORE PUSH1 0x20 SWAP1 SWAP3 ADD SWAP2 PUSH1 0x1 ADD PUSH2 0xA38 JUMP JUMPDEST PUSH2 0xC2C SWAP1 DUP5 PUSH0 MSTORE DUP6 DUP5 PUSH0 KECCAK256 SWAP2 DUP3 ADD SWAP2 ADD PUSH2 0x869 JUMP JUMPDEST PUSH0 PUSH2 0xA2D JUMP JUMPDEST ADD MLOAD SWAP1 POP PUSH0 DUP1 PUSH2 0x9C4 JUMP JUMPDEST PUSH0 DUP11 DUP2 MSTORE DUP3 DUP2 KECCAK256 SWAP4 POP PUSH1 0x1F NOT DUP6 AND SWAP1 JUMPDEST DUP2 DUP2 LT PUSH2 0xC88 JUMPI POP SWAP1 DUP5 PUSH1 0x1 SWAP6 SWAP5 SWAP4 SWAP3 LT PUSH2 0xC70 JUMPI JUMPDEST POP POP POP DUP2 SHL ADD DUP7 SSTORE PUSH2 0x9D8 JUMP JUMPDEST ADD MLOAD PUSH0 NOT PUSH1 0xF8 DUP5 PUSH1 0x3 SHL AND SHR NOT AND SWAP1 SSTORE PUSH0 DUP1 DUP1 PUSH2 0xC63 JUMP JUMPDEST SWAP3 SWAP4 PUSH1 0x20 PUSH1 0x1 DUP2 SWAP3 DUP8 DUP7 ADD MLOAD DUP2 SSTORE ADD SWAP6 ADD SWAP4 ADD PUSH2 0xC4D JUMP JUMPDEST PUSH2 0xCCA SWAP1 DUP11 PUSH0 MSTORE PUSH1 0x20 PUSH0 KECCAK256 PUSH1 0x1F DUP6 ADD PUSH1 0x5 SHR DUP2 ADD SWAP2 PUSH1 0x20 DUP7 LT PUSH2 0xBF0 JUMPI PUSH1 0x1F ADD PUSH1 0x5 SHR ADD SWAP1 PUSH2 0x869 JUMP JUMPDEST PUSH0 PUSH2 0x9AE JUMP JUMPDEST PUSH1 0x20 DUP1 SWAP2 PUSH2 0xCDD DUP5 PUSH2 0x65D JUMP JUMPDEST DUP2 MSTORE ADD SWAP2 ADD SWAP1 PUSH2 0x938 JUMP JUMPDEST POP PUSH0 SWAP9 POP POP POP POP POP POP POP POP JUMP JUMPDEST SWAP1 PUSH1 0x40 MLOAD SWAP2 DUP3 DUP2 SLOAD SWAP2 DUP3 DUP3 MSTORE PUSH1 0x20 DUP3 ADD SWAP1 PUSH0 MSTORE PUSH1 0x20 PUSH0 KECCAK256 SWAP3 PUSH0 JUMPDEST DUP2 DUP2 LT PUSH2 0xD24 JUMPI POP POP PUSH2 0x7DD SWAP3 POP SUB DUP4 PUSH2 0x6E9 JUMP JUMPDEST DUP5 SLOAD PUSH1 0x1 PUSH1 0x1 PUSH1 0xA0 SHL SUB AND DUP4 MSTORE PUSH1 0x1 SWAP5 DUP6 ADD SWAP5 DUP8 SWAP5 POP PUSH1 0x20 SWAP1 SWAP4 ADD SWAP3 ADD PUSH2 0xD0F JUMP JUMPDEST SWAP2 SWAP1 DUP3 SUB SWAP2 DUP3 GT PUSH2 0x892 JUMPI JUMP JUMPDEST SWAP4 SWAP5 SWAP3 SWAP2 SWAP1 SWAP2 PUSH1 0x40 MLOAD SWAP6 DUP6 MLOAD SWAP7 PUSH1 0x20 DUP2 DUP2 DUP10 ADD SWAP10 DUP1 DUP12 DUP4 MCOPY DUP2 ADD PUSH1 0x3 DUP2 MSTORE SUB ADD SWAP1 KECCAK256 SWAP7 PUSH1 0x40 MLOAD SWAP7 PUSH2 0xD83 DUP9 PUSH2 0x69E JUMP JUMPDEST PUSH2 0xD8C DUP10 PUSH2 0x7A5 JUMP JUMPDEST DUP9 MSTORE PUSH1 0x1 DUP10 ADD SLOAD PUSH1 0x1 PUSH1 0x1 PUSH1 0xA0 SHL SUB AND PUSH1 0x20 DUP10 ADD SWAP1 DUP2 MSTORE SWAP9 PUSH2 0xDB0 PUSH1 0x2 DUP3 ADD PUSH2 0xCF5 JUMP JUMPDEST PUSH1 0x40 DUP11 ADD MSTORE PUSH2 0xE0C PUSH1 0x3 DUP3 ADD SLOAD SWAP4 PUSH1 0x60 DUP12 ADD SWAP5 DUP6 MSTORE PUSH1 0x20 PUSH1 0x4 DUP5 ADD SLOAD SWAP5 PUSH1 0x80 DUP14 ADD SWAP6 DUP7 MSTORE DUP13 PUSH1 0xC0 PUSH2 0xDEF PUSH1 0x6 PUSH1 0x5 DUP10 ADD SLOAD SWAP9 PUSH1 0xA0 DUP6 ADD SWAP10 DUP11 MSTORE ADD PUSH2 0x7A5 JUMP JUMPDEST SWAP2 ADD MSTORE PUSH1 0x40 MLOAD SWAP3 DUP4 SWAP2 MLOAD DUP1 SWAP2 DUP4 MCOPY DUP2 ADD PUSH1 0x2 DUP2 MSTORE SUB ADD SWAP1 KECCAK256 PUSH2 0xCF5 JUMP JUMPDEST DUP1 MLOAD SWAP10 SWAP1 PUSH0 DUP1 JUMPDEST DUP13 DUP2 LT ISZERO PUSH2 0x12A0 JUMPI PUSH1 0x5 DUP2 SWAP1 SHL DUP4 ADD PUSH1 0x20 ADD MLOAD PUSH1 0x1 PUSH1 0x1 PUSH1 0xA0 SHL SUB DUP12 DUP2 AND SWAP2 AND EQ PUSH2 0xE40 JUMPI PUSH1 0x1 ADD PUSH2 0xE13 JUMP JUMPDEST POP POP POP SWAP1 SWAP2 SWAP3 SWAP4 SWAP5 SWAP6 SWAP7 SWAP8 SWAP9 POP PUSH1 0x1 JUMPDEST ISZERO PUSH2 0x1294 JUMPI DUP4 MLOAD PUSH1 0x64 PUSH2 0xE65 PUSH1 0x5 SLOAD DUP4 PUSH2 0x87F JUMP JUMPDEST DIV SWAP1 CALLER PUSH0 MSTORE PUSH1 0x1 PUSH1 0x20 MSTORE PUSH2 0xE95 PUSH1 0x40 PUSH0 KECCAK256 SLOAD SWAP3 PUSH2 0xE85 PUSH1 0x6 SLOAD DUP1 SWAP6 PUSH2 0x87F JUMP JUMPDEST DUP2 DUP2 GT ISZERO PUSH2 0x128B JUMPI POP DUP1 SWAP3 PUSH2 0xD46 JUMP JUMPDEST CALLVALUE LT PUSH2 0x124F JUMPI DUP2 ISZERO PUSH2 0x123B JUMPI DIV DUP1 PUSH2 0x121C JUMPI JUMPDEST POP MLOAD SWAP9 PUSH1 0x1 DUP1 PUSH1 0xA0 SHL SUB SWAP1 MLOAD AND SWAP3 MLOAD SWAP2 MLOAD SWAP1 MLOAD SWAP2 PUSH1 0x40 MLOAD SWAP10 PUSH2 0xEC9 DUP12 PUSH2 0x6CD JUMP JUMPDEST DUP11 MSTORE PUSH1 0x20 DUP11 ADD SWAP4 DUP9 DUP6 MSTORE PUSH1 0x40 DUP12 ADD MSTORE PUSH1 0x1 DUP1 PUSH1 0xA0 SHL SUB DUP8 AND PUSH1 0x60 DUP12 ADD MSTORE CALLER PUSH1 0x80 DUP12 ADD MSTORE PUSH1 0xA0 DUP11 ADD MSTORE PUSH1 0xC0 DUP10 ADD MSTORE PUSH1 0xE0 DUP9 ADD MSTORE PUSH0 PUSH2 0x100 DUP9 ADD MSTORE PUSH1 0x40 MLOAD PUSH1 0x20 DUP2 DUP8 MLOAD DUP1 DUP4 DUP11 ADD DUP4 MCOPY DUP2 ADD PUSH1 0x4 DUP2 MSTORE SUB ADD SWAP1 KECCAK256 SWAP1 DUP8 MLOAD DUP1 MLOAD SWAP1 PUSH1 0x1 PUSH1 0x1 PUSH1 0x40 SHL SUB DUP3 GT PUSH2 0x6B9 JUMPI DUP2 SWAP1 PUSH2 0xF3A DUP6 SLOAD PUSH2 0x76D JUMP JUMPDEST PUSH1 0x1F DUP2 GT PUSH2 0x11EC JUMPI JUMPDEST POP PUSH1 0x20 SWAP1 PUSH1 0x1F DUP4 GT PUSH1 0x1 EQ PUSH2 0x1189 JUMPI PUSH0 SWAP3 PUSH2 0x117E JUMPI JUMPDEST POP POP DUP2 PUSH1 0x1 SHL SWAP2 PUSH0 NOT SWAP1 PUSH1 0x3 SHL SHR NOT AND OR DUP3 SSTORE JUMPDEST MLOAD SWAP7 DUP8 MLOAD PUSH1 0x1 PUSH1 0x1 PUSH1 0x40 SHL SUB DUP2 GT PUSH2 0x6B9 JUMPI PUSH2 0xF8C PUSH1 0x1 DUP5 ADD SLOAD PUSH2 0x76D JUMP JUMPDEST PUSH1 0x1F DUP2 GT PUSH2 0x114B JUMPI JUMPDEST POP PUSH1 0x20 PUSH1 0x1F DUP3 GT PUSH1 0x1 EQ PUSH2 0x10B3 JUMPI PUSH2 0x10A3 SWAP6 SWAP5 SWAP4 SWAP3 DUP3 PUSH1 0x8 SWAP4 PUSH2 0x100 SWAP4 PUSH32 0xA82FDB4B07891794FE0BCDE99C7D434289FF9320FF626FF65B07A00220255777 SWAP13 SWAP14 PUSH0 SWAP3 PUSH2 0x10A8 JUMPI JUMPDEST POP POP DUP2 PUSH1 0x1 SHL SWAP2 PUSH0 NOT SWAP1 PUSH1 0x3 SHL SHR NOT AND OR PUSH1 0x1 DUP6 ADD SSTORE JUMPDEST PUSH1 0x40 DUP2 DUP2 ADD MLOAD PUSH1 0x2 DUP7 ADD DUP1 SLOAD PUSH1 0x1 PUSH1 0x1 PUSH1 0xA0 SHL SUB NOT SWAP1 DUP2 AND PUSH1 0x1 PUSH1 0x1 PUSH1 0xA0 SHL SUB SWAP4 DUP5 AND OR SWAP1 SWAP2 SSTORE PUSH1 0x60 DUP5 ADD MLOAD PUSH1 0x3 DUP9 ADD DUP1 SLOAD DUP4 AND SWAP2 DUP5 AND SWAP2 SWAP1 SWAP2 OR SWAP1 SSTORE PUSH1 0x80 DUP1 DUP6 ADD MLOAD PUSH1 0x4 DUP10 ADD DUP1 SLOAD SWAP1 SWAP4 AND SWAP1 DUP5 AND OR SWAP1 SWAP2 SSTORE PUSH1 0xA0 DUP5 ADD MLOAD PUSH1 0x5 DUP9 ADD SSTORE PUSH1 0xC0 DUP5 ADD MLOAD PUSH1 0x6 DUP9 ADD SSTORE PUSH1 0xE0 DUP5 ADD MLOAD PUSH1 0x7 DUP9 ADD SSTORE SWAP4 SWAP1 SWAP3 ADD MLOAD SWAP4 SWAP1 SWAP5 ADD SWAP3 SWAP1 SWAP3 SSTORE SWAP2 MLOAD SWAP6 AND DUP6 MSTORE PUSH1 0x20 DUP6 ADD DUP2 SWAP1 MSTORE SWAP4 SWAP5 DUP6 SWAP5 PUSH2 0x108F SWAP2 SWAP1 DUP7 ADD SWAP1 PUSH2 0x845 JUMP JUMPDEST SWAP2 CALLVALUE PUSH1 0x40 DUP7 ADD MSTORE DUP5 DUP4 SUB PUSH1 0x60 DUP7 ADD MSTORE PUSH2 0x8A6 JUMP JUMPDEST SUB SWAP1 LOG1 JUMP JUMPDEST ADD MLOAD SWAP1 POP PUSH0 DUP1 PUSH2 0xFDC JUMP JUMPDEST PUSH1 0x1 DUP5 ADD PUSH0 MSTORE DUP1 PUSH0 KECCAK256 SWAP10 PUSH0 JUMPDEST PUSH1 0x1F NOT DUP5 AND DUP2 LT PUSH2 0x1133 JUMPI POP SWAP3 PUSH1 0x1 DUP4 PUSH32 0xA82FDB4B07891794FE0BCDE99C7D434289FF9320FF626FF65B07A00220255777 SWAP12 SWAP13 PUSH2 0x100 SWAP5 PUSH2 0x10A3 SWAP11 SWAP10 SWAP9 SWAP8 PUSH1 0x8 SWAP8 PUSH1 0x1F NOT DUP2 AND LT PUSH2 0x111B JUMPI JUMPDEST POP POP POP DUP2 SHL ADD PUSH1 0x1 DUP6 ADD SSTORE PUSH2 0xFF3 JUMP JUMPDEST ADD MLOAD PUSH0 NOT PUSH1 0xF8 DUP5 PUSH1 0x3 SHL AND SHR NOT AND SWAP1 SSTORE PUSH0 DUP1 DUP1 PUSH2 0x110B JUMP JUMPDEST DUP3 DUP3 ADD MLOAD DUP13 SSTORE PUSH1 0x1 SWAP1 SWAP12 ADD SWAP11 PUSH1 0x20 SWAP3 DUP4 ADD SWAP3 ADD PUSH2 0x10BF JUMP JUMPDEST PUSH2 0x1178 SWAP1 PUSH1 0x1 DUP6 ADD PUSH0 MSTORE PUSH1 0x20 PUSH0 KECCAK256 PUSH1 0x1F DUP5 ADD PUSH1 0x5 SHR DUP2 ADD SWAP2 PUSH1 0x20 DUP6 LT PUSH2 0xBF0 JUMPI PUSH1 0x1F ADD PUSH1 0x5 SHR ADD SWAP1 PUSH2 0x869 JUMP JUMPDEST PUSH0 PUSH2 0xF95 JUMP JUMPDEST ADD MLOAD SWAP1 POP PUSH0 DUP1 PUSH2 0xF59 JUMP JUMPDEST PUSH0 DUP7 DUP2 MSTORE DUP3 DUP2 KECCAK256 SWAP4 POP PUSH1 0x1F NOT DUP6 AND SWAP1 JUMPDEST DUP2 DUP2 LT PUSH2 0x11D4 JUMPI POP SWAP1 DUP5 PUSH1 0x1 SWAP6 SWAP5 SWAP4 SWAP3 LT PUSH2 0x11BC JUMPI JUMPDEST POP POP POP DUP2 SHL ADD DUP3 SSTORE PUSH2 0xF6D JUMP JUMPDEST ADD MLOAD PUSH0 NOT PUSH1 0xF8 DUP5 PUSH1 0x3 SHL AND SHR NOT AND SWAP1 SSTORE PUSH0 DUP1 DUP1 PUSH2 0x11AF JUMP JUMPDEST SWAP3 SWAP4 PUSH1 0x20 PUSH1 0x1 DUP2 SWAP3 DUP8 DUP7 ADD MLOAD DUP2 SSTORE ADD SWAP6 ADD SWAP4 ADD PUSH2 0x1199 JUMP JUMPDEST PUSH2 0x1216 SWAP1 DUP7 PUSH0 MSTORE PUSH1 0x20 PUSH0 KECCAK256 PUSH1 0x1F DUP6 ADD PUSH1 0x5 SHR DUP2 ADD SWAP2 PUSH1 0x20 DUP7 LT PUSH2 0xBF0 JUMPI PUSH1 0x1F ADD PUSH1 0x5 SHR ADD SWAP1 PUSH2 0x869 JUMP JUMPDEST PUSH0 PUSH2 0xF43 JUMP JUMPDEST CALLER PUSH0 MSTORE PUSH1 0x1 PUSH1 0x20 MSTORE PUSH2 0x1233 PUSH1 0x40 PUSH0 KECCAK256 SWAP2 DUP3 SLOAD PUSH2 0xD46 JUMP JUMPDEST SWAP1 SSTORE PUSH0 PUSH2 0xEA8 JUMP JUMPDEST PUSH4 0x4E487B71 PUSH1 0xE0 SHL PUSH0 MSTORE PUSH1 0x12 PUSH1 0x4 MSTORE PUSH1 0x24 PUSH0 REVERT JUMPDEST PUSH1 0x40 MLOAD PUSH3 0x461BCD PUSH1 0xE5 SHL DUP2 MSTORE PUSH1 0x20 PUSH1 0x4 DUP3 ADD MSTORE PUSH1 0x14 PUSH1 0x24 DUP3 ADD MSTORE PUSH20 0x125B9CDD59999A58DA595B9D081C185E5B595B9D PUSH1 0x62 SHL PUSH1 0x44 DUP3 ADD MSTORE PUSH1 0x64 SWAP1 REVERT JUMPDEST SWAP1 POP DUP1 SWAP3 PUSH2 0xD46 JUMP JUMPDEST POP POP POP POP POP POP POP POP SWAP1 POP JUMP JUMPDEST POP SWAP2 SWAP3 SWAP4 SWAP5 SWAP6 SWAP7 SWAP8 SWAP9 SWAP10 SWAP11 POP POP PUSH2 0xE50 JUMP JUMPDEST PUSH1 0x40 MLOAD DUP3 DUP3 DUP3 CALLDATACOPY PUSH1 0x20 DUP2 DUP5 DUP2 ADD PUSH1 0x4 DUP2 MSTORE SUB ADD SWAP1 KECCAK256 PUSH2 0x100 PUSH1 0x8 PUSH1 0x40 MLOAD SWAP3 PUSH2 0x12D9 DUP5 PUSH2 0x6CD JUMP JUMPDEST PUSH2 0x12E2 DUP2 PUSH2 0x7A5 JUMP JUMPDEST DUP5 MSTORE PUSH2 0x12F0 PUSH1 0x1 DUP3 ADD PUSH2 0x7A5 JUMP JUMPDEST PUSH1 0x20 DUP6 ADD MSTORE PUSH1 0x2 DUP2 ADD SLOAD PUSH1 0x1 PUSH1 0x1 PUSH1 0xA0 SHL SUB SWAP1 DUP2 AND PUSH1 0x40 DUP1 DUP8 ADD SWAP2 SWAP1 SWAP2 MSTORE PUSH1 0x3 DUP4 ADD SLOAD DUP3 AND PUSH1 0x60 DUP8 ADD MSTORE PUSH1 0x4 DUP4 ADD SLOAD SWAP1 SWAP2 AND PUSH1 0x80 DUP7 ADD MSTORE PUSH1 0x5 DUP3 ADD SLOAD PUSH1 0xA0 DUP7 ADD MSTORE PUSH1 0x6 DUP3 ADD SLOAD PUSH1 0xC0 DUP7 ADD MSTORE PUSH1 0x7 DUP3 ADD SLOAD PUSH1 0xE0 DUP7 ADD MSTORE SWAP2 ADD SLOAD SWAP2 SWAP1 SWAP3 ADD MSTORE MLOAD DUP3 DUP3 DUP3 CALLDATACOPY PUSH1 0x20 DUP2 DUP5 DUP2 ADD PUSH1 0x4 DUP2 MSTORE SUB ADD SWAP1 KECCAK256 SWAP2 PUSH1 0x40 MLOAD PUSH2 0x136D DUP2 PUSH2 0x6CD JUMP JUMPDEST PUSH2 0x1376 DUP5 PUSH2 0x7A5 JUMP JUMPDEST DUP2 MSTORE PUSH2 0x1384 PUSH1 0x1 DUP6 ADD PUSH2 0x7A5 JUMP JUMPDEST PUSH1 0x20 DUP3 ADD MSTORE PUSH1 0x1 DUP1 PUSH1 0xA0 SHL SUB PUSH1 0x2 DUP6 ADD SLOAD AND SWAP1 PUSH1 0x40 DUP2 ADD SWAP5 DUP3 DUP7 MSTORE PUSH1 0x1 DUP1 PUSH1 0xA0 SHL SUB PUSH1 0x3 DUP3 ADD SLOAD AND SWAP2 PUSH1 0x60 DUP2 ADD SWAP4 DUP4 DUP6 MSTORE PUSH1 0x1 DUP1 PUSH1 0xA0 SHL SUB PUSH1 0x4 DUP5 ADD SLOAD AND SWAP1 DUP2 PUSH1 0x80 DUP5 ADD MSTORE PUSH1 0x5 DUP5 ADD SLOAD PUSH1 0xA0 DUP5 ADD MSTORE PUSH1 0x6 DUP5 ADD SLOAD SWAP2 DUP3 PUSH1 0xC0 DUP6 ADD MSTORE PUSH1 0x1 PUSH2 0x100 PUSH1 0x8 PUSH1 0x7 DUP9 ADD SLOAD SWAP8 PUSH1 0xE0 DUP9 ADD SWAP9 DUP10 MSTORE ADD SLOAD SWAP6 ADD SWAP5 DUP1 DUP7 MSTORE EQ PUSH2 0x1535 JUMPI CALLER SUB PUSH2 0x171 JUMPI PUSH0 DUP1 SWAP4 SWAP3 DUP2 SWAP4 SWAP3 PUSH1 0x1 DUP4 SWAP5 MSTORE DUP3 DUP3 ISZERO PUSH2 0x152C JUMPI JUMPDEST CALL ISZERO PUSH2 0x1518 JUMPI PUSH0 DUP1 DUP1 SWAP4 DUP2 SWAP4 MLOAD SWAP1 DUP3 DUP3 ISZERO PUSH2 0x1523 JUMPI JUMPDEST CALL ISZERO PUSH2 0x1518 JUMPI DUP4 MLOAD PUSH1 0x1 PUSH1 0x1 PUSH1 0xA0 SHL SUB AND PUSH0 SWAP1 DUP2 MSTORE PUSH1 0x1 PUSH1 0x20 MSTORE PUSH1 0x40 SWAP1 KECCAK256 DUP1 SLOAD PUSH1 0xA DUP2 ADD SWAP2 SWAP1 DUP3 LT PUSH2 0x892 JUMPI SSTORE DUP1 MLOAD PUSH1 0x1 PUSH1 0x1 PUSH1 0xA0 SHL SUB AND PUSH0 SWAP1 DUP2 MSTORE PUSH1 0x1 PUSH1 0x20 MSTORE PUSH1 0x40 SWAP1 KECCAK256 DUP1 SLOAD PUSH1 0x5 DUP2 ADD SWAP2 SWAP1 DUP3 LT PUSH2 0x892 JUMPI SSTORE CALLER PUSH0 MSTORE PUSH1 0x1 PUSH1 0x20 MSTORE PUSH1 0x40 PUSH0 KECCAK256 SWAP4 DUP5 SLOAD PUSH1 0x2 DUP2 ADD DUP1 SWAP2 GT PUSH2 0x892 JUMPI PUSH32 0x3CA4856774FE33FC92BDFC265C349721AD30590E023F1B868557BC3DB326C7CB SWAP6 SSTORE PUSH1 0x1 DUP1 PUSH1 0xA0 SHL SUB SWAP1 MLOAD AND SWAP1 PUSH1 0x1 DUP1 PUSH1 0xA0 SHL SUB SWAP1 MLOAD AND PUSH2 0x14ED PUSH1 0x40 MLOAD SWAP5 DUP6 SWAP5 PUSH1 0xE0 DUP7 MSTORE PUSH1 0xE0 DUP7 ADD SWAP2 PUSH2 0x8A6 JUMP JUMPDEST SWAP2 CALLER PUSH1 0x20 DUP6 ADD MSTORE PUSH1 0x40 DUP5 ADD MSTORE PUSH1 0x60 DUP4 ADD MSTORE PUSH1 0x2 PUSH1 0x80 DUP4 ADD MSTORE PUSH1 0xA PUSH1 0xA0 DUP4 ADD MSTORE PUSH1 0x5 PUSH1 0xC0 DUP4 ADD MSTORE SUB SWAP1 LOG1 JUMP JUMPDEST PUSH1 0x40 MLOAD RETURNDATASIZE PUSH0 DUP3 RETURNDATACOPY RETURNDATASIZE SWAP1 REVERT JUMPDEST POP PUSH2 0x8FC PUSH2 0x1430 JUMP JUMPDEST POP PUSH2 0x8FC PUSH2 0x141A JUMP JUMPDEST POP POP POP POP POP POP POP POP POP POP JUMP JUMPDEST DUP1 SLOAD SWAP1 PUSH1 0x1 PUSH1 0x40 SHL DUP3 LT ISZERO PUSH2 0x6B9 JUMPI PUSH1 0x1 DUP3 ADD DUP1 DUP3 SSTORE DUP3 LT ISZERO PUSH2 0x1586 JUMPI PUSH0 MSTORE PUSH1 0x20 PUSH0 KECCAK256 ADD SWAP1 PUSH1 0x1 DUP1 PUSH1 0xA0 SHL SUB AND PUSH12 0xFFFFFFFFFFFFFFFFFFFFFFFF PUSH1 0xA0 SHL DUP3 SLOAD AND OR SWAP1 SSTORE JUMP JUMPDEST PUSH4 0x4E487B71 PUSH1 0xE0 SHL PUSH0 MSTORE PUSH1 0x32 PUSH1 0x4 MSTORE PUSH1 0x24 PUSH0 REVERT JUMPDEST SWAP5 SWAP2 SWAP3 SWAP1 PUSH1 0x20 PUSH0 SWAP7 PUSH0 PUSH2 0x100 PUSH1 0x40 MLOAD PUSH2 0x15B2 DUP2 PUSH2 0x6CD JUMP JUMPDEST PUSH1 0x60 DUP2 MSTORE PUSH1 0x60 DUP6 DUP3 ADD MSTORE DUP3 PUSH1 0x40 DUP3 ADD MSTORE DUP3 PUSH1 0x60 DUP3 ADD MSTORE DUP3 PUSH1 0x80 DUP3 ADD MSTORE DUP3 PUSH1 0xA0 DUP3 ADD MSTORE DUP3 PUSH1 0xC0 DUP3 ADD MSTORE DUP3 PUSH1 0xE0 DUP3 ADD MSTORE ADD MSTORE DUP3 PUSH1 0x40 MLOAD SWAP4 DUP5 SWAP3 DUP4 CALLDATACOPY DUP2 ADD PUSH1 0x4 DUP2 MSTORE SUB ADD SWAP1 KECCAK256 SWAP4 PUSH1 0x40 MLOAD SWAP4 PUSH2 0x1603 DUP6 PUSH2 0x6CD JUMP JUMPDEST PUSH2 0x160C DUP7 PUSH2 0x7A5 JUMP JUMPDEST DUP6 MSTORE PUSH2 0x161A PUSH1 0x1 DUP8 ADD PUSH2 0x7A5 JUMP JUMPDEST PUSH1 0x20 DUP7 ADD MSTORE PUSH1 0x2 DUP7 ADD SLOAD PUSH1 0x1 PUSH1 0x1 PUSH1 0xA0 SHL SUB SWAP1 DUP2 AND PUSH1 0x40 DUP8 ADD MSTORE PUSH1 0x3 DUP8 ADD SLOAD DUP2 AND PUSH1 0x60 DUP8 ADD MSTORE PUSH1 0x4 DUP8 ADD SLOAD AND PUSH1 0x80 DUP7 ADD DUP2 SWAP1 MSTORE PUSH1 0x5 DUP8 ADD SLOAD PUSH1 0xA0 DUP8 ADD MSTORE PUSH1 0x6 DUP8 ADD SLOAD PUSH1 0xC0 DUP8 ADD MSTORE PUSH1 0x7 DUP8 ADD SLOAD PUSH1 0xE0 DUP8 ADD MSTORE PUSH1 0x8 SWAP1 SWAP7 ADD SLOAD PUSH2 0x100 DUP7 ADD MSTORE DUP5 MLOAD PUSH2 0x1682 SWAP1 PUSH2 0x17F5 JUMP JUMPDEST ISZERO PUSH2 0x17B7 JUMPI PUSH0 SLOAD PUSH1 0x40 MLOAD PUSH4 0x7EC55A41 PUSH1 0xE1 SHL DUP2 MSTORE PUSH1 0x4 DUP2 ADD DUP9 SWAP1 MSTORE PUSH1 0x1 PUSH1 0x1 PUSH1 0xA0 SHL SUB SWAP1 SWAP2 AND SWAP2 SWAP1 PUSH1 0x20 DUP2 PUSH1 0x24 DUP2 DUP7 GAS STATICCALL SWAP1 DUP2 ISZERO PUSH2 0x1518 JUMPI PUSH0 SWAP2 PUSH2 0x177C JUMPI JUMPDEST POP ISZERO PUSH2 0x16F8 JUMPI JUMPDEST POP POP POP POP POP PUSH1 0x20 DUP1 PUSH2 0x7DD SWAP5 PUSH1 0x2 SWAP4 MLOAD SWAP1 POP PUSH1 0x40 MLOAD SWAP3 DUP2 DUP5 SWAP3 MLOAD SWAP2 DUP3 SWAP2 ADD DUP4 MCOPY DUP2 ADD PUSH1 0x3 DUP2 MSTORE SUB ADD SWAP1 KECCAK256 ADD PUSH2 0x1541 JUMP JUMPDEST DUP2 EXTCODESIZE ISZERO PUSH2 0x171 JUMPI PUSH0 SWAP4 PUSH2 0x173F PUSH2 0x172D SWAP5 PUSH1 0x40 MLOAD SWAP8 DUP9 SWAP7 DUP8 SWAP6 DUP7 SWAP6 PUSH4 0xD6192E29 PUSH1 0xE0 SHL DUP8 MSTORE PUSH1 0x40 PUSH1 0x4 DUP9 ADD MSTORE PUSH1 0x44 DUP8 ADD SWAP2 PUSH2 0x8A6 JUMP JUMPDEST DUP5 DUP2 SUB PUSH1 0x3 NOT ADD PUSH1 0x24 DUP7 ADD MSTORE SWAP2 PUSH2 0x8A6 JUMP JUMPDEST SUB SWAP2 CALLVALUE SWAP1 GAS CALL DUP1 ISZERO PUSH2 0x1518 JUMPI PUSH2 0x7DD SWAP5 PUSH1 0x2 SWAP4 PUSH1 0x20 SWAP4 DUP5 SWAP4 PUSH2 0x1767 JUMPI JUMPDEST DUP3 SWAP8 POP DUP2 SWAP6 POP PUSH2 0x16C8 JUMP JUMPDEST PUSH2 0x1774 SWAP2 SWAP3 POP PUSH0 SWAP1 PUSH2 0x6E9 JUMP JUMPDEST PUSH0 SWAP1 PUSH0 PUSH2 0x175C JUMP JUMPDEST SWAP1 POP PUSH1 0x20 DUP2 RETURNDATASIZE PUSH1 0x20 GT PUSH2 0x17AF JUMPI JUMPDEST DUP2 PUSH2 0x1797 PUSH1 0x20 SWAP4 DUP4 PUSH2 0x6E9 JUMP JUMPDEST DUP2 ADD SUB SLT PUSH2 0x171 JUMPI MLOAD DUP1 ISZERO ISZERO DUP2 SUB PUSH2 0x171 JUMPI PUSH0 PUSH2 0x16C1 JUMP JUMPDEST RETURNDATASIZE SWAP2 POP PUSH2 0x178A JUMP JUMPDEST POP POP POP POP POP POP POP JUMP JUMPDEST SWAP2 ISZERO ISZERO PUSH1 0x1 EQ PUSH2 0x17D0 JUMPI POP POP PUSH0 SWAP1 JUMP JUMPDEST PUSH1 0x20 PUSH2 0x17F0 SWAP3 DUP3 PUSH1 0x40 MLOAD SWAP4 DUP5 SWAP3 DUP4 CALLDATACOPY DUP2 ADD PUSH1 0x2 DUP2 MSTORE SUB ADD SWAP1 KECCAK256 CALLER SWAP1 PUSH2 0x1541 JUMP JUMPDEST PUSH1 0x1 SWAP1 JUMP JUMPDEST MLOAD ISZERO PUSH2 0x1800 JUMPI PUSH1 0x1 SWAP1 JUMP JUMPDEST PUSH0 SWAP1 JUMP INVALID LOG2 PUSH5 0x6970667358 0x22 SLT KECCAK256 DUP14 SAR 0x26 0xAC 0xED 0xD8 SWAP9 0xEC JUMPDEST 0xAF 0xEC LOG2 0xEC DUP12 0xD5 0xDC JUMP PUSH26 0x48E284BA6B226791AF856613E4F264736F6C634300081A003300 "
				},
				"gasEstimates": {
					"creation": {
						"codeDepositCost": "1240400",
						"executionCost": "infinite",
						"totalCost": "infinite"
					},
					"external": {
						"CheckCTI(string)": "infinite",
						"ConsumerSelectDelegator(string,string,address,string)": "infinite",
						"GetAssignmentVerified(string)": "infinite",
						"ProducerSelectDelegator(string,address[],uint256,uint256,uint256,string)": "infinite",
						"UploadCTI(string,address,string)": "infinite",
						"VerifyAssignment(string,bool)": "infinite",
						"consumerUpgrade(string,string,string)": "infinite",
						"getPoints(address)": "2648",
						"maxDiscountPercent()": "2410",
						"pointValueInWei()": "2248",
						"points(address)": "2428",
						"setMaxDiscountPercent(uint256)": "22349",
						"setPointValueInWei(uint256)": "22324",
						"tx_list(string)": "infinite"
					},
					"internal": {
						"get(string memory)": "infinite",
						"isStringEqual(string memory,string memory)": "infinite"
					}
				},
				"methodIdentifiers": {
					"CheckCTI(string)": "dc7e701e",
					"ConsumerSelectDelegator(string,string,address,string)": "b3a1c864",
					"GetAssignmentVerified(string)": "e2599078",
					"ProducerSelectDelegator(string,address[],uint256,uint256,uint256,string)": "82da59f2",
					"UploadCTI(string,address,string)": "fa4a3287",
					"VerifyAssignment(string,bool)": "f26d9918",
					"consumerUpgrade(string,string,string)": "ea7937c2",
					"getPoints(address)": "ee204abb",
					"maxDiscountPercent()": "d0b13a62",
					"pointValueInWei()": "022a6089",
					"points(address)": "358b8166",
					"setMaxDiscountPercent(uint256)": "9461a963",
					"setPointValueInWei(uint256)": "83cf6c95",
					"tx_list(string)": "cf99f51d"
				}
			},
			"storageLayout": {
				"storage": [
					{
						"astId": 705,
						"contract": "ctiIncentiveDedupRegistry/ctiIncentiveDedupRegistry.sol:AssignmentContract",
						"label": "delegator_contract",
						"offset": 0,
						"slot": "0",
						"type": "t_contract(DelegatorContract)1501"
					},
					{
						"astId": 756,
						"contract": "ctiIncentiveDedupRegistry/ctiIncentiveDedupRegistry.sol:AssignmentContract",
						"label": "points",
						"offset": 0,
						"slot": "1",
						"type": "t_mapping(t_address,t_uint256)"
					},
					{
						"astId": 761,
						"contract": "ctiIncentiveDedupRegistry/ctiIncentiveDedupRegistry.sol:AssignmentContract",
						"label": "record",
						"offset": 0,
						"slot": "2",
						"type": "t_mapping(t_string_memory_ptr,t_array(t_address)dyn_storage)"
					},
					{
						"astId": 766,
						"contract": "ctiIncentiveDedupRegistry/ctiIncentiveDedupRegistry.sol:AssignmentContract",
						"label": "assignment_list",
						"offset": 0,
						"slot": "3",
						"type": "t_mapping(t_string_memory_ptr,t_struct(Assignment)733_storage)"
					},
					{
						"astId": 771,
						"contract": "ctiIncentiveDedupRegistry/ctiIncentiveDedupRegistry.sol:AssignmentContract",
						"label": "tx_list",
						"offset": 0,
						"slot": "4",
						"type": "t_mapping(t_string_memory_ptr,t_struct(transaction)752_storage)"
					},
					{
						"astId": 774,
						"contract": "ctiIncentiveDedupRegistry/ctiIncentiveDedupRegistry.sol:AssignmentContract",
						"label": "maxDiscountPercent",
						"offset": 0,
						"slot": "5",
						"type": "t_uint256"
					},
					{
						"astId": 777,
						"contract": "ctiIncentiveDedupRegistry/ctiIncentiveDedupRegistry.sol:AssignmentContract",
						"label": "pointValueInWei",
						"offset": 0,
						"slot": "6",
						"type": "t_uint256"
					}
				],
				"types": {
					"t_address": {
						"encoding": "inplace",
						"label": "address",
						"numberOfBytes": "20"
					},
					"t_array(t_address)dyn_storage": {
						"base": "t_address",
						"encoding": "dynamic_array",
						"label": "address[]",
						"numberOfBytes": "32"
					},
					"t_contract(DelegatorContract)1501": {
						"encoding": "inplace",
						"label": "contract DelegatorContract",
						"numberOfBytes": "20"
					},
					"t_int256": {
						"encoding": "inplace",
						"label": "int256",
						"numberOfBytes": "32"
					},
					"t_mapping(t_address,t_uint256)": {
						"encoding": "mapping",
						"key": "t_address",
						"label": "mapping(address => uint256)",
						"numberOfBytes": "32",
						"value": "t_uint256"
					},
					"t_mapping(t_string_memory_ptr,t_array(t_address)dyn_storage)": {
						"encoding": "mapping",
						"key": "t_string_memory_ptr",
						"label": "mapping(string => address[])",
						"numberOfBytes": "32",
						"value": "t_array(t_address)dyn_storage"
					},
					"t_mapping(t_string_memory_ptr,t_struct(Assignment)733_storage)": {
						"encoding": "mapping",
						"key": "t_string_memory_ptr",
						"label": "mapping(string => struct AssignmentContract.Assignment)",
						"numberOfBytes": "32",
						"value": "t_struct(Assignment)733_storage"
					},
					"t_mapping(t_string_memory_ptr,t_struct(transaction)752_storage)": {
						"encoding": "mapping",
						"key": "t_string_memory_ptr",
						"label": "mapping(string => struct AssignmentContract.transaction)",
						"numberOfBytes": "32",
						"value": "t_struct(transaction)752_storage"
					},
					"t_string_memory_ptr": {
						"encoding": "bytes",
						"label": "string",
						"numberOfBytes": "32"
					},
					"t_string_storage": {
						"encoding": "bytes",
						"label": "string",
						"numberOfBytes": "32"
					},
					"t_struct(Assignment)733_storage": {
						"encoding": "inplace",
						"label": "struct AssignmentContract.Assignment",
						"members": [
							{
								"astId": 719,
								"contract": "ctiIncentiveDedupRegistry/ctiIncentiveDedupRegistry.sol:AssignmentContract",
								"label": "tid",
								"offset": 0,
								"slot": "0",
								"type": "t_string_storage"
							},
							{
								"astId": 721,
								"contract": "ctiIncentiveDedupRegistry/ctiIncentiveDedupRegistry.sol:AssignmentContract",
								"label": "producer",
								"offset": 0,
								"slot": "1",
								"type": "t_address"
							},
							{
								"astId": 724,
								"contract": "ctiIncentiveDedupRegistry/ctiIncentiveDedupRegistry.sol:AssignmentContract",
								"label": "delegators_address",
								"offset": 0,
								"slot": "2",
								"type": "t_array(t_address)dyn_storage"
							},
							{
								"astId": 726,
								"contract": "ctiIncentiveDedupRegistry/ctiIncentiveDedupRegistry.sol:AssignmentContract",
								"label": "price",
								"offset": 0,
								"slot": "3",
								"type": "t_uint256"
							},
							{
								"astId": 728,
								"contract": "ctiIncentiveDedupRegistry/ctiIncentiveDedupRegistry.sol:AssignmentContract",
								"label": "producer_price",
								"offset": 0,
								"slot": "4",
								"type": "t_uint256"
							},
							{
								"astId": 730,
								"contract": "ctiIncentiveDedupRegistry/ctiIncentiveDedupRegistry.sol:AssignmentContract",
								"label": "delegator_price",
								"offset": 0,
								"slot": "5",
								"type": "t_uint256"
							},
							{
								"astId": 732,
								"contract": "ctiIncentiveDedupRegistry/ctiIncentiveDedupRegistry.sol:AssignmentContract",
								"label": "ipfsHash",
								"offset": 0,
								"slot": "6",
								"type": "t_string_storage"
							}
						],
						"numberOfBytes": "224"
					},
					"t_struct(transaction)752_storage": {
						"encoding": "inplace",
						"label": "struct AssignmentContract.transaction",
						"members": [
							{
								"astId": 735,
								"contract": "ctiIncentiveDedupRegistry/ctiIncentiveDedupRegistry.sol:AssignmentContract",
								"label": "tid",
								"offset": 0,
								"slot": "0",
								"type": "t_string_storage"
							},
							{
								"astId": 737,
								"contract": "ctiIncentiveDedupRegistry/ctiIncentiveDedupRegistry.sol:AssignmentContract",
								"label": "txid",
								"offset": 0,
								"slot": "1",
								"type": "t_string_storage"
							},
							{
								"astId": 739,
								"contract": "ctiIncentiveDedupRegistry/ctiIncentiveDedupRegistry.sol:AssignmentContract",
								"label": "producer",
								"offset": 0,
								"slot": "2",
								"type": "t_address"
							},
							{
								"astId": 741,
								"contract": "ctiIncentiveDedupRegistry/ctiIncentiveDedupRegistry.sol:AssignmentContract",
								"label": "delegator",
								"offset": 0,
								"slot": "3",
								"type": "t_address"
							},
							{
								"astId": 743,
								"contract": "ctiIncentiveDedupRegistry/ctiIncentiveDedupRegistry.sol:AssignmentContract",
								"label": "consumer",
								"offset": 0,
								"slot": "4",
								"type": "t_address"
							},
							{
								"astId": 745,
								"contract": "ctiIncentiveDedupRegistry/ctiIncentiveDedupRegistry.sol:AssignmentContract",
								"label": "price",
								"offset": 0,
								"slot": "5",
								"type": "t_uint256"
							},
							{
								"astId": 747,
								"contract": "ctiIncentiveDedupRegistry/ctiIncentiveDedupRegistry.sol:AssignmentContract",
								"label": "producer_price",
								"offset": 0,
								"slot": "6",
								"type": "t_uint256"
							},
							{
								"astId": 749,
								"contract": "ctiIncentiveDedupRegistry/ctiIncentiveDedupRegistry.sol:AssignmentContract",
								"label": "delegator_price",
								"offset": 0,
								"slot": "7",
								"type": "t_uint256"
							},
							{
								"astId": 751,
								"contract": "ctiIncentiveDedupRegistry/ctiIncentiveDedupRegistry.sol:AssignmentContract",
								"label": "status",
								"offset": 0,
								"slot": "8",
								"type": "t_int256"
							}
						],
						"numberOfBytes": "288"
					},
					"t_uint256": {
						"encoding": "inplace",
						"label": "uint256",
						"numberOfBytes": "32"
					}
				}
			},
			"userdoc": {
				"kind": "user",
				"methods": {},
				"version": 1
			}
		}
	}
}