{
	"data": {
		"bytecode": {
			"linkReferences": {},
			"object": "608080604052346015576108bd908161001a8239f35b5f80fdfe608080604052600436101561001a575b50361561001857005b005b5f3560e01c90816330fdf3741461064f5750806380c9419e146105ba578063d6192e2914610251578063ec821d33146100c8578063f6d0bf2f146100ad5763fd8ab48214610068575f61000f565b346100a95760203660031901126100a9576004356001600160a01b038116908190036100a9575f526001602052602060ff60405f2054166040519015158152f35b5f80fd5b346100a9575f3660031901126100a957602047604051908152f35b346100a9575f3660031901126100a9575f5467ffffffffffffffff811161023d57604051906100fd60208260051b018361072d565b8082526020820190815f80527f290decd9548b62a8d60345a988386fc84ba6bc95484008f6362f93160ef3e5635f915b8383106101dd57848660405191829160208301906020845251809152604083019060408160051b85010192915f905b82821061016b57505050500390f35b919360019193955060208091603f198982030185528751906080806101c761019c855160a0865260a08601906107ef565b888060a01b0387870151168786015260408601516040860152606086015185820360608701526107ef565b930151910152960192019201859493919261015c565b600560206001926040516101f081610711565b6101f98661074f565b8152848060a01b03858701541683820152600286015460408201526102206003870161074f565b60608201526004860154608082015281520192019201919061012d565b634e487b7160e01b5f52604160045260245ffd5b60403660031901126100a95760043567ffffffffffffffff81116100a95761027d903690600401610813565b60243567ffffffffffffffff81116100a95761029d903690600401610813565b92341580156100a9575f906105b1575b5f8080809334903090f1156105a6576102d490604051936102cd85610711565b3691610841565b82526102f160208301913383526040840194600a86523691610841565b926060830193845260808301914283525f546801000000000000000081101561023d5780600161032392015f5561068d565b949094610593575180519067ffffffffffffffff821161023d57819061034987546106d9565b601f8111610543575b50602090601f83116001146104e0575f926104d5575b50508160011b915f199060031b1c19161784555b600184019060018060a01b039051166bffffffffffffffffffffffff60a01b82541617905551600283015560038201925192835167ffffffffffffffff811161023d576103c982546106d9565b601f8111610490575b506020601f821160011461042b578190600495965f92610420575b50508160011b915f199060031b1c19161790555b51910155335f52600160205260405f20600160ff198254161790555f80f35b0151905086806103ed565b601f19821695835f52815f20965f5b8181106104785750916004969791846001959410610460575b505050811b019055610401565b01515f1960f88460031b161c19169055868080610453565b8383015189556001909801976020938401930161043a565b825f5260205f20601f830160051c810191602084106104cb575b601f0160051c01905b8181106104c057506103d2565b5f81556001016104b3565b90915081906104aa565b015190508780610368565b5f8881528281209350601f198516905b81811061052b5750908460019594939210610513575b505050811b01845561037c565b01515f1960f88460031b161c19169055878080610506565b929360206001819287860151815501950193016104f0565b909150865f5260205f20601f840160051c81019160208510610589575b90601f859493920160051c01905b81811061057b5750610352565b5f815584935060010161056e565b9091508190610560565b634e487b7160e01b5f525f60045260245ffd5b6040513d5f823e3d90fd5b506108fc6102ad565b346100a95760203660031901126100a9576004355f548110156100a9576105e361062d9161068d565b506105ed8161074f565b600182015460028301549192610645916001600160a01b03169060046106156003830161074f565b9101549360405196879660a0885260a08801906107ef565b926020870152604086015284820360608601526107ef565b9060808301520390f35b346100a95760203660031901126100a9576004356001600160a01b03811691908290036100a9576020915f526001825260ff60405f20541615158152f35b5f548110156106c5575f8080526005919091027f290decd9548b62a8d60345a988386fc84ba6bc95484008f6362f93160ef3e5630191565b634e487b7160e01b5f52603260045260245ffd5b90600182811c92168015610707575b60208310146106f357565b634e487b7160e01b5f52602260045260245ffd5b91607f16916106e8565b60a0810190811067ffffffffffffffff82111761023d57604052565b90601f8019910116810190811067ffffffffffffffff82111761023d57604052565b9060405191825f825492610762846106d9565b80845293600181169081156107cd5750600114610789575b506107879250038361072d565b565b90505f9291925260205f20905f915b8183106107b1575050906020610787928201015f61077a565b6020919350806001915483858901015201910190918492610798565b90506020925061078794915060ff191682840152151560051b8201015f61077a565b805180835260209291819084018484015e5f828201840152601f01601f1916010190565b9181601f840112156100a95782359167ffffffffffffffff83116100a957602083818601950101116100a957565b92919267ffffffffffffffff821161023d576040519161086b601f8201601f19166020018461072d565b8294818452818301116100a9578281602093845f96013701015256fea26469706673582212205ca863af27379110eb105b3355d3a5cd15cc0162e6ef342ecc3d2c315af3c04064736f6c634300081a0033",
			"opcodes": "PUSH1 0x80 DUP1 PUSH1 0x40 MSTORE CALLVALUE PUSH1 0x15 JUMPI PUSH2 0x8BD SWAP1 DUP2 PUSH2 0x1A DUP3 CODECOPY RETURN JUMPDEST PUSH0 DUP1 REVERT INVALID PUSH1 0x80 DUP1 PUSH1 0x40 MSTORE PUSH1 0x4 CALLDATASIZE LT ISZERO PUSH2 0x1A JUMPI JUMPDEST POP CALLDATASIZE ISZERO PUSH2 0x18 JUMPI STOP JUMPDEST STOP JUMPDEST PUSH0 CALLDATALOAD PUSH1 0xE0 SHR SWAP1 DUP2 PUSH4 0x30FDF374 EQ PUSH2 0x64F JUMPI POP DUP1 PUSH4 0x80C9419E EQ PUSH2 0x5BA JUMPI DUP1 PUSH4 0xD6192E29 EQ PUSH2 0x251 JUMPI DUP1 PUSH4 0xEC821D33 EQ PUSH2 0xC8 JUMPI DUP1 PUSH4 0xF6D0BF2F EQ PUSH2 0xAD JUMPI PUSH4 0xFD8AB482 EQ PUSH2 0x68 JUMPI PUSH0 PUSH2 0xF JUMP JUMPDEST CALLVALUE PUSH2 0xA9 JUMPI PUSH1 0x20 CALLDATASIZE PUSH1 0x3 NOT ADD SLT PUSH2 0xA9 JUMPI PUSH1 0x4 CALLDATALOAD PUSH1 0x1 PUSH1 0x1 PUSH1 0xA0 SHL SUB DUP2 AND SWAP1 DUP2 SWAP1 SUB PUSH2 0xA9 JUMPI PUSH0 MSTORE PUSH1 0x1 PUSH1 0x20 MSTORE PUSH1 0x20 PUSH1 0xFF PUSH1 0x40 PUSH0 KECCAK256 SLOAD AND PUSH1 0x40 MLOAD SWAP1 ISZERO ISZERO DUP2 MSTORE RETURN JUMPDEST PUSH0 DUP1 REVERT JUMPDEST CALLVALUE PUSH2 0xA9 JUMPI PUSH0 CALLDATASIZE PUSH1 0x3 NOT ADD SLT PUSH2 0xA9 JUMPI PUSH1 0x20 SELFBALANCE PUSH1 0x40 MLOAD SWAP1 DUP2 MSTORE RETURN JUMPDEST CALLVALUE PUSH2 0xA9 JUMPI PUSH0 CALLDATASIZE PUSH1 0x3 NOT ADD SLT PUSH2 0xA9 JUMPI PUSH0 SLOAD PUSH8 0xFFFFFFFFFFFFFFFF DUP2 GT PUSH2 0x23D JUMPI PUSH1 0x40 MLOAD SWAP1 PUSH2 0xFD PUSH1 0x20 DUP3 PUSH1 0x5 SHL ADD DUP4 PUSH2 0x72D JUMP JUMPDEST DUP1 DUP3 MSTORE PUSH1 0x20 DUP3 ADD SWAP1 DUP2 PUSH0 DUP1 MSTORE PUSH32 0x290DECD9548B62A8D60345A988386FC84BA6BC95484008F6362F93160EF3E563 PUSH0 SWAP2 JUMPDEST DUP4 DUP4 LT PUSH2 0x1DD JUMPI DUP5 DUP7 PUSH1 0x40 MLOAD SWAP2 DUP3 SWAP2 PUSH1 0x20 DUP4 ADD SWAP1 PUSH1 0x20 DUP5 MSTORE MLOAD DUP1 SWAP2 MSTORE PUSH1 0x40 DUP4 ADD SWAP1 PUSH1 0x40 DUP2 PUSH1 0x5 SHL DUP6 ADD ADD SWAP3 SWAP2 PUSH0 SWAP1 JUMPDEST DUP3 DUP3 LT PUSH2 0x16B JUMPI POP POP POP POP SUB SWAP1 RETURN JUMPDEST SWAP2 SWAP4 PUSH1 0x1 SWAP2 SWAP4 SWAP6 POP PUSH1 0x20 DUP1 SWAP2 PUSH1 0x3F NOT DUP10 DUP3 SUB ADD DUP6 MSTORE DUP8 MLOAD SWAP1 PUSH1 0x80 DUP1 PUSH2 0x1C7 PUSH2 0x19C DUP6 MLOAD PUSH1 0xA0 DUP7 MSTORE PUSH1 0xA0 DUP7 ADD SWAP1 PUSH2 0x7EF JUMP JUMPDEST DUP9 DUP1 PUSH1 0xA0 SHL SUB DUP8 DUP8 ADD MLOAD AND DUP8 DUP7 ADD MSTORE PUSH1 0x40 DUP7 ADD MLOAD PUSH1 0x40 DUP7 ADD MSTORE PUSH1 0x60 DUP7 ADD MLOAD DUP6 DUP3 SUB PUSH1 0x60 DUP8 ADD MSTORE PUSH2 0x7EF JUMP JUMPDEST SWAP4 ADD MLOAD SWAP2 ADD MSTORE SWAP7 ADD SWAP3 ADD SWAP3 ADD DUP6 SWAP5 SWAP4 SWAP2 SWAP3 PUSH2 0x15C JUMP JUMPDEST PUSH1 0x5 PUSH1 0x20 PUSH1 0x1 SWAP3 PUSH1 0x40 MLOAD PUSH2 0x1F0 DUP2 PUSH2 0x711 JUMP JUMPDEST PUSH2 0x1F9 DUP7 PUSH2 0x74F JUMP JUMPDEST DUP2 MSTORE DUP5 DUP1 PUSH1 0xA0 SHL SUB DUP6 DUP8 ADD SLOAD AND DUP4 DUP3 ADD MSTORE PUSH1 0x2 DUP7 ADD SLOAD PUSH1 0x40 DUP3 ADD MSTORE PUSH2 0x220 PUSH1 0x3 DUP8 ADD PUSH2 0x74F JUMP JUMPDEST PUSH1 0x60 DUP3 ADD MSTORE PUSH1 0x4 DUP7 ADD SLOAD PUSH1 0x80 DUP3 ADD MSTORE DUP2 MSTORE ADD SWAP3 ADD SWAP3 ADD SWAP2 SWAP1 PUSH2 0x12D JUMP JUMPDEST PUSH4 0x4E487B71 PUSH1 0xE0 SHL PUSH0 MSTORE PUSH1 0x41 PUSH1 0x4 MSTORE PUSH1 0x24 PUSH0 REVERT JUMPDEST PUSH1 0x40 CALLDATASIZE PUSH1 0x3 NOT ADD SLT PUSH2 0xA9 JUMPI PUSH1 0x4 CALLDATALOAD PUSH8 0xFFFFFFFFFFFFFFFF DUP2 GT PUSH2 0xA9 JUMPI PUSH2 0x27D SWAP1 CALLDATASIZE SWAP1 PUSH1 0x4 ADD PUSH2 0x813 JUMP JUMPDEST PUSH1 0x24 CALLDATALOAD PUSH8 0xFFFFFFFFFFFFFFFF DUP2 GT PUSH2 0xA9 JUMPI PUSH2 0x29D SWAP1 CALLDATASIZE SWAP1 PUSH1 0x4 ADD PUSH2 0x813 JUMP JUMPDEST SWAP3 CALLVALUE ISZERO DUP1 ISZERO PUSH2 0xA9 JUMPI PUSH0 SWAP1 PUSH2 0x5B1 JUMPI JUMPDEST PUSH0 DUP1 DUP1 DUP1 SWAP4 CALLVALUE SWAP1 ADDRESS SWAP1 CALL ISZERO PUSH2 0x5A6 JUMPI PUSH2 0x2D4 SWAP1 PUSH1 0x40 MLOAD SWAP4 PUSH2 0x2CD DUP6 PUSH2 0x711 JUMP JUMPDEST CALLDATASIZE SWAP2 PUSH2 0x841 JUMP JUMPDEST DUP3 MSTORE PUSH2 0x2F1 PUSH1 0x20 DUP4 ADD SWAP2 CALLER DUP4 MSTORE PUSH1 0x40 DUP5 ADD SWAP5 PUSH1 0xA DUP7 MSTORE CALLDATASIZE SWAP2 PUSH2 0x841 JUMP JUMPDEST SWAP3 PUSH1 0x60 DUP4 ADD SWAP4 DUP5 MSTORE PUSH1 0x80 DUP4 ADD SWAP2 TIMESTAMP DUP4 MSTORE PUSH0 SLOAD PUSH9 0x10000000000000000 DUP2 LT ISZERO PUSH2 0x23D JUMPI DUP1 PUSH1 0x1 PUSH2 0x323 SWAP3 ADD PUSH0 SSTORE PUSH2 0x68D JUMP JUMPDEST SWAP5 SWAP1 SWAP5 PUSH2 0x593 JUMPI MLOAD DUP1 MLOAD SWAP1 PUSH8 0xFFFFFFFFFFFFFFFF DUP3 GT PUSH2 0x23D JUMPI DUP2 SWAP1 PUSH2 0x349 DUP8 SLOAD PUSH2 0x6D9 JUMP JUMPDEST PUSH1 0x1F DUP2 GT PUSH2 0x543 JUMPI JUMPDEST POP PUSH1 0x20 SWAP1 PUSH1 0x1F DUP4 GT PUSH1 0x1 EQ PUSH2 0x4E0 JUMPI PUSH0 SWAP3 PUSH2 0x4D5 JUMPI JUMPDEST POP POP DUP2 PUSH1 0x1 SHL SWAP2 PUSH0 NOT SWAP1 PUSH1 0x3 SHL SHR NOT AND OR DUP5 SSTORE JUMPDEST PUSH1 0x1 DUP5 ADD SWAP1 PUSH1 0x1 DUP1 PUSH1 0xA0 SHL SUB SWAP1 MLOAD AND PUSH12 0xFFFFFFFFFFFFFFFFFFFFFFFF PUSH1 0xA0 SHL DUP3 SLOAD AND OR SWAP1 SSTORE MLOAD PUSH1 0x2 DUP4 ADD SSTORE PUSH1 0x3 DUP3 ADD SWAP3 MLOAD SWAP3 DUP4 MLOAD PUSH8 0xFFFFFFFFFFFFFFFF DUP2 GT PUSH2 0x23D JUMPI PUSH2 0x3C9 DUP3 SLOAD PUSH2 0x6D9 JUMP JUMPDEST PUSH1 0x1F DUP2 GT PUSH2 0x490 JUMPI JUMPDEST POP PUSH1 0x20 PUSH1 0x1F DUP3 GT PUSH1 0x1 EQ PUSH2 0x42B JUMPI DUP2 SWAP1 PUSH1 0x4 SWAP6 SWAP7 PUSH0 SWAP3 PUSH2 0x420 JUMPI JUMPDEST POP POP DUP2 PUSH1 0x1 SHL SWAP2 PUSH0 NOT SWAP1 PUSH1 0x3 SHL SHR NOT AND OR SWAP1 SSTORE JUMPDEST MLOAD SWAP2 ADD SSTORE CALLER PUSH0 MSTORE PUSH1 0x1 PUSH1 0x20 MSTORE PUSH1 0x40 PUSH0 KECCAK256 PUSH1 0x1 PUSH1 0xFF NOT DUP3 SLOAD AND OR SWAP1 SSTORE PUSH0 DUP1 RETURN JUMPDEST ADD MLOAD SWAP1 POP DUP7 DUP1 PUSH2 0x3ED JUMP JUMPDEST PUSH1 0x1F NOT DUP3 AND SWAP6 DUP4 PUSH0 MSTORE DUP2 PUSH0 KECCAK256 SWAP7 PUSH0 JUMPDEST DUP2 DUP2 LT PUSH2 0x478 JUMPI POP SWAP2 PUSH1 0x4 SWAP7 SWAP8 SWAP2 DUP5 PUSH1 0x1 SWAP6 SWAP5 LT PUSH2 0x460 JUMPI JUMPDEST POP POP POP DUP2 SHL ADD SWAP1 SSTORE PUSH2 0x401 JUMP JUMPDEST ADD MLOAD PUSH0 NOT PUSH1 0xF8 DUP5 PUSH1 0x3 SHL AND SHR NOT AND SWAP1 SSTORE DUP7 DUP1 DUP1 PUSH2 0x453 JUMP JUMPDEST DUP4 DUP4 ADD MLOAD DUP10 SSTORE PUSH1 0x1 SWAP1 SWAP9 ADD SWAP8 PUSH1 0x20 SWAP4 DUP5 ADD SWAP4 ADD PUSH2 0x43A JUMP JUMPDEST DUP3 PUSH0 MSTORE PUSH1 0x20 PUSH0 KECCAK256 PUSH1 0x1F DUP4 ADD PUSH1 0x5 SHR DUP2 ADD SWAP2 PUSH1 0x20 DUP5 LT PUSH2 0x4CB JUMPI JUMPDEST PUSH1 0x1F ADD PUSH1 0x5 SHR ADD SWAP1 JUMPDEST DUP2 DUP2 LT PUSH2 0x4C0 JUMPI POP PUSH2 0x3D2 JUMP JUMPDEST PUSH0 DUP2 SSTORE PUSH1 0x1 ADD PUSH2 0x4B3 JUMP JUMPDEST SWAP1 SWAP2 POP DUP2 SWAP1 PUSH2 0x4AA JUMP JUMPDEST ADD MLOAD SWAP1 POP DUP8 DUP1 PUSH2 0x368 JUMP JUMPDEST PUSH0 DUP9 DUP2 MSTORE DUP3 DUP2 KECCAK256 SWAP4 POP PUSH1 0x1F NOT DUP6 AND SWAP1 JUMPDEST DUP2 DUP2 LT PUSH2 0x52B JUMPI POP SWAP1 DUP5 PUSH1 0x1 SWAP6 SWAP5 SWAP4 SWAP3 LT PUSH2 0x513 JUMPI JUMPDEST POP POP POP DUP2 SHL ADD DUP5 SSTORE PUSH2 0x37C JUMP JUMPDEST ADD MLOAD PUSH0 NOT PUSH1 0xF8 DUP5 PUSH1 0x3 SHL AND SHR NOT AND SWAP1 SSTORE DUP8 DUP1 DUP1 PUSH2 0x506 JUMP JUMPDEST SWAP3 SWAP4 PUSH1 0x20 PUSH1 0x1 DUP2 SWAP3 DUP8 DUP7 ADD MLOAD DUP2 SSTORE ADD SWAP6 ADD SWAP4 ADD PUSH2 0x4F0 JUMP JUMPDEST SWAP1 SWAP2 POP DUP7 PUSH0 MSTORE PUSH1 0x20 PUSH0 KECCAK256 PUSH1 0x1F DUP5 ADD PUSH1 0x5 SHR DUP2 ADD SWAP2 PUSH1 0x20 DUP6 LT PUSH2 0x589 JUMPI JUMPDEST SWAP1 PUSH1 0x1F DUP6 SWAP5 SWAP4 SWAP3 ADD PUSH1 0x5 SHR ADD SWAP1 JUMPDEST DUP2 DUP2 LT PUSH2 0x57B JUMPI POP PUSH2 0x352 JUMP JUMPDEST PUSH0 DUP2 SSTORE DUP5 SWAP4 POP PUSH1 0x1 ADD PUSH2 0x56E JUMP JUMPDEST SWAP1 SWAP2 POP DUP2 SWAP1 PUSH2 0x560 JUMP JUMPDEST PUSH4 0x4E487B71 PUSH1 0xE0 SHL PUSH0 MSTORE PUSH0 PUSH1 0x4 MSTORE PUSH1 0x24 PUSH0 REVERT JUMPDEST PUSH1 0x40 MLOAD RETURNDATASIZE PUSH0 DUP3 RETURNDATACOPY RETURNDATASIZE SWAP1 REVERT JUMPDEST POP PUSH2 0x8FC PUSH2 0x2AD JUMP JUMPDEST CALLVALUE PUSH2 0xA9 JUMPI PUSH1 0x20 CALLDATASIZE PUSH1 0x3 NOT ADD SLT PUSH2 0xA9 JUMPI PUSH1 0x4 CALLDATALOAD PUSH0 SLOAD DUP2 LT ISZERO PUSH2 0xA9 JUMPI PUSH2 0x5E3 PUSH2 0x62D SWAP2 PUSH2 0x68D JUMP JUMPDEST POP PUSH2 0x5ED DUP2 PUSH2 0x74F JUMP JUMPDEST PUSH1 0x1 DUP3 ADD SLOAD PUSH1 0x2 DUP4 ADD SLOAD SWAP2 SWAP3 PUSH2 0x645 SWAP2 PUSH1 0x1 PUSH1 0x1 PUSH1 0xA0 SHL SUB AND SWAP1 PUSH1 0x4 PUSH2 0x615 PUSH1 0x3 DUP4 ADD PUSH2 0x74F JUMP JUMPDEST SWAP2 ADD SLOAD SWAP4 PUSH1 0x40 MLOAD SWAP7 DUP8 SWAP7 PUSH1 0xA0 DUP9 MSTORE PUSH1 0xA0 DUP9 ADD SWAP1 PUSH2 0x7EF JUMP JUMPDEST SWAP3 PUSH1 0x20 DUP8 ADD MSTORE PUSH1 0x40 DUP7 ADD MSTORE DUP5 DUP3 SUB PUSH1 0x60 DUP7 ADD MSTORE PUSH2 0x7EF JUMP JUMPDEST SWAP1 PUSH1 0x80 DUP4 ADD MSTORE SUB SWAP1 RETURN JUMPDEST CALLVALUE PUSH2 0xA9 JUMPI PUSH1 0x20 CALLDATASIZE PUSH1 0x3 NOT ADD SLT PUSH2 0xA9 JUMPI PUSH1 0x4 CALLDATALOAD PUSH1 0x1 PUSH1 0x1 PUSH1 0xA0 SHL SUB DUP2 AND SWAP2 SWAP1 DUP3 SWAP1 SUB PUSH2 0xA9 JUMPI PUSH1 0x20 SWAP2 PUSH0 MSTORE PUSH1 0x1 DUP3 MSTORE PUSH1 0xFF PUSH1 0x40 PUSH0 KECCAK256 SLOAD AND ISZERO ISZERO DUP2 MSTORE RETURN JUMPDEST PUSH0 SLOAD DUP2 LT ISZERO PUSH2 0x6C5 JUMPI PUSH0 DUP1 DUP1 MSTORE PUSH1 0x5 SWAP2 SWAP1 SWAP2 MUL PUSH32 0x290DECD9548B62A8D60345A988386FC84BA6BC95484008F6362F93160EF3E563 ADD SWAP2 JUMP JUMPDEST PUSH4 0x4E487B71 PUSH1 0xE0 SHL PUSH0 MSTORE PUSH1 0x32 PUSH1 0x4 MSTORE PUSH1 0x24 PUSH0 REVERT JUMPDEST SWAP1 PUSH1 0x1 DUP3 DUP2 SHR SWAP3 AND DUP1 ISZERO PUSH2 0x707 JUMPI JUMPDEST PUSH1 0x20 DUP4 LT EQ PUSH2 0x6F3 JUMPI JUMP JUMPDEST PUSH4 0x4E487B71 PUSH1 0xE0 SHL PUSH0 MSTORE PUSH1 0x22 PUSH1 0x4 MSTORE PUSH1 0x24 PUSH0 REVERT JUMPDEST SWAP2 PUSH1 0x7F AND SWAP2 PUSH2 0x6E8 JUMP JUMPDEST PUSH1 0xA0 DUP2 ADD SWAP1 DUP2 LT PUSH8 0xFFFFFFFFFFFFFFFF DUP3 GT OR PUSH2 0x23D JUMPI PUSH1 0x40 MSTORE JUMP JUMPDEST SWAP1 PUSH1 0x1F DUP1 NOT SWAP2 ADD AND DUP2 ADD SWAP1 DUP2 LT PUSH8 0xFFFFFFFFFFFFFFFF DUP3 GT OR PUSH2 0x23D JUMPI PUSH1 0x40 MSTORE JUMP JUMPDEST SWAP1 PUSH1 0x40 MLOAD SWAP2 DUP3 PUSH0 DUP3 SLOAD SWAP3 PUSH2 0x762 DUP5 PUSH2 0x6D9 JUMP JUMPDEST DUP1 DUP5 MSTORE SWAP4 PUSH1 0x1 DUP2 AND SWAP1 DUP2 ISZERO PUSH2 0x7CD JUMPI POP PUSH1 0x1 EQ PUSH2 0x789 JUMPI JUMPDEST POP PUSH2 0x787 SWAP3 POP SUB DUP4 PUSH2 0x72D JUMP JUMPDEST JUMP JUMPDEST SWAP1 POP PUSH0 SWAP3 SWAP2 SWAP3 MSTORE PUSH1 0x20 PUSH0 KECCAK256 SWAP1 PUSH0 SWAP2 JUMPDEST DUP2 DUP4 LT PUSH2 0x7B1 JUMPI POP POP SWAP1 PUSH1 0x20 PUSH2 0x787 SWAP3 DUP3 ADD ADD PUSH0 PUSH2 0x77A JUMP JUMPDEST PUSH1 0x20 SWAP2 SWAP4 POP DUP1 PUSH1 0x1 SWAP2 SLOAD DUP4 DUP6 DUP10 ADD ADD MSTORE ADD SWAP2 ADD SWAP1 SWAP2 DUP5 SWAP3 PUSH2 0x798 JUMP JUMPDEST SWAP1 POP PUSH1 0x20 SWAP3 POP PUSH2 0x787 SWAP5 SWAP2 POP PUSH1 0xFF NOT AND DUP3 DUP5 ADD MSTORE ISZERO ISZERO PUSH1 0x5 SHL DUP3 ADD ADD PUSH0 PUSH2 0x77A JUMP JUMPDEST DUP1 MLOAD DUP1 DUP4 MSTORE PUSH1 0x20 SWAP3 SWAP2 DUP2 SWAP1 DUP5 ADD DUP5 DUP5 ADD MCOPY PUSH0 DUP3 DUP3 ADD DUP5 ADD MSTORE PUSH1 0x1F ADD PUSH1 0x1F NOT AND ADD ADD SWAP1 JUMP JUMPDEST SWAP2 DUP2 PUSH1 0x1F DUP5 ADD SLT ISZERO PUSH2 0xA9 JUMPI DUP3 CALLDATALOAD SWAP2 PUSH8 0xFFFFFFFFFFFFFFFF DUP4 GT PUSH2 0xA9 JUMPI PUSH1 0x20 DUP4 DUP2 DUP7 ADD SWAP6 ADD ADD GT PUSH2 0xA9 JUMPI JUMP JUMPDEST SWAP3 SWAP2 SWAP3 PUSH8 0xFFFFFFFFFFFFFFFF DUP3 GT PUSH2 0x23D JUMPI PUSH1 0x40 MLOAD SWAP2 PUSH2 0x86B PUSH1 0x1F DUP3 ADD PUSH1 0x1F NOT AND PUSH1 0x20 ADD DUP5 PUSH2 0x72D JUMP JUMPDEST DUP3 SWAP5 DUP2 DUP5 MSTORE DUP2 DUP4 ADD GT PUSH2 0xA9 JUMPI DUP3 DUP2 PUSH1 0x20 SWAP4 DUP5 PUSH0 SWAP7 ADD CALLDATACOPY ADD ADD MSTORE JUMP INVALID LOG2 PUSH5 0x6970667358 0x22 SLT KECCAK256 TLOAD 0xA8 PUSH4 0xAF273791 LT 0xEB LT JUMPDEST CALLER SSTORE 0xD3 0xA5 0xCD ISZERO 0xCC ADD PUSH3 0xE6EF34 0x2E 0xCC RETURNDATASIZE 0x2C BALANCE GAS RETURN 0xC0 BLOCKHASH PUSH5 0x736F6C6343 STOP ADDMOD BYTE STOP CALLER "
		},
		"gasEstimates": {
			"creation": {
				"codeDepositCost": "447400",
				"executionCost": "487",
				"totalCost": "447887"
			},
			"external": {
				"": "226",
				"DelegatorInserted(address)": "2374",
				"GetContractBalance()": "246",
				"ListDelegator()": "infinite",
				"Register(string,string)": "infinite",
				"isDelegator(address)": "2486",
				"list(uint256)": "infinite"
			}
		},
		"methodIdentifiers": {
			"DelegatorInserted(address)": "30fdf374",
			"GetContractBalance()": "f6d0bf2f",
			"ListDelegator()": "ec821d33",
			"Register(string,string)": "d6192e29",
			"isDelegator(address)": "fd8ab482",
			"list(uint256)": "80c9419e"
		}
	},
	"abi": [
		{
			"stateMutability": "payable",
			"type": "fallback"
		},
		{
			"inputs": [
				{
					"internalType": "address",
					"name": "",
					"type": "address"
				}
			],
			"name": "DelegatorInserted",
			"outputs": [
				{
					"internalType": "bool",
					"name": "",
					"type": "bool"
				}
			],
			"stateMutability": "view",
			"type": "function"
		},
		{
			"inputs": [],
			"name": "GetContractBalance",
			"outputs": [
				{
					"internalType": "uint256",
					"name": "",
					"type": "uint256"
				}
			],
			"stateMutability": "view",
			"type": "function"
		},
		{
			"inputs": [],
			"name": "ListDelegator",
			"outputs": [
				{
					"components": [
						{
							"internalType": "string",
							"name": "name",
							"type": "string"
						},
						{
							"internalType": "address",
							"name": "addr",
							"type": "address"
						},
						{
							"internalType": "int256",
							"name": "reputation",
							"type": "int256"
						},
						{
							"internalType": "string",
							"name": "pubkey",
							"type": "string"
						},
						{
							"internalType": "uint256",
							"name": "time",
							"type": "uint256"
						}
					],
					"internalType": "struct DelegatorContract.Delegator[]",
					"name": "",
					"type": "tuple[]"
				}
			],
			"stateMutability": "view",
			"type": "function"
		},
		{
			"inputs": [
				{
					"internalType": "string",
					"name": "name",
					"type": "string"
				},
				{
					"internalType": "string",
					"name": "pubkey",
					"type": "string"
				}
			],
			"name": "Register",
			"outputs": [],
			"stateMutability": "payable",
			"type": "function"
		},
		{
			"inputs": [
				{
					"internalType": "address",
					"name": "addr",
					"type": "address"
				}
			],
			"name": "isDelegator",
			"outputs": [
				{
					"internalType": "bool",
					"name": "",
					"type": "bool"
				}
			],
			"stateMutability": "view",
			"type": "function"
		},
		{
			"inputs": [
				{
					"internalType": "uint256",
					"name": "",
					"type": "uint256"
				}
			],
			"name": "list",
			"outputs": [
				{
					"internalType": "string",
					"name": "name",
					"type": "string"
				},
				{
					"internalType": "address",
					"name": "addr",
					"type": "address"
				},
				{
					"internalType": "int256",
					"name": "reputation",
					"type": "int256"
				},
				{
					"internalType": "string",
					"name": "pubkey",
					"type": "string"
				},
				{
					"internalType": "uint256",
					"name": "time",
					"type": "uint256"
				}
			],
			"stateMutability": "view",
			"type": "function"
		},
		{
			"stateMutability": "payable",
			"type": "receive"
		}
	]
}