{
	"data": {
		"bytecode": {
			"linkReferences": {},
			"object": "6080604052348015600f57600080fd5b506103ad8061001f6000396000f3fe608060405234801561001057600080fd5b50600436106100885760003560e01c8063e74d223c1161005b578063e74d223c14610115578063ee204abb14610128578063f744736d14610181578063fa7d7d4e146101aa57600080fd5b806311827c7f1461008d5780638d105a66146100c05780638f0c10d2146100d5578063db095c09146100f5575b600080fd5b6100ad61009b3660046102c1565b60006020819052908152604090205481565b6040519081526020015b60405180910390f35b6100d36100ce3660046102e3565b6101bd565b005b6100ad6100e33660046102c1565b60016020526000908152604090205481565b6100ad6101033660046102c1565b60026020526000908152604090205481565b6100d3610123366004610326565b61024c565b6101666101363660046102c1565b6001600160a01b031660009081526020818152604080832054600183528184205460029093529220549192909190565b604080519384526020840192909252908201526060016100b7565b6100ad61018f3660046102c1565b6001600160a01b031660009081526002602052604090205490565b6100d36101b8366004610326565b61027d565b6001600160a01b03831660009081526020819052604081208054600a92906101e6908490610350565b90915550506001600160a01b0382166000908152600160205260408120805460059290610214908490610350565b90915550506001600160a01b0381166000908152600260205260408120805460079290610242908490610350565b9091555050505050565b6001600160a01b03821660009081526002602052604081208054839290610274908490610350565b90915550505050565b6001600160a01b03821660009081526020819052604081208054839290610274908490610350565b80356001600160a01b03811681146102bc57600080fd5b919050565b6000602082840312156102d357600080fd5b6102dc826102a5565b9392505050565b6000806000606084860312156102f857600080fd5b610301846102a5565b925061030f602085016102a5565b915061031d604085016102a5565b90509250925092565b6000806040838503121561033957600080fd5b610342836102a5565b946020939093013593505050565b8082018082111561037157634e487b7160e01b600052601160045260246000fd5b9291505056fea2646970667358221220a867ad1c607aae434e0be72fc0015f6febd818176e63e7d04092fde2070500fc64736f6c634300081a0033",
			"opcodes": "PUSH1 0x80 PUSH1 0x40 MSTORE CALLVALUE DUP1 ISZERO PUSH1 0xF JUMPI PUSH1 0x0 DUP1 REVERT JUMPDEST POP PUSH2 0x3AD DUP1 PUSH2 0x1F PUSH1 0x0 CODECOPY PUSH1 0x0 RETURN INVALID PUSH1 0x80 PUSH1 0x40 MSTORE CALLVALUE DUP1 ISZERO PUSH2 0x10 JUMPI PUSH1 0x0 DUP1 REVERT JUMPDEST POP PUSH1 0x4 CALLDATASIZE LT PUSH2 0x88 JUMPI PUSH1 0x0 CALLDATALOAD PUSH1 0xE0 SHR DUP1 PUSH4 0xE74D223C GT PUSH2 0x5B JUMPI DUP1 PUSH4 0xE74D223C EQ PUSH2 0x115 JUMPI DUP1 PUSH4 0xEE204ABB EQ PUSH2 0x128 JUMPI DUP1 PUSH4 0xF744736D EQ PUSH2 0x181 JUMPI DUP1 PUSH4 0xFA7D7D4E EQ PUSH2 0x1AA JUMPI PUSH1 0x0 DUP1 REVERT JUMPDEST DUP1 PUSH4 0x11827C7F EQ PUSH2 0x8D JUMPI DUP1 PUSH4 0x8D105A66 EQ PUSH2 0xC0 JUMPI DUP1 PUSH4 0x8F0C10D2 EQ PUSH2 0xD5 JUMPI DUP1 PUSH4 0xDB095C09 EQ PUSH2 0xF5 JUMPI JUMPDEST PUSH1 0x0 DUP1 REVERT JUMPDEST PUSH2 0xAD PUSH2 0x9B CALLDATASIZE PUSH1 0x4 PUSH2 0x2C1 JUMP JUMPDEST PUSH1 0x0 PUSH1 0x20 DUP2 SWAP1 MSTORE SWAP1 DUP2 MSTORE PUSH1 0x40 SWAP1 KECCAK256 SLOAD DUP2 JUMP JUMPDEST PUSH1 0x40 MLOAD SWAP1 DUP2 MSTORE PUSH1 0x20 ADD JUMPDEST PUSH1 0x40 MLOAD DUP1 SWAP2 SUB SWAP1 RETURN JUMPDEST PUSH2 0xD3 PUSH2 0xCE CALLDATASIZE PUSH1 0x4 PUSH2 0x2E3 JUMP JUMPDEST PUSH2 0x1BD JUMP JUMPDEST STOP JUMPDEST PUSH2 0xAD PUSH2 0xE3 CALLDATASIZE PUSH1 0x4 PUSH2 0x2C1 JUMP JUMPDEST PUSH1 0x1 PUSH1 0x20 MSTORE PUSH1 0x0 SWAP1 DUP2 MSTORE PUSH1 0x40 SWAP1 KECCAK256 SLOAD DUP2 JUMP JUMPDEST PUSH2 0xAD PUSH2 0x103 CALLDATASIZE PUSH1 0x4 PUSH2 0x2C1 JUMP JUMPDEST PUSH1 0x2 PUSH1 0x20 MSTORE PUSH1 0x0 SWAP1 DUP2 MSTORE PUSH1 0x40 SWAP1 KECCAK256 SLOAD DUP2 JUMP JUMPDEST PUSH2 0xD3 PUSH2 0x123 CALLDATASIZE PUSH1 0x4 PUSH2 0x326 JUMP JUMPDEST PUSH2 0x24C JUMP JUMPDEST PUSH2 0x166 PUSH2 0x136 CALLDATASIZE PUSH1 0x4 PUSH2 0x2C1 JUMP JUMPDEST PUSH1 0x1 PUSH1 0x1 PUSH1 0xA0 SHL SUB AND PUSH1 0x0 SWAP1 DUP2 MSTORE PUSH1 0x20 DUP2 DUP2 MSTORE PUSH1 0x40 DUP1 DUP4 KECCAK256 SLOAD PUSH1 0x1 DUP4 MSTORE DUP2 DUP5 KECCAK256 SLOAD PUSH1 0x2 SWAP1 SWAP4 MSTORE SWAP3 KECCAK256 SLOAD SWAP2 SWAP3 SWAP1 SWAP2 SWAP1 JUMP JUMPDEST PUSH1 0x40 DUP1 MLOAD SWAP4 DUP5 MSTORE PUSH1 0x20 DUP5 ADD SWAP3 SWAP1 SWAP3 MSTORE SWAP1 DUP3 ADD MSTORE PUSH1 0x60 ADD PUSH2 0xB7 JUMP JUMPDEST PUSH2 0xAD PUSH2 0x18F CALLDATASIZE PUSH1 0x4 PUSH2 0x2C1 JUMP JUMPDEST PUSH1 0x1 PUSH1 0x1 PUSH1 0xA0 SHL SUB AND PUSH1 0x0 SWAP1 DUP2 MSTORE PUSH1 0x2 PUSH1 0x20 MSTORE PUSH1 0x40 SWAP1 KECCAK256 SLOAD SWAP1 JUMP JUMPDEST PUSH2 0xD3 PUSH2 0x1B8 CALLDATASIZE PUSH1 0x4 PUSH2 0x326 JUMP JUMPDEST PUSH2 0x27D JUMP JUMPDEST PUSH1 0x1 PUSH1 0x1 PUSH1 0xA0 SHL SUB DUP4 AND PUSH1 0x0 SWAP1 DUP2 MSTORE PUSH1 0x20 DUP2 SWAP1 MSTORE PUSH1 0x40 DUP2 KECCAK256 DUP1 SLOAD PUSH1 0xA SWAP3 SWAP1 PUSH2 0x1E6 SWAP1 DUP5 SWAP1 PUSH2 0x350 JUMP JUMPDEST SWAP1 SWAP2 SSTORE POP POP PUSH1 0x1 PUSH1 0x1 PUSH1 0xA0 SHL SUB DUP3 AND PUSH1 0x0 SWAP1 DUP2 MSTORE PUSH1 0x1 PUSH1 0x20 MSTORE PUSH1 0x40 DUP2 KECCAK256 DUP1 SLOAD PUSH1 0x5 SWAP3 SWAP1 PUSH2 0x214 SWAP1 DUP5 SWAP1 PUSH2 0x350 JUMP JUMPDEST SWAP1 SWAP2 SSTORE POP POP PUSH1 0x1 PUSH1 0x1 PUSH1 0xA0 SHL SUB DUP2 AND PUSH1 0x0 SWAP1 DUP2 MSTORE PUSH1 0x2 PUSH1 0x20 MSTORE PUSH1 0x40 DUP2 KECCAK256 DUP1 SLOAD PUSH1 0x7 SWAP3 SWAP1 PUSH2 0x242 SWAP1 DUP5 SWAP1 PUSH2 0x350 JUMP JUMPDEST SWAP1 SWAP2 SSTORE POP POP POP POP POP JUMP JUMPDEST PUSH1 0x1 PUSH1 0x1 PUSH1 0xA0 SHL SUB DUP3 AND PUSH1 0x0 SWAP1 DUP2 MSTORE PUSH1 0x2 PUSH1 0x20 MSTORE PUSH1 0x40 DUP2 KECCAK256 DUP1 SLOAD DUP4 SWAP3 SWAP1 PUSH2 0x274 SWAP1 DUP5 SWAP1 PUSH2 0x350 JUMP JUMPDEST SWAP1 SWAP2 SSTORE POP POP POP POP JUMP JUMPDEST PUSH1 0x1 PUSH1 0x1 PUSH1 0xA0 SHL SUB DUP3 AND PUSH1 0x0 SWAP1 DUP2 MSTORE PUSH1 0x20 DUP2 SWAP1 MSTORE PUSH1 0x40 DUP2 KECCAK256 DUP1 SLOAD DUP4 SWAP3 SWAP1 PUSH2 0x274 SWAP1 DUP5 SWAP1 PUSH2 0x350 JUMP JUMPDEST DUP1 CALLDATALOAD PUSH1 0x1 PUSH1 0x1 PUSH1 0xA0 SHL SUB DUP2 AND DUP2 EQ PUSH2 0x2BC JUMPI PUSH1 0x0 DUP1 REVERT JUMPDEST SWAP2 SWAP1 POP JUMP JUMPDEST PUSH1 0x0 PUSH1 0x20 DUP3 DUP5 SUB SLT ISZERO PUSH2 0x2D3 JUMPI PUSH1 0x0 DUP1 REVERT JUMPDEST PUSH2 0x2DC DUP3 PUSH2 0x2A5 JUMP JUMPDEST SWAP4 SWAP3 POP POP POP JUMP JUMPDEST PUSH1 0x0 DUP1 PUSH1 0x0 PUSH1 0x60 DUP5 DUP7 SUB SLT ISZERO PUSH2 0x2F8 JUMPI PUSH1 0x0 DUP1 REVERT JUMPDEST PUSH2 0x301 DUP5 PUSH2 0x2A5 JUMP JUMPDEST SWAP3 POP PUSH2 0x30F PUSH1 0x20 DUP6 ADD PUSH2 0x2A5 JUMP JUMPDEST SWAP2 POP PUSH2 0x31D PUSH1 0x40 DUP6 ADD PUSH2 0x2A5 JUMP JUMPDEST SWAP1 POP SWAP3 POP SWAP3 POP SWAP3 JUMP JUMPDEST PUSH1 0x0 DUP1 PUSH1 0x40 DUP4 DUP6 SUB SLT ISZERO PUSH2 0x339 JUMPI PUSH1 0x0 DUP1 REVERT JUMPDEST PUSH2 0x342 DUP4 PUSH2 0x2A5 JUMP JUMPDEST SWAP5 PUSH1 0x20 SWAP4 SWAP1 SWAP4 ADD CALLDATALOAD SWAP4 POP POP POP JUMP JUMPDEST DUP1 DUP3 ADD DUP1 DUP3 GT ISZERO PUSH2 0x371 JUMPI PUSH4 0x4E487B71 PUSH1 0xE0 SHL PUSH1 0x0 MSTORE PUSH1 0x11 PUSH1 0x4 MSTORE PUSH1 0x24 PUSH1 0x0 REVERT JUMPDEST SWAP3 SWAP2 POP POP JUMP INVALID LOG2 PUSH5 0x6970667358 0x22 SLT KECCAK256 0xA8 PUSH8 0xAD1C607AAE434E0B 0xE7 0x2F 0xC0 ADD PUSH0 PUSH16 0xEBD818176E63E7D04092FDE2070500FC PUSH5 0x736F6C6343 STOP ADDMOD BYTE STOP CALLER "
		},
		"gasEstimates": {
			"creation": {
				"codeDepositCost": "188200",
				"executionCost": "232",
				"totalCost": "188432"
			},
			"external": {
				"consumerPoints(address)": "1253",
				"delegatorPoints(address)": "1275",
				"getDelegatorPoints(address)": "1270",
				"getPoints(address)": "3033",
				"producerPoints(address)": "1212",
				"reward(address,address,address)": "infinite",
				"rewardDelegator(address,uint256)": "21317",
				"rewardProducer(address,uint256)": "21386"
			}
		},
		"methodIdentifiers": {
			"consumerPoints(address)": "8f0c10d2",
			"delegatorPoints(address)": "db095c09",
			"getDelegatorPoints(address)": "f744736d",
			"getPoints(address)": "ee204abb",
			"producerPoints(address)": "11827c7f",
			"reward(address,address,address)": "8d105a66",
			"rewardDelegator(address,uint256)": "e74d223c",
			"rewardProducer(address,uint256)": "fa7d7d4e"
		}
	},
	"abi": [
		{
			"inputs": [
				{
					"internalType": "address",
					"name": "",
					"type": "address"
				}
			],
			"name": "consumerPoints",
			"outputs": [
				{
					"internalType": "uint256",
					"name": "",
					"type": "uint256"
				}
			],
			"stateMutability": "view",
			"type": "function"
		},
		{
			"inputs": [
				{
					"internalType": "address",
					"name": "",
					"type": "address"
				}
			],
			"name": "delegatorPoints",
			"outputs": [
				{
					"internalType": "uint256",
					"name": "",
					"type": "uint256"
				}
			],
			"stateMutability": "view",
			"type": "function"
		},
		{
			"inputs": [
				{
					"internalType": "address",
					"name": "addr",
					"type": "address"
				}
			],
			"name": "getDelegatorPoints",
			"outputs": [
				{
					"internalType": "uint256",
					"name": "",
					"type": "uint256"
				}
			],
			"stateMutability": "view",
			"type": "function"
		},
		{
			"inputs": [
				{
					"internalType": "address",
					"name": "user",
					"type": "address"
				}
			],
			"name": "getPoints",
			"outputs": [
				{
					"internalType": "uint256",
					"name": "",
					"type": "uint256"
				},
				{
					"internalType": "uint256",
					"name": "",
					"type": "uint256"
				},
				{
					"internalType": "uint256",
					"name": "",
					"type": "uint256"
				}
			],
			"stateMutability": "view",
			"type": "function"
		},
		{
			"inputs": [
				{
					"internalType": "address",
					"name": "",
					"type": "address"
				}
			],
			"name": "producerPoints",
			"outputs": [
				{
					"internalType": "uint256",
					"name": "",
					"type": "uint256"
				}
			],
			"stateMutability": "view",
			"type": "function"
		},
		{
			"inputs": [
				{
					"internalType": "address",
					"name": "producer",
					"type": "address"
				},
				{
					"internalType": "address",
					"name": "consumer",
					"type": "address"
				},
				{
					"internalType": "address",
					"name": "delegator",
					"type": "address"
				}
			],
			"name": "reward",
			"outputs": [],
			"stateMutability": "nonpayable",
			"type": "function"
		},
		{
			"inputs": [
				{
					"internalType": "address",
					"name": "delegator",
					"type": "address"
				},
				{
					"internalType": "uint256",
					"name": "points",
					"type": "uint256"
				}
			],
			"name": "rewardDelegator",
			"outputs": [],
			"stateMutability": "nonpayable",
			"type": "function"
		},
		{
			"inputs": [
				{
					"internalType": "address",
					"name": "producer",
					"type": "address"
				},
				{
					"internalType": "uint256",
					"name": "points",
					"type": "uint256"
				}
			],
			"name": "rewardProducer",
			"outputs": [],
			"stateMutability": "nonpayable",
			"type": "function"
		}
	]
}